{"abi":[{"type":"constructor","inputs":[{"name":"_owner","type":"address","internalType":"address"}],"stateMutability":"nonpayable"},{"type":"receive","stateMutability":"payable"},{"type":"function","name":"CALL","inputs":[{"name":"_target","type":"address","internalType":"address"},{"name":"_data","type":"bytes","internalType":"bytes"},{"name":"_value","type":"uint256","internalType":"uint256"}],"outputs":[{"name":"success_","type":"bool","internalType":"bool"},{"name":"data_","type":"bytes","internalType":"bytes"}],"stateMutability":"payable"},{"type":"function","name":"DELEGATECALL","inputs":[{"name":"_target","type":"address","internalType":"address"},{"name":"_data","type":"bytes","internalType":"bytes"}],"outputs":[{"name":"success_","type":"bool","internalType":"bool"},{"name":"data_","type":"bytes","internalType":"bytes"}],"stateMutability":"payable"},{"type":"function","name":"owner","inputs":[],"outputs":[{"name":"","type":"address","internalType":"address"}],"stateMutability":"view"},{"type":"function","name":"setOwner","inputs":[{"name":"newOwner","type":"address","internalType":"address"}],"outputs":[],"stateMutability":"nonpayable"},{"type":"function","name":"withdrawERC20","inputs":[{"name":"_asset","type":"address","internalType":"contract ERC20"},{"name":"_to","type":"address","internalType":"address"},{"name":"_amount","type":"uint256","internalType":"uint256"}],"outputs":[],"stateMutability":"nonpayable"},{"type":"function","name":"withdrawERC20","inputs":[{"name":"_asset","type":"address","internalType":"contract ERC20"},{"name":"_to","type":"address","internalType":"address"}],"outputs":[],"stateMutability":"nonpayable"},{"type":"function","name":"withdrawERC721","inputs":[{"name":"_asset","type":"address","internalType":"contract ERC721"},{"name":"_to","type":"address","internalType":"address"},{"name":"_id","type":"uint256","internalType":"uint256"}],"outputs":[],"stateMutability":"nonpayable"},{"type":"function","name":"withdrawETH","inputs":[{"name":"_to","type":"address","internalType":"address payable"},{"name":"_amount","type":"uint256","internalType":"uint256"}],"outputs":[],"stateMutability":"nonpayable"},{"type":"function","name":"withdrawETH","inputs":[{"name":"_to","type":"address","internalType":"address payable"}],"outputs":[],"stateMutability":"nonpayable"},{"type":"event","name":"OwnerUpdated","inputs":[{"name":"user","type":"address","indexed":true,"internalType":"address"},{"name":"newOwner","type":"address","indexed":true,"internalType":"address"}],"anonymous":false},{"type":"event","name":"ReceivedETH","inputs":[{"name":"from","type":"address","indexed":true,"internalType":"address"},{"name":"amount","type":"uint256","indexed":false,"internalType":"uint256"}],"anonymous":false},{"type":"event","name":"WithdrewERC20","inputs":[{"name":"withdrawer","type":"address","indexed":true,"internalType":"address"},{"name":"recipient","type":"address","indexed":true,"internalType":"address"},{"name":"asset","type":"address","indexed":true,"internalType":"address"},{"name":"amount","type":"uint256","indexed":false,"internalType":"uint256"}],"anonymous":false},{"type":"event","name":"WithdrewERC721","inputs":[{"name":"withdrawer","type":"address","indexed":true,"internalType":"address"},{"name":"recipient","type":"address","indexed":true,"internalType":"address"},{"name":"asset","type":"address","indexed":true,"internalType":"address"},{"name":"id","type":"uint256","indexed":false,"internalType":"uint256"}],"anonymous":false},{"type":"event","name":"WithdrewETH","inputs":[{"name":"withdrawer","type":"address","indexed":true,"internalType":"address"},{"name":"recipient","type":"address","indexed":true,"internalType":"address"},{"name":"amount","type":"uint256","indexed":false,"internalType":"uint256"}],"anonymous":false}],"bytecode":{"object":"0x608060405234801561001057600080fd5b50604051610f4b380380610f4b83398101604081905261002f91610081565b600080546001600160a01b0319166001600160a01b038316908117825560405183928392917f8292fce18fa69edf4db7b94ea2e58241df0ae57f97e0a6c9b29067028bf92d76908290a35050506100b1565b60006020828403121561009357600080fd5b81516001600160a01b03811681146100aa57600080fd5b9392505050565b610e8b806100c06000396000f3fe60806040526004361061009a5760003560e01c8063690d8320116100695780638da5cb5b1161004e5780638da5cb5b146101a75780639456fbcc146101f9578063edee62391461021957600080fd5b8063690d83201461015d5780636e2d44ae1461017d57600080fd5b806313af4035146100db5780634025feb2146100fd57806344004cc11461011d5780634782f7791461013d57600080fd5b366100d65760405134815233907f4103257eaac983ca79a70d28f90dfc4fa16b619bb0c17ee7cab0d4034c2796249060200160405180910390a2005b600080fd5b3480156100e757600080fd5b506100fb6100f6366004610b50565b61022c565b005b34801561010957600080fd5b506100fb610118366004610b74565b610322565b34801561012957600080fd5b506100fb610138366004610b74565b6104b4565b34801561014957600080fd5b506100fb610158366004610bb5565b610645565b34801561016957600080fd5b506100fb610178366004610b50565b610795565b61019061018b366004610cbb565b610823565b60405161019e929190610d44565b60405180910390f35b3480156101b357600080fd5b506000546101d49073ffffffffffffffffffffffffffffffffffffffff1681565b60405173ffffffffffffffffffffffffffffffffffffffff909116815260200161019e565b34801561020557600080fd5b506100fb610214366004610d9e565b61091d565b610190610227366004610dd7565b610a38565b60005473ffffffffffffffffffffffffffffffffffffffff1633146102b2576040517f08c379a000000000000000000000000000000000000000000000000000000000815260206004820152600c60248201527f554e415554484f52495a4544000000000000000000000000000000000000000060448201526064015b60405180910390fd5b600080547fffffffffffffffffffffffff00000000000000000000000000000000000000001673ffffffffffffffffffffffffffffffffffffffff83169081178255604051909133917f8292fce18fa69edf4db7b94ea2e58241df0ae57f97e0a6c9b29067028bf92d769190a350565b60005473ffffffffffffffffffffffffffffffffffffffff1633146103a3576040517f08c379a000000000000000000000000000000000000000000000000000000000815260206004820152600c60248201527f554e415554484f52495a4544000000000000000000000000000000000000000060448201526064016102a9565b6040517f23b872dd00000000000000000000000000000000000000000000000000000000815230600482015273ffffffffffffffffffffffffffffffffffffffff8381166024830152604482018390528416906323b872dd90606401600060405180830381600087803b15801561041957600080fd5b505af115801561042d573d6000803e3d6000fd5b505050508273ffffffffffffffffffffffffffffffffffffffff168273ffffffffffffffffffffffffffffffffffffffff163373ffffffffffffffffffffffffffffffffffffffff167f30b478a5e196e55886228aa87ba74a7dfeba655e0a4d7ba275eabfc22aabb7a8846040516104a791815260200190565b60405180910390a4505050565b60005473ffffffffffffffffffffffffffffffffffffffff163314610535576040517f08c379a000000000000000000000000000000000000000000000000000000000815260206004820152600c60248201527f554e415554484f52495a4544000000000000000000000000000000000000000060448201526064016102a9565b6040517fa9059cbb00000000000000000000000000000000000000000000000000000000815273ffffffffffffffffffffffffffffffffffffffff83811660048301526024820183905284169063a9059cbb906044016020604051808303816000875af11580156105aa573d6000803e3d6000fd5b505050506040513d601f19601f820116820180604052508101906105ce9190610e27565b508273ffffffffffffffffffffffffffffffffffffffff168273ffffffffffffffffffffffffffffffffffffffff163373ffffffffffffffffffffffffffffffffffffffff167f6b00f1c7883f053ba83e907fd1965b22fffe3c4111383e725f04638a566cdbfa846040516104a791815260200190565b60005473ffffffffffffffffffffffffffffffffffffffff1633146106c6576040517f08c379a000000000000000000000000000000000000000000000000000000000815260206004820152600c60248201527f554e415554484f52495a4544000000000000000000000000000000000000000060448201526064016102a9565b60008273ffffffffffffffffffffffffffffffffffffffff168260405160006040518083038185875af1925050503d8060008114610720576040519150601f19603f3d011682016040523d82523d6000602084013e610725565b606091505b505090508273ffffffffffffffffffffffffffffffffffffffff163373ffffffffffffffffffffffffffffffffffffffff167f1f12aa8b6d492dd9b98e2b00b0b20830c2a7ded65afac13b60d169a034ae90bc8460405161078891815260200190565b60405180910390a3505050565b60005473ffffffffffffffffffffffffffffffffffffffff163314610816576040517f08c379a000000000000000000000000000000000000000000000000000000000815260206004820152600c60248201527f554e415554484f52495a4544000000000000000000000000000000000000000060448201526064016102a9565b6108208147610645565b50565b6000805460609073ffffffffffffffffffffffffffffffffffffffff1633146108a8576040517f08c379a000000000000000000000000000000000000000000000000000000000815260206004820152600c60248201527f554e415554484f52495a4544000000000000000000000000000000000000000060448201526064016102a9565b8473ffffffffffffffffffffffffffffffffffffffff1683856040516108ce9190610e49565b60006040518083038185875af1925050503d806000811461090b576040519150601f19603f3d011682016040523d82523d6000602084013e610910565b606091505b5090969095509350505050565b60005473ffffffffffffffffffffffffffffffffffffffff16331461099e576040517f08c379a000000000000000000000000000000000000000000000000000000000815260206004820152600c60248201527f554e415554484f52495a4544000000000000000000000000000000000000000060448201526064016102a9565b6040517f70a08231000000000000000000000000000000000000000000000000000000008152306004820152610a34908390839073ffffffffffffffffffffffffffffffffffffffff8316906370a0823190602401602060405180830381865afa158015610a10573d6000803e3d6000fd5b505050506040513d601f19601f820116820180604052508101906101389190610e65565b5050565b6000805460609073ffffffffffffffffffffffffffffffffffffffff163314610abd576040517f08c379a000000000000000000000000000000000000000000000000000000000815260206004820152600c60248201527f554e415554484f52495a4544000000000000000000000000000000000000000060448201526064016102a9565b8373ffffffffffffffffffffffffffffffffffffffff1683604051610ae29190610e49565b600060405180830381855af49150503d8060008114610b1d576040519150601f19603f3d011682016040523d82523d6000602084013e610b22565b606091505b50909590945092505050565b73ffffffffffffffffffffffffffffffffffffffff8116811461082057600080fd5b600060208284031215610b6257600080fd5b8135610b6d81610b2e565b9392505050565b600080600060608486031215610b8957600080fd5b8335610b9481610b2e565b92506020840135610ba481610b2e565b929592945050506040919091013590565b60008060408385031215610bc857600080fd5b8235610bd381610b2e565b946020939093013593505050565b7f4e487b7100000000000000000000000000000000000000000000000000000000600052604160045260246000fd5b600082601f830112610c2157600080fd5b813567ffffffffffffffff80821115610c3c57610c3c610be1565b604051601f83017fffffffffffffffffffffffffffffffffffffffffffffffffffffffffffffffe0908116603f01168101908282118183101715610c8257610c82610be1565b81604052838152866020858801011115610c9b57600080fd5b836020870160208301376000602085830101528094505050505092915050565b600080600060608486031215610cd057600080fd5b8335610cdb81610b2e565b9250602084013567ffffffffffffffff811115610cf757600080fd5b610d0386828701610c10565b925050604084013590509250925092565b60005b83811015610d2f578181015183820152602001610d17565b83811115610d3e576000848401525b50505050565b82151581526040602082015260008251806040840152610d6b816060850160208701610d14565b601f017fffffffffffffffffffffffffffffffffffffffffffffffffffffffffffffffe016919091016060019392505050565b60008060408385031215610db157600080fd5b8235610dbc81610b2e565b91506020830135610dcc81610b2e565b809150509250929050565b60008060408385031215610dea57600080fd5b8235610df581610b2e565b9150602083013567ffffffffffffffff811115610e1157600080fd5b610e1d85828601610c10565b9150509250929050565b600060208284031215610e3957600080fd5b81518015158114610b6d57600080fd5b60008251610e5b818460208701610d14565b9190910192915050565b600060208284031215610e7757600080fd5b505191905056fea164736f6c634300080f000a","linkReferences":{}},"methodIdentifiers":{"CALL(address,bytes,uint256)":"6e2d44ae","DELEGATECALL(address,bytes)":"edee6239","owner()":"8da5cb5b","setOwner(address)":"13af4035","withdrawERC20(address,address)":"9456fbcc","withdrawERC20(address,address,uint256)":"44004cc1","withdrawERC721(address,address,uint256)":"4025feb2","withdrawETH(address)":"690d8320","withdrawETH(address,uint256)":"4782f779"},"storageLayout":{"storage":[{"astId":62052,"contract":"src/periphery/AssetReceiver.sol:AssetReceiver","label":"owner","offset":0,"slot":"0","type":"t_address"}],"types":{"t_address":{"encoding":"inplace","label":"address","numberOfBytes":"20"}}},"userdoc":{"version":1,"kind":"user","methods":{"CALL(address,bytes,uint256)":{"notice":"Sends a CALL to a target address."},"DELEGATECALL(address,bytes)":{"notice":"Sends a DELEGATECALL to a target address."},"withdrawERC20(address,address)":{"notice":"Withdraws full ERC20 balance to the recipient."},"withdrawERC20(address,address,uint256)":{"notice":"Withdraws partial ERC20 balance to the recipient."},"withdrawERC721(address,address,uint256)":{"notice":"Withdraws ERC721 token to the recipient."},"withdrawETH(address)":{"notice":"Withdraws full ETH balance to the recipient."},"withdrawETH(address,uint256)":{"notice":"Withdraws partial ETH balance to the recipient."}},"events":{"ReceivedETH(address,uint256)":{"notice":"Emitted when ETH is received by this address."},"WithdrewERC20(address,address,address,uint256)":{"notice":"Emitted when ERC20 tokens are withdrawn from this address."},"WithdrewERC721(address,address,address,uint256)":{"notice":"Emitted when ERC20 tokens are withdrawn from this address."},"WithdrewETH(address,address,uint256)":{"notice":"Emitted when ETH is withdrawn from this address."}},"notice":"AssetReceiver is a minimal contract for receiving funds assets in the form of either         ETH, ERC20 tokens, or ERC721 tokens. Only the contract owner may withdraw the assets."},"devdoc":{"version":1,"kind":"dev","methods":{"CALL(address,bytes,uint256)":{"params":{"_data":"Data to send with the call.","_target":"Address to call.","_value":"ETH value to send with the call."},"returns":{"data_":"Bytes data returned by the call.","success_":"Boolean success value."}},"DELEGATECALL(address,bytes)":{"params":{"_data":"Data to send with the call.","_target":"Address to call."},"returns":{"data_":"Bytes data returned by the call.","success_":"Boolean success value."}},"constructor":{"params":{"_owner":"Initial contract owner."}},"withdrawERC20(address,address)":{"params":{"_asset":"ERC20 token to withdraw.","_to":"Address to receive the ERC20 balance."}},"withdrawERC20(address,address,uint256)":{"params":{"_amount":"Amount of ERC20 to withdraw.","_asset":"ERC20 token to withdraw.","_to":"Address to receive the ERC20 balance."}},"withdrawERC721(address,address,uint256)":{"params":{"_asset":"ERC721 token to withdraw.","_id":"Token ID of the ERC721 token to withdraw.","_to":"Address to receive the ERC721 token."}},"withdrawETH(address)":{"params":{"_to":"Address to receive the ETH balance."}},"withdrawETH(address,uint256)":{"params":{"_amount":"Amount of ETH to withdraw.","_to":"Address to receive the ETH balance."}}},"events":{"ReceivedETH(address,uint256)":{"params":{"amount":"Amount of ETH received.","from":"Address that sent ETH to this contract."}},"WithdrewERC20(address,address,address,uint256)":{"params":{"amount":"ERC20 amount withdrawn.","asset":"Address of the token being withdrawn.","recipient":"Address that received the withdrawal.","withdrawer":"Address that triggered the withdrawal."}},"WithdrewERC721(address,address,address,uint256)":{"params":{"asset":"Address of the token being withdrawn.","id":"Token ID being withdrawn.","recipient":"Address that received the withdrawal.","withdrawer":"Address that triggered the withdrawal."}},"WithdrewETH(address,address,uint256)":{"params":{"amount":"ETH amount withdrawn.","recipient":"Address that received the withdrawal.","withdrawer":"Address that triggered the withdrawal."}}},"title":"AssetReceiver"},"id":289}