{"abi":[{"type":"constructor","inputs":[{"name":"_foundationSafe","type":"address","internalType":"contract GnosisSafe"},{"name":"_deputyGuardianModule","type":"address","internalType":"contract IDeputyGuardianModule"},{"name":"_superchainConfig","type":"address","internalType":"contract ISuperchainConfig"},{"name":"_deputy","type":"address","internalType":"address"},{"name":"_deputySignature","type":"bytes","internalType":"bytes"}],"stateMutability":"nonpayable"},{"type":"function","name":"deputy","inputs":[],"outputs":[{"name":"","type":"address","internalType":"address"}],"stateMutability":"view"},{"type":"function","name":"deputyAuthMessageTypehash","inputs":[],"outputs":[{"name":"deputyAuthMessageTypehash_","type":"bytes32","internalType":"bytes32"}],"stateMutability":"pure"},{"type":"function","name":"deputyGuardianModule","inputs":[],"outputs":[{"name":"","type":"address","internalType":"contract IDeputyGuardianModule"}],"stateMutability":"view"},{"type":"function","name":"eip712Domain","inputs":[],"outputs":[{"name":"fields","type":"bytes1","internalType":"bytes1"},{"name":"name","type":"string","internalType":"string"},{"name":"version","type":"string","internalType":"string"},{"name":"chainId","type":"uint256","internalType":"uint256"},{"name":"verifyingContract","type":"address","internalType":"address"},{"name":"salt","type":"bytes32","internalType":"bytes32"},{"name":"extensions","type":"uint256[]","internalType":"uint256[]"}],"stateMutability":"view"},{"type":"function","name":"foundationSafe","inputs":[],"outputs":[{"name":"foundationSafe_","type":"address","internalType":"contract GnosisSafe"}],"stateMutability":"view"},{"type":"function","name":"pause","inputs":[{"name":"_nonce","type":"bytes32","internalType":"bytes32"},{"name":"_signature","type":"bytes","internalType":"bytes"}],"outputs":[],"stateMutability":"nonpayable"},{"type":"function","name":"pauseMessageTypehash","inputs":[],"outputs":[{"name":"pauseMessageTypehash_","type":"bytes32","internalType":"bytes32"}],"stateMutability":"pure"},{"type":"function","name":"setDeputy","inputs":[{"name":"_deputy","type":"address","internalType":"address"},{"name":"_deputySignature","type":"bytes","internalType":"bytes"}],"outputs":[],"stateMutability":"nonpayable"},{"type":"function","name":"setDeputyGuardianModule","inputs":[{"name":"_deputyGuardianModule","type":"address","internalType":"contract IDeputyGuardianModule"}],"outputs":[],"stateMutability":"nonpayable"},{"type":"function","name":"superchainConfig","inputs":[],"outputs":[{"name":"superchainConfig_","type":"address","internalType":"contract ISuperchainConfig"}],"stateMutability":"view"},{"type":"function","name":"usedNonces","inputs":[{"name":"","type":"bytes32","internalType":"bytes32"}],"outputs":[{"name":"","type":"bool","internalType":"bool"}],"stateMutability":"view"},{"type":"function","name":"version","inputs":[],"outputs":[{"name":"","type":"string","internalType":"string"}],"stateMutability":"view"},{"type":"event","name":"DeputyGuardianModuleSet","inputs":[{"name":"deputyGuardianModule","type":"address","indexed":true,"internalType":"contract IDeputyGuardianModule"}],"anonymous":false},{"type":"event","name":"DeputySet","inputs":[{"name":"deputy","type":"address","indexed":true,"internalType":"address"}],"anonymous":false},{"type":"event","name":"EIP712DomainChanged","inputs":[],"anonymous":false},{"type":"event","name":"PauseTriggered","inputs":[{"name":"deputy","type":"address","indexed":true,"internalType":"address"},{"name":"nonce","type":"bytes32","indexed":false,"internalType":"bytes32"}],"anonymous":false},{"type":"error","name":"DeputyPauseModule_ExecutionFailed","inputs":[{"name":"","type":"string","internalType":"string"}]},{"type":"error","name":"DeputyPauseModule_InvalidDeputy","inputs":[]},{"type":"error","name":"DeputyPauseModule_InvalidDeputyGuardianModule","inputs":[]},{"type":"error","name":"DeputyPauseModule_NonceAlreadyUsed","inputs":[]},{"type":"error","name":"DeputyPauseModule_NotFromSafe","inputs":[]},{"type":"error","name":"DeputyPauseModule_SuperchainNotPaused","inputs":[]},{"type":"error","name":"DeputyPauseModule_Unauthorized","inputs":[]},{"type":"error","name":"ECDSAInvalidSignature","inputs":[]},{"type":"error","name":"ECDSAInvalidSignatureLength","inputs":[{"name":"length","type":"uint256","internalType":"uint256"}]},{"type":"error","name":"ECDSAInvalidSignatureS","inputs":[{"name":"s","type":"bytes32","internalType":"bytes32"}]},{"type":"error","name":"InvalidShortString","inputs":[]},{"type":"error","name":"StringTooLong","inputs":[{"name":"str","type":"string","internalType":"string"}]}],"bytecode":{"object":"0x6101a0604052348015610010575f80fd5b50604051611de8380380611de883398101604081905261002f91610620565b604080518082018252601181527044657075747950617573654d6f64756c6560781b602080830191909152825180840190935260018352603160f81b908301529061007a825f61013c565b6101205261008981600161013c565b61014052815160208084019190912060e052815190820120610100524660a05261010260e05161010051604080515f80516020611dc883398151915260208201529081019290925260608201524660808201523060a08201525f9060c00160405160208183030381529060405280519060200120905090565b60805250503060c052610115828261016e565b61011e84610260565b50506001600160a01b039283166101605290911661018052506108c6565b5f6020835110156101575761015083610308565b9050610168565b81610162848261079b565b5060ff90505b92915050565b5f6101d87f92e47526b2e32be4f66cd2600e9cda9147735107631c0b241a067693f49b7f38846040516020016101b79291909182526001600160a01b0316602082015260400190565b6040516020818303038152906040528051906020012061034e60201b60201c565b90506001600160a01b0383166101ee828461037a565b6001600160a01b03161461021557604051630618de0760e01b815260040160405180910390fd5b600280546001600160a01b0319166001600160a01b0385169081179091556040517f6b5500f6cd2cd4a29ab2c706a6c65833d0633a568f7263460775cebcc8e9a99b905f90a2505050565b610160516001600160a01b0316816001600160a01b0316036102955760405163613ac8d960e01b815260040160405180910390fd5b806001600160a01b03163b5f036102bf5760405163613ac8d960e01b815260040160405180910390fd5b600380546001600160a01b0319166001600160a01b0383169081179091556040517f89e2d926664c1e84d5296726eccf4dba291671697e5b54313d96e989f9659691905f90a250565b5f80829050601f8151111561033b578260405163305a27a960e01b8152600401610332919061085a565b60405180910390fd5b80516103468261088f565b179392505050565b5f61016861035a6103a3565b8360405161190160f01b8152600281019290925260228201526042902090565b5f8080806103888686610432565b91945092509050610399828261047b565b5090949350505050565b5f60c0516001600160a01b0316306001600160a01b03161480156103c8575060a05146145b156103d4575060805190565b61042d60e05161010051604080515f80516020611dc883398151915260208201529081019290925260608201524660808201523060a08201525f9060c00160405160208183030381529060405280519060200120905090565b905090565b5f805f8351604103610469576020840151604085015160608601515f1a61045b88828585610537565b955095509550505050610474565b505081515f91506002905b9250925092565b5f82600381111561048e5761048e6108b2565b03610497575050565b60018260038111156104ab576104ab6108b2565b036104c95760405163f645eedf60e01b815260040160405180910390fd5b60028260038111156104dd576104dd6108b2565b036104fe5760405163fce698f760e01b815260048101829052602401610332565b6003826003811115610512576105126108b2565b03610533576040516335e2f38360e21b815260048101829052602401610332565b5050565b5f80806fa2a8918ca85bafe22016d0b997e4df60600160ff1b0384111561056657505f915060039050826105eb565b604080515f808252602082018084528a905260ff891692820192909252606081018790526080810186905260019060a0016020604051602081039080840390855afa1580156105b7573d5f803e3d5ffd5b5050604051601f1901519150506001600160a01b0381166105e257505f9250600191508290506105eb565b92505f91508190505b9450945094915050565b6001600160a01b0381168114610609575f80fd5b50565b634e487b7160e01b5f52604160045260245ffd5b5f805f805f60a08688031215610634575f80fd5b855161063f816105f5565b6020870151909550610650816105f5565b6040870151909450610661816105f5565b6060870151909350610672816105f5565b60808701519092506001600160401b038082111561068e575f80fd5b818801915088601f8301126106a1575f80fd5b8151818111156106b3576106b361060c565b604051601f8201601f19908116603f011681019083821181831017156106db576106db61060c565b816040528281528b60208487010111156106f3575f80fd5b8260208601602083015e5f6020848301015280955050505050509295509295909350565b600181811c9082168061072b57607f821691505b60208210810361074957634e487b7160e01b5f52602260045260245ffd5b50919050565b601f82111561079657805f5260205f20601f840160051c810160208510156107745750805b601f840160051c820191505b81811015610793575f8155600101610780565b50505b505050565b81516001600160401b038111156107b4576107b461060c565b6107c8816107c28454610717565b8461074f565b602080601f8311600181146107fb575f84156107e45750858301515b5f19600386901b1c1916600185901b178555610852565b5f85815260208120601f198616915b828110156108295788860151825594840194600190910190840161080a565b508582101561084657878501515f19600388901b60f8161c191681555b505060018460011b0185555b505050505050565b602081525f82518060208401528060208501604085015e5f604082850101526040601f19601f83011684010191505092915050565b80516020808301519190811015610749575f1960209190910360031b1b16919050565b634e487b7160e01b5f52602160045260245ffd5b60805160a05160c05160e051610100516101205161014051610160516101805161147b61094d5f395f818160ea015261064401525f81816101ba015281816102c4015281816105630152818161077301526109e101525f61094401525f61091301525f610cb101525f610c8901525f610be401525f610c0e01525f610c38015261147b5ff3fe608060405234801561000f575f80fd5b50600436106100cf575f3560e01c8063890777d91161007d578063da931fe411610058578063da931fe414610234578063f1c9eed71461025a578063feb617241461027a575f80fd5b8063890777d9146101de578063ac29917f146101f1578063cf2e237914610204575f80fd5b80636283fd22116100ad5780636283fd221461017d57806384b0196e1461019d5780638851bfbd146101b8575f80fd5b8063183b708b146100d357806335e80ab3146100e857806354fd4d5014610134575b5f80fd5b6100e66100e13660046110f1565b6102ac565b005b7f00000000000000000000000000000000000000000000000000000000000000005b60405173ffffffffffffffffffffffffffffffffffffffff90911681526020015b60405180910390f35b6101706040518060400160405280600c81526020017f312e302e302d626574612e32000000000000000000000000000000000000000081525081565b60405161012b919061118a565b60035461010a9073ffffffffffffffffffffffffffffffffffffffff1681565b6101a5610329565b60405161012b97969594939291906111a3565b7f000000000000000000000000000000000000000000000000000000000000000061010a565b6100e66101ec366004611263565b610387565b6100e66101ff366004611291565b61075b565b7f92e47526b2e32be4f66cd2600e9cda9147735107631c0b241a067693f49b7f385b60405190815260200161012b565b7fd64f31a1d64c5b7eede44a92f46995fef9325cb2533a7798a738932f156c4481610226565b60025461010a9073ffffffffffffffffffffffffffffffffffffffff1681565b61029c6102883660046112ac565b60046020525f908152604090205460ff1681565b604051901515815260200161012b565b3373ffffffffffffffffffffffffffffffffffffffff7f0000000000000000000000000000000000000000000000000000000000000000161461031b576040517f71da2c9100000000000000000000000000000000000000000000000000000000815260040160405180910390fd5b61032582826107d6565b5050565b5f6060805f805f606061033a61090c565b61034261093d565b604080515f808252602082019092527f0f000000000000000000000000000000000000000000000000000000000000009b939a50919850469750309650945092509050565b604080517fd64f31a1d64c5b7eede44a92f46995fef9325cb2533a7798a738932f156c448160208201529081018390525f906103dc906060015b6040516020818303038152906040528051906020012061096a565b60025490915073ffffffffffffffffffffffffffffffffffffffff1661040282846109b7565b73ffffffffffffffffffffffffffffffffffffffff161461044f576040517f8d279ab500000000000000000000000000000000000000000000000000000000815260040160405180910390fd5b5f8381526004602052604090205460ff1615610497576040517f7313456500000000000000000000000000000000000000000000000000000000815260040160405180910390fd5b5f83815260046020818152604080842080547fffffffffffffffffffffffffffffffffffffffffffffffffffffffffffffff00166001179055600354815184815260248101835292830180517bffffffffffffffffffffffffffffffffffffffffffffffffffffffff167f8456cb590000000000000000000000000000000000000000000000000000000017905290517f5229073f000000000000000000000000000000000000000000000000000000008152849373ffffffffffffffffffffffffffffffffffffffff7f0000000000000000000000000000000000000000000000000000000000000000811694635229073f9461059c9492169287928391016112f0565b5f604051808303815f875af11580156105b7573d5f803e3d5ffd5b505050506040513d5f823e601f3d9081017fffffffffffffffffffffffffffffffffffffffffffffffffffffffffffffffe01682016040526105fc919081019061137e565b915091508161064257806040517f8d1364be000000000000000000000000000000000000000000000000000000008152600401610639919061118a565b60405180910390fd5b7f000000000000000000000000000000000000000000000000000000000000000073ffffffffffffffffffffffffffffffffffffffff16635c975abb6040518163ffffffff1660e01b8152600401602060405180830381865afa1580156106ab573d5f803e3d5ffd5b505050506040513d601f19601f820116820180604052508101906106cf9190611404565b610705576040517feb7171cd00000000000000000000000000000000000000000000000000000000815260040160405180910390fd5b60025460405186815273ffffffffffffffffffffffffffffffffffffffff909116907f1d2ec1b05a6f9b6f38c1876af56d3a5b8e67a8b16fa2a12b7140aed0909affa19060200160405180910390a25050505050565b3373ffffffffffffffffffffffffffffffffffffffff7f000000000000000000000000000000000000000000000000000000000000000016146107ca576040517f71da2c9100000000000000000000000000000000000000000000000000000000815260040160405180910390fd5b6107d3816109df565b50565b5f61082c7f92e47526b2e32be4f66cd2600e9cda9147735107631c0b241a067693f49b7f38846040516020016103c192919091825273ffffffffffffffffffffffffffffffffffffffff16602082015260400190565b90508273ffffffffffffffffffffffffffffffffffffffff1661084f82846109b7565b73ffffffffffffffffffffffffffffffffffffffff161461089c576040517f0618de0700000000000000000000000000000000000000000000000000000000815260040160405180910390fd5b600280547fffffffffffffffffffffffff00000000000000000000000000000000000000001673ffffffffffffffffffffffffffffffffffffffff85169081179091556040517f6b5500f6cd2cd4a29ab2c706a6c65833d0633a568f7263460775cebcc8e9a99b905f90a2505050565b60606109387f00000000000000000000000000000000000000000000000000000000000000005f610b22565b905090565b60606109387f00000000000000000000000000000000000000000000000000000000000000006001610b22565b5f6109b1610976610bcb565b836040517f19010000000000000000000000000000000000000000000000000000000000008152600281019290925260228201526042902090565b92915050565b5f805f806109c58686610d01565b9250925092506109d58282610d4a565b5090949350505050565b7f000000000000000000000000000000000000000000000000000000000000000073ffffffffffffffffffffffffffffffffffffffff168173ffffffffffffffffffffffffffffffffffffffff1603610a64576040517f613ac8d900000000000000000000000000000000000000000000000000000000815260040160405180910390fd5b8073ffffffffffffffffffffffffffffffffffffffff163b5f03610ab4576040517f613ac8d900000000000000000000000000000000000000000000000000000000815260040160405180910390fd5b600380547fffffffffffffffffffffffff00000000000000000000000000000000000000001673ffffffffffffffffffffffffffffffffffffffff83169081179091556040517f89e2d926664c1e84d5296726eccf4dba291671697e5b54313d96e989f9659691905f90a250565b606060ff8314610b3c57610b3583610e4d565b90506109b1565b818054610b489061141d565b80601f0160208091040260200160405190810160405280929190818152602001828054610b749061141d565b8015610bbf5780601f10610b9657610100808354040283529160200191610bbf565b820191905f5260205f20905b815481529060010190602001808311610ba257829003601f168201915b505050505090506109b1565b5f3073ffffffffffffffffffffffffffffffffffffffff7f000000000000000000000000000000000000000000000000000000000000000016148015610c3057507f000000000000000000000000000000000000000000000000000000000000000046145b15610c5a57507f000000000000000000000000000000000000000000000000000000000000000090565b610938604080517f8b73c3c69bb8fe3d512ecc4cf759cc79239f7b179b0ffacaa9a75d522b39400f60208201527f0000000000000000000000000000000000000000000000000000000000000000918101919091527f000000000000000000000000000000000000000000000000000000000000000060608201524660808201523060a08201525f9060c00160405160208183030381529060405280519060200120905090565b5f805f8351604103610d38576020840151604085015160608601515f1a610d2a88828585610e8a565b955095509550505050610d43565b505081515f91506002905b9250925092565b5f826003811115610d5d57610d5d6112c3565b03610d66575050565b6001826003811115610d7a57610d7a6112c3565b03610db1576040517ff645eedf00000000000000000000000000000000000000000000000000000000815260040160405180910390fd5b6002826003811115610dc557610dc56112c3565b03610dff576040517ffce698f700000000000000000000000000000000000000000000000000000000815260048101829052602401610639565b6003826003811115610e1357610e136112c3565b03610325576040517fd78bce0c00000000000000000000000000000000000000000000000000000000815260048101829052602401610639565b60605f610e5983610f7d565b6040805160208082528183019092529192505f91906020820181803683375050509182525060208101929092525090565b5f80807f7fffffffffffffffffffffffffffffff5d576e7357a4501ddfe92f46681b20a0841115610ec357505f91506003905082610f73565b604080515f808252602082018084528a905260ff891692820192909252606081018790526080810186905260019060a0016020604051602081039080840390855afa158015610f14573d5f803e3d5ffd5b50506040517fffffffffffffffffffffffffffffffffffffffffffffffffffffffffffffffe0015191505073ffffffffffffffffffffffffffffffffffffffff8116610f6a57505f925060019150829050610f73565b92505f91508190505b9450945094915050565b5f60ff8216601f8111156109b1576040517fb3512b0c00000000000000000000000000000000000000000000000000000000815260040160405180910390fd5b73ffffffffffffffffffffffffffffffffffffffff811681146107d3575f80fd5b7f4e487b71000000000000000000000000000000000000000000000000000000005f52604160045260245ffd5b604051601f82017fffffffffffffffffffffffffffffffffffffffffffffffffffffffffffffffe016810167ffffffffffffffff8111828210171561105257611052610fde565b604052919050565b5f67ffffffffffffffff82111561107357611073610fde565b50601f017fffffffffffffffffffffffffffffffffffffffffffffffffffffffffffffffe01660200190565b5f82601f8301126110ae575f80fd5b81356110c16110bc8261105a565b61100b565b8181528460208386010111156110d5575f80fd5b816020850160208301375f918101602001919091529392505050565b5f8060408385031215611102575f80fd5b823561110d81610fbd565b9150602083013567ffffffffffffffff811115611128575f80fd5b6111348582860161109f565b9150509250929050565b5f81518084528060208401602086015e5f6020828601015260207fffffffffffffffffffffffffffffffffffffffffffffffffffffffffffffffe0601f83011685010191505092915050565b602081525f61119c602083018461113e565b9392505050565b7fff00000000000000000000000000000000000000000000000000000000000000881681525f602060e060208401526111df60e084018a61113e565b83810360408501526111f1818a61113e565b6060850189905273ffffffffffffffffffffffffffffffffffffffff8816608086015260a0850187905284810360c0860152855180825260208088019350909101905f5b8181101561125157835183529284019291840191600101611235565b50909c9b505050505050505050505050565b5f8060408385031215611274575f80fd5b82359150602083013567ffffffffffffffff811115611128575f80fd5b5f602082840312156112a1575f80fd5b813561119c81610fbd565b5f602082840312156112bc575f80fd5b5035919050565b7f4e487b71000000000000000000000000000000000000000000000000000000005f52602160045260245ffd5b73ffffffffffffffffffffffffffffffffffffffff85168152836020820152608060408201525f611324608083018561113e565b90506002831061135b577f4e487b71000000000000000000000000000000000000000000000000000000005f52602160045260245ffd5b82606083015295945050505050565b80518015158114611379575f80fd5b919050565b5f806040838503121561138f575f80fd5b6113988361136a565b9150602083015167ffffffffffffffff8111156113b3575f80fd5b8301601f810185136113c3575f80fd5b80516113d16110bc8261105a565b8181528660208385010111156113e5575f80fd5b8160208401602083015e5f602083830101528093505050509250929050565b5f60208284031215611414575f80fd5b61119c8261136a565b600181811c9082168061143157607f821691505b602082108103611468577f4e487b71000000000000000000000000000000000000000000000000000000005f52602260045260245ffd5b5091905056fea164736f6c6343000819000a8b73c3c69bb8fe3d512ecc4cf759cc79239f7b179b0ffacaa9a75d522b39400f","linkReferences":{}},"methodIdentifiers":{"deputy()":"f1c9eed7","deputyAuthMessageTypehash()":"cf2e2379","deputyGuardianModule()":"6283fd22","eip712Domain()":"84b0196e","foundationSafe()":"8851bfbd","pause(bytes32,bytes)":"890777d9","pauseMessageTypehash()":"da931fe4","setDeputy(address,bytes)":"183b708b","setDeputyGuardianModule(address)":"ac29917f","superchainConfig()":"35e80ab3","usedNonces(bytes32)":"feb61724","version()":"54fd4d50"},"storageLayout":{"storage":[{"astId":44410,"contract":"src/safe/DeputyPauseModule.sol:DeputyPauseModule","label":"_nameFallback","offset":0,"slot":"0","type":"t_string_storage"},{"astId":44412,"contract":"src/safe/DeputyPauseModule.sol:DeputyPauseModule","label":"_versionFallback","offset":0,"slot":"1","type":"t_string_storage"},{"astId":60463,"contract":"src/safe/DeputyPauseModule.sol:DeputyPauseModule","label":"deputy","offset":0,"slot":"2","type":"t_address"},{"astId":60467,"contract":"src/safe/DeputyPauseModule.sol:DeputyPauseModule","label":"deputyGuardianModule","offset":0,"slot":"3","type":"t_contract(IDeputyGuardianModule)3094"},{"astId":60472,"contract":"src/safe/DeputyPauseModule.sol:DeputyPauseModule","label":"usedNonces","offset":0,"slot":"4","type":"t_mapping(t_bytes32,t_bool)"}],"types":{"t_address":{"encoding":"inplace","label":"address","numberOfBytes":"20"},"t_bool":{"encoding":"inplace","label":"bool","numberOfBytes":"1"},"t_bytes32":{"encoding":"inplace","label":"bytes32","numberOfBytes":"32"},"t_contract(IDeputyGuardianModule)3094":{"encoding":"inplace","label":"contract IDeputyGuardianModule","numberOfBytes":"20"},"t_mapping(t_bytes32,t_bool)":{"encoding":"mapping","key":"t_bytes32","label":"mapping(bytes32 => bool)","numberOfBytes":"32","value":"t_bool"},"t_string_storage":{"encoding":"bytes","label":"string","numberOfBytes":"32"}}},"userdoc":{"version":1,"kind":"user","methods":{"deputy()":{"notice":"Address of the Deputy account."},"deputyAuthMessageTypehash()":{"notice":"Getter function for the DeputyAuth message typehash."},"deputyGuardianModule()":{"notice":"Address of the DeputyGuardianModule used by the SC Safe."},"foundationSafe()":{"notice":"Getter function for the Foundation Safe address."},"pause(bytes32,bytes)":{"notice":"Calls the Foundation Safe's `execTransactionFromModuleReturnData()` function with         the arguments necessary to call `pause()` on the Security Council Safe, which will         then cause the Security Council Safe to trigger SuperchainConfig pause.         Front-running this function is completely safe, it'll pause either way."},"pauseMessageTypehash()":{"notice":"Getter function for the Pause message typehash."},"setDeputy(address,bytes)":{"notice":"Sets the deputy address."},"setDeputyGuardianModule(address)":{"notice":"Sets the DeputyGuardianModule."},"superchainConfig()":{"notice":"Getter function for the SuperchainConfig address."},"usedNonces(bytes32)":{"notice":"Used nonces."},"version()":{"notice":"Semantic version."}},"events":{"DeputyGuardianModuleSet(address)":{"notice":"Event emitted when the DeputyGuardianModule is set."},"DeputySet(address)":{"notice":"Event emitted when the deputy address is set."},"PauseTriggered(address,bytes32)":{"notice":"Event emitted when the pause is triggered."}},"errors":{"DeputyPauseModule_ExecutionFailed(string)":[{"notice":"Error message for failed transaction execution."}],"DeputyPauseModule_InvalidDeputy()":[{"notice":"Error message for deputy being invalid."}],"DeputyPauseModule_InvalidDeputyGuardianModule()":[{"notice":"Error message for the DeputyGuardianModule being invalid."}],"DeputyPauseModule_NonceAlreadyUsed()":[{"notice":"Error message for nonce reuse."}],"DeputyPauseModule_NotFromSafe()":[{"notice":"Error message for the call not being from the Foundation Safe."}],"DeputyPauseModule_SuperchainNotPaused()":[{"notice":"Error message for the SuperchainConfig not being paused."}],"DeputyPauseModule_Unauthorized()":[{"notice":"Error message for unauthorized calls."}]},"notice":"Safe Module designed to be installed in the Foundation Safe which allows a specific         deputy address to act as the Foundation Safe for the sake of triggering the         Superchain-wide pause functionality. Significantly simplifies the process of triggering         a Superchain-wide pause without changing the existing security model."},"devdoc":{"version":1,"kind":"dev","methods":{"constructor":{"params":{"_deputy":"Address of the deputy account.","_deputyGuardianModule":"Address of the DeputyGuardianModule used by the SC Safe.","_deputySignature":"Signature from the deputy verifying that the account is an EOA.","_foundationSafe":"Address of the Foundation Safe.","_superchainConfig":"Address of the SuperchainConfig contract."}},"deputyAuthMessageTypehash()":{"returns":{"deputyAuthMessageTypehash_":"DeputyAuth message typehash."}},"eip712Domain()":{"details":"See {IERC-5267}."},"foundationSafe()":{"returns":{"foundationSafe_":"Foundation Safe address."}},"pause(bytes32,bytes)":{"params":{"_nonce":"Signature nonce.","_signature":"ECDSA signature."}},"pauseMessageTypehash()":{"returns":{"pauseMessageTypehash_":"Pause message typehash."}},"setDeputy(address,bytes)":{"params":{"_deputy":"Deputy address.","_deputySignature":"Deputy signature."}},"setDeputyGuardianModule(address)":{"params":{"_deputyGuardianModule":"DeputyGuardianModule address."}},"superchainConfig()":{"returns":{"superchainConfig_":"SuperchainConfig address."}}},"events":{"EIP712DomainChanged()":{"details":"MAY be emitted to signal that the domain could have changed."}},"errors":{"ECDSAInvalidSignature()":[{"details":"The signature derives the `address(0)`."}],"ECDSAInvalidSignatureLength(uint256)":[{"details":"The signature has an invalid length."}],"ECDSAInvalidSignatureS(bytes32)":[{"details":"The signature has an S value that is in the upper half order."}]},"title":"DeputyPauseModule"},"id":116}