{"abi":[{"type":"function","name":"blockNumber","inputs":[],"outputs":[{"name":"","type":"uint256","internalType":"uint256"}],"stateMutability":"view"},{"type":"function","name":"chainId","inputs":[],"outputs":[{"name":"","type":"uint256","internalType":"uint256"}],"stateMutability":"view"},{"type":"function","name":"interopStart","inputs":[],"outputs":[{"name":"interopStart_","type":"uint256","internalType":"uint256"}],"stateMutability":"view"},{"type":"function","name":"logIndex","inputs":[],"outputs":[{"name":"","type":"uint256","internalType":"uint256"}],"stateMutability":"view"},{"type":"function","name":"origin","inputs":[],"outputs":[{"name":"","type":"address","internalType":"address"}],"stateMutability":"view"},{"type":"function","name":"setInteropStart","inputs":[],"outputs":[],"stateMutability":"nonpayable"},{"type":"function","name":"timestamp","inputs":[],"outputs":[{"name":"","type":"uint256","internalType":"uint256"}],"stateMutability":"view"},{"type":"function","name":"validateMessage","inputs":[{"name":"_id","type":"tuple","internalType":"struct Identifier","components":[{"name":"origin","type":"address","internalType":"address"},{"name":"blockNumber","type":"uint256","internalType":"uint256"},{"name":"logIndex","type":"uint256","internalType":"uint256"},{"name":"timestamp","type":"uint256","internalType":"uint256"},{"name":"chainId","type":"uint256","internalType":"uint256"}]},{"name":"_msgHash","type":"bytes32","internalType":"bytes32"}],"outputs":[],"stateMutability":"nonpayable"},{"type":"function","name":"version","inputs":[],"outputs":[{"name":"","type":"string","internalType":"string"}],"stateMutability":"view"},{"type":"event","name":"ExecutingMessage","inputs":[{"name":"msgHash","type":"bytes32","indexed":true,"internalType":"bytes32"},{"name":"id","type":"tuple","indexed":false,"internalType":"struct Identifier","components":[{"name":"origin","type":"address","internalType":"address"},{"name":"blockNumber","type":"uint256","internalType":"uint256"},{"name":"logIndex","type":"uint256","internalType":"uint256"},{"name":"timestamp","type":"uint256","internalType":"uint256"},{"name":"chainId","type":"uint256","internalType":"uint256"}]}],"anonymous":false},{"type":"error","name":"InteropStartAlreadySet","inputs":[]},{"type":"error","name":"NoExecutingDeposits","inputs":[]},{"type":"error","name":"NotDepositor","inputs":[]},{"type":"error","name":"NotEntered","inputs":[]},{"type":"error","name":"ReentrantCall","inputs":[]}],"bytecode":{"object":"0x6080604052348015600e575f80fd5b506107c88061001c5f395ff3fe608060405234801561000f575f80fd5b506004361061009f575f3560e01c8063ab4d6f7511610072578063b80777ea11610058578063b80777ea1461017c578063c8ab72ca14610184578063da99f7291461018c575f80fd5b8063ab4d6f7514610140578063b1745ada14610155575f80fd5b806354fd4d50146100a357806357e871e7146100f5578063938b5f321461010b5780639a8a059214610138575b5f80fd5b6100df6040518060400160405280600d81526020017f312e302e302d626574612e31320000000000000000000000000000000000000081525081565b6040516100ec91906106b9565b60405180910390f35b6100fd610194565b6040519081526020016100ec565b610113610242565b60405173ffffffffffffffffffffffffffffffffffffffff90911681526020016100ec565b6100fd6102f0565b61015361014e36600461070c565b61039e565b005b7f5c769ee0ee8887661922049dc52480bb60322d765161507707dd9b190af5c149546100fd565b6100fd610492565b610153610540565b6100fd61060b565b5f7f7a74fd168763fd280eaec3bcd2fd62d0e795027adc8183a693c497a7c2b10b5c5c5f036101ef576040517fbca35af600000000000000000000000000000000000000000000000000000000815260040160405180910390fd5b507f7a74fd168763fd280eaec3bcd2fd62d0e795027adc8183a693c497a7c2b10b5c5c5f9081527f5a1da0738b7fdc60047c07bb519beb02aa32a8619de57e6258da1f1c2e020ccc602052604090205c90565b5f7f7a74fd168763fd280eaec3bcd2fd62d0e795027adc8183a693c497a7c2b10b5c5c5f0361029d576040517fbca35af600000000000000000000000000000000000000000000000000000000815260040160405180910390fd5b507f7a74fd168763fd280eaec3bcd2fd62d0e795027adc8183a693c497a7c2b10b5c5c5f9081527fd2b7c5071ec59eb3ff0017d703a8ea513a7d0da4779b0dbefe845808c300c815602052604090205c90565b5f7f7a74fd168763fd280eaec3bcd2fd62d0e795027adc8183a693c497a7c2b10b5c5c5f0361034b576040517fbca35af600000000000000000000000000000000000000000000000000000000815260040160405180910390fd5b507f7a74fd168763fd280eaec3bcd2fd62d0e795027adc8183a693c497a7c2b10b5c5c5f9081527f6e0446e8b5098b8c8193f964f1b567ec3a2bdaeba33d36acb85c1f1d3f92d313602052604090205c90565b73420000000000000000000000000000000000001573ffffffffffffffffffffffffffffffffffffffff16637bc3b5ff6040518163ffffffff1660e01b8152600401602060405180830381865afa1580156103fb573d5f803e3d5ffd5b505050506040513d601f19601f8201168201806040525081019061041f919061073a565b15610456576040517f753f107200000000000000000000000000000000000000000000000000000000815260040160405180910390fd5b807f5c37832d2e8d10e346e55ad62071a6a2f9fa5130614ef2ec6617555c6f467ba7836040516104869190610760565b60405180910390a25050565b5f7f7a74fd168763fd280eaec3bcd2fd62d0e795027adc8183a693c497a7c2b10b5c5c5f036104ed576040517fbca35af600000000000000000000000000000000000000000000000000000000815260040160405180910390fd5b507f7a74fd168763fd280eaec3bcd2fd62d0e795027adc8183a693c497a7c2b10b5c5c5f9081527f2e148a404a50bb94820b576997fd6450117132387be615e460fa8c5e11777e02602052604090205c90565b3373deaddeaddeaddeaddeaddeaddeaddeaddead00011461058d576040517f3cc50b4500000000000000000000000000000000000000000000000000000000815260040160405180910390fd5b7f5c769ee0ee8887661922049dc52480bb60322d765161507707dd9b190af5c14954156105e6576040517ff5d97ff600000000000000000000000000000000000000000000000000000000815260040160405180910390fd5b427f5c769ee0ee8887661922049dc52480bb60322d765161507707dd9b190af5c14955565b5f7f7a74fd168763fd280eaec3bcd2fd62d0e795027adc8183a693c497a7c2b10b5c5c5f03610666576040517fbca35af600000000000000000000000000000000000000000000000000000000815260040160405180910390fd5b507f7a74fd168763fd280eaec3bcd2fd62d0e795027adc8183a693c497a7c2b10b5c5c5f9081527fab8acc221aecea88a685fabca5b88bf3823b05f335b7b9f721ca7fe3ffb2c30d602052604090205c90565b602081525f82518060208401528060208501604085015e5f6040828501015260407fffffffffffffffffffffffffffffffffffffffffffffffffffffffffffffffe0601f83011684010191505092915050565b5f8082840360c081121561071e575f80fd5b60a081121561072b575f80fd5b50919360a08501359350915050565b5f6020828403121561074a575f80fd5b81518015158114610759575f80fd5b9392505050565b60a08101823573ffffffffffffffffffffffffffffffffffffffff8116808214610788575f80fd5b8084525050602083013560208301526040830135604083015260608301356060830152608083013560808301529291505056fea164736f6c6343000819000a","linkReferences":{}},"methodIdentifiers":{"blockNumber()":"57e871e7","chainId()":"9a8a0592","interopStart()":"b1745ada","logIndex()":"da99f729","origin()":"938b5f32","setInteropStart()":"c8ab72ca","timestamp()":"b80777ea","validateMessage((address,uint256,uint256,uint256,uint256),bytes32)":"ab4d6f75","version()":"54fd4d50"},"storageLayout":{"storage":[],"types":{}},"userdoc":{"version":1,"kind":"user","methods":{"blockNumber()":{"notice":"Returns the block number of the Identifier. If not entered, reverts."},"chainId()":{"notice":"Returns the chain ID of the Identifier. If not entered, reverts."},"interopStart()":{"notice":"Returns the interop start timestamp."},"logIndex()":{"notice":"Returns the log index of the Identifier. If not entered, reverts."},"origin()":{"notice":"Returns the origin address of the Identifier. If not entered, reverts."},"setInteropStart()":{"notice":"Sets the Interop Start Timestamp for this chain. Can only be performed once and when the caller is the DEPOSITOR_ACCOUNT."},"timestamp()":{"notice":"Returns the timestamp of the Identifier. If not entered, reverts."},"validateMessage((address,uint256,uint256,uint256,uint256),bytes32)":{"notice":"Validates a cross chain message on the destination chain         and emits an ExecutingMessage event. This function is useful         for applications that understand the schema of the _message payload and want to         process it in a custom way."},"version()":{"notice":"Semantic version."}},"events":{"ExecutingMessage(bytes32,(address,uint256,uint256,uint256,uint256))":{"notice":"Emitted when a cross chain message is being executed."}},"errors":{"InteropStartAlreadySet()":[{"notice":"Thrown when attempting to set interop start when it's already set."}],"NoExecutingDeposits()":[{"notice":"Thrown when trying to execute a cross chain message on a deposit transaction."}],"NotDepositor()":[{"notice":"Thrown when the caller is not DEPOSITOR_ACCOUNT when calling `setInteropStart()`"}],"NotEntered()":[{"notice":"Thrown when a non-written transient storage slot is attempted to be read from."}],"ReentrantCall()":[{"notice":"Thrown when a reentrant call is detected."}]},"notice":"The CrossL2Inbox is responsible for executing a cross chain message on the destination         chain. It is permissionless to execute a cross chain message on behalf of any user."},"devdoc":{"version":1,"kind":"dev","methods":{"blockNumber()":{"returns":{"_0":"Block number of the Identifier."}},"chainId()":{"returns":{"_0":"_chainId The chain ID of the Identifier."}},"interopStart()":{"returns":{"interopStart_":"interop start timestamp."}},"logIndex()":{"returns":{"_0":"Log index of the Identifier."}},"origin()":{"returns":{"_0":"Origin address of the Identifier."}},"timestamp()":{"returns":{"_0":"Timestamp of the Identifier."}},"validateMessage((address,uint256,uint256,uint256,uint256),bytes32)":{"params":{"_id":"Identifier of the message.","_msgHash":"Hash of the message payload to call target with."}}},"events":{"ExecutingMessage(bytes32,(address,uint256,uint256,uint256,uint256))":{"params":{"id":"Encoded Identifier of the message.","msgHash":"Hash of message payload being executed."}}},"title":"CrossL2Inbox"},"id":94}