{"abi":[{"type":"function","name":"L1","inputs":[],"outputs":[],"stateMutability":"nonpayable"},{"type":"function","name":"L2","inputs":[],"outputs":[],"stateMutability":"nonpayable"},{"type":"function","name":"artifacts","inputs":[],"outputs":[{"name":"","type":"address","internalType":"contract Artifacts"}],"stateMutability":"view"},{"type":"function","name":"isForkTest","inputs":[],"outputs":[{"name":"","type":"bool","internalType":"bool"}],"stateMutability":"view"},{"type":"function","name":"returnIfForkTest","inputs":[{"name":"message","type":"string","internalType":"string"}],"outputs":[],"stateMutability":"view"},{"type":"function","name":"setUp","inputs":[],"outputs":[],"stateMutability":"nonpayable"},{"type":"function","name":"skipIfCoverage","inputs":[],"outputs":[],"stateMutability":"nonpayable"},{"type":"function","name":"skipIfForkTest","inputs":[{"name":"message","type":"string","internalType":"string"}],"outputs":[],"stateMutability":"nonpayable"},{"type":"function","name":"skipIfOpsRepoTest","inputs":[{"name":"message","type":"string","internalType":"string"}],"outputs":[],"stateMutability":"nonpayable"}],"bytecode":{"object":"0x6080604052600080546006919060ff19166001830217905550601180546001600160a01b03199081167342000000000000000000000000000000000000071790915560128054821673420000000000000000000000000000000000001017905560138054821673420000000000000000000000000000000000001617905560148054821673420000000000000000000000000000000000001217905560158054821673420000000000000000000000000000000000001417905560168054821673420000000000000000000000000000000000001717905560178054821673420000000000000000000000000000000000001917905560188054821673420000000000000000000000000000000000001117905560198054821673420000000000000000000000000000000000001a179055601a8054821673420000000000000000000000000000000000000f179055601b80548216734200000000000000000000000000000000000015179055601c80548216734200000000000000000000000000000000000042179055601d80548216602160991b179055601e80548216734200000000000000000000000000000000000006179055601f805482167342000000000000000000000000000000000000241790556020805482167342000000000000000000000000000000000000251790556021805482167342000000000000000000000000000000000000281790556022805490911673420000000000000000000000000000000000002617905534801561023c57600080fd5b50615542806200024d6000396000f3fe608060405234801561001057600080fd5b50600436106100a35760003560e01c806361547b50116100765780639557a02a1161005b5780639557a02a1461011a578063a2f4f5361461012d578063a92e3a041461014557600080fd5b806361547b50146100ff5780637809baaf1461011257600080fd5b8063081752bb146100a85780630a9254e4146100b257806315fb3ab9146100ba5780632eee9feb146100cd575b600080fd5b6100b061014d565b005b6100b0610a73565b6100b06100c836600461500a565b6114e9565b6100d561151e565b60405173ffffffffffffffffffffffffffffffffffffffff90911681526020015b60405180910390f35b6100b061010d36600461500a565b61157b565b6100b061161a565b6100b061012836600461500a565b612ff1565b610135613150565b60405190151581526020016100f6565b6100b061321b565b610155613150565b1561017d5761017b6040518060600160405280602c815260200161550a602c9139613332565b565b6101be604051806060016040528060278152602001615471602791396000546101b99060ff1660068111156101b4576101b461508a565b6133c1565b61363a565b6040516020016101ff9060208082526012908201527f6f7074696d69736d2e6c3267656e657369730000000000000000000000000000604082015260600190565b604080517fffffffffffffffffffffffffffffffffffffffffffffffffffffffffffffffe081840301815282825280516020918201206000805460608601855260095473ffffffffffffffffffffffffffffffffffffffff9081168752600854811694870194909452600b5484168686015293517fccdaf5ad000000000000000000000000000000000000000000000000000000008152929091169363ccdaf5ad936102b49360ff90911691906004016150b9565b600060405180830381600087803b1580156102ce57600080fd5b505af11580156102e2573d6000803e3d6000fd5b505050506000604051602001610329906020808252600f908201527f6f7074696d69736d2e6465706c6f790000000000000000000000000000000000604082015260600190565b6040516020818303038152906040528051906020012060001c73ffffffffffffffffffffffffffffffffffffffff16630457dad26040518163ffffffff1660e01b8152600401602060405180830381865afa15801561038c573d6000803e3d6000fd5b505050506040513d601f19601f820116820180604052508101906103b09190615147565b73ffffffffffffffffffffffffffffffffffffffff1663d2354f206040518163ffffffff1660e01b8152600401602060405180830381865afa1580156103fa573d6000803e3d6000fd5b505050506040513d601f19601f8201168201806040525081019061041e9190615147565b601c54604080517f8da5cb5b0000000000000000000000000000000000000000000000000000000081529051929350737109709ecfa91a80626ff3989d68f67f5b1dd12d926306447d569273ffffffffffffffffffffffffffffffffffffffff1691638da5cb5b9160048083019260209291908290030181865afa1580156104aa573d6000803e3d6000fd5b505050506040513d601f19601f820116820180604052508101906104ce9190615147565b6040517fffffffff0000000000000000000000000000000000000000000000000000000060e084901b16815273ffffffffffffffffffffffffffffffffffffffff9091166004820152602401600060405180830381600087803b15801561053457600080fd5b505af1158015610548573d6000803e3d6000fd5b5050601c546040517ff2fde38b00000000000000000000000000000000000000000000000000000000815273ffffffffffffffffffffffffffffffffffffffff8581166004830152909116925063f2fde38b9150602401600060405180830381600087803b1580156105b957600080fd5b505af11580156105cd573d6000803e3d6000fd5b50505050737109709ecfa91a80626ff3989d68f67f5b1dd12d73ffffffffffffffffffffffffffffffffffffffff166390c5013b6040518163ffffffff1660e01b8152600401600060405180830381600087803b15801561062d57600080fd5b505af1158015610641573d6000803e3d6000fd5b505050506106627342000000000000000000000000000000000000106136cf565b61067f7342000000000000000000000000000000000000076136cf565b61069c7342000000000000000000000000000000000000166136cf565b6106b97342000000000000000000000000000000000000116136cf565b6106d67342000000000000000000000000000000000000146136cf565b6106f37342000000000000000000000000000000000000176136cf565b6107107342000000000000000000000000000000000000196136cf565b61072d73420000000000000000000000000000000000001a6136cf565b61074a7342000000000000000000000000000000000000156136cf565b61076773420000000000000000000000000000000000000f6136cf565b6107847342000000000000000000000000000000000000006136cf565b6107a17342000000000000000000000000000000000000426136cf565b6107be7342000000000000000000000000000000000000216136cf565b6107db7342000000000000000000000000000000000000206136cf565b6107f87342000000000000000000000000000000000000066136cf565b6108157342000000000000000000000000000000000000246136cf565b6108327342000000000000000000000000000000000000256136cf565b61084f7342000000000000000000000000000000000000266136cf565b61086c7342000000000000000000000000000000000000276136cf565b6108897342000000000000000000000000000000000000286136cf565b6108a673ca11bde05977b3631167028862be2a173976ca11613745565b6108c37313b0d85ccb8bf860b6b79af3029fca081ae9bef2613745565b6108e07369f4d1788e39c87893c980c06edf4b7f686e2938613745565b6108fd73fb1bffc9d739b8d520daf37df666da4c687191ea613745565b61091a73a1dabef33b3b82c7814b6d82a79e50f4ac44102b613745565b61093773914d7fec6aac8cd542e72bca78b30650d45643d7613745565b610954734e59b44847b379578588920ca78fbf26c0b4956c613745565b61097173998739bfdaadde7c933b942a68053933098f9eda613745565b6109896e22d473030f116ddee9f6b43ac78ba3613745565b6109a6737fc98430eaedbb6070b35b39d798725049088348613745565b6109c3735ff137d4b0fdcd49dca30c7cf57e578a026d2789613745565b6109e073efc2c1444ebcc4db75e7613d20c6a62ff67a167c613745565b6109f96f71727de22e5e9d8baf0edac6f37da032613745565b610a15720f3df6d732807ef1319fb7b8bb8522d0beac02613745565b610a3273ba5ed099633d3b313e4d5f7bdc1305d3c28ba5ed613745565b610a706040518060400160405280601b81526020017f53657475703a20636f6d706c65746564204c322067656e657369730000000000815250613332565b50565b610ab16040518060400160405280601681526020017f53657475703a204c312073657475702073746172742100000000000000000000815250613332565b610ab9613150565b15610d85576040517ff877cb1900000000000000000000000000000000000000000000000000000000815260206004820152600c60248201527f464f524b5f5250435f55524c00000000000000000000000000000000000000006044820152737109709ecfa91a80626ff3989d68f67f5b1dd12d906371ee464d90829063f877cb1990606401600060405180830381865afa158015610b5c573d6000803e3d6000fd5b505050506040513d6000823e601f3d9081017fffffffffffffffffffffffffffffffffffffffffffffffffffffffffffffffe0168201604052610ba291908101906151c7565b6040517fc1978d1f00000000000000000000000000000000000000000000000000000000815260206004820152601160248201527f464f524b5f424c4f434b5f4e554d4245520000000000000000000000000000006044820152737109709ecfa91a80626ff3989d68f67f5b1dd12d9063c1978d1f90606401602060405180830381865afa158015610c38573d6000803e3d6000fd5b505050506040513d601f19601f82011682018060405250810190610c5c9190615218565b6040518363ffffffff1660e01b8152600401610c7992919061527b565b6020604051808303816000875af1158015610c98573d6000803e3d6000fd5b505050506040513d601f19601f82011682018060405250810190610cbc9190615218565b5062aa36a7461480610cce5750600146145b610d85576040517f08c379a000000000000000000000000000000000000000000000000000000000815260206004820152604b60248201527f53657475703a204554485f5250435f55524c206d75737420626520736574207460448201527f6f20612070726f64756374696f6e20285365706f6c6961206f72204d61696e6e60648201527f657429205250432055524c000000000000000000000000000000000000000000608482015260a4015b60405180910390fd5b610e34604051602001610dc9906020808252600f908201527f6f7074696d69736d2e6465706c6f790000000000000000000000000000000000604082015260600190565b604080517fffffffffffffffffffffffffffffffffffffffffffffffffffffffffffffffe08184030181528282528051602091820120838301909252600683527f4465706c6f7900000000000000000000000000000000000000000000000000009083015290613769565b610ee3604051602001610e789060208082526011908201527f6f7074696d69736d2e666f726b6c697665000000000000000000000000000000604082015260600190565b604080517fffffffffffffffffffffffffffffffffffffffffffffffffffffffffffffffe08184030181528282528051602091820120838301909252600883527f466f726b4c6976650000000000000000000000000000000000000000000000009083015290613769565b604051602001610f24906020808252600f908201527f6f7074696d69736d2e6465706c6f790000000000000000000000000000000000604082015260600190565b6040516020818303038152906040528051906020012060001c73ffffffffffffffffffffffffffffffffffffffff16630a9254e46040518163ffffffff1660e01b8152600401600060405180830381600087803b158015610f8457600080fd5b505af1158015610f98573d6000803e3d6000fd5b50505050604051602001610fdd9060208082526011908201527f6f7074696d69736d2e666f726b6c697665000000000000000000000000000000604082015260600190565b6040516020818303038152906040528051906020012060001c73ffffffffffffffffffffffffffffffffffffffff16630a9254e46040518163ffffffff1660e01b8152600401600060405180830381600087803b15801561103d57600080fd5b505af1158015611051573d6000803e3d6000fd5b505050506110936040518060400160405280601581526020017f53657475703a204c3120736574757020646f6e65210000000000000000000000815250613332565b61109b613150565b156110c15761017b6040518060600160405280603981526020016154d160399139613332565b6110ff6040518060400160405280601681526020017f53657475703a204c322073657475702073746172742100000000000000000000815250613332565b737109709ecfa91a80626ff3989d68f67f5b1dd12d73ffffffffffffffffffffffffffffffffffffffff1663b4d6c7826040516020016111709060208082526012908201527f6f7074696d69736d2e6c3267656e657369730000000000000000000000000000604082015260600190565b604080518083037fffffffffffffffffffffffffffffffffffffffffffffffffffffffffffffffe00181529082905280516020918201207f3ebf73b40000000000000000000000000000000000000000000000000000000083526004830191909152601960248301527f4c3247656e657369732e732e736f6c3a4c3247656e6573697300000000000000604483015290737109709ecfa91a80626ff3989d68f67f5b1dd12d90633ebf73b490606401600060405180830381865afa15801561123c573d6000803e3d6000fd5b505050506040513d6000823e601f3d9081017fffffffffffffffffffffffffffffffffffffffffffffffffffffffffffffffe016820160405261128291908101906151c7565b6040518363ffffffff1660e01b815260040161129f92919061529d565b600060405180830381600087803b1580156112b957600080fd5b505af11580156112cd573d6000803e3d6000fd5b50505050737109709ecfa91a80626ff3989d68f67f5b1dd12d73ffffffffffffffffffffffffffffffffffffffff1663ea0602916040516020016113429060208082526012908201527f6f7074696d69736d2e6c3267656e657369730000000000000000000000000000604082015260600190565b604080518083037fffffffffffffffffffffffffffffffffffffffffffffffffffffffffffffffe001815290829052805160209091012060e083901b7fffffffff0000000000000000000000000000000000000000000000000000000016825273ffffffffffffffffffffffffffffffffffffffff166004820152602401600060405180830381600087803b1580156113da57600080fd5b505af11580156113ee573d6000803e3d6000fd5b505050506040516020016114339060208082526012908201527f6f7074696d69736d2e6c3267656e657369730000000000000000000000000000604082015260600190565b6040516020818303038152906040528051906020012060001c73ffffffffffffffffffffffffffffffffffffffff16630a9254e46040518163ffffffff1660e01b8152600401600060405180830381600087803b15801561149357600080fd5b505af11580156114a7573d6000803e3d6000fd5b5050505061017b6040518060400160405280601581526020017f53657475703a204c3220736574757020646f6e65210000000000000000000000815250613332565b6114f1613150565b15610a70576100b08160405160200161150a91906152cc565b604051602081830303815290604052613332565b60405160200161155f9060208082526012908201527f6f7074696d69736d2e6172746966616374730000000000000000000000000000604082015260600190565b6040516020818303038152906040528051906020012060001c81565b611583613150565b15610a70576040517fdd82d13e00000000000000000000000000000000000000000000000000000000815260016004820152737109709ecfa91a80626ff3989d68f67f5b1dd12d9063dd82d13e90602401600060405180830381600087803b1580156115ee57600080fd5b505af1158015611602573d6000803e3d6000fd5b50505050610a708160405160200161150a9190615311565b6116586040518060400160405280601e81526020017f53657475703a206372656174696e67204c31206465706c6f796d656e74730000815250613332565b604080517fb4d6c782000000000000000000000000000000000000000000000000000000008152734e59b44847b379578588920ca78fbf26c0b4956c60048201526024810191909152604560448201527f7fffffffffffffffffffffffffffffffffffffffffffffffffffffffffffffff60648201527fe03601600081602082378035828234f58015156039578182fd5b80825250505060848201527f6014600cf300000000000000000000000000000000000000000000000000000060a4820152737109709ecfa91a80626ff3989d68f67f5b1dd12d9063b4d6c7829060c401600060405180830381600087803b15801561175357600080fd5b505af1158015611767573d6000803e3d6000fd5b50505050611773613150565b15611836576040516020016117b99060208082526011908201527f6f7074696d69736d2e666f726b6c697665000000000000000000000000000000604082015260600190565b6040516020818303038152906040528051906020012060001c73ffffffffffffffffffffffffffffffffffffffff1663c04062266040518163ffffffff1660e01b8152600401600060405180830381600087803b15801561181957600080fd5b505af115801561182d573d6000803e3d6000fd5b505050506118f0565b604051602001611877906020808252600f908201527f6f7074696d69736d2e6465706c6f790000000000000000000000000000000000604082015260600190565b6040516020818303038152906040528051906020012060001c73ffffffffffffffffffffffffffffffffffffffff1663c04062266040518163ffffffff1660e01b8152600401600060405180830381600087803b1580156118d757600080fd5b505af11580156118eb573d6000803e3d6000fd5b505050505b61191160405180606001604052806039815260200161549860399139613332565b6040516020016119529060208082526012908201527f6f7074696d69736d2e6172746966616374730000000000000000000000000000604082015260600190565b604080518083037fffffffffffffffffffffffffffffffffffffffffffffffffffffffffffffffe00181529082905280516020918201207f3fb902710000000000000000000000000000000000000000000000000000000083526004830191909152601360248301527f4f7074696d69736d506f7274616c50726f787900000000000000000000000000604483015273ffffffffffffffffffffffffffffffffffffffff1690633fb9027190606401602060405180830381865afa158015611a1e573d6000803e3d6000fd5b505050506040513d601f19601f82011682018060405250810190611a429190615147565b600680547fffffffffffffffffffffffff00000000000000000000000000000000000000001673ffffffffffffffffffffffffffffffffffffffff92909216919091179055604080516020808201526012918101919091527f6f7074696d69736d2e61727469666163747300000000000000000000000000006060820152608001604080518083037fffffffffffffffffffffffffffffffffffffffffffffffffffffffffffffffe00181529082905280516020918201207f3fb902710000000000000000000000000000000000000000000000000000000083526004830191909152601160248301527f53797374656d436f6e66696750726f7879000000000000000000000000000000604483015273ffffffffffffffffffffffffffffffffffffffff1690633fb9027190606401602060405180830381865afa158015611b8f573d6000803e3d6000fd5b505050506040513d601f19601f82011682018060405250810190611bb39190615147565b600780547fffffffffffffffffffffffff00000000000000000000000000000000000000001673ffffffffffffffffffffffffffffffffffffffff92909216919091179055604080516020808201526012918101919091527f6f7074696d69736d2e61727469666163747300000000000000000000000000006060820152608001604080518083037fffffffffffffffffffffffffffffffffffffffffffffffffffffffffffffffe00181529082905280516020918201207f3fb902710000000000000000000000000000000000000000000000000000000083526004830191909152601560248301527f4c315374616e6461726442726964676550726f78790000000000000000000000604483015273ffffffffffffffffffffffffffffffffffffffff1690633fb9027190606401602060405180830381865afa158015611d00573d6000803e3d6000fd5b505050506040513d601f19601f82011682018060405250810190611d249190615147565b600880547fffffffffffffffffffffffff00000000000000000000000000000000000000001673ffffffffffffffffffffffffffffffffffffffff92909216919091179055604080516020808201526012918101919091527f6f7074696d69736d2e61727469666163747300000000000000000000000000006060820152608001604080518083037fffffffffffffffffffffffffffffffffffffffffffffffffffffffffffffffe00181529082905280516020918201207f3fb902710000000000000000000000000000000000000000000000000000000083526004830191909152601b60248301527f4c3143726f7373446f6d61696e4d657373656e67657250726f78790000000000604483015273ffffffffffffffffffffffffffffffffffffffff1690633fb9027190606401602060405180830381865afa158015611e71573d6000803e3d6000fd5b505050506040513d601f19601f82011682018060405250810190611e959190615147565b600980547fffffffffffffffffffffffff00000000000000000000000000000000000000001673ffffffffffffffffffffffffffffffffffffffff929092169182179055737109709ecfa91a80626ff3989d68f67f5b1dd12d9063c657c7189073111100000000000000000000000000000000111101604080517fffffffff0000000000000000000000000000000000000000000000000000000060e085901b16815273ffffffffffffffffffffffffffffffffffffffff90921660048301526024820152602360448201527f4c3143726f7373446f6d61696e4d657373656e67657250726f78795f616c696160648201527f7365640000000000000000000000000000000000000000000000000000000000608482015260a401600060405180830381600087803b158015611fca57600080fd5b505af1158015611fde573d6000803e3d6000fd5b505050506040516020016120239060208082526012908201527f6f7074696d69736d2e6172746966616374730000000000000000000000000000604082015260600190565b604080518083037fffffffffffffffffffffffffffffffffffffffffffffffffffffffffffffffe00181529082905280516020918201207f3fb902710000000000000000000000000000000000000000000000000000000083526004830191909152600e60248301527f416464726573734d616e61676572000000000000000000000000000000000000604483015273ffffffffffffffffffffffffffffffffffffffff1690633fb9027190606401602060405180830381865afa1580156120ef573d6000803e3d6000fd5b505050506040513d601f19601f820116820180604052508101906121139190615147565b600a80547fffffffffffffffffffffffff00000000000000000000000000000000000000001673ffffffffffffffffffffffffffffffffffffffff92909216919091179055604080516020808201526012918101919091527f6f7074696d69736d2e61727469666163747300000000000000000000000000006060820152608001604080518083037fffffffffffffffffffffffffffffffffffffffffffffffffffffffffffffffe00181529082905280516020918201207f3fb902710000000000000000000000000000000000000000000000000000000083526004830191909152601360248301527f4c3145524337323142726964676550726f787900000000000000000000000000604483015273ffffffffffffffffffffffffffffffffffffffff1690633fb9027190606401602060405180830381865afa158015612260573d6000803e3d6000fd5b505050506040513d601f19601f820116820180604052508101906122849190615147565b600b80547fffffffffffffffffffffffff00000000000000000000000000000000000000001673ffffffffffffffffffffffffffffffffffffffff92909216919091179055604080516020808201526012918101919091527f6f7074696d69736d2e61727469666163747300000000000000000000000000006060820152608001604080518083037fffffffffffffffffffffffffffffffffffffffffffffffffffffffffffffffe00181529082905280516020918201207f3fb902710000000000000000000000000000000000000000000000000000000083526004830191909152602160248301527f4f7074696d69736d4d696e7461626c654552433230466163746f727950726f7860448301527f7900000000000000000000000000000000000000000000000000000000000000606483015273ffffffffffffffffffffffffffffffffffffffff1690633fb9027190608401602060405180830381865afa1580156123f7573d6000803e3d6000fd5b505050506040513d601f19601f8201168201806040525081019061241b9190615147565b600c80547fffffffffffffffffffffffff00000000000000000000000000000000000000001673ffffffffffffffffffffffffffffffffffffffff92909216919091179055604080516020808201526012918101919091527f6f7074696d69736d2e61727469666163747300000000000000000000000000006060820152608001604080518083037fffffffffffffffffffffffffffffffffffffffffffffffffffffffffffffffe00181529082905280516020918201207f3fb902710000000000000000000000000000000000000000000000000000000083526004830191909152601560248301527f50726f746f636f6c56657273696f6e7350726f78790000000000000000000000604483015273ffffffffffffffffffffffffffffffffffffffff1690633fb9027190606401602060405180830381865afa158015612568573d6000803e3d6000fd5b505050506040513d601f19601f8201168201806040525081019061258c9190615147565b600d80547fffffffffffffffffffffffff00000000000000000000000000000000000000001673ffffffffffffffffffffffffffffffffffffffff92909216919091179055604080516020808201526012918101919091527f6f7074696d69736d2e61727469666163747300000000000000000000000000006060820152608001604080518083037fffffffffffffffffffffffffffffffffffffffffffffffffffffffffffffffe00181529082905280516020918201207f3fb902710000000000000000000000000000000000000000000000000000000083526004830191909152601560248301527f5375706572636861696e436f6e66696750726f78790000000000000000000000604483015273ffffffffffffffffffffffffffffffffffffffff1690633fb9027190606401602060405180830381865afa1580156126d9573d6000803e3d6000fd5b505050506040513d601f19601f820116820180604052508101906126fd9190615147565b600e80547fffffffffffffffffffffffff00000000000000000000000000000000000000001673ffffffffffffffffffffffffffffffffffffffff92909216919091179055604080516020808201526012918101919091527f6f7074696d69736d2e61727469666163747300000000000000000000000000006060820152608001604080518083037fffffffffffffffffffffffffffffffffffffffffffffffffffffffffffffffe00181529082905280516020918201207f3fb902710000000000000000000000000000000000000000000000000000000083526004830191909152601860248301527f416e63686f725374617465526567697374727950726f78790000000000000000604483015273ffffffffffffffffffffffffffffffffffffffff1690633fb9027190606401602060405180830381865afa15801561284a573d6000803e3d6000fd5b505050506040513d601f19601f8201168201806040525081019061286e9190615147565b600180547fffffffffffffffffffffffff00000000000000000000000000000000000000001673ffffffffffffffffffffffffffffffffffffffff92909216919091179055604080516020808201526012918101919091527f6f7074696d69736d2e61727469666163747300000000000000000000000000006060820152608001604080518083037fffffffffffffffffffffffffffffffffffffffffffffffffffffffffffffffe00181529082905280516020918201207f3fb902710000000000000000000000000000000000000000000000000000000083526004830191909152601760248301527f4469737075746547616d65466163746f727950726f7879000000000000000000604483015273ffffffffffffffffffffffffffffffffffffffff1690633fb9027190606401602060405180830381865afa1580156129bb573d6000803e3d6000fd5b505050506040513d601f19601f820116820180604052508101906129df9190615147565b600060016101000a81548173ffffffffffffffffffffffffffffffffffffffff021916908373ffffffffffffffffffffffffffffffffffffffff160217905550604051602001612a609060208082526012908201527f6f7074696d69736d2e6172746966616374730000000000000000000000000000604082015260600190565b604080518083037fffffffffffffffffffffffffffffffffffffffffffffffffffffffffffffffe00181529082905280516020918201207f3fb902710000000000000000000000000000000000000000000000000000000083526004830191909152601060248301527f44656c617965645745544850726f787900000000000000000000000000000000604483015273ffffffffffffffffffffffffffffffffffffffff1690633fb9027190606401602060405180830381865afa158015612b2c573d6000803e3d6000fd5b505050506040513d601f19601f82011682018060405250810190612b509190615147565b600380547fffffffffffffffffffffffff00000000000000000000000000000000000000001673ffffffffffffffffffffffffffffffffffffffff92909216919091179055604080516020808201526012918101919091527f6f7074696d69736d2e61727469666163747300000000000000000000000000006060820152608001604080518083037fffffffffffffffffffffffffffffffffffffffffffffffffffffffffffffffe00181529082905280516020918201207f3fb902710000000000000000000000000000000000000000000000000000000083526004830191909152601260248301527f4f50436f6e7472616374734d616e616765720000000000000000000000000000604483015273ffffffffffffffffffffffffffffffffffffffff1690633fb9027190606401602060405180830381865afa158015612c9d573d6000803e3d6000fd5b505050506040513d601f19601f82011682018060405250810190612cc19190615147565b601080547fffffffffffffffffffffffff00000000000000000000000000000000000000001673ffffffffffffffffffffffffffffffffffffffff9290921691909117905560408051602080820152600f918101919091527f6f7074696d69736d2e6465706c6f79000000000000000000000000000000000060608201526080016040516020818303038152906040528051906020012060001c73ffffffffffffffffffffffffffffffffffffffff16630457dad26040518163ffffffff1660e01b8152600401602060405180830381865afa158015612da5573d6000803e3d6000fd5b505050506040513d601f19601f82011682018060405250810190612dc99190615147565b73ffffffffffffffffffffffffffffffffffffffff166308e0e2bb6040518163ffffffff1660e01b8152600401602060405180830381865afa158015612e13573d6000803e3d6000fd5b505050506040513d601f19601f82011682018060405250810190612e379190615356565b15612fb357604051602001612e7d9060208082526012908201527f6f7074696d69736d2e6172746966616374730000000000000000000000000000604082015260600190565b604080518083037fffffffffffffffffffffffffffffffffffffffffffffffffffffffffffffffe00181529082905280516020918201207f3fb902710000000000000000000000000000000000000000000000000000000083526004830191909152601e60248301527f44617461417661696c6162696c6974794368616c6c656e676550726f78790000604483015273ffffffffffffffffffffffffffffffffffffffff1690633fb9027190606401602060405180830381865afa158015612f49573d6000803e3d6000fd5b505050506040513d601f19601f82011682018060405250810190612f6d9190615147565b600f80547fffffffffffffffffffffffff00000000000000000000000000000000000000001673ffffffffffffffffffffffffffffffffffffffff929092169190911790555b61017b6040518060400160405280602081526020017f53657475703a2072656769737465726564204c31206465706c6f796d656e7473815250613332565b6040516020016130329060208082526011908201527f6f7074696d69736d2e666f726b6c697665000000000000000000000000000000604082015260600190565b6040516020818303038152906040528051906020012060001c73ffffffffffffffffffffffffffffffffffffffff166316c9ce2d6040518163ffffffff1660e01b8152600401602060405180830381865afa158015613095573d6000803e3d6000fd5b505050506040513d601f19601f820116820180604052508101906130b99190615356565b15610a70576040517fdd82d13e00000000000000000000000000000000000000000000000000000000815260016004820152737109709ecfa91a80626ff3989d68f67f5b1dd12d9063dd82d13e90602401600060405180830381600087803b15801561312457600080fd5b505af1158015613138573d6000803e3d6000fd5b50505050610a708160405160200161150a9190615378565b604080517f4777f3cf0000000000000000000000000000000000000000000000000000000081526004810191909152600960448201527f464f524b5f544553540000000000000000000000000000000000000000000000606482015260006024820181905290737109709ecfa91a80626ff3989d68f67f5b1dd12d90634777f3cf90608401602060405180830381865afa1580156131f2573d6000803e3d6000fd5b505050506040513d601f19601f820116820180604052508101906132169190615356565b905090565b6040517f64af255d000000000000000000000000000000000000000000000000000000008152737109709ecfa91a80626ff3989d68f67f5b1dd12d906364af255d9061326c906002906004016153bd565b602060405180830381865afa158015613289573d6000803e3d6000fd5b505050506040513d601f19601f820116820180604052508101906132ad9190615356565b1561017b576040517fdd82d13e00000000000000000000000000000000000000000000000000000000815260016004820152737109709ecfa91a80626ff3989d68f67f5b1dd12d9063dd82d13e90602401600060405180830381600087803b15801561331857600080fd5b505af115801561332c573d6000803e3d6000fd5b50505050565b610a708160405160240161334691906153d7565b604080517fffffffffffffffffffffffffffffffffffffffffffffffffffffffffffffffe08184030181529190526020810180517bffffffffffffffffffffffffffffffffffffffffffffffffffffffff167f41304fac0000000000000000000000000000000000000000000000000000000017905261379f565b606060008260068111156133d7576133d761508a565b0361341557505060408051808201909152600481527f6e6f6e6500000000000000000000000000000000000000000000000000000000602082015290565b60018260068111156134295761342961508a565b0361346757505060408051808201909152600581527f64656c7461000000000000000000000000000000000000000000000000000000602082015290565b600282600681111561347b5761347b61508a565b036134b957505060408051808201909152600781527f65636f746f6e6500000000000000000000000000000000000000000000000000602082015290565b60038260068111156134cd576134cd61508a565b0361350b57505060408051808201909152600581527f666a6f7264000000000000000000000000000000000000000000000000000000602082015290565b600482600681111561351f5761351f61508a565b0361355d57505060408051808201909152600781527f6772616e69746500000000000000000000000000000000000000000000000000602082015290565b60058260068111156135715761357161508a565b036135af57505060408051808201909152600881527f686f6c6f63656e65000000000000000000000000000000000000000000000000602082015290565b60068260068111156135c3576135c361508a565b0361360157505060408051808201909152600781527f697374686d757300000000000000000000000000000000000000000000000000602082015290565b505060408051808201909152600781527f756e6b6e6f776e00000000000000000000000000000000000000000000000000602082015290565b6136cb82826040516024016136509291906153ea565b604080517fffffffffffffffffffffffffffffffffffffffffffffffffffffffffffffffe08184030181529190526020810180517bffffffffffffffffffffffffffffffffffffffffffffffffffffffff167f4b5c42770000000000000000000000000000000000000000000000000000000017905261379f565b5050565b737109709ecfa91a80626ff3989d68f67f5b1dd12d63c657c718826136f3816137a8565b6040518363ffffffff1660e01b815260040161371092919061529d565b600060405180830381600087803b15801561372a57600080fd5b505af115801561373e573d6000803e3d6000fd5b5050505050565b737109709ecfa91a80626ff3989d68f67f5b1dd12d63c657c718826136f3816145af565b6000818260405160200161377e929190615418565b604051602081830303815290604052905061379a838383614cfd565b505050565b610a7081614f25565b60607208400000000000000000000000000000000000600b83901c721fffffffffffffffffffffffffffffffffffff1614613865576040517f08c379a000000000000000000000000000000000000000000000000000000000815260206004820152602760248201527f5072656465706c6f79733a2061646472657373206d757374206265206120707260448201527f656465706c6f79000000000000000000000000000000000000000000000000006064820152608401610d7c565b7fffffffffffffffffffffffffbe0000000000000000000000000000000000000073ffffffffffffffffffffffffffffffffffffffff8316016138db57505060408051808201909152601381527f4c65676163794d65737361676550617373657200000000000000000000000000602082015290565b7fffffffffffffffffffffffffbdffffffffffffffffffffffffffffffffffffff73ffffffffffffffffffffffffffffffffffffffff83160161395157505060408051808201909152600f81527f4c314d65737361676553656e6465720000000000000000000000000000000000602082015290565b7fffffffffffffffffffffffffbdfffffffffffffffffffffffffffffffffffffe73ffffffffffffffffffffffffffffffffffffffff8316016139c757505060408051808201909152601181527f4465706c6f79657257686974656c697374000000000000000000000000000000602082015290565b7fffffffffffffffffffffffffbdfffffffffffffffffffffffffffffffffffffa73ffffffffffffffffffffffffffffffffffffffff831601613a3d57505060408051808201909152600481527f5745544800000000000000000000000000000000000000000000000000000000602082015290565b7fffffffffffffffffffffffffbdfffffffffffffffffffffffffffffffffffff973ffffffffffffffffffffffffffffffffffffffff831601613ab357505060408051808201909152601681527f4c3243726f7373446f6d61696e4d657373656e67657200000000000000000000602082015290565b7fffffffffffffffffffffffffbdfffffffffffffffffffffffffffffffffffff173ffffffffffffffffffffffffffffffffffffffff831601613b2957505060408051808201909152600e81527f47617350726963654f7261636c65000000000000000000000000000000000000602082015290565b7fffffffffffffffffffffffffbdfffffffffffffffffffffffffffffffffffff073ffffffffffffffffffffffffffffffffffffffff831601613b9f57505060408051808201909152601081527f4c325374616e6461726442726964676500000000000000000000000000000000602082015290565b7fffffffffffffffffffffffffbdffffffffffffffffffffffffffffffffffffef73ffffffffffffffffffffffffffffffffffffffff831601613c1557505060408051808201909152601181527f53657175656e6365724665655661756c74000000000000000000000000000000602082015290565b7fffffffffffffffffffffffffbdffffffffffffffffffffffffffffffffffffee73ffffffffffffffffffffffffffffffffffffffff831601613c8b57505060408051808201909152601c81527f4f7074696d69736d4d696e7461626c654552433230466163746f727900000000602082015290565b7fffffffffffffffffffffffffbdffffffffffffffffffffffffffffffffffffed73ffffffffffffffffffffffffffffffffffffffff831601613d0157505060408051808201909152600d81527f4c31426c6f636b4e756d62657200000000000000000000000000000000000000602082015290565b7fffffffffffffffffffffffffbdffffffffffffffffffffffffffffffffffffec73ffffffffffffffffffffffffffffffffffffffff831601613d7757505060408051808201909152600e81527f4c32455243373231427269646765000000000000000000000000000000000000602082015290565b7fffffffffffffffffffffffffbdffffffffffffffffffffffffffffffffffffeb73ffffffffffffffffffffffffffffffffffffffff831601613ded57505060408051808201909152600781527f4c31426c6f636b00000000000000000000000000000000000000000000000000602082015290565b7fffffffffffffffffffffffffbdffffffffffffffffffffffffffffffffffffea73ffffffffffffffffffffffffffffffffffffffff831601613e6357505060408051808201909152601381527f4c32546f4c314d65737361676550617373657200000000000000000000000000602082015290565b7fffffffffffffffffffffffffbdffffffffffffffffffffffffffffffffffffe973ffffffffffffffffffffffffffffffffffffffff831601613ed957505060408051808201909152601d81527f4f7074696d69736d4d696e7461626c65455243373231466163746f7279000000602082015290565b7fffffffffffffffffffffffffbdffffffffffffffffffffffffffffffffffffe873ffffffffffffffffffffffffffffffffffffffff831601613f4f57505060408051808201909152600a81527f50726f787941646d696e00000000000000000000000000000000000000000000602082015290565b7fffffffffffffffffffffffffbdffffffffffffffffffffffffffffffffffffe773ffffffffffffffffffffffffffffffffffffffff831601613fc557505060408051808201909152600c81527f426173654665655661756c740000000000000000000000000000000000000000602082015290565b7fffffffffffffffffffffffffbdffffffffffffffffffffffffffffffffffffe673ffffffffffffffffffffffffffffffffffffffff83160161403b57505060408051808201909152600a81527f4c314665655661756c7400000000000000000000000000000000000000000000602082015290565b7fffffffffffffffffffffffffbdffffffffffffffffffffffffffffffffffffe073ffffffffffffffffffffffffffffffffffffffff8316016140b157505060408051808201909152600e81527f536368656d615265676973747279000000000000000000000000000000000000602082015290565b7fffffffffffffffffffffffffbdffffffffffffffffffffffffffffffffffffdf73ffffffffffffffffffffffffffffffffffffffff83160161412757505060408051808201909152600381527f4541530000000000000000000000000000000000000000000000000000000000602082015290565b7fffffffffffffffffffffffffbdffffffffffffffffffffffffffffffffffffbe73ffffffffffffffffffffffffffffffffffffffff83160161419d57505060408051808201909152600f81527f476f7665726e616e6365546f6b656e0000000000000000000000000000000000602082015290565b7fffffffffffffffffffffffff215221522152215221522152215221522153000073ffffffffffffffffffffffffffffffffffffffff83160161421357505060408051808201909152600e81527f4c65676163794552433230455448000000000000000000000000000000000000602082015290565b7fffffffffffffffffffffffffbdffffffffffffffffffffffffffffffffffffde73ffffffffffffffffffffffffffffffffffffffff83160161428957505060408051808201909152600c81527f43726f73734c32496e626f780000000000000000000000000000000000000000602082015290565b7fffffffffffffffffffffffffbdffffffffffffffffffffffffffffffffffffdd73ffffffffffffffffffffffffffffffffffffffff8316016142ff57505060408051808201909152601a81527f4c32546f4c3243726f7373446f6d61696e4d657373656e676572000000000000602082015290565b7fffffffffffffffffffffffffbdffffffffffffffffffffffffffffffffffffdc73ffffffffffffffffffffffffffffffffffffffff83160161437557505060408051808201909152600e81527f5375706572636861696e57455448000000000000000000000000000000000000602082015290565b7fffffffffffffffffffffffffbdffffffffffffffffffffffffffffffffffffdb73ffffffffffffffffffffffffffffffffffffffff8316016143eb57505060408051808201909152600c81527f4554484c69717569646974790000000000000000000000000000000000000000602082015290565b7fffffffffffffffffffffffffbdffffffffffffffffffffffffffffffffffffda73ffffffffffffffffffffffffffffffffffffffff83160161446157505060408051808201909152601e81527f4f7074696d69736d5375706572636861696e4552433230466163746f72790000602082015290565b7fffffffffffffffffffffffffbdffffffffffffffffffffffffffffffffffffd973ffffffffffffffffffffffffffffffffffffffff8316016144d757505060408051808201909152601d81527f4f7074696d69736d5375706572636861696e4552433230426561636f6e000000602082015290565b7fffffffffffffffffffffffffbdffffffffffffffffffffffffffffffffffffd873ffffffffffffffffffffffffffffffffffffffff83160161454d57505060408051808201909152601581527f5375706572636861696e546f6b656e4272696467650000000000000000000000602082015290565b6040517f08c379a000000000000000000000000000000000000000000000000000000000815260206004820152601d60248201527f5072656465706c6f79733a20756e6e616d6564207072656465706c6f790000006044820152606401610d7c565b60607fffffffffffffffffffffffffffffffffffdd2b8cfcf0ee922116094bc538745d73ffffffffffffffffffffffffffffffffffffffff83160161462757505060408051808201909152600781527f5065726d69743200000000000000000000000000000000000000000000000000602082015290565b7fffffffffffffffffffffffff35ee421fa6884c9cee98fd779d41d5e8c68935ef73ffffffffffffffffffffffffffffffffffffffff83160161469d57505060408051808201909152600a81527f4d756c746943616c6c3300000000000000000000000000000000000000000000602082015290565b7fffffffffffffffffffffffffec4f27a33474079f4948650cfd6035f7e516410e73ffffffffffffffffffffffffffffffffffffffff83160161471357505060408051808201909152600f81527f437265617465324465706c6f7965720000000000000000000000000000000000602082015290565b7fffffffffffffffffffffffff960b2e8771c637876c367f3f9120b4809791d6c873ffffffffffffffffffffffffffffffffffffffff83160161478957505060408051808201909152600981527f536166655f763133300000000000000000000000000000000000000000000000602082015290565b7fffffffffffffffffffffffff04e4003628c6472adf250c82099925b3978e6e1673ffffffffffffffffffffffffffffffffffffffff8316016147ff57505060408051808201909152600b81527f536166654c325f76313330000000000000000000000000000000000000000000602082015290565b7fffffffffffffffffffffffff5e25410cc4c47d387eb4927d5861af0b53bbefd573ffffffffffffffffffffffffffffffffffffffff83160161487557505060408051808201909152601681527f4d756c746953656e6443616c6c4f6e6c795f7631333000000000000000000000602082015290565b7fffffffffffffffffffffffff6eb280139553732abd18d435874cf9af2ba9bc2973ffffffffffffffffffffffffffffffffffffffff8316016148eb57505060408051808201909152601481527f5361666553696e676c65746f6e466163746f7279000000000000000000000000602082015290565b7fffffffffffffffffffffffffb1a64bb7b84c86a87a776df3587040d93f4b6a9473ffffffffffffffffffffffffffffffffffffffff83160161496157505060408051808201909152601c81527f44657465726d696e69737469634465706c6f796d656e7450726f787900000000602082015290565b7fffffffffffffffffffffffff6678c640255221836cc46bd597fac6ccf670612673ffffffffffffffffffffffffffffffffffffffff8316016149d757505060408051808201909152600e81527f4d756c746953656e645f76313330000000000000000000000000000000000000602082015290565b7fffffffffffffffffffffffff80367bcf1512449f8f4ca4c628678dafb6f77cb873ffffffffffffffffffffffffffffffffffffffff831601614a4d57505060408051808201909152601281527f53656e64657243726561746f725f763036300000000000000000000000000000602082015290565b7fffffffffffffffffffffffffa00ec82b4f0232b6235cf3830a81a875fd92d87773ffffffffffffffffffffffffffffffffffffffff831601614ac357505060408051808201909152600f81527f456e747279506f696e745f763036300000000000000000000000000000000000602082015290565b7fffffffffffffffffffffffff103d3ebbb1433b248a189ec2df3959d00985e98473ffffffffffffffffffffffffffffffffffffffff831601614b3957505060408051808201909152601281527f53656e64657243726561746f725f763037300000000000000000000000000000602082015290565b7fffffffffffffffffffffffffffffffff8e8d821dd1a1627450f125390c825fce73ffffffffffffffffffffffffffffffffffffffff831601614baf57505060408051808201909152600f81527f456e747279506f696e745f763037300000000000000000000000000000000000602082015290565b7ffffffffffffffffffffffffffff0c20928cd7f810ece604847447add2f4153fe73ffffffffffffffffffffffffffffffffffffffff831601614c2557505060408051808201909152601081527f426561636f6e426c6f636b526f6f747300000000000000000000000000000000602082015290565b7fffffffffffffffffffffffff45a12f669cc2c4cec1b2a08423ecfa2c3d745a1373ffffffffffffffffffffffffffffffffffffffff831601614c9b57505060408051808201909152600781527f4372656174655800000000000000000000000000000000000000000000000000602082015290565b6040517f08c379a000000000000000000000000000000000000000000000000000000000815260206004820152601f60248201527f507265696e7374616c6c733a20756e6e616d656420707265696e7374616c6c006044820152606401610d7c565b6040517f3ebf73b4000000000000000000000000000000000000000000000000000000008152737109709ecfa91a80626ff3989d68f67f5b1dd12d9063b4d6c7829085908390633ebf73b490614d579087906004016153d7565b600060405180830381865afa158015614d74573d6000803e3d6000fd5b505050506040513d6000823e601f3d9081017fffffffffffffffffffffffffffffffffffffffffffffffffffffffffffffffe0168201604052614dba91908101906151c7565b6040518363ffffffff1660e01b8152600401614dd792919061529d565b600060405180830381600087803b158015614df157600080fd5b505af1158015614e05573d6000803e3d6000fd5b50506040517fc657c718000000000000000000000000000000000000000000000000000000008152737109709ecfa91a80626ff3989d68f67f5b1dd12d925063c657c7189150614e5b908690869060040161529d565b600060405180830381600087803b158015614e7557600080fd5b505af1158015614e89573d6000803e3d6000fd5b50506040517fea06029100000000000000000000000000000000000000000000000000000000815273ffffffffffffffffffffffffffffffffffffffff86166004820152737109709ecfa91a80626ff3989d68f67f5b1dd12d925063ea0602919150602401600060405180830381600087803b158015614f0857600080fd5b505af1158015614f1c573d6000803e3d6000fd5b50505050505050565b60006a636f6e736f6c652e6c6f679050600080835160208501845afa505050565b7f4e487b7100000000000000000000000000000000000000000000000000000000600052604160045260246000fd5b604051601f82017fffffffffffffffffffffffffffffffffffffffffffffffffffffffffffffffe016810167ffffffffffffffff81118282101715614fbc57614fbc614f46565b604052919050565b600067ffffffffffffffff821115614fde57614fde614f46565b50601f017fffffffffffffffffffffffffffffffffffffffffffffffffffffffffffffffe01660200190565b60006020828403121561501c57600080fd5b813567ffffffffffffffff81111561503357600080fd5b8201601f8101841361504457600080fd5b803561505761505282614fc4565b614f75565b81815285602083850101111561506c57600080fd5b81602084016020830137600091810160200191909152949350505050565b7f4e487b7100000000000000000000000000000000000000000000000000000000600052602160045260246000fd5b60a08101600385106150cd576150cd61508a565b848252600784106150e0576150e061508a565b83602083015273ffffffffffffffffffffffffffffffffffffffff80845116604084015280602085015116606084015280604085015116608084015250949350505050565b73ffffffffffffffffffffffffffffffffffffffff81168114610a7057600080fd5b60006020828403121561515957600080fd5b815161516481615125565b9392505050565b60005b8381101561518657818101518382015260200161516e565b8381111561332c5750506000910152565b60006151a561505284614fc4565b90508281528383830111156151b957600080fd5b61516483602083018461516b565b6000602082840312156151d957600080fd5b815167ffffffffffffffff8111156151f057600080fd5b8201601f8101841361520157600080fd5b61521084825160208401615197565b949350505050565b60006020828403121561522a57600080fd5b5051919050565b6000815180845261524981602086016020860161516b565b601f017fffffffffffffffffffffffffffffffffffffffffffffffffffffffffffffffe0169290920160200192915050565b60408152600061528e6040830185615231565b90508260208301529392505050565b73ffffffffffffffffffffffffffffffffffffffff831681526040602082015260006152106040830184615231565b7f52657475726e696e67206561726c792066726f6d20666f726b20746573743a2081526000825161530481602085016020870161516b565b9190910160200192915050565b7f536b697070696e6720666f726b20746573743a2000000000000000000000000081526000825161534981601485016020870161516b565b9190910160140192915050565b60006020828403121561536857600080fd5b8151801515811461516457600080fd5b7f536b697070696e67206f7073207265706f20746573743a2000000000000000008152600082516153b081601885016020870161516b565b9190910160180192915050565b60208101600983106153d1576153d161508a565b91905290565b6020815260006151646020830184615231565b6040815260006153fd6040830185615231565b828103602084015261540f8185615231565b95945050505050565b6000835161542a81846020880161516b565b7f2e732e736f6c3a00000000000000000000000000000000000000000000000000908301908152835161546481600784016020880161516b565b0160070194935050505056fe53657475703a206372656174696e67204c322067656e65736973207769746820666f726b20257353657475703a20636f6d706c65746564204c31206465706c6f796d656e742c207265676973746572696e6720616464726573736573206e6f7753657475703a20666f726b20746573742064657465637465642c20736b697070696e67204c322067656e657369732067656e65726174696f6e53657475703a20666f726b20746573742064657465637465642c20736b697070696e67204c32207365747570a164736f6c634300080f000a","linkReferences":{}},"methodIdentifiers":{"L1()":"7809baaf","L2()":"081752bb","artifacts()":"2eee9feb","isForkTest()":"a2f4f536","returnIfForkTest(string)":"15fb3ab9","setUp()":"0a9254e4","skipIfCoverage()":"a92e3a04","skipIfForkTest(string)":"61547b50","skipIfOpsRepoTest(string)":"9557a02a"},"storageLayout":{"storage":[{"astId":272662,"contract":"test/setup/Setup.sol:Setup","label":"l2Fork","offset":0,"slot":"0","type":"t_enum(Fork)88300"},{"astId":272665,"contract":"test/setup/Setup.sol:Setup","label":"disputeGameFactory","offset":1,"slot":"0","type":"t_contract(IDisputeGameFactory)5495"},{"astId":272668,"contract":"test/setup/Setup.sol:Setup","label":"anchorStateRegistry","offset":0,"slot":"1","type":"t_contract(IAnchorStateRegistry)4959"},{"astId":272671,"contract":"test/setup/Setup.sol:Setup","label":"faultDisputeGame","offset":0,"slot":"2","type":"t_contract(IFaultDisputeGame)5970"},{"astId":272674,"contract":"test/setup/Setup.sol:Setup","label":"delayedWeth","offset":0,"slot":"3","type":"t_contract(IDelayedWETH)5195"},{"astId":272677,"contract":"test/setup/Setup.sol:Setup","label":"permissionedDisputeGame","offset":0,"slot":"4","type":"t_contract(IPermissionedDisputeGame)6443"},{"astId":272680,"contract":"test/setup/Setup.sol:Setup","label":"delayedWETHPermissionedGameProxy","offset":0,"slot":"5","type":"t_contract(IDelayedWETH)5195"},{"astId":272683,"contract":"test/setup/Setup.sol:Setup","label":"optimismPortal2","offset":0,"slot":"6","type":"t_contract(IOptimismPortal2)1307"},{"astId":272686,"contract":"test/setup/Setup.sol:Setup","label":"systemConfig","offset":0,"slot":"7","type":"t_contract(ISystemConfig)2116"},{"astId":272689,"contract":"test/setup/Setup.sol:Setup","label":"l1StandardBridge","offset":0,"slot":"8","type":"t_contract(IL1StandardBridge)528"},{"astId":272692,"contract":"test/setup/Setup.sol:Setup","label":"l1CrossDomainMessenger","offset":0,"slot":"9","type":"t_contract(IL1CrossDomainMessenger)278"},{"astId":272695,"contract":"test/setup/Setup.sol:Setup","label":"addressManager","offset":0,"slot":"10","type":"t_contract(IAddressManager)6802"},{"astId":272698,"contract":"test/setup/Setup.sol:Setup","label":"l1ERC721Bridge","offset":0,"slot":"11","type":"t_contract(IL1ERC721Bridge)371"},{"astId":272701,"contract":"test/setup/Setup.sol:Setup","label":"l1OptimismMintableERC20Factory","offset":0,"slot":"12","type":"t_contract(IOptimismMintableERC20Factory)7827"},{"astId":272704,"contract":"test/setup/Setup.sol:Setup","label":"protocolVersions","offset":0,"slot":"13","type":"t_contract(IProtocolVersions)1730"},{"astId":272707,"contract":"test/setup/Setup.sol:Setup","label":"superchainConfig","offset":0,"slot":"14","type":"t_contract(ISuperchainConfig)1836"},{"astId":272710,"contract":"test/setup/Setup.sol:Setup","label":"dataAvailabilityChallenge","offset":0,"slot":"15","type":"t_contract(IDataAvailabilityChallenge)232"},{"astId":272713,"contract":"test/setup/Setup.sol:Setup","label":"opcm","offset":0,"slot":"16","type":"t_contract(IOPContractsManager)957"},{"astId":272723,"contract":"test/setup/Setup.sol:Setup","label":"l2CrossDomainMessenger","offset":0,"slot":"17","type":"t_contract(IL2CrossDomainMessenger)3043"},{"astId":272733,"contract":"test/setup/Setup.sol:Setup","label":"l2StandardBridge","offset":0,"slot":"18","type":"t_contract(IL2StandardBridgeInterop)3377"},{"astId":272743,"contract":"test/setup/Setup.sol:Setup","label":"l2ToL1MessagePasser","offset":0,"slot":"19","type":"t_contract(IL2ToL1MessagePasser)3440"},{"astId":272750,"contract":"test/setup/Setup.sol:Setup","label":"l2OptimismMintableERC20Factory","offset":0,"slot":"20","type":"t_contract(IOptimismMintableERC20Factory)7827"},{"astId":272757,"contract":"test/setup/Setup.sol:Setup","label":"l2ERC721Bridge","offset":0,"slot":"21","type":"t_contract(IL2ERC721Bridge)3078"},{"astId":272764,"contract":"test/setup/Setup.sol:Setup","label":"l2OptimismMintableERC721Factory","offset":0,"slot":"22","type":"t_contract(IOptimismMintableERC721Factory)3902"},{"astId":272774,"contract":"test/setup/Setup.sol:Setup","label":"baseFeeVault","offset":0,"slot":"23","type":"t_contract(IBaseFeeVault)2472"},{"astId":272784,"contract":"test/setup/Setup.sol:Setup","label":"sequencerFeeVault","offset":0,"slot":"24","type":"t_contract(ISequencerFeeVault)4095"},{"astId":272794,"contract":"test/setup/Setup.sol:Setup","label":"l1FeeVault","offset":0,"slot":"25","type":"t_contract(IL1FeeVault)3011"},{"astId":272801,"contract":"test/setup/Setup.sol:Setup","label":"gasPriceOracle","offset":0,"slot":"26","type":"t_contract(IGasPriceOracle)2645"},{"astId":272808,"contract":"test/setup/Setup.sol:Setup","label":"l1Block","offset":0,"slot":"27","type":"t_contract(IL1Block)2760"},{"astId":272815,"contract":"test/setup/Setup.sol:Setup","label":"governanceToken","offset":0,"slot":"28","type":"t_contract(IGovernanceToken)6700"},{"astId":272822,"contract":"test/setup/Setup.sol:Setup","label":"legacyMessagePasser","offset":0,"slot":"29","type":"t_contract(ILegacyMessagePasser)6970"},{"astId":272832,"contract":"test/setup/Setup.sol:Setup","label":"weth","offset":0,"slot":"30","type":"t_contract(IWETH98)8561"},{"astId":272842,"contract":"test/setup/Setup.sol:Setup","label":"superchainWeth","offset":0,"slot":"31","type":"t_contract(ISuperchainWETH)4271"},{"astId":272849,"contract":"test/setup/Setup.sol:Setup","label":"ethLiquidity","offset":0,"slot":"32","type":"t_contract(IETHLiquidity)2547"},{"astId":272856,"contract":"test/setup/Setup.sol:Setup","label":"superchainTokenBridge","offset":0,"slot":"33","type":"t_contract(ISuperchainTokenBridge)4190"},{"astId":272863,"contract":"test/setup/Setup.sol:Setup","label":"l2OptimismSuperchainERC20Factory","offset":0,"slot":"34","type":"t_contract(IOptimismSuperchainERC20Factory)4008"}],"types":{"t_contract(IAddressManager)6802":{"encoding":"inplace","label":"contract IAddressManager","numberOfBytes":"20"},"t_contract(IAnchorStateRegistry)4959":{"encoding":"inplace","label":"contract IAnchorStateRegistry","numberOfBytes":"20"},"t_contract(IBaseFeeVault)2472":{"encoding":"inplace","label":"contract IBaseFeeVault","numberOfBytes":"20"},"t_contract(IDataAvailabilityChallenge)232":{"encoding":"inplace","label":"contract IDataAvailabilityChallenge","numberOfBytes":"20"},"t_contract(IDelayedWETH)5195":{"encoding":"inplace","label":"contract IDelayedWETH","numberOfBytes":"20"},"t_contract(IDisputeGameFactory)5495":{"encoding":"inplace","label":"contract IDisputeGameFactory","numberOfBytes":"20"},"t_contract(IETHLiquidity)2547":{"encoding":"inplace","label":"contract IETHLiquidity","numberOfBytes":"20"},"t_contract(IFaultDisputeGame)5970":{"encoding":"inplace","label":"contract IFaultDisputeGame","numberOfBytes":"20"},"t_contract(IGasPriceOracle)2645":{"encoding":"inplace","label":"contract IGasPriceOracle","numberOfBytes":"20"},"t_contract(IGovernanceToken)6700":{"encoding":"inplace","label":"contract IGovernanceToken","numberOfBytes":"20"},"t_contract(IL1Block)2760":{"encoding":"inplace","label":"contract IL1Block","numberOfBytes":"20"},"t_contract(IL1CrossDomainMessenger)278":{"encoding":"inplace","label":"contract IL1CrossDomainMessenger","numberOfBytes":"20"},"t_contract(IL1ERC721Bridge)371":{"encoding":"inplace","label":"contract IL1ERC721Bridge","numberOfBytes":"20"},"t_contract(IL1FeeVault)3011":{"encoding":"inplace","label":"contract IL1FeeVault","numberOfBytes":"20"},"t_contract(IL1StandardBridge)528":{"encoding":"inplace","label":"contract IL1StandardBridge","numberOfBytes":"20"},"t_contract(IL2CrossDomainMessenger)3043":{"encoding":"inplace","label":"contract IL2CrossDomainMessenger","numberOfBytes":"20"},"t_contract(IL2ERC721Bridge)3078":{"encoding":"inplace","label":"contract IL2ERC721Bridge","numberOfBytes":"20"},"t_contract(IL2StandardBridgeInterop)3377":{"encoding":"inplace","label":"contract IL2StandardBridgeInterop","numberOfBytes":"20"},"t_contract(IL2ToL1MessagePasser)3440":{"encoding":"inplace","label":"contract IL2ToL1MessagePasser","numberOfBytes":"20"},"t_contract(ILegacyMessagePasser)6970":{"encoding":"inplace","label":"contract ILegacyMessagePasser","numberOfBytes":"20"},"t_contract(IOPContractsManager)957":{"encoding":"inplace","label":"contract IOPContractsManager","numberOfBytes":"20"},"t_contract(IOptimismMintableERC20Factory)7827":{"encoding":"inplace","label":"contract IOptimismMintableERC20Factory","numberOfBytes":"20"},"t_contract(IOptimismMintableERC721Factory)3902":{"encoding":"inplace","label":"contract IOptimismMintableERC721Factory","numberOfBytes":"20"},"t_contract(IOptimismPortal2)1307":{"encoding":"inplace","label":"contract IOptimismPortal2","numberOfBytes":"20"},"t_contract(IOptimismSuperchainERC20Factory)4008":{"encoding":"inplace","label":"contract IOptimismSuperchainERC20Factory","numberOfBytes":"20"},"t_contract(IPermissionedDisputeGame)6443":{"encoding":"inplace","label":"contract IPermissionedDisputeGame","numberOfBytes":"20"},"t_contract(IProtocolVersions)1730":{"encoding":"inplace","label":"contract IProtocolVersions","numberOfBytes":"20"},"t_contract(ISequencerFeeVault)4095":{"encoding":"inplace","label":"contract ISequencerFeeVault","numberOfBytes":"20"},"t_contract(ISuperchainConfig)1836":{"encoding":"inplace","label":"contract ISuperchainConfig","numberOfBytes":"20"},"t_contract(ISuperchainTokenBridge)4190":{"encoding":"inplace","label":"contract ISuperchainTokenBridge","numberOfBytes":"20"},"t_contract(ISuperchainWETH)4271":{"encoding":"inplace","label":"contract ISuperchainWETH","numberOfBytes":"20"},"t_contract(ISystemConfig)2116":{"encoding":"inplace","label":"contract ISystemConfig","numberOfBytes":"20"},"t_contract(IWETH98)8561":{"encoding":"inplace","label":"contract IWETH98","numberOfBytes":"20"},"t_enum(Fork)88300":{"encoding":"inplace","label":"enum Fork","numberOfBytes":"1"}}},"userdoc":{"version":1,"kind":"user","methods":{"artifacts()":{"notice":"The address of the Artifacts contract. Set into state by Deployer.setUp() with `etch` to avoid         mutating any nonces. MUST not have constructor logic."},"isForkTest()":{"notice":"Indicates whether a test is running against a forked production network."}}},"devdoc":{"version":1,"kind":"dev","details":"This contact is responsible for setting up the contracts in state. It currently      sets the L2 contracts directly at the predeploy addresses instead of setting them      up behind proxies. In the future we will migrate to importing the genesis JSON      file that is created to set up the L2 contracts instead of setting them up manually.","methods":{"L1()":{"details":"Sets up the L1 contracts."},"L2()":{"details":"Sets up the L2 contracts. Depends on `L1()` being called first."},"returnIfForkTest(string)":{"details":"Returns early when running against a forked production network. Useful for allowing a portion of a test      to run."},"setUp()":{"details":"Deploys either the Deploy.s.sol or Fork.s.sol contract, by fetching the bytecode dynamically using      `vm.getDeployedCode()` and etching it into the state.      This enables us to avoid including the bytecode of those contracts in the bytecode of this contract.      If the bytecode of those contracts was included in this contract, then it will double      the compile time and bloat all of the test contract artifacts since they      will also need to include the bytecode for the Deploy contract.      This is a hack as we are pushing solidity to the edge."},"skipIfCoverage()":{"details":"Skips tests when running in coverage mode."},"skipIfForkTest(string)":{"details":"Skips tests when running against a forked production network."},"skipIfOpsRepoTest(string)":{"details":"Skips tests when running against a forked production network using the superchain ops repo."}},"title":"Setup"},"id":441}