{"abi":[{"type":"function","name":"kevm","inputs":[],"outputs":[{"name":"","type":"address","internalType":"contract KontrolCheatsBase"}],"stateMutability":"view"},{"type":"function","name":"prove_finalizeBridgeERC20_paused","inputs":[{"name":"_localToken","type":"address","internalType":"address"},{"name":"_remoteToken","type":"address","internalType":"address"},{"name":"_from","type":"address","internalType":"address"},{"name":"_to","type":"address","internalType":"address"},{"name":"_amount","type":"uint256","internalType":"uint256"},{"name":"_extraData","type":"bytes","internalType":"bytes"}],"outputs":[],"stateMutability":"nonpayable"},{"type":"function","name":"prove_finalizeBridgeETH_paused","inputs":[{"name":"_from","type":"address","internalType":"address"},{"name":"_to","type":"address","internalType":"address"},{"name":"_amount","type":"uint256","internalType":"uint256"},{"name":"_extraData","type":"bytes","internalType":"bytes"}],"outputs":[],"stateMutability":"nonpayable"},{"type":"function","name":"setUpInlined","inputs":[],"outputs":[],"stateMutability":"nonpayable"}],"bytecode":{"object":"0x608060405234801561001057600080fd5b506111bf806100206000396000f3fe608060405234801561001057600080fd5b506004361061004c5760003560e01c80630e68d8ab146100515780633268fab5146100665780638fe30c6914610079578063d6a2ec76146100d2575b600080fd5b61006461005f366004610edc565b610122565b005b610064610074366004610f4f565b6107c5565b6003546005805473ffffffffffffffffffffffffffffffffffffffff9283167fffffffffffffffffffffffff00000000000000000000000000000000000000009182161790915560015460068054919093169116179055005b6100f97f885cb69240a935d632d79c317109709ecfa91a80626ff3989d68f67f5b1dd12d81565b60405173ffffffffffffffffffffffffffffffffffffffff909116815260200160405180910390f35b600354600580547fffffffffffffffffffffffff000000000000000000000000000000000000000090811673ffffffffffffffffffffffffffffffffffffffff938416179091556001546006805490921692169182179055604080517f452a93200000000000000000000000000000000000000000000000000000000081529051737109709ecfa91a80626ff3989d68f67f5b1dd12d9263ca669fa792909163452a9320916004808201926020929091908290030181865afa1580156101ec573d6000803e3d6000fd5b505050506040513d601f19601f820116820180604052508101906102109190610fe7565b6040517fffffffff0000000000000000000000000000000000000000000000000000000060e084901b16815273ffffffffffffffffffffffffffffffffffffffff9091166004820152602401600060405180830381600087803b15801561027657600080fd5b505af115801561028a573d6000803e3d6000fd5b50506006546040517f6da6635500000000000000000000000000000000000000000000000000000000815260206004820152600a60248201527f6964656e74696669657200000000000000000000000000000000000000000000604482015273ffffffffffffffffffffffffffffffffffffffff9091169250636da663559150606401600060405180830381600087803b15801561032757600080fd5b505af115801561033b573d6000803e3d6000fd5b5050600554604080517f3cb747bf0000000000000000000000000000000000000000000000000000000081529051737109709ecfa91a80626ff3989d68f67f5b1dd12d945063b96213e4935073ffffffffffffffffffffffffffffffffffffffff90921691633cb747bf916004808201926020929091908290030181865afa1580156103cb573d6000803e3d6000fd5b505050506040513d601f19601f820116820180604052508101906103ef9190610fe7565b604080516004808252602482018352602080830180517bffffffffffffffffffffffffffffffffffffffffffffffffffffffff167f6e296e450000000000000000000000000000000000000000000000000000000017905260055484517fc89701a20000000000000000000000000000000000000000000000000000000081529451939473ffffffffffffffffffffffffffffffffffffffff9091169363c89701a29382810193928290030181865afa1580156104b0573d6000803e3d6000fd5b505050506040513d601f19601f820116820180604052508101906104d49190610fe7565b6040805173ffffffffffffffffffffffffffffffffffffffff9092166020830152016040516020818303038152906040526040518463ffffffff1660e01b815260040161052393929190611076565b600060405180830381600087803b15801561053d57600080fd5b505af1158015610551573d6000803e3d6000fd5b5050600554604080517f3cb747bf0000000000000000000000000000000000000000000000000000000081529051737109709ecfa91a80626ff3989d68f67f5b1dd12d945063ca669fa7935073ffffffffffffffffffffffffffffffffffffffff90921691633cb747bf916004808201926020929091908290030181865afa1580156105e1573d6000803e3d6000fd5b505050506040513d601f19601f820116820180604052508101906106059190610fe7565b6040517fffffffff0000000000000000000000000000000000000000000000000000000060e084901b16815273ffffffffffffffffffffffffffffffffffffffff9091166004820152602401600060405180830381600087803b15801561066b57600080fd5b505af115801561067f573d6000803e3d6000fd5b50506040517ff28dceb300000000000000000000000000000000000000000000000000000000815260206004820152601660248201527f5374616e646172644272696467653a20706175736564000000000000000000006044820152737109709ecfa91a80626ff3989d68f67f5b1dd12d925063f28dceb39150606401600060405180830381600087803b15801561071657600080fd5b505af115801561072a573d6000803e3d6000fd5b50506005546040517f1635f5fd00000000000000000000000000000000000000000000000000000000815273ffffffffffffffffffffffffffffffffffffffff9091169250631635f5fd915061078c908890889088908890889060040161110a565b600060405180830381600087803b1580156107a657600080fd5b505af11580156107ba573d6000803e3d6000fd5b505050505050505050565b600354600580547fffffffffffffffffffffffff000000000000000000000000000000000000000090811673ffffffffffffffffffffffffffffffffffffffff938416179091556001546006805490921692169182179055604080517f452a93200000000000000000000000000000000000000000000000000000000081529051737109709ecfa91a80626ff3989d68f67f5b1dd12d9263ca669fa792909163452a9320916004808201926020929091908290030181865afa15801561088f573d6000803e3d6000fd5b505050506040513d601f19601f820116820180604052508101906108b39190610fe7565b6040517fffffffff0000000000000000000000000000000000000000000000000000000060e084901b16815273ffffffffffffffffffffffffffffffffffffffff9091166004820152602401600060405180830381600087803b15801561091957600080fd5b505af115801561092d573d6000803e3d6000fd5b50506006546040517f6da6635500000000000000000000000000000000000000000000000000000000815260206004820152600a60248201527f6964656e74696669657200000000000000000000000000000000000000000000604482015273ffffffffffffffffffffffffffffffffffffffff9091169250636da663559150606401600060405180830381600087803b1580156109ca57600080fd5b505af11580156109de573d6000803e3d6000fd5b5050600554604080517f3cb747bf0000000000000000000000000000000000000000000000000000000081529051737109709ecfa91a80626ff3989d68f67f5b1dd12d945063b96213e4935073ffffffffffffffffffffffffffffffffffffffff90921691633cb747bf916004808201926020929091908290030181865afa158015610a6e573d6000803e3d6000fd5b505050506040513d601f19601f82011682018060405250810190610a929190610fe7565b604080516004808252602482018352602080830180517bffffffffffffffffffffffffffffffffffffffffffffffffffffffff167f6e296e450000000000000000000000000000000000000000000000000000000017905260055484517fc89701a20000000000000000000000000000000000000000000000000000000081529451939473ffffffffffffffffffffffffffffffffffffffff9091169363c89701a29382810193928290030181865afa158015610b53573d6000803e3d6000fd5b505050506040513d601f19601f82011682018060405250810190610b779190610fe7565b6040805173ffffffffffffffffffffffffffffffffffffffff9092166020830152016040516020818303038152906040526040518463ffffffff1660e01b8152600401610bc693929190611076565b600060405180830381600087803b158015610be057600080fd5b505af1158015610bf4573d6000803e3d6000fd5b5050600554604080517f3cb747bf0000000000000000000000000000000000000000000000000000000081529051737109709ecfa91a80626ff3989d68f67f5b1dd12d945063ca669fa7935073ffffffffffffffffffffffffffffffffffffffff90921691633cb747bf916004808201926020929091908290030181865afa158015610c84573d6000803e3d6000fd5b505050506040513d601f19601f82011682018060405250810190610ca89190610fe7565b6040517fffffffff0000000000000000000000000000000000000000000000000000000060e084901b16815273ffffffffffffffffffffffffffffffffffffffff9091166004820152602401600060405180830381600087803b158015610d0e57600080fd5b505af1158015610d22573d6000803e3d6000fd5b50506040517ff28dceb300000000000000000000000000000000000000000000000000000000815260206004820152601660248201527f5374616e646172644272696467653a20706175736564000000000000000000006044820152737109709ecfa91a80626ff3989d68f67f5b1dd12d925063f28dceb39150606401600060405180830381600087803b158015610db957600080fd5b505af1158015610dcd573d6000803e3d6000fd5b50506005546040517f0166a07a00000000000000000000000000000000000000000000000000000000815273ffffffffffffffffffffffffffffffffffffffff9091169250630166a07a9150610e33908a908a908a908a908a908a908a90600401611155565b600060405180830381600087803b158015610e4d57600080fd5b505af1158015610e61573d6000803e3d6000fd5b5050505050505050505050565b73ffffffffffffffffffffffffffffffffffffffff81168114610e9057600080fd5b50565b60008083601f840112610ea557600080fd5b50813567ffffffffffffffff811115610ebd57600080fd5b602083019150836020828501011115610ed557600080fd5b9250929050565b600080600080600060808688031215610ef457600080fd5b8535610eff81610e6e565b94506020860135610f0f81610e6e565b935060408601359250606086013567ffffffffffffffff811115610f3257600080fd5b610f3e88828901610e93565b969995985093965092949392505050565b600080600080600080600060c0888a031215610f6a57600080fd5b8735610f7581610e6e565b96506020880135610f8581610e6e565b95506040880135610f9581610e6e565b94506060880135610fa581610e6e565b93506080880135925060a088013567ffffffffffffffff811115610fc857600080fd5b610fd48a828b01610e93565b989b979a50959850939692959293505050565b600060208284031215610ff957600080fd5b815161100481610e6e565b9392505050565b6000815180845260005b8181101561103157602081850181015186830182015201611015565b81811115611043576000602083870101525b50601f017fffffffffffffffffffffffffffffffffffffffffffffffffffffffffffffffe0169290920160200192915050565b73ffffffffffffffffffffffffffffffffffffffff841681526060602082015260006110a5606083018561100b565b82810360408401526110b7818561100b565b9695505050505050565b8183528181602085013750600060208284010152600060207fffffffffffffffffffffffffffffffffffffffffffffffffffffffffffffffe0601f840116840101905092915050565b600073ffffffffffffffffffffffffffffffffffffffff80881683528087166020840152508460408301526080606083015261114a6080830184866110c1565b979650505050505050565b600073ffffffffffffffffffffffffffffffffffffffff808a1683528089166020840152808816604084015280871660608401525084608083015260c060a08301526111a560c0830184866110c1565b999850505050505050505056fea164736f6c634300080f000a","linkReferences":{}},"methodIdentifiers":{"kevm()":"d6a2ec76","prove_finalizeBridgeERC20_paused(address,address,address,address,uint256,bytes)":"3268fab5","prove_finalizeBridgeETH_paused(address,address,uint256,bytes)":"0e68d8ab","setUpInlined()":"8fe30c69"},"storageLayout":{"storage":[{"astId":229788,"contract":"test/kontrol/proofs/L1StandardBridge.k.sol:L1StandardBridgeKontrol","label":"l1CrossDomainMessengerProxyAddress","offset":0,"slot":"0","type":"t_address"},{"astId":229790,"contract":"test/kontrol/proofs/L1StandardBridge.k.sol:L1StandardBridgeKontrol","label":"superchainConfigProxyAddress","offset":0,"slot":"1","type":"t_address"},{"astId":229792,"contract":"test/kontrol/proofs/L1StandardBridge.k.sol:L1StandardBridgeKontrol","label":"l1ERC721BridgeProxyAddress","offset":0,"slot":"2","type":"t_address"},{"astId":229794,"contract":"test/kontrol/proofs/L1StandardBridge.k.sol:L1StandardBridgeKontrol","label":"l1StandardBridgeProxyAddress","offset":0,"slot":"3","type":"t_address"},{"astId":229796,"contract":"test/kontrol/proofs/L1StandardBridge.k.sol:L1StandardBridgeKontrol","label":"optimismPortalProxyAddress","offset":0,"slot":"4","type":"t_address"},{"astId":229177,"contract":"test/kontrol/proofs/L1StandardBridge.k.sol:L1StandardBridgeKontrol","label":"l1standardBridge","offset":0,"slot":"5","type":"t_contract(IL1StandardBridge)528"},{"astId":229180,"contract":"test/kontrol/proofs/L1StandardBridge.k.sol:L1StandardBridgeKontrol","label":"superchainConfig","offset":0,"slot":"6","type":"t_contract(ISuperchainConfig)1836"}],"types":{"t_address":{"encoding":"inplace","label":"address","numberOfBytes":"20"},"t_contract(IL1StandardBridge)528":{"encoding":"inplace","label":"contract IL1StandardBridge","numberOfBytes":"20"},"t_contract(ISuperchainConfig)1836":{"encoding":"inplace","label":"contract ISuperchainConfig","numberOfBytes":"20"}}},"userdoc":{"version":1,"kind":"user"},"devdoc":{"version":1,"kind":"dev"},"id":379}