{"abi":[{"type":"function","name":"crossDomainMessageContext","inputs":[],"outputs":[{"name":"sender_","type":"address","internalType":"address"},{"name":"source_","type":"uint256","internalType":"uint256"}],"stateMutability":"view"},{"type":"function","name":"crossDomainMessageSender","inputs":[],"outputs":[{"name":"sender_","type":"address","internalType":"address"}],"stateMutability":"view"},{"type":"function","name":"crossDomainMessageSource","inputs":[],"outputs":[{"name":"source_","type":"uint256","internalType":"uint256"}],"stateMutability":"view"},{"type":"function","name":"messageNonce","inputs":[],"outputs":[{"name":"","type":"uint256","internalType":"uint256"}],"stateMutability":"view"},{"type":"function","name":"messageVersion","inputs":[],"outputs":[{"name":"","type":"uint16","internalType":"uint16"}],"stateMutability":"view"},{"type":"function","name":"relayMessage","inputs":[{"name":"_id","type":"tuple","internalType":"struct Identifier","components":[{"name":"origin","type":"address","internalType":"address"},{"name":"blockNumber","type":"uint256","internalType":"uint256"},{"name":"logIndex","type":"uint256","internalType":"uint256"},{"name":"timestamp","type":"uint256","internalType":"uint256"},{"name":"chainId","type":"uint256","internalType":"uint256"}]},{"name":"_sentMessage","type":"bytes","internalType":"bytes"}],"outputs":[{"name":"returnData_","type":"bytes","internalType":"bytes"}],"stateMutability":"payable"},{"type":"function","name":"sendMessage","inputs":[{"name":"_destination","type":"uint256","internalType":"uint256"},{"name":"_target","type":"address","internalType":"address"},{"name":"_message","type":"bytes","internalType":"bytes"}],"outputs":[{"name":"","type":"bytes32","internalType":"bytes32"}],"stateMutability":"nonpayable"},{"type":"function","name":"successfulMessages","inputs":[{"name":"","type":"bytes32","internalType":"bytes32"}],"outputs":[{"name":"","type":"bool","internalType":"bool"}],"stateMutability":"view"},{"type":"function","name":"version","inputs":[],"outputs":[{"name":"","type":"string","internalType":"string"}],"stateMutability":"view"},{"type":"event","name":"RelayedMessage","inputs":[{"name":"source","type":"uint256","indexed":true,"internalType":"uint256"},{"name":"messageNonce","type":"uint256","indexed":true,"internalType":"uint256"},{"name":"messageHash","type":"bytes32","indexed":true,"internalType":"bytes32"}],"anonymous":false},{"type":"event","name":"SentMessage","inputs":[{"name":"destination","type":"uint256","indexed":true,"internalType":"uint256"},{"name":"target","type":"address","indexed":true,"internalType":"address"},{"name":"messageNonce","type":"uint256","indexed":true,"internalType":"uint256"},{"name":"sender","type":"address","indexed":false,"internalType":"address"},{"name":"message","type":"bytes","indexed":false,"internalType":"bytes"}],"anonymous":false},{"type":"error","name":"EventPayloadNotSentMessage","inputs":[]},{"type":"error","name":"IdOriginNotL2ToL2CrossDomainMessenger","inputs":[]},{"type":"error","name":"InvalidChainId","inputs":[]},{"type":"error","name":"MessageAlreadyRelayed","inputs":[]},{"type":"error","name":"MessageDestinationNotRelayChain","inputs":[]},{"type":"error","name":"MessageDestinationSameChain","inputs":[]},{"type":"error","name":"MessageTargetCrossL2Inbox","inputs":[]},{"type":"error","name":"MessageTargetL2ToL2CrossDomainMessenger","inputs":[]},{"type":"error","name":"NotEntered","inputs":[]},{"type":"error","name":"ReentrantCall","inputs":[]},{"type":"error","name":"TargetCallFailed","inputs":[]}],"bytecode":{"object":"0x6080604052348015600e575f80fd5b506111c18061001c5f395ff3fe608060405260043610610093575f3560e01c80637056f41f116100665780638d1d298f1161004c5780638d1d298f146101d1578063b1b1b209146101e4578063ecc7042814610222575f80fd5b80637056f41f146101725780637936cbee14610191575f80fd5b8063247944621461009757806338ffde18146100be57806352617f3c146100f757806354fd4d501461011d575b5f80fd5b3480156100a2575f80fd5b506100ab610256565b6040519081526020015b60405180910390f35b3480156100c9575f80fd5b506100d26102d5565b60405173ffffffffffffffffffffffffffffffffffffffff90911681526020016100b5565b348015610102575f80fd5b5061010a5f81565b60405161ffff90911681526020016100b5565b348015610128575f80fd5b506101656040518060400160405280600d81526020017f312e302e302d626574612e31340000000000000000000000000000000000000081525081565b6040516100b59190610d30565b34801561017d575f80fd5b506100ab61018c366004610db2565b610354565b34801561019c575f80fd5b506101a561067c565b6040805173ffffffffffffffffffffffffffffffffffffffff90931683526020830191909152016100b5565b6101656101df366004610e0a565b610720565b3480156101ef575f80fd5b506102126101fe366004610e60565b5f6020819052908152604090205460ff1681565b60405190151581526020016100b5565b34801561022d575f80fd5b506001547dffffffffffffffffffffffffffffffffffffffffffffffffffffffffffff166100ab565b5f7ff13569814868ede994184d5a425471fb19e869768a33421cb701a2ba3d420c0a5c6102af576040517fbca35af600000000000000000000000000000000000000000000000000000000815260040160405180910390fd5b507f711dfa3259c842fffc17d6e1f1e0fc5927756133a2345ca56b4cb8178589fee75c90565b5f7ff13569814868ede994184d5a425471fb19e869768a33421cb701a2ba3d420c0a5c61032e576040517fbca35af600000000000000000000000000000000000000000000000000000000815260040160405180910390fd5b507fb83444d07072b122e2e72a669ce32857d892345c19856f4e7142d06a167ab3f35c90565b5f46850361038e576040517f8ed9a95d00000000000000000000000000000000000000000000000000000000815260040160405180910390fd5b7fffffffffffffffffffffffffbdffffffffffffffffffffffffffffffffffffde73ffffffffffffffffffffffffffffffffffffffff8516016103fd576040517fa9040b1200000000000000000000000000000000000000000000000000000000815260040160405180910390fd5b7fffffffffffffffffffffffffbdffffffffffffffffffffffffffffffffffffdd73ffffffffffffffffffffffffffffffffffffffff85160161046c576040517f4faa250900000000000000000000000000000000000000000000000000000000815260040160405180910390fd5b6040517fe38bbc32000000000000000000000000000000000000000000000000000000008152600481018690527342000000000000000000000000000000000000159063e38bbc3290602401602060405180830381865afa1580156104d3573d5f803e3d5ffd5b505050506040513d601f19601f820116820180604052508101906104f79190610e77565b61052d576040517f7a47c9a200000000000000000000000000000000000000000000000000000000815260040160405180910390fd5b5f6105576001547dffffffffffffffffffffffffffffffffffffffffffffffffffffffffffff1690565b9050808573ffffffffffffffffffffffffffffffffffffffff16877f382409ac69001e11931a28435afef442cbfd20d9891907e8fa373ba7d351f3203388886040516105a593929190610e96565b60405180910390a4600180547dffffffffffffffffffffffffffffffffffffffffffffffffffffffffffff16905f6105dc83610eff565b91906101000a8154817dffffffffffffffffffffffffffffffffffffffffffffffffffffffffffff02191690837dffffffffffffffffffffffffffffffffffffffffffffffffffffffffffff16021790555050610672864683338989898080601f0160208091040260200160405190810160405280939291908181526020018383808284375f92019190915250610b9392505050565b9695505050505050565b5f807ff13569814868ede994184d5a425471fb19e869768a33421cb701a2ba3d420c0a5c6106d6576040517fbca35af600000000000000000000000000000000000000000000000000000000815260040160405180910390fd5b50507fb83444d07072b122e2e72a669ce32857d892345c19856f4e7142d06a167ab3f35c907f711dfa3259c842fffc17d6e1f1e0fc5927756133a2345ca56b4cb8178589fee75c90565b60607ff13569814868ede994184d5a425471fb19e869768a33421cb701a2ba3d420c0a5c1561077b576040517f37ed32e800000000000000000000000000000000000000000000000000000000815260040160405180910390fd5b60017ff13569814868ede994184d5a425471fb19e869768a33421cb701a2ba3d420c0a5d7342000000000000000000000000000000000000236107c16020860186610f60565b73ffffffffffffffffffffffffffffffffffffffff161461080e576040517f7987c15700000000000000000000000000000000000000000000000000000000815260040160405180910390fd5b73420000000000000000000000000000000000002273ffffffffffffffffffffffffffffffffffffffff1663ab4d6f7585858560405161084f929190610f7b565b6040519081900381207fffffffff0000000000000000000000000000000000000000000000000000000060e085901b16825261088e9291600401610f8a565b5f604051808303815f87803b1580156108a5575f80fd5b505af11580156108b7573d5f803e3d5ffd5b505050505f805f805f6108ca8888610bd1565b9450945094509450945046851461090d576040517f31ac221100000000000000000000000000000000000000000000000000000000815260040160405180910390fd5b7fffffffffffffffffffffffffbdffffffffffffffffffffffffffffffffffffde73ffffffffffffffffffffffffffffffffffffffff85160161097c576040517fa9040b1200000000000000000000000000000000000000000000000000000000815260040160405180910390fd5b7fffffffffffffffffffffffffbdffffffffffffffffffffffffffffffffffffdd73ffffffffffffffffffffffffffffffffffffffff8516016109eb576040517f4faa250900000000000000000000000000000000000000000000000000000000815260040160405180910390fd5b60808901355f6109ff878387878a88610b93565b5f8181526020819052604090205490915060ff1615610a4a576040517f9ca9480b00000000000000000000000000000000000000000000000000000000815260040160405180910390fd5b610a548285610c9a565b5f8673ffffffffffffffffffffffffffffffffffffffff163485604051610a7b9190610fe3565b5f6040518083038185875af1925050503d805f8114610ab5576040519150601f19603f3d011682016040523d82523d5f602084013e610aba565b606091505b509950905080610af6576040517feda8685000000000000000000000000000000000000000000000000000000000815260040160405180910390fd5b5f8281526020819052604080822080547fffffffffffffffffffffffffffffffffffffffffffffffffffffffffffffff00166001179055518391889186917f5948076590932b9d173029c7df03fe386e755a61c86c7fe2671011a2faa2a37991a4610b615f80610c9a565b50505050505050505f7ff13569814868ede994184d5a425471fb19e869768a33421cb701a2ba3d420c0a5d9392505050565b5f868686868686604051602001610baf96959493929190610ff9565b6040516020818303038152906040528051906020012090509695505050505050565b5f808080606081610be5602082898b61104f565b810190610bf29190610e60565b90507f382409ac69001e11931a28435afef442cbfd20d9891907e8fa373ba7d351f3208114610c4d576040517fdf1eb58600000000000000000000000000000000000000000000000000000000815260040160405180910390fd5b610c5b60806020898b61104f565b810190610c689190611076565b91975095509350610c7c876080818b61104f565b810190610c8991906110d8565b969995985093965092949392505050565b807fb83444d07072b122e2e72a669ce32857d892345c19856f4e7142d06a167ab3f35d817f711dfa3259c842fffc17d6e1f1e0fc5927756133a2345ca56b4cb8178589fee75d5050565b5f81518084528060208401602086015e5f6020828601015260207fffffffffffffffffffffffffffffffffffffffffffffffffffffffffffffffe0601f83011685010191505092915050565b602081525f610d426020830184610ce4565b9392505050565b73ffffffffffffffffffffffffffffffffffffffff81168114610d6a575f80fd5b50565b5f8083601f840112610d7d575f80fd5b50813567ffffffffffffffff811115610d94575f80fd5b602083019150836020828501011115610dab575f80fd5b9250929050565b5f805f8060608587031215610dc5575f80fd5b843593506020850135610dd781610d49565b9250604085013567ffffffffffffffff811115610df2575f80fd5b610dfe87828801610d6d565b95989497509550505050565b5f805f83850360c0811215610e1d575f80fd5b60a0811215610e2a575f80fd5b5083925060a084013567ffffffffffffffff811115610e47575f80fd5b610e5386828701610d6d565b9497909650939450505050565b5f60208284031215610e70575f80fd5b5035919050565b5f60208284031215610e87575f80fd5b81518015158114610d42575f80fd5b73ffffffffffffffffffffffffffffffffffffffff8416815260406020820152816040820152818360608301375f818301606090810191909152601f9092017fffffffffffffffffffffffffffffffffffffffffffffffffffffffffffffffe016010192915050565b5f7dffffffffffffffffffffffffffffffffffffffffffffffffffffffffffff808316818103610f56577f4e487b71000000000000000000000000000000000000000000000000000000005f52601160045260245ffd5b6001019392505050565b5f60208284031215610f70575f80fd5b8135610d4281610d49565b818382375f9101908152919050565b60c081018335610f9981610d49565b73ffffffffffffffffffffffffffffffffffffffff1682526020848101359083015260408085013590830152606080850135908301526080938401359382019390935260a0015290565b5f82518060208501845e5f920191825250919050565b8681528560208201528460408201525f73ffffffffffffffffffffffffffffffffffffffff808616606084015280851660808401525060c060a083015261104360c0830184610ce4565b98975050505050505050565b5f808585111561105d575f80fd5b83861115611069575f80fd5b5050820193919092039150565b5f805f60608486031215611088575f80fd5b83359250602084013561109a81610d49565b929592945050506040919091013590565b7f4e487b71000000000000000000000000000000000000000000000000000000005f52604160045260245ffd5b5f80604083850312156110e9575f80fd5b82356110f481610d49565b9150602083013567ffffffffffffffff80821115611110575f80fd5b818501915085601f830112611123575f80fd5b813581811115611135576111356110ab565b604051601f82017fffffffffffffffffffffffffffffffffffffffffffffffffffffffffffffffe0908116603f0116810190838211818310171561117b5761117b6110ab565b81604052828152886020848701011115611193575f80fd5b826020860160208301375f602084830101528095505050505050925092905056fea164736f6c6343000819000a","linkReferences":{}},"methodIdentifiers":{"crossDomainMessageContext()":"7936cbee","crossDomainMessageSender()":"38ffde18","crossDomainMessageSource()":"24794462","messageNonce()":"ecc70428","messageVersion()":"52617f3c","relayMessage((address,uint256,uint256,uint256,uint256),bytes)":"8d1d298f","sendMessage(uint256,address,bytes)":"7056f41f","successfulMessages(bytes32)":"b1b1b209","version()":"54fd4d50"},"storageLayout":{"storage":[{"astId":55304,"contract":"src/L2/L2ToL2CrossDomainMessenger.sol:L2ToL2CrossDomainMessenger","label":"successfulMessages","offset":0,"slot":"0","type":"t_mapping(t_bytes32,t_bool)"},{"astId":55307,"contract":"src/L2/L2ToL2CrossDomainMessenger.sol:L2ToL2CrossDomainMessenger","label":"msgNonce","offset":0,"slot":"1","type":"t_uint240"}],"types":{"t_bool":{"encoding":"inplace","label":"bool","numberOfBytes":"1"},"t_bytes32":{"encoding":"inplace","label":"bytes32","numberOfBytes":"32"},"t_mapping(t_bytes32,t_bool)":{"encoding":"mapping","key":"t_bytes32","label":"mapping(bytes32 => bool)","numberOfBytes":"32","value":"t_bool"},"t_uint240":{"encoding":"inplace","label":"uint240","numberOfBytes":"30"}}},"userdoc":{"version":1,"kind":"user","methods":{"crossDomainMessageContext()":{"notice":"Retrieves the context of the current cross domain message. If not entered, reverts."},"crossDomainMessageSender()":{"notice":"Retrieves the sender of the current cross domain message. If not entered, reverts."},"crossDomainMessageSource()":{"notice":"Retrieves the source of the current cross domain message. If not entered, reverts."},"messageNonce()":{"notice":"Retrieves the next message nonce. Message version will be added to the upper two bytes of the message         nonce. Message version allows us to treat messages as having different structures."},"messageVersion()":{"notice":"Current message version identifier."},"relayMessage((address,uint256,uint256,uint256,uint256),bytes)":{"notice":"Relays a message that was sent by the other L2ToL2CrossDomainMessenger contract. Can only be executed         via cross chain call from the other messenger OR if the message was already received once and is         currently being replayed."},"sendMessage(uint256,address,bytes)":{"notice":"Sends a message to some target address on a destination chain. Note that if the call always reverts,         then the message will be unrelayable and any ETH sent will be permanently locked. The same will occur         if the target on the other chain is considered unsafe (see the _isUnsafeTarget() function)."},"successfulMessages(bytes32)":{"notice":"Mapping of message hashes to boolean receipt values. Note that a message will only be present in this         mapping if it has successfully been relayed on this chain, and can therefore not be relayed again."},"version()":{"notice":"Semantic version."}},"events":{"RelayedMessage(uint256,uint256,bytes32)":{"notice":"Emitted whenever a message is successfully relayed on this chain."},"SentMessage(uint256,address,uint256,address,bytes)":{"notice":"Emitted whenever a message is sent to a destination"}},"errors":{"EventPayloadNotSentMessage()":[{"notice":"Thrown when the payload provided to the relay is not a SentMessage event."}],"IdOriginNotL2ToL2CrossDomainMessenger()":[{"notice":"Thrown when attempting to relay a message where payload origin is not L2ToL2CrossDomainMessenger."}],"InvalidChainId()":[{"notice":"Thrown when attempting to use a chain ID that is not in the dependency set."}],"MessageAlreadyRelayed()":[{"notice":"Thrown when attempting to relay a message that has already been relayed."}],"MessageDestinationNotRelayChain()":[{"notice":"Thrown when attempting to relay a message whose destination chain is not the chain relaying it."}],"MessageDestinationSameChain()":[{"notice":"Thrown when attempting to send a message to the chain that the message is being sent from."}],"MessageTargetCrossL2Inbox()":[{"notice":"Thrown when attempting to relay a message whose target is CrossL2Inbox."}],"MessageTargetL2ToL2CrossDomainMessenger()":[{"notice":"Thrown when attempting to relay a message whose target is L2ToL2CrossDomainMessenger."}],"NotEntered()":[{"notice":"Thrown when a non-written transient storage slot is attempted to be read from."}],"ReentrantCall()":[{"notice":"Thrown when a reentrant call is detected."}],"TargetCallFailed()":[{"notice":"Thrown when a call to the target contract during message relay fails."}]},"notice":"The L2ToL2CrossDomainMessenger is a higher level abstraction on top of the CrossL2Inbox that provides         features necessary for secure transfers ERC20 tokens between L2 chains. Messages sent through the         L2ToL2CrossDomainMessenger on the source chain receive both replay protection as well as domain binding."},"devdoc":{"version":1,"kind":"dev","methods":{"crossDomainMessageContext()":{"returns":{"sender_":"Address of the sender of the current cross domain message.","source_":"Chain ID of the source of the current cross domain message."}},"crossDomainMessageSender()":{"returns":{"sender_":"Address of the sender of the current cross domain message."}},"crossDomainMessageSource()":{"returns":{"source_":"Chain ID of the source of the current cross domain message."}},"messageNonce()":{"returns":{"_0":"Nonce of the next message to be sent, with added message version."}},"relayMessage((address,uint256,uint256,uint256,uint256),bytes)":{"params":{"_id":"Identifier of the SentMessage event to be relayed","_sentMessage":"Message payload of the `SentMessage` event"},"returns":{"returnData_":"Return data from the target contract call."}},"sendMessage(uint256,address,bytes)":{"params":{"_destination":"Chain ID of the destination chain.","_message":"Message payload to call target with.","_target":"Target contract or wallet address."},"returns":{"_0":"The hash of the message being sent, used to track whether the message has successfully been relayed."}}},"events":{"RelayedMessage(uint256,uint256,bytes32)":{"params":{"messageHash":"Hash of the message that was relayed.","messageNonce":"Nonce associated with the messsage sent","source":"Chain ID of the source chain."}},"SentMessage(uint256,address,uint256,address,bytes)":{"params":{"destination":"Chain ID of the destination chain.","message":"Message payload to call target with.","messageNonce":"Nonce associated with the messsage sent","sender":"Address initiating this message call","target":"Target contract or wallet address."}}},"title":"L2ToL2CrossDomainMessenger"},"id":95}