{"abi":[{"type":"function","name":"decodeScalarEcotone","inputs":[{"name":"_scalar","type":"bytes32","internalType":"bytes32"}],"outputs":[{"name":"","type":"uint32","internalType":"uint32"},{"name":"","type":"uint32","internalType":"uint32"}],"stateMutability":"nonpayable"},{"type":"function","name":"decodeVersionedNonce","inputs":[{"name":"nonce","type":"uint256","internalType":"uint256"}],"outputs":[{"name":"","type":"uint256","internalType":"uint256"},{"name":"","type":"uint256","internalType":"uint256"}],"stateMutability":"nonpayable"},{"type":"function","name":"encodeCrossDomainMessage","inputs":[{"name":"_nonce","type":"uint256","internalType":"uint256"},{"name":"_sender","type":"address","internalType":"address"},{"name":"_target","type":"address","internalType":"address"},{"name":"_value","type":"uint256","internalType":"uint256"},{"name":"_gasLimit","type":"uint256","internalType":"uint256"},{"name":"_data","type":"bytes","internalType":"bytes"}],"outputs":[{"name":"","type":"bytes","internalType":"bytes"}],"stateMutability":"nonpayable"},{"type":"function","name":"encodeDependency","inputs":[{"name":"_chainId","type":"uint256","internalType":"uint256"}],"outputs":[{"name":"","type":"bytes","internalType":"bytes"}],"stateMutability":"nonpayable"},{"type":"function","name":"encodeDepositTransaction","inputs":[{"name":"txn","type":"tuple","internalType":"struct Types.UserDepositTransaction","components":[{"name":"from","type":"address","internalType":"address"},{"name":"to","type":"address","internalType":"address"},{"name":"isCreation","type":"bool","internalType":"bool"},{"name":"value","type":"uint256","internalType":"uint256"},{"name":"mint","type":"uint256","internalType":"uint256"},{"name":"gasLimit","type":"uint64","internalType":"uint64"},{"name":"data","type":"bytes","internalType":"bytes"},{"name":"l1BlockHash","type":"bytes32","internalType":"bytes32"},{"name":"logIndex","type":"uint256","internalType":"uint256"}]}],"outputs":[{"name":"","type":"bytes","internalType":"bytes"}],"stateMutability":"nonpayable"},{"type":"function","name":"encodeGasPayingToken","inputs":[{"name":"_token","type":"address","internalType":"address"},{"name":"_decimals","type":"uint8","internalType":"uint8"},{"name":"_name","type":"bytes32","internalType":"bytes32"},{"name":"_symbol","type":"bytes32","internalType":"bytes32"}],"outputs":[{"name":"","type":"bytes","internalType":"bytes"}],"stateMutability":"nonpayable"},{"type":"function","name":"encodeScalarEcotone","inputs":[{"name":"_basefeeScalar","type":"uint32","internalType":"uint32"},{"name":"_blobbasefeeScalar","type":"uint32","internalType":"uint32"}],"outputs":[{"name":"","type":"bytes32","internalType":"bytes32"}],"stateMutability":"nonpayable"},{"type":"function","name":"getCannonMemory64Proof","inputs":[{"name":"addr","type":"uint64","internalType":"uint64"},{"name":"value","type":"uint64","internalType":"uint64"}],"outputs":[{"name":"","type":"bytes32","internalType":"bytes32"},{"name":"","type":"bytes","internalType":"bytes"}],"stateMutability":"nonpayable"},{"type":"function","name":"getCannonMemory64Proof","inputs":[{"name":"addr0","type":"uint64","internalType":"uint64"},{"name":"value0","type":"uint64","internalType":"uint64"},{"name":"addr1","type":"uint64","internalType":"uint64"},{"name":"value1","type":"uint64","internalType":"uint64"},{"name":"memAddr2","type":"uint64","internalType":"uint64"},{"name":"memVal2","type":"uint64","internalType":"uint64"}],"outputs":[{"name":"","type":"bytes32","internalType":"bytes32"},{"name":"","type":"bytes","internalType":"bytes"}],"stateMutability":"nonpayable"},{"type":"function","name":"getCannonMemory64Proof","inputs":[{"name":"addr0","type":"uint64","internalType":"uint64"},{"name":"value0","type":"uint64","internalType":"uint64"},{"name":"addr1","type":"uint64","internalType":"uint64"},{"name":"value1","type":"uint64","internalType":"uint64"}],"outputs":[{"name":"","type":"bytes32","internalType":"bytes32"},{"name":"","type":"bytes","internalType":"bytes"}],"stateMutability":"nonpayable"},{"type":"function","name":"getCannonMemory64Proof2","inputs":[{"name":"addr0","type":"uint64","internalType":"uint64"},{"name":"value0","type":"uint64","internalType":"uint64"},{"name":"addr1","type":"uint64","internalType":"uint64"},{"name":"value1","type":"uint64","internalType":"uint64"},{"name":"memAddrForProof","type":"uint64","internalType":"uint64"}],"outputs":[{"name":"","type":"bytes32","internalType":"bytes32"},{"name":"","type":"bytes","internalType":"bytes"}],"stateMutability":"nonpayable"},{"type":"function","name":"getCannonMemoryProof","inputs":[{"name":"pc","type":"uint32","internalType":"uint32"},{"name":"insn","type":"uint32","internalType":"uint32"},{"name":"memAddr","type":"uint32","internalType":"uint32"},{"name":"memVal","type":"uint32","internalType":"uint32"},{"name":"memAddr2","type":"uint32","internalType":"uint32"},{"name":"memVal2","type":"uint32","internalType":"uint32"}],"outputs":[{"name":"","type":"bytes32","internalType":"bytes32"},{"name":"","type":"bytes","internalType":"bytes"}],"stateMutability":"nonpayable"},{"type":"function","name":"getCannonMemoryProof","inputs":[{"name":"pc","type":"uint32","internalType":"uint32"},{"name":"insn","type":"uint32","internalType":"uint32"},{"name":"memAddr","type":"uint32","internalType":"uint32"},{"name":"memVal","type":"uint32","internalType":"uint32"}],"outputs":[{"name":"","type":"bytes32","internalType":"bytes32"},{"name":"","type":"bytes","internalType":"bytes"}],"stateMutability":"nonpayable"},{"type":"function","name":"getCannonMemoryProof","inputs":[{"name":"pc","type":"uint32","internalType":"uint32"},{"name":"insn","type":"uint32","internalType":"uint32"}],"outputs":[{"name":"","type":"bytes32","internalType":"bytes32"},{"name":"","type":"bytes","internalType":"bytes"}],"stateMutability":"nonpayable"},{"type":"function","name":"getCannonMemoryProof2","inputs":[{"name":"pc","type":"uint32","internalType":"uint32"},{"name":"insn","type":"uint32","internalType":"uint32"},{"name":"memAddr","type":"uint32","internalType":"uint32"},{"name":"memVal","type":"uint32","internalType":"uint32"},{"name":"memAddrForProof","type":"uint32","internalType":"uint32"}],"outputs":[{"name":"","type":"bytes32","internalType":"bytes32"},{"name":"","type":"bytes","internalType":"bytes"}],"stateMutability":"nonpayable"},{"type":"function","name":"getCannonMemoryProofWrongLeaf","inputs":[{"name":"pc","type":"uint32","internalType":"uint32"},{"name":"insn","type":"uint32","internalType":"uint32"},{"name":"memAddr","type":"uint32","internalType":"uint32"},{"name":"memVal","type":"uint32","internalType":"uint32"}],"outputs":[{"name":"","type":"bytes32","internalType":"bytes32"},{"name":"","type":"bytes","internalType":"bytes"}],"stateMutability":"nonpayable"},{"type":"function","name":"getMerkleTrieFuzzCase","inputs":[{"name":"variant","type":"string","internalType":"string"}],"outputs":[{"name":"","type":"bytes32","internalType":"bytes32"},{"name":"","type":"bytes","internalType":"bytes"},{"name":"","type":"bytes","internalType":"bytes"},{"name":"","type":"bytes[]","internalType":"bytes[]"}],"stateMutability":"nonpayable"},{"type":"function","name":"getProveWithdrawalTransactionInputs","inputs":[{"name":"_tx","type":"tuple","internalType":"struct Types.WithdrawalTransaction","components":[{"name":"nonce","type":"uint256","internalType":"uint256"},{"name":"sender","type":"address","internalType":"address"},{"name":"target","type":"address","internalType":"address"},{"name":"value","type":"uint256","internalType":"uint256"},{"name":"gasLimit","type":"uint256","internalType":"uint256"},{"name":"data","type":"bytes","internalType":"bytes"}]}],"outputs":[{"name":"","type":"bytes32","internalType":"bytes32"},{"name":"","type":"bytes32","internalType":"bytes32"},{"name":"","type":"bytes32","internalType":"bytes32"},{"name":"","type":"bytes32","internalType":"bytes32"},{"name":"","type":"bytes[]","internalType":"bytes[]"}],"stateMutability":"nonpayable"},{"type":"function","name":"hashCrossDomainMessage","inputs":[{"name":"_nonce","type":"uint256","internalType":"uint256"},{"name":"_sender","type":"address","internalType":"address"},{"name":"_target","type":"address","internalType":"address"},{"name":"_value","type":"uint256","internalType":"uint256"},{"name":"_gasLimit","type":"uint256","internalType":"uint256"},{"name":"_data","type":"bytes","internalType":"bytes"}],"outputs":[{"name":"","type":"bytes32","internalType":"bytes32"}],"stateMutability":"nonpayable"},{"type":"function","name":"hashDepositTransaction","inputs":[{"name":"_from","type":"address","internalType":"address"},{"name":"_to","type":"address","internalType":"address"},{"name":"_mint","type":"uint256","internalType":"uint256"},{"name":"_value","type":"uint256","internalType":"uint256"},{"name":"_gas","type":"uint64","internalType":"uint64"},{"name":"_data","type":"bytes","internalType":"bytes"},{"name":"_logIndex","type":"uint64","internalType":"uint64"}],"outputs":[{"name":"","type":"bytes32","internalType":"bytes32"}],"stateMutability":"nonpayable"},{"type":"function","name":"hashOutputRootProof","inputs":[{"name":"_version","type":"bytes32","internalType":"bytes32"},{"name":"_stateRoot","type":"bytes32","internalType":"bytes32"},{"name":"_messagePasserStorageRoot","type":"bytes32","internalType":"bytes32"},{"name":"_latestBlockhash","type":"bytes32","internalType":"bytes32"}],"outputs":[{"name":"","type":"bytes32","internalType":"bytes32"}],"stateMutability":"nonpayable"},{"type":"function","name":"hashWithdrawal","inputs":[{"name":"_nonce","type":"uint256","internalType":"uint256"},{"name":"_sender","type":"address","internalType":"address"},{"name":"_target","type":"address","internalType":"address"},{"name":"_value","type":"uint256","internalType":"uint256"},{"name":"_gasLimit","type":"uint256","internalType":"uint256"},{"name":"_data","type":"bytes","internalType":"bytes"}],"outputs":[{"name":"","type":"bytes32","internalType":"bytes32"}],"stateMutability":"nonpayable"},{"type":"error","name":"FfiFailed","inputs":[{"name":"","type":"string","internalType":"string"}]}],"bytecode":{"object":"0x608060405234801561001057600080fd5b5061633d80620000216000396000f3fe608060405234801561001057600080fd5b50600436106101815760003560e01c80637f26c48c116100d8578063b7bafd631161008c578063dcf5edef11610066578063dcf5edef14610370578063ee5c8e1d14610383578063fc6773921461039657600080fd5b8063b7bafd631461031a578063c040ff531461032d578063c21e88651461035d57600080fd5b80638ccece97116100bd5780638ccece97146102e157806392bcb236146102f4578063b53516691461030757600080fd5b80637f26c48c146102bb57806383dbaa03146102ce57600080fd5b8063498a3c021161013a5780636d4779ea116101145780636d4779ea146102725780636ddb2730146102855780637e577a1b1461029857600080fd5b8063498a3c0214610217578063526dc955146102375780635870f5131461025f57600080fd5b80632803164a1161016b5780632803164a146101d05780632a4621ea146101f157806342eb241d1461020457600080fd5b8062ec31a6146101865780631aac97c1146101ac575b600080fd5b610199610194366004615489565b6103a9565b6040519081526020015b60405180910390f35b6101bf6101ba366004615503565b6108b8565b6040516101a3959493929190615664565b6101e36101de3660046156a4565b610def565b6040516101a3929190615700565b6101e36101ff366004615719565b6111a9565b6101e36102123660046157b3565b61169b565b61022a610225366004615489565b611b05565b6040516101a39190615818565b61024a61024536600461582b565b612008565b604080519283526020830191909152016101a3565b6101e361026d366004615844565b6121e0565b6101e3610280366004615877565b61246b565b61022a61029336600461582b565b6128df565b6102ab6102a63660046158eb565b612ab4565b6040516101a39493929190615934565b6101e36102c93660046156a4565b612bdf565b6101e36102dc366004615973565b612cec565b6101996102ef3660046159ac565b612edb565b61022a610302366004615a3f565b6134ca565b6101e3610315366004615a89565b6138ae565b6101e3610328366004615afa565b613c6f565b61034061033b36600461582b565b613fa5565b6040805163ffffffff9384168152929091166020830152016101a3565b61019961036b366004615489565b61418b565b61019961037e366004615b4e565b614296565b610199610391366004615973565b614469565b61022a6103a4366004615b80565b6146de565b6040805160098082526101408201909252600091829190816020015b60608152602001906001900390816103c55790505090506040518060400160405280601581526020017f736372697074732f676f2d6666692f676f2d66666900000000000000000000008152508160008151811061042557610425615bbc565b6020026020010181905250604051806040016040528060048152602001633234b33360e11b8152508160018151811061046057610460615bbc565b60200260200101819052506040518060400160405280601681526020017f6861736843726f7373446f6d61696e4d65737361676500000000000000000000815250816002815181106104b4576104b4615bbc565b602090810291909101015260405163348051d760e11b815260048101899052737109709ecfa91a80626ff3989d68f67f5b1dd12d90636900a3ae90602401600060405180830381865afa15801561050f573d6000803e3d6000fd5b505050506040513d6000823e601f3d908101601f191682016040526105379190810190615c1b565b8160038151811061054a5761054a615bbc565b6020908102919091010152604051632b65311f60e11b815273ffffffffffffffffffffffffffffffffffffffff88166004820152737109709ecfa91a80626ff3989d68f67f5b1dd12d906356ca623e90602401600060405180830381865afa1580156105ba573d6000803e3d6000fd5b505050506040513d6000823e601f3d908101601f191682016040526105e29190810190615c1b565b816004815181106105f5576105f5615bbc565b6020908102919091010152604051632b65311f60e11b815273ffffffffffffffffffffffffffffffffffffffff87166004820152737109709ecfa91a80626ff3989d68f67f5b1dd12d906356ca623e90602401600060405180830381865afa158015610665573d6000803e3d6000fd5b505050506040513d6000823e601f3d908101601f1916820160405261068d9190810190615c1b565b816005815181106106a0576106a0615bbc565b602090810291909101015260405163348051d760e11b815260048101869052737109709ecfa91a80626ff3989d68f67f5b1dd12d90636900a3ae90602401600060405180830381865afa1580156106fb573d6000803e3d6000fd5b505050506040513d6000823e601f3d908101601f191682016040526107239190810190615c1b565b8160068151811061073657610736615bbc565b602090810291909101015260405163348051d760e11b815260048101859052737109709ecfa91a80626ff3989d68f67f5b1dd12d90636900a3ae90602401600060405180830381865afa158015610791573d6000803e3d6000fd5b505050506040513d6000823e601f3d908101601f191682016040526107b99190810190615c1b565b816007815181106107cc576107cc615bbc565b60209081029190910101526040517f71aad10d000000000000000000000000000000000000000000000000000000008152737109709ecfa91a80626ff3989d68f67f5b1dd12d906371aad10d90610827908690600401615818565b600060405180830381865afa158015610844573d6000803e3d6000fd5b505050506040513d6000823e601f3d908101601f1916820160405261086c9190810190615c1b565b8160088151811061087f5761087f615bbc565b6020026020010181905250600061089582614e6d565b9050808060200190518101906108ab9190615c64565b9998505050505050505050565b600080808060608160096040519080825280602002602001820160405280156108f557816020015b60608152602001906001900390816108e05790505b5090506040518060400160405280601581526020017f736372697074732f676f2d6666692f676f2d66666900000000000000000000008152508160008151811061094157610941615bbc565b6020026020010181905250604051806040016040528060048152602001633234b33360e11b8152508160018151811061097c5761097c615bbc565b602002602001018190525060405180606001604052806023815260200161630e60239139816002815181106109b3576109b3615bbc565b6020908102919091010152865160405163348051d760e11b81526004810191909152737109709ecfa91a80626ff3989d68f67f5b1dd12d90636900a3ae90602401600060405180830381865afa158015610a11573d6000803e3d6000fd5b505050506040513d6000823e601f3d908101601f19168201604052610a399190810190615c1b565b81600381518110610a4c57610a4c615bbc565b602090810291909101810191909152870151604051632b65311f60e11b815273ffffffffffffffffffffffffffffffffffffffff9091166004820152737109709ecfa91a80626ff3989d68f67f5b1dd12d906356ca623e90602401600060405180830381865afa158015610ac4573d6000803e3d6000fd5b505050506040513d6000823e601f3d908101601f19168201604052610aec9190810190615c1b565b81600481518110610aff57610aff615bbc565b60209081029190910101526040878101519051632b65311f60e11b815273ffffffffffffffffffffffffffffffffffffffff9091166004820152737109709ecfa91a80626ff3989d68f67f5b1dd12d906356ca623e90602401600060405180830381865afa158015610b75573d6000803e3d6000fd5b505050506040513d6000823e601f3d908101601f19168201604052610b9d9190810190615c1b565b81600581518110610bb057610bb0615bbc565b6020908102919091010152606087015160405163348051d760e11b81526004810191909152737109709ecfa91a80626ff3989d68f67f5b1dd12d90636900a3ae90602401600060405180830381865afa158015610c11573d6000803e3d6000fd5b505050506040513d6000823e601f3d908101601f19168201604052610c399190810190615c1b565b81600681518110610c4c57610c4c615bbc565b6020908102919091010152608087015160405163348051d760e11b81526004810191909152737109709ecfa91a80626ff3989d68f67f5b1dd12d90636900a3ae90602401600060405180830381865afa158015610cad573d6000803e3d6000fd5b505050506040513d6000823e601f3d908101601f19168201604052610cd59190810190615c1b565b81600781518110610ce857610ce8615bbc565b602090810291909101015260a08701516040517f71aad10d000000000000000000000000000000000000000000000000000000008152737109709ecfa91a80626ff3989d68f67f5b1dd12d916371aad10d91610d479190600401615818565b600060405180830381865afa158015610d64573d6000803e3d6000fd5b505050506040513d6000823e601f3d908101601f19168201604052610d8c9190810190615c1b565b81600881518110610d9f57610d9f615bbc565b60200260200101819052506000610db582614e6d565b9050600080600080600085806020019051810190610dd39190615d3c565b939f50919d509b50995097505050505050505091939590929450565b60408051600780825261010082019092526000916060918391816020015b6060815260200190600190039081610e0d5790505090506040518060400160405280601581526020017f736372697074732f676f2d6666692f676f2d666669000000000000000000000081525081600081518110610e6d57610e6d615bbc565b6020026020010181905250604051806040016040528060048152602001633234b33360e11b81525081600181518110610ea857610ea8615bbc565b60200260200101819052506040518060400160405280601a81526020017f63616e6e6f6e4d656d6f727950726f6f6657726f6e674c65616600000000000081525081600281518110610efc57610efc615bbc565b602090810291909101015260405163348051d760e11b815263ffffffff88166004820152737109709ecfa91a80626ff3989d68f67f5b1dd12d90636900a3ae90602401600060405180830381865afa158015610f5c573d6000803e3d6000fd5b505050506040513d6000823e601f3d908101601f19168201604052610f849190810190615c1b565b81600381518110610f9757610f97615bbc565b602090810291909101015260405163348051d760e11b815263ffffffff87166004820152737109709ecfa91a80626ff3989d68f67f5b1dd12d90636900a3ae90602401600060405180830381865afa158015610ff7573d6000803e3d6000fd5b505050506040513d6000823e601f3d908101601f1916820160405261101f9190810190615c1b565b8160048151811061103257611032615bbc565b602090810291909101015260405163348051d760e11b815263ffffffff86166004820152737109709ecfa91a80626ff3989d68f67f5b1dd12d90636900a3ae90602401600060405180830381865afa158015611092573d6000803e3d6000fd5b505050506040513d6000823e601f3d908101601f191682016040526110ba9190810190615c1b565b816005815181106110cd576110cd615bbc565b602090810291909101015260405163348051d760e11b815263ffffffff85166004820152737109709ecfa91a80626ff3989d68f67f5b1dd12d90636900a3ae906024015b600060405180830381865afa15801561112e573d6000803e3d6000fd5b505050506040513d6000823e601f3d908101601f191682016040526111569190810190615c1b565b8160068151811061116957611169615bbc565b6020026020010181905250600061117f82614e6d565b9050600080828060200190518101906111989190615da0565b909b909a5098505050505050505050565b60408051600980825261014082019092526000916060918391816020015b60608152602001906001900390816111c75790505090506040518060400160405280601581526020017f736372697074732f676f2d6666692f676f2d66666900000000000000000000008152508160008151811061122757611227615bbc565b6020026020010181905250604051806040016040528060048152602001633234b33360e11b8152508160018151811061126257611262615bbc565b60200260200101819052506040518060400160405280601181526020017f63616e6e6f6e4d656d6f727950726f6f66000000000000000000000000000000815250816002815181106112b6576112b6615bbc565b602090810291909101015260405163348051d760e11b815263ffffffff8a166004820152737109709ecfa91a80626ff3989d68f67f5b1dd12d90636900a3ae90602401600060405180830381865afa158015611316573d6000803e3d6000fd5b505050506040513d6000823e601f3d908101601f1916820160405261133e9190810190615c1b565b8160038151811061135157611351615bbc565b602090810291909101015260405163348051d760e11b815263ffffffff89166004820152737109709ecfa91a80626ff3989d68f67f5b1dd12d90636900a3ae90602401600060405180830381865afa1580156113b1573d6000803e3d6000fd5b505050506040513d6000823e601f3d908101601f191682016040526113d99190810190615c1b565b816004815181106113ec576113ec615bbc565b602090810291909101015260405163348051d760e11b815263ffffffff88166004820152737109709ecfa91a80626ff3989d68f67f5b1dd12d90636900a3ae90602401600060405180830381865afa15801561144c573d6000803e3d6000fd5b505050506040513d6000823e601f3d908101601f191682016040526114749190810190615c1b565b8160058151811061148757611487615bbc565b602090810291909101015260405163348051d760e11b815263ffffffff87166004820152737109709ecfa91a80626ff3989d68f67f5b1dd12d90636900a3ae90602401600060405180830381865afa1580156114e7573d6000803e3d6000fd5b505050506040513d6000823e601f3d908101601f1916820160405261150f9190810190615c1b565b8160068151811061152257611522615bbc565b602090810291909101015260405163348051d760e11b815263ffffffff86166004820152737109709ecfa91a80626ff3989d68f67f5b1dd12d90636900a3ae90602401600060405180830381865afa158015611582573d6000803e3d6000fd5b505050506040513d6000823e601f3d908101601f191682016040526115aa9190810190615c1b565b816007815181106115bd576115bd615bbc565b602090810291909101015260405163348051d760e11b815263ffffffff85166004820152737109709ecfa91a80626ff3989d68f67f5b1dd12d90636900a3ae906024015b600060405180830381865afa15801561161e573d6000803e3d6000fd5b505050506040513d6000823e601f3d908101601f191682016040526116469190810190615c1b565b8160088151811061165957611659615bbc565b6020026020010181905250600061166f82614e6d565b9050600080828060200190518101906116889190615da0565b909d909c509a5050505050505050505050565b60408051600880825261012082019092526000916060918391816020015b60608152602001906001900390816116b95790505090506040518060400160405280601e81526020017f736372697074732f676f2d6666692f676f2d6666692d63616e6e6f6e363400008152508160008151811061171957611719615bbc565b6020026020010181905250604051806040016040528060048152602001633234b33360e11b8152508160018151811061175457611754615bbc565b60200260200101819052506040518060400160405280601281526020017f63616e6e6f6e4d656d6f727950726f6f66320000000000000000000000000000815250816002815181106117a8576117a8615bbc565b602090810291909101015260405163348051d760e11b815267ffffffffffffffff89166004820152737109709ecfa91a80626ff3989d68f67f5b1dd12d90636900a3ae90602401600060405180830381865afa15801561180c573d6000803e3d6000fd5b505050506040513d6000823e601f3d908101601f191682016040526118349190810190615c1b565b8160038151811061184757611847615bbc565b602090810291909101015260405163348051d760e11b815267ffffffffffffffff88166004820152737109709ecfa91a80626ff3989d68f67f5b1dd12d90636900a3ae90602401600060405180830381865afa1580156118ab573d6000803e3d6000fd5b505050506040513d6000823e601f3d908101601f191682016040526118d39190810190615c1b565b816004815181106118e6576118e6615bbc565b602090810291909101015260405163348051d760e11b815267ffffffffffffffff87166004820152737109709ecfa91a80626ff3989d68f67f5b1dd12d90636900a3ae90602401600060405180830381865afa15801561194a573d6000803e3d6000fd5b505050506040513d6000823e601f3d908101601f191682016040526119729190810190615c1b565b8160058151811061198557611985615bbc565b602090810291909101015260405163348051d760e11b815267ffffffffffffffff86166004820152737109709ecfa91a80626ff3989d68f67f5b1dd12d90636900a3ae90602401600060405180830381865afa1580156119e9573d6000803e3d6000fd5b505050506040513d6000823e601f3d908101601f19168201604052611a119190810190615c1b565b81600681518110611a2457611a24615bbc565b602090810291909101015260405163348051d760e11b815267ffffffffffffffff85166004820152737109709ecfa91a80626ff3989d68f67f5b1dd12d90636900a3ae906024015b600060405180830381865afa158015611a89573d6000803e3d6000fd5b505050506040513d6000823e601f3d908101601f19168201604052611ab19190810190615c1b565b81600781518110611ac457611ac4615bbc565b60200260200101819052506000611ada82614e6d565b905060008082806020019051810190611af39190615da0565b909c909b509950505050505050505050565b604080516009808252610140820190925260609160009190816020015b6060815260200190600190039081611b225790505090506040518060400160405280601581526020017f736372697074732f676f2d6666692f676f2d666669000000000000000000000081525081600081518110611b8257611b82615bbc565b6020026020010181905250604051806040016040528060048152602001633234b33360e11b81525081600181518110611bbd57611bbd615bbc565b60200260200101819052506040518060400160405280601881526020017f656e636f646543726f7373446f6d61696e4d657373616765000000000000000081525081600281518110611c1157611c11615bbc565b602090810291909101015260405163348051d760e11b815260048101899052737109709ecfa91a80626ff3989d68f67f5b1dd12d90636900a3ae90602401600060405180830381865afa158015611c6c573d6000803e3d6000fd5b505050506040513d6000823e601f3d908101601f19168201604052611c949190810190615c1b565b81600381518110611ca757611ca7615bbc565b6020908102919091010152604051632b65311f60e11b815273ffffffffffffffffffffffffffffffffffffffff88166004820152737109709ecfa91a80626ff3989d68f67f5b1dd12d906356ca623e90602401600060405180830381865afa158015611d17573d6000803e3d6000fd5b505050506040513d6000823e601f3d908101601f19168201604052611d3f9190810190615c1b565b81600481518110611d5257611d52615bbc565b6020908102919091010152604051632b65311f60e11b815273ffffffffffffffffffffffffffffffffffffffff87166004820152737109709ecfa91a80626ff3989d68f67f5b1dd12d906356ca623e90602401600060405180830381865afa158015611dc2573d6000803e3d6000fd5b505050506040513d6000823e601f3d908101601f19168201604052611dea9190810190615c1b565b81600581518110611dfd57611dfd615bbc565b602090810291909101015260405163348051d760e11b815260048101869052737109709ecfa91a80626ff3989d68f67f5b1dd12d90636900a3ae90602401600060405180830381865afa158015611e58573d6000803e3d6000fd5b505050506040513d6000823e601f3d908101601f19168201604052611e809190810190615c1b565b81600681518110611e9357611e93615bbc565b602090810291909101015260405163348051d760e11b815260048101859052737109709ecfa91a80626ff3989d68f67f5b1dd12d90636900a3ae90602401600060405180830381865afa158015611eee573d6000803e3d6000fd5b505050506040513d6000823e601f3d908101601f19168201604052611f169190810190615c1b565b81600781518110611f2957611f29615bbc565b60209081029190910101526040517f71aad10d000000000000000000000000000000000000000000000000000000008152737109709ecfa91a80626ff3989d68f67f5b1dd12d906371aad10d90611f84908690600401615818565b600060405180830381865afa158015611fa1573d6000803e3d6000fd5b505050506040513d6000823e601f3d908101601f19168201604052611fc99190810190615c1b565b81600881518110611fdc57611fdc615bbc565b60200260200101819052506000611ff282614e6d565b9050808060200190518101906108ab9190615de7565b60408051600480825260a0820190925260009182918291816020015b60608152602001906001900390816120245790505090506040518060400160405280601581526020017f736372697074732f676f2d6666692f676f2d66666900000000000000000000008152508160008151811061208457612084615bbc565b6020026020010181905250604051806040016040528060048152602001633234b33360e11b815250816001815181106120bf576120bf615bbc565b60200260200101819052506040518060400160405280601481526020017f6465636f646556657273696f6e65644e6f6e63650000000000000000000000008152508160028151811061211357612113615bbc565b602090810291909101015260405163348051d760e11b815260048101859052737109709ecfa91a80626ff3989d68f67f5b1dd12d90636900a3ae90602401600060405180830381865afa15801561216e573d6000803e3d6000fd5b505050506040513d6000823e601f3d908101601f191682016040526121969190810190615c1b565b816003815181106121a9576121a9615bbc565b602002602001018190525060006121bf82614e6d565b9050808060200190518101906121d59190615e1c565b935093505050915091565b60408051600580825260c082019092526000916060918391816020015b60608152602001906001900390816121fd5790505090506040518060400160405280601e81526020017f736372697074732f676f2d6666692f676f2d6666692d63616e6e6f6e363400008152508160008151811061225d5761225d615bbc565b6020026020010181905250604051806040016040528060048152602001633234b33360e11b8152508160018151811061229857612298615bbc565b60200260200101819052506040518060400160405280601181526020017f63616e6e6f6e4d656d6f727950726f6f66000000000000000000000000000000815250816002815181106122ec576122ec615bbc565b602090810291909101015260405163348051d760e11b815267ffffffffffffffff86166004820152737109709ecfa91a80626ff3989d68f67f5b1dd12d90636900a3ae90602401600060405180830381865afa158015612350573d6000803e3d6000fd5b505050506040513d6000823e601f3d908101601f191682016040526123789190810190615c1b565b8160038151811061238b5761238b615bbc565b602090810291909101015260405163348051d760e11b815267ffffffffffffffff85166004820152737109709ecfa91a80626ff3989d68f67f5b1dd12d90636900a3ae906024015b600060405180830381865afa1580156123f0573d6000803e3d6000fd5b505050506040513d6000823e601f3d908101601f191682016040526124189190810190615c1b565b8160048151811061242b5761242b615bbc565b6020026020010181905250600061244182614e6d565b90506000808280602001905181019061245a9190615da0565b9096509450505050505b9250929050565b60408051600980825261014082019092526000916060918391816020015b60608152602001906001900390816124895790505090506040518060400160405280601e81526020017f736372697074732f676f2d6666692f676f2d6666692d63616e6e6f6e36340000815250816000815181106124e9576124e9615bbc565b6020026020010181905250604051806040016040528060048152602001633234b33360e11b8152508160018151811061252457612524615bbc565b60200260200101819052506040518060400160405280601181526020017f63616e6e6f6e4d656d6f727950726f6f660000000000000000000000000000008152508160028151811061257857612578615bbc565b602090810291909101015260405163348051d760e11b815267ffffffffffffffff8a166004820152737109709ecfa91a80626ff3989d68f67f5b1dd12d90636900a3ae90602401600060405180830381865afa1580156125dc573d6000803e3d6000fd5b505050506040513d6000823e601f3d908101601f191682016040526126049190810190615c1b565b8160038151811061261757612617615bbc565b602090810291909101015260405163348051d760e11b815267ffffffffffffffff89166004820152737109709ecfa91a80626ff3989d68f67f5b1dd12d90636900a3ae90602401600060405180830381865afa15801561267b573d6000803e3d6000fd5b505050506040513d6000823e601f3d908101601f191682016040526126a39190810190615c1b565b816004815181106126b6576126b6615bbc565b602090810291909101015260405163348051d760e11b815267ffffffffffffffff88166004820152737109709ecfa91a80626ff3989d68f67f5b1dd12d90636900a3ae90602401600060405180830381865afa15801561271a573d6000803e3d6000fd5b505050506040513d6000823e601f3d908101601f191682016040526127429190810190615c1b565b8160058151811061275557612755615bbc565b602090810291909101015260405163348051d760e11b815267ffffffffffffffff87166004820152737109709ecfa91a80626ff3989d68f67f5b1dd12d90636900a3ae90602401600060405180830381865afa1580156127b9573d6000803e3d6000fd5b505050506040513d6000823e601f3d908101601f191682016040526127e19190810190615c1b565b816006815181106127f4576127f4615bbc565b602090810291909101015260405163348051d760e11b815267ffffffffffffffff86166004820152737109709ecfa91a80626ff3989d68f67f5b1dd12d90636900a3ae90602401600060405180830381865afa158015612858573d6000803e3d6000fd5b505050506040513d6000823e601f3d908101601f191682016040526128809190810190615c1b565b8160078151811061289357612893615bbc565b602090810291909101015260405163348051d760e11b815267ffffffffffffffff85166004820152737109709ecfa91a80626ff3989d68f67f5b1dd12d90636900a3ae90602401611601565b60408051600480825260a0820190925260609160009190816020015b60608152602001906001900390816128fb5790505090506040518060400160405280601581526020017f736372697074732f676f2d6666692f676f2d66666900000000000000000000008152508160008151811061295b5761295b615bbc565b6020026020010181905250604051806040016040528060048152602001633234b33360e11b8152508160018151811061299657612996615bbc565b60200260200101819052506040518060400160405280601081526020017f656e636f6465446570656e64656e637900000000000000000000000000000000815250816002815181106129ea576129ea615bbc565b602090810291909101015260405163348051d760e11b815260048101849052737109709ecfa91a80626ff3989d68f67f5b1dd12d90636900a3ae90602401600060405180830381865afa158015612a45573d6000803e3d6000fd5b505050506040513d6000823e601f3d908101601f19168201604052612a6d9190810190615c1b565b81600381518110612a8057612a80615bbc565b60200260200101819052506000612a9682614e6d565b905080806020019051810190612aac9190615de7565b949350505050565b60408051600680825260e08201909252600091606091829182918591816020015b6060815260200190600190039081612ad55790505090506040518060400160405280601781526020017f2e2f736372697074732f676f2d6666692f676f2d66666900000000000000000081525081600081518110612b3557612b35615bbc565b60200260200101819052506040518060400160405280600481526020017f747269650000000000000000000000000000000000000000000000000000000081525081600181518110612b8957612b89615bbc565b60200260200101819052508581600281518110612ba857612ba8615bbc565b6020026020010181905250612bbc81614e6d565b806020019051810190612bcf9190615e40565b9450945094509450509193509193565b60408051600780825261010082019092526000916060918391816020015b6060815260200190600190039081612bfd5790505090506040518060400160405280601581526020017f736372697074732f676f2d6666692f676f2d666669000000000000000000000081525081600081518110612c5d57612c5d615bbc565b6020026020010181905250604051806040016040528060048152602001633234b33360e11b81525081600181518110612c9857612c98615bbc565b60200260200101819052506040518060400160405280601181526020017f63616e6e6f6e4d656d6f727950726f6f6600000000000000000000000000000081525081600281518110610efc57610efc615bbc565b60408051600580825260c082019092526000916060918391816020015b6060815260200190600190039081612d095790505090506040518060400160405280601581526020017f736372697074732f676f2d6666692f676f2d666669000000000000000000000081525081600081518110612d6957612d69615bbc565b6020026020010181905250604051806040016040528060048152602001633234b33360e11b81525081600181518110612da457612da4615bbc565b60200260200101819052506040518060400160405280601181526020017f63616e6e6f6e4d656d6f727950726f6f6600000000000000000000000000000081525081600281518110612df857612df8615bbc565b602090810291909101015260405163348051d760e11b815263ffffffff86166004820152737109709ecfa91a80626ff3989d68f67f5b1dd12d90636900a3ae90602401600060405180830381865afa158015612e58573d6000803e3d6000fd5b505050506040513d6000823e601f3d908101601f19168201604052612e809190810190615c1b565b81600381518110612e9357612e93615bbc565b602090810291909101015260405163348051d760e11b815263ffffffff85166004820152737109709ecfa91a80626ff3989d68f67f5b1dd12d90636900a3ae906024016123d3565b60408051600b8082526101808201909252600091829190816020015b6060815260200190600190039081612ef75790505090506040518060400160405280601581526020017f736372697074732f676f2d6666692f676f2d666669000000000000000000000081525081600081518110612f5757612f57615bbc565b6020026020010181905250604051806040016040528060048152602001633234b33360e11b81525081600181518110612f9257612f92615bbc565b60200260200101819052506040518060400160405280601681526020017f686173684465706f7369745472616e73616374696f6e0000000000000000000081525081600281518110612fe657612fe6615bbc565b60200260200101819052506040518060800160405280604281526020016162cc604291398160038151811061301d5761301d615bbc565b602090810291909101015260405163348051d760e11b815267ffffffffffffffff84166004820152737109709ecfa91a80626ff3989d68f67f5b1dd12d90636900a3ae90602401600060405180830381865afa158015613081573d6000803e3d6000fd5b505050506040513d6000823e601f3d908101601f191682016040526130a99190810190615c1b565b816004815181106130bc576130bc615bbc565b6020908102919091010152604051632b65311f60e11b815273ffffffffffffffffffffffffffffffffffffffff8a166004820152737109709ecfa91a80626ff3989d68f67f5b1dd12d906356ca623e90602401600060405180830381865afa15801561312c573d6000803e3d6000fd5b505050506040513d6000823e601f3d908101601f191682016040526131549190810190615c1b565b8160058151811061316757613167615bbc565b6020908102919091010152604051632b65311f60e11b815273ffffffffffffffffffffffffffffffffffffffff89166004820152737109709ecfa91a80626ff3989d68f67f5b1dd12d906356ca623e90602401600060405180830381865afa1580156131d7573d6000803e3d6000fd5b505050506040513d6000823e601f3d908101601f191682016040526131ff9190810190615c1b565b8160068151811061321257613212615bbc565b602090810291909101015260405163348051d760e11b815260048101889052737109709ecfa91a80626ff3989d68f67f5b1dd12d90636900a3ae90602401600060405180830381865afa15801561326d573d6000803e3d6000fd5b505050506040513d6000823e601f3d908101601f191682016040526132959190810190615c1b565b816007815181106132a8576132a8615bbc565b602090810291909101015260405163348051d760e11b815260048101879052737109709ecfa91a80626ff3989d68f67f5b1dd12d90636900a3ae90602401600060405180830381865afa158015613303573d6000803e3d6000fd5b505050506040513d6000823e601f3d908101601f1916820160405261332b9190810190615c1b565b8160088151811061333e5761333e615bbc565b602090810291909101015260405163348051d760e11b815267ffffffffffffffff86166004820152737109709ecfa91a80626ff3989d68f67f5b1dd12d90636900a3ae90602401600060405180830381865afa1580156133a2573d6000803e3d6000fd5b505050506040513d6000823e601f3d908101601f191682016040526133ca9190810190615c1b565b816009815181106133dd576133dd615bbc565b60209081029190910101526040517f71aad10d000000000000000000000000000000000000000000000000000000008152737109709ecfa91a80626ff3989d68f67f5b1dd12d906371aad10d90613438908790600401615818565b600060405180830381865afa158015613455573d6000803e3d6000fd5b505050506040513d6000823e601f3d908101601f1916820160405261347d9190810190615c1b565b81600a8151811061349057613490615bbc565b602002602001018190525060006134a682614e6d565b9050808060200190518101906134bc9190615c64565b9a9950505050505050505050565b604080516007808252610100820190925260609160009190816020015b60608152602001906001900390816134e75790505090506040518060400160405280601581526020017f736372697074732f676f2d6666692f676f2d66666900000000000000000000008152508160008151811061354757613547615bbc565b6020026020010181905250604051806040016040528060048152602001633234b33360e11b8152508160018151811061358257613582615bbc565b60200260200101819052506040518060400160405280601481526020017f656e636f6465476173506179696e67546f6b656e000000000000000000000000815250816002815181106135d6576135d6615bbc565b6020908102919091010152604051632b65311f60e11b815273ffffffffffffffffffffffffffffffffffffffff87166004820152737109709ecfa91a80626ff3989d68f67f5b1dd12d906356ca623e90602401600060405180830381865afa158015613646573d6000803e3d6000fd5b505050506040513d6000823e601f3d908101601f1916820160405261366e9190810190615c1b565b8160038151811061368157613681615bbc565b602090810291909101015260405163348051d760e11b815260ff86166004820152737109709ecfa91a80626ff3989d68f67f5b1dd12d90636900a3ae90602401600060405180830381865afa1580156136de573d6000803e3d6000fd5b505050506040513d6000823e601f3d908101601f191682016040526137069190810190615c1b565b8160048151811061371957613719615bbc565b60209081029190910101526040517fb11a19e800000000000000000000000000000000000000000000000000000000815260048101859052737109709ecfa91a80626ff3989d68f67f5b1dd12d9063b11a19e890602401600060405180830381865afa15801561378d573d6000803e3d6000fd5b505050506040513d6000823e601f3d908101601f191682016040526137b59190810190615c1b565b816005815181106137c8576137c8615bbc565b60209081029190910101526040517fb11a19e800000000000000000000000000000000000000000000000000000000815260048101849052737109709ecfa91a80626ff3989d68f67f5b1dd12d9063b11a19e890602401600060405180830381865afa15801561383c573d6000803e3d6000fd5b505050506040513d6000823e601f3d908101601f191682016040526138649190810190615c1b565b8160068151811061387757613877615bbc565b6020026020010181905250600061388d82614e6d565b9050808060200190518101906138a39190615de7565b979650505050505050565b60408051600880825261012082019092526000916060918391816020015b60608152602001906001900390816138cc5790505090506040518060400160405280601581526020017f736372697074732f676f2d6666692f676f2d66666900000000000000000000008152508160008151811061392c5761392c615bbc565b6020026020010181905250604051806040016040528060048152602001633234b33360e11b8152508160018151811061396757613967615bbc565b60200260200101819052506040518060400160405280601281526020017f63616e6e6f6e4d656d6f727950726f6f66320000000000000000000000000000815250816002815181106139bb576139bb615bbc565b602090810291909101015260405163348051d760e11b815263ffffffff89166004820152737109709ecfa91a80626ff3989d68f67f5b1dd12d90636900a3ae90602401600060405180830381865afa158015613a1b573d6000803e3d6000fd5b505050506040513d6000823e601f3d908101601f19168201604052613a439190810190615c1b565b81600381518110613a5657613a56615bbc565b602090810291909101015260405163348051d760e11b815263ffffffff88166004820152737109709ecfa91a80626ff3989d68f67f5b1dd12d90636900a3ae90602401600060405180830381865afa158015613ab6573d6000803e3d6000fd5b505050506040513d6000823e601f3d908101601f19168201604052613ade9190810190615c1b565b81600481518110613af157613af1615bbc565b602090810291909101015260405163348051d760e11b815263ffffffff87166004820152737109709ecfa91a80626ff3989d68f67f5b1dd12d90636900a3ae90602401600060405180830381865afa158015613b51573d6000803e3d6000fd5b505050506040513d6000823e601f3d908101601f19168201604052613b799190810190615c1b565b81600581518110613b8c57613b8c615bbc565b602090810291909101015260405163348051d760e11b815263ffffffff86166004820152737109709ecfa91a80626ff3989d68f67f5b1dd12d90636900a3ae90602401600060405180830381865afa158015613bec573d6000803e3d6000fd5b505050506040513d6000823e601f3d908101601f19168201604052613c149190810190615c1b565b81600681518110613c2757613c27615bbc565b602090810291909101015260405163348051d760e11b815263ffffffff85166004820152737109709ecfa91a80626ff3989d68f67f5b1dd12d90636900a3ae90602401611a6c565b60408051600780825261010082019092526000916060918391816020015b6060815260200190600190039081613c8d5790505090506040518060400160405280601e81526020017f736372697074732f676f2d6666692f676f2d6666692d63616e6e6f6e3634000081525081600081518110613ced57613ced615bbc565b6020026020010181905250604051806040016040528060048152602001633234b33360e11b81525081600181518110613d2857613d28615bbc565b60200260200101819052506040518060400160405280601181526020017f63616e6e6f6e4d656d6f727950726f6f6600000000000000000000000000000081525081600281518110613d7c57613d7c615bbc565b602090810291909101015260405163348051d760e11b815267ffffffffffffffff88166004820152737109709ecfa91a80626ff3989d68f67f5b1dd12d90636900a3ae90602401600060405180830381865afa158015613de0573d6000803e3d6000fd5b505050506040513d6000823e601f3d908101601f19168201604052613e089190810190615c1b565b81600381518110613e1b57613e1b615bbc565b602090810291909101015260405163348051d760e11b815267ffffffffffffffff87166004820152737109709ecfa91a80626ff3989d68f67f5b1dd12d90636900a3ae90602401600060405180830381865afa158015613e7f573d6000803e3d6000fd5b505050506040513d6000823e601f3d908101601f19168201604052613ea79190810190615c1b565b81600481518110613eba57613eba615bbc565b602090810291909101015260405163348051d760e11b815267ffffffffffffffff86166004820152737109709ecfa91a80626ff3989d68f67f5b1dd12d90636900a3ae90602401600060405180830381865afa158015613f1e573d6000803e3d6000fd5b505050506040513d6000823e601f3d908101601f19168201604052613f469190810190615c1b565b81600581518110613f5957613f59615bbc565b602090810291909101015260405163348051d760e11b815267ffffffffffffffff85166004820152737109709ecfa91a80626ff3989d68f67f5b1dd12d90636900a3ae90602401611111565b60408051600480825260a0820190925260009182918291816020015b6060815260200190600190039081613fc15790505090506040518060400160405280601581526020017f736372697074732f676f2d6666692f676f2d66666900000000000000000000008152508160008151811061402157614021615bbc565b6020026020010181905250604051806040016040528060048152602001633234b33360e11b8152508160018151811061405c5761405c615bbc565b60200260200101819052506040518060400160405280601381526020017f6465636f64655363616c617245636f746f6e6500000000000000000000000000815250816002815181106140b0576140b0615bbc565b60209081029190910101526040517fb11a19e800000000000000000000000000000000000000000000000000000000815260048101859052737109709ecfa91a80626ff3989d68f67f5b1dd12d9063b11a19e890602401600060405180830381865afa158015614124573d6000803e3d6000fd5b505050506040513d6000823e601f3d908101601f1916820160405261414c9190810190615c1b565b8160038151811061415f5761415f615bbc565b6020026020010181905250600061417582614e6d565b9050808060200190518101906121d59190615ed2565b6040805160098082526101408201909252600091829190816020015b60608152602001906001900390816141a75790505090506040518060400160405280601581526020017f736372697074732f676f2d6666692f676f2d66666900000000000000000000008152508160008151811061420757614207615bbc565b6020026020010181905250604051806040016040528060048152602001633234b33360e11b8152508160018151811061424257614242615bbc565b60200260200101819052506040518060400160405280600e81526020017f686173685769746864726177616c000000000000000000000000000000000000815250816002815181106104b4576104b4615bbc565b6040805160078082526101008201909252600091829190816020015b60608152602001906001900390816142b25790505090506040518060400160405280601581526020017f736372697074732f676f2d6666692f676f2d66666900000000000000000000008152508160008151811061431257614312615bbc565b6020026020010181905250604051806040016040528060048152602001633234b33360e11b8152508160018151811061434d5761434d615bbc565b60200260200101819052506040518060400160405280601381526020017f686173684f7574707574526f6f7450726f6f6600000000000000000000000000815250816002815181106143a1576143a1615bbc565b60209081029190910101526143b586614e80565b816003815181106143c8576143c8615bbc565b60209081029190910101526143dc85614e80565b816004815181106143ef576143ef615bbc565b602090810291909101015261440384614e80565b8160058151811061441657614416615bbc565b602090810291909101015261442a83614e80565b8160068151811061443d5761443d615bbc565b6020026020010181905250600061445382614e6d565b9050808060200190518101906138a39190615c64565b60408051600580825260c08201909252600091829190816020015b60608152602001906001900390816144845790505090506040518060400160405280601581526020017f736372697074732f676f2d6666692f676f2d6666690000000000000000000000815250816000815181106144e4576144e4615bbc565b6020026020010181905250604051806040016040528060048152602001633234b33360e11b8152508160018151811061451f5761451f615bbc565b60200260200101819052506040518060400160405280601381526020017f656e636f64655363616c617245636f746f6e65000000000000000000000000008152508160028151811061457357614573615bbc565b602090810291909101015260405163348051d760e11b815263ffffffff85166004820152737109709ecfa91a80626ff3989d68f67f5b1dd12d90636900a3ae90602401600060405180830381865afa1580156145d3573d6000803e3d6000fd5b505050506040513d6000823e601f3d908101601f191682016040526145fb9190810190615c1b565b8160038151811061460e5761460e615bbc565b602090810291909101015260405163348051d760e11b815263ffffffff84166004820152737109709ecfa91a80626ff3989d68f67f5b1dd12d90636900a3ae90602401600060405180830381865afa15801561466e573d6000803e3d6000fd5b505050506040513d6000823e601f3d908101601f191682016040526146969190810190615c1b565b816004815181106146a9576146a9615bbc565b602002602001018190525060006146bf82614e6d565b9050808060200190518101906146d59190615c64565b95945050505050565b60408051600c8082526101a0820190925260609160009190816020015b60608152602001906001900390816146fb5790505090506040518060400160405280601581526020017f736372697074732f676f2d6666692f676f2d66666900000000000000000000008152508160008151811061475b5761475b615bbc565b6020026020010181905250604051806040016040528060048152602001633234b33360e11b8152508160018151811061479657614796615bbc565b60200260200101819052506040518060400160405280601881526020017f656e636f64654465706f7369745472616e73616374696f6e0000000000000000815250816002815181106147ea576147ea615bbc565b6020026020010181905250737109709ecfa91a80626ff3989d68f67f5b1dd12d73ffffffffffffffffffffffffffffffffffffffff166356ca623e8460000160208101906148389190615f01565b6040517fffffffff0000000000000000000000000000000000000000000000000000000060e084901b16815273ffffffffffffffffffffffffffffffffffffffff9091166004820152602401600060405180830381865afa1580156148a1573d6000803e3d6000fd5b505050506040513d6000823e601f3d908101601f191682016040526148c99190810190615c1b565b816003815181106148dc576148dc615bbc565b6020026020010181905250737109709ecfa91a80626ff3989d68f67f5b1dd12d73ffffffffffffffffffffffffffffffffffffffff166356ca623e84602001602081019061492a9190615f01565b6040517fffffffff0000000000000000000000000000000000000000000000000000000060e084901b16815273ffffffffffffffffffffffffffffffffffffffff9091166004820152602401600060405180830381865afa158015614993573d6000803e3d6000fd5b505050506040513d6000823e601f3d908101601f191682016040526149bb9190810190615c1b565b816004815181106149ce576149ce615bbc565b602090810291909101015260405163348051d760e11b815260608401356004820152737109709ecfa91a80626ff3989d68f67f5b1dd12d90636900a3ae90602401600060405180830381865afa158015614a2c573d6000803e3d6000fd5b505050506040513d6000823e601f3d908101601f19168201604052614a549190810190615c1b565b81600581518110614a6757614a67615bbc565b602090810291909101015260405163348051d760e11b815260808401356004820152737109709ecfa91a80626ff3989d68f67f5b1dd12d90636900a3ae90602401600060405180830381865afa158015614ac5573d6000803e3d6000fd5b505050506040513d6000823e601f3d908101601f19168201604052614aed9190810190615c1b565b81600681518110614b0057614b00615bbc565b6020908102919091010152737109709ecfa91a80626ff3989d68f67f5b1dd12d636900a3ae614b3560c0860160a08701615f1c565b6040517fffffffff0000000000000000000000000000000000000000000000000000000060e084901b16815267ffffffffffffffff9091166004820152602401600060405180830381865afa158015614b92573d6000803e3d6000fd5b505050506040513d6000823e601f3d908101601f19168201604052614bba9190810190615c1b565b81600781518110614bcd57614bcd615bbc565b6020908102919091010152737109709ecfa91a80626ff3989d68f67f5b1dd12d6371dce7da614c026060860160408701615f37565b6040518263ffffffff1660e01b8152600401614c22911515815260200190565b600060405180830381865afa158015614c3f573d6000803e3d6000fd5b505050506040513d6000823e601f3d908101601f19168201604052614c679190810190615c1b565b81600881518110614c7a57614c7a615bbc565b6020908102919091010152737109709ecfa91a80626ff3989d68f67f5b1dd12d6371aad10d614cac60c0860186615f59565b6040518363ffffffff1660e01b8152600401614cc9929190615fbe565b600060405180830381865afa158015614ce6573d6000803e3d6000fd5b505050506040513d6000823e601f3d908101601f19168201604052614d0e9190810190615c1b565b81600981518110614d2157614d21615bbc565b60209081029190910101526040517fb11a19e800000000000000000000000000000000000000000000000000000000815260e08401356004820152737109709ecfa91a80626ff3989d68f67f5b1dd12d9063b11a19e890602401600060405180830381865afa158015614d98573d6000803e3d6000fd5b505050506040513d6000823e601f3d908101601f19168201604052614dc09190810190615c1b565b81600a81518110614dd357614dd3615bbc565b602090810291909101015260405163348051d760e11b81526101008401356004820152737109709ecfa91a80626ff3989d68f67f5b1dd12d90636900a3ae90602401600060405180830381865afa158015614e32573d6000803e3d6000fd5b505050506040513d6000823e601f3d908101601f19168201604052614e5a9190810190615c1b565b81600b81518110612a8057612a80615bbc565b6060614e7a826000614ef0565b92915050565b606081600003614ec357505060408051808201909152600481527f3078303000000000000000000000000000000000000000000000000000000000602082015290565b8160005b8115614ee65780614ed78161601c565b915050600882901c9150614ec7565b612aac84826150e4565b6040517ff45c1ce7000000000000000000000000000000000000000000000000000000008152606090600090737109709ecfa91a80626ff3989d68f67f5b1dd12d9063f45c1ce790614f46908790600401616036565b6000604051808303816000875af1158015614f65573d6000803e3d6000fd5b505050506040513d6000823e601f3d908101601f19168201604052614f8d91908101906160b6565b9050606060005b8551811015614fed5781868281518110614fb057614fb0615bbc565b6020026020010151604051602001614fc9929190616160565b60405160208183030381529060405291508080614fe59061601c565b915050614f94565b50815160030b156150585780826040015160405160200161500f9291906161b7565b60408051601f19818403018152908290527f37eccf6f00000000000000000000000000000000000000000000000000000000825261504f91600401615818565b60405180910390fd5b831580156150c2575060408051808201909152600281527f5b5d0000000000000000000000000000000000000000000000000000000000006020918201528281015180519101207f518674ab2b227e5f11e9084f615d57663cde47bce1ba168b4c19c7ee22a73d70145b156150d8578060405160200161500f9190616238565b50602001519392505050565b606060006150f383600261627d565b6150fe90600261629c565b67ffffffffffffffff81111561511657615116615357565b6040519080825280601f01601f191660200182016040528015615140576020820181803683370190505b5090507f30000000000000000000000000000000000000000000000000000000000000008160008151811061517757615177615bbc565b60200101907effffffffffffffffffffffffffffffffffffffffffffffffffffffffffffff1916908160001a9053507f7800000000000000000000000000000000000000000000000000000000000000816001815181106151da576151da615bbc565b60200101907effffffffffffffffffffffffffffffffffffffffffffffffffffffffffffff1916908160001a905350600061521684600261627d565b61522190600161629c565b90505b60018111156152be577f303132333435363738396162636465660000000000000000000000000000000085600f166010811061526257615262615bbc565b1a60f81b82828151811061527857615278615bbc565b60200101907effffffffffffffffffffffffffffffffffffffffffffffffffffffffffffff1916908160001a90535060049490941c936152b7816162b4565b9050615224565b508315615327576040517f08c379a000000000000000000000000000000000000000000000000000000000815260206004820181905260248201527f537472696e67733a20686578206c656e67746820696e73756666696369656e74604482015260640161504f565b9392505050565b803573ffffffffffffffffffffffffffffffffffffffff8116811461535257600080fd5b919050565b7f4e487b7100000000000000000000000000000000000000000000000000000000600052604160045260246000fd5b60405160c0810167ffffffffffffffff811182821017156153a9576153a9615357565b60405290565b6040516060810167ffffffffffffffff811182821017156153a9576153a9615357565b604051601f8201601f1916810167ffffffffffffffff811182821017156153fb576153fb615357565b604052919050565b600067ffffffffffffffff82111561541d5761541d615357565b50601f01601f191660200190565b600061543e61543984615403565b6153d2565b905082815283838301111561545257600080fd5b828260208301376000602084830101529392505050565b600082601f83011261547a57600080fd5b6153278383356020850161542b565b60008060008060008060c087890312156154a257600080fd5b863595506154b26020880161532e565b94506154c06040880161532e565b9350606087013592506080870135915060a087013567ffffffffffffffff8111156154ea57600080fd5b6154f689828a01615469565b9150509295509295509295565b60006020828403121561551557600080fd5b813567ffffffffffffffff8082111561552d57600080fd5b9083019060c0828603121561554157600080fd5b615549615386565b823581526155596020840161532e565b602082015261556a6040840161532e565b6040820152606083013560608201526080830135608082015260a08301358281111561559557600080fd5b6155a187828601615469565b60a08301525095945050505050565b60005b838110156155cb5781810151838201526020016155b3565b838111156155da576000848401525b50505050565b600081518084526155f88160208601602086016155b0565b601f01601f19169290920160200192915050565b600082825180855260208086019550808260051b84010181860160005b8481101561565757601f198684030189526156458383516155e0565b98840198925090830190600101615629565b5090979650505050505050565b85815284602082015283604082015282606082015260a0608082015260006138a360a083018461560c565b63ffffffff811681146156a157600080fd5b50565b600080600080608085870312156156ba57600080fd5b84356156c58161568f565b935060208501356156d58161568f565b925060408501356156e58161568f565b915060608501356156f58161568f565b939692955090935050565b828152604060208201526000612aac60408301846155e0565b60008060008060008060c0878903121561573257600080fd5b863561573d8161568f565b9550602087013561574d8161568f565b9450604087013561575d8161568f565b9350606087013561576d8161568f565b9250608087013561577d8161568f565b915060a087013561578d8161568f565b809150509295509295509295565b803567ffffffffffffffff8116811461535257600080fd5b600080600080600060a086880312156157cb57600080fd5b6157d48661579b565b94506157e26020870161579b565b93506157f06040870161579b565b92506157fe6060870161579b565b915061580c6080870161579b565b90509295509295909350565b60208152600061532760208301846155e0565b60006020828403121561583d57600080fd5b5035919050565b6000806040838503121561585757600080fd5b6158608361579b565b915061586e6020840161579b565b90509250929050565b60008060008060008060c0878903121561589057600080fd5b6158998761579b565b95506158a76020880161579b565b94506158b56040880161579b565b93506158c36060880161579b565b92506158d16080880161579b565b91506158df60a0880161579b565b90509295509295509295565b6000602082840312156158fd57600080fd5b813567ffffffffffffffff81111561591457600080fd5b8201601f8101841361592557600080fd5b612aac8482356020840161542b565b84815260806020820152600061594d60808301866155e0565b828103604084015261595f81866155e0565b905082810360608401526138a3818561560c565b6000806040838503121561598657600080fd5b82356159918161568f565b915060208301356159a18161568f565b809150509250929050565b600080600080600080600060e0888a0312156159c757600080fd5b6159d08861532e565b96506159de6020890161532e565b955060408801359450606088013593506159fa6080890161579b565b925060a088013567ffffffffffffffff811115615a1657600080fd5b615a228a828b01615469565b925050615a3160c0890161579b565b905092959891949750929550565b60008060008060808587031215615a5557600080fd5b615a5e8561532e565b9350602085013560ff81168114615a7457600080fd5b93969395505050506040820135916060013590565b600080600080600060a08688031215615aa157600080fd5b8535615aac8161568f565b94506020860135615abc8161568f565b93506040860135615acc8161568f565b92506060860135615adc8161568f565b91506080860135615aec8161568f565b809150509295509295909350565b60008060008060808587031215615b1057600080fd5b615b198561579b565b9350615b276020860161579b565b9250615b356040860161579b565b9150615b436060860161579b565b905092959194509250565b60008060008060808587031215615b6457600080fd5b5050823594602084013594506040840135936060013592509050565b600060208284031215615b9257600080fd5b813567ffffffffffffffff811115615ba957600080fd5b8201610120818503121561532757600080fd5b7f4e487b7100000000000000000000000000000000000000000000000000000000600052603260045260246000fd5b6000615bf961543984615403565b9050828152838383011115615c0d57600080fd5b6153278360208301846155b0565b600060208284031215615c2d57600080fd5b815167ffffffffffffffff811115615c4457600080fd5b8201601f81018413615c5557600080fd5b612aac84825160208401615beb565b600060208284031215615c7657600080fd5b5051919050565b600082601f830112615c8e57600080fd5b61532783835160208501615beb565b600082601f830112615cae57600080fd5b8151602067ffffffffffffffff80831115615ccb57615ccb615357565b8260051b615cda8382016153d2565b9384528581018301938381019088861115615cf457600080fd5b84880192505b85831015615d3057825184811115615d125760008081fd5b615d208a87838c0101615c7d565b8352509184019190840190615cfa565b98975050505050505050565b600080600080600060a08688031215615d5457600080fd5b85519450602086015193506040860151925060608601519150608086015167ffffffffffffffff811115615d8757600080fd5b615d9388828901615c9d565b9150509295509295909350565b60008060408385031215615db357600080fd5b82519150602083015167ffffffffffffffff811115615dd157600080fd5b615ddd85828601615c7d565b9150509250929050565b600060208284031215615df957600080fd5b815167ffffffffffffffff811115615e1057600080fd5b612aac84828501615c7d565b60008060408385031215615e2f57600080fd5b505080516020909101519092909150565b60008060008060808587031215615e5657600080fd5b84519350602085015167ffffffffffffffff80821115615e7557600080fd5b615e8188838901615c7d565b94506040870151915080821115615e9757600080fd5b615ea388838901615c7d565b93506060870151915080821115615eb957600080fd5b50615ec687828801615c9d565b91505092959194509250565b60008060408385031215615ee557600080fd5b8251615ef08161568f565b60208401519092506159a18161568f565b600060208284031215615f1357600080fd5b6153278261532e565b600060208284031215615f2e57600080fd5b6153278261579b565b600060208284031215615f4957600080fd5b8135801515811461532757600080fd5b60008083357fffffffffffffffffffffffffffffffffffffffffffffffffffffffffffffffe1843603018112615f8e57600080fd5b83018035915067ffffffffffffffff821115615fa957600080fd5b60200191503681900382131561246457600080fd5b60208152816020820152818360408301376000818301604090810191909152601f909201601f19160101919050565b7f4e487b7100000000000000000000000000000000000000000000000000000000600052601160045260246000fd5b6000600019820361602f5761602f615fed565b5060010190565b6000602080830181845280855180835260408601915060408160051b870101925083870160005b828110156160a9577fffffffffffffffffffffffffffffffffffffffffffffffffffffffffffffffc08886030184526160978583516155e0565b9450928501929085019060010161605d565b5092979650505050505050565b6000602082840312156160c857600080fd5b815167ffffffffffffffff808211156160e057600080fd5b90830190606082860312156160f457600080fd5b6160fc6153af565b82518060030b811461610d57600080fd5b815260208301518281111561612157600080fd5b61612d87828601615c7d565b60208301525060408301518281111561614557600080fd5b61615187828601615c7d565b60408301525095945050505050565b600083516161728184602088016155b0565b8351908301906161868183602088016155b0565b7f20000000000000000000000000000000000000000000000000000000000000009101908152600101949350505050565b7f436f6d6d616e643a2000000000000000000000000000000000000000000000008152600083516161ef8160098501602088016155b0565b7f0a4572726f723a20000000000000000000000000000000000000000000000000600991840191820152835161622c8160118401602088016155b0565b01601101949350505050565b7f4e6f206f75747075742066726f6d20436f6d6d616e643a2000000000000000008152600082516162708160188501602087016155b0565b9190910160180192915050565b600081600019048311821515161561629757616297615fed565b500290565b600082198211156162af576162af615fed565b500190565b6000816162c3576162c3615fed565b50600019019056fe30783030303030303030303030303030303030303030303030303030303030303030303030303030303030303030303030303030303030303030303030303030303067657450726f76655769746864726177616c5472616e73616374696f6e496e70757473a164736f6c634300080f000a","linkReferences":{}},"methodIdentifiers":{"decodeScalarEcotone(bytes32)":"c040ff53","decodeVersionedNonce(uint256)":"526dc955","encodeCrossDomainMessage(uint256,address,address,uint256,uint256,bytes)":"498a3c02","encodeDependency(uint256)":"6ddb2730","encodeDepositTransaction((address,address,bool,uint256,uint256,uint64,bytes,bytes32,uint256))":"fc677392","encodeGasPayingToken(address,uint8,bytes32,bytes32)":"92bcb236","encodeScalarEcotone(uint32,uint32)":"ee5c8e1d","getCannonMemory64Proof(uint64,uint64)":"5870f513","getCannonMemory64Proof(uint64,uint64,uint64,uint64)":"b7bafd63","getCannonMemory64Proof(uint64,uint64,uint64,uint64,uint64,uint64)":"6d4779ea","getCannonMemory64Proof2(uint64,uint64,uint64,uint64,uint64)":"42eb241d","getCannonMemoryProof(uint32,uint32)":"83dbaa03","getCannonMemoryProof(uint32,uint32,uint32,uint32)":"7f26c48c","getCannonMemoryProof(uint32,uint32,uint32,uint32,uint32,uint32)":"2a4621ea","getCannonMemoryProof2(uint32,uint32,uint32,uint32,uint32)":"b5351669","getCannonMemoryProofWrongLeaf(uint32,uint32,uint32,uint32)":"2803164a","getMerkleTrieFuzzCase(string)":"7e577a1b","getProveWithdrawalTransactionInputs((uint256,address,address,uint256,uint256,bytes))":"1aac97c1","hashCrossDomainMessage(uint256,address,address,uint256,uint256,bytes)":"00ec31a6","hashDepositTransaction(address,address,uint256,uint256,uint64,bytes,uint64)":"8ccece97","hashOutputRootProof(bytes32,bytes32,bytes32,bytes32)":"dcf5edef","hashWithdrawal(uint256,address,address,uint256,uint256,bytes)":"c21e8865"},"storageLayout":{"storage":[],"types":{}},"userdoc":{"version":1,"kind":"user","errors":{"FfiFailed(string)":[{"notice":"Error for when an ffi command fails."}]},"notice":"This contract is set into state using `etch` and therefore must not have constructor logic.         It also MUST be compiled with `0.8.15` because `vm.getDeployedCode` will break if there         are multiple artifacts for different compiler versions."},"devdoc":{"version":1,"kind":"dev","title":"FFIInterface"},"id":439}