{"abi":[{"type":"function","name":"decodeScalarEcotone","inputs":[{"name":"_scalar","type":"bytes32","internalType":"bytes32"}],"outputs":[{"name":"","type":"uint32","internalType":"uint32"},{"name":"","type":"uint32","internalType":"uint32"}],"stateMutability":"nonpayable"},{"type":"function","name":"decodeVersionedNonce","inputs":[{"name":"nonce","type":"uint256","internalType":"uint256"}],"outputs":[{"name":"","type":"uint256","internalType":"uint256"},{"name":"","type":"uint256","internalType":"uint256"}],"stateMutability":"nonpayable"},{"type":"function","name":"encodeCrossDomainMessage","inputs":[{"name":"_nonce","type":"uint256","internalType":"uint256"},{"name":"_sender","type":"address","internalType":"address"},{"name":"_target","type":"address","internalType":"address"},{"name":"_value","type":"uint256","internalType":"uint256"},{"name":"_gasLimit","type":"uint256","internalType":"uint256"},{"name":"_data","type":"bytes","internalType":"bytes"}],"outputs":[{"name":"","type":"bytes","internalType":"bytes"}],"stateMutability":"nonpayable"},{"type":"function","name":"encodeDependency","inputs":[{"name":"_chainId","type":"uint256","internalType":"uint256"}],"outputs":[{"name":"","type":"bytes","internalType":"bytes"}],"stateMutability":"nonpayable"},{"type":"function","name":"encodeDepositTransaction","inputs":[{"name":"txn","type":"tuple","internalType":"struct Types.UserDepositTransaction","components":[{"name":"from","type":"address","internalType":"address"},{"name":"to","type":"address","internalType":"address"},{"name":"isCreation","type":"bool","internalType":"bool"},{"name":"value","type":"uint256","internalType":"uint256"},{"name":"mint","type":"uint256","internalType":"uint256"},{"name":"gasLimit","type":"uint64","internalType":"uint64"},{"name":"data","type":"bytes","internalType":"bytes"},{"name":"l1BlockHash","type":"bytes32","internalType":"bytes32"},{"name":"logIndex","type":"uint256","internalType":"uint256"}]}],"outputs":[{"name":"","type":"bytes","internalType":"bytes"}],"stateMutability":"nonpayable"},{"type":"function","name":"encodeGasPayingToken","inputs":[{"name":"_token","type":"address","internalType":"address"},{"name":"_decimals","type":"uint8","internalType":"uint8"},{"name":"_name","type":"bytes32","internalType":"bytes32"},{"name":"_symbol","type":"bytes32","internalType":"bytes32"}],"outputs":[{"name":"","type":"bytes","internalType":"bytes"}],"stateMutability":"nonpayable"},{"type":"function","name":"encodeScalarEcotone","inputs":[{"name":"_basefeeScalar","type":"uint32","internalType":"uint32"},{"name":"_blobbasefeeScalar","type":"uint32","internalType":"uint32"}],"outputs":[{"name":"","type":"bytes32","internalType":"bytes32"}],"stateMutability":"nonpayable"},{"type":"function","name":"getCannonMemory64Proof","inputs":[{"name":"addr","type":"uint64","internalType":"uint64"},{"name":"value","type":"uint64","internalType":"uint64"}],"outputs":[{"name":"","type":"bytes32","internalType":"bytes32"},{"name":"","type":"bytes","internalType":"bytes"}],"stateMutability":"nonpayable"},{"type":"function","name":"getCannonMemory64Proof","inputs":[{"name":"addr0","type":"uint64","internalType":"uint64"},{"name":"value0","type":"uint64","internalType":"uint64"},{"name":"addr1","type":"uint64","internalType":"uint64"},{"name":"value1","type":"uint64","internalType":"uint64"},{"name":"memAddr2","type":"uint64","internalType":"uint64"},{"name":"memVal2","type":"uint64","internalType":"uint64"}],"outputs":[{"name":"","type":"bytes32","internalType":"bytes32"},{"name":"","type":"bytes","internalType":"bytes"}],"stateMutability":"nonpayable"},{"type":"function","name":"getCannonMemory64Proof","inputs":[{"name":"addr0","type":"uint64","internalType":"uint64"},{"name":"value0","type":"uint64","internalType":"uint64"},{"name":"addr1","type":"uint64","internalType":"uint64"},{"name":"value1","type":"uint64","internalType":"uint64"}],"outputs":[{"name":"","type":"bytes32","internalType":"bytes32"},{"name":"","type":"bytes","internalType":"bytes"}],"stateMutability":"nonpayable"},{"type":"function","name":"getCannonMemory64Proof2","inputs":[{"name":"addr0","type":"uint64","internalType":"uint64"},{"name":"value0","type":"uint64","internalType":"uint64"},{"name":"addr1","type":"uint64","internalType":"uint64"},{"name":"value1","type":"uint64","internalType":"uint64"},{"name":"memAddrForProof","type":"uint64","internalType":"uint64"}],"outputs":[{"name":"","type":"bytes32","internalType":"bytes32"},{"name":"","type":"bytes","internalType":"bytes"}],"stateMutability":"nonpayable"},{"type":"function","name":"getCannonMemoryProof","inputs":[{"name":"pc","type":"uint32","internalType":"uint32"},{"name":"insn","type":"uint32","internalType":"uint32"},{"name":"memAddr","type":"uint32","internalType":"uint32"},{"name":"memVal","type":"uint32","internalType":"uint32"},{"name":"memAddr2","type":"uint32","internalType":"uint32"},{"name":"memVal2","type":"uint32","internalType":"uint32"}],"outputs":[{"name":"","type":"bytes32","internalType":"bytes32"},{"name":"","type":"bytes","internalType":"bytes"}],"stateMutability":"nonpayable"},{"type":"function","name":"getCannonMemoryProof","inputs":[{"name":"pc","type":"uint32","internalType":"uint32"},{"name":"insn","type":"uint32","internalType":"uint32"},{"name":"memAddr","type":"uint32","internalType":"uint32"},{"name":"memVal","type":"uint32","internalType":"uint32"}],"outputs":[{"name":"","type":"bytes32","internalType":"bytes32"},{"name":"","type":"bytes","internalType":"bytes"}],"stateMutability":"nonpayable"},{"type":"function","name":"getCannonMemoryProof","inputs":[{"name":"pc","type":"uint32","internalType":"uint32"},{"name":"insn","type":"uint32","internalType":"uint32"}],"outputs":[{"name":"","type":"bytes32","internalType":"bytes32"},{"name":"","type":"bytes","internalType":"bytes"}],"stateMutability":"nonpayable"},{"type":"function","name":"getCannonMemoryProof2","inputs":[{"name":"pc","type":"uint32","internalType":"uint32"},{"name":"insn","type":"uint32","internalType":"uint32"},{"name":"memAddr","type":"uint32","internalType":"uint32"},{"name":"memVal","type":"uint32","internalType":"uint32"},{"name":"memAddrForProof","type":"uint32","internalType":"uint32"}],"outputs":[{"name":"","type":"bytes32","internalType":"bytes32"},{"name":"","type":"bytes","internalType":"bytes"}],"stateMutability":"nonpayable"},{"type":"function","name":"getCannonMemoryProofWrongLeaf","inputs":[{"name":"pc","type":"uint32","internalType":"uint32"},{"name":"insn","type":"uint32","internalType":"uint32"},{"name":"memAddr","type":"uint32","internalType":"uint32"},{"name":"memVal","type":"uint32","internalType":"uint32"}],"outputs":[{"name":"","type":"bytes32","internalType":"bytes32"},{"name":"","type":"bytes","internalType":"bytes"}],"stateMutability":"nonpayable"},{"type":"function","name":"getMerkleTrieFuzzCase","inputs":[{"name":"variant","type":"string","internalType":"string"}],"outputs":[{"name":"","type":"bytes32","internalType":"bytes32"},{"name":"","type":"bytes","internalType":"bytes"},{"name":"","type":"bytes","internalType":"bytes"},{"name":"","type":"bytes[]","internalType":"bytes[]"}],"stateMutability":"nonpayable"},{"type":"function","name":"getProveWithdrawalTransactionInputs","inputs":[{"name":"_tx","type":"tuple","internalType":"struct Types.WithdrawalTransaction","components":[{"name":"nonce","type":"uint256","internalType":"uint256"},{"name":"sender","type":"address","internalType":"address"},{"name":"target","type":"address","internalType":"address"},{"name":"value","type":"uint256","internalType":"uint256"},{"name":"gasLimit","type":"uint256","internalType":"uint256"},{"name":"data","type":"bytes","internalType":"bytes"}]}],"outputs":[{"name":"","type":"bytes32","internalType":"bytes32"},{"name":"","type":"bytes32","internalType":"bytes32"},{"name":"","type":"bytes32","internalType":"bytes32"},{"name":"","type":"bytes32","internalType":"bytes32"},{"name":"","type":"bytes[]","internalType":"bytes[]"}],"stateMutability":"nonpayable"},{"type":"function","name":"hashCrossDomainMessage","inputs":[{"name":"_nonce","type":"uint256","internalType":"uint256"},{"name":"_sender","type":"address","internalType":"address"},{"name":"_target","type":"address","internalType":"address"},{"name":"_value","type":"uint256","internalType":"uint256"},{"name":"_gasLimit","type":"uint256","internalType":"uint256"},{"name":"_data","type":"bytes","internalType":"bytes"}],"outputs":[{"name":"","type":"bytes32","internalType":"bytes32"}],"stateMutability":"nonpayable"},{"type":"function","name":"hashDepositTransaction","inputs":[{"name":"_from","type":"address","internalType":"address"},{"name":"_to","type":"address","internalType":"address"},{"name":"_mint","type":"uint256","internalType":"uint256"},{"name":"_value","type":"uint256","internalType":"uint256"},{"name":"_gas","type":"uint64","internalType":"uint64"},{"name":"_data","type":"bytes","internalType":"bytes"},{"name":"_logIndex","type":"uint64","internalType":"uint64"}],"outputs":[{"name":"","type":"bytes32","internalType":"bytes32"}],"stateMutability":"nonpayable"},{"type":"function","name":"hashOutputRootProof","inputs":[{"name":"_version","type":"bytes32","internalType":"bytes32"},{"name":"_stateRoot","type":"bytes32","internalType":"bytes32"},{"name":"_messagePasserStorageRoot","type":"bytes32","internalType":"bytes32"},{"name":"_latestBlockhash","type":"bytes32","internalType":"bytes32"}],"outputs":[{"name":"","type":"bytes32","internalType":"bytes32"}],"stateMutability":"nonpayable"},{"type":"function","name":"hashWithdrawal","inputs":[{"name":"_nonce","type":"uint256","internalType":"uint256"},{"name":"_sender","type":"address","internalType":"address"},{"name":"_target","type":"address","internalType":"address"},{"name":"_value","type":"uint256","internalType":"uint256"},{"name":"_gasLimit","type":"uint256","internalType":"uint256"},{"name":"_data","type":"bytes","internalType":"bytes"}],"outputs":[{"name":"","type":"bytes32","internalType":"bytes32"}],"stateMutability":"nonpayable"},{"type":"error","name":"FfiFailed","inputs":[{"name":"","type":"string","internalType":"string"}]}],"bytecode":{"object":"0x608060405234801561001057600080fd5b5061754480620000216000396000f3fe608060405234801561001057600080fd5b50600436106101815760003560e01c80637f26c48c116100d8578063b7bafd631161008c578063dcf5edef11610066578063dcf5edef14610370578063ee5c8e1d14610383578063fc6773921461039657600080fd5b8063b7bafd631461031a578063c040ff531461032d578063c21e88651461035d57600080fd5b80638ccece97116100bd5780638ccece97146102e157806392bcb236146102f4578063b53516691461030757600080fd5b80637f26c48c146102bb57806383dbaa03146102ce57600080fd5b8063498a3c021161013a5780636d4779ea116101145780636d4779ea146102725780636ddb2730146102855780637e577a1b1461029857600080fd5b8063498a3c0214610217578063526dc955146102375780635870f5131461025f57600080fd5b80632803164a1161016b5780632803164a146101d05780632a4621ea146101f157806342eb241d1461020457600080fd5b8062ec31a6146101865780631aac97c1146101ac575b600080fd5b6101996101943660046165dc565b6103a9565b6040519081526020015b60405180910390f35b6101bf6101ba366004616656565b610a02565b6040516101a39594939291906167f3565b6101e36101de366004616833565b611083565b6040516101a392919061688f565b6101e36101ff3660046168a8565b611532565b6101e3610212366004616942565b611b87565b61022a6102253660046165dc565b61211d565b6040516101a391906169a7565b61024a6102453660046169ba565b61276a565b604080519283526020830191909152016101a3565b6101e361026d3660046169d3565b612992565b6101e3610280366004616a06565b612ca4565b61022a6102933660046169ba565b61325d565b6102ab6102a6366004616a7a565b613482565b6040516101a39493929190616ac3565b6101e36102c9366004616833565b6135ad565b6101e36102dc366004616b02565b6136d3565b6101996102ef366004616b3b565b61392b565b61022a610302366004616bce565b61409b565b6101e3610315366004616c18565b614542565b6101e3610328366004616c89565b614a11565b61034061033b3660046169ba565b614e1e565b6040805163ffffffff9384168152929091166020830152016101a3565b61019961036b3660046165dc565b61503b565b61019961037e366004616cdd565b61515f565b610199610391366004616b02565b61534b565b61022a6103a4366004616d0f565b615647565b6040805160098082526101408201909252600091829190816020015b60608152602001906001900390816103c55790505090506040518060400160405280601581526020017f736372697074732f676f2d6666692f676f2d66666900000000000000000000008152508160008151811061042557610425616d4b565b60200260200101819052506040518060400160405280600481526020017f64696666000000000000000000000000000000000000000000000000000000008152508160018151811061047957610479616d4b565b60200260200101819052506040518060400160405280601681526020017f6861736843726f7373446f6d61696e4d65737361676500000000000000000000815250816002815181106104cd576104cd616d4b565b60209081029190910101526040517f6900a3ae00000000000000000000000000000000000000000000000000000000815260048101899052737109709ecfa91a80626ff3989d68f67f5b1dd12d90636900a3ae90602401600060405180830381865afa158015610541573d6000803e3d6000fd5b505050506040513d6000823e601f3d9081017fffffffffffffffffffffffffffffffffffffffffffffffffffffffffffffffe01682016040526105879190810190616daa565b8160038151811061059a5761059a616d4b565b60209081029190910101526040517f56ca623e00000000000000000000000000000000000000000000000000000000815273ffffffffffffffffffffffffffffffffffffffff88166004820152737109709ecfa91a80626ff3989d68f67f5b1dd12d906356ca623e90602401600060405180830381865afa158015610623573d6000803e3d6000fd5b505050506040513d6000823e601f3d9081017fffffffffffffffffffffffffffffffffffffffffffffffffffffffffffffffe01682016040526106699190810190616daa565b8160048151811061067c5761067c616d4b565b60209081029190910101526040517f56ca623e00000000000000000000000000000000000000000000000000000000815273ffffffffffffffffffffffffffffffffffffffff87166004820152737109709ecfa91a80626ff3989d68f67f5b1dd12d906356ca623e90602401600060405180830381865afa158015610705573d6000803e3d6000fd5b505050506040513d6000823e601f3d9081017fffffffffffffffffffffffffffffffffffffffffffffffffffffffffffffffe016820160405261074b9190810190616daa565b8160058151811061075e5761075e616d4b565b60209081029190910101526040517f6900a3ae00000000000000000000000000000000000000000000000000000000815260048101869052737109709ecfa91a80626ff3989d68f67f5b1dd12d90636900a3ae90602401600060405180830381865afa1580156107d2573d6000803e3d6000fd5b505050506040513d6000823e601f3d9081017fffffffffffffffffffffffffffffffffffffffffffffffffffffffffffffffe01682016040526108189190810190616daa565b8160068151811061082b5761082b616d4b565b60209081029190910101526040517f6900a3ae00000000000000000000000000000000000000000000000000000000815260048101859052737109709ecfa91a80626ff3989d68f67f5b1dd12d90636900a3ae90602401600060405180830381865afa15801561089f573d6000803e3d6000fd5b505050506040513d6000823e601f3d9081017fffffffffffffffffffffffffffffffffffffffffffffffffffffffffffffffe01682016040526108e59190810190616daa565b816007815181106108f8576108f8616d4b565b60209081029190910101526040517f71aad10d000000000000000000000000000000000000000000000000000000008152737109709ecfa91a80626ff3989d68f67f5b1dd12d906371aad10d906109539086906004016169a7565b600060405180830381865afa158015610970573d6000803e3d6000fd5b505050506040513d6000823e601f3d9081017fffffffffffffffffffffffffffffffffffffffffffffffffffffffffffffffe01682016040526109b69190810190616daa565b816008815181106109c9576109c9616d4b565b602002602001018190525060006109df82615f48565b9050808060200190518101906109f59190616df3565b9998505050505050505050565b60008080806060816009604051908082528060200260200182016040528015610a3f57816020015b6060815260200190600190039081610a2a5790505b5090506040518060400160405280601581526020017f736372697074732f676f2d6666692f676f2d666669000000000000000000000081525081600081518110610a8b57610a8b616d4b565b60200260200101819052506040518060400160405280600481526020017f646966660000000000000000000000000000000000000000000000000000000081525081600181518110610adf57610adf616d4b565b60200260200101819052506040518060600160405280602381526020016175156023913981600281518110610b1657610b16616d4b565b602090810291909101015286516040517f6900a3ae0000000000000000000000000000000000000000000000000000000081526004810191909152737109709ecfa91a80626ff3989d68f67f5b1dd12d90636900a3ae90602401600060405180830381865afa158015610b8d573d6000803e3d6000fd5b505050506040513d6000823e601f3d9081017fffffffffffffffffffffffffffffffffffffffffffffffffffffffffffffffe0168201604052610bd39190810190616daa565b81600381518110610be657610be6616d4b565b6020908102919091018101919091528701516040517f56ca623e00000000000000000000000000000000000000000000000000000000815273ffffffffffffffffffffffffffffffffffffffff9091166004820152737109709ecfa91a80626ff3989d68f67f5b1dd12d906356ca623e90602401600060405180830381865afa158015610c77573d6000803e3d6000fd5b505050506040513d6000823e601f3d9081017fffffffffffffffffffffffffffffffffffffffffffffffffffffffffffffffe0168201604052610cbd9190810190616daa565b81600481518110610cd057610cd0616d4b565b602090810291909101015260408781015190517f56ca623e00000000000000000000000000000000000000000000000000000000815273ffffffffffffffffffffffffffffffffffffffff9091166004820152737109709ecfa91a80626ff3989d68f67f5b1dd12d906356ca623e90602401600060405180830381865afa158015610d5f573d6000803e3d6000fd5b505050506040513d6000823e601f3d9081017fffffffffffffffffffffffffffffffffffffffffffffffffffffffffffffffe0168201604052610da59190810190616daa565b81600581518110610db857610db8616d4b565b602090810291909101015260608701516040517f6900a3ae0000000000000000000000000000000000000000000000000000000081526004810191909152737109709ecfa91a80626ff3989d68f67f5b1dd12d90636900a3ae90602401600060405180830381865afa158015610e32573d6000803e3d6000fd5b505050506040513d6000823e601f3d9081017fffffffffffffffffffffffffffffffffffffffffffffffffffffffffffffffe0168201604052610e789190810190616daa565b81600681518110610e8b57610e8b616d4b565b602090810291909101015260808701516040517f6900a3ae0000000000000000000000000000000000000000000000000000000081526004810191909152737109709ecfa91a80626ff3989d68f67f5b1dd12d90636900a3ae90602401600060405180830381865afa158015610f05573d6000803e3d6000fd5b505050506040513d6000823e601f3d9081017fffffffffffffffffffffffffffffffffffffffffffffffffffffffffffffffe0168201604052610f4b9190810190616daa565b81600781518110610f5e57610f5e616d4b565b602090810291909101015260a08701516040517f71aad10d000000000000000000000000000000000000000000000000000000008152737109709ecfa91a80626ff3989d68f67f5b1dd12d916371aad10d91610fbd91906004016169a7565b600060405180830381865afa158015610fda573d6000803e3d6000fd5b505050506040513d6000823e601f3d9081017fffffffffffffffffffffffffffffffffffffffffffffffffffffffffffffffe01682016040526110209190810190616daa565b8160088151811061103357611033616d4b565b6020026020010181905250600061104982615f48565b90506000806000806000858060200190518101906110679190616ecb565b939f50919d509b50995097505050505050505091939590929450565b60408051600780825261010082019092526000916060918391816020015b60608152602001906001900390816110a15790505090506040518060400160405280601581526020017f736372697074732f676f2d6666692f676f2d66666900000000000000000000008152508160008151811061110157611101616d4b565b60200260200101819052506040518060400160405280600481526020017f64696666000000000000000000000000000000000000000000000000000000008152508160018151811061115557611155616d4b565b60200260200101819052506040518060400160405280601a81526020017f63616e6e6f6e4d656d6f727950726f6f6657726f6e674c656166000000000000815250816002815181106111a9576111a9616d4b565b60209081029190910101526040517f6900a3ae00000000000000000000000000000000000000000000000000000000815263ffffffff88166004820152737109709ecfa91a80626ff3989d68f67f5b1dd12d90636900a3ae90602401600060405180830381865afa158015611222573d6000803e3d6000fd5b505050506040513d6000823e601f3d9081017fffffffffffffffffffffffffffffffffffffffffffffffffffffffffffffffe01682016040526112689190810190616daa565b8160038151811061127b5761127b616d4b565b60209081029190910101526040517f6900a3ae00000000000000000000000000000000000000000000000000000000815263ffffffff87166004820152737109709ecfa91a80626ff3989d68f67f5b1dd12d90636900a3ae90602401600060405180830381865afa1580156112f4573d6000803e3d6000fd5b505050506040513d6000823e601f3d9081017fffffffffffffffffffffffffffffffffffffffffffffffffffffffffffffffe016820160405261133a9190810190616daa565b8160048151811061134d5761134d616d4b565b60209081029190910101526040517f6900a3ae00000000000000000000000000000000000000000000000000000000815263ffffffff86166004820152737109709ecfa91a80626ff3989d68f67f5b1dd12d90636900a3ae90602401600060405180830381865afa1580156113c6573d6000803e3d6000fd5b505050506040513d6000823e601f3d9081017fffffffffffffffffffffffffffffffffffffffffffffffffffffffffffffffe016820160405261140c9190810190616daa565b8160058151811061141f5761141f616d4b565b60209081029190910101526040517f6900a3ae00000000000000000000000000000000000000000000000000000000815263ffffffff85166004820152737109709ecfa91a80626ff3989d68f67f5b1dd12d90636900a3ae906024015b600060405180830381865afa158015611499573d6000803e3d6000fd5b505050506040513d6000823e601f3d9081017fffffffffffffffffffffffffffffffffffffffffffffffffffffffffffffffe01682016040526114df9190810190616daa565b816006815181106114f2576114f2616d4b565b6020026020010181905250600061150882615f48565b9050600080828060200190518101906115219190616f2f565b909b909a5098505050505050505050565b60408051600980825261014082019092526000916060918391816020015b60608152602001906001900390816115505790505090506040518060400160405280601581526020017f736372697074732f676f2d6666692f676f2d6666690000000000000000000000815250816000815181106115b0576115b0616d4b565b60200260200101819052506040518060400160405280600481526020017f64696666000000000000000000000000000000000000000000000000000000008152508160018151811061160457611604616d4b565b60200260200101819052506040518060400160405280601181526020017f63616e6e6f6e4d656d6f727950726f6f660000000000000000000000000000008152508160028151811061165857611658616d4b565b60209081029190910101526040517f6900a3ae00000000000000000000000000000000000000000000000000000000815263ffffffff8a166004820152737109709ecfa91a80626ff3989d68f67f5b1dd12d90636900a3ae90602401600060405180830381865afa1580156116d1573d6000803e3d6000fd5b505050506040513d6000823e601f3d9081017fffffffffffffffffffffffffffffffffffffffffffffffffffffffffffffffe01682016040526117179190810190616daa565b8160038151811061172a5761172a616d4b565b60209081029190910101526040517f6900a3ae00000000000000000000000000000000000000000000000000000000815263ffffffff89166004820152737109709ecfa91a80626ff3989d68f67f5b1dd12d90636900a3ae90602401600060405180830381865afa1580156117a3573d6000803e3d6000fd5b505050506040513d6000823e601f3d9081017fffffffffffffffffffffffffffffffffffffffffffffffffffffffffffffffe01682016040526117e99190810190616daa565b816004815181106117fc576117fc616d4b565b60209081029190910101526040517f6900a3ae00000000000000000000000000000000000000000000000000000000815263ffffffff88166004820152737109709ecfa91a80626ff3989d68f67f5b1dd12d90636900a3ae90602401600060405180830381865afa158015611875573d6000803e3d6000fd5b505050506040513d6000823e601f3d9081017fffffffffffffffffffffffffffffffffffffffffffffffffffffffffffffffe01682016040526118bb9190810190616daa565b816005815181106118ce576118ce616d4b565b60209081029190910101526040517f6900a3ae00000000000000000000000000000000000000000000000000000000815263ffffffff87166004820152737109709ecfa91a80626ff3989d68f67f5b1dd12d90636900a3ae90602401600060405180830381865afa158015611947573d6000803e3d6000fd5b505050506040513d6000823e601f3d9081017fffffffffffffffffffffffffffffffffffffffffffffffffffffffffffffffe016820160405261198d9190810190616daa565b816006815181106119a0576119a0616d4b565b60209081029190910101526040517f6900a3ae00000000000000000000000000000000000000000000000000000000815263ffffffff86166004820152737109709ecfa91a80626ff3989d68f67f5b1dd12d90636900a3ae90602401600060405180830381865afa158015611a19573d6000803e3d6000fd5b505050506040513d6000823e601f3d9081017fffffffffffffffffffffffffffffffffffffffffffffffffffffffffffffffe0168201604052611a5f9190810190616daa565b81600781518110611a7257611a72616d4b565b60209081029190910101526040517f6900a3ae00000000000000000000000000000000000000000000000000000000815263ffffffff85166004820152737109709ecfa91a80626ff3989d68f67f5b1dd12d90636900a3ae906024015b600060405180830381865afa158015611aec573d6000803e3d6000fd5b505050506040513d6000823e601f3d9081017fffffffffffffffffffffffffffffffffffffffffffffffffffffffffffffffe0168201604052611b329190810190616daa565b81600881518110611b4557611b45616d4b565b60200260200101819052506000611b5b82615f48565b905060008082806020019051810190611b749190616f2f565b909d909c509a5050505050505050505050565b60408051600880825261012082019092526000916060918391816020015b6060815260200190600190039081611ba55790505090506040518060400160405280601e81526020017f736372697074732f676f2d6666692f676f2d6666692d63616e6e6f6e3634000081525081600081518110611c0557611c05616d4b565b60200260200101819052506040518060400160405280600481526020017f646966660000000000000000000000000000000000000000000000000000000081525081600181518110611c5957611c59616d4b565b60200260200101819052506040518060400160405280601281526020017f63616e6e6f6e4d656d6f727950726f6f6632000000000000000000000000000081525081600281518110611cad57611cad616d4b565b60209081029190910101526040517f6900a3ae00000000000000000000000000000000000000000000000000000000815267ffffffffffffffff89166004820152737109709ecfa91a80626ff3989d68f67f5b1dd12d90636900a3ae90602401600060405180830381865afa158015611d2a573d6000803e3d6000fd5b505050506040513d6000823e601f3d9081017fffffffffffffffffffffffffffffffffffffffffffffffffffffffffffffffe0168201604052611d709190810190616daa565b81600381518110611d8357611d83616d4b565b60209081029190910101526040517f6900a3ae00000000000000000000000000000000000000000000000000000000815267ffffffffffffffff88166004820152737109709ecfa91a80626ff3989d68f67f5b1dd12d90636900a3ae90602401600060405180830381865afa158015611e00573d6000803e3d6000fd5b505050506040513d6000823e601f3d9081017fffffffffffffffffffffffffffffffffffffffffffffffffffffffffffffffe0168201604052611e469190810190616daa565b81600481518110611e5957611e59616d4b565b60209081029190910101526040517f6900a3ae00000000000000000000000000000000000000000000000000000000815267ffffffffffffffff87166004820152737109709ecfa91a80626ff3989d68f67f5b1dd12d90636900a3ae90602401600060405180830381865afa158015611ed6573d6000803e3d6000fd5b505050506040513d6000823e601f3d9081017fffffffffffffffffffffffffffffffffffffffffffffffffffffffffffffffe0168201604052611f1c9190810190616daa565b81600581518110611f2f57611f2f616d4b565b60209081029190910101526040517f6900a3ae00000000000000000000000000000000000000000000000000000000815267ffffffffffffffff86166004820152737109709ecfa91a80626ff3989d68f67f5b1dd12d90636900a3ae90602401600060405180830381865afa158015611fac573d6000803e3d6000fd5b505050506040513d6000823e601f3d9081017fffffffffffffffffffffffffffffffffffffffffffffffffffffffffffffffe0168201604052611ff29190810190616daa565b8160068151811061200557612005616d4b565b60209081029190910101526040517f6900a3ae00000000000000000000000000000000000000000000000000000000815267ffffffffffffffff85166004820152737109709ecfa91a80626ff3989d68f67f5b1dd12d90636900a3ae906024015b600060405180830381865afa158015612083573d6000803e3d6000fd5b505050506040513d6000823e601f3d9081017fffffffffffffffffffffffffffffffffffffffffffffffffffffffffffffffe01682016040526120c99190810190616daa565b816007815181106120dc576120dc616d4b565b602002602001018190525060006120f282615f48565b90506000808280602001905181019061210b9190616f2f565b909c909b509950505050505050505050565b604080516009808252610140820190925260609160009190816020015b606081526020019060019003908161213a5790505090506040518060400160405280601581526020017f736372697074732f676f2d6666692f676f2d66666900000000000000000000008152508160008151811061219a5761219a616d4b565b60200260200101819052506040518060400160405280600481526020017f6469666600000000000000000000000000000000000000000000000000000000815250816001815181106121ee576121ee616d4b565b60200260200101819052506040518060400160405280601881526020017f656e636f646543726f7373446f6d61696e4d65737361676500000000000000008152508160028151811061224257612242616d4b565b60209081029190910101526040517f6900a3ae00000000000000000000000000000000000000000000000000000000815260048101899052737109709ecfa91a80626ff3989d68f67f5b1dd12d90636900a3ae90602401600060405180830381865afa1580156122b6573d6000803e3d6000fd5b505050506040513d6000823e601f3d9081017fffffffffffffffffffffffffffffffffffffffffffffffffffffffffffffffe01682016040526122fc9190810190616daa565b8160038151811061230f5761230f616d4b565b60209081029190910101526040517f56ca623e00000000000000000000000000000000000000000000000000000000815273ffffffffffffffffffffffffffffffffffffffff88166004820152737109709ecfa91a80626ff3989d68f67f5b1dd12d906356ca623e90602401600060405180830381865afa158015612398573d6000803e3d6000fd5b505050506040513d6000823e601f3d9081017fffffffffffffffffffffffffffffffffffffffffffffffffffffffffffffffe01682016040526123de9190810190616daa565b816004815181106123f1576123f1616d4b565b60209081029190910101526040517f56ca623e00000000000000000000000000000000000000000000000000000000815273ffffffffffffffffffffffffffffffffffffffff87166004820152737109709ecfa91a80626ff3989d68f67f5b1dd12d906356ca623e90602401600060405180830381865afa15801561247a573d6000803e3d6000fd5b505050506040513d6000823e601f3d9081017fffffffffffffffffffffffffffffffffffffffffffffffffffffffffffffffe01682016040526124c09190810190616daa565b816005815181106124d3576124d3616d4b565b60209081029190910101526040517f6900a3ae00000000000000000000000000000000000000000000000000000000815260048101869052737109709ecfa91a80626ff3989d68f67f5b1dd12d90636900a3ae90602401600060405180830381865afa158015612547573d6000803e3d6000fd5b505050506040513d6000823e601f3d9081017fffffffffffffffffffffffffffffffffffffffffffffffffffffffffffffffe016820160405261258d9190810190616daa565b816006815181106125a0576125a0616d4b565b60209081029190910101526040517f6900a3ae00000000000000000000000000000000000000000000000000000000815260048101859052737109709ecfa91a80626ff3989d68f67f5b1dd12d90636900a3ae90602401600060405180830381865afa158015612614573d6000803e3d6000fd5b505050506040513d6000823e601f3d9081017fffffffffffffffffffffffffffffffffffffffffffffffffffffffffffffffe016820160405261265a9190810190616daa565b8160078151811061266d5761266d616d4b565b60209081029190910101526040517f71aad10d000000000000000000000000000000000000000000000000000000008152737109709ecfa91a80626ff3989d68f67f5b1dd12d906371aad10d906126c89086906004016169a7565b600060405180830381865afa1580156126e5573d6000803e3d6000fd5b505050506040513d6000823e601f3d9081017fffffffffffffffffffffffffffffffffffffffffffffffffffffffffffffffe016820160405261272b9190810190616daa565b8160088151811061273e5761273e616d4b565b6020026020010181905250600061275482615f48565b9050808060200190518101906109f59190616f76565b60408051600480825260a0820190925260009182918291816020015b60608152602001906001900390816127865790505090506040518060400160405280601581526020017f736372697074732f676f2d6666692f676f2d6666690000000000000000000000815250816000815181106127e6576127e6616d4b565b60200260200101819052506040518060400160405280600481526020017f64696666000000000000000000000000000000000000000000000000000000008152508160018151811061283a5761283a616d4b565b60200260200101819052506040518060400160405280601481526020017f6465636f646556657273696f6e65644e6f6e63650000000000000000000000008152508160028151811061288e5761288e616d4b565b60209081029190910101526040517f6900a3ae00000000000000000000000000000000000000000000000000000000815260048101859052737109709ecfa91a80626ff3989d68f67f5b1dd12d90636900a3ae90602401600060405180830381865afa158015612902573d6000803e3d6000fd5b505050506040513d6000823e601f3d9081017fffffffffffffffffffffffffffffffffffffffffffffffffffffffffffffffe01682016040526129489190810190616daa565b8160038151811061295b5761295b616d4b565b6020026020010181905250600061297182615f48565b9050808060200190518101906129879190616fab565b935093505050915091565b60408051600580825260c082019092526000916060918391816020015b60608152602001906001900390816129af5790505090506040518060400160405280601e81526020017f736372697074732f676f2d6666692f676f2d6666692d63616e6e6f6e3634000081525081600081518110612a0f57612a0f616d4b565b60200260200101819052506040518060400160405280600481526020017f646966660000000000000000000000000000000000000000000000000000000081525081600181518110612a6357612a63616d4b565b60200260200101819052506040518060400160405280601181526020017f63616e6e6f6e4d656d6f727950726f6f6600000000000000000000000000000081525081600281518110612ab757612ab7616d4b565b60209081029190910101526040517f6900a3ae00000000000000000000000000000000000000000000000000000000815267ffffffffffffffff86166004820152737109709ecfa91a80626ff3989d68f67f5b1dd12d90636900a3ae90602401600060405180830381865afa158015612b34573d6000803e3d6000fd5b505050506040513d6000823e601f3d9081017fffffffffffffffffffffffffffffffffffffffffffffffffffffffffffffffe0168201604052612b7a9190810190616daa565b81600381518110612b8d57612b8d616d4b565b60209081029190910101526040517f6900a3ae00000000000000000000000000000000000000000000000000000000815267ffffffffffffffff85166004820152737109709ecfa91a80626ff3989d68f67f5b1dd12d90636900a3ae906024015b600060405180830381865afa158015612c0b573d6000803e3d6000fd5b505050506040513d6000823e601f3d9081017fffffffffffffffffffffffffffffffffffffffffffffffffffffffffffffffe0168201604052612c519190810190616daa565b81600481518110612c6457612c64616d4b565b60200260200101819052506000612c7a82615f48565b905060008082806020019051810190612c939190616f2f565b9096509450505050505b9250929050565b60408051600980825261014082019092526000916060918391816020015b6060815260200190600190039081612cc25790505090506040518060400160405280601e81526020017f736372697074732f676f2d6666692f676f2d6666692d63616e6e6f6e3634000081525081600081518110612d2257612d22616d4b565b60200260200101819052506040518060400160405280600481526020017f646966660000000000000000000000000000000000000000000000000000000081525081600181518110612d7657612d76616d4b565b60200260200101819052506040518060400160405280601181526020017f63616e6e6f6e4d656d6f727950726f6f6600000000000000000000000000000081525081600281518110612dca57612dca616d4b565b60209081029190910101526040517f6900a3ae00000000000000000000000000000000000000000000000000000000815267ffffffffffffffff8a166004820152737109709ecfa91a80626ff3989d68f67f5b1dd12d90636900a3ae90602401600060405180830381865afa158015612e47573d6000803e3d6000fd5b505050506040513d6000823e601f3d9081017fffffffffffffffffffffffffffffffffffffffffffffffffffffffffffffffe0168201604052612e8d9190810190616daa565b81600381518110612ea057612ea0616d4b565b60209081029190910101526040517f6900a3ae00000000000000000000000000000000000000000000000000000000815267ffffffffffffffff89166004820152737109709ecfa91a80626ff3989d68f67f5b1dd12d90636900a3ae90602401600060405180830381865afa158015612f1d573d6000803e3d6000fd5b505050506040513d6000823e601f3d9081017fffffffffffffffffffffffffffffffffffffffffffffffffffffffffffffffe0168201604052612f639190810190616daa565b81600481518110612f7657612f76616d4b565b60209081029190910101526040517f6900a3ae00000000000000000000000000000000000000000000000000000000815267ffffffffffffffff88166004820152737109709ecfa91a80626ff3989d68f67f5b1dd12d90636900a3ae90602401600060405180830381865afa158015612ff3573d6000803e3d6000fd5b505050506040513d6000823e601f3d9081017fffffffffffffffffffffffffffffffffffffffffffffffffffffffffffffffe01682016040526130399190810190616daa565b8160058151811061304c5761304c616d4b565b60209081029190910101526040517f6900a3ae00000000000000000000000000000000000000000000000000000000815267ffffffffffffffff87166004820152737109709ecfa91a80626ff3989d68f67f5b1dd12d90636900a3ae90602401600060405180830381865afa1580156130c9573d6000803e3d6000fd5b505050506040513d6000823e601f3d9081017fffffffffffffffffffffffffffffffffffffffffffffffffffffffffffffffe016820160405261310f9190810190616daa565b8160068151811061312257613122616d4b565b60209081029190910101526040517f6900a3ae00000000000000000000000000000000000000000000000000000000815267ffffffffffffffff86166004820152737109709ecfa91a80626ff3989d68f67f5b1dd12d90636900a3ae90602401600060405180830381865afa15801561319f573d6000803e3d6000fd5b505050506040513d6000823e601f3d9081017fffffffffffffffffffffffffffffffffffffffffffffffffffffffffffffffe01682016040526131e59190810190616daa565b816007815181106131f8576131f8616d4b565b60209081029190910101526040517f6900a3ae00000000000000000000000000000000000000000000000000000000815267ffffffffffffffff85166004820152737109709ecfa91a80626ff3989d68f67f5b1dd12d90636900a3ae90602401611acf565b60408051600480825260a0820190925260609160009190816020015b60608152602001906001900390816132795790505090506040518060400160405280601581526020017f736372697074732f676f2d6666692f676f2d6666690000000000000000000000815250816000815181106132d9576132d9616d4b565b60200260200101819052506040518060400160405280600481526020017f64696666000000000000000000000000000000000000000000000000000000008152508160018151811061332d5761332d616d4b565b60200260200101819052506040518060400160405280601081526020017f656e636f6465446570656e64656e6379000000000000000000000000000000008152508160028151811061338157613381616d4b565b60209081029190910101526040517f6900a3ae00000000000000000000000000000000000000000000000000000000815260048101849052737109709ecfa91a80626ff3989d68f67f5b1dd12d90636900a3ae90602401600060405180830381865afa1580156133f5573d6000803e3d6000fd5b505050506040513d6000823e601f3d9081017fffffffffffffffffffffffffffffffffffffffffffffffffffffffffffffffe016820160405261343b9190810190616daa565b8160038151811061344e5761344e616d4b565b6020026020010181905250600061346482615f48565b90508080602001905181019061347a9190616f76565b949350505050565b60408051600680825260e08201909252600091606091829182918591816020015b60608152602001906001900390816134a35790505090506040518060400160405280601781526020017f2e2f736372697074732f676f2d6666692f676f2d6666690000000000000000008152508160008151811061350357613503616d4b565b60200260200101819052506040518060400160405280600481526020017f74726965000000000000000000000000000000000000000000000000000000008152508160018151811061355757613557616d4b565b6020026020010181905250858160028151811061357657613576616d4b565b602002602001018190525061358a81615f48565b80602001905181019061359d9190616fcf565b9450945094509450509193509193565b60408051600780825261010082019092526000916060918391816020015b60608152602001906001900390816135cb5790505090506040518060400160405280601581526020017f736372697074732f676f2d6666692f676f2d66666900000000000000000000008152508160008151811061362b5761362b616d4b565b60200260200101819052506040518060400160405280600481526020017f64696666000000000000000000000000000000000000000000000000000000008152508160018151811061367f5761367f616d4b565b60200260200101819052506040518060400160405280601181526020017f63616e6e6f6e4d656d6f727950726f6f66000000000000000000000000000000815250816002815181106111a9576111a9616d4b565b60408051600580825260c082019092526000916060918391816020015b60608152602001906001900390816136f05790505090506040518060400160405280601581526020017f736372697074732f676f2d6666692f676f2d66666900000000000000000000008152508160008151811061375057613750616d4b565b60200260200101819052506040518060400160405280600481526020017f6469666600000000000000000000000000000000000000000000000000000000815250816001815181106137a4576137a4616d4b565b60200260200101819052506040518060400160405280601181526020017f63616e6e6f6e4d656d6f727950726f6f66000000000000000000000000000000815250816002815181106137f8576137f8616d4b565b60209081029190910101526040517f6900a3ae00000000000000000000000000000000000000000000000000000000815263ffffffff86166004820152737109709ecfa91a80626ff3989d68f67f5b1dd12d90636900a3ae90602401600060405180830381865afa158015613871573d6000803e3d6000fd5b505050506040513d6000823e601f3d9081017fffffffffffffffffffffffffffffffffffffffffffffffffffffffffffffffe01682016040526138b79190810190616daa565b816003815181106138ca576138ca616d4b565b60209081029190910101526040517f6900a3ae00000000000000000000000000000000000000000000000000000000815263ffffffff85166004820152737109709ecfa91a80626ff3989d68f67f5b1dd12d90636900a3ae90602401612bee565b60408051600b8082526101808201909252600091829190816020015b60608152602001906001900390816139475790505090506040518060400160405280601581526020017f736372697074732f676f2d6666692f676f2d6666690000000000000000000000815250816000815181106139a7576139a7616d4b565b60200260200101819052506040518060400160405280600481526020017f6469666600000000000000000000000000000000000000000000000000000000815250816001815181106139fb576139fb616d4b565b60200260200101819052506040518060400160405280601681526020017f686173684465706f7369745472616e73616374696f6e0000000000000000000081525081600281518110613a4f57613a4f616d4b565b60200260200101819052506040518060800160405280604281526020016174d36042913981600381518110613a8657613a86616d4b565b60209081029190910101526040517f6900a3ae00000000000000000000000000000000000000000000000000000000815267ffffffffffffffff84166004820152737109709ecfa91a80626ff3989d68f67f5b1dd12d90636900a3ae90602401600060405180830381865afa158015613b03573d6000803e3d6000fd5b505050506040513d6000823e601f3d9081017fffffffffffffffffffffffffffffffffffffffffffffffffffffffffffffffe0168201604052613b499190810190616daa565b81600481518110613b5c57613b5c616d4b565b60209081029190910101526040517f56ca623e00000000000000000000000000000000000000000000000000000000815273ffffffffffffffffffffffffffffffffffffffff8a166004820152737109709ecfa91a80626ff3989d68f67f5b1dd12d906356ca623e90602401600060405180830381865afa158015613be5573d6000803e3d6000fd5b505050506040513d6000823e601f3d9081017fffffffffffffffffffffffffffffffffffffffffffffffffffffffffffffffe0168201604052613c2b9190810190616daa565b81600581518110613c3e57613c3e616d4b565b60209081029190910101526040517f56ca623e00000000000000000000000000000000000000000000000000000000815273ffffffffffffffffffffffffffffffffffffffff89166004820152737109709ecfa91a80626ff3989d68f67f5b1dd12d906356ca623e90602401600060405180830381865afa158015613cc7573d6000803e3d6000fd5b505050506040513d6000823e601f3d9081017fffffffffffffffffffffffffffffffffffffffffffffffffffffffffffffffe0168201604052613d0d9190810190616daa565b81600681518110613d2057613d20616d4b565b60209081029190910101526040517f6900a3ae00000000000000000000000000000000000000000000000000000000815260048101889052737109709ecfa91a80626ff3989d68f67f5b1dd12d90636900a3ae90602401600060405180830381865afa158015613d94573d6000803e3d6000fd5b505050506040513d6000823e601f3d9081017fffffffffffffffffffffffffffffffffffffffffffffffffffffffffffffffe0168201604052613dda9190810190616daa565b81600781518110613ded57613ded616d4b565b60209081029190910101526040517f6900a3ae00000000000000000000000000000000000000000000000000000000815260048101879052737109709ecfa91a80626ff3989d68f67f5b1dd12d90636900a3ae90602401600060405180830381865afa158015613e61573d6000803e3d6000fd5b505050506040513d6000823e601f3d9081017fffffffffffffffffffffffffffffffffffffffffffffffffffffffffffffffe0168201604052613ea79190810190616daa565b81600881518110613eba57613eba616d4b565b60209081029190910101526040517f6900a3ae00000000000000000000000000000000000000000000000000000000815267ffffffffffffffff86166004820152737109709ecfa91a80626ff3989d68f67f5b1dd12d90636900a3ae90602401600060405180830381865afa158015613f37573d6000803e3d6000fd5b505050506040513d6000823e601f3d9081017fffffffffffffffffffffffffffffffffffffffffffffffffffffffffffffffe0168201604052613f7d9190810190616daa565b81600981518110613f9057613f90616d4b565b60209081029190910101526040517f71aad10d000000000000000000000000000000000000000000000000000000008152737109709ecfa91a80626ff3989d68f67f5b1dd12d906371aad10d90613feb9087906004016169a7565b600060405180830381865afa158015614008573d6000803e3d6000fd5b505050506040513d6000823e601f3d9081017fffffffffffffffffffffffffffffffffffffffffffffffffffffffffffffffe016820160405261404e9190810190616daa565b81600a8151811061406157614061616d4b565b6020026020010181905250600061407782615f48565b90508080602001905181019061408d9190616df3565b9a9950505050505050505050565b604080516007808252610100820190925260609160009190816020015b60608152602001906001900390816140b85790505090506040518060400160405280601581526020017f736372697074732f676f2d6666692f676f2d66666900000000000000000000008152508160008151811061411857614118616d4b565b60200260200101819052506040518060400160405280600481526020017f64696666000000000000000000000000000000000000000000000000000000008152508160018151811061416c5761416c616d4b565b60200260200101819052506040518060400160405280601481526020017f656e636f6465476173506179696e67546f6b656e000000000000000000000000815250816002815181106141c0576141c0616d4b565b60209081029190910101526040517f56ca623e00000000000000000000000000000000000000000000000000000000815273ffffffffffffffffffffffffffffffffffffffff87166004820152737109709ecfa91a80626ff3989d68f67f5b1dd12d906356ca623e90602401600060405180830381865afa158015614249573d6000803e3d6000fd5b505050506040513d6000823e601f3d9081017fffffffffffffffffffffffffffffffffffffffffffffffffffffffffffffffe016820160405261428f9190810190616daa565b816003815181106142a2576142a2616d4b565b60209081029190910101526040517f6900a3ae00000000000000000000000000000000000000000000000000000000815260ff86166004820152737109709ecfa91a80626ff3989d68f67f5b1dd12d90636900a3ae90602401600060405180830381865afa158015614318573d6000803e3d6000fd5b505050506040513d6000823e601f3d9081017fffffffffffffffffffffffffffffffffffffffffffffffffffffffffffffffe016820160405261435e9190810190616daa565b8160048151811061437157614371616d4b565b60209081029190910101526040517fb11a19e800000000000000000000000000000000000000000000000000000000815260048101859052737109709ecfa91a80626ff3989d68f67f5b1dd12d9063b11a19e890602401600060405180830381865afa1580156143e5573d6000803e3d6000fd5b505050506040513d6000823e601f3d9081017fffffffffffffffffffffffffffffffffffffffffffffffffffffffffffffffe016820160405261442b9190810190616daa565b8160058151811061443e5761443e616d4b565b60209081029190910101526040517fb11a19e800000000000000000000000000000000000000000000000000000000815260048101849052737109709ecfa91a80626ff3989d68f67f5b1dd12d9063b11a19e890602401600060405180830381865afa1580156144b2573d6000803e3d6000fd5b505050506040513d6000823e601f3d9081017fffffffffffffffffffffffffffffffffffffffffffffffffffffffffffffffe01682016040526144f89190810190616daa565b8160068151811061450b5761450b616d4b565b6020026020010181905250600061452182615f48565b9050808060200190518101906145379190616f76565b979650505050505050565b60408051600880825261012082019092526000916060918391816020015b60608152602001906001900390816145605790505090506040518060400160405280601581526020017f736372697074732f676f2d6666692f676f2d6666690000000000000000000000815250816000815181106145c0576145c0616d4b565b60200260200101819052506040518060400160405280600481526020017f64696666000000000000000000000000000000000000000000000000000000008152508160018151811061461457614614616d4b565b60200260200101819052506040518060400160405280601281526020017f63616e6e6f6e4d656d6f727950726f6f663200000000000000000000000000008152508160028151811061466857614668616d4b565b60209081029190910101526040517f6900a3ae00000000000000000000000000000000000000000000000000000000815263ffffffff89166004820152737109709ecfa91a80626ff3989d68f67f5b1dd12d90636900a3ae90602401600060405180830381865afa1580156146e1573d6000803e3d6000fd5b505050506040513d6000823e601f3d9081017fffffffffffffffffffffffffffffffffffffffffffffffffffffffffffffffe01682016040526147279190810190616daa565b8160038151811061473a5761473a616d4b565b60209081029190910101526040517f6900a3ae00000000000000000000000000000000000000000000000000000000815263ffffffff88166004820152737109709ecfa91a80626ff3989d68f67f5b1dd12d90636900a3ae90602401600060405180830381865afa1580156147b3573d6000803e3d6000fd5b505050506040513d6000823e601f3d9081017fffffffffffffffffffffffffffffffffffffffffffffffffffffffffffffffe01682016040526147f99190810190616daa565b8160048151811061480c5761480c616d4b565b60209081029190910101526040517f6900a3ae00000000000000000000000000000000000000000000000000000000815263ffffffff87166004820152737109709ecfa91a80626ff3989d68f67f5b1dd12d90636900a3ae90602401600060405180830381865afa158015614885573d6000803e3d6000fd5b505050506040513d6000823e601f3d9081017fffffffffffffffffffffffffffffffffffffffffffffffffffffffffffffffe01682016040526148cb9190810190616daa565b816005815181106148de576148de616d4b565b60209081029190910101526040517f6900a3ae00000000000000000000000000000000000000000000000000000000815263ffffffff86166004820152737109709ecfa91a80626ff3989d68f67f5b1dd12d90636900a3ae90602401600060405180830381865afa158015614957573d6000803e3d6000fd5b505050506040513d6000823e601f3d9081017fffffffffffffffffffffffffffffffffffffffffffffffffffffffffffffffe016820160405261499d9190810190616daa565b816006815181106149b0576149b0616d4b565b60209081029190910101526040517f6900a3ae00000000000000000000000000000000000000000000000000000000815263ffffffff85166004820152737109709ecfa91a80626ff3989d68f67f5b1dd12d90636900a3ae90602401612066565b60408051600780825261010082019092526000916060918391816020015b6060815260200190600190039081614a2f5790505090506040518060400160405280601e81526020017f736372697074732f676f2d6666692f676f2d6666692d63616e6e6f6e3634000081525081600081518110614a8f57614a8f616d4b565b60200260200101819052506040518060400160405280600481526020017f646966660000000000000000000000000000000000000000000000000000000081525081600181518110614ae357614ae3616d4b565b60200260200101819052506040518060400160405280601181526020017f63616e6e6f6e4d656d6f727950726f6f6600000000000000000000000000000081525081600281518110614b3757614b37616d4b565b60209081029190910101526040517f6900a3ae00000000000000000000000000000000000000000000000000000000815267ffffffffffffffff88166004820152737109709ecfa91a80626ff3989d68f67f5b1dd12d90636900a3ae90602401600060405180830381865afa158015614bb4573d6000803e3d6000fd5b505050506040513d6000823e601f3d9081017fffffffffffffffffffffffffffffffffffffffffffffffffffffffffffffffe0168201604052614bfa9190810190616daa565b81600381518110614c0d57614c0d616d4b565b60209081029190910101526040517f6900a3ae00000000000000000000000000000000000000000000000000000000815267ffffffffffffffff87166004820152737109709ecfa91a80626ff3989d68f67f5b1dd12d90636900a3ae90602401600060405180830381865afa158015614c8a573d6000803e3d6000fd5b505050506040513d6000823e601f3d9081017fffffffffffffffffffffffffffffffffffffffffffffffffffffffffffffffe0168201604052614cd09190810190616daa565b81600481518110614ce357614ce3616d4b565b60209081029190910101526040517f6900a3ae00000000000000000000000000000000000000000000000000000000815267ffffffffffffffff86166004820152737109709ecfa91a80626ff3989d68f67f5b1dd12d90636900a3ae90602401600060405180830381865afa158015614d60573d6000803e3d6000fd5b505050506040513d6000823e601f3d9081017fffffffffffffffffffffffffffffffffffffffffffffffffffffffffffffffe0168201604052614da69190810190616daa565b81600581518110614db957614db9616d4b565b60209081029190910101526040517f6900a3ae00000000000000000000000000000000000000000000000000000000815267ffffffffffffffff85166004820152737109709ecfa91a80626ff3989d68f67f5b1dd12d90636900a3ae9060240161147c565b60408051600480825260a0820190925260009182918291816020015b6060815260200190600190039081614e3a5790505090506040518060400160405280601581526020017f736372697074732f676f2d6666692f676f2d666669000000000000000000000081525081600081518110614e9a57614e9a616d4b565b60200260200101819052506040518060400160405280600481526020017f646966660000000000000000000000000000000000000000000000000000000081525081600181518110614eee57614eee616d4b565b60200260200101819052506040518060400160405280601381526020017f6465636f64655363616c617245636f746f6e650000000000000000000000000081525081600281518110614f4257614f42616d4b565b60209081029190910101526040517fb11a19e800000000000000000000000000000000000000000000000000000000815260048101859052737109709ecfa91a80626ff3989d68f67f5b1dd12d9063b11a19e890602401600060405180830381865afa158015614fb6573d6000803e3d6000fd5b505050506040513d6000823e601f3d9081017fffffffffffffffffffffffffffffffffffffffffffffffffffffffffffffffe0168201604052614ffc9190810190616daa565b8160038151811061500f5761500f616d4b565b6020026020010181905250600061502582615f48565b9050808060200190518101906129879190617061565b6040805160098082526101408201909252600091829190816020015b60608152602001906001900390816150575790505090506040518060400160405280601581526020017f736372697074732f676f2d6666692f676f2d6666690000000000000000000000815250816000815181106150b7576150b7616d4b565b60200260200101819052506040518060400160405280600481526020017f64696666000000000000000000000000000000000000000000000000000000008152508160018151811061510b5761510b616d4b565b60200260200101819052506040518060400160405280600e81526020017f686173685769746864726177616c000000000000000000000000000000000000815250816002815181106104cd576104cd616d4b565b6040805160078082526101008201909252600091829190816020015b606081526020019060019003908161517b5790505090506040518060400160405280601581526020017f736372697074732f676f2d6666692f676f2d6666690000000000000000000000815250816000815181106151db576151db616d4b565b60200260200101819052506040518060400160405280600481526020017f64696666000000000000000000000000000000000000000000000000000000008152508160018151811061522f5761522f616d4b565b60200260200101819052506040518060400160405280601381526020017f686173684f7574707574526f6f7450726f6f66000000000000000000000000008152508160028151811061528357615283616d4b565b602090810291909101015261529786615f5b565b816003815181106152aa576152aa616d4b565b60209081029190910101526152be85615f5b565b816004815181106152d1576152d1616d4b565b60209081029190910101526152e584615f5b565b816005815181106152f8576152f8616d4b565b602090810291909101015261530c83615f5b565b8160068151811061531f5761531f616d4b565b6020026020010181905250600061533582615f48565b9050808060200190518101906145379190616df3565b60408051600580825260c08201909252600091829190816020015b60608152602001906001900390816153665790505090506040518060400160405280601581526020017f736372697074732f676f2d6666692f676f2d6666690000000000000000000000815250816000815181106153c6576153c6616d4b565b60200260200101819052506040518060400160405280600481526020017f64696666000000000000000000000000000000000000000000000000000000008152508160018151811061541a5761541a616d4b565b60200260200101819052506040518060400160405280601381526020017f656e636f64655363616c617245636f746f6e65000000000000000000000000008152508160028151811061546e5761546e616d4b565b60209081029190910101526040517f6900a3ae00000000000000000000000000000000000000000000000000000000815263ffffffff85166004820152737109709ecfa91a80626ff3989d68f67f5b1dd12d90636900a3ae90602401600060405180830381865afa1580156154e7573d6000803e3d6000fd5b505050506040513d6000823e601f3d9081017fffffffffffffffffffffffffffffffffffffffffffffffffffffffffffffffe016820160405261552d9190810190616daa565b8160038151811061554057615540616d4b565b60209081029190910101526040517f6900a3ae00000000000000000000000000000000000000000000000000000000815263ffffffff84166004820152737109709ecfa91a80626ff3989d68f67f5b1dd12d90636900a3ae90602401600060405180830381865afa1580156155b9573d6000803e3d6000fd5b505050506040513d6000823e601f3d9081017fffffffffffffffffffffffffffffffffffffffffffffffffffffffffffffffe01682016040526155ff9190810190616daa565b8160048151811061561257615612616d4b565b6020026020010181905250600061562882615f48565b90508080602001905181019061563e9190616df3565b95945050505050565b60408051600c8082526101a0820190925260609160009190816020015b60608152602001906001900390816156645790505090506040518060400160405280601581526020017f736372697074732f676f2d6666692f676f2d6666690000000000000000000000815250816000815181106156c4576156c4616d4b565b60200260200101819052506040518060400160405280600481526020017f64696666000000000000000000000000000000000000000000000000000000008152508160018151811061571857615718616d4b565b60200260200101819052506040518060400160405280601881526020017f656e636f64654465706f7369745472616e73616374696f6e00000000000000008152508160028151811061576c5761576c616d4b565b6020026020010181905250737109709ecfa91a80626ff3989d68f67f5b1dd12d73ffffffffffffffffffffffffffffffffffffffff166356ca623e8460000160208101906157ba9190617090565b6040517fffffffff0000000000000000000000000000000000000000000000000000000060e084901b16815273ffffffffffffffffffffffffffffffffffffffff9091166004820152602401600060405180830381865afa158015615823573d6000803e3d6000fd5b505050506040513d6000823e601f3d9081017fffffffffffffffffffffffffffffffffffffffffffffffffffffffffffffffe01682016040526158699190810190616daa565b8160038151811061587c5761587c616d4b565b6020026020010181905250737109709ecfa91a80626ff3989d68f67f5b1dd12d73ffffffffffffffffffffffffffffffffffffffff166356ca623e8460200160208101906158ca9190617090565b6040517fffffffff0000000000000000000000000000000000000000000000000000000060e084901b16815273ffffffffffffffffffffffffffffffffffffffff9091166004820152602401600060405180830381865afa158015615933573d6000803e3d6000fd5b505050506040513d6000823e601f3d9081017fffffffffffffffffffffffffffffffffffffffffffffffffffffffffffffffe01682016040526159799190810190616daa565b8160048151811061598c5761598c616d4b565b60209081029190910101526040517f6900a3ae00000000000000000000000000000000000000000000000000000000815260608401356004820152737109709ecfa91a80626ff3989d68f67f5b1dd12d90636900a3ae90602401600060405180830381865afa158015615a03573d6000803e3d6000fd5b505050506040513d6000823e601f3d9081017fffffffffffffffffffffffffffffffffffffffffffffffffffffffffffffffe0168201604052615a499190810190616daa565b81600581518110615a5c57615a5c616d4b565b60209081029190910101526040517f6900a3ae00000000000000000000000000000000000000000000000000000000815260808401356004820152737109709ecfa91a80626ff3989d68f67f5b1dd12d90636900a3ae90602401600060405180830381865afa158015615ad3573d6000803e3d6000fd5b505050506040513d6000823e601f3d9081017fffffffffffffffffffffffffffffffffffffffffffffffffffffffffffffffe0168201604052615b199190810190616daa565b81600681518110615b2c57615b2c616d4b565b6020908102919091010152737109709ecfa91a80626ff3989d68f67f5b1dd12d636900a3ae615b6160c0860160a087016170ab565b6040517fffffffff0000000000000000000000000000000000000000000000000000000060e084901b16815267ffffffffffffffff9091166004820152602401600060405180830381865afa158015615bbe573d6000803e3d6000fd5b505050506040513d6000823e601f3d9081017fffffffffffffffffffffffffffffffffffffffffffffffffffffffffffffffe0168201604052615c049190810190616daa565b81600781518110615c1757615c17616d4b565b6020908102919091010152737109709ecfa91a80626ff3989d68f67f5b1dd12d6371dce7da615c4c60608601604087016170c6565b6040518263ffffffff1660e01b8152600401615c6c911515815260200190565b600060405180830381865afa158015615c89573d6000803e3d6000fd5b505050506040513d6000823e601f3d9081017fffffffffffffffffffffffffffffffffffffffffffffffffffffffffffffffe0168201604052615ccf9190810190616daa565b81600881518110615ce257615ce2616d4b565b6020908102919091010152737109709ecfa91a80626ff3989d68f67f5b1dd12d6371aad10d615d1460c08601866170e8565b6040518363ffffffff1660e01b8152600401615d3192919061714d565b600060405180830381865afa158015615d4e573d6000803e3d6000fd5b505050506040513d6000823e601f3d9081017fffffffffffffffffffffffffffffffffffffffffffffffffffffffffffffffe0168201604052615d949190810190616daa565b81600981518110615da757615da7616d4b565b60209081029190910101526040517fb11a19e800000000000000000000000000000000000000000000000000000000815260e08401356004820152737109709ecfa91a80626ff3989d68f67f5b1dd12d9063b11a19e890602401600060405180830381865afa158015615e1e573d6000803e3d6000fd5b505050506040513d6000823e601f3d9081017fffffffffffffffffffffffffffffffffffffffffffffffffffffffffffffffe0168201604052615e649190810190616daa565b81600a81518110615e7757615e77616d4b565b60209081029190910101526040517f6900a3ae0000000000000000000000000000000000000000000000000000000081526101008401356004820152737109709ecfa91a80626ff3989d68f67f5b1dd12d90636900a3ae90602401600060405180830381865afa158015615eef573d6000803e3d6000fd5b505050506040513d6000823e601f3d9081017fffffffffffffffffffffffffffffffffffffffffffffffffffffffffffffffe0168201604052615f359190810190616daa565b81600b8151811061344e5761344e616d4b565b6060615f55826000615fcb565b92915050565b606081600003615f9e57505060408051808201909152600481527f3078303000000000000000000000000000000000000000000000000000000000602082015290565b8160005b8115615fc15780615fb2816171c9565b915050600882901c9150615fa2565b61347a84826161fb565b6040517ff45c1ce7000000000000000000000000000000000000000000000000000000008152606090600090737109709ecfa91a80626ff3989d68f67f5b1dd12d9063f45c1ce790616021908790600401617201565b6000604051808303816000875af1158015616040573d6000803e3d6000fd5b505050506040513d6000823e601f3d9081017fffffffffffffffffffffffffffffffffffffffffffffffffffffffffffffffe01682016040526160869190810190617281565b9050606060005b85518110156160e657818682815181106160a9576160a9616d4b565b60200260200101516040516020016160c292919061732b565b604051602081830303815290604052915080806160de906171c9565b91505061608d565b50815160030b1561616f57808260400151604051602001616108929190617382565b604080517fffffffffffffffffffffffffffffffffffffffffffffffffffffffffffffffe0818403018152908290527f37eccf6f000000000000000000000000000000000000000000000000000000008252616166916004016169a7565b60405180910390fd5b831580156161d9575060408051808201909152600281527f5b5d0000000000000000000000000000000000000000000000000000000000006020918201528281015180519101207f518674ab2b227e5f11e9084f615d57663cde47bce1ba168b4c19c7ee22a73d70145b156161ef57806040516020016161089190617403565b50602001519392505050565b6060600061620a836002617448565b616215906002617485565b67ffffffffffffffff81111561622d5761622d61646e565b6040519080825280601f01601f191660200182016040528015616257576020820181803683370190505b5090507f30000000000000000000000000000000000000000000000000000000000000008160008151811061628e5761628e616d4b565b60200101907effffffffffffffffffffffffffffffffffffffffffffffffffffffffffffff1916908160001a9053507f7800000000000000000000000000000000000000000000000000000000000000816001815181106162f1576162f1616d4b565b60200101907effffffffffffffffffffffffffffffffffffffffffffffffffffffffffffff1916908160001a905350600061632d846002617448565b616338906001617485565b90505b60018111156163d5577f303132333435363738396162636465660000000000000000000000000000000085600f166010811061637957616379616d4b565b1a60f81b82828151811061638f5761638f616d4b565b60200101907effffffffffffffffffffffffffffffffffffffffffffffffffffffffffffff1916908160001a90535060049490941c936163ce8161749d565b905061633b565b50831561643e576040517f08c379a000000000000000000000000000000000000000000000000000000000815260206004820181905260248201527f537472696e67733a20686578206c656e67746820696e73756666696369656e746044820152606401616166565b9392505050565b803573ffffffffffffffffffffffffffffffffffffffff8116811461646957600080fd5b919050565b7f4e487b7100000000000000000000000000000000000000000000000000000000600052604160045260246000fd5b60405160c0810167ffffffffffffffff811182821017156164c0576164c061646e565b60405290565b6040516060810167ffffffffffffffff811182821017156164c0576164c061646e565b604051601f82017fffffffffffffffffffffffffffffffffffffffffffffffffffffffffffffffe016810167ffffffffffffffff811182821017156165305761653061646e565b604052919050565b600067ffffffffffffffff8211156165525761655261646e565b50601f017fffffffffffffffffffffffffffffffffffffffffffffffffffffffffffffffe01660200190565b600061659161658c84616538565b6164e9565b90508281528383830111156165a557600080fd5b828260208301376000602084830101529392505050565b600082601f8301126165cd57600080fd5b61643e8383356020850161657e565b60008060008060008060c087890312156165f557600080fd5b8635955061660560208801616445565b945061661360408801616445565b9350606087013592506080870135915060a087013567ffffffffffffffff81111561663d57600080fd5b61664989828a016165bc565b9150509295509295509295565b60006020828403121561666857600080fd5b813567ffffffffffffffff8082111561668057600080fd5b9083019060c0828603121561669457600080fd5b61669c61649d565b823581526166ac60208401616445565b60208201526166bd60408401616445565b6040820152606083013560608201526080830135608082015260a0830135828111156166e857600080fd5b6166f4878286016165bc565b60a08301525095945050505050565b60005b8381101561671e578181015183820152602001616706565b8381111561672d576000848401525b50505050565b6000815180845261674b816020860160208601616703565b601f017fffffffffffffffffffffffffffffffffffffffffffffffffffffffffffffffe0169290920160200192915050565b600082825180855260208086019550808260051b84010181860160005b848110156167e6577fffffffffffffffffffffffffffffffffffffffffffffffffffffffffffffffe08684030189526167d4838351616733565b9884019892509083019060010161679a565b5090979650505050505050565b85815284602082015283604082015282606082015260a06080820152600061453760a083018461677d565b63ffffffff8116811461683057600080fd5b50565b6000806000806080858703121561684957600080fd5b84356168548161681e565b935060208501356168648161681e565b925060408501356168748161681e565b915060608501356168848161681e565b939692955090935050565b82815260406020820152600061347a6040830184616733565b60008060008060008060c087890312156168c157600080fd5b86356168cc8161681e565b955060208701356168dc8161681e565b945060408701356168ec8161681e565b935060608701356168fc8161681e565b9250608087013561690c8161681e565b915060a087013561691c8161681e565b809150509295509295509295565b803567ffffffffffffffff8116811461646957600080fd5b600080600080600060a0868803121561695a57600080fd5b6169638661692a565b94506169716020870161692a565b935061697f6040870161692a565b925061698d6060870161692a565b915061699b6080870161692a565b90509295509295909350565b60208152600061643e6020830184616733565b6000602082840312156169cc57600080fd5b5035919050565b600080604083850312156169e657600080fd5b6169ef8361692a565b91506169fd6020840161692a565b90509250929050565b60008060008060008060c08789031215616a1f57600080fd5b616a288761692a565b9550616a366020880161692a565b9450616a446040880161692a565b9350616a526060880161692a565b9250616a606080880161692a565b9150616a6e60a0880161692a565b90509295509295509295565b600060208284031215616a8c57600080fd5b813567ffffffffffffffff811115616aa357600080fd5b8201601f81018413616ab457600080fd5b61347a8482356020840161657e565b848152608060208201526000616adc6080830186616733565b8281036040840152616aee8186616733565b90508281036060840152614537818561677d565b60008060408385031215616b1557600080fd5b8235616b208161681e565b91506020830135616b308161681e565b809150509250929050565b600080600080600080600060e0888a031215616b5657600080fd5b616b5f88616445565b9650616b6d60208901616445565b95506040880135945060608801359350616b896080890161692a565b925060a088013567ffffffffffffffff811115616ba557600080fd5b616bb18a828b016165bc565b925050616bc060c0890161692a565b905092959891949750929550565b60008060008060808587031215616be457600080fd5b616bed85616445565b9350602085013560ff81168114616c0357600080fd5b93969395505050506040820135916060013590565b600080600080600060a08688031215616c3057600080fd5b8535616c3b8161681e565b94506020860135616c4b8161681e565b93506040860135616c5b8161681e565b92506060860135616c6b8161681e565b91506080860135616c7b8161681e565b809150509295509295909350565b60008060008060808587031215616c9f57600080fd5b616ca88561692a565b9350616cb66020860161692a565b9250616cc46040860161692a565b9150616cd26060860161692a565b905092959194509250565b60008060008060808587031215616cf357600080fd5b5050823594602084013594506040840135936060013592509050565b600060208284031215616d2157600080fd5b813567ffffffffffffffff811115616d3857600080fd5b8201610120818503121561643e57600080fd5b7f4e487b7100000000000000000000000000000000000000000000000000000000600052603260045260246000fd5b6000616d8861658c84616538565b9050828152838383011115616d9c57600080fd5b61643e836020830184616703565b600060208284031215616dbc57600080fd5b815167ffffffffffffffff811115616dd357600080fd5b8201601f81018413616de457600080fd5b61347a84825160208401616d7a565b600060208284031215616e0557600080fd5b5051919050565b600082601f830112616e1d57600080fd5b61643e83835160208501616d7a565b600082601f830112616e3d57600080fd5b8151602067ffffffffffffffff80831115616e5a57616e5a61646e565b8260051b616e698382016164e9565b9384528581018301938381019088861115616e8357600080fd5b84880192505b85831015616ebf57825184811115616ea15760008081fd5b616eaf8a87838c0101616e0c565b8352509184019190840190616e89565b98975050505050505050565b600080600080600060a08688031215616ee357600080fd5b85519450602086015193506040860151925060608601519150608086015167ffffffffffffffff811115616f1657600080fd5b616f2288828901616e2c565b9150509295509295909350565b60008060408385031215616f4257600080fd5b82519150602083015167ffffffffffffffff811115616f6057600080fd5b616f6c85828601616e0c565b9150509250929050565b600060208284031215616f8857600080fd5b815167ffffffffffffffff811115616f9f57600080fd5b61347a84828501616e0c565b60008060408385031215616fbe57600080fd5b505080516020909101519092909150565b60008060008060808587031215616fe557600080fd5b84519350602085015167ffffffffffffffff8082111561700457600080fd5b61701088838901616e0c565b9450604087015191508082111561702657600080fd5b61703288838901616e0c565b9350606087015191508082111561704857600080fd5b5061705587828801616e2c565b91505092959194509250565b6000806040838503121561707457600080fd5b825161707f8161681e565b6020840151909250616b308161681e565b6000602082840312156170a257600080fd5b61643e82616445565b6000602082840312156170bd57600080fd5b61643e8261692a565b6000602082840312156170d857600080fd5b8135801515811461643e57600080fd5b60008083357fffffffffffffffffffffffffffffffffffffffffffffffffffffffffffffffe184360301811261711d57600080fd5b83018035915067ffffffffffffffff82111561713857600080fd5b602001915036819003821315612c9d57600080fd5b60208152816020820152818360408301376000818301604090810191909152601f9092017fffffffffffffffffffffffffffffffffffffffffffffffffffffffffffffffe0160101919050565b7f4e487b7100000000000000000000000000000000000000000000000000000000600052601160045260246000fd5b60007fffffffffffffffffffffffffffffffffffffffffffffffffffffffffffffffff82036171fa576171fa61719a565b5060010190565b6000602080830181845280855180835260408601915060408160051b870101925083870160005b82811015617274577fffffffffffffffffffffffffffffffffffffffffffffffffffffffffffffffc0888603018452617262858351616733565b94509285019290850190600101617228565b5092979650505050505050565b60006020828403121561729357600080fd5b815167ffffffffffffffff808211156172ab57600080fd5b90830190606082860312156172bf57600080fd5b6172c76164c6565b82518060030b81146172d857600080fd5b81526020830151828111156172ec57600080fd5b6172f887828601616e0c565b60208301525060408301518281111561731057600080fd5b61731c87828601616e0c565b60408301525095945050505050565b6000835161733d818460208801616703565b835190830190617351818360208801616703565b7f20000000000000000000000000000000000000000000000000000000000000009101908152600101949350505050565b7f436f6d6d616e643a2000000000000000000000000000000000000000000000008152600083516173ba816009850160208801616703565b7f0a4572726f723a2000000000000000000000000000000000000000000000000060099184019182015283516173f7816011840160208801616703565b01601101949350505050565b7f4e6f206f75747075742066726f6d20436f6d6d616e643a20000000000000000081526000825161743b816018850160208701616703565b9190910160180192915050565b6000817fffffffffffffffffffffffffffffffffffffffffffffffffffffffffffffffff04831182151516156174805761748061719a565b500290565b600082198211156174985761749861719a565b500190565b6000816174ac576174ac61719a565b507fffffffffffffffffffffffffffffffffffffffffffffffffffffffffffffffff019056fe30783030303030303030303030303030303030303030303030303030303030303030303030303030303030303030303030303030303030303030303030303030303067657450726f76655769746864726177616c5472616e73616374696f6e496e70757473a164736f6c634300080f000a","linkReferences":{}},"methodIdentifiers":{"decodeScalarEcotone(bytes32)":"c040ff53","decodeVersionedNonce(uint256)":"526dc955","encodeCrossDomainMessage(uint256,address,address,uint256,uint256,bytes)":"498a3c02","encodeDependency(uint256)":"6ddb2730","encodeDepositTransaction((address,address,bool,uint256,uint256,uint64,bytes,bytes32,uint256))":"fc677392","encodeGasPayingToken(address,uint8,bytes32,bytes32)":"92bcb236","encodeScalarEcotone(uint32,uint32)":"ee5c8e1d","getCannonMemory64Proof(uint64,uint64)":"5870f513","getCannonMemory64Proof(uint64,uint64,uint64,uint64)":"b7bafd63","getCannonMemory64Proof(uint64,uint64,uint64,uint64,uint64,uint64)":"6d4779ea","getCannonMemory64Proof2(uint64,uint64,uint64,uint64,uint64)":"42eb241d","getCannonMemoryProof(uint32,uint32)":"83dbaa03","getCannonMemoryProof(uint32,uint32,uint32,uint32)":"7f26c48c","getCannonMemoryProof(uint32,uint32,uint32,uint32,uint32,uint32)":"2a4621ea","getCannonMemoryProof2(uint32,uint32,uint32,uint32,uint32)":"b5351669","getCannonMemoryProofWrongLeaf(uint32,uint32,uint32,uint32)":"2803164a","getMerkleTrieFuzzCase(string)":"7e577a1b","getProveWithdrawalTransactionInputs((uint256,address,address,uint256,uint256,bytes))":"1aac97c1","hashCrossDomainMessage(uint256,address,address,uint256,uint256,bytes)":"00ec31a6","hashDepositTransaction(address,address,uint256,uint256,uint64,bytes,uint64)":"8ccece97","hashOutputRootProof(bytes32,bytes32,bytes32,bytes32)":"dcf5edef","hashWithdrawal(uint256,address,address,uint256,uint256,bytes)":"c21e8865"},"storageLayout":{"storage":[],"types":{}},"userdoc":{"version":1,"kind":"user","errors":{"FfiFailed(string)":[{"notice":"Error for when an ffi command fails."}]},"notice":"This contract is set into state using `etch` and therefore must not have constructor logic.         It also MUST be compiled with `0.8.15` because `vm.getDeployedCode` will break if there         are multiple artifacts for different compiler versions."},"devdoc":{"version":1,"kind":"dev","title":"FFIInterface"},"id":439}