{"abi":[{"type":"function","name":"BATCH_INBOX_SLOT","inputs":[],"outputs":[{"name":"","type":"bytes32","internalType":"bytes32"}],"stateMutability":"view"},{"type":"function","name":"DISPUTE_GAME_FACTORY_SLOT","inputs":[],"outputs":[{"name":"","type":"bytes32","internalType":"bytes32"}],"stateMutability":"view"},{"type":"function","name":"L1_CROSS_DOMAIN_MESSENGER_SLOT","inputs":[],"outputs":[{"name":"","type":"bytes32","internalType":"bytes32"}],"stateMutability":"view"},{"type":"function","name":"L1_ERC_721_BRIDGE_SLOT","inputs":[],"outputs":[{"name":"","type":"bytes32","internalType":"bytes32"}],"stateMutability":"view"},{"type":"function","name":"L1_STANDARD_BRIDGE_SLOT","inputs":[],"outputs":[{"name":"","type":"bytes32","internalType":"bytes32"}],"stateMutability":"view"},{"type":"function","name":"OPTIMISM_MINTABLE_ERC20_FACTORY_SLOT","inputs":[],"outputs":[{"name":"","type":"bytes32","internalType":"bytes32"}],"stateMutability":"view"},{"type":"function","name":"OPTIMISM_PORTAL_SLOT","inputs":[],"outputs":[{"name":"","type":"bytes32","internalType":"bytes32"}],"stateMutability":"view"},{"type":"function","name":"START_BLOCK_SLOT","inputs":[],"outputs":[{"name":"","type":"bytes32","internalType":"bytes32"}],"stateMutability":"view"},{"type":"function","name":"UNSAFE_BLOCK_SIGNER_SLOT","inputs":[],"outputs":[{"name":"","type":"bytes32","internalType":"bytes32"}],"stateMutability":"view"},{"type":"function","name":"VERSION","inputs":[],"outputs":[{"name":"","type":"uint256","internalType":"uint256"}],"stateMutability":"view"},{"type":"function","name":"addDependency","inputs":[{"name":"_chainId","type":"uint256","internalType":"uint256"}],"outputs":[],"stateMutability":"nonpayable"},{"type":"function","name":"basefeeScalar","inputs":[],"outputs":[{"name":"","type":"uint32","internalType":"uint32"}],"stateMutability":"view"},{"type":"function","name":"batchInbox","inputs":[],"outputs":[{"name":"addr_","type":"address","internalType":"address"}],"stateMutability":"view"},{"type":"function","name":"batcherHash","inputs":[],"outputs":[{"name":"","type":"bytes32","internalType":"bytes32"}],"stateMutability":"view"},{"type":"function","name":"blobbasefeeScalar","inputs":[],"outputs":[{"name":"","type":"uint32","internalType":"uint32"}],"stateMutability":"view"},{"type":"function","name":"dependencyManager","inputs":[],"outputs":[{"name":"","type":"address","internalType":"address"}],"stateMutability":"view"},{"type":"function","name":"disputeGameFactory","inputs":[],"outputs":[{"name":"addr_","type":"address","internalType":"address"}],"stateMutability":"view"},{"type":"function","name":"eip1559Denominator","inputs":[],"outputs":[{"name":"","type":"uint32","internalType":"uint32"}],"stateMutability":"view"},{"type":"function","name":"eip1559Elasticity","inputs":[],"outputs":[{"name":"","type":"uint32","internalType":"uint32"}],"stateMutability":"view"},{"type":"function","name":"gasLimit","inputs":[],"outputs":[{"name":"","type":"uint64","internalType":"uint64"}],"stateMutability":"view"},{"type":"function","name":"getAddresses","inputs":[],"outputs":[{"name":"","type":"tuple","internalType":"struct SystemConfig.Addresses","components":[{"name":"l1CrossDomainMessenger","type":"address","internalType":"address"},{"name":"l1ERC721Bridge","type":"address","internalType":"address"},{"name":"l1StandardBridge","type":"address","internalType":"address"},{"name":"disputeGameFactory","type":"address","internalType":"address"},{"name":"optimismPortal","type":"address","internalType":"address"},{"name":"optimismMintableERC20Factory","type":"address","internalType":"address"}]}],"stateMutability":"view"},{"type":"function","name":"initialize","inputs":[{"name":"_owner","type":"address","internalType":"address"},{"name":"_basefeeScalar","type":"uint32","internalType":"uint32"},{"name":"_blobbasefeeScalar","type":"uint32","internalType":"uint32"},{"name":"_batcherHash","type":"bytes32","internalType":"bytes32"},{"name":"_gasLimit","type":"uint64","internalType":"uint64"},{"name":"_unsafeBlockSigner","type":"address","internalType":"address"},{"name":"_config","type":"tuple","internalType":"struct IResourceMetering.ResourceConfig","components":[{"name":"maxResourceLimit","type":"uint32","internalType":"uint32"},{"name":"elasticityMultiplier","type":"uint8","internalType":"uint8"},{"name":"baseFeeMaxChangeDenominator","type":"uint8","internalType":"uint8"},{"name":"minimumBaseFee","type":"uint32","internalType":"uint32"},{"name":"systemTxMaxGas","type":"uint32","internalType":"uint32"},{"name":"maximumBaseFee","type":"uint128","internalType":"uint128"}]},{"name":"_batchInbox","type":"address","internalType":"address"},{"name":"_addresses","type":"tuple","internalType":"struct SystemConfig.Addresses","components":[{"name":"l1CrossDomainMessenger","type":"address","internalType":"address"},{"name":"l1ERC721Bridge","type":"address","internalType":"address"},{"name":"l1StandardBridge","type":"address","internalType":"address"},{"name":"disputeGameFactory","type":"address","internalType":"address"},{"name":"optimismPortal","type":"address","internalType":"address"},{"name":"optimismMintableERC20Factory","type":"address","internalType":"address"}]}],"outputs":[],"stateMutability":"nonpayable"},{"type":"function","name":"initialize","inputs":[{"name":"_owner","type":"address","internalType":"address"},{"name":"_basefeeScalar","type":"uint32","internalType":"uint32"},{"name":"_blobbasefeeScalar","type":"uint32","internalType":"uint32"},{"name":"_batcherHash","type":"bytes32","internalType":"bytes32"},{"name":"_gasLimit","type":"uint64","internalType":"uint64"},{"name":"_unsafeBlockSigner","type":"address","internalType":"address"},{"name":"_config","type":"tuple","internalType":"struct IResourceMetering.ResourceConfig","components":[{"name":"maxResourceLimit","type":"uint32","internalType":"uint32"},{"name":"elasticityMultiplier","type":"uint8","internalType":"uint8"},{"name":"baseFeeMaxChangeDenominator","type":"uint8","internalType":"uint8"},{"name":"minimumBaseFee","type":"uint32","internalType":"uint32"},{"name":"systemTxMaxGas","type":"uint32","internalType":"uint32"},{"name":"maximumBaseFee","type":"uint128","internalType":"uint128"}]},{"name":"_batchInbox","type":"address","internalType":"address"},{"name":"_addresses","type":"tuple","internalType":"struct SystemConfig.Addresses","components":[{"name":"l1CrossDomainMessenger","type":"address","internalType":"address"},{"name":"l1ERC721Bridge","type":"address","internalType":"address"},{"name":"l1StandardBridge","type":"address","internalType":"address"},{"name":"disputeGameFactory","type":"address","internalType":"address"},{"name":"optimismPortal","type":"address","internalType":"address"},{"name":"optimismMintableERC20Factory","type":"address","internalType":"address"}]},{"name":"_dependencyManager","type":"address","internalType":"address"}],"outputs":[],"stateMutability":"nonpayable"},{"type":"function","name":"l1CrossDomainMessenger","inputs":[],"outputs":[{"name":"addr_","type":"address","internalType":"address"}],"stateMutability":"view"},{"type":"function","name":"l1ERC721Bridge","inputs":[],"outputs":[{"name":"addr_","type":"address","internalType":"address"}],"stateMutability":"view"},{"type":"function","name":"l1StandardBridge","inputs":[],"outputs":[{"name":"addr_","type":"address","internalType":"address"}],"stateMutability":"view"},{"type":"function","name":"maximumGasLimit","inputs":[],"outputs":[{"name":"","type":"uint64","internalType":"uint64"}],"stateMutability":"pure"},{"type":"function","name":"minimumGasLimit","inputs":[],"outputs":[{"name":"","type":"uint64","internalType":"uint64"}],"stateMutability":"view"},{"type":"function","name":"optimismMintableERC20Factory","inputs":[],"outputs":[{"name":"addr_","type":"address","internalType":"address"}],"stateMutability":"view"},{"type":"function","name":"optimismPortal","inputs":[],"outputs":[{"name":"addr_","type":"address","internalType":"address"}],"stateMutability":"view"},{"type":"function","name":"overhead","inputs":[],"outputs":[{"name":"","type":"uint256","internalType":"uint256"}],"stateMutability":"view"},{"type":"function","name":"owner","inputs":[],"outputs":[{"name":"","type":"address","internalType":"address"}],"stateMutability":"view"},{"type":"function","name":"removeDependency","inputs":[{"name":"_chainId","type":"uint256","internalType":"uint256"}],"outputs":[],"stateMutability":"nonpayable"},{"type":"function","name":"renounceOwnership","inputs":[],"outputs":[],"stateMutability":"nonpayable"},{"type":"function","name":"resourceConfig","inputs":[],"outputs":[{"name":"","type":"tuple","internalType":"struct IResourceMetering.ResourceConfig","components":[{"name":"maxResourceLimit","type":"uint32","internalType":"uint32"},{"name":"elasticityMultiplier","type":"uint8","internalType":"uint8"},{"name":"baseFeeMaxChangeDenominator","type":"uint8","internalType":"uint8"},{"name":"minimumBaseFee","type":"uint32","internalType":"uint32"},{"name":"systemTxMaxGas","type":"uint32","internalType":"uint32"},{"name":"maximumBaseFee","type":"uint128","internalType":"uint128"}]}],"stateMutability":"view"},{"type":"function","name":"scalar","inputs":[],"outputs":[{"name":"","type":"uint256","internalType":"uint256"}],"stateMutability":"view"},{"type":"function","name":"setBatcherHash","inputs":[{"name":"_batcherHash","type":"bytes32","internalType":"bytes32"}],"outputs":[],"stateMutability":"nonpayable"},{"type":"function","name":"setEIP1559Params","inputs":[{"name":"_denominator","type":"uint32","internalType":"uint32"},{"name":"_elasticity","type":"uint32","internalType":"uint32"}],"outputs":[],"stateMutability":"nonpayable"},{"type":"function","name":"setGasConfig","inputs":[{"name":"_overhead","type":"uint256","internalType":"uint256"},{"name":"_scalar","type":"uint256","internalType":"uint256"}],"outputs":[],"stateMutability":"nonpayable"},{"type":"function","name":"setGasConfigEcotone","inputs":[{"name":"_basefeeScalar","type":"uint32","internalType":"uint32"},{"name":"_blobbasefeeScalar","type":"uint32","internalType":"uint32"}],"outputs":[],"stateMutability":"nonpayable"},{"type":"function","name":"setGasLimit","inputs":[{"name":"_gasLimit","type":"uint64","internalType":"uint64"}],"outputs":[],"stateMutability":"nonpayable"},{"type":"function","name":"setUnsafeBlockSigner","inputs":[{"name":"_unsafeBlockSigner","type":"address","internalType":"address"}],"outputs":[],"stateMutability":"nonpayable"},{"type":"function","name":"startBlock","inputs":[],"outputs":[{"name":"startBlock_","type":"uint256","internalType":"uint256"}],"stateMutability":"view"},{"type":"function","name":"transferOwnership","inputs":[{"name":"newOwner","type":"address","internalType":"address"}],"outputs":[],"stateMutability":"nonpayable"},{"type":"function","name":"unsafeBlockSigner","inputs":[],"outputs":[{"name":"addr_","type":"address","internalType":"address"}],"stateMutability":"view"},{"type":"function","name":"version","inputs":[],"outputs":[{"name":"","type":"string","internalType":"string"}],"stateMutability":"pure"},{"type":"event","name":"ConfigUpdate","inputs":[{"name":"version","type":"uint256","indexed":true,"internalType":"uint256"},{"name":"updateType","type":"uint8","indexed":true,"internalType":"enum SystemConfig.UpdateType"},{"name":"data","type":"bytes","indexed":false,"internalType":"bytes"}],"anonymous":false},{"type":"event","name":"Initialized","inputs":[{"name":"version","type":"uint8","indexed":false,"internalType":"uint8"}],"anonymous":false},{"type":"event","name":"OwnershipTransferred","inputs":[{"name":"previousOwner","type":"address","indexed":true,"internalType":"address"},{"name":"newOwner","type":"address","indexed":true,"internalType":"address"}],"anonymous":false}],"bytecode":{"object":"0x60806040523480156200001157600080fd5b506200005a6200004360017fa11ee3ab75b40e88a0105e935d17cd36c8faee0138320d776c411291bdbbb1a062000130565b60001b6000196200006a60201b620013791760201c565b620000646200006e565b62000156565b9055565b600054610100900460ff1615620000db5760405162461bcd60e51b815260206004820152602760248201527f496e697469616c697a61626c653a20636f6e747261637420697320696e697469604482015266616c697a696e6760c81b606482015260840160405180910390fd5b60005460ff90811610156200012e576000805460ff191660ff9081179091556040519081527f7f26b83ff96e1f2b6a682f133852f6798a09c465da95921460cefb38474024989060200160405180910390a15b565b6000828210156200015157634e487b7160e01b600052601160045260246000fd5b500390565b6126e280620001666000396000f3fe608060405234801561001057600080fd5b506004361061030a5760003560e01c8063bc49ce5f1161019c578063e0e2016d116100ee578063f45e65d811610097578063f8c68de011610071578063f8c68de014610775578063fd32aa0f1461077d578063ffa1ad741461078557600080fd5b8063f45e65d814610745578063f68016b71461074e578063f8c137cb1461076257600080fd5b8063ec707517116100c8578063ec7075171461070a578063f2b4e6171461072a578063f2fde38b1461073257600080fd5b8063e0e2016d146106f1578063e2a3285c146106f9578063e81b2c6d1461070157600080fd5b8063c9ff2d1611610150578063d220a9e01161012a578063d220a9e0146106c6578063da7ebd2a146106d6578063dac6e63a146106e957600080fd5b8063c9ff2d1614610567578063ca407f0c1461057f578063cc731b021461059257600080fd5b8063c0fd4b4111610181578063c0fd4b4114610539578063c4e8ddfa1461054c578063c9b26f611461055457600080fd5b8063bc49ce5f14610500578063bfb14fb71461050857600080fd5b80634add321d11610260578063935f029e11610209578063a7119869116101e3578063a7119869146104d2578063a89c793c146104da578063b40a817c146104ed57600080fd5b8063935f029e146104415780639b7d7f0a14610454578063a39fac121461045c57600080fd5b80635d73369c1161023a5780635d73369c14610413578063715018a61461041b5780638da5cb5b1461042357600080fd5b80634add321d146103cf5780634f16540b146103d757806354fd4d50146103fe57600080fd5b806318d13918116102c257806321d7fde51161029c57806321d7fde5146103ac57806345dac173146103bf57806348cd4cb1146103c757600080fd5b806318d139181461038757806319f5cea81461039c5780631fd19ee1146103a457600080fd5b80630a49cb03116102f35780630a49cb03146103575780630ae14b1b1461035f5780630c18c1621461037e57600080fd5b806306c926571461030f578063078f29cf1461032a575b600080fd5b61031761078d565b6040519081526020015b60405180910390f35b6103326107bb565b60405173ffffffffffffffffffffffffffffffffffffffff9091168152602001610321565b6103326107f4565b630bebc2005b60405167ffffffffffffffff9091168152602001610321565b61031760655481565b61039a610395366004612106565b610824565b005b610317610838565b610332610863565b61039a6103ba36600461213c565b61088d565b6103326108a3565b6103176108cd565b6103656108fd565b6103177f65a7ed542fb37fe237fdfbdd70b31598523fe5b32879e307bae27a0bd9581c0881565b610406610923565b60405161032191906121e9565b610317610983565b61039a6109ae565b60335473ffffffffffffffffffffffffffffffffffffffff16610332565b61039a61044f3660046121fc565b6109c2565b6103326109d4565b610464610a04565b6040516103219190600060c08201905073ffffffffffffffffffffffffffffffffffffffff8084511683528060208501511660208401528060408501511660408401528060608501511660608401528060808501511660808401528060a08501511660a08401525092915050565b610332610b15565b61039a6104e836600461221e565b610b45565b61039a6104fb36600461224f565b610c8c565b610317610c9d565b6068546105249068010000000000000000900463ffffffff1681565b60405163ffffffff9091168152602001610321565b61039a61054736600461213c565b610cc8565b610332610cda565b61039a61056236600461221e565b610d0a565b606a5461052490640100000000900463ffffffff1681565b61039a61058d3660046123db565b610d1b565b6106566040805160c081018252600080825260208201819052918101829052606081018290526080810182905260a0810191909152506040805160c08101825260695463ffffffff8082168352640100000000820460ff9081166020850152650100000000008304169383019390935266010000000000008104831660608301526a0100000000000000000000810490921660808201526e0100000000000000000000000000009091046fffffffffffffffffffffffffffffffff1660a082015290565b6040516103219190600060c08201905063ffffffff80845116835260ff602085015116602084015260ff6040850151166040840152806060850151166060840152806080850151166080840152506fffffffffffffffffffffffffffffffff60a08401511660a083015292915050565b606a546105249063ffffffff1681565b61039a6106e436600461221e565b61108f565b61033261117f565b6103176111af565b6103176111da565b61031760675481565b606854610524906c01000000000000000000000000900463ffffffff1681565b610332611205565b61039a610740366004612106565b611235565b61031760665481565b6068546103659067ffffffffffffffff1681565b61039a61077036600461247f565b6112e9565b610317611323565b61031761134e565b610317600081565b6107b860017fa04c5bb938ca6fc46d95553abf0a76345ce3e722a30bf4f74928b8e7d852320d612564565b81565b60006107ef6107eb60017f9904ba90dde5696cda05c9e0dab5cbaa0fea005ace4d11218a02ac668dad6377612564565b5490565b905090565b60006107ef6107eb60017f4b6c74f9e688cb39801f2112c14a8c57232a3fc5202e1444126d4bce86eb19ad612564565b61082c61137d565b610835816113fe565b50565b6107b860017f46adcbebc6be8ce551740c29c47c8798210f23f7f4086c41752944352568d5a8612564565b60006107ef7f65a7ed542fb37fe237fdfbdd70b31598523fe5b32879e307bae27a0bd9581c085490565b61089561137d565b61089f82826114bb565b5050565b60006107ef7f1708e077affb93e89be2665fb0fb72581be66f84dc00d25fed755ae911905b1c5490565b60006107ef6107eb60017fa11ee3ab75b40e88a0105e935d17cd36c8faee0138320d776c411291bdbbb1a0612564565b6069546000906107ef9063ffffffff6a010000000000000000000082048116911661257b565b606061095f60408051808201909152600581527f322e342e30000000000000000000000000000000000000000000000000000000602082015290565b60405160200161096f91906125a7565b604051602081830303815290604052905090565b6107b860017f383f291819e6d54073bc9a648251d97421076bdd101933c0c022219ce9580637612564565b6109b661137d565b6109c060006115fa565b565b6109ca61137d565b61089f8282611671565b60006107ef6107eb60017fa04c5bb938ca6fc46d95553abf0a76345ce3e722a30bf4f74928b8e7d852320d612564565b6040805160c081018252600080825260208201819052918101829052606081018290526080810182905260a08101919091526040518060c00160405280610a49610b15565b73ffffffffffffffffffffffffffffffffffffffff168152602001610a6c610cda565b73ffffffffffffffffffffffffffffffffffffffff168152602001610a8f6107bb565b73ffffffffffffffffffffffffffffffffffffffff168152602001610ab2611205565b73ffffffffffffffffffffffffffffffffffffffff168152602001610ad56107f4565b73ffffffffffffffffffffffffffffffffffffffff168152602001610af86109d4565b73ffffffffffffffffffffffffffffffffffffffff169052919050565b60006107ef6107eb60017f383f291819e6d54073bc9a648251d97421076bdd101933c0c022219ce9580637612564565b610b4d6108a3565b73ffffffffffffffffffffffffffffffffffffffff163373ffffffffffffffffffffffffffffffffffffffff1614610c0c576040517f08c379a000000000000000000000000000000000000000000000000000000000815260206004820152603260248201527f53797374656d436f6e6669673a2063616c6c6572206973206e6f74207468652060448201527f646570656e64656e6379206d616e61676572000000000000000000000000000060648201526084015b60405180910390fd5b610c146107f4565b73ffffffffffffffffffffffffffffffffffffffff1663c00121636000610c3a84611747565b6040518363ffffffff1660e01b8152600401610c579291906125e8565b600060405180830381600087803b158015610c7157600080fd5b505af1158015610c85573d6000803e3d6000fd5b5050505050565b610c9461137d565b61083581611772565b6107b860017f71ac12829d66ee73d8d95bff50b3589745ce57edae70a3fb111a2342464dc598612564565b610cd061137d565b61089f82826118c8565b60006107ef6107eb60017f46adcbebc6be8ce551740c29c47c8798210f23f7f4086c41752944352568d5a8612564565b610d1261137d565b61083581611a9a565b600054610100900460ff1615808015610d3b5750600054600160ff909116105b80610d555750303b158015610d55575060005460ff166001145b610de1576040517f08c379a000000000000000000000000000000000000000000000000000000000815260206004820152602e60248201527f496e697469616c697a61626c653a20636f6e747261637420697320616c72656160448201527f647920696e697469616c697a65640000000000000000000000000000000000006064820152608401610c03565b600080547fffffffffffffffffffffffffffffffffffffffffffffffffffffffffffffff001660011790558015610e3f57600080547fffffffffffffffffffffffffffffffffffffffffffffffffffffffffffff00ff166101001790555b610e47611ac2565b610e508a611235565b610e5987611a9a565b610e6389896114bb565b610e6c86611772565b610e957f65a7ed542fb37fe237fdfbdd70b31598523fe5b32879e307bae27a0bd9581c08869055565b610ec8610ec360017f71ac12829d66ee73d8d95bff50b3589745ce57edae70a3fb111a2342464dc598612564565b849055565b610efc610ef660017f383f291819e6d54073bc9a648251d97421076bdd101933c0c022219ce9580637612564565b83519055565b610f33610f2a60017f46adcbebc6be8ce551740c29c47c8798210f23f7f4086c41752944352568d5a8612564565b60208401519055565b610f6a610f6160017f9904ba90dde5696cda05c9e0dab5cbaa0fea005ace4d11218a02ac668dad6377612564565b60408401519055565b610fa1610f9860017f52322a25d9f59ea17656545543306b7aef62bc0cc53a0e65ccfa0c75b97aa907612564565b60608401519055565b610fd8610fcf60017f4b6c74f9e688cb39801f2112c14a8c57232a3fc5202e1444126d4bce86eb19ad612564565b60808401519055565b61100f61100660017fa04c5bb938ca6fc46d95553abf0a76345ce3e722a30bf4f74928b8e7d852320d612564565b60a08401519055565b611017611b61565b61102084611bc9565b801561108357600080547fffffffffffffffffffffffffffffffffffffffffffffffffffffffffffff00ff169055604051600181527f7f26b83ff96e1f2b6a682f133852f6798a09c465da95921460cefb38474024989060200160405180910390a15b50505050505050505050565b6110976108a3565b73ffffffffffffffffffffffffffffffffffffffff163373ffffffffffffffffffffffffffffffffffffffff1614611151576040517f08c379a000000000000000000000000000000000000000000000000000000000815260206004820152603260248201527f53797374656d436f6e6669673a2063616c6c6572206973206e6f74207468652060448201527f646570656e64656e6379206d616e6167657200000000000000000000000000006064820152608401610c03565b6111596107f4565b73ffffffffffffffffffffffffffffffffffffffff1663c00121636001610c3a84611747565b60006107ef6107eb60017f71ac12829d66ee73d8d95bff50b3589745ce57edae70a3fb111a2342464dc598612564565b6107b860017fa11ee3ab75b40e88a0105e935d17cd36c8faee0138320d776c411291bdbbb1a0612564565b6107b860017f52322a25d9f59ea17656545543306b7aef62bc0cc53a0e65ccfa0c75b97aa907612564565b60006107ef6107eb60017f52322a25d9f59ea17656545543306b7aef62bc0cc53a0e65ccfa0c75b97aa907612564565b61123d61137d565b73ffffffffffffffffffffffffffffffffffffffff81166112e0576040517f08c379a000000000000000000000000000000000000000000000000000000000815260206004820152602660248201527f4f776e61626c653a206e6577206f776e657220697320746865207a65726f206160448201527f64647265737300000000000000000000000000000000000000000000000000006064820152608401610c03565b610835816115fa565b6112fa8a8a8a8a8a8a8a8a8a610d1b565b6110837f1708e077affb93e89be2665fb0fb72581be66f84dc00d25fed755ae911905b1c829055565b6107b860017f9904ba90dde5696cda05c9e0dab5cbaa0fea005ace4d11218a02ac668dad6377612564565b6107b860017f4b6c74f9e688cb39801f2112c14a8c57232a3fc5202e1444126d4bce86eb19ad612564565b9055565b60335473ffffffffffffffffffffffffffffffffffffffff1633146109c0576040517f08c379a000000000000000000000000000000000000000000000000000000000815260206004820181905260248201527f4f776e61626c653a2063616c6c6572206973206e6f7420746865206f776e65726044820152606401610c03565b6114277f65a7ed542fb37fe237fdfbdd70b31598523fe5b32879e307bae27a0bd9581c08829055565b6040805173ffffffffffffffffffffffffffffffffffffffff8316602082015260009101604080517fffffffffffffffffffffffffffffffffffffffffffffffffffffffffffffffe0818403018152919052905060035b60007f1d2b0bda21d56b8bd12d4f94ebacffdfb35f5e226f84b461103bb8beab6353be836040516114af91906121e9565b60405180910390a35050565b606880547fffffffffffffffffffffffffffffffff0000000000000000ffffffffffffffff166801000000000000000063ffffffff8581169182027fffffffffffffffffffffffffffffffff00000000ffffffffffffffffffffffff16929092176c0100000000000000000000000092851692909202919091179091557f0100000000000000000000000000000000000000000000000000000000000000602083811b67ffffffff000000001690921717606681905560655460408051938401919091528201526000906060015b604080517fffffffffffffffffffffffffffffffffffffffffffffffffffffffffffffffe0818403018152919052905060015b60007f1d2b0bda21d56b8bd12d4f94ebacffdfb35f5e226f84b461103bb8beab6353be836040516115ed91906121e9565b60405180910390a3505050565b6033805473ffffffffffffffffffffffffffffffffffffffff8381167fffffffffffffffffffffffff0000000000000000000000000000000000000000831681179093556040519116919082907f8be0079c531659141344cd1fd0a4f28419497f9722a3daafe3b4186f6b6457e090600090a35050565b7fff00000000000000000000000000000000000000000000000000000000000000811615611721576040517f08c379a000000000000000000000000000000000000000000000000000000000815260206004820152602160248201527f53797374656d436f6e6669673a207363616c61722065786365656473206d617860448201527f2e000000000000000000000000000000000000000000000000000000000000006064820152608401610c03565b606582905560668190556040805160208101849052908101829052600090606001611589565b60608160405160200161175c91815260200190565b6040516020818303038152906040529050919050565b61177a6108fd565b67ffffffffffffffff168167ffffffffffffffff1610156117f7576040517f08c379a000000000000000000000000000000000000000000000000000000000815260206004820152601f60248201527f53797374656d436f6e6669673a20676173206c696d697420746f6f206c6f77006044820152606401610c03565b630bebc20067ffffffffffffffff8216111561186f576040517f08c379a000000000000000000000000000000000000000000000000000000000815260206004820181905260248201527f53797374656d436f6e6669673a20676173206c696d697420746f6f20686967686044820152606401610c03565b606880547fffffffffffffffffffffffffffffffffffffffffffffffff00000000000000001667ffffffffffffffff8316908117909155604080516020808201939093528151808203909301835281019052600261147e565b60018263ffffffff16101561195f576040517f08c379a000000000000000000000000000000000000000000000000000000000815260206004820152602660248201527f53797374656d436f6e6669673a2064656e6f6d696e61746f72206d757374206260448201527f65203e3d203100000000000000000000000000000000000000000000000000006064820152608401610c03565b60018163ffffffff1610156119f6576040517f08c379a000000000000000000000000000000000000000000000000000000000815260206004820152602560248201527f53797374656d436f6e6669673a20656c6173746963697479206d75737420626560448201527f203e3d20310000000000000000000000000000000000000000000000000000006064820152608401610c03565b606a805463ffffffff83811664010000000081027fffffffffffffffffffffffffffffffffffffffffffffffff00000000000000009093169186169190911791909117909155604051600091611a6391602086811b67ffffffff0000000016909217910190815260200190565b604080517fffffffffffffffffffffffffffffffffffffffffffffffffffffffffffffffe0818403018152919052905060046115bc565b606781905560408051602080820184905282518083039091018152908201909152600061147e565b600054610100900460ff16611b59576040517f08c379a000000000000000000000000000000000000000000000000000000000815260206004820152602b60248201527f496e697469616c697a61626c653a20636f6e7472616374206973206e6f74206960448201527f6e697469616c697a696e670000000000000000000000000000000000000000006064820152608401610c03565b6109c061203d565b611b8f6107eb60017fa11ee3ab75b40e88a0105e935d17cd36c8faee0138320d776c411291bdbbb1a0612564565b6000036109c0576109c0611bc460017fa11ee3ab75b40e88a0105e935d17cd36c8faee0138320d776c411291bdbbb1a0612564565b439055565b8060a001516fffffffffffffffffffffffffffffffff16816060015163ffffffff161115611c79576040517f08c379a000000000000000000000000000000000000000000000000000000000815260206004820152603560248201527f53797374656d436f6e6669673a206d696e206261736520666565206d7573742060448201527f6265206c657373207468616e206d6178206261736500000000000000000000006064820152608401610c03565b6001816040015160ff1611611d10576040517f08c379a000000000000000000000000000000000000000000000000000000000815260206004820152602f60248201527f53797374656d436f6e6669673a2064656e6f6d696e61746f72206d757374206260448201527f65206c6172676572207468616e203100000000000000000000000000000000006064820152608401610c03565b6068546080820151825167ffffffffffffffff90921691611d319190612640565b63ffffffff161115611d9f576040517f08c379a000000000000000000000000000000000000000000000000000000000815260206004820152601f60248201527f53797374656d436f6e6669673a20676173206c696d697420746f6f206c6f77006044820152606401610c03565b6000816020015160ff1611611e36576040517f08c379a000000000000000000000000000000000000000000000000000000000815260206004820152602f60248201527f53797374656d436f6e6669673a20656c6173746963697479206d756c7469706c60448201527f6965722063616e6e6f74206265203000000000000000000000000000000000006064820152608401610c03565b8051602082015163ffffffff82169160ff90911690611e5690829061265f565b611e6091906126a9565b63ffffffff1614611ef3576040517f08c379a000000000000000000000000000000000000000000000000000000000815260206004820152603760248201527f53797374656d436f6e6669673a20707265636973696f6e206c6f73732077697460448201527f6820746172676574207265736f75726365206c696d69740000000000000000006064820152608401610c03565b805160698054602084015160408501516060860151608087015160a09097015163ffffffff9687167fffffffffffffffffffffffffffffffffffffffffffffffffffffff00000000009095169490941764010000000060ff94851602177fffffffffffffffffffffffffffffffffffffffffffff0000000000ffffffffff166501000000000093909216929092027fffffffffffffffffffffffffffffffffffffffffffff00000000ffffffffffff1617660100000000000091851691909102177fffff0000000000000000000000000000000000000000ffffffffffffffffffff166a010000000000000000000093909416929092027fffff00000000000000000000000000000000ffffffffffffffffffffffffffff16929092176e0100000000000000000000000000006fffffffffffffffffffffffffffffffff90921691909102179055565b600054610100900460ff166120d4576040517f08c379a000000000000000000000000000000000000000000000000000000000815260206004820152602b60248201527f496e697469616c697a61626c653a20636f6e7472616374206973206e6f74206960448201527f6e697469616c697a696e670000000000000000000000000000000000000000006064820152608401610c03565b6109c0336115fa565b803573ffffffffffffffffffffffffffffffffffffffff8116811461210157600080fd5b919050565b60006020828403121561211857600080fd5b612121826120dd565b9392505050565b803563ffffffff8116811461210157600080fd5b6000806040838503121561214f57600080fd5b61215883612128565b915061216660208401612128565b90509250929050565b60005b8381101561218a578181015183820152602001612172565b83811115612199576000848401525b50505050565b600081518084526121b781602086016020860161216f565b601f017fffffffffffffffffffffffffffffffffffffffffffffffffffffffffffffffe0169290920160200192915050565b602081526000612121602083018461219f565b6000806040838503121561220f57600080fd5b50508035926020909101359150565b60006020828403121561223057600080fd5b5035919050565b803567ffffffffffffffff8116811461210157600080fd5b60006020828403121561226157600080fd5b61212182612237565b60405160c0810167ffffffffffffffff811182821017156122b4577f4e487b7100000000000000000000000000000000000000000000000000000000600052604160045260246000fd5b60405290565b803560ff8116811461210157600080fd5b600060c082840312156122dd57600080fd5b6122e561226a565b90506122f082612128565b81526122fe602083016122ba565b602082015261230f604083016122ba565b604082015261232060608301612128565b606082015261233160808301612128565b608082015260a08201356fffffffffffffffffffffffffffffffff8116811461235957600080fd5b60a082015292915050565b600060c0828403121561237657600080fd5b61237e61226a565b9050612389826120dd565b8152612397602083016120dd565b60208201526123a8604083016120dd565b60408201526123b9606083016120dd565b60608201526123ca608083016120dd565b608082015261235960a083016120dd565b60008060008060008060008060006102608a8c0312156123fa57600080fd5b6124038a6120dd565b985061241160208b01612128565b975061241f60408b01612128565b965060608a0135955061243460808b01612237565b945061244260a08b016120dd565b93506124518b60c08c016122cb565b92506124606101808b016120dd565b91506124708b6101a08c01612364565b90509295985092959850929598565b6000806000806000806000806000806102808b8d03121561249f57600080fd5b6124a88b6120dd565b99506124b660208c01612128565b98506124c460408c01612128565b975060608b013596506124d960808c01612237565b95506124e760a08c016120dd565b94506124f68c60c08d016122cb565b93506125056101808c016120dd565b92506125158c6101a08d01612364565b91506125246102608c016120dd565b90509295989b9194979a5092959850565b7f4e487b7100000000000000000000000000000000000000000000000000000000600052601160045260246000fd5b60008282101561257657612576612535565b500390565b600067ffffffffffffffff80831681851680830382111561259e5761259e612535565b01949350505050565b600082516125b981846020870161216f565b7f2b696e7465726f70000000000000000000000000000000000000000000000000920191825250600801919050565b600060028410612621577f4e487b7100000000000000000000000000000000000000000000000000000000600052602160045260246000fd5b83825260406020830152612638604083018461219f565b949350505050565b600063ffffffff80831681851680830382111561259e5761259e612535565b600063ffffffff8084168061269d577f4e487b7100000000000000000000000000000000000000000000000000000000600052601260045260246000fd5b92169190910492915050565b600063ffffffff808316818516818304811182151516156126cc576126cc612535565b0294935050505056fea164736f6c634300080f000a","linkReferences":{}},"methodIdentifiers":{"BATCH_INBOX_SLOT()":"bc49ce5f","DISPUTE_GAME_FACTORY_SLOT()":"e2a3285c","L1_CROSS_DOMAIN_MESSENGER_SLOT()":"5d73369c","L1_ERC_721_BRIDGE_SLOT()":"19f5cea8","L1_STANDARD_BRIDGE_SLOT()":"f8c68de0","OPTIMISM_MINTABLE_ERC20_FACTORY_SLOT()":"06c92657","OPTIMISM_PORTAL_SLOT()":"fd32aa0f","START_BLOCK_SLOT()":"e0e2016d","UNSAFE_BLOCK_SIGNER_SLOT()":"4f16540b","VERSION()":"ffa1ad74","addDependency(uint256)":"a89c793c","basefeeScalar()":"bfb14fb7","batchInbox()":"dac6e63a","batcherHash()":"e81b2c6d","blobbasefeeScalar()":"ec707517","dependencyManager()":"45dac173","disputeGameFactory()":"f2b4e617","eip1559Denominator()":"d220a9e0","eip1559Elasticity()":"c9ff2d16","gasLimit()":"f68016b7","getAddresses()":"a39fac12","initialize(address,uint32,uint32,bytes32,uint64,address,(uint32,uint8,uint8,uint32,uint32,uint128),address,(address,address,address,address,address,address))":"ca407f0c","initialize(address,uint32,uint32,bytes32,uint64,address,(uint32,uint8,uint8,uint32,uint32,uint128),address,(address,address,address,address,address,address),address)":"f8c137cb","l1CrossDomainMessenger()":"a7119869","l1ERC721Bridge()":"c4e8ddfa","l1StandardBridge()":"078f29cf","maximumGasLimit()":"0ae14b1b","minimumGasLimit()":"4add321d","optimismMintableERC20Factory()":"9b7d7f0a","optimismPortal()":"0a49cb03","overhead()":"0c18c162","owner()":"8da5cb5b","removeDependency(uint256)":"da7ebd2a","renounceOwnership()":"715018a6","resourceConfig()":"cc731b02","scalar()":"f45e65d8","setBatcherHash(bytes32)":"c9b26f61","setEIP1559Params(uint32,uint32)":"c0fd4b41","setGasConfig(uint256,uint256)":"935f029e","setGasConfigEcotone(uint32,uint32)":"21d7fde5","setGasLimit(uint64)":"b40a817c","setUnsafeBlockSigner(address)":"18d13918","startBlock()":"48cd4cb1","transferOwnership(address)":"f2fde38b","unsafeBlockSigner()":"1fd19ee1","version()":"54fd4d50"},"storageLayout":{"storage":[{"astId":48135,"contract":"src/L1/SystemConfigInterop.sol:SystemConfigInterop","label":"_initialized","offset":0,"slot":"0","type":"t_uint8"},{"astId":48138,"contract":"src/L1/SystemConfigInterop.sol:SystemConfigInterop","label":"_initializing","offset":1,"slot":"0","type":"t_bool"},{"astId":48563,"contract":"src/L1/SystemConfigInterop.sol:SystemConfigInterop","label":"__gap","offset":0,"slot":"1","type":"t_array(t_uint256)50_storage"},{"astId":48007,"contract":"src/L1/SystemConfigInterop.sol:SystemConfigInterop","label":"_owner","offset":0,"slot":"51","type":"t_address"},{"astId":48127,"contract":"src/L1/SystemConfigInterop.sol:SystemConfigInterop","label":"__gap","offset":0,"slot":"52","type":"t_array(t_uint256)49_storage"},{"astId":98319,"contract":"src/L1/SystemConfigInterop.sol:SystemConfigInterop","label":"overhead","offset":0,"slot":"101","type":"t_uint256"},{"astId":98322,"contract":"src/L1/SystemConfigInterop.sol:SystemConfigInterop","label":"scalar","offset":0,"slot":"102","type":"t_uint256"},{"astId":98325,"contract":"src/L1/SystemConfigInterop.sol:SystemConfigInterop","label":"batcherHash","offset":0,"slot":"103","type":"t_bytes32"},{"astId":98328,"contract":"src/L1/SystemConfigInterop.sol:SystemConfigInterop","label":"gasLimit","offset":0,"slot":"104","type":"t_uint64"},{"astId":98331,"contract":"src/L1/SystemConfigInterop.sol:SystemConfigInterop","label":"basefeeScalar","offset":8,"slot":"104","type":"t_uint32"},{"astId":98334,"contract":"src/L1/SystemConfigInterop.sol:SystemConfigInterop","label":"blobbasefeeScalar","offset":12,"slot":"104","type":"t_uint32"},{"astId":98338,"contract":"src/L1/SystemConfigInterop.sol:SystemConfigInterop","label":"_resourceConfig","offset":0,"slot":"105","type":"t_struct(ResourceConfig)1752_storage"},{"astId":98341,"contract":"src/L1/SystemConfigInterop.sol:SystemConfigInterop","label":"eip1559Denominator","offset":0,"slot":"106","type":"t_uint32"},{"astId":98344,"contract":"src/L1/SystemConfigInterop.sol:SystemConfigInterop","label":"eip1559Elasticity","offset":4,"slot":"106","type":"t_uint32"}],"types":{"t_address":{"encoding":"inplace","label":"address","numberOfBytes":"20"},"t_array(t_uint256)49_storage":{"encoding":"inplace","label":"uint256[49]","numberOfBytes":"1568","base":"t_uint256"},"t_array(t_uint256)50_storage":{"encoding":"inplace","label":"uint256[50]","numberOfBytes":"1600","base":"t_uint256"},"t_bool":{"encoding":"inplace","label":"bool","numberOfBytes":"1"},"t_bytes32":{"encoding":"inplace","label":"bytes32","numberOfBytes":"32"},"t_struct(ResourceConfig)1752_storage":{"encoding":"inplace","label":"struct IResourceMetering.ResourceConfig","numberOfBytes":"32","members":[{"astId":1741,"contract":"src/L1/SystemConfigInterop.sol:SystemConfigInterop","label":"maxResourceLimit","offset":0,"slot":"0","type":"t_uint32"},{"astId":1743,"contract":"src/L1/SystemConfigInterop.sol:SystemConfigInterop","label":"elasticityMultiplier","offset":4,"slot":"0","type":"t_uint8"},{"astId":1745,"contract":"src/L1/SystemConfigInterop.sol:SystemConfigInterop","label":"baseFeeMaxChangeDenominator","offset":5,"slot":"0","type":"t_uint8"},{"astId":1747,"contract":"src/L1/SystemConfigInterop.sol:SystemConfigInterop","label":"minimumBaseFee","offset":6,"slot":"0","type":"t_uint32"},{"astId":1749,"contract":"src/L1/SystemConfigInterop.sol:SystemConfigInterop","label":"systemTxMaxGas","offset":10,"slot":"0","type":"t_uint32"},{"astId":1751,"contract":"src/L1/SystemConfigInterop.sol:SystemConfigInterop","label":"maximumBaseFee","offset":14,"slot":"0","type":"t_uint128"}]},"t_uint128":{"encoding":"inplace","label":"uint128","numberOfBytes":"16"},"t_uint256":{"encoding":"inplace","label":"uint256","numberOfBytes":"32"},"t_uint32":{"encoding":"inplace","label":"uint32","numberOfBytes":"4"},"t_uint64":{"encoding":"inplace","label":"uint64","numberOfBytes":"8"},"t_uint8":{"encoding":"inplace","label":"uint8","numberOfBytes":"1"}}},"userdoc":{"version":1,"kind":"user","methods":{"BATCH_INBOX_SLOT()":{"notice":"Storage slot that the batch inbox address is stored at."},"DISPUTE_GAME_FACTORY_SLOT()":{"notice":"Storage slot for the DisputeGameFactory address."},"L1_CROSS_DOMAIN_MESSENGER_SLOT()":{"notice":"Storage slot that the L1CrossDomainMessenger address is stored at."},"L1_ERC_721_BRIDGE_SLOT()":{"notice":"Storage slot that the L1ERC721Bridge address is stored at."},"L1_STANDARD_BRIDGE_SLOT()":{"notice":"Storage slot that the L1StandardBridge address is stored at."},"OPTIMISM_MINTABLE_ERC20_FACTORY_SLOT()":{"notice":"Storage slot that the OptimismMintableERC20Factory address is stored at."},"OPTIMISM_PORTAL_SLOT()":{"notice":"Storage slot that the OptimismPortal address is stored at."},"START_BLOCK_SLOT()":{"notice":"Storage slot for block at which the op-node can start searching for logs from."},"UNSAFE_BLOCK_SIGNER_SLOT()":{"notice":"Storage slot that the unsafe block signer is stored at.         Storing it at this deterministic storage slot allows for decoupling the storage         layout from the way that `solc` lays out storage. The `op-node` uses a storage         proof to fetch this value."},"VERSION()":{"notice":"Version identifier, used for upgrades."},"addDependency(uint256)":{"notice":"Adds a chain to the interop dependency set. Can only be called by the dependency manager."},"basefeeScalar()":{"notice":"Basefee scalar value. Part of the L2 fee calculation since the Ecotone network upgrade."},"batchInbox()":{"notice":"Getter for the BatchInbox address."},"batcherHash()":{"notice":"Identifier for the batcher.         For version 1 of this configuration, this is represented as an address left-padded         with zeros to 32 bytes."},"blobbasefeeScalar()":{"notice":"Blobbasefee scalar value. Part of the L2 fee calculation since the Ecotone network upgrade."},"dependencyManager()":{"notice":"getter for the dependency manager address"},"disputeGameFactory()":{"notice":"Getter for the DisputeGameFactory address."},"eip1559Denominator()":{"notice":"The EIP-1559 base fee max change denominator."},"eip1559Elasticity()":{"notice":"The EIP-1559 elasticity multiplier."},"gasLimit()":{"notice":"L2 block gas limit."},"getAddresses()":{"notice":"Consolidated getter for the Addresses struct."},"initialize(address,uint32,uint32,bytes32,uint64,address,(uint32,uint8,uint8,uint32,uint32,uint128),address,(address,address,address,address,address,address))":{"notice":"Initializer.         The resource config must be set before the require check."},"initialize(address,uint32,uint32,bytes32,uint64,address,(uint32,uint8,uint8,uint32,uint32,uint128),address,(address,address,address,address,address,address),address)":{"notice":"Initializer."},"l1CrossDomainMessenger()":{"notice":"Getter for the L1CrossDomainMessenger address."},"l1ERC721Bridge()":{"notice":"Getter for the L1ERC721Bridge address."},"l1StandardBridge()":{"notice":"Getter for the L1StandardBridge address."},"maximumGasLimit()":{"notice":"Returns the maximum L2 gas limit that can be safely set for the system to         operate. This bound is used to prevent the gas limit from being set too high         and causing the system to be unable to process and/or prove L2 blocks."},"minimumGasLimit()":{"notice":"Returns the minimum L2 gas limit that can be safely set for the system to         operate. The L2 gas limit must be larger than or equal to the amount of         gas that is allocated for deposits per block plus the amount of gas that         is allocated for the system transaction.         This function is used to determine if changes to parameters are safe."},"optimismMintableERC20Factory()":{"notice":"Getter for the OptimismMintableERC20Factory address."},"optimismPortal()":{"notice":"Getter for the OptimismPortal address."},"overhead()":{"notice":"Fixed L2 gas overhead. Used as part of the L2 fee calculation.         Deprecated since the Ecotone network upgrade"},"removeDependency(uint256)":{"notice":"Removes a chain from the interop dependency set. Can only be called by the dependency manager"},"resourceConfig()":{"notice":"A getter for the resource config.         Ensures that the struct is returned instead of a tuple."},"scalar()":{"notice":"Dynamic L2 gas overhead. Used as part of the L2 fee calculation.         The most significant byte is used to determine the version since the         Ecotone network upgrade."},"setBatcherHash(bytes32)":{"notice":"Updates the batcher hash. Can only be called by the owner."},"setEIP1559Params(uint32,uint32)":{"notice":"Updates the EIP-1559 parameters of the chain. Can only be called by the owner."},"setGasConfig(uint256,uint256)":{"notice":"Updates gas config. Can only be called by the owner.         Deprecated in favor of setGasConfigEcotone since the Ecotone upgrade."},"setGasConfigEcotone(uint32,uint32)":{"notice":"Updates gas config as of the Ecotone upgrade. Can only be called by the owner."},"setGasLimit(uint64)":{"notice":"Updates the L2 gas limit. Can only be called by the owner."},"setUnsafeBlockSigner(address)":{"notice":"Updates the unsafe block signer address. Can only be called by the owner."},"startBlock()":{"notice":"Getter for the StartBlock number."},"unsafeBlockSigner()":{"notice":"High level getter for the unsafe block signer address.         Unsafe blocks can be propagated across the p2p network if they are signed by the         key corresponding to this address."}},"events":{"ConfigUpdate(uint256,uint8,bytes)":{"notice":"Emitted when configuration is updated."}},"notice":"The SystemConfig contract is used to manage configuration of an Optimism network.         All configuration is stored on L1 and picked up by L2 as part of the derviation of         the L2 chain."},"devdoc":{"version":1,"kind":"dev","methods":{"addDependency(uint256)":{"params":{"_chainId":"Chain ID of chain to add."}},"initialize(address,uint32,uint32,bytes32,uint64,address,(uint32,uint8,uint8,uint32,uint32,uint128),address,(address,address,address,address,address,address))":{"params":{"_addresses":"Set of L1 contract addresses. These should be the proxies.","_basefeeScalar":"Initial basefee scalar value.","_batchInbox":"Batch inbox address. An identifier for the op-node to find                           canonical data.","_batcherHash":"Initial batcher hash.","_blobbasefeeScalar":"Initial blobbasefee scalar value.","_config":"Initial ResourceConfig.","_gasLimit":"Initial gas limit.","_owner":"Initial owner of the contract.","_unsafeBlockSigner":"Initial unsafe block signer address."}},"initialize(address,uint32,uint32,bytes32,uint64,address,(uint32,uint8,uint8,uint32,uint32,uint128),address,(address,address,address,address,address,address),address)":{"params":{"_addresses":"Set of L1 contract addresses. These should be the proxies.","_basefeeScalar":"Initial basefee scalar value.","_batchInbox":"Batch inbox address. An identifier for the op-node to find                           canonical data.","_batcherHash":"Initial batcher hash.","_blobbasefeeScalar":"Initial blobbasefee scalar value.","_config":"Initial ResourceConfig.","_dependencyManager":"The addressed allowed to add/remove from the dependency set","_gasLimit":"Initial gas limit.","_owner":"Initial owner of the contract.","_unsafeBlockSigner":"Initial unsafe block signer address."}},"maximumGasLimit()":{"returns":{"_0":"uint64 Maximum gas limit."}},"minimumGasLimit()":{"returns":{"_0":"uint64 Minimum gas limit."}},"owner()":{"details":"Returns the address of the current owner."},"removeDependency(uint256)":{"params":{"_chainId":"Chain ID of the chain to remove."}},"renounceOwnership()":{"details":"Leaves the contract without owner. It will not be possible to call `onlyOwner` functions anymore. Can only be called by the current owner. NOTE: Renouncing ownership will leave the contract without an owner, thereby removing any functionality that is only available to the owner."},"resourceConfig()":{"returns":{"_0":"ResourceConfig"}},"setBatcherHash(bytes32)":{"params":{"_batcherHash":"New batcher hash."}},"setEIP1559Params(uint32,uint32)":{"params":{"_denominator":"EIP-1559 base fee max change denominator.","_elasticity":"EIP-1559 elasticity multiplier."}},"setGasConfig(uint256,uint256)":{"params":{"_overhead":"New overhead value.","_scalar":"New scalar value."}},"setGasConfigEcotone(uint32,uint32)":{"params":{"_basefeeScalar":"New basefeeScalar value.","_blobbasefeeScalar":"New blobbasefeeScalar value."}},"setGasLimit(uint64)":{"params":{"_gasLimit":"New gas limit."}},"setUnsafeBlockSigner(address)":{"params":{"_unsafeBlockSigner":"New unsafe block signer address."}},"transferOwnership(address)":{"details":"Transfers ownership of the contract to a new account (`newOwner`). Can only be called by the current owner."},"unsafeBlockSigner()":{"returns":{"addr_":"Address of the unsafe block signer."}},"version()":{}},"title":"SystemConfigInterop"},"id":212}