{"abi":[{"type":"constructor","inputs":[{"name":"_recipient","type":"address","internalType":"address"},{"name":"_minWithdrawalAmount","type":"uint256","internalType":"uint256"},{"name":"_withdrawalNetwork","type":"uint8","internalType":"enum Types.WithdrawalNetwork"}],"stateMutability":"nonpayable"},{"type":"receive","stateMutability":"payable"},{"type":"function","name":"MIN_WITHDRAWAL_AMOUNT","inputs":[],"outputs":[{"name":"","type":"uint256","internalType":"uint256"}],"stateMutability":"view"},{"type":"function","name":"RECIPIENT","inputs":[],"outputs":[{"name":"","type":"address","internalType":"address"}],"stateMutability":"view"},{"type":"function","name":"WITHDRAWAL_NETWORK","inputs":[],"outputs":[{"name":"","type":"uint8","internalType":"enum Types.WithdrawalNetwork"}],"stateMutability":"view"},{"type":"function","name":"minWithdrawalAmount","inputs":[],"outputs":[{"name":"amount_","type":"uint256","internalType":"uint256"}],"stateMutability":"view"},{"type":"function","name":"recipient","inputs":[],"outputs":[{"name":"recipient_","type":"address","internalType":"address"}],"stateMutability":"view"},{"type":"function","name":"totalProcessed","inputs":[],"outputs":[{"name":"","type":"uint256","internalType":"uint256"}],"stateMutability":"view"},{"type":"function","name":"version","inputs":[],"outputs":[{"name":"","type":"string","internalType":"string"}],"stateMutability":"view"},{"type":"function","name":"withdraw","inputs":[],"outputs":[],"stateMutability":"nonpayable"},{"type":"function","name":"withdrawalNetwork","inputs":[],"outputs":[{"name":"network_","type":"uint8","internalType":"enum Types.WithdrawalNetwork"}],"stateMutability":"view"},{"type":"event","name":"Withdrawal","inputs":[{"name":"value","type":"uint256","indexed":false,"internalType":"uint256"},{"name":"to","type":"address","indexed":false,"internalType":"address"},{"name":"from","type":"address","indexed":false,"internalType":"address"}],"anonymous":false},{"type":"event","name":"Withdrawal","inputs":[{"name":"value","type":"uint256","indexed":false,"internalType":"uint256"},{"name":"to","type":"address","indexed":false,"internalType":"address"},{"name":"from","type":"address","indexed":false,"internalType":"address"},{"name":"withdrawalNetwork","type":"uint8","indexed":false,"internalType":"enum Types.WithdrawalNetwork"}],"anonymous":false}],"bytecode":{"object":"0x60e060405234801561001057600080fd5b5060405161094538038061094583398101604081905261002f91610079565b6001600160a01b03831660a0526080829052828282806001811115610056576100566100cc565b60c081600181111561006a5761006a6100cc565b815250505050505050506100e2565b60008060006060848603121561008e57600080fd5b83516001600160a01b03811681146100a557600080fd5b602085015160408601519194509250600281106100c157600080fd5b809150509250925092565b634e487b7160e01b600052602160045260246000fd5b60805160a05160c0516107ef610156600039600081816101b3015281816102450152818161044b015261048601526000818160b8015281816101800152818161039a01528181610429015281816104c201526105b70152600081816101ef01528181610279015261029d01526107ef6000f3fe60806040526004361061009a5760003560e01c806382356d8a1161006957806384411d651161004e57806384411d651461021d578063d0e12f9014610233578063d3e5792b1461026757600080fd5b806382356d8a146101a45780638312f149146101e057600080fd5b80630d9019e1146100a65780633ccfd60b1461010457806354fd4d501461011b57806366d003ac1461017157600080fd5b366100a157005b600080fd5b3480156100b257600080fd5b506100da7f000000000000000000000000000000000000000000000000000000000000000081565b60405173ffffffffffffffffffffffffffffffffffffffff90911681526020015b60405180910390f35b34801561011057600080fd5b5061011961029b565b005b34801561012757600080fd5b506101646040518060400160405280600c81526020017f312e352e302d626574612e36000000000000000000000000000000000000000081525081565b6040516100fb9190610671565b34801561017d57600080fd5b507f00000000000000000000000000000000000000000000000000000000000000006100da565b3480156101b057600080fd5b507f00000000000000000000000000000000000000000000000000000000000000005b6040516100fb919061074e565b3480156101ec57600080fd5b507f00000000000000000000000000000000000000000000000000000000000000005b6040519081526020016100fb565b34801561022957600080fd5b5061020f60005481565b34801561023f57600080fd5b506101d37f000000000000000000000000000000000000000000000000000000000000000081565b34801561027357600080fd5b5061020f7f000000000000000000000000000000000000000000000000000000000000000081565b7f0000000000000000000000000000000000000000000000000000000000000000471015610376576040517f08c379a000000000000000000000000000000000000000000000000000000000815260206004820152604a60248201527f4665655661756c743a207769746864726177616c20616d6f756e74206d75737460448201527f2062652067726561746572207468616e206d696e696d756d207769746864726160648201527f77616c20616d6f756e7400000000000000000000000000000000000000000000608482015260a4015b60405180910390fd5b60004790508060008082825461038c9190610762565b9091555050604080518281527f000000000000000000000000000000000000000000000000000000000000000073ffffffffffffffffffffffffffffffffffffffff166020820152338183015290517fc8a211cc64b6ed1b50595a9fcb1932b6d1e5a6e8ef15b60e5b1f988ea9086bba9181900360600190a17f38e04cbeb8c10f8f568618aa75be0f10b6729b8b4237743b4de20cbcde2839ee817f0000000000000000000000000000000000000000000000000000000000000000337f000000000000000000000000000000000000000000000000000000000000000060405161047a94939291906107a1565b60405180910390a160017f000000000000000000000000000000000000000000000000000000000000000060018111156104b6576104b66106e4565b0361057a5760006104e77f000000000000000000000000000000000000000000000000000000000000000083610649565b905080610576576040517f08c379a000000000000000000000000000000000000000000000000000000000815260206004820152603060248201527f4665655661756c743a206661696c656420746f2073656e642045544820746f2060448201527f4c322066656520726563697069656e7400000000000000000000000000000000606482015260840161036d565b5050565b6040517fc2b3e5ac00000000000000000000000000000000000000000000000000000000815273ffffffffffffffffffffffffffffffffffffffff7f000000000000000000000000000000000000000000000000000000000000000016600482015262061a80602482015260606044820152600060648201527342000000000000000000000000000000000000169063c2b3e5ac9083906084016000604051808303818588803b15801561062d57600080fd5b505af1158015610641573d6000803e3d6000fd5b505050505050565b6000610656835a8461065d565b9392505050565b6000806000806000858888f1949350505050565b600060208083528351808285015260005b8181101561069e57858101830151858201604001528201610682565b818111156106b0576000604083870101525b50601f017fffffffffffffffffffffffffffffffffffffffffffffffffffffffffffffffe016929092016040019392505050565b7f4e487b7100000000000000000000000000000000000000000000000000000000600052602160045260246000fd5b6002811061074a577f4e487b7100000000000000000000000000000000000000000000000000000000600052602160045260246000fd5b9052565b6020810161075c8284610713565b92915050565b6000821982111561079c577f4e487b7100000000000000000000000000000000000000000000000000000000600052601160045260246000fd5b500190565b84815273ffffffffffffffffffffffffffffffffffffffff848116602083015283166040820152608081016107d96060830184610713565b9594505050505056fea164736f6c634300080f000a","linkReferences":{}},"methodIdentifiers":{"MIN_WITHDRAWAL_AMOUNT()":"d3e5792b","RECIPIENT()":"0d9019e1","WITHDRAWAL_NETWORK()":"d0e12f90","minWithdrawalAmount()":"8312f149","recipient()":"66d003ac","totalProcessed()":"84411d65","version()":"54fd4d50","withdraw()":"3ccfd60b","withdrawalNetwork()":"82356d8a"},"storageLayout":{"storage":[{"astId":99606,"contract":"src/L2/BaseFeeVault.sol:BaseFeeVault","label":"totalProcessed","offset":0,"slot":"0","type":"t_uint256"},{"astId":99611,"contract":"src/L2/BaseFeeVault.sol:BaseFeeVault","label":"__gap","offset":0,"slot":"1","type":"t_array(t_uint256)48_storage"}],"types":{"t_array(t_uint256)48_storage":{"encoding":"inplace","label":"uint256[48]","numberOfBytes":"1536","base":"t_uint256"},"t_uint256":{"encoding":"inplace","label":"uint256","numberOfBytes":"32"}}},"userdoc":{"version":1,"kind":"user","methods":{"MIN_WITHDRAWAL_AMOUNT()":{"notice":"Minimum balance before a withdrawal can be triggered.         Use the `minWithdrawalAmount()` getter as this is deprecated         and is subject to be removed in the future."},"RECIPIENT()":{"notice":"Account that will receive the fees. Can be located on L1 or L2.         Use the `recipient()` getter as this is deprecated         and is subject to be removed in the future."},"WITHDRAWAL_NETWORK()":{"notice":"Network which the recipient will receive fees on.         Use the `withdrawalNetwork()` getter as this is deprecated         and is subject to be removed in the future."},"constructor":{"notice":"Constructs the BaseFeeVault contract."},"minWithdrawalAmount()":{"notice":"Minimum balance before a withdrawal can be triggered."},"recipient()":{"notice":"Account that will receive the fees. Can be located on L1 or L2."},"totalProcessed()":{"notice":"Total amount of wei processed by the contract."},"version()":{"notice":"Semantic version."},"withdraw()":{"notice":"Triggers a withdrawal of funds to the fee wallet on L1 or L2."},"withdrawalNetwork()":{"notice":"Network which the recipient will receive fees on."}},"events":{"Withdrawal(uint256,address,address)":{"notice":"Emitted each time a withdrawal occurs. This event will be deprecated         in favor of the Withdrawal event containing the WithdrawalNetwork parameter."},"Withdrawal(uint256,address,address,uint8)":{"notice":"Emitted each time a withdrawal occurs."}},"notice":"The BaseFeeVault accumulates the base fee that is paid by transactions."},"devdoc":{"version":1,"kind":"dev","methods":{"constructor":{"params":{"_minWithdrawalAmount":"Minimum balance for withdrawals.","_recipient":"Wallet that will receive the fees.","_withdrawalNetwork":"Network which the recipient will receive fees on."}}},"title":"BaseFeeVault"},"id":213}