{"abi":[{"type":"constructor","inputs":[],"stateMutability":"nonpayable"},{"type":"function","name":"GUARDIAN_SLOT","inputs":[],"outputs":[{"name":"","type":"bytes32","internalType":"bytes32"}],"stateMutability":"view"},{"type":"function","name":"PAUSED_SLOT","inputs":[],"outputs":[{"name":"","type":"bytes32","internalType":"bytes32"}],"stateMutability":"view"},{"type":"function","name":"guardian","inputs":[],"outputs":[{"name":"guardian_","type":"address","internalType":"address"}],"stateMutability":"view"},{"type":"function","name":"initialize","inputs":[{"name":"_guardian","type":"address","internalType":"address"},{"name":"_paused","type":"bool","internalType":"bool"}],"outputs":[],"stateMutability":"nonpayable"},{"type":"function","name":"pause","inputs":[{"name":"_identifier","type":"string","internalType":"string"}],"outputs":[],"stateMutability":"nonpayable"},{"type":"function","name":"paused","inputs":[],"outputs":[{"name":"paused_","type":"bool","internalType":"bool"}],"stateMutability":"view"},{"type":"function","name":"unpause","inputs":[],"outputs":[],"stateMutability":"nonpayable"},{"type":"function","name":"version","inputs":[],"outputs":[{"name":"","type":"string","internalType":"string"}],"stateMutability":"view"},{"type":"event","name":"ConfigUpdate","inputs":[{"name":"updateType","type":"uint8","indexed":true,"internalType":"enum SuperchainConfig.UpdateType"},{"name":"data","type":"bytes","indexed":false,"internalType":"bytes"}],"anonymous":false},{"type":"event","name":"Initialized","inputs":[{"name":"version","type":"uint8","indexed":false,"internalType":"uint8"}],"anonymous":false},{"type":"event","name":"Paused","inputs":[{"name":"identifier","type":"string","indexed":false,"internalType":"string"}],"anonymous":false},{"type":"event","name":"Unpaused","inputs":[],"anonymous":false}],"bytecode":{"object":"0x608060405234801561001057600080fd5b5061001961001e565b6100de565b600054610100900460ff161561008a5760405162461bcd60e51b815260206004820152602760248201527f496e697469616c697a61626c653a20636f6e747261637420697320696e697469604482015266616c697a696e6760c81b606482015260840160405180910390fd5b60005460ff90811610156100dc576000805460ff191660ff9081179091556040519081527f7f26b83ff96e1f2b6a682f133852f6798a09c465da95921460cefb38474024989060200160405180910390a15b565b61094b806100ed6000396000f3fe608060405234801561001057600080fd5b50600436106100885760003560e01c80635c975abb1161005b5780635c975abb146101255780636da663551461013d5780637fbf7b6a14610150578063c23a451a1461016657600080fd5b80633f4ba83a1461008d578063400ada7514610097578063452a9320146100aa57806354fd4d50146100dc575b600080fd5b61009561016e565b005b6100956100a5366004610726565b610294565b6100b261046d565b60405173ffffffffffffffffffffffffffffffffffffffff90911681526020015b60405180910390f35b6101186040518060400160405280600581526020017f312e322e3000000000000000000000000000000000000000000000000000000081525081565b6040516100d391906107e8565b61012d6104a6565b60405190151581526020016100d3565b61009561014b366004610831565b6104d6565b6101586105a4565b6040519081526020016100d3565b6101586105d2565b61017661046d565b73ffffffffffffffffffffffffffffffffffffffff163373ffffffffffffffffffffffffffffffffffffffff1614610235576040517f08c379a000000000000000000000000000000000000000000000000000000000815260206004820152602b60248201527f5375706572636861696e436f6e6669673a206f6e6c7920677561726469616e2060448201527f63616e20756e706175736500000000000000000000000000000000000000000060648201526084015b60405180910390fd5b61026961026360017f54176ff9944c4784e5857ec4e5ef560a462c483bf534eda43f91bb01a470b1b7610900565b60009055565b6040517fa45f47fdea8a1efdd9029a5691c7f759c32b7c698632b563573e155625d1693390600090a1565b600054610100900460ff16158080156102b45750600054600160ff909116105b806102ce5750303b1580156102ce575060005460ff166001145b61035a576040517f08c379a000000000000000000000000000000000000000000000000000000000815260206004820152602e60248201527f496e697469616c697a61626c653a20636f6e747261637420697320616c72656160448201527f647920696e697469616c697a6564000000000000000000000000000000000000606482015260840161022c565b600080547fffffffffffffffffffffffffffffffffffffffffffffffffffffffffffffff0016600117905580156103b857600080547fffffffffffffffffffffffffffffffffffffffffffffffffffffffffffff00ff166101001790555b6103c1836105fd565b8115610405576104056040518060400160405280601281526020017f496e697469616c697a65722070617573656400000000000000000000000000008152506106b8565b801561046857600080547fffffffffffffffffffffffffffffffffffffffffffffffffffffffffffff00ff169055604051600181527f7f26b83ff96e1f2b6a682f133852f6798a09c465da95921460cefb38474024989060200160405180910390a15b505050565b60006104a161049d60017fd30e835d3f35624761057ff5b27d558f97bd5be034621e62240e5c0b784abe69610900565b5490565b905090565b60006104a161049d60017f54176ff9944c4784e5857ec4e5ef560a462c483bf534eda43f91bb01a470b1b7610900565b6104de61046d565b73ffffffffffffffffffffffffffffffffffffffff163373ffffffffffffffffffffffffffffffffffffffff1614610598576040517f08c379a000000000000000000000000000000000000000000000000000000000815260206004820152602960248201527f5375706572636861696e436f6e6669673a206f6e6c7920677561726469616e2060448201527f63616e2070617573650000000000000000000000000000000000000000000000606482015260840161022c565b6105a1816106b8565b50565b6105cf60017f54176ff9944c4784e5857ec4e5ef560a462c483bf534eda43f91bb01a470b1b7610900565b81565b6105cf60017fd30e835d3f35624761057ff5b27d558f97bd5be034621e62240e5c0b784abe69610900565b61063061062b60017fd30e835d3f35624761057ff5b27d558f97bd5be034621e62240e5c0b784abe69610900565b829055565b60006040805173ffffffffffffffffffffffffffffffffffffffff841660208201527f7b743789cff01dafdeae47739925425aab5dfd02d0c8229e4a508bcd2b9f42bb9101604080517fffffffffffffffffffffffffffffffffffffffffffffffffffffffffffffffe0818403018152908290526106ad916107e8565b60405180910390a250565b6106ec6106e660017f54176ff9944c4784e5857ec4e5ef560a462c483bf534eda43f91bb01a470b1b7610900565b60019055565b7fc32e6d5d6d1de257f64eac19ddb1f700ba13527983849c9486b1ab007ea283818160405161071b91906107e8565b60405180910390a150565b6000806040838503121561073957600080fd5b823573ffffffffffffffffffffffffffffffffffffffff8116811461075d57600080fd5b91506020830135801515811461077257600080fd5b809150509250929050565b6000815180845260005b818110156107a357602081850181015186830182015201610787565b818111156107b5576000602083870101525b50601f017fffffffffffffffffffffffffffffffffffffffffffffffffffffffffffffffe0169290920160200192915050565b6020815260006107fb602083018461077d565b9392505050565b7f4e487b7100000000000000000000000000000000000000000000000000000000600052604160045260246000fd5b60006020828403121561084357600080fd5b813567ffffffffffffffff8082111561085b57600080fd5b818401915084601f83011261086f57600080fd5b81358181111561088157610881610802565b604051601f82017fffffffffffffffffffffffffffffffffffffffffffffffffffffffffffffffe0908116603f011681019083821181831017156108c7576108c7610802565b816040528281528760208487010111156108e057600080fd5b826020860160208301376000928101602001929092525095945050505050565b600082821015610939577f4e487b7100000000000000000000000000000000000000000000000000000000600052601160045260246000fd5b50039056fea164736f6c634300080f000a","linkReferences":{}},"methodIdentifiers":{"GUARDIAN_SLOT()":"c23a451a","PAUSED_SLOT()":"7fbf7b6a","guardian()":"452a9320","initialize(address,bool)":"400ada75","pause(string)":"6da66355","paused()":"5c975abb","unpause()":"3f4ba83a","version()":"54fd4d50"},"storageLayout":{"storage":[{"astId":49406,"contract":"src/L1/SuperchainConfig.sol:SuperchainConfig","label":"_initialized","offset":0,"slot":"0","type":"t_uint8"},{"astId":49409,"contract":"src/L1/SuperchainConfig.sol:SuperchainConfig","label":"_initializing","offset":1,"slot":"0","type":"t_bool"}],"types":{"t_bool":{"encoding":"inplace","label":"bool","numberOfBytes":"1"},"t_uint8":{"encoding":"inplace","label":"uint8","numberOfBytes":"1"}}},"userdoc":{"version":1,"kind":"user","methods":{"GUARDIAN_SLOT()":{"notice":"The address of the guardian, which can pause withdrawals from the System.         It can only be modified by an upgrade."},"PAUSED_SLOT()":{"notice":"Whether or not the Superchain is paused."},"constructor":{"notice":"Constructs the SuperchainConfig contract."},"guardian()":{"notice":"Getter for the guardian address."},"initialize(address,bool)":{"notice":"Initializer."},"pause(string)":{"notice":"Pauses withdrawals."},"paused()":{"notice":"Getter for the current paused status."},"unpause()":{"notice":"Unpauses withdrawals."},"version()":{"notice":"Semantic version."}},"events":{"ConfigUpdate(uint8,bytes)":{"notice":"Emitted when configuration is updated."},"Paused(string)":{"notice":"Emitted when the pause is triggered."},"Unpaused()":{"notice":"Emitted when the pause is lifted."}},"notice":"The SuperchainConfig contract is used to manage configuration of global superchain values."},"devdoc":{"version":1,"kind":"dev","methods":{"initialize(address,bool)":{"params":{"_guardian":"Address of the guardian, can pause the OptimismPortal.","_paused":"Initial paused status."}},"pause(string)":{"params":{"_identifier":"(Optional) A string to identify provenance of the pause transaction."}}},"events":{"ConfigUpdate(uint8,bytes)":{"params":{"data":"Encoded update data.","updateType":"Type of update."}},"Paused(string)":{"params":{"identifier":"A string helping to identify provenance of the pause transaction."}}},"title":"SuperchainConfig"},"id":210}