{"abi":[{"type":"receive","stateMutability":"payable"},{"type":"function","name":"MESSENGER","inputs":[],"outputs":[{"name":"","type":"address","internalType":"contract ICrossDomainMessenger"}],"stateMutability":"view"},{"type":"function","name":"OTHER_BRIDGE","inputs":[],"outputs":[{"name":"","type":"address","internalType":"contract StandardBridge"}],"stateMutability":"view"},{"type":"function","name":"bridgeERC20","inputs":[{"name":"_localToken","type":"address","internalType":"address"},{"name":"_remoteToken","type":"address","internalType":"address"},{"name":"_amount","type":"uint256","internalType":"uint256"},{"name":"_minGasLimit","type":"uint32","internalType":"uint32"},{"name":"_extraData","type":"bytes","internalType":"bytes"}],"outputs":[],"stateMutability":"nonpayable"},{"type":"function","name":"bridgeERC20To","inputs":[{"name":"_localToken","type":"address","internalType":"address"},{"name":"_remoteToken","type":"address","internalType":"address"},{"name":"_to","type":"address","internalType":"address"},{"name":"_amount","type":"uint256","internalType":"uint256"},{"name":"_minGasLimit","type":"uint32","internalType":"uint32"},{"name":"_extraData","type":"bytes","internalType":"bytes"}],"outputs":[],"stateMutability":"nonpayable"},{"type":"function","name":"bridgeETH","inputs":[{"name":"_minGasLimit","type":"uint32","internalType":"uint32"},{"name":"_extraData","type":"bytes","internalType":"bytes"}],"outputs":[],"stateMutability":"payable"},{"type":"function","name":"bridgeETHTo","inputs":[{"name":"_to","type":"address","internalType":"address"},{"name":"_minGasLimit","type":"uint32","internalType":"uint32"},{"name":"_extraData","type":"bytes","internalType":"bytes"}],"outputs":[],"stateMutability":"payable"},{"type":"function","name":"convert","inputs":[{"name":"_from","type":"address","internalType":"address"},{"name":"_to","type":"address","internalType":"address"},{"name":"_amount","type":"uint256","internalType":"uint256"}],"outputs":[],"stateMutability":"nonpayable"},{"type":"function","name":"deposits","inputs":[{"name":"","type":"address","internalType":"address"},{"name":"","type":"address","internalType":"address"}],"outputs":[{"name":"","type":"uint256","internalType":"uint256"}],"stateMutability":"view"},{"type":"function","name":"finalizeBridgeERC20","inputs":[{"name":"_localToken","type":"address","internalType":"address"},{"name":"_remoteToken","type":"address","internalType":"address"},{"name":"_from","type":"address","internalType":"address"},{"name":"_to","type":"address","internalType":"address"},{"name":"_amount","type":"uint256","internalType":"uint256"},{"name":"_extraData","type":"bytes","internalType":"bytes"}],"outputs":[],"stateMutability":"nonpayable"},{"type":"function","name":"finalizeBridgeETH","inputs":[{"name":"_from","type":"address","internalType":"address"},{"name":"_to","type":"address","internalType":"address"},{"name":"_amount","type":"uint256","internalType":"uint256"},{"name":"_extraData","type":"bytes","internalType":"bytes"}],"outputs":[],"stateMutability":"payable"},{"type":"function","name":"initialize","inputs":[{"name":"_otherBridge","type":"address","internalType":"contract StandardBridge"}],"outputs":[],"stateMutability":"nonpayable"},{"type":"function","name":"l1TokenBridge","inputs":[],"outputs":[{"name":"","type":"address","internalType":"address"}],"stateMutability":"view"},{"type":"function","name":"messenger","inputs":[],"outputs":[{"name":"","type":"address","internalType":"contract ICrossDomainMessenger"}],"stateMutability":"view"},{"type":"function","name":"otherBridge","inputs":[],"outputs":[{"name":"","type":"address","internalType":"contract StandardBridge"}],"stateMutability":"view"},{"type":"function","name":"paused","inputs":[],"outputs":[{"name":"","type":"bool","internalType":"bool"}],"stateMutability":"view"},{"type":"function","name":"version","inputs":[],"outputs":[{"name":"","type":"string","internalType":"string"}],"stateMutability":"pure"},{"type":"function","name":"withdraw","inputs":[{"name":"_l2Token","type":"address","internalType":"address"},{"name":"_amount","type":"uint256","internalType":"uint256"},{"name":"_minGasLimit","type":"uint32","internalType":"uint32"},{"name":"_extraData","type":"bytes","internalType":"bytes"}],"outputs":[],"stateMutability":"payable"},{"type":"function","name":"withdrawTo","inputs":[{"name":"_l2Token","type":"address","internalType":"address"},{"name":"_to","type":"address","internalType":"address"},{"name":"_amount","type":"uint256","internalType":"uint256"},{"name":"_minGasLimit","type":"uint32","internalType":"uint32"},{"name":"_extraData","type":"bytes","internalType":"bytes"}],"outputs":[],"stateMutability":"payable"},{"type":"event","name":"Converted","inputs":[{"name":"from","type":"address","indexed":true,"internalType":"address"},{"name":"to","type":"address","indexed":true,"internalType":"address"},{"name":"caller","type":"address","indexed":true,"internalType":"address"},{"name":"amount","type":"uint256","indexed":false,"internalType":"uint256"}],"anonymous":false},{"type":"event","name":"DepositFinalized","inputs":[{"name":"l1Token","type":"address","indexed":true,"internalType":"address"},{"name":"l2Token","type":"address","indexed":true,"internalType":"address"},{"name":"from","type":"address","indexed":true,"internalType":"address"},{"name":"to","type":"address","indexed":false,"internalType":"address"},{"name":"amount","type":"uint256","indexed":false,"internalType":"uint256"},{"name":"extraData","type":"bytes","indexed":false,"internalType":"bytes"}],"anonymous":false},{"type":"event","name":"ERC20BridgeFinalized","inputs":[{"name":"localToken","type":"address","indexed":true,"internalType":"address"},{"name":"remoteToken","type":"address","indexed":true,"internalType":"address"},{"name":"from","type":"address","indexed":true,"internalType":"address"},{"name":"to","type":"address","indexed":false,"internalType":"address"},{"name":"amount","type":"uint256","indexed":false,"internalType":"uint256"},{"name":"extraData","type":"bytes","indexed":false,"internalType":"bytes"}],"anonymous":false},{"type":"event","name":"ERC20BridgeInitiated","inputs":[{"name":"localToken","type":"address","indexed":true,"internalType":"address"},{"name":"remoteToken","type":"address","indexed":true,"internalType":"address"},{"name":"from","type":"address","indexed":true,"internalType":"address"},{"name":"to","type":"address","indexed":false,"internalType":"address"},{"name":"amount","type":"uint256","indexed":false,"internalType":"uint256"},{"name":"extraData","type":"bytes","indexed":false,"internalType":"bytes"}],"anonymous":false},{"type":"event","name":"ETHBridgeFinalized","inputs":[{"name":"from","type":"address","indexed":true,"internalType":"address"},{"name":"to","type":"address","indexed":true,"internalType":"address"},{"name":"amount","type":"uint256","indexed":false,"internalType":"uint256"},{"name":"extraData","type":"bytes","indexed":false,"internalType":"bytes"}],"anonymous":false},{"type":"event","name":"ETHBridgeInitiated","inputs":[{"name":"from","type":"address","indexed":true,"internalType":"address"},{"name":"to","type":"address","indexed":true,"internalType":"address"},{"name":"amount","type":"uint256","indexed":false,"internalType":"uint256"},{"name":"extraData","type":"bytes","indexed":false,"internalType":"bytes"}],"anonymous":false},{"type":"event","name":"Initialized","inputs":[{"name":"version","type":"uint8","indexed":false,"internalType":"uint8"}],"anonymous":false},{"type":"event","name":"WithdrawalInitiated","inputs":[{"name":"l1Token","type":"address","indexed":true,"internalType":"address"},{"name":"l2Token","type":"address","indexed":true,"internalType":"address"},{"name":"from","type":"address","indexed":true,"internalType":"address"},{"name":"to","type":"address","indexed":false,"internalType":"address"},{"name":"amount","type":"uint256","indexed":false,"internalType":"uint256"},{"name":"extraData","type":"bytes","indexed":false,"internalType":"bytes"}],"anonymous":false},{"type":"error","name":"InvalidDecimals","inputs":[]},{"type":"error","name":"InvalidLegacyERC20Address","inputs":[]},{"type":"error","name":"InvalidSuperchainERC20Address","inputs":[]},{"type":"error","name":"InvalidTokenPair","inputs":[]}],"bytecode":{"object":"0x60806040523480156200001157600080fd5b506200001c62000022565b620000e4565b600054610100900460ff16156200008f5760405162461bcd60e51b815260206004820152602760248201527f496e697469616c697a61626c653a20636f6e747261637420697320696e697469604482015266616c697a696e6760c81b606482015260840160405180910390fd5b60005460ff9081161015620000e2576000805460ff191660ff9081179091556040519081527f7f26b83ff96e1f2b6a682f133852f6798a09c465da95921460cefb38474024989060200160405180910390a15b565b61308180620000f46000396000f3fe60806040526004361061012d5760003560e01c80635c975abb116100a5578063927ede2d11610074578063c4d66de811610059578063c4d66de8146103fa578063c89701a21461041a578063e11013dd1461044757600080fd5b8063927ede2d146103bc578063a3a79548146103e757600080fd5b80635c975abb1461033a5780637f46ddb21461027a57806387087623146103565780638f601f661461037657600080fd5b806332b7006d116100fc5780633cb747bf116100e15780633cb747bf146102cb578063540abf73146102f857806354fd4d501461031857600080fd5b806332b7006d1461026757806336c717c11461027a57600080fd5b80630166a07a1461020157806309fc8843146102215780631635f5fd14610234578063248391ff1461024757600080fd5b366101fc57333b156101c6576040517f08c379a000000000000000000000000000000000000000000000000000000000815260206004820152603760248201527f5374616e646172644272696467653a2066756e6374696f6e2063616e206f6e6c60448201527f792062652063616c6c65642066726f6d20616e20454f4100000000000000000060648201526084015b60405180910390fd5b6101fa73deaddeaddeaddeaddeaddeaddeaddeaddead000033333462030d406040518060200160405280600081525061045a565b005b600080fd5b34801561020d57600080fd5b506101fa61021c3660046129cf565b610535565b6101fa61022f366004612a80565b6108d7565b6101fa610242366004612ad3565b6109ae565b34801561025357600080fd5b506101fa610262366004612b46565b610e00565b6101fa610275366004612b87565b610f99565b34801561028657600080fd5b5060045473ffffffffffffffffffffffffffffffffffffffff165b60405173ffffffffffffffffffffffffffffffffffffffff90911681526020015b60405180910390f35b3480156102d757600080fd5b506003546102a19073ffffffffffffffffffffffffffffffffffffffff1681565b34801561030457600080fd5b506101fa610313366004612bdb565b611073565b34801561032457600080fd5b5061032d6110b8565b6040516102c29190612cc8565b34801561034657600080fd5b50604051600081526020016102c2565b34801561036257600080fd5b506101fa610371366004612cdb565b611118565b34801561038257600080fd5b506103ae610391366004612d5e565b600260209081526000928352604080842090915290825290205481565b6040519081526020016102c2565b3480156103c857600080fd5b5060035473ffffffffffffffffffffffffffffffffffffffff166102a1565b6101fa6103f5366004612cdb565b6111ec565b34801561040657600080fd5b506101fa610415366004612d97565b611230565b34801561042657600080fd5b506004546102a19073ffffffffffffffffffffffffffffffffffffffff1681565b6101fa610455366004612db4565b6113d9565b7fffffffffffffffffffffffff215221522152215221522152215221522153000073ffffffffffffffffffffffffffffffffffffffff8716016104a9576104a48585858585611422565b61052d565b60008673ffffffffffffffffffffffffffffffffffffffff1663c01e1bd66040518163ffffffff1660e01b8152600401602060405180830381865afa1580156104f6573d6000803e3d6000fd5b505050506040513d601f19601f8201168201806040525081019061051a9190612e17565b905061052b878288888888886115ec565b505b505050505050565b60035473ffffffffffffffffffffffffffffffffffffffff1633148015610608575060048054600354604080517f6e296e45000000000000000000000000000000000000000000000000000000008152905173ffffffffffffffffffffffffffffffffffffffff938416949390921692636e296e459282820192602092908290030181865afa1580156105cc573d6000803e3d6000fd5b505050506040513d601f19601f820116820180604052508101906105f09190612e17565b73ffffffffffffffffffffffffffffffffffffffff16145b6106ba576040517f08c379a000000000000000000000000000000000000000000000000000000000815260206004820152604160248201527f5374616e646172644272696467653a2066756e6374696f6e2063616e206f6e6c60448201527f792062652063616c6c65642066726f6d20746865206f7468657220627269646760648201527f6500000000000000000000000000000000000000000000000000000000000000608482015260a4016101bd565b6106c3876119a5565b15610811576106d28787611a07565b610784576040517f08c379a000000000000000000000000000000000000000000000000000000000815260206004820152604a60248201527f5374616e646172644272696467653a2077726f6e672072656d6f746520746f6b60448201527f656e20666f72204f7074696d69736d204d696e7461626c65204552433230206c60648201527f6f63616c20746f6b656e00000000000000000000000000000000000000000000608482015260a4016101bd565b6040517f40c10f1900000000000000000000000000000000000000000000000000000000815273ffffffffffffffffffffffffffffffffffffffff8581166004830152602482018590528816906340c10f1990604401600060405180830381600087803b1580156107f457600080fd5b505af1158015610808573d6000803e3d6000fd5b50505050610893565b73ffffffffffffffffffffffffffffffffffffffff8088166000908152600260209081526040808320938a168352929052205461084f908490612e63565b73ffffffffffffffffffffffffffffffffffffffff8089166000818152600260209081526040808320948c1683529390529190912091909155610893908585611b27565b61052b878787878787878080601f016020809104026020016040519081016040528093929190818152602001838380828437600092019190915250611bfb92505050565b333b15610966576040517f08c379a000000000000000000000000000000000000000000000000000000000815260206004820152603760248201527f5374616e646172644272696467653a2066756e6374696f6e2063616e206f6e6c60448201527f792062652063616c6c65642066726f6d20616e20454f4100000000000000000060648201526084016101bd565b6109a93333348686868080601f01602080910402602001604051908101604052809392919081815260200183838082843760009201919091525061142292505050565b505050565b60035473ffffffffffffffffffffffffffffffffffffffff1633148015610a81575060048054600354604080517f6e296e45000000000000000000000000000000000000000000000000000000008152905173ffffffffffffffffffffffffffffffffffffffff938416949390921692636e296e459282820192602092908290030181865afa158015610a45573d6000803e3d6000fd5b505050506040513d601f19601f82011682018060405250810190610a699190612e17565b73ffffffffffffffffffffffffffffffffffffffff16145b610b33576040517f08c379a000000000000000000000000000000000000000000000000000000000815260206004820152604160248201527f5374616e646172644272696467653a2066756e6374696f6e2063616e206f6e6c60448201527f792062652063616c6c65642066726f6d20746865206f7468657220627269646760648201527f6500000000000000000000000000000000000000000000000000000000000000608482015260a4016101bd565b823414610bc2576040517f08c379a000000000000000000000000000000000000000000000000000000000815260206004820152603a60248201527f5374616e646172644272696467653a20616d6f756e742073656e7420646f657360448201527f206e6f74206d6174636820616d6f756e7420726571756972656400000000000060648201526084016101bd565b3073ffffffffffffffffffffffffffffffffffffffff851603610c67576040517f08c379a000000000000000000000000000000000000000000000000000000000815260206004820152602360248201527f5374616e646172644272696467653a2063616e6e6f742073656e6420746f207360448201527f656c66000000000000000000000000000000000000000000000000000000000060648201526084016101bd565b60035473ffffffffffffffffffffffffffffffffffffffff90811690851603610d12576040517f08c379a000000000000000000000000000000000000000000000000000000000815260206004820152602860248201527f5374616e646172644272696467653a2063616e6e6f742073656e6420746f206d60448201527f657373656e67657200000000000000000000000000000000000000000000000060648201526084016101bd565b610d5485858585858080601f016020809104026020016040519081016040528093929190818152602001838380828437600092019190915250611c8992505050565b6000610d71855a8660405180602001604052806000815250611d2a565b90508061052d576040517f08c379a000000000000000000000000000000000000000000000000000000000815260206004820152602360248201527f5374616e646172644272696467653a20455448207472616e736665722066616960448201527f6c6564000000000000000000000000000000000000000000000000000000000060648201526084016101bd565b610e0a8383611d42565b6040517f9dc29fac0000000000000000000000000000000000000000000000000000000081523360048201526024810182905273ffffffffffffffffffffffffffffffffffffffff841690639dc29fac90604401600060405180830381600087803b158015610e7857600080fd5b505af1158015610e8c573d6000803e3d6000fd5b50506040517f40c10f190000000000000000000000000000000000000000000000000000000081523360048201526024810184905273ffffffffffffffffffffffffffffffffffffffff851692506340c10f199150604401600060405180830381600087803b158015610efe57600080fd5b505af1158015610f12573d6000803e3d6000fd5b505050503373ffffffffffffffffffffffffffffffffffffffff168273ffffffffffffffffffffffffffffffffffffffff168473ffffffffffffffffffffffffffffffffffffffff167ff98522c4d7ccb9de6d7bb8395a567bd90003fe876d577e4d0fd4b53e1ddfedf884604051610f8c91815260200190565b60405180910390a4505050565b333b15611028576040517f08c379a000000000000000000000000000000000000000000000000000000000815260206004820152603760248201527f5374616e646172644272696467653a2066756e6374696f6e2063616e206f6e6c60448201527f792062652063616c6c65642066726f6d20616e20454f4100000000000000000060648201526084016101bd565b61106c853333878787878080601f01602080910402602001604051908101604052809392919081815260200183838082843760009201919091525061045a92505050565b5050505050565b61052b87873388888888888080601f0160208091040260200160405190810160405280939291908181526020018383808284376000920191909152506115ec92505050565b60606110f460408051808201909152600d81527f312e31312e312d626574612e3800000000000000000000000000000000000000602082015290565b6040516020016111049190612e7a565b604051602081830303815290604052905090565b333b156111a7576040517f08c379a000000000000000000000000000000000000000000000000000000000815260206004820152603760248201527f5374616e646172644272696467653a2066756e6374696f6e2063616e206f6e6c60448201527f792062652063616c6c65642066726f6d20616e20454f4100000000000000000060648201526084016101bd565b61052d86863333888888888080601f0160208091040260200160405190810160405280939291908181526020018383808284376000920191909152506115ec92505050565b61052d863387878787878080601f01602080910402602001604051908101604052809392919081815260200183838082843760009201919091525061045a92505050565b600054610100900460ff16158080156112505750600054600160ff909116105b8061126a5750303b15801561126a575060005460ff166001145b6112f6576040517f08c379a000000000000000000000000000000000000000000000000000000000815260206004820152602e60248201527f496e697469616c697a61626c653a20636f6e747261637420697320616c72656160448201527f647920696e697469616c697a656400000000000000000000000000000000000060648201526084016101bd565b600080547fffffffffffffffffffffffffffffffffffffffffffffffffffffffffffffff00166001179055801561135457600080547fffffffffffffffffffffffffffffffffffffffffffffffffffffffffffff00ff166101001790555b61137273420000000000000000000000000000000000000783611e7f565b80156113d557600080547fffffffffffffffffffffffffffffffffffffffffffffffffffffffffffff00ff169055604051600181527f7f26b83ff96e1f2b6a682f133852f6798a09c465da95921460cefb38474024989060200160405180910390a15b5050565b61141c3385348686868080601f01602080910402602001604051908101604052809392919081815260200183838082843760009201919091525061142292505050565b50505050565b8234146114b1576040517f08c379a000000000000000000000000000000000000000000000000000000000815260206004820152603e60248201527f5374616e646172644272696467653a206272696467696e6720455448206d757360448201527f7420696e636c7564652073756666696369656e74204554482076616c7565000060648201526084016101bd565b6114bd85858584611f69565b60035460045460405173ffffffffffffffffffffffffffffffffffffffff92831692633dbb202b9287929116907f1635f5fd0000000000000000000000000000000000000000000000000000000090611520908b908b9086908a90602401612ebb565b604080517fffffffffffffffffffffffffffffffffffffffffffffffffffffffffffffffe08184030181529181526020820180517bffffffffffffffffffffffffffffffffffffffffffffffffffffffff167fffffffff000000000000000000000000000000000000000000000000000000009485161790525160e086901b90921682526115b392918890600401612f04565b6000604051808303818588803b1580156115cc57600080fd5b505af11580156115e0573d6000803e3d6000fd5b50505050505050505050565b341561167a576040517f08c379a000000000000000000000000000000000000000000000000000000000815260206004820152602160248201527f5374616e646172644272696467653a2063616e6e6f742073656e642076616c7560448201527f650000000000000000000000000000000000000000000000000000000000000060648201526084016101bd565b611683876119a5565b156117d1576116928787611a07565b611744576040517f08c379a000000000000000000000000000000000000000000000000000000000815260206004820152604a60248201527f5374616e646172644272696467653a2077726f6e672072656d6f746520746f6b60448201527f656e20666f72204f7074696d69736d204d696e7461626c65204552433230206c60648201527f6f63616c20746f6b656e00000000000000000000000000000000000000000000608482015260a4016101bd565b6040517f9dc29fac00000000000000000000000000000000000000000000000000000000815273ffffffffffffffffffffffffffffffffffffffff868116600483015260248201859052881690639dc29fac90604401600060405180830381600087803b1580156117b457600080fd5b505af11580156117c8573d6000803e3d6000fd5b50505050611865565b6117f373ffffffffffffffffffffffffffffffffffffffff881686308661200a565b73ffffffffffffffffffffffffffffffffffffffff8088166000908152600260209081526040808320938a1683529290522054611831908490612f49565b73ffffffffffffffffffffffffffffffffffffffff8089166000908152600260209081526040808320938b16835292905220555b611873878787878786612068565b60035460045460405173ffffffffffffffffffffffffffffffffffffffff92831692633dbb202b9216907f0166a07a00000000000000000000000000000000000000000000000000000000906118d7908b908d908c908c908c908b90602401612f61565b604080517fffffffffffffffffffffffffffffffffffffffffffffffffffffffffffffffe08184030181529181526020820180517bffffffffffffffffffffffffffffffffffffffffffffffffffffffff167fffffffff000000000000000000000000000000000000000000000000000000009485161790525160e085901b909216825261196a92918790600401612f04565b600060405180830381600087803b15801561198457600080fd5b505af1158015611998573d6000803e3d6000fd5b5050505050505050505050565b60006119d1827f1d1d8b63000000000000000000000000000000000000000000000000000000006120f6565b80611a015750611a01827fec4fc8e3000000000000000000000000000000000000000000000000000000006120f6565b92915050565b6000611a33837f1d1d8b63000000000000000000000000000000000000000000000000000000006120f6565b15611adc578273ffffffffffffffffffffffffffffffffffffffff1663c01e1bd66040518163ffffffff1660e01b8152600401602060405180830381865afa158015611a83573d6000803e3d6000fd5b505050506040513d601f19601f82011682018060405250810190611aa79190612e17565b73ffffffffffffffffffffffffffffffffffffffff168273ffffffffffffffffffffffffffffffffffffffff16149050611a01565b8273ffffffffffffffffffffffffffffffffffffffff1663d6c0b2c46040518163ffffffff1660e01b8152600401602060405180830381865afa158015611a83573d6000803e3d6000fd5b60405173ffffffffffffffffffffffffffffffffffffffff83166024820152604481018290526109a99084907fa9059cbb00000000000000000000000000000000000000000000000000000000906064015b604080517fffffffffffffffffffffffffffffffffffffffffffffffffffffffffffffffe08184030181529190526020810180517bffffffffffffffffffffffffffffffffffffffffffffffffffffffff167fffffffff0000000000000000000000000000000000000000000000000000000090931692909217909152612119565b8373ffffffffffffffffffffffffffffffffffffffff168673ffffffffffffffffffffffffffffffffffffffff168673ffffffffffffffffffffffffffffffffffffffff167fb0444523268717a02698be47d0803aa7468c00acbed2f8bd93a0459cde61dd89868686604051611c7393929190612fbc565b60405180910390a461052d868686868686612225565b8373ffffffffffffffffffffffffffffffffffffffff1673deaddeaddeaddeaddeaddeaddeaddeaddead000073ffffffffffffffffffffffffffffffffffffffff16600073ffffffffffffffffffffffffffffffffffffffff167fb0444523268717a02698be47d0803aa7468c00acbed2f8bd93a0459cde61dd89868686604051611d1693929190612fbc565b60405180910390a461141c848484846122ad565b6000806000835160208501868989f195945050505050565b8073ffffffffffffffffffffffffffffffffffffffff1663313ce5676040518163ffffffff1660e01b8152600401602060405180830381865afa158015611d8d573d6000803e3d6000fd5b505050506040513d601f19601f82011682018060405250810190611db19190612ffa565b60ff168273ffffffffffffffffffffffffffffffffffffffff1663313ce5676040518163ffffffff1660e01b8152600401602060405180830381865afa158015611dff573d6000803e3d6000fd5b505050506040513d601f19601f82011682018060405250810190611e239190612ffa565b60ff1614611e5d576040517fd25598a000000000000000000000000000000000000000000000000000000000815260040160405180910390fd5b611e66826119a5565b15611e75576113d5828261231a565b6113d5818361231a565b600054610100900460ff16611f16576040517f08c379a000000000000000000000000000000000000000000000000000000000815260206004820152602b60248201527f496e697469616c697a61626c653a20636f6e7472616374206973206e6f74206960448201527f6e697469616c697a696e6700000000000000000000000000000000000000000060648201526084016101bd565b6003805473ffffffffffffffffffffffffffffffffffffffff9384167fffffffffffffffffffffffff00000000000000000000000000000000000000009182161790915560048054929093169116179055565b8373ffffffffffffffffffffffffffffffffffffffff1673deaddeaddeaddeaddeaddeaddeaddeaddead000073ffffffffffffffffffffffffffffffffffffffff16600073ffffffffffffffffffffffffffffffffffffffff167f73d170910aba9e6d50b102db522b1dbcd796216f5128b445aa2135272886497e868686604051611ff693929190612fbc565b60405180910390a461141c84848484612567565b60405173ffffffffffffffffffffffffffffffffffffffff8085166024830152831660448201526064810182905261141c9085907f23b872dd0000000000000000000000000000000000000000000000000000000090608401611b79565b8373ffffffffffffffffffffffffffffffffffffffff168673ffffffffffffffffffffffffffffffffffffffff168673ffffffffffffffffffffffffffffffffffffffff167f73d170910aba9e6d50b102db522b1dbcd796216f5128b445aa2135272886497e8686866040516120e093929190612fbc565b60405180910390a461052d8686868686866125c6565b60006121018361263e565b8015612112575061211283836126a2565b9392505050565b600061217b826040518060400160405280602081526020017f5361666545524332303a206c6f772d6c6576656c2063616c6c206661696c65648152508573ffffffffffffffffffffffffffffffffffffffff166127719092919063ffffffff16565b8051909150156109a95780806020019051810190612199919061301d565b6109a9576040517f08c379a000000000000000000000000000000000000000000000000000000000815260206004820152602a60248201527f5361666545524332303a204552433230206f7065726174696f6e20646964206e60448201527f6f7420737563636565640000000000000000000000000000000000000000000060648201526084016101bd565b8373ffffffffffffffffffffffffffffffffffffffff168573ffffffffffffffffffffffffffffffffffffffff168773ffffffffffffffffffffffffffffffffffffffff167fd59c65b35445225835c83f50b6ede06a7be047d22e357073e250d9af537518cd86868660405161229d93929190612fbc565b60405180910390a4505050505050565b8273ffffffffffffffffffffffffffffffffffffffff168473ffffffffffffffffffffffffffffffffffffffff167f31b2166ff604fc5672ea5df08a78081d2bc6d746cadce880747f3643d819e83d848460405161230c92919061303f565b60405180910390a350505050565b6040517f316b373900000000000000000000000000000000000000000000000000000000815273ffffffffffffffffffffffffffffffffffffffff831660048201526000907342000000000000000000000000000000000000129063316b373990602401602060405180830381865afa15801561239b573d6000803e3d6000fd5b505050506040513d601f19601f820116820180604052508101906123bf9190612e17565b905073ffffffffffffffffffffffffffffffffffffffff811661240e576040517fb3d370d400000000000000000000000000000000000000000000000000000000815260040160405180910390fd5b6040517f316b373900000000000000000000000000000000000000000000000000000000815273ffffffffffffffffffffffffffffffffffffffff831660048201526000907342000000000000000000000000000000000000269063316b373990602401602060405180830381865afa15801561248f573d6000803e3d6000fd5b505050506040513d601f19601f820116820180604052508101906124b39190612e17565b905073ffffffffffffffffffffffffffffffffffffffff8116612502576040517f7acfd45300000000000000000000000000000000000000000000000000000000815260040160405180910390fd5b8073ffffffffffffffffffffffffffffffffffffffff168273ffffffffffffffffffffffffffffffffffffffff161461141c576040517f8686656d00000000000000000000000000000000000000000000000000000000815260040160405180910390fd5b8273ffffffffffffffffffffffffffffffffffffffff168473ffffffffffffffffffffffffffffffffffffffff167f2849b43074093a05396b6f2a937dee8565b15a48a7b3d4bffb732a5017380af5848460405161230c92919061303f565b8373ffffffffffffffffffffffffffffffffffffffff168573ffffffffffffffffffffffffffffffffffffffff168773ffffffffffffffffffffffffffffffffffffffff167f7ff126db8024424bbfd9826e8ab82ff59136289ea440b04b39a0df1b03b9cabf86868660405161229d93929190612fbc565b600061266a827f01ffc9a7000000000000000000000000000000000000000000000000000000006126a2565b8015611a01575061269b827fffffffff000000000000000000000000000000000000000000000000000000006126a2565b1592915050565b604080517fffffffff000000000000000000000000000000000000000000000000000000008316602480830191909152825180830390910181526044909101909152602080820180517bffffffffffffffffffffffffffffffffffffffffffffffffffffffff167f01ffc9a700000000000000000000000000000000000000000000000000000000178152825160009392849283928392918391908a617530fa92503d9150600051905082801561275a575060208210155b80156127665750600081115b979650505050505050565b60606127808484600085612788565b949350505050565b60608247101561281a576040517f08c379a000000000000000000000000000000000000000000000000000000000815260206004820152602660248201527f416464726573733a20696e73756666696369656e742062616c616e636520666f60448201527f722063616c6c000000000000000000000000000000000000000000000000000060648201526084016101bd565b73ffffffffffffffffffffffffffffffffffffffff85163b612898576040517f08c379a000000000000000000000000000000000000000000000000000000000815260206004820152601d60248201527f416464726573733a2063616c6c20746f206e6f6e2d636f6e747261637400000060448201526064016101bd565b6000808673ffffffffffffffffffffffffffffffffffffffff1685876040516128c19190613058565b60006040518083038185875af1925050503d80600081146128fe576040519150601f19603f3d011682016040523d82523d6000602084013e612903565b606091505b50915091506127668282866060831561291d575081612112565b82511561292d5782518084602001fd5b816040517f08c379a00000000000000000000000000000000000000000000000000000000081526004016101bd9190612cc8565b73ffffffffffffffffffffffffffffffffffffffff8116811461298357600080fd5b50565b60008083601f84011261299857600080fd5b50813567ffffffffffffffff8111156129b057600080fd5b6020830191508360208285010111156129c857600080fd5b9250929050565b600080600080600080600060c0888a0312156129ea57600080fd5b87356129f581612961565b96506020880135612a0581612961565b95506040880135612a1581612961565b94506060880135612a2581612961565b93506080880135925060a088013567ffffffffffffffff811115612a4857600080fd5b612a548a828b01612986565b989b979a50959850939692959293505050565b803563ffffffff81168114612a7b57600080fd5b919050565b600080600060408486031215612a9557600080fd5b612a9e84612a67565b9250602084013567ffffffffffffffff811115612aba57600080fd5b612ac686828701612986565b9497909650939450505050565b600080600080600060808688031215612aeb57600080fd5b8535612af681612961565b94506020860135612b0681612961565b935060408601359250606086013567ffffffffffffffff811115612b2957600080fd5b612b3588828901612986565b969995985093965092949392505050565b600080600060608486031215612b5b57600080fd5b8335612b6681612961565b92506020840135612b7681612961565b929592945050506040919091013590565b600080600080600060808688031215612b9f57600080fd5b8535612baa81612961565b945060208601359350612bbf60408701612a67565b9250606086013567ffffffffffffffff811115612b2957600080fd5b600080600080600080600060c0888a031215612bf657600080fd5b8735612c0181612961565b96506020880135612c1181612961565b95506040880135612c2181612961565b945060608801359350612c3660808901612a67565b925060a088013567ffffffffffffffff811115612a4857600080fd5b60005b83811015612c6d578181015183820152602001612c55565b8381111561141c5750506000910152565b60008151808452612c96816020860160208601612c52565b601f017fffffffffffffffffffffffffffffffffffffffffffffffffffffffffffffffe0169290920160200192915050565b6020815260006121126020830184612c7e565b60008060008060008060a08789031215612cf457600080fd5b8635612cff81612961565b95506020870135612d0f81612961565b945060408701359350612d2460608801612a67565b9250608087013567ffffffffffffffff811115612d4057600080fd5b612d4c89828a01612986565b979a9699509497509295939492505050565b60008060408385031215612d7157600080fd5b8235612d7c81612961565b91506020830135612d8c81612961565b809150509250929050565b600060208284031215612da957600080fd5b813561211281612961565b60008060008060608587031215612dca57600080fd5b8435612dd581612961565b9350612de360208601612a67565b9250604085013567ffffffffffffffff811115612dff57600080fd5b612e0b87828801612986565b95989497509550505050565b600060208284031215612e2957600080fd5b815161211281612961565b7f4e487b7100000000000000000000000000000000000000000000000000000000600052601160045260246000fd5b600082821015612e7557612e75612e34565b500390565b60008251612e8c818460208701612c52565b7f2b696e7465726f702d626574612e380000000000000000000000000000000000920191825250600f01919050565b600073ffffffffffffffffffffffffffffffffffffffff808716835280861660208401525083604083015260806060830152612efa6080830184612c7e565b9695505050505050565b73ffffffffffffffffffffffffffffffffffffffff84168152606060208201526000612f336060830185612c7e565b905063ffffffff83166040830152949350505050565b60008219821115612f5c57612f5c612e34565b500190565b600073ffffffffffffffffffffffffffffffffffffffff80891683528088166020840152808716604084015280861660608401525083608083015260c060a0830152612fb060c0830184612c7e565b98975050505050505050565b73ffffffffffffffffffffffffffffffffffffffff84168152826020820152606060408201526000612ff16060830184612c7e565b95945050505050565b60006020828403121561300c57600080fd5b815160ff8116811461211257600080fd5b60006020828403121561302f57600080fd5b8151801515811461211257600080fd5b8281526040602082015260006127806040830184612c7e565b6000825161306a818460208701612c52565b919091019291505056fea164736f6c634300080f000a","linkReferences":{}},"methodIdentifiers":{"MESSENGER()":"927ede2d","OTHER_BRIDGE()":"7f46ddb2","bridgeERC20(address,address,uint256,uint32,bytes)":"87087623","bridgeERC20To(address,address,address,uint256,uint32,bytes)":"540abf73","bridgeETH(uint32,bytes)":"09fc8843","bridgeETHTo(address,uint32,bytes)":"e11013dd","convert(address,address,uint256)":"248391ff","deposits(address,address)":"8f601f66","finalizeBridgeERC20(address,address,address,address,uint256,bytes)":"0166a07a","finalizeBridgeETH(address,address,uint256,bytes)":"1635f5fd","initialize(address)":"c4d66de8","l1TokenBridge()":"36c717c1","messenger()":"3cb747bf","otherBridge()":"c89701a2","paused()":"5c975abb","version()":"54fd4d50","withdraw(address,uint256,uint32,bytes)":"32b7006d","withdrawTo(address,address,uint256,uint32,bytes)":"a3a79548"},"storageLayout":{"storage":[{"astId":49406,"contract":"src/L2/L2StandardBridgeInterop.sol:L2StandardBridgeInterop","label":"_initialized","offset":0,"slot":"0","type":"t_uint8"},{"astId":49409,"contract":"src/L2/L2StandardBridgeInterop.sol:L2StandardBridgeInterop","label":"_initializing","offset":1,"slot":"0","type":"t_bool"},{"astId":130800,"contract":"src/L2/L2StandardBridgeInterop.sol:L2StandardBridgeInterop","label":"spacer_0_2_30","offset":2,"slot":"0","type":"t_bytes30"},{"astId":130803,"contract":"src/L2/L2StandardBridgeInterop.sol:L2StandardBridgeInterop","label":"spacer_1_0_20","offset":0,"slot":"1","type":"t_address"},{"astId":130810,"contract":"src/L2/L2StandardBridgeInterop.sol:L2StandardBridgeInterop","label":"deposits","offset":0,"slot":"2","type":"t_mapping(t_address,t_mapping(t_address,t_uint256))"},{"astId":130814,"contract":"src/L2/L2StandardBridgeInterop.sol:L2StandardBridgeInterop","label":"messenger","offset":0,"slot":"3","type":"t_contract(ICrossDomainMessenger)7603"},{"astId":130818,"contract":"src/L2/L2StandardBridgeInterop.sol:L2StandardBridgeInterop","label":"otherBridge","offset":0,"slot":"4","type":"t_contract(StandardBridge)131539"},{"astId":130823,"contract":"src/L2/L2StandardBridgeInterop.sol:L2StandardBridgeInterop","label":"__gap","offset":0,"slot":"5","type":"t_array(t_uint256)45_storage"}],"types":{"t_address":{"encoding":"inplace","label":"address","numberOfBytes":"20"},"t_array(t_uint256)45_storage":{"encoding":"inplace","label":"uint256[45]","numberOfBytes":"1440","base":"t_uint256"},"t_bool":{"encoding":"inplace","label":"bool","numberOfBytes":"1"},"t_bytes30":{"encoding":"inplace","label":"bytes30","numberOfBytes":"30"},"t_contract(ICrossDomainMessenger)7603":{"encoding":"inplace","label":"contract ICrossDomainMessenger","numberOfBytes":"20"},"t_contract(StandardBridge)131539":{"encoding":"inplace","label":"contract StandardBridge","numberOfBytes":"20"},"t_mapping(t_address,t_mapping(t_address,t_uint256))":{"encoding":"mapping","key":"t_address","label":"mapping(address => mapping(address => uint256))","numberOfBytes":"32","value":"t_mapping(t_address,t_uint256)"},"t_mapping(t_address,t_uint256)":{"encoding":"mapping","key":"t_address","label":"mapping(address => uint256)","numberOfBytes":"32","value":"t_uint256"},"t_uint256":{"encoding":"inplace","label":"uint256","numberOfBytes":"32"},"t_uint8":{"encoding":"inplace","label":"uint8","numberOfBytes":"1"}}},"userdoc":{"version":1,"kind":"user","methods":{"MESSENGER()":{"notice":"Getter for messenger contract.         Public getter is legacy and will be removed in the future. Use `messenger` instead."},"OTHER_BRIDGE()":{"notice":"Getter for the other bridge contract.         Public getter is legacy and will be removed in the future. Use `otherBridge` instead."},"bridgeERC20(address,address,uint256,uint32,bytes)":{"notice":"Sends ERC20 tokens to the sender's address on the other chain."},"bridgeERC20To(address,address,address,uint256,uint32,bytes)":{"notice":"Sends ERC20 tokens to a receiver's address on the other chain."},"bridgeETH(uint32,bytes)":{"notice":"Sends ETH to the sender's address on the other chain."},"bridgeETHTo(address,uint32,bytes)":{"notice":"Sends ETH to a receiver's address on the other chain. Note that if ETH is sent to a         smart contract and the call fails, the ETH will be temporarily locked in the         StandardBridge on the other chain until the call is replayed. If the call cannot be         replayed with any amount of gas (call always reverts), then the ETH will be         permanently locked in the StandardBridge on the other chain. ETH will also         be locked if the receiver is the other bridge, because finalizeBridgeETH will revert         in that case."},"convert(address,address,uint256)":{"notice":"Converts `amount` of `from` token to `to` token."},"deposits(address,address)":{"notice":"Mapping that stores deposits for a given pair of local and remote tokens."},"finalizeBridgeERC20(address,address,address,address,uint256,bytes)":{"notice":"Finalizes an ERC20 bridge on this chain. Can only be triggered by the other         StandardBridge contract on the remote chain."},"finalizeBridgeETH(address,address,uint256,bytes)":{"notice":"Finalizes an ETH bridge on this chain. Can only be triggered by the other         StandardBridge contract on the remote chain."},"initialize(address)":{"notice":"Initializer."},"messenger()":{"notice":"Messenger contract on this domain."},"otherBridge()":{"notice":"Corresponding bridge on the other domain."},"paused()":{"notice":"This function should return true if the contract is paused.         On L1 this function will check the SuperchainConfig for its paused status.         On L2 this function should be a no-op."},"version()":{"notice":"Semantic version."}},"events":{"Converted(address,address,address,uint256)":{"notice":"Emitted when a conversion is made."},"ERC20BridgeFinalized(address,address,address,address,uint256,bytes)":{"notice":"Emitted when an ERC20 bridge is finalized on this chain."},"ERC20BridgeInitiated(address,address,address,address,uint256,bytes)":{"notice":"Emitted when an ERC20 bridge is initiated to the other chain."},"ETHBridgeFinalized(address,address,uint256,bytes)":{"notice":"Emitted when an ETH bridge is finalized on this chain."},"ETHBridgeInitiated(address,address,uint256,bytes)":{"notice":"Emitted when an ETH bridge is initiated to the other chain."}},"errors":{"InvalidDecimals()":[{"notice":"Thrown when the decimals of the tokens are not the same."}],"InvalidLegacyERC20Address()":[{"notice":"Thrown when the legacy address is not found in the OptimismMintableERC20Factory."}],"InvalidSuperchainERC20Address()":[{"notice":"Thrown when the OptimismSuperchainERC20 address is not found in the OptimismSuperchainERC20Factory."}],"InvalidTokenPair()":[{"notice":"Thrown when the remote addresses of the tokens are not the same."}]},"notice":"The L2StandardBridgeInterop is an extension of the L2StandardBridge that allows for         the conversion of tokens between legacy tokens (OptimismMintableERC20 or StandardL2ERC20)         and OptimismSuperchainERC20 tokens."},"devdoc":{"version":1,"kind":"dev","methods":{"MESSENGER()":{"returns":{"_0":"Contract of the messenger on this domain."}},"OTHER_BRIDGE()":{"returns":{"_0":"Contract of the bridge on the other network."}},"bridgeERC20(address,address,uint256,uint32,bytes)":{"params":{"_amount":"Amount of local tokens to deposit.","_extraData":"Extra data to be sent with the transaction. Note that the recipient will                     not be triggered with this data, but it will be emitted and can be used                     to identify the transaction.","_localToken":"Address of the ERC20 on this chain.","_minGasLimit":"Minimum amount of gas that the bridge can be relayed with.","_remoteToken":"Address of the corresponding token on the remote chain."}},"bridgeERC20To(address,address,address,uint256,uint32,bytes)":{"params":{"_amount":"Amount of local tokens to deposit.","_extraData":"Extra data to be sent with the transaction. Note that the recipient will                     not be triggered with this data, but it will be emitted and can be used                     to identify the transaction.","_localToken":"Address of the ERC20 on this chain.","_minGasLimit":"Minimum amount of gas that the bridge can be relayed with.","_remoteToken":"Address of the corresponding token on the remote chain.","_to":"Address of the receiver."}},"bridgeETH(uint32,bytes)":{"params":{"_extraData":"Extra data to be sent with the transaction. Note that the recipient will                     not be triggered with this data, but it will be emitted and can be used                     to identify the transaction.","_minGasLimit":"Minimum amount of gas that the bridge can be relayed with."}},"bridgeETHTo(address,uint32,bytes)":{"params":{"_extraData":"Extra data to be sent with the transaction. Note that the recipient will                     not be triggered with this data, but it will be emitted and can be used                     to identify the transaction.","_minGasLimit":"Minimum amount of gas that the bridge can be relayed with.","_to":"Address of the receiver."}},"convert(address,address,uint256)":{"params":{"_amount":"The amount of tokens being converted.","_from":"The token being converted from.","_to":"The token being converted to."}},"finalizeBridgeERC20(address,address,address,address,uint256,bytes)":{"params":{"_amount":"Amount of the ERC20 being bridged.","_extraData":"Extra data to be sent with the transaction. Note that the recipient will                     not be triggered with this data, but it will be emitted and can be used                     to identify the transaction.","_from":"Address of the sender.","_localToken":"Address of the ERC20 on this chain.","_remoteToken":"Address of the corresponding token on the remote chain.","_to":"Address of the receiver."}},"finalizeBridgeETH(address,address,uint256,bytes)":{"params":{"_amount":"Amount of ETH being bridged.","_extraData":"Extra data to be sent with the transaction. Note that the recipient will                   not be triggered with this data, but it will be emitted and can be used                   to identify the transaction.","_from":"Address of the sender.","_to":"Address of the receiver."}},"initialize(address)":{"params":{"_otherBridge":"Contract for the corresponding bridge on the other chain."}},"l1TokenBridge()":{"returns":{"_0":"Address of the corresponding L1 bridge contract."}},"paused()":{"returns":{"_0":"Whether or not the contract is paused."}},"version()":{},"withdraw(address,uint256,uint32,bytes)":{"params":{"_amount":"Amount of the L2 token to withdraw.","_extraData":"Extra data attached to the withdrawal.","_l2Token":"Address of the L2 token to withdraw.","_minGasLimit":"Minimum gas limit to use for the transaction."}},"withdrawTo(address,address,uint256,uint32,bytes)":{"params":{"_amount":"Amount of the L2 token to withdraw.","_extraData":"Extra data attached to the withdrawal.","_l2Token":"Address of the L2 token to withdraw.","_minGasLimit":"Minimum gas limit to use for the transaction.","_to":"Recipient account on L1."}}},"events":{"Converted(address,address,address,uint256)":{"params":{"amount":"The amount of tokens being converted.","caller":"The caller of the conversion.","from":"The token being converted from.","to":"The token being converted to."}}},"title":"L2StandardBridgeInterop"},"id":226}