{"abi":[{"type":"constructor","inputs":[{"name":"_superchainConfig","type":"address","internalType":"contract ISuperchainConfig"},{"name":"_protocolVersions","type":"address","internalType":"contract IProtocolVersions"},{"name":"_superchainProxyAdmin","type":"address","internalType":"contract IProxyAdmin"},{"name":"_l1ContractsRelease","type":"string","internalType":"string"},{"name":"_blueprints","type":"tuple","internalType":"struct OPContractsManager.Blueprints","components":[{"name":"addressManager","type":"address","internalType":"address"},{"name":"proxy","type":"address","internalType":"address"},{"name":"proxyAdmin","type":"address","internalType":"address"},{"name":"l1ChugSplashProxy","type":"address","internalType":"address"},{"name":"resolvedDelegateProxy","type":"address","internalType":"address"},{"name":"permissionedDisputeGame1","type":"address","internalType":"address"},{"name":"permissionedDisputeGame2","type":"address","internalType":"address"},{"name":"permissionlessDisputeGame1","type":"address","internalType":"address"},{"name":"permissionlessDisputeGame2","type":"address","internalType":"address"}]},{"name":"_implementations","type":"tuple","internalType":"struct OPContractsManager.Implementations","components":[{"name":"superchainConfigImpl","type":"address","internalType":"address"},{"name":"protocolVersionsImpl","type":"address","internalType":"address"},{"name":"l1ERC721BridgeImpl","type":"address","internalType":"address"},{"name":"optimismPortalImpl","type":"address","internalType":"address"},{"name":"systemConfigImpl","type":"address","internalType":"address"},{"name":"optimismMintableERC20FactoryImpl","type":"address","internalType":"address"},{"name":"l1CrossDomainMessengerImpl","type":"address","internalType":"address"},{"name":"l1StandardBridgeImpl","type":"address","internalType":"address"},{"name":"disputeGameFactoryImpl","type":"address","internalType":"address"},{"name":"anchorStateRegistryImpl","type":"address","internalType":"address"},{"name":"delayedWETHImpl","type":"address","internalType":"address"},{"name":"mipsImpl","type":"address","internalType":"address"}]},{"name":"_upgradeController","type":"address","internalType":"address"}],"stateMutability":"nonpayable"},{"type":"function","name":"addGameType","inputs":[{"name":"_gameConfigs","type":"tuple[]","internalType":"struct OPContractsManager.AddGameInput[]","components":[{"name":"saltMixer","type":"string","internalType":"string"},{"name":"systemConfig","type":"address","internalType":"contract ISystemConfig"},{"name":"proxyAdmin","type":"address","internalType":"contract IProxyAdmin"},{"name":"delayedWETH","type":"address","internalType":"contract IDelayedWETH"},{"name":"disputeGameType","type":"uint32","internalType":"GameType"},{"name":"disputeAbsolutePrestate","type":"bytes32","internalType":"Claim"},{"name":"disputeMaxGameDepth","type":"uint256","internalType":"uint256"},{"name":"disputeSplitDepth","type":"uint256","internalType":"uint256"},{"name":"disputeClockExtension","type":"uint64","internalType":"Duration"},{"name":"disputeMaxClockDuration","type":"uint64","internalType":"Duration"},{"name":"initialBond","type":"uint256","internalType":"uint256"},{"name":"vm","type":"address","internalType":"contract IBigStepper"},{"name":"permissioned","type":"bool","internalType":"bool"}]}],"outputs":[{"name":"","type":"tuple[]","internalType":"struct OPContractsManager.AddGameOutput[]","components":[{"name":"delayedWETH","type":"address","internalType":"contract IDelayedWETH"},{"name":"faultDisputeGame","type":"address","internalType":"contract IFaultDisputeGame"}]}],"stateMutability":"nonpayable"},{"type":"function","name":"blueprints","inputs":[],"outputs":[{"name":"","type":"tuple","internalType":"struct OPContractsManager.Blueprints","components":[{"name":"addressManager","type":"address","internalType":"address"},{"name":"proxy","type":"address","internalType":"address"},{"name":"proxyAdmin","type":"address","internalType":"address"},{"name":"l1ChugSplashProxy","type":"address","internalType":"address"},{"name":"resolvedDelegateProxy","type":"address","internalType":"address"},{"name":"permissionedDisputeGame1","type":"address","internalType":"address"},{"name":"permissionedDisputeGame2","type":"address","internalType":"address"},{"name":"permissionlessDisputeGame1","type":"address","internalType":"address"},{"name":"permissionlessDisputeGame2","type":"address","internalType":"address"}]}],"stateMutability":"view"},{"type":"function","name":"chainIdToBatchInboxAddress","inputs":[{"name":"_l2ChainId","type":"uint256","internalType":"uint256"}],"outputs":[{"name":"","type":"address","internalType":"address"}],"stateMutability":"pure"},{"type":"function","name":"deploy","inputs":[{"name":"_input","type":"tuple","internalType":"struct OPContractsManager.DeployInput","components":[{"name":"roles","type":"tuple","internalType":"struct OPContractsManager.Roles","components":[{"name":"opChainProxyAdminOwner","type":"address","internalType":"address"},{"name":"systemConfigOwner","type":"address","internalType":"address"},{"name":"batcher","type":"address","internalType":"address"},{"name":"unsafeBlockSigner","type":"address","internalType":"address"},{"name":"proposer","type":"address","internalType":"address"},{"name":"challenger","type":"address","internalType":"address"}]},{"name":"basefeeScalar","type":"uint32","internalType":"uint32"},{"name":"blobBasefeeScalar","type":"uint32","internalType":"uint32"},{"name":"l2ChainId","type":"uint256","internalType":"uint256"},{"name":"startingAnchorRoot","type":"bytes","internalType":"bytes"},{"name":"saltMixer","type":"string","internalType":"string"},{"name":"gasLimit","type":"uint64","internalType":"uint64"},{"name":"disputeGameType","type":"uint32","internalType":"GameType"},{"name":"disputeAbsolutePrestate","type":"bytes32","internalType":"Claim"},{"name":"disputeMaxGameDepth","type":"uint256","internalType":"uint256"},{"name":"disputeSplitDepth","type":"uint256","internalType":"uint256"},{"name":"disputeClockExtension","type":"uint64","internalType":"Duration"},{"name":"disputeMaxClockDuration","type":"uint64","internalType":"Duration"}]}],"outputs":[{"name":"","type":"tuple","internalType":"struct OPContractsManager.DeployOutput","components":[{"name":"opChainProxyAdmin","type":"address","internalType":"contract IProxyAdmin"},{"name":"addressManager","type":"address","internalType":"contract IAddressManager"},{"name":"l1ERC721BridgeProxy","type":"address","internalType":"contract IL1ERC721Bridge"},{"name":"systemConfigProxy","type":"address","internalType":"contract ISystemConfig"},{"name":"optimismMintableERC20FactoryProxy","type":"address","internalType":"contract IOptimismMintableERC20Factory"},{"name":"l1StandardBridgeProxy","type":"address","internalType":"contract IL1StandardBridge"},{"name":"l1CrossDomainMessengerProxy","type":"address","internalType":"contract IL1CrossDomainMessenger"},{"name":"optimismPortalProxy","type":"address","internalType":"contract IOptimismPortal2"},{"name":"disputeGameFactoryProxy","type":"address","internalType":"contract IDisputeGameFactory"},{"name":"anchorStateRegistryProxy","type":"address","internalType":"contract IAnchorStateRegistry"},{"name":"faultDisputeGame","type":"address","internalType":"contract IFaultDisputeGame"},{"name":"permissionedDisputeGame","type":"address","internalType":"contract IPermissionedDisputeGame"},{"name":"delayedWETHPermissionedGameProxy","type":"address","internalType":"contract IDelayedWETH"},{"name":"delayedWETHPermissionlessGameProxy","type":"address","internalType":"contract IDelayedWETH"}]}],"stateMutability":"nonpayable"},{"type":"function","name":"implementations","inputs":[],"outputs":[{"name":"","type":"tuple","internalType":"struct OPContractsManager.Implementations","components":[{"name":"superchainConfigImpl","type":"address","internalType":"address"},{"name":"protocolVersionsImpl","type":"address","internalType":"address"},{"name":"l1ERC721BridgeImpl","type":"address","internalType":"address"},{"name":"optimismPortalImpl","type":"address","internalType":"address"},{"name":"systemConfigImpl","type":"address","internalType":"address"},{"name":"optimismMintableERC20FactoryImpl","type":"address","internalType":"address"},{"name":"l1CrossDomainMessengerImpl","type":"address","internalType":"address"},{"name":"l1StandardBridgeImpl","type":"address","internalType":"address"},{"name":"disputeGameFactoryImpl","type":"address","internalType":"address"},{"name":"anchorStateRegistryImpl","type":"address","internalType":"address"},{"name":"delayedWETHImpl","type":"address","internalType":"address"},{"name":"mipsImpl","type":"address","internalType":"address"}]}],"stateMutability":"view"},{"type":"function","name":"isRC","inputs":[],"outputs":[{"name":"","type":"bool","internalType":"bool"}],"stateMutability":"view"},{"type":"function","name":"l1ContractsRelease","inputs":[],"outputs":[{"name":"","type":"string","internalType":"string"}],"stateMutability":"view"},{"type":"function","name":"protocolVersions","inputs":[],"outputs":[{"name":"","type":"address","internalType":"contract IProtocolVersions"}],"stateMutability":"view"},{"type":"function","name":"setRC","inputs":[{"name":"_isRC","type":"bool","internalType":"bool"}],"outputs":[],"stateMutability":"nonpayable"},{"type":"function","name":"superchainConfig","inputs":[],"outputs":[{"name":"","type":"address","internalType":"contract ISuperchainConfig"}],"stateMutability":"view"},{"type":"function","name":"superchainProxyAdmin","inputs":[],"outputs":[{"name":"","type":"address","internalType":"contract IProxyAdmin"}],"stateMutability":"view"},{"type":"function","name":"upgrade","inputs":[{"name":"_opChainConfigs","type":"tuple[]","internalType":"struct OPContractsManager.OpChainConfig[]","components":[{"name":"systemConfigProxy","type":"address","internalType":"contract ISystemConfig"},{"name":"proxyAdmin","type":"address","internalType":"contract IProxyAdmin"},{"name":"absolutePrestate","type":"bytes32","internalType":"Claim"}]}],"outputs":[],"stateMutability":"nonpayable"},{"type":"function","name":"upgradeController","inputs":[],"outputs":[{"name":"","type":"address","internalType":"address"}],"stateMutability":"view"},{"type":"function","name":"version","inputs":[],"outputs":[{"name":"","type":"string","internalType":"string"}],"stateMutability":"pure"},{"type":"event","name":"Deployed","inputs":[{"name":"l2ChainId","type":"uint256","indexed":true,"internalType":"uint256"},{"name":"deployer","type":"address","indexed":true,"internalType":"address"},{"name":"deployOutput","type":"bytes","indexed":false,"internalType":"bytes"}],"anonymous":false},{"type":"event","name":"Upgraded","inputs":[{"name":"l2ChainId","type":"uint256","indexed":true,"internalType":"uint256"},{"name":"systemConfig","type":"address","indexed":true,"internalType":"contract ISystemConfig"},{"name":"upgrader","type":"address","indexed":true,"internalType":"address"}],"anonymous":false},{"type":"error","name":"AddressHasNoCode","inputs":[{"name":"who","type":"address","internalType":"address"}]},{"type":"error","name":"AddressNotFound","inputs":[{"name":"who","type":"address","internalType":"address"}]},{"type":"error","name":"AlreadyReleased","inputs":[]},{"type":"error","name":"BytesArrayTooLong","inputs":[]},{"type":"error","name":"DeploymentFailed","inputs":[]},{"type":"error","name":"EmptyInitcode","inputs":[]},{"type":"error","name":"IdentityPrecompileCallFailed","inputs":[]},{"type":"error","name":"InvalidChainId","inputs":[]},{"type":"error","name":"InvalidGameConfigs","inputs":[]},{"type":"error","name":"InvalidRoleAddress","inputs":[{"name":"role","type":"string","internalType":"string"}]},{"type":"error","name":"InvalidStartingAnchorRoot","inputs":[]},{"type":"error","name":"LatestReleaseNotSet","inputs":[]},{"type":"error","name":"NotABlueprint","inputs":[]},{"type":"error","name":"OnlyDelegatecall","inputs":[]},{"type":"error","name":"OnlyUpgradeController","inputs":[]},{"type":"error","name":"PrestateNotSet","inputs":[]},{"type":"error","name":"ReservedBitsSet","inputs":[]},{"type":"error","name":"SuperchainConfigMismatch","inputs":[{"name":"systemConfig","type":"address","internalType":"contract ISystemConfig"}]},{"type":"error","name":"SuperchainProxyAdminMismatch","inputs":[]},{"type":"error","name":"UnexpectedPreambleData","inputs":[{"name":"data","type":"bytes","internalType":"bytes"}]},{"type":"error","name":"UnsupportedERCVersion","inputs":[{"name":"version","type":"uint8","internalType":"uint8"}]}],"bytecode":{"object":"0x6101206040526016805460ff191660011790553480156200001f57600080fd5b50604051620065293803806200652983398101604081905262000042916200051f565b86868686868686620000548762000254565b6200005f8662000254565b6001600160a01b03808816608052861660a0526000620000808582620006ed565b506001600160a01b0394851660c09081528351600180546001600160a01b0319908116928916929092179055602080860151600280548416918a16919091179055604080870151600380548516918b16919091179055606080880151600480548616918c16919091179055608080890151600580548716918d1691909117905560a0808a0151600680548816918e1691909117905589870151600780548816918e1691909117905560e0808b0151600880548916918f169190911790556101009a8b0151600980548916918f169190911790558951600a80548916918f1691909117905594890151600b80548816918e1691909117905592880151600c80548716918d1691909117905590870151600d80548616918c16919091179055860151600e80548516918b16919091179055850151600f80548416918a169190911790559184015160108054831691891691909117905583820151601180548316918916919091179055838501516012805483169189169190911790556101208401516013805483169189169190911790556101408401516014805483169189169190911790556101609093015160158054909416908716179092553090915290921690915250620007b998505050505050505050565b806001600160a01b03163b6000036200028f576040516310d76a3760e31b81526001600160a01b038216600482015260240160405180910390fd5b50565b6001600160a01b03811681146200028f57600080fd5b634e487b7160e01b600052604160045260246000fd5b60405161012081016001600160401b0381118282101715620002e457620002e4620002a8565b60405290565b60405161018081016001600160401b0381118282101715620002e457620002e4620002a8565b604051601f8201601f191681016001600160401b03811182821017156200033b576200033b620002a8565b604052919050565b8051620003508162000292565b919050565b600061012082840312156200036957600080fd5b62000373620002be565b9050620003808262000343565b8152620003906020830162000343565b6020820152620003a36040830162000343565b6040820152620003b66060830162000343565b6060820152620003c96080830162000343565b6080820152620003dc60a0830162000343565b60a0820152620003ef60c0830162000343565b60c08201526200040260e0830162000343565b60e08201526101006200041781840162000343565b9082015292915050565b600061018082840312156200043557600080fd5b6200043f620002ea565b90506200044c8262000343565b81526200045c6020830162000343565b60208201526200046f6040830162000343565b6040820152620004826060830162000343565b6060820152620004956080830162000343565b6080820152620004a860a0830162000343565b60a0820152620004bb60c0830162000343565b60c0820152620004ce60e0830162000343565b60e0820152610100620004e381840162000343565b90820152610120620004f783820162000343565b908201526101406200050b83820162000343565b908201526101606200041783820162000343565b6000806000806000806000610340888a0312156200053c57600080fd5b8751620005498162000292565b809750506020808901516200055e8162000292565b60408a0151909750620005718162000292565b60608a01519096506001600160401b03808211156200058f57600080fd5b818b0191508b601f830112620005a457600080fd5b815181811115620005b957620005b9620002a8565b620005cd601f8201601f1916850162000310565b91508082528c84828501011115620005e457600080fd5b60005b8181101562000604578381018501518382018601528401620005e7565b81811115620006165760008583850101525b50508096505050506200062d8960808a0162000355565b92506200063f896101a08a0162000421565b915062000650610320890162000343565b905092959891949750929550565b600181811c908216806200067357607f821691505b6020821081036200069457634e487b7160e01b600052602260045260246000fd5b50919050565b601f821115620006e857600081815260208120601f850160051c81016020861015620006c35750805b601f850160051c820191505b81811015620006e457828155600101620006cf565b5050505b505050565b81516001600160401b03811115620007095762000709620002a8565b62000721816200071a84546200065e565b846200069a565b602080601f831160018114620007595760008415620007405750858301515b600019600386901b1c1916600185901b178555620006e4565b600085815260208120601f198616915b828110156200078a5788860151825594840194600190910190840162000769565b5085821015620007a95787850151600019600388901b60f8161c191681555b5050505050600190811b01905550565b60805160a05160c05160e05161010051615c916200089860003960008181610314015281816119c20152611ab601526000818161043e01528181611a5401528181611b0b015281816127950152612a2201526000818161011d01528181611be701528181611c6501528181611d100152611d8e0152600081816102d801528181611ce40152611daf0152600081816102890152818161072d0152818161163f01528181611bb801528181611c86015281816120e8015281816125aa0152818161351401528181613689015281816136da01526137400152615c916000f3fe608060405234801561001057600080fd5b50600436106100ea5760003560e01c8063613e827b1161008c57806387543ef61161006657806387543ef61461030f578063b51f9c2b14610336578063f179c48d14610402578063ff2dd5a11461041f57600080fd5b8063613e827b146102b35780636624856a146102d35780636ccdfe11146102fa57600080fd5b8063318b1b80116100c8578063318b1b801461025c57806335cb2e9b1461026f57806335e80ab31461028457806354fd4d50146102ab57600080fd5b80631661a2e9146100ef5780632b96b8391461011857806330e9012c14610157575b600080fd5b6101026100fd36600461498c565b610432565b60405161010f9190614b39565b60405180910390f35b61013f7f000000000000000000000000000000000000000000000000000000000000000081565b6040516001600160a01b03909116815260200161010f565b61024f6040805161018081018252600080825260208201819052918101829052606081018290526080810182905260a0810182905260c0810182905260e08101829052610100810182905261012081018290526101408101829052610160810191909152506040805161018081018252600a546001600160a01b039081168252600b5481166020830152600c54811692820192909252600d5482166060820152600e5482166080820152600f54821660a0820152601054821660c0820152601154821660e082015260125482166101008201526013548216610120820152601454821661014082015260155490911661016082015290565b60405161010f9190614b95565b61013f61026a366004614caf565b610b86565b610277610c01565b60405161010f9190614d20565b61013f7f000000000000000000000000000000000000000000000000000000000000000081565b610277610cc5565b6102c66102c1366004614d33565b610d11565b60405161010f9190614d6f565b61013f7f000000000000000000000000000000000000000000000000000000000000000081565b61030d610308366004614e9f565b6119b7565b005b61013f7f000000000000000000000000000000000000000000000000000000000000000081565b6103f56040805161012081018252600080825260208201819052918101829052606081018290526080810182905260a0810182905260c0810182905260e081018290526101008101919091525060408051610120810182526001546001600160a01b039081168252600254811660208301526003548116928201929092526004548216606082015260055482166080820152600654821660a0820152600754821660c0820152600854821660e082015260095490911661010082015290565b60405161010f9190614eba565b60165461040f9060ff1681565b604051901515815260200161010f565b61030d61042d366004614f36565b611a4a565b60606001600160a01b037f0000000000000000000000000000000000000000000000000000000000000000163003610496576040517f0a57d61d00000000000000000000000000000000000000000000000000000000815260040160405180910390fd5b81516000036104d1576040517fea11647200000000000000000000000000000000000000000000000000000000815260040160405180910390fd5b6000825167ffffffffffffffff8111156104ed576104ed614790565b60405190808252806020026020018201604052801561053257816020015b604080518082019091526000808252602082015281526020019060019003908161050b5790505b509050600061053f61274a565b905060001960005b8551811015610b7c57600086828151811061056457610564615006565b602002602001015190506000610581826080015163ffffffff1690565b63ffffffff1690508084126105c2576040517fea11647200000000000000000000000000000000000000000000000000000000815260040160405180910390fd5b80935060006105de6105d78460200151612816565b6001612880565b905060006105eb82612911565b60608501519091506001600160a01b03166107b95761064981856040015186600001516040518060400160405280600b81526020017f44656c6179656457455448000000000000000000000000000000000000000000815250612975565b88868151811061065b5761065b615006565b6020026020010151600001906001600160a01b031690816001600160a01b0316815250506107b4846040015189878151811061069957610699615006565b6020026020010151600001516106ad6129bf565b610140015187604001516001600160a01b0316638da5cb5b6040518163ffffffff1660e01b8152600401602060405180830381865afa1580156106f4573d6000803e3d6000fd5b505050506040513d601f19601f820116820180604052508101906107189190615040565b6040516001600160a01b0391821660248201527f0000000000000000000000000000000000000000000000000000000000000000909116604482015260640160408051601f198184030181529190526020810180517bffffffffffffffffffffffffffffffffffffffffffffffffffffffff167f485cc95500000000000000000000000000000000000000000000000000000000179052612aa3565b6107e9565b83606001518886815181106107d0576107d0615006565b60209081029190910101516001600160a01b0390911690525b836101800151156109595760008290506109278860a001518960c0015161084a8589600001516040518060400160405280601781526020017f5065726d697373696f6e65644469737075746547616d65000000000000000000815250612b2d565b6109226040518061014001604052808b6080015163ffffffff1681526020018b60a0015181526020018b60c0015181526020018b60e0015181526020018b610100015167ffffffffffffffff1681526020018b610120015167ffffffffffffffff1681526020018b61016001516001600160a01b031681526020018f8d815181106108d7576108d7615006565b6020026020010151600001516001600160a01b031681526020016108fa88612b63565b6001600160a01b0316815260200188905261091487612ba3565b61091d88612be3565b612c23565b612caa565b89878151811061093957610939615006565b6020908102919091018101516001600160a01b0390921691015250610a9e565b610a718760e001518861010001516109ab8488600001516040518060400160405280601981526020017f5065726d697373696f6e6c6573734469737075746547616d6500000000000000815250612b2d565b6109226040518061014001604052808a6080015163ffffffff1681526020018a60a0015181526020018a60c0015181526020018a60e0015181526020018a610100015167ffffffffffffffff1681526020018a610120015167ffffffffffffffff1681526020018a61016001516001600160a01b031681526020018e8c81518110610a3857610a38615006565b6020026020010151600001516001600160a01b03168152602001610a5b89612b63565b6001600160a01b03168152602001879052612ea6565b888681518110610a8357610a83615006565b6020908102919091018101516001600160a01b039092169101525b6000610aad8560200151612816565b9050610adb8186608001518b8981518110610aca57610aca615006565b602002602001015160200151612f20565b60808501516101408601516040517f1e33424000000000000000000000000000000000000000000000000000000000815263ffffffff909216600483015260248201526001600160a01b03821690631e33424090604401600060405180830381600087803b158015610b4c57600080fd5b505af1158015610b60573d6000803e3d6000fd5b5050505050505050508080610b749061508c565b915050610547565b5091949350505050565b604080516020808201849052825180830382018152828401845280519101206000606083018190527fffffffffffffffffffffffffffffffffffffff000000000000000000000000008216606184015283516054818503018152607490930190935282918190610bf5906150a6565b60601c95945050505050565b60165460609060ff16610c9e5760008054610c1b906150f6565b80601f0160208091040260200160405190810160405280929190818152602001828054610c47906150f6565b8015610c945780601f10610c6957610100808354040283529160200191610c94565b820191906000526020600020905b815481529060010190602001808311610c7757829003601f168201915b5050505050905090565b6000604051602001610cb09190615149565b6040516020818303038152906040525b905090565b6060610d0160408051808201909152600581527f312e322e30000000000000000000000000000000000000000000000000000000602082015290565b604051602001610cb0919061524a565b604080516101c081018252600080825260208201819052918101829052606081018290526080810182905260a0810182905260c0810182905260e08101829052610100810182905261012081018290526101408101829052610160810182905261018081018290526101a0810191909152610d8b82612fa6565b6101008201356000610da161014085018561528b565b8080601f0160208091040260200160405190810160405280939291908181526020018383808284376000920182905250604080516101c08101825282815260208101839052908101829052606081018290526080810182905260a0810182905260c0810182905260e08101829052610100810182905261012081018290526101408101829052610160810182905261018081018290526101a0810191909152939450610e4c92505050565b60015460408051808201909152600e81527f416464726573734d616e616765720000000000000000000000000000000000006020820152610eb2916001600160a01b031690610e9e9086908690612b2d565b604080516000815260208101909152613348565b6001600160a01b0390811660208084019190915260035460408051808201909152600a81527f50726f787941646d696e0000000000000000000000000000000000000000000092810192909252610f32921690610f129086908690612b2d565b60408051306020820152015b604051602081830303815290604052613348565b6001600160a01b0390811680835260208301516040517f0652b57a0000000000000000000000000000000000000000000000000000000081529216600483015290630652b57a90602401600060405180830381600087803b158015610f9657600080fd5b505af1158015610faa573d6000803e3d6000fd5b50505060208201518251610fbe9250613482565b611003838260000151846040518060400160405280600e81526020017f4c31455243373231427269646765000000000000000000000000000000000000815250612975565b6001600160a01b031660408083019190915281518151808301909252600e82527f4f7074696d69736d506f7274616c0000000000000000000000000000000000006020830152611057918591908590612975565b6001600160a01b031660e0820152805160408051808201909152600c81527f53797374656d436f6e666967000000000000000000000000000000000000000060208201526110a89185918590612975565b6001600160a01b03166060820152805160408051808201909152601c81527f4f7074696d69736d4d696e7461626c654552433230466163746f72790000000060208201526110f99185918590612975565b6001600160a01b03166080820152805160408051808201909152601281527f4469737075746547616d65466163746f72790000000000000000000000000000602082015261114a9185918590612975565b6001600160a01b0316610100820152805160408051808201909152601381527f416e63686f725374617465526567697374727900000000000000000000000000602082015261119c9185918590612975565b6001600160a01b0390811661012083015260045460408051808201909152601081527f4c315374616e646172644272696467650000000000000000000000000000000060208201526112169291909116906111fa9086908690612b2d565b8351604080516001600160a01b03909216602083015201610f1e565b6001600160a01b0390811660a0830181905282516040517f8d52d4a0000000000000000000000000000000000000000000000000000000008152921691638d52d4a091611268916001906004016152f0565b600060405180830381600087803b15801561128257600080fd5b505af1158015611296573d6000803e3d6000fd5b5050505060006040518060400160405280601a81526020017f4f564d5f4c3143726f7373446f6d61696e4d657373656e6765720000000000008152509050611345600160040160009054906101000a90046001600160a01b031661133086866040518060400160405280601681526020017f4c3143726f7373446f6d61696e4d657373656e67657200000000000000000000815250612b2d565b602080860151604051610f1e92879101615344565b6001600160a01b0390811660c0840181905283516040517f8d52d4a0000000000000000000000000000000000000000000000000000000008152921691638d52d4a091611397916002906004016152f0565b600060405180830381600087803b1580156113b157600080fd5b505af11580156113c5573d6000803e3d6000fd5b5050835160c08501516040517f860f7cda0000000000000000000000000000000000000000000000000000000081526001600160a01b03909216935063860f7cda9250611416918590600401615344565b600060405180830381600087803b15801561143057600080fd5b505af1158015611444573d6000803e3d6000fd5b5050505061148d848360000151856040518060400160405280601b81526020017f44656c61796564574554485065726d697373696f6e656447616d650000000000815250612975565b6001600160a01b0390811661018084015260065460075460408051808201909152601781527f5065726d697373696f6e65644469737075746547616d6500000000000000000060208201526115d8939283169291909116906114f29088908890612b2d565b6109226040518061014001604052808c610180016020810190611515919061536e565b63ffffffff1681526101a08d013560208201526101c08d013560408201526101e08d013560608201526080016115536102208e016102008f0161538b565b67ffffffffffffffff1681526020016115746102408e016102208f0161538b565b67ffffffffffffffff1681526015546001600160a01b0390811660208301526101808a0151811660408301526101208a01511660608201526101008d01356080918201526115c89060a08e01908e016153a8565b61091d60c08e0160a08f016153a8565b6001600160a01b031661016083015260606115f2836134fa565b83516040850151600c54929350611612926001600160a01b031684612aa3565b6116cf836101008101516060808301516040516001600160a01b03938416602482015290831660448201527f00000000000000000000000000000000000000000000000000000000000000009092166064830152600160848301529060a40160408051601f198184030181529190526020810180517bffffffffffffffffffffffffffffffffffffffffffffffffffffffff167f8e819e540000000000000000000000000000000000000000000000000000000017905292915050565b835160e0850151600d549293506116ef926001600160a01b031684612aa3565b6117016116fb88615474565b846135a0565b83516060850151600e54929350611721926001600160a01b031684612aa3565b6117a18360a08101516040516001600160a01b03909116602482015260609060440160408051601f198184030181529190526020810180517bffffffffffffffffffffffffffffffffffffffffffffffffffffffff167fc4d66de80000000000000000000000000000000000000000000000000000000017905292915050565b83516080850151600f549293506117c1926001600160a01b031684612aa3565b6117ca83613677565b835160c08501516010549293506117ea926001600160a01b031684612aa3565b6117f3836134fa565b835160a0850151601154929350611813926001600160a01b031684612aa3565b61182461181f88615474565b6136c2565b8351610180850151601454929350611845926001600160a01b031684612aa3565b6118b460405130602482015260609060440160408051601f198184030181529190526020810180517bffffffffffffffffffffffffffffffffffffffffffffffffffffffff167fc4d66de800000000000000000000000000000000000000000000000000000000179052919050565b83516101008501516012549293506118d5926001600160a01b031684612aa3565b6118eb8361010001516001856101600151612f20565b6101008301516119079061190260208a018a6153a8565b613482565b61191961191388615474565b8461370c565b835161012085015160135492935061193a926001600160a01b031684612aa3565b825161194d9061190260208a018a6153a8565b336001600160a01b0316857fb40fb1137b92aa97efb20f29c17d36c5947aac681c3315ba854b0232f83495428560405160200161198a9190614d6f565b60408051601f19818403018152908290526119a491614d20565b60405180910390a3509095945050505050565b336001600160a01b037f00000000000000000000000000000000000000000000000000000000000000001614611a19576040517f861c183d00000000000000000000000000000000000000000000000000000000815260040160405180910390fd5b601680547fffffffffffffffffffffffffffffffffffffffffffffffffffffffffffffff0016911515919091179055565b6001600160a01b037f0000000000000000000000000000000000000000000000000000000000000000163003611aac576040517f0a57d61d00000000000000000000000000000000000000000000000000000000815260040160405180910390fd5b6001600160a01b037f0000000000000000000000000000000000000000000000000000000000000000163003611b70576040517f6ccdfe11000000000000000000000000000000000000000000000000000000008152600060048201527f00000000000000000000000000000000000000000000000000000000000000006001600160a01b031690636ccdfe1190602401600060405180830381600087803b158015611b5757600080fd5b505af1158015611b6b573d6000803e3d6000fd5b505050505b6000611b7a6129bf565b90506000611b8661274a565b82516040517f204e1c7a0000000000000000000000000000000000000000000000000000000081526001600160a01b037f000000000000000000000000000000000000000000000000000000000000000081166004830152929350908216917f0000000000000000000000000000000000000000000000000000000000000000169063204e1c7a90602401602060405180830381865afa158015611c2e573d6000803e3d6000fd5b505050506040513d601f19601f82011682018060405250810190611c529190615040565b6001600160a01b031614611caf57611caf7f00000000000000000000000000000000000000000000000000000000000000007f000000000000000000000000000000000000000000000000000000000000000084600001516137ed565b60208201516040517f204e1c7a0000000000000000000000000000000000000000000000000000000081526001600160a01b037f000000000000000000000000000000000000000000000000000000000000000081166004830152918216917f0000000000000000000000000000000000000000000000000000000000000000169063204e1c7a90602401602060405180830381865afa158015611d57573d6000803e3d6000fd5b505050506040513d601f19601f82011682018060405250810190611d7b9190615040565b6001600160a01b031614611dd857611dd87f00000000000000000000000000000000000000000000000000000000000000007f000000000000000000000000000000000000000000000000000000000000000084602001516137ed565b60005b83518110156127445760006040518060c00160405280868481518110611e0357611e03615006565b6020026020010151600001516001600160a01b031663a71198696040518163ffffffff1660e01b8152600401602060405180830381865afa158015611e4c573d6000803e3d6000fd5b505050506040513d601f19601f82011682018060405250810190611e709190615040565b6001600160a01b03168152602001868481518110611e9057611e90615006565b6020026020010151600001516001600160a01b031663c4e8ddfa6040518163ffffffff1660e01b8152600401602060405180830381865afa158015611ed9573d6000803e3d6000fd5b505050506040513d601f19601f82011682018060405250810190611efd9190615040565b6001600160a01b03168152602001868481518110611f1d57611f1d615006565b6020026020010151600001516001600160a01b031663078f29cf6040518163ffffffff1660e01b8152600401602060405180830381865afa158015611f66573d6000803e3d6000fd5b505050506040513d601f19601f82011682018060405250810190611f8a9190615040565b6001600160a01b03168152602001611fbe878581518110611fad57611fad615006565b602002602001015160000151612816565b6001600160a01b03168152602001868481518110611fde57611fde615006565b6020026020010151600001516001600160a01b0316630a49cb036040518163ffffffff1660e01b8152600401602060405180830381865afa158015612027573d6000803e3d6000fd5b505050506040513d601f19601f8201168201806040525081019061204b9190615040565b6001600160a01b0316815260200186848151811061206b5761206b615006565b6020026020010151600001516001600160a01b0316639b7d7f0a6040518163ffffffff1660e01b8152600401602060405180830381865afa1580156120b4573d6000803e3d6000fd5b505050506040513d601f19601f820116820180604052508101906120d89190615040565b6001600160a01b031681525090507f00000000000000000000000000000000000000000000000000000000000000006001600160a01b031681608001516001600160a01b03166335e80ab36040518163ffffffff1660e01b8152600401602060405180830381865afa158015612152573d6000803e3d6000fd5b505050506040513d601f19601f820116820180604052508101906121769190615040565b6001600160a01b0316146121e55784828151811061219657612196615006565b6020908102919091010151516040517fc358e75a0000000000000000000000000000000000000000000000000000000081526001600160a01b0390911660048201526024015b60405180910390fd5b61222e8583815181106121fa576121fa615006565b60200260200101516020015186848151811061221857612218615006565b60200260200101516000015186608001516137ed565b61225e85838151811061224357612243615006565b60200260200101516020015182600001518660c001516137ed565b61228e85838151811061227357612273615006565b602002602001015160200151826020015186604001516137ed565b6122be8583815181106122a3576122a3615006565b60200260200101516020015182604001518660e001516137ed565b6122ef8583815181106122d3576122d3615006565b60200260200101516020015182606001518661010001516137ed565b61231f85838151811061230457612304615006565b602002602001015160200151826080015186606001516137ed565b61234f85838151811061233457612334615006565b6020026020010151602001518260a001518660a001516137ed565b600061236082606001516001612880565b9050600061236d82612911565b9050600061244c8289878151811061238757612387615006565b6020026020010151602001518a88815181106123a5576123a5615006565b60200260200101516000015160601b6040516020016123ec91907fffffffffffffffffffffffffffffffffffffffff00000000000000000000000091909116815260140190565b60408051601f198184030181529082905261240991602001615591565b60408051601f19818403018152828201909152601382527f416e63686f725374617465526567697374727900000000000000000000000000602083015290612975565b9050600084608001516001600160a01b0316633c9f397c6040518163ffffffff1660e01b8152600401602060405180830381865afa158015612492573d6000803e3d6000fd5b505050506040513d601f19601f820116820180604052508101906124b691906155d6565b90506000806124c486612b63565b6040517f7258a80700000000000000000000000000000000000000000000000000000000815263ffffffff851660048201526001600160a01b039190911690637258a807906024016040805180830381865afa158015612528573d6000803e3d6000fd5b505050506040513d601f19601f8201168201806040525081019061254c91906155f3565b91509150600060405180604001604052808481526020018381525090506126548c8a8151811061257e5761257e615006565b6020908102919091018101518101516101208e015160608c015160808d01516040516001600160a01b037f000000000000000000000000000000000000000000000000000000000000000081166024830152928316604482015291166064820152855160848201529285015160a4840152909188919060c40160408051601f198184030181529190526020810180517bffffffffffffffffffffffffffffffffffffffffffffffffffffffff167f060fa21600000000000000000000000000000000000000000000000000000000179052612aa3565b5050505061268282848360018c8a8151811061267257612672615006565b60200260200101518b8d8b613845565b600061269385606001516000612880565b90506001600160a01b038116156126ce576126ce83828460008d8b815181106126be576126be615006565b60200260200101518c8e8c613845565b306001600160a01b03168987815181106126ea576126ea615006565b6020026020010151600001516001600160a01b0316847f78bc67b9bf548ef6410becd31a3e10b9ea6c255974ef6b4530728b431df3003060405160405180910390a45050505050808061273c9061508c565b915050611ddb565b50505050565b6040805161012081018252600080825260208201819052918101829052606081018290526080810182905260a0810182905260c0810182905260e081018290526101008101919091527f00000000000000000000000000000000000000000000000000000000000000006001600160a01b031663b51f9c2b6040518163ffffffff1660e01b815260040161012060405180830381865afa1580156127f2573d6000803e3d6000fd5b505050506040513d601f19601f82011682018060405250810190610cc09190615617565b6000816001600160a01b031663f2b4e6176040518163ffffffff1660e01b8152600401602060405180830381865afa158015612856573d6000803e3d6000fd5b505050506040513d601f19601f8201168201806040525081019061287a9190615040565b92915050565b6040517f1b685b9e00000000000000000000000000000000000000000000000000000000815263ffffffff821660048201526000906001600160a01b03841690631b685b9e90602401602060405180830381865afa1580156128e6573d6000803e3d6000fd5b505050506040513d601f19601f8201168201806040525081019061290a9190615040565b9392505050565b6000816001600160a01b031663d6ae3cd56040518163ffffffff1660e01b8152600401602060405180830381865afa158015612951573d6000803e3d6000fd5b505050506040513d601f19601f8201168201806040525081019061287a91906156cd565b600080612983868585612b2d565b90506129b561299061274a565b602001518287604051602001610f1e91906001600160a01b0391909116815260200190565b9695505050505050565b6040805161018081018252600080825260208201819052918101829052606081018290526080810182905260a0810182905260c0810182905260e081018290526101008101829052610120810182905261014081018290526101608101919091527f00000000000000000000000000000000000000000000000000000000000000006001600160a01b03166330e9012c6040518163ffffffff1660e01b815260040161018060405180830381865afa158015612a7f573d6000803e3d6000fd5b505050506040513d601f19601f82011682018060405250810190610cc091906156e6565b612aac82613a42565b6040517f9623609d0000000000000000000000000000000000000000000000000000000081526001600160a01b03851690639623609d90612af5908690869086906004016157c7565b600060405180830381600087803b158015612b0f57600080fd5b505af1158015612b23573d6000803e3d6000fd5b5050505050505050565b6000838383604051602001612b44939291906157f3565b6040516020818303038152906040528051906020012090509392505050565b6000816001600160a01b0316635c0cba336040518163ffffffff1660e01b8152600401602060405180830381865afa158015612856573d6000803e3d6000fd5b6000816001600160a01b031663a8e4fb906040518163ffffffff1660e01b8152600401602060405180830381865afa158015612856573d6000803e3d6000fd5b6000816001600160a01b031663534db0e26040518163ffffffff1660e01b8152600401602060405180830381865afa158015612856573d6000803e3d6000fd5b60606000848484604051602401612c3c939291906158d4565b60408051601f198184030181529190526020810180517bffffffffffffffffffffffffffffffffffffffffffffffffffffffff167f9ecd8b34000000000000000000000000000000000000000000000000000000001790529050612ca1816004613a91565b95945050505050565b600080612cdb866001600160a01b0316803b806020016040519081016040528181526000908060200190933c613ac7565b805190915060ff1615612d225780516040517f1a66c69200000000000000000000000000000000000000000000000000000000815260ff90911660048201526024016121dc565b60208101515115612d655780602001516040517f57a058350000000000000000000000000000000000000000000000000000000081526004016121dc9190614d20565b6000612d95866001600160a01b0316803b806020016040519081016040528181526000908060200190933c613ac7565b805190915060ff1615612ddc5780516040517f1a66c69200000000000000000000000000000000000000000000000000000000815260ff90911660048201526024016121dc565b60208101515115612e1f5780602001516040517f57a058350000000000000000000000000000000000000000000000000000000081526004016121dc9190614d20565b60008260400151826040015186604051602001612e3e93929190615906565b6040516020818303038152906040529050858151602083016000f593506001600160a01b038416612e9b576040517f3011642500000000000000000000000000000000000000000000000000000000815260040160405180910390fd5b505050949350505050565b6060600082604051602401612ebb9190615949565b60408051601f198184030181529190526020810180517bffffffffffffffffffffffffffffffffffffffffffffffffffffffff167f5599c64600000000000000000000000000000000000000000000000000000000179052905061290a816004613a91565b6040517f14f6b1a300000000000000000000000000000000000000000000000000000000815263ffffffff831660048201526001600160a01b0382811660248301528416906314f6b1a3906044015b600060405180830381600087803b158015612f8957600080fd5b505af1158015612f9d573d6000803e3d6000fd5b50505050505050565b6101008101351580612fbc575046816101000135145b15612ff3576040517f7a47c9a200000000000000000000000000000000000000000000000000000000815260040160405180910390fd5b600061300260208301836153a8565b6001600160a01b031603613072576040517fe646e04300000000000000000000000000000000000000000000000000000000815260206004820152601660248201527f6f70436861696e50726f787941646d696e4f776e65720000000000000000000060448201526064016121dc565b600061308460408301602084016153a8565b6001600160a01b0316036130f4576040517fe646e04300000000000000000000000000000000000000000000000000000000815260206004820152601160248201527f73797374656d436f6e6669674f776e657200000000000000000000000000000060448201526064016121dc565b600061310660608301604084016153a8565b6001600160a01b031603613176576040517fe646e04300000000000000000000000000000000000000000000000000000000815260206004820152600760248201527f626174636865720000000000000000000000000000000000000000000000000060448201526064016121dc565b600061318860808301606084016153a8565b6001600160a01b0316036131f8576040517fe646e04300000000000000000000000000000000000000000000000000000000815260206004820152601160248201527f756e73616665426c6f636b5369676e657200000000000000000000000000000060448201526064016121dc565b600061320a60a08301608084016153a8565b6001600160a01b03160361327a576040517fe646e04300000000000000000000000000000000000000000000000000000000815260206004820152600860248201527f70726f706f73657200000000000000000000000000000000000000000000000060448201526064016121dc565b600061328c60c0830160a084016153a8565b6001600160a01b0316036132fc576040517fe646e04300000000000000000000000000000000000000000000000000000000815260206004820152600a60248201527f6368616c6c656e6765720000000000000000000000000000000000000000000060448201526064016121dc565b61330a61012082018261528b565b9050600003613345576040517f89e0acdf00000000000000000000000000000000000000000000000000000000815260040160405180910390fd5b50565b600080613379856001600160a01b0316803b806020016040519081016040528181526000908060200190933c613ac7565b805190915060ff16156133c05780516040517f1a66c69200000000000000000000000000000000000000000000000000000000815260ff90911660048201526024016121dc565b602081015151156134035780602001516040517f57a058350000000000000000000000000000000000000000000000000000000081526004016121dc9190614d20565b600081604001518460405160200161341c929190615958565b6040516020818303038152906040529050848151602083016000f592506001600160a01b038316613479576040517f3011642500000000000000000000000000000000000000000000000000000000815260040160405180910390fd5b50509392505050565b6040517ff2fde38b0000000000000000000000000000000000000000000000000000000081526001600160a01b03828116600483015283169063f2fde38b90602401600060405180830381600087803b1580156134de57600080fd5b505af11580156134f2573d6000803e3d6000fd5b505050505050565b60c08101516040516001600160a01b0391821660248201527f000000000000000000000000000000000000000000000000000000000000000090911660448201526060906064015b60408051601f198184030181529190526020810180517bffffffffffffffffffffffffffffffffffffffffffffffffffffffff167f485cc9550000000000000000000000000000000000000000000000000000000017905292915050565b60606000806135af8585613f86565b8651602080820151908901516040808b01519084015160c08c0151606095860151958d015197995095975092958695929491936001600160a01b031692919089906135f990610b86565b89896040516024016136149a99989796959493929190615987565b60408051601f198184030181529190526020810180517bffffffffffffffffffffffffffffffffffffffffffffffffffffffff167ff8c137cb00000000000000000000000000000000000000000000000000000000179052935050505092915050565b60e08101516040516001600160a01b037f0000000000000000000000000000000000000000000000000000000000000000811660248301529091166044820152606090606401613542565b8051516040516001600160a01b0391821660248201527f00000000000000000000000000000000000000000000000000000000000000009091166044820152606090606401613542565b6060600083608001518060200190518101906137289190615ab5565b61010084015160e08501516040516001600160a01b037f00000000000000000000000000000000000000000000000000000000000000008116602483015292831660448201529116606482015281516084820152602082015160a482015290915060c40160408051601f198184030181529190526020810180517bffffffffffffffffffffffffffffffffffffffffffffffffffffffff167f060fa2160000000000000000000000000000000000000000000000000000000017905291505092915050565b6137f681613a42565b6040517f99a88ec40000000000000000000000000000000000000000000000000000000081526001600160a01b03838116600483015282811660248301528416906399a88ec490604401612f6f565b600061385088614142565b90506138668560200151828561014001516137ed565b50600061387288614182565b6001600160a01b038089166101008301526101608501511660c082015260408601519091506138cd576040517fefc878f200000000000000000000000000000000000000000000000000000000815260040160405180910390fd5b60408501516020820152600060001963ffffffff8816016139985760006138f38a612ba3565b905060006139008b612be3565b905061398f8760a001518860c001516139848f6040518060400160405280600681526020017f76322e302e3000000000000000000000000000000000000000000000000000008152506040518060400160405280601781526020017f5065726d697373696f6e65644469737075746547616d65000000000000000000815250612b2d565b610922888787612c23565b92505050613a27565b613a248560e00151866101000151613a1b8d6040518060400160405280600681526020017f76322e302e3000000000000000000000000000000000000000000000000000008152506040518060400160405280601981526020017f5065726d697373696f6e6c6573734469737075746547616d6500000000000000815250612b2d565b61092286612ea6565b90505b613a3683606001518883612f20565b50505050505050505050565b806001600160a01b03163b600003613345576040517f86bb51b80000000000000000000000000000000000000000000000000000000081526001600160a01b03821660048201526024016121dc565b606082518210613ab0575060408051602081019091526000815261287a565b61290a8383848651613ac29190615b04565b614515565b613aee6040518060600160405280600060ff16815260200160608152602001606081525090565b600282511080613b58575081600081518110613b0c57613b0c615006565b6020910101517fff00000000000000000000000000000000000000000000000000000000000000167ffe0000000000000000000000000000000000000000000000000000000000000014155b80613bbd575081600181518110613b7157613b71615006565b6020910101517fff00000000000000000000000000000000000000000000000000000000000000167f710000000000000000000000000000000000000000000000000000000000000014155b15613bf4576040517f31f56e1f00000000000000000000000000000000000000000000000000000000815260040160405180910390fd5b6000600283600281518110613c0b57613c0b615006565b602001015160f81c60f81b60fc60f81b1660f81c60ff16901c9050600083600281518110613c3b57613c3b615006565b60209101015160f81c60039081169150819003613c84576040517fb214675a00000000000000000000000000000000000000000000000000000000815260040160405180910390fd5b600060ff821615613d705760008260ff1667ffffffffffffffff811115613cad57613cad614790565b6040519080825280601f01601f191660200182016040528015613cd7576020820181803683370190505b50905060005b8360ff16811015613d625786613cf4826003615b1b565b81518110613d0457613d04615006565b602001015160f81c60f81b828281518110613d2157613d21615006565b60200101907effffffffffffffffffffffffffffffffffffffffffffffffffffffffffffff1916908160001a90535080613d5a8161508c565b915050613cdd565b50613d6c816146cf565b9150505b60008167ffffffffffffffff811115613d8b57613d8b614790565b6040519080825280601f01601f191660200182016040528015613db5576020820181803683370190505b50905060ff831615613e5a576000613dce846003615b33565b60ff16905060005b83811015613e575787613de98284615b1b565b81518110613df957613df9615006565b602001015160f81c60f81b838281518110613e1657613e16615006565b60200101907effffffffffffffffffffffffffffffffffffffffffffffffffffffffffffff1916908160001a90535080613e4f8161508c565b915050613dd6565b50505b600082613e68856003615b33565b60ff16613e759190615b1b565b90506000818851613e869190615b04565b905080600003613ec2576040517f028512d400000000000000000000000000000000000000000000000000000000815260040160405180910390fd5b60008167ffffffffffffffff811115613edd57613edd614790565b6040519080825280601f01601f191660200182016040528015613f07576020820181803683370190505b50905060008360208b0101602083018481868460045afa9250505080613f59576040517ff7046f3000000000000000000000000000000000000000000000000000000000815260040160405180910390fd5b60405180606001604052808960ff1681526020018681526020018381525098505050505050505050919050565b6040805160c081018252600080825260208201819052918101829052606081018290526080810182905260a08101919091526040805160c081018252600080825260208201819052918101829052606081018290526080810182905260a081019190915261406d6040805160c081018252600080825260208201819052918101829052606081018290526080810182905260a0810191909152506040805160c0810182526301312d008152600a6020820152600891810191909152633b9aca006060820152620f424060808201526fffffffffffffffffffffffffffffffff60a082015290565b91506040518060c001604052808460c001516001600160a01b0316815260200184604001516001600160a01b031681526020018460a001516001600160a01b031681526020018461010001516001600160a01b031681526020018460e001516001600160a01b0316815260200184608001516001600160a01b031681525090506140fa8160000151613a42565b6141078160200151613a42565b6141148160400151613a42565b6141218160600151613a42565b61412e8160800151613a42565b61413b8160a00151613a42565b9250929050565b6000816001600160a01b0316633fc8cef36040518163ffffffff1660e01b8152600401602060405180830381865afa158015612856573d6000803e3d6000fd5b6040805161014081018252600080825260208201819052918101829052606081018290526080810182905260a0810182905260c0810182905260e0810182905261010081018290526101208101919091526000604051806101400160405280846001600160a01b031663bbdc02db6040518163ffffffff1660e01b8152600401602060405180830381865afa15801561421f573d6000803e3d6000fd5b505050506040513d601f19601f8201168201806040525081019061424391906155d6565b63ffffffff168152602001846001600160a01b0316638d450a956040518163ffffffff1660e01b8152600401602060405180830381865afa15801561428c573d6000803e3d6000fd5b505050506040513d601f19601f820116820180604052508101906142b091906156cd565b8152602001846001600160a01b031663fa315aa96040518163ffffffff1660e01b8152600401602060405180830381865afa1580156142f3573d6000803e3d6000fd5b505050506040513d601f19601f8201168201806040525081019061431791906156cd565b8152602001846001600160a01b031663ec5e63086040518163ffffffff1660e01b8152600401602060405180830381865afa15801561435a573d6000803e3d6000fd5b505050506040513d601f19601f8201168201806040525081019061437e91906156cd565b8152602001846001600160a01b0316636b6716c06040518163ffffffff1660e01b8152600401602060405180830381865afa1580156143c1573d6000803e3d6000fd5b505050506040513d601f19601f820116820180604052508101906143e59190615b58565b67ffffffffffffffff168152602001846001600160a01b031663dabd396d6040518163ffffffff1660e01b8152600401602060405180830381865afa158015614432573d6000803e3d6000fd5b505050506040513d601f19601f820116820180604052508101906144569190615b58565b67ffffffffffffffff168152602001846001600160a01b0316633a7684636040518163ffffffff1660e01b8152600401602060405180830381865afa1580156144a3573d6000803e3d6000fd5b505050506040513d601f19601f820116820180604052508101906144c79190615040565b6001600160a01b031681526020016144de85614142565b6001600160a01b031681526020016144f585612b63565b6001600160a01b0316815260200161450c85612911565b90529392505050565b60608182601f011015614584576040517f08c379a000000000000000000000000000000000000000000000000000000000815260206004820152600e60248201527f736c6963655f6f766572666c6f7700000000000000000000000000000000000060448201526064016121dc565b8282840110156145f0576040517f08c379a000000000000000000000000000000000000000000000000000000000815260206004820152600e60248201527f736c6963655f6f766572666c6f7700000000000000000000000000000000000060448201526064016121dc565b8183018451101561465d576040517f08c379a000000000000000000000000000000000000000000000000000000000815260206004820152601160248201527f736c6963655f6f75744f66426f756e647300000000000000000000000000000060448201526064016121dc565b60608215801561467c57604051915060008252602082016040526146c6565b6040519150601f8416801560200281840101858101878315602002848b0101015b818310156146b557805183526020928301920161469d565b5050858452601f01601f1916604052505b50949350505050565b600060208251111561470d576040517f5623dc1c00000000000000000000000000000000000000000000000000000000815260040160405180910390fd5b6000805b835181101561478957614725816001615b1b565b84516147319190615b04565b61473c906008615b75565b614747906002615c78565b84828151811061475957614759615006565b016020015161476b919060f81c615b75565b6147759083615b1b565b9150806147818161508c565b915050614711565b5092915050565b7f4e487b7100000000000000000000000000000000000000000000000000000000600052604160045260246000fd5b6040516101a0810167ffffffffffffffff811182821017156147e3576147e3614790565b60405290565b6040516060810167ffffffffffffffff811182821017156147e3576147e3614790565b604051610120810167ffffffffffffffff811182821017156147e3576147e3614790565b604051610180810167ffffffffffffffff811182821017156147e3576147e3614790565b604051601f8201601f1916810167ffffffffffffffff8111828210171561487d5761487d614790565b604052919050565b600067ffffffffffffffff82111561489f5761489f614790565b5060051b60200190565b600082601f8301126148ba57600080fd5b813567ffffffffffffffff8111156148d4576148d4614790565b6148e76020601f19601f84011601614854565b8181528460208386010111156148fc57600080fd5b816020850160208301376000918101602001919091529392505050565b6001600160a01b038116811461334557600080fd5b803561493981614919565b919050565b63ffffffff8116811461334557600080fd5b80356149398161493e565b67ffffffffffffffff8116811461334557600080fd5b80356149398161495b565b8035801515811461493957600080fd5b6000602080838503121561499f57600080fd5b823567ffffffffffffffff808211156149b757600080fd5b818501915085601f8301126149cb57600080fd5b81356149de6149d982614885565b614854565b81815260059190911b830184019084810190888311156149fd57600080fd5b8585015b83811015614b2c57803585811115614a195760008081fd5b86016101a0818c03601f1901811315614a325760008081fd5b614a3a6147bf565b8983013588811115614a4c5760008081fd5b614a5a8e8c838701016148a9565b8252506040614a6a81850161492e565b8b8301526060614a7b81860161492e565b8284015260809150614a8e82860161492e565b9083015260a0614a9f858201614950565b8284015260c0915081850135818401525060e080850135828401526101009150818501358184015250610120614ad6818601614971565b828401526101409150614aea828601614971565b818401525061016080850135828401526101809150614b0a82860161492e565b90830152614b1984840161497c565b9082015285525050918601918601614a01565b5098975050505050505050565b602080825282518282018190526000919060409081850190868401855b82811015614b8857815180516001600160a01b0390811686529087015116868501529284019290850190600101614b56565b5091979650505050505050565b81516001600160a01b0316815261018081016020830151614bc160208401826001600160a01b03169052565b506040830151614bdc60408401826001600160a01b03169052565b506060830151614bf760608401826001600160a01b03169052565b506080830151614c1260808401826001600160a01b03169052565b5060a0830151614c2d60a08401826001600160a01b03169052565b5060c0830151614c4860c08401826001600160a01b03169052565b5060e0830151614c6360e08401826001600160a01b03169052565b50610100838101516001600160a01b039081169184019190915261012080850151821690840152610140808501518216908401526101608085015191821681850152905b505092915050565b600060208284031215614cc157600080fd5b5035919050565b60005b83811015614ce3578181015183820152602001614ccb565b838111156127445750506000910152565b60008151808452614d0c816020860160208601614cc8565b601f01601f19169290920160200192915050565b60208152600061290a6020830184614cf4565b600060208284031215614d4557600080fd5b813567ffffffffffffffff811115614d5c57600080fd5b8201610240818503121561290a57600080fd5b81516001600160a01b031681526101c081016020830151614d9b60208401826001600160a01b03169052565b506040830151614db660408401826001600160a01b03169052565b506060830151614dd160608401826001600160a01b03169052565b506080830151614dec60808401826001600160a01b03169052565b5060a0830151614e0760a08401826001600160a01b03169052565b5060c0830151614e2260c08401826001600160a01b03169052565b5060e0830151614e3d60e08401826001600160a01b03169052565b50610100838101516001600160a01b0390811691840191909152610120808501518216908401526101408085015182169084015261016080850151821690840152610180808501518216908401526101a0808501519182168185015290614ca7565b600060208284031215614eb157600080fd5b61290a8261497c565b81516001600160a01b03908116825260208084015182169083015260408084015182169083015260608084015182169083015260808084015182169083015260a08084015182169083015260c08084015182169083015260e0808401518216908301526101008084015191821681840152610120830191614ca7565b60006020808385031215614f4957600080fd5b823567ffffffffffffffff811115614f6057600080fd5b8301601f81018513614f7157600080fd5b8035614f7f6149d982614885565b81815260609182028301840191848201919088841115614f9e57600080fd5b938501935b83851015614ffa5780858a031215614fbb5760008081fd5b614fc36147e9565b8535614fce81614919565b815285870135614fdd81614919565b818801526040868101359082015283529384019391850191614fa3565b50979650505050505050565b7f4e487b7100000000000000000000000000000000000000000000000000000000600052603260045260246000fd5b805161493981614919565b60006020828403121561505257600080fd5b815161290a81614919565b7f4e487b7100000000000000000000000000000000000000000000000000000000600052601160045260246000fd5b6000600019820361509f5761509f61505d565b5060010190565b6000815160208301517fffffffffffffffffffffffffffffffffffffffff000000000000000000000000808216935060148310156150ee5780818460140360031b1b83161693505b505050919050565b600181811c9082168061510a57607f821691505b602082108103615143577f4e487b7100000000000000000000000000000000000000000000000000000000600052602260045260246000fd5b50919050565b600080835481600182811c91508083168061516557607f831692505b6020808410820361519d577f4e487b710000000000000000000000000000000000000000000000000000000086526022600452602486fd5b8180156151b157600181146151e457615211565b7fffffffffffffffffffffffffffffffffffffffffffffffffffffffffffffff0086168952841515850289019650615211565b60008a81526020902060005b868110156152095781548b8201529085019083016151f0565b505084890196505b505050505050615240817f2d726300000000000000000000000000000000000000000000000000000000009052565b6003019392505050565b6000825161525c818460208701614cc8565b7f2b696e7465726f702e3400000000000000000000000000000000000000000000920191825250600a01919050565b60008083357fffffffffffffffffffffffffffffffffffffffffffffffffffffffffffffffe18436030181126152c057600080fd5b83018035915067ffffffffffffffff8211156152db57600080fd5b60200191503681900382131561413b57600080fd5b6001600160a01b03831681526040810160038310615337577f4e487b7100000000000000000000000000000000000000000000000000000000600052602160045260246000fd5b8260208301529392505050565b6001600160a01b03831681526040602082015260006153666040830184614cf4565b949350505050565b60006020828403121561538057600080fd5b813561290a8161493e565b60006020828403121561539d57600080fd5b813561290a8161495b565b6000602082840312156153ba57600080fd5b813561290a81614919565b600060c082840312156153d757600080fd5b60405160c0810181811067ffffffffffffffff821117156153fa576153fa614790565b604052905080823561540b81614919565b8152602083013561541b81614919565b6020820152604083013561542e81614919565b6040820152606083013561544181614919565b6060820152608083013561545481614919565b608082015260a083013561546781614919565b60a0919091015292915050565b6000610240823603121561548757600080fd5b61548f6147bf565b61549936846153c5565b81526154a760c08401614950565b60208201526154b860e08401614950565b60408201526101008084013560608301526101208085013567ffffffffffffffff808211156154e657600080fd5b6154f2368389016148a9565b60808601526101409150818701358181111561550d57600080fd5b61551936828a016148a9565b60a0870152505061016061552e818801614971565b60c0860152610180615541818901614950565b60e08701526101a0880135858701526101c0880135848701526101e0880135838701526155716102008901614971565b828701526155826102208901614971565b90860152509295945050505050565b7f76322e302e302d000000000000000000000000000000000000000000000000008152600082516155c9816007850160208701614cc8565b9190910160070192915050565b6000602082840312156155e857600080fd5b815161290a8161493e565b6000806040838503121561560657600080fd5b505080516020909101519092909150565b6000610120828403121561562a57600080fd5b61563261480c565b61563b83615035565b815261564960208401615035565b602082015261565a60408401615035565b604082015261566b60608401615035565b606082015261567c60808401615035565b608082015261568d60a08401615035565b60a082015261569e60c08401615035565b60c08201526156af60e08401615035565b60e08201526101006156c2818501615035565b908201529392505050565b6000602082840312156156df57600080fd5b5051919050565b600061018082840312156156f957600080fd5b615701614830565b61570a83615035565b815261571860208401615035565b602082015261572960408401615035565b604082015261573a60608401615035565b606082015261574b60808401615035565b608082015261575c60a08401615035565b60a082015261576d60c08401615035565b60c082015261577e60e08401615035565b60e0820152610100615791818501615035565b908201526101206157a3848201615035565b908201526101406157b5848201615035565b908201526101606156c2848201615035565b60006001600160a01b03808616835280851660208401525060606040830152612ca16060830184614cf4565b83815260606020820152600061580c6060830185614cf4565b82810360408401526129b58185614cf4565b805163ffffffff1682526020810151602083015260408101516040830152606081015160608301526080810151615861608084018267ffffffffffffffff169052565b5060a081015161587d60a084018267ffffffffffffffff169052565b5060c081015161589860c08401826001600160a01b03169052565b5060e08101516158b360e08401826001600160a01b03169052565b50610100818101516001600160a01b03169083015261012090810151910152565b61018081016158e3828661581e565b6001600160a01b0380851661014084015280841661016084015250949350505050565b60008451615918818460208901614cc8565b84519083019061592c818360208901614cc8565b845191019061593f818360208801614cc8565b0195945050505050565b610140810161287a828461581e565b6000835161596a818460208801614cc8565b83519083019061597e818360208801614cc8565b01949350505050565b6000610280820190506001600160a01b03808d16835263ffffffff808d166020850152808c1660408501528a606085015267ffffffffffffffff8a16608085015281891660a08501528088511660c085015260ff60208901511660e085015260ff604089015116610100850152806060890151166101208501528060808901511661014085015250506fffffffffffffffffffffffffffffffff60a087015116610160830152615a436101808301866001600160a01b03169052565b83516001600160a01b039081166101a0840152602085015181166101c0840152604085015181166101e0840152606085015181166102008401526080850151811661022084015260a0850151166102408301526001600160a01b0383166102608301529b9a5050505050505050505050565b600060408284031215615ac757600080fd5b6040516040810181811067ffffffffffffffff82111715615aea57615aea614790565b604052825181526020928301519281019290925250919050565b600082821015615b1657615b1661505d565b500390565b60008219821115615b2e57615b2e61505d565b500190565b600060ff821660ff84168060ff03821115615b5057615b5061505d565b019392505050565b600060208284031215615b6a57600080fd5b815161290a8161495b565b6000816000190483118215151615615b8f57615b8f61505d565b500290565b600181815b80851115615bcf578160001904821115615bb557615bb561505d565b80851615615bc257918102915b93841c9390800290615b99565b509250929050565b600082615be65750600161287a565b81615bf35750600061287a565b8160018114615c095760028114615c1357615c2f565b600191505061287a565b60ff841115615c2457615c2461505d565b50506001821b61287a565b5060208310610133831016604e8410600b8410161715615c52575081810a61287a565b615c5c8383615b94565b8060001904821115615c7057615c7061505d565b029392505050565b600061290a8383615bd756fea164736f6c634300080f000a","linkReferences":{}},"methodIdentifiers":{"addGameType((string,address,address,address,uint32,bytes32,uint256,uint256,uint64,uint64,uint256,address,bool)[])":"1661a2e9","blueprints()":"b51f9c2b","chainIdToBatchInboxAddress(uint256)":"318b1b80","deploy(((address,address,address,address,address,address),uint32,uint32,uint256,bytes,string,uint64,uint32,bytes32,uint256,uint256,uint64,uint64))":"613e827b","implementations()":"30e9012c","isRC()":"f179c48d","l1ContractsRelease()":"35cb2e9b","protocolVersions()":"6624856a","setRC(bool)":"6ccdfe11","superchainConfig()":"35e80ab3","superchainProxyAdmin()":"2b96b839","upgrade((address,address,bytes32)[])":"ff2dd5a1","upgradeController()":"87543ef6","version()":"54fd4d50"},"storageLayout":{"storage":[{"astId":77847,"contract":"src/L1/OPContractsManagerInterop.sol:OPContractsManagerInterop","label":"L1_CONTRACTS_RELEASE","offset":0,"slot":"0","type":"t_string_storage"},{"astId":77851,"contract":"src/L1/OPContractsManagerInterop.sol:OPContractsManagerInterop","label":"blueprint","offset":0,"slot":"1","type":"t_struct(Blueprints)77746_storage"},{"astId":77855,"contract":"src/L1/OPContractsManagerInterop.sol:OPContractsManagerInterop","label":"implementation","offset":0,"slot":"10","type":"t_struct(Implementations)77771_storage"},{"astId":77866,"contract":"src/L1/OPContractsManagerInterop.sol:OPContractsManagerInterop","label":"isRC","offset":0,"slot":"22","type":"t_bool"}],"types":{"t_address":{"encoding":"inplace","label":"address","numberOfBytes":"20"},"t_bool":{"encoding":"inplace","label":"bool","numberOfBytes":"1"},"t_string_storage":{"encoding":"bytes","label":"string","numberOfBytes":"32"},"t_struct(Blueprints)77746_storage":{"encoding":"inplace","label":"struct OPContractsManager.Blueprints","numberOfBytes":"288","members":[{"astId":77729,"contract":"src/L1/OPContractsManagerInterop.sol:OPContractsManagerInterop","label":"addressManager","offset":0,"slot":"0","type":"t_address"},{"astId":77731,"contract":"src/L1/OPContractsManagerInterop.sol:OPContractsManagerInterop","label":"proxy","offset":0,"slot":"1","type":"t_address"},{"astId":77733,"contract":"src/L1/OPContractsManagerInterop.sol:OPContractsManagerInterop","label":"proxyAdmin","offset":0,"slot":"2","type":"t_address"},{"astId":77735,"contract":"src/L1/OPContractsManagerInterop.sol:OPContractsManagerInterop","label":"l1ChugSplashProxy","offset":0,"slot":"3","type":"t_address"},{"astId":77737,"contract":"src/L1/OPContractsManagerInterop.sol:OPContractsManagerInterop","label":"resolvedDelegateProxy","offset":0,"slot":"4","type":"t_address"},{"astId":77739,"contract":"src/L1/OPContractsManagerInterop.sol:OPContractsManagerInterop","label":"permissionedDisputeGame1","offset":0,"slot":"5","type":"t_address"},{"astId":77741,"contract":"src/L1/OPContractsManagerInterop.sol:OPContractsManagerInterop","label":"permissionedDisputeGame2","offset":0,"slot":"6","type":"t_address"},{"astId":77743,"contract":"src/L1/OPContractsManagerInterop.sol:OPContractsManagerInterop","label":"permissionlessDisputeGame1","offset":0,"slot":"7","type":"t_address"},{"astId":77745,"contract":"src/L1/OPContractsManagerInterop.sol:OPContractsManagerInterop","label":"permissionlessDisputeGame2","offset":0,"slot":"8","type":"t_address"}]},"t_struct(Implementations)77771_storage":{"encoding":"inplace","label":"struct OPContractsManager.Implementations","numberOfBytes":"384","members":[{"astId":77748,"contract":"src/L1/OPContractsManagerInterop.sol:OPContractsManagerInterop","label":"superchainConfigImpl","offset":0,"slot":"0","type":"t_address"},{"astId":77750,"contract":"src/L1/OPContractsManagerInterop.sol:OPContractsManagerInterop","label":"protocolVersionsImpl","offset":0,"slot":"1","type":"t_address"},{"astId":77752,"contract":"src/L1/OPContractsManagerInterop.sol:OPContractsManagerInterop","label":"l1ERC721BridgeImpl","offset":0,"slot":"2","type":"t_address"},{"astId":77754,"contract":"src/L1/OPContractsManagerInterop.sol:OPContractsManagerInterop","label":"optimismPortalImpl","offset":0,"slot":"3","type":"t_address"},{"astId":77756,"contract":"src/L1/OPContractsManagerInterop.sol:OPContractsManagerInterop","label":"systemConfigImpl","offset":0,"slot":"4","type":"t_address"},{"astId":77758,"contract":"src/L1/OPContractsManagerInterop.sol:OPContractsManagerInterop","label":"optimismMintableERC20FactoryImpl","offset":0,"slot":"5","type":"t_address"},{"astId":77760,"contract":"src/L1/OPContractsManagerInterop.sol:OPContractsManagerInterop","label":"l1CrossDomainMessengerImpl","offset":0,"slot":"6","type":"t_address"},{"astId":77762,"contract":"src/L1/OPContractsManagerInterop.sol:OPContractsManagerInterop","label":"l1StandardBridgeImpl","offset":0,"slot":"7","type":"t_address"},{"astId":77764,"contract":"src/L1/OPContractsManagerInterop.sol:OPContractsManagerInterop","label":"disputeGameFactoryImpl","offset":0,"slot":"8","type":"t_address"},{"astId":77766,"contract":"src/L1/OPContractsManagerInterop.sol:OPContractsManagerInterop","label":"anchorStateRegistryImpl","offset":0,"slot":"9","type":"t_address"},{"astId":77768,"contract":"src/L1/OPContractsManagerInterop.sol:OPContractsManagerInterop","label":"delayedWETHImpl","offset":0,"slot":"10","type":"t_address"},{"astId":77770,"contract":"src/L1/OPContractsManagerInterop.sol:OPContractsManagerInterop","label":"mipsImpl","offset":0,"slot":"11","type":"t_address"}]}}},"userdoc":{"version":1,"kind":"user","methods":{"addGameType((string,address,address,address,uint32,bytes32,uint256,uint256,uint64,uint64,uint256,address,bool)[])":{"notice":"addGameType deploys a new dispute game and links it to the DisputeGameFactory. The inputted _gameConfigs must be added in ascending GameType order."},"blueprints()":{"notice":"Returns the blueprint contract addresses."},"chainIdToBatchInboxAddress(uint256)":{"notice":"Maps an L2 chain ID to an L1 batch inbox address as defined by the standard configuration's convention. This convention is `versionByte || keccak256(bytes32(chainId))[:19]`, where || denotes concatenation`, versionByte is 0x00, and chainId is a uint256. https://specs.optimism.io/protocol/configurability.html#consensus-parameters"},"implementations()":{"notice":"Returns the implementation contract addresses."},"isRC()":{"notice":"Whether this is a release candidate."},"l1ContractsRelease()":{"notice":"Returns the release string. Appends \"-rc\" if this is a release candidate."},"protocolVersions()":{"notice":"Address of the ProtocolVersions contract shared by all chains."},"setRC(bool)":{"notice":"Sets the RC flag."},"superchainConfig()":{"notice":"Address of the SuperchainConfig contract shared by all chains."},"superchainProxyAdmin()":{"notice":"Address of the SuperchainProxyAdmin contract shared by all chains."},"upgrade((address,address,bytes32)[])":{"notice":"Upgrades a set of chains to the latest implementation contracts"},"upgradeController()":{"notice":"The address of the upgrade controller."}},"events":{"Deployed(uint256,address,bytes)":{"notice":"Emitted when a new OP Stack chain is deployed."},"Upgraded(uint256,address,address)":{"notice":"Emitted when a chain is upgraded"}},"errors":{"AddressHasNoCode(address)":[{"notice":"Throw when a contract address has no code."}],"AddressNotFound(address)":[{"notice":"Thrown when an address is the zero address."}],"AlreadyReleased()":[{"notice":"Thrown when a release version is already set."}],"BytesArrayTooLong()":[{"notice":"Thrown when converting a bytes array to a uint256 and the bytes array is too long."}],"DeploymentFailed()":[{"notice":"Throw when contract deployment fails."}],"EmptyInitcode()":[{"notice":"Thrown when parsing a blueprint preamble and the resulting initcode is empty."}],"IdentityPrecompileCallFailed()":[{"notice":"Thrown when call to the identity precompile fails."}],"InvalidChainId()":[{"notice":"Thrown when an invalid `l2ChainId` is provided to `deploy`."}],"InvalidGameConfigs()":[{"notice":"Thrown when game configs passed to addGameType are invalid."}],"InvalidRoleAddress(string)":[{"notice":"Thrown when a role's address is not valid."}],"InvalidStartingAnchorRoot()":[{"notice":"Thrown when the starting anchor root is not provided."}],"LatestReleaseNotSet()":[{"notice":"Thrown when the latest release is not set upon initialization."}],"NotABlueprint()":[{"notice":"Thrown when parsing a blueprint preamble and the bytecode does not contain the expected prefix bytes."}],"OnlyDelegatecall()":[{"notice":"Thrown when certain methods are called outside of a DELEGATECALL."}],"OnlyUpgradeController()":[{"notice":"Thrown when an address other than the upgrade controller calls the setRC function."}],"PrestateNotSet()":[{"notice":"Thrown when a prestate is not set for a game."}],"ReservedBitsSet()":[{"notice":"Thrown when parsing a blueprint preamble and the reserved bits are set."}],"SuperchainConfigMismatch(address)":[{"notice":"Thrown when the SuperchainConfig of the chain does not match the SuperchainConfig of this OPCM."}],"SuperchainProxyAdminMismatch()":[{"notice":"Thrown when the SuperchainProxyAdmin does not match the SuperchainConfig's admin."}],"UnexpectedPreambleData(bytes)":[{"notice":"Thrown when parsing a blueprint preamble and the preamble data is not empty. We do not use the preamble data, so it's expected to be empty."}],"UnsupportedERCVersion(uint8)":[{"notice":"Thrown during deployment if the ERC version is not supported."}]}},"devdoc":{"version":1,"kind":"dev","methods":{"upgrade((address,address,bytes32)[])":{"details":"This function is intended to be called via DELEGATECALL from the Upgrade Controller Safe","params":{"_opChainConfigs":"Array of OpChain structs, one per chain to upgrade"}},"version()":{}}},"id":118}