{"abi":[{"type":"function","name":"initialize","inputs":[{"name":"_init","type":"uint8","internalType":"uint8"}],"outputs":[],"stateMutability":"nonpayable"},{"type":"function","name":"slot21Init","inputs":[],"outputs":[{"name":"","type":"bytes32","internalType":"bytes32"}],"stateMutability":"view"},{"type":"event","name":"Initialized","inputs":[{"name":"version","type":"uint8","indexed":false,"internalType":"uint8"}],"anonymous":false}],"bytecode":{"object":"0x608060405234801561001057600080fd5b50610222806100206000396000f3fe608060405234801561001057600080fd5b50600436106100365760003560e01c80634351e6b61461003b578063942d341314610050575b600080fd5b61004e6100493660046101eb565b610089565b005b6100777f133700000000000000000000000000000000000000000000000000000000000081565b60405190815260200160405180910390f35b6000548190610100900460ff161580156100aa575060005460ff8083169116105b61013a576040517f08c379a000000000000000000000000000000000000000000000000000000000815260206004820152602e60248201527f496e697469616c697a61626c653a20636f6e747261637420697320616c72656160448201527f647920696e697469616c697a6564000000000000000000000000000000000000606482015260840160405180910390fd5b600080547f13370000000000000000000000000000000000000000000000000000000000006015557fffffffffffffffffffffffffffffffffffffffffffffffffffffffffffff00001660ff8316908117610100177fffffffffffffffffffffffffffffffffffffffffffffffffffffffffffff00ff169091556040519081527f7f26b83ff96e1f2b6a682f133852f6798a09c465da95921460cefb38474024989060200160405180910390a15050565b6000602082840312156101fd57600080fd5b813560ff8116811461020e57600080fd5b939250505056fea164736f6c634300080f000a","linkReferences":{}},"methodIdentifiers":{"initialize(uint8)":"4351e6b6","slot21Init()":"942d3413"},"storageLayout":{"storage":[{"astId":48135,"contract":"test/mocks/NextImpl.sol:NextImpl","label":"_initialized","offset":0,"slot":"0","type":"t_uint8"},{"astId":48138,"contract":"test/mocks/NextImpl.sol:NextImpl","label":"_initializing","offset":1,"slot":"0","type":"t_bool"},{"astId":240646,"contract":"test/mocks/NextImpl.sol:NextImpl","label":"slot1","offset":0,"slot":"1","type":"t_bytes32"},{"astId":240650,"contract":"test/mocks/NextImpl.sol:NextImpl","label":"__gap","offset":0,"slot":"2","type":"t_array(t_bytes32)19_storage"},{"astId":240652,"contract":"test/mocks/NextImpl.sol:NextImpl","label":"slot21","offset":0,"slot":"21","type":"t_bytes32"}],"types":{"t_array(t_bytes32)19_storage":{"encoding":"inplace","label":"bytes32[19]","numberOfBytes":"608","base":"t_bytes32"},"t_bool":{"encoding":"inplace","label":"bool","numberOfBytes":"1"},"t_bytes32":{"encoding":"inplace","label":"bytes32","numberOfBytes":"32"},"t_uint8":{"encoding":"inplace","label":"uint8","numberOfBytes":"1"}}},"userdoc":{"version":1,"kind":"user"},"devdoc":{"version":1,"kind":"dev","details":"Used for testing a future upgrade beyond the current implementations.","title":"NextImpl"},"id":406}