{"abi":[{"type":"function","name":"kevm","inputs":[],"outputs":[{"name":"","type":"address","internalType":"contract KontrolCheatsBase"}],"stateMutability":"view"},{"type":"function","name":"prove_finalizeWithdrawalTransaction_paused","inputs":[{"name":"_tx","type":"tuple","internalType":"struct Types.WithdrawalTransaction","components":[{"name":"nonce","type":"uint256","internalType":"uint256"},{"name":"sender","type":"address","internalType":"address"},{"name":"target","type":"address","internalType":"address"},{"name":"value","type":"uint256","internalType":"uint256"},{"name":"gasLimit","type":"uint256","internalType":"uint256"},{"name":"data","type":"bytes","internalType":"bytes"}]}],"outputs":[],"stateMutability":"nonpayable"},{"type":"function","name":"prove_proveWithdrawalTransaction_paused0","inputs":[{"name":"_tx","type":"tuple","internalType":"struct Types.WithdrawalTransaction","components":[{"name":"nonce","type":"uint256","internalType":"uint256"},{"name":"sender","type":"address","internalType":"address"},{"name":"target","type":"address","internalType":"address"},{"name":"value","type":"uint256","internalType":"uint256"},{"name":"gasLimit","type":"uint256","internalType":"uint256"},{"name":"data","type":"bytes","internalType":"bytes"}]},{"name":"_l2OutputIndex","type":"uint256","internalType":"uint256"},{"name":"_outputRootProof","type":"tuple","internalType":"struct Types.OutputRootProof","components":[{"name":"version","type":"bytes32","internalType":"bytes32"},{"name":"stateRoot","type":"bytes32","internalType":"bytes32"},{"name":"messagePasserStorageRoot","type":"bytes32","internalType":"bytes32"},{"name":"latestBlockhash","type":"bytes32","internalType":"bytes32"}]}],"outputs":[],"stateMutability":"nonpayable"},{"type":"function","name":"prove_proveWithdrawalTransaction_paused1","inputs":[{"name":"_tx","type":"tuple","internalType":"struct Types.WithdrawalTransaction","components":[{"name":"nonce","type":"uint256","internalType":"uint256"},{"name":"sender","type":"address","internalType":"address"},{"name":"target","type":"address","internalType":"address"},{"name":"value","type":"uint256","internalType":"uint256"},{"name":"gasLimit","type":"uint256","internalType":"uint256"},{"name":"data","type":"bytes","internalType":"bytes"}]},{"name":"_l2OutputIndex","type":"uint256","internalType":"uint256"},{"name":"_outputRootProof","type":"tuple","internalType":"struct Types.OutputRootProof","components":[{"name":"version","type":"bytes32","internalType":"bytes32"},{"name":"stateRoot","type":"bytes32","internalType":"bytes32"},{"name":"messagePasserStorageRoot","type":"bytes32","internalType":"bytes32"},{"name":"latestBlockhash","type":"bytes32","internalType":"bytes32"}]},{"name":"_withdrawalProof","type":"bytes[]","internalType":"bytes[]"}],"outputs":[],"stateMutability":"nonpayable"},{"type":"function","name":"prove_proveWithdrawalTransaction_paused10","inputs":[{"name":"_tx","type":"tuple","internalType":"struct Types.WithdrawalTransaction","components":[{"name":"nonce","type":"uint256","internalType":"uint256"},{"name":"sender","type":"address","internalType":"address"},{"name":"target","type":"address","internalType":"address"},{"name":"value","type":"uint256","internalType":"uint256"},{"name":"gasLimit","type":"uint256","internalType":"uint256"},{"name":"data","type":"bytes","internalType":"bytes"}]},{"name":"_l2OutputIndex","type":"uint256","internalType":"uint256"},{"name":"_outputRootProof","type":"tuple","internalType":"struct Types.OutputRootProof","components":[{"name":"version","type":"bytes32","internalType":"bytes32"},{"name":"stateRoot","type":"bytes32","internalType":"bytes32"},{"name":"messagePasserStorageRoot","type":"bytes32","internalType":"bytes32"},{"name":"latestBlockhash","type":"bytes32","internalType":"bytes32"}]},{"name":"_withdrawalProof","type":"bytes[]","internalType":"bytes[]"}],"outputs":[],"stateMutability":"nonpayable"},{"type":"function","name":"prove_proveWithdrawalTransaction_paused2","inputs":[{"name":"_tx","type":"tuple","internalType":"struct Types.WithdrawalTransaction","components":[{"name":"nonce","type":"uint256","internalType":"uint256"},{"name":"sender","type":"address","internalType":"address"},{"name":"target","type":"address","internalType":"address"},{"name":"value","type":"uint256","internalType":"uint256"},{"name":"gasLimit","type":"uint256","internalType":"uint256"},{"name":"data","type":"bytes","internalType":"bytes"}]},{"name":"_l2OutputIndex","type":"uint256","internalType":"uint256"},{"name":"_outputRootProof","type":"tuple","internalType":"struct Types.OutputRootProof","components":[{"name":"version","type":"bytes32","internalType":"bytes32"},{"name":"stateRoot","type":"bytes32","internalType":"bytes32"},{"name":"messagePasserStorageRoot","type":"bytes32","internalType":"bytes32"},{"name":"latestBlockhash","type":"bytes32","internalType":"bytes32"}]},{"name":"_withdrawalProof","type":"bytes[]","internalType":"bytes[]"}],"outputs":[],"stateMutability":"nonpayable"},{"type":"function","name":"prove_proveWithdrawalTransaction_paused3","inputs":[{"name":"_tx","type":"tuple","internalType":"struct Types.WithdrawalTransaction","components":[{"name":"nonce","type":"uint256","internalType":"uint256"},{"name":"sender","type":"address","internalType":"address"},{"name":"target","type":"address","internalType":"address"},{"name":"value","type":"uint256","internalType":"uint256"},{"name":"gasLimit","type":"uint256","internalType":"uint256"},{"name":"data","type":"bytes","internalType":"bytes"}]},{"name":"_l2OutputIndex","type":"uint256","internalType":"uint256"},{"name":"_outputRootProof","type":"tuple","internalType":"struct Types.OutputRootProof","components":[{"name":"version","type":"bytes32","internalType":"bytes32"},{"name":"stateRoot","type":"bytes32","internalType":"bytes32"},{"name":"messagePasserStorageRoot","type":"bytes32","internalType":"bytes32"},{"name":"latestBlockhash","type":"bytes32","internalType":"bytes32"}]},{"name":"_withdrawalProof","type":"bytes[]","internalType":"bytes[]"}],"outputs":[],"stateMutability":"nonpayable"},{"type":"function","name":"prove_proveWithdrawalTransaction_paused4","inputs":[{"name":"_tx","type":"tuple","internalType":"struct Types.WithdrawalTransaction","components":[{"name":"nonce","type":"uint256","internalType":"uint256"},{"name":"sender","type":"address","internalType":"address"},{"name":"target","type":"address","internalType":"address"},{"name":"value","type":"uint256","internalType":"uint256"},{"name":"gasLimit","type":"uint256","internalType":"uint256"},{"name":"data","type":"bytes","internalType":"bytes"}]},{"name":"_l2OutputIndex","type":"uint256","internalType":"uint256"},{"name":"_outputRootProof","type":"tuple","internalType":"struct Types.OutputRootProof","components":[{"name":"version","type":"bytes32","internalType":"bytes32"},{"name":"stateRoot","type":"bytes32","internalType":"bytes32"},{"name":"messagePasserStorageRoot","type":"bytes32","internalType":"bytes32"},{"name":"latestBlockhash","type":"bytes32","internalType":"bytes32"}]},{"name":"_withdrawalProof","type":"bytes[]","internalType":"bytes[]"}],"outputs":[],"stateMutability":"nonpayable"},{"type":"function","name":"prove_proveWithdrawalTransaction_paused5","inputs":[{"name":"_tx","type":"tuple","internalType":"struct Types.WithdrawalTransaction","components":[{"name":"nonce","type":"uint256","internalType":"uint256"},{"name":"sender","type":"address","internalType":"address"},{"name":"target","type":"address","internalType":"address"},{"name":"value","type":"uint256","internalType":"uint256"},{"name":"gasLimit","type":"uint256","internalType":"uint256"},{"name":"data","type":"bytes","internalType":"bytes"}]},{"name":"_l2OutputIndex","type":"uint256","internalType":"uint256"},{"name":"_outputRootProof","type":"tuple","internalType":"struct Types.OutputRootProof","components":[{"name":"version","type":"bytes32","internalType":"bytes32"},{"name":"stateRoot","type":"bytes32","internalType":"bytes32"},{"name":"messagePasserStorageRoot","type":"bytes32","internalType":"bytes32"},{"name":"latestBlockhash","type":"bytes32","internalType":"bytes32"}]},{"name":"_withdrawalProof","type":"bytes[]","internalType":"bytes[]"}],"outputs":[],"stateMutability":"nonpayable"},{"type":"function","name":"prove_proveWithdrawalTransaction_paused6","inputs":[{"name":"_tx","type":"tuple","internalType":"struct Types.WithdrawalTransaction","components":[{"name":"nonce","type":"uint256","internalType":"uint256"},{"name":"sender","type":"address","internalType":"address"},{"name":"target","type":"address","internalType":"address"},{"name":"value","type":"uint256","internalType":"uint256"},{"name":"gasLimit","type":"uint256","internalType":"uint256"},{"name":"data","type":"bytes","internalType":"bytes"}]},{"name":"_l2OutputIndex","type":"uint256","internalType":"uint256"},{"name":"_outputRootProof","type":"tuple","internalType":"struct Types.OutputRootProof","components":[{"name":"version","type":"bytes32","internalType":"bytes32"},{"name":"stateRoot","type":"bytes32","internalType":"bytes32"},{"name":"messagePasserStorageRoot","type":"bytes32","internalType":"bytes32"},{"name":"latestBlockhash","type":"bytes32","internalType":"bytes32"}]},{"name":"_withdrawalProof","type":"bytes[]","internalType":"bytes[]"}],"outputs":[],"stateMutability":"nonpayable"},{"type":"function","name":"prove_proveWithdrawalTransaction_paused7","inputs":[{"name":"_tx","type":"tuple","internalType":"struct Types.WithdrawalTransaction","components":[{"name":"nonce","type":"uint256","internalType":"uint256"},{"name":"sender","type":"address","internalType":"address"},{"name":"target","type":"address","internalType":"address"},{"name":"value","type":"uint256","internalType":"uint256"},{"name":"gasLimit","type":"uint256","internalType":"uint256"},{"name":"data","type":"bytes","internalType":"bytes"}]},{"name":"_l2OutputIndex","type":"uint256","internalType":"uint256"},{"name":"_outputRootProof","type":"tuple","internalType":"struct Types.OutputRootProof","components":[{"name":"version","type":"bytes32","internalType":"bytes32"},{"name":"stateRoot","type":"bytes32","internalType":"bytes32"},{"name":"messagePasserStorageRoot","type":"bytes32","internalType":"bytes32"},{"name":"latestBlockhash","type":"bytes32","internalType":"bytes32"}]},{"name":"_withdrawalProof","type":"bytes[]","internalType":"bytes[]"}],"outputs":[],"stateMutability":"nonpayable"},{"type":"function","name":"prove_proveWithdrawalTransaction_paused8","inputs":[{"name":"_tx","type":"tuple","internalType":"struct Types.WithdrawalTransaction","components":[{"name":"nonce","type":"uint256","internalType":"uint256"},{"name":"sender","type":"address","internalType":"address"},{"name":"target","type":"address","internalType":"address"},{"name":"value","type":"uint256","internalType":"uint256"},{"name":"gasLimit","type":"uint256","internalType":"uint256"},{"name":"data","type":"bytes","internalType":"bytes"}]},{"name":"_l2OutputIndex","type":"uint256","internalType":"uint256"},{"name":"_outputRootProof","type":"tuple","internalType":"struct Types.OutputRootProof","components":[{"name":"version","type":"bytes32","internalType":"bytes32"},{"name":"stateRoot","type":"bytes32","internalType":"bytes32"},{"name":"messagePasserStorageRoot","type":"bytes32","internalType":"bytes32"},{"name":"latestBlockhash","type":"bytes32","internalType":"bytes32"}]},{"name":"_withdrawalProof","type":"bytes[]","internalType":"bytes[]"}],"outputs":[],"stateMutability":"nonpayable"},{"type":"function","name":"prove_proveWithdrawalTransaction_paused9","inputs":[{"name":"_tx","type":"tuple","internalType":"struct Types.WithdrawalTransaction","components":[{"name":"nonce","type":"uint256","internalType":"uint256"},{"name":"sender","type":"address","internalType":"address"},{"name":"target","type":"address","internalType":"address"},{"name":"value","type":"uint256","internalType":"uint256"},{"name":"gasLimit","type":"uint256","internalType":"uint256"},{"name":"data","type":"bytes","internalType":"bytes"}]},{"name":"_l2OutputIndex","type":"uint256","internalType":"uint256"},{"name":"_outputRootProof","type":"tuple","internalType":"struct Types.OutputRootProof","components":[{"name":"version","type":"bytes32","internalType":"bytes32"},{"name":"stateRoot","type":"bytes32","internalType":"bytes32"},{"name":"messagePasserStorageRoot","type":"bytes32","internalType":"bytes32"},{"name":"latestBlockhash","type":"bytes32","internalType":"bytes32"}]},{"name":"_withdrawalProof","type":"bytes[]","internalType":"bytes[]"}],"outputs":[],"stateMutability":"nonpayable"},{"type":"function","name":"setUpInlined","inputs":[],"outputs":[],"stateMutability":"nonpayable"}],"bytecode":{"object":"0x608060405234801561001057600080fd5b50610f54806100206000396000f3fe608060405234801561001057600080fd5b50600436106100ea5760003560e01c8063ac912f561161008c578063da1c5d8b11610066578063da1c5d8b14610104578063ee4c1fe114610104578063f29e438f14610104578063fb581d431461010457600080fd5b8063ac912f5614610104578063c5b1bba314610104578063d6a2ec761461018357600080fd5b8063574ca3ab116100c8578063574ca3ab146101175780637aefd561146101045780638fe30c691461012a578063ab4811151461010457600080fd5b80632d0a28be146100ef57806332ba5da8146101045780634c8d091d14610104575b600080fd5b6101026100fd366004610aab565b6101d3565b005b610102610112366004610b03565b610213565b610102610125366004610bb6565b61022f565b6004546005805473ffffffffffffffffffffffffffffffffffffffff9283167fffffffffffffffffffffffff00000000000000000000000000000000000000009182161790915560015460068054919093169116179055005b6101aa7f885cb69240a935d632d79c317109709ecfa91a80626ff3989d68f67f5b1dd12d81565b60405173ffffffffffffffffffffffffffffffffffffffff909116815260200160405180910390f35b60408051600080825260208201909252816101fe565b60608152602001906001900390816101e95790505b50905061020d84848484610569565b50505050565b6102288585856102238587610bf8565b610569565b5050505050565b600480546005805473ffffffffffffffffffffffffffffffffffffffff9283167fffffffffffffffffffffffff000000000000000000000000000000000000000091821681179092556001546006805491909416911617909155604080517f452a93200000000000000000000000000000000000000000000000000000000081529051737109709ecfa91a80626ff3989d68f67f5b1dd12d9363ca669fa7939263452a932092818301926020928290030181865afa1580156102f5573d6000803e3d6000fd5b505050506040513d601f19601f820116820180604052508101906103199190610c7c565b6040517fffffffff0000000000000000000000000000000000000000000000000000000060e084901b16815273ffffffffffffffffffffffffffffffffffffffff9091166004820152602401600060405180830381600087803b15801561037f57600080fd5b505af1158015610393573d6000803e3d6000fd5b50506006546040517f6da6635500000000000000000000000000000000000000000000000000000000815260206004820152600a60248201527f6964656e74696669657200000000000000000000000000000000000000000000604482015273ffffffffffffffffffffffffffffffffffffffff9091169250636da663559150606401600060405180830381600087803b15801561043057600080fd5b505af1158015610444573d6000803e3d6000fd5b50506040517fc31eb0e00000000000000000000000000000000000000000000000000000000081527ff480973e000000000000000000000000000000000000000000000000000000006004820152737109709ecfa91a80626ff3989d68f67f5b1dd12d925063c31eb0e09150602401600060405180830381600087803b1580156104cd57600080fd5b505af11580156104e1573d6000803e3d6000fd5b50506005546040517f8c3152e900000000000000000000000000000000000000000000000000000000815273ffffffffffffffffffffffffffffffffffffffff9091169250638c3152e9915061053b908490600401610ce2565b600060405180830381600087803b15801561055557600080fd5b505af1158015610228573d6000803e3d6000fd5b600480546005805473ffffffffffffffffffffffffffffffffffffffff9283167fffffffffffffffffffffffff000000000000000000000000000000000000000091821681179092556001546006805491909416911617909155604080517f452a93200000000000000000000000000000000000000000000000000000000081529051737109709ecfa91a80626ff3989d68f67f5b1dd12d9363ca669fa7939263452a932092818301926020928290030181865afa15801561062f573d6000803e3d6000fd5b505050506040513d601f19601f820116820180604052508101906106539190610c7c565b6040517fffffffff0000000000000000000000000000000000000000000000000000000060e084901b16815273ffffffffffffffffffffffffffffffffffffffff9091166004820152602401600060405180830381600087803b1580156106b957600080fd5b505af11580156106cd573d6000803e3d6000fd5b50506006546040517f6da6635500000000000000000000000000000000000000000000000000000000815260206004820152600a60248201527f6964656e74696669657200000000000000000000000000000000000000000000604482015273ffffffffffffffffffffffffffffffffffffffff9091169250636da663559150606401600060405180830381600087803b15801561076a57600080fd5b505af115801561077e573d6000803e3d6000fd5b50506040517fc31eb0e00000000000000000000000000000000000000000000000000000000081527ff480973e000000000000000000000000000000000000000000000000000000006004820152737109709ecfa91a80626ff3989d68f67f5b1dd12d925063c31eb0e09150602401600060405180830381600087803b15801561080757600080fd5b505af115801561081b573d6000803e3d6000fd5b50506005546040517f4870496f00000000000000000000000000000000000000000000000000000000815273ffffffffffffffffffffffffffffffffffffffff9091169250634870496f915061087b908790879087908790600401610e86565b600060405180830381600087803b15801561089557600080fd5b505af11580156108a9573d6000803e3d6000fd5b5050505050505050565b7f4e487b7100000000000000000000000000000000000000000000000000000000600052604160045260246000fd5b604051601f82017fffffffffffffffffffffffffffffffffffffffffffffffffffffffffffffffe016810167ffffffffffffffff81118282101715610929576109296108b3565b604052919050565b73ffffffffffffffffffffffffffffffffffffffff8116811461095357600080fd5b50565b600082601f83011261096757600080fd5b813567ffffffffffffffff811115610981576109816108b3565b6109b260207fffffffffffffffffffffffffffffffffffffffffffffffffffffffffffffffe0601f840116016108e2565b8181528460208386010111156109c757600080fd5b816020850160208301376000918101602001919091529392505050565b600060c082840312156109f657600080fd5b60405160c0810167ffffffffffffffff8282108183111715610a1a57610a1a6108b3565b816040528293508435835260208501359150610a3582610931565b81602084015260408501359150610a4b82610931565b816040840152606085013560608401526080850135608084015260a0850135915080821115610a7957600080fd5b50610a8685828601610956565b60a0830152505092915050565b600060808284031215610aa557600080fd5b50919050565b600080600060c08486031215610ac057600080fd5b833567ffffffffffffffff811115610ad757600080fd5b610ae3868287016109e4565b93505060208401359150610afa8560408601610a93565b90509250925092565b600080600080600060e08688031215610b1b57600080fd5b853567ffffffffffffffff80821115610b3357600080fd5b610b3f89838a016109e4565b965060208801359550610b558960408a01610a93565b945060c0880135915080821115610b6b57600080fd5b818801915088601f830112610b7f57600080fd5b813581811115610b8e57600080fd5b8960208260051b8501011115610ba357600080fd5b9699959850939650602001949392505050565b600060208284031215610bc857600080fd5b813567ffffffffffffffff811115610bdf57600080fd5b820160c08185031215610bf157600080fd5b9392505050565b600067ffffffffffffffff80841115610c1357610c136108b3565b8360051b6020610c248183016108e2565b868152918501918181019036841115610c3c57600080fd5b865b84811015610c7057803586811115610c565760008081fd5b610c6236828b01610956565b845250918301918301610c3e565b50979650505050505050565b600060208284031215610c8e57600080fd5b8151610bf181610931565b8183528181602085013750600060208284010152600060207fffffffffffffffffffffffffffffffffffffffffffffffffffffffffffffffe0601f840116840101905092915050565b602081528135602082015260006020830135610cfd81610931565b73ffffffffffffffffffffffffffffffffffffffff808216604085015260408501359150610d2a82610931565b8082166060850152505060608301356080830152608083013560a083015260a08301357fffffffffffffffffffffffffffffffffffffffffffffffffffffffffffffffe1843603018112610d7d57600080fd5b830160208101903567ffffffffffffffff811115610d9a57600080fd5b803603821315610da957600080fd5b60c080850152610dbd60e085018284610c99565b95945050505050565b6000815180845260005b81811015610dec57602081850181015186830182015201610dd0565b81811115610dfe576000602083870101525b50601f017fffffffffffffffffffffffffffffffffffffffffffffffffffffffffffffffe0169290920160200192915050565b600081518084526020808501808196508360051b8101915082860160005b85811015610e79578284038952610e67848351610dc6565b98850198935090840190600101610e4f565b5091979650505050505050565b60e0808252855190820152602085015173ffffffffffffffffffffffffffffffffffffffff9081166101008301526040860151166101208201526060850151610140820152608085015161016082015260a085015160c0610180830152600090610ef46101a0840182610dc6565b9050856020840152610f2a6040840186803582526020810135602083015260408101356040830152606081013560608301525050565b82810360c0840152610f3c8185610e31565b97965050505050505056fea164736f6c634300080f000a","linkReferences":{}},"methodIdentifiers":{"kevm()":"d6a2ec76","prove_finalizeWithdrawalTransaction_paused((uint256,address,address,uint256,uint256,bytes))":"574ca3ab","prove_proveWithdrawalTransaction_paused0((uint256,address,address,uint256,uint256,bytes),uint256,(bytes32,bytes32,bytes32,bytes32))":"2d0a28be","prove_proveWithdrawalTransaction_paused1((uint256,address,address,uint256,uint256,bytes),uint256,(bytes32,bytes32,bytes32,bytes32),bytes[])":"4c8d091d","prove_proveWithdrawalTransaction_paused10((uint256,address,address,uint256,uint256,bytes),uint256,(bytes32,bytes32,bytes32,bytes32),bytes[])":"c5b1bba3","prove_proveWithdrawalTransaction_paused2((uint256,address,address,uint256,uint256,bytes),uint256,(bytes32,bytes32,bytes32,bytes32),bytes[])":"ee4c1fe1","prove_proveWithdrawalTransaction_paused3((uint256,address,address,uint256,uint256,bytes),uint256,(bytes32,bytes32,bytes32,bytes32),bytes[])":"da1c5d8b","prove_proveWithdrawalTransaction_paused4((uint256,address,address,uint256,uint256,bytes),uint256,(bytes32,bytes32,bytes32,bytes32),bytes[])":"7aefd561","prove_proveWithdrawalTransaction_paused5((uint256,address,address,uint256,uint256,bytes),uint256,(bytes32,bytes32,bytes32,bytes32),bytes[])":"f29e438f","prove_proveWithdrawalTransaction_paused6((uint256,address,address,uint256,uint256,bytes),uint256,(bytes32,bytes32,bytes32,bytes32),bytes[])":"fb581d43","prove_proveWithdrawalTransaction_paused7((uint256,address,address,uint256,uint256,bytes),uint256,(bytes32,bytes32,bytes32,bytes32),bytes[])":"ac912f56","prove_proveWithdrawalTransaction_paused8((uint256,address,address,uint256,uint256,bytes),uint256,(bytes32,bytes32,bytes32,bytes32),bytes[])":"ab481115","prove_proveWithdrawalTransaction_paused9((uint256,address,address,uint256,uint256,bytes),uint256,(bytes32,bytes32,bytes32,bytes32),bytes[])":"32ba5da8","setUpInlined()":"8fe30c69"},"storageLayout":{"storage":[{"astId":229788,"contract":"test/kontrol/proofs/OptimismPortal2.k.sol:OptimismPortal2Kontrol","label":"l1CrossDomainMessengerProxyAddress","offset":0,"slot":"0","type":"t_address"},{"astId":229790,"contract":"test/kontrol/proofs/OptimismPortal2.k.sol:OptimismPortal2Kontrol","label":"superchainConfigProxyAddress","offset":0,"slot":"1","type":"t_address"},{"astId":229792,"contract":"test/kontrol/proofs/OptimismPortal2.k.sol:OptimismPortal2Kontrol","label":"l1ERC721BridgeProxyAddress","offset":0,"slot":"2","type":"t_address"},{"astId":229794,"contract":"test/kontrol/proofs/OptimismPortal2.k.sol:OptimismPortal2Kontrol","label":"l1StandardBridgeProxyAddress","offset":0,"slot":"3","type":"t_address"},{"astId":229796,"contract":"test/kontrol/proofs/OptimismPortal2.k.sol:OptimismPortal2Kontrol","label":"optimismPortalProxyAddress","offset":0,"slot":"4","type":"t_address"},{"astId":229388,"contract":"test/kontrol/proofs/OptimismPortal2.k.sol:OptimismPortal2Kontrol","label":"optimismPortal","offset":0,"slot":"5","type":"t_contract(IOptimismPortal2)1307"},{"astId":229391,"contract":"test/kontrol/proofs/OptimismPortal2.k.sol:OptimismPortal2Kontrol","label":"superchainConfig","offset":0,"slot":"6","type":"t_contract(ISuperchainConfig)1836"}],"types":{"t_address":{"encoding":"inplace","label":"address","numberOfBytes":"20"},"t_contract(IOptimismPortal2)1307":{"encoding":"inplace","label":"contract IOptimismPortal2","numberOfBytes":"20"},"t_contract(ISuperchainConfig)1836":{"encoding":"inplace","label":"contract ISuperchainConfig","numberOfBytes":"20"}}},"userdoc":{"version":1,"kind":"user"},"devdoc":{"version":1,"kind":"dev","methods":{"prove_proveWithdrawalTransaction_paused1((uint256,address,address,uint256,uint256,bytes),uint256,(bytes32,bytes32,bytes32,bytes32),bytes[])":{},"prove_proveWithdrawalTransaction_paused10((uint256,address,address,uint256,uint256,bytes),uint256,(bytes32,bytes32,bytes32,bytes32),bytes[])":{},"prove_proveWithdrawalTransaction_paused2((uint256,address,address,uint256,uint256,bytes),uint256,(bytes32,bytes32,bytes32,bytes32),bytes[])":{},"prove_proveWithdrawalTransaction_paused3((uint256,address,address,uint256,uint256,bytes),uint256,(bytes32,bytes32,bytes32,bytes32),bytes[])":{},"prove_proveWithdrawalTransaction_paused4((uint256,address,address,uint256,uint256,bytes),uint256,(bytes32,bytes32,bytes32,bytes32),bytes[])":{},"prove_proveWithdrawalTransaction_paused5((uint256,address,address,uint256,uint256,bytes),uint256,(bytes32,bytes32,bytes32,bytes32),bytes[])":{},"prove_proveWithdrawalTransaction_paused6((uint256,address,address,uint256,uint256,bytes),uint256,(bytes32,bytes32,bytes32,bytes32),bytes[])":{},"prove_proveWithdrawalTransaction_paused7((uint256,address,address,uint256,uint256,bytes),uint256,(bytes32,bytes32,bytes32,bytes32),bytes[])":{},"prove_proveWithdrawalTransaction_paused8((uint256,address,address,uint256,uint256,bytes),uint256,(bytes32,bytes32,bytes32,bytes32),bytes[])":{},"prove_proveWithdrawalTransaction_paused9((uint256,address,address,uint256,uint256,bytes),uint256,(bytes32,bytes32,bytes32,bytes32),bytes[])":{},"setUpInlined()":{"details":"Inlined setUp function for faster Kontrol performance      Tracking issue: https://github.com/runtimeverification/kontrol/issues/282"}}},"id":380}