{"abi":[{"type":"function","name":"implementation","inputs":[],"outputs":[{"name":"","type":"address","internalType":"address"}],"stateMutability":"pure"},{"type":"function","name":"version","inputs":[],"outputs":[{"name":"","type":"string","internalType":"string"}],"stateMutability":"view"}],"bytecode":{"object":"0x608060405234801561001057600080fd5b5061012f806100206000396000f3fe608060405234801561001057600080fd5b50600436106100365760003560e01c806354fd4d501461003b5780635c60da1b1461008d575b600080fd5b6100776040518060400160405280600c81526020017f312e302e302d626574612e34000000000000000000000000000000000000000081525081565b60405161008491906100af565b60405180910390f35b60405173b9415c6ca93bdc545d4c5177512fcc22efa38f288152602001610084565b600060208083528351808285015260005b818110156100dc578581018301518582016040015282016100c0565b818111156100ee576000604083870101525b50601f017fffffffffffffffffffffffffffffffffffffffffffffffffffffffffffffffe01692909201604001939250505056fea164736f6c634300080f000a","linkReferences":{}},"methodIdentifiers":{"implementation()":"5c60da1b","version()":"54fd4d50"},"storageLayout":{"storage":[],"types":{}},"userdoc":{"version":1,"kind":"user","methods":{"version()":{"notice":"Semantic version."}},"notice":"OptimismSuperchainERC20Beacon is the beacon proxy for the OptimismSuperchainERC20 implementation."},"devdoc":{"version":1,"kind":"dev","methods":{"implementation()":{"details":"Must return an address that can be used as a delegate call target. {BeaconProxy} will check that this address is a contract."}},"title":"OptimismSuperchainERC20Beacon"},"id":230}