{"abi":[{"type":"function","name":"DEPOSITOR_ACCOUNT","inputs":[],"outputs":[{"name":"addr_","type":"address","internalType":"address"}],"stateMutability":"pure"},{"type":"function","name":"baseFeeScalar","inputs":[],"outputs":[{"name":"","type":"uint32","internalType":"uint32"}],"stateMutability":"view"},{"type":"function","name":"basefee","inputs":[],"outputs":[{"name":"","type":"uint256","internalType":"uint256"}],"stateMutability":"view"},{"type":"function","name":"batcherHash","inputs":[],"outputs":[{"name":"","type":"bytes32","internalType":"bytes32"}],"stateMutability":"view"},{"type":"function","name":"blobBaseFee","inputs":[],"outputs":[{"name":"","type":"uint256","internalType":"uint256"}],"stateMutability":"view"},{"type":"function","name":"blobBaseFeeScalar","inputs":[],"outputs":[{"name":"","type":"uint32","internalType":"uint32"}],"stateMutability":"view"},{"type":"function","name":"dependencySetSize","inputs":[],"outputs":[{"name":"","type":"uint8","internalType":"uint8"}],"stateMutability":"view"},{"type":"function","name":"depositsComplete","inputs":[],"outputs":[],"stateMutability":"nonpayable"},{"type":"function","name":"gasPayingToken","inputs":[],"outputs":[{"name":"addr_","type":"address","internalType":"address"},{"name":"decimals_","type":"uint8","internalType":"uint8"}],"stateMutability":"pure"},{"type":"function","name":"gasPayingTokenName","inputs":[],"outputs":[{"name":"name_","type":"string","internalType":"string"}],"stateMutability":"pure"},{"type":"function","name":"gasPayingTokenSymbol","inputs":[],"outputs":[{"name":"symbol_","type":"string","internalType":"string"}],"stateMutability":"pure"},{"type":"function","name":"hash","inputs":[],"outputs":[{"name":"","type":"bytes32","internalType":"bytes32"}],"stateMutability":"view"},{"type":"function","name":"isCustomGasToken","inputs":[],"outputs":[{"name":"is_","type":"bool","internalType":"bool"}],"stateMutability":"pure"},{"type":"function","name":"isDeposit","inputs":[],"outputs":[{"name":"isDeposit_","type":"bool","internalType":"bool"}],"stateMutability":"view"},{"type":"function","name":"isInDependencySet","inputs":[{"name":"_chainId","type":"uint256","internalType":"uint256"}],"outputs":[{"name":"","type":"bool","internalType":"bool"}],"stateMutability":"view"},{"type":"function","name":"l1FeeOverhead","inputs":[],"outputs":[{"name":"","type":"uint256","internalType":"uint256"}],"stateMutability":"view"},{"type":"function","name":"l1FeeScalar","inputs":[],"outputs":[{"name":"","type":"uint256","internalType":"uint256"}],"stateMutability":"view"},{"type":"function","name":"number","inputs":[],"outputs":[{"name":"","type":"uint64","internalType":"uint64"}],"stateMutability":"view"},{"type":"function","name":"sequenceNumber","inputs":[],"outputs":[{"name":"","type":"uint64","internalType":"uint64"}],"stateMutability":"view"},{"type":"function","name":"setConfig","inputs":[{"name":"_type","type":"uint8","internalType":"enum ConfigType"},{"name":"_value","type":"bytes","internalType":"bytes"}],"outputs":[],"stateMutability":"nonpayable"},{"type":"function","name":"setL1BlockValues","inputs":[{"name":"_number","type":"uint64","internalType":"uint64"},{"name":"_timestamp","type":"uint64","internalType":"uint64"},{"name":"_basefee","type":"uint256","internalType":"uint256"},{"name":"_hash","type":"bytes32","internalType":"bytes32"},{"name":"_sequenceNumber","type":"uint64","internalType":"uint64"},{"name":"_batcherHash","type":"bytes32","internalType":"bytes32"},{"name":"_l1FeeOverhead","type":"uint256","internalType":"uint256"},{"name":"_l1FeeScalar","type":"uint256","internalType":"uint256"}],"outputs":[],"stateMutability":"nonpayable"},{"type":"function","name":"setL1BlockValuesEcotone","inputs":[],"outputs":[],"stateMutability":"nonpayable"},{"type":"function","name":"setL1BlockValuesInterop","inputs":[],"outputs":[],"stateMutability":"nonpayable"},{"type":"function","name":"timestamp","inputs":[],"outputs":[{"name":"","type":"uint64","internalType":"uint64"}],"stateMutability":"view"},{"type":"function","name":"version","inputs":[],"outputs":[{"name":"","type":"string","internalType":"string"}],"stateMutability":"pure"},{"type":"event","name":"DependencyAdded","inputs":[{"name":"chainId","type":"uint256","indexed":true,"internalType":"uint256"}],"anonymous":false},{"type":"event","name":"DependencyRemoved","inputs":[{"name":"chainId","type":"uint256","indexed":true,"internalType":"uint256"}],"anonymous":false},{"type":"error","name":"AlreadyDependency","inputs":[]},{"type":"error","name":"CantRemovedDependency","inputs":[]},{"type":"error","name":"DependencySetSizeTooLarge","inputs":[]},{"type":"error","name":"NotCrossL2Inbox","inputs":[]},{"type":"error","name":"NotDependency","inputs":[]},{"type":"error","name":"NotDepositor","inputs":[]}],"bytecode":{"object":"0x608060405234801561001057600080fd5b50610e3e806100206000396000f3fe608060405234801561001057600080fd5b50600436106101a35760003560e01c80637bc3b5ff116100ee578063c598591811610097578063e38bbc3211610071578063e38bbc32146103b5578063e591b282146103c8578063e81b2c6d146103ea578063f8206140146103f357600080fd5b8063c598591814610354578063d844471514610374578063e32d20bb146103ad57600080fd5b80639e8c4966116100c85780639e8c496614610318578063b80777ea14610321578063c00121631461034157600080fd5b80637bc3b5ff146102f35780638381f58a146102fb5780638b239f731461030f57600080fd5b8063550fcdc91161015057806364ca23ef1161012a57806364ca23ef1461028d57806368d5dca6146102ba578063760ee04d146102eb57600080fd5b8063550fcdc9146102315780635cf249691461026a5780635eb30fa31461027357600080fd5b80634397dfef116101815780634397dfef146101ec578063440a5e201461021457806354fd4d501461021c57600080fd5b8063015d8eb9146101a857806309bd5a60146101bd57806321326849146101d9575b600080fd5b6101bb6101b6366004610b77565b6103fc565b005b6101c660025481565b6040519081526020015b60405180910390f35b60005b60405190151581526020016101d0565b6040805173eeeeeeeeeeeeeeeeeeeeeeeeeeeeeeeeeeeeeeee815260126020820152016101d0565b6101bb61053b565b610224610545565b6040516101d09190610c19565b60408051808201909152600381527f45544800000000000000000000000000000000000000000000000000000000006020820152610224565b6101c660015481565b61027b6105a5565b60405160ff90911681526020016101d0565b6003546102a19067ffffffffffffffff1681565b60405167ffffffffffffffff90911681526020016101d0565b6003546102d69068010000000000000000900463ffffffff1681565b60405163ffffffff90911681526020016101d0565b6101bb6105b6565b6101dc6105e2565b6000546102a19067ffffffffffffffff1681565b6101c660055481565b6101c660065481565b6000546102a19068010000000000000000900467ffffffffffffffff1681565b6101bb61034f366004610c6a565b610657565b6003546102d6906c01000000000000000000000000900463ffffffff1681565b60408051808201909152600581527f45746865720000000000000000000000000000000000000000000000000000006020820152610224565b6101bb6106ef565b6101dc6103c3366004610cf3565b610762565b60405173deaddeaddeaddeaddeaddeaddeaddeaddead000181526020016101d0565b6101c660045481565b6101c660075481565b3373deaddeaddeaddeaddeaddeaddeaddeaddead0001146104a3576040517f08c379a000000000000000000000000000000000000000000000000000000000815260206004820152603b60248201527f4c31426c6f636b3a206f6e6c7920746865206465706f7369746f72206163636f60448201527f756e742063616e20736574204c3120626c6f636b2076616c7565730000000000606482015260840160405180910390fd5b6000805467ffffffffffffffff98891668010000000000000000027fffffffffffffffffffffffffffffffff00000000000000000000000000000000909116998916999099179890981790975560019490945560029290925560038054919094167fffffffffffffffffffffffffffffffffffffffffffffffff00000000000000009190911617909255600491909155600555600655565b61054361077e565b565b606061058160408051808201909152600c81527f312e352e312d626574612e360000000000000000000000000000000000000000602082015290565b6040516020016105919190610d0c565b604051602081830303815290604052905090565b60006105b160086107d5565b905090565b60017f921bd3a089295c6e5540e8fba8195448d253efd6f2e3e495b499b627dc36a3005561054361077e565b60003373420000000000000000000000000000000000002214610631576040517f9d7616ad00000000000000000000000000000000000000000000000000000000815260040160405180910390fd5b507f921bd3a089295c6e5540e8fba8195448d253efd6f2e3e495b499b627dc36a3005490565b3373deaddeaddeaddeaddeaddeaddeaddeaddead0001146106a4576040517f3cc50b4500000000000000000000000000000000000000000000000000000000815260040160405180910390fd5b60008360018111156106b8576106b8610d4d565b036106cc576106c782826107df565b505050565b60018360018111156106e0576106e0610d4d565b036106c7576106c782826108e2565b3373deaddeaddeaddeaddeaddeaddeaddeaddead00011461073c576040517f3cc50b4500000000000000000000000000000000000000000000000000000000815260040160405180910390fd5b60007f921bd3a089295c6e5540e8fba8195448d253efd6f2e3e495b499b627dc36a30055565b60004682148061077857506107786008836109cf565b92915050565b73deaddeaddeaddeaddeaddeaddeaddeaddead00013381146107a857633cc50b456000526004601cfd5b60043560801c60035560143560801c60005560243560015560443560075560643560025560843560045550565b6000610778825490565b600061082083838080601f0160208091040260200160405190810160405280939291908181526020018383808284376000920191909152506109ea92505050565b905060ff61082e60086107d5565b03610865576040517f04892cf700000000000000000000000000000000000000000000000000000000815260040160405180910390fd5b4681148061087b5750610879600882610a00565b155b156108b2576040517ff3cef93100000000000000000000000000000000000000000000000000000000815260040160405180910390fd5b60405181907f754553d16dd99693ae11c457214cb1baa77b15c7b02cea5515370dc637e050f090600090a2505050565b600061092383838080601f0160208091040260200160405190810160405280939291908181526020018383808284376000920191909152506109ea92505050565b905046810361095e576040517f70aed6af00000000000000000000000000000000000000000000000000000000815260040160405180910390fd5b610969600882610a0c565b61099f576040517f5894c29b00000000000000000000000000000000000000000000000000000000815260040160405180910390fd5b60405181907fc96df06add4aa6dba310cd93d0b93d7b645252f40e11fa6089731c841315cd8990600090a2505050565b600081815260018301602052604081205415155b9392505050565b6000818060200190518101906107789190610d7c565b60006109e38383610a18565b60006109e38383610a67565b6000818152600183016020526040812054610a5f57508154600181810184556000848152602080822090930184905584548482528286019093526040902091909155610778565b506000610778565b60008181526001830160205260408120548015610b50576000610a8b600183610d95565b8554909150600090610a9f90600190610d95565b9050818114610b04576000866000018281548110610abf57610abf610dd3565b9060005260206000200154905080876000018481548110610ae257610ae2610dd3565b6000918252602080832090910192909255918252600188019052604090208390555b8554869080610b1557610b15610e02565b600190038181906000526020600020016000905590558560010160008681526020019081526020016000206000905560019350505050610778565b6000915050610778565b803567ffffffffffffffff81168114610b7257600080fd5b919050565b600080600080600080600080610100898b031215610b9457600080fd5b610b9d89610b5a565b9750610bab60208a01610b5a565b96506040890135955060608901359450610bc760808a01610b5a565b979a969950949793969560a0850135955060c08501359460e001359350915050565b60005b83811015610c04578181015183820152602001610bec565b83811115610c13576000848401525b50505050565b6020815260008251806020840152610c38816040850160208701610be9565b601f017fffffffffffffffffffffffffffffffffffffffffffffffffffffffffffffffe0169190910160400192915050565b600080600060408486031215610c7f57600080fd5b833560028110610c8e57600080fd5b9250602084013567ffffffffffffffff80821115610cab57600080fd5b818601915086601f830112610cbf57600080fd5b813581811115610cce57600080fd5b876020828501011115610ce057600080fd5b6020830194508093505050509250925092565b600060208284031215610d0557600080fd5b5035919050565b60008251610d1e818460208701610be9565b7f2b696e7465726f702d626574612e340000000000000000000000000000000000920191825250600f01919050565b7f4e487b7100000000000000000000000000000000000000000000000000000000600052602160045260246000fd5b600060208284031215610d8e57600080fd5b5051919050565b600082821015610dce577f4e487b7100000000000000000000000000000000000000000000000000000000600052601160045260246000fd5b500390565b7f4e487b7100000000000000000000000000000000000000000000000000000000600052603260045260246000fd5b7f4e487b7100000000000000000000000000000000000000000000000000000000600052603160045260246000fdfea164736f6c634300080f000a","linkReferences":{}},"methodIdentifiers":{"DEPOSITOR_ACCOUNT()":"e591b282","baseFeeScalar()":"c5985918","basefee()":"5cf24969","batcherHash()":"e81b2c6d","blobBaseFee()":"f8206140","blobBaseFeeScalar()":"68d5dca6","dependencySetSize()":"5eb30fa3","depositsComplete()":"e32d20bb","gasPayingToken()":"4397dfef","gasPayingTokenName()":"d8444715","gasPayingTokenSymbol()":"550fcdc9","hash()":"09bd5a60","isCustomGasToken()":"21326849","isDeposit()":"7bc3b5ff","isInDependencySet(uint256)":"e38bbc32","l1FeeOverhead()":"8b239f73","l1FeeScalar()":"9e8c4966","number()":"8381f58a","sequenceNumber()":"64ca23ef","setConfig(uint8,bytes)":"c0012163","setL1BlockValues(uint64,uint64,uint256,bytes32,uint64,bytes32,uint256,uint256)":"015d8eb9","setL1BlockValuesEcotone()":"440a5e20","setL1BlockValuesInterop()":"760ee04d","timestamp()":"b80777ea","version()":"54fd4d50"},"storageLayout":{"storage":[{"astId":100385,"contract":"src/L2/L1BlockInterop.sol:L1BlockInterop","label":"number","offset":0,"slot":"0","type":"t_uint64"},{"astId":100388,"contract":"src/L2/L1BlockInterop.sol:L1BlockInterop","label":"timestamp","offset":8,"slot":"0","type":"t_uint64"},{"astId":100391,"contract":"src/L2/L1BlockInterop.sol:L1BlockInterop","label":"basefee","offset":0,"slot":"1","type":"t_uint256"},{"astId":100394,"contract":"src/L2/L1BlockInterop.sol:L1BlockInterop","label":"hash","offset":0,"slot":"2","type":"t_bytes32"},{"astId":100397,"contract":"src/L2/L1BlockInterop.sol:L1BlockInterop","label":"sequenceNumber","offset":0,"slot":"3","type":"t_uint64"},{"astId":100400,"contract":"src/L2/L1BlockInterop.sol:L1BlockInterop","label":"blobBaseFeeScalar","offset":8,"slot":"3","type":"t_uint32"},{"astId":100403,"contract":"src/L2/L1BlockInterop.sol:L1BlockInterop","label":"baseFeeScalar","offset":12,"slot":"3","type":"t_uint32"},{"astId":100406,"contract":"src/L2/L1BlockInterop.sol:L1BlockInterop","label":"batcherHash","offset":0,"slot":"4","type":"t_bytes32"},{"astId":100409,"contract":"src/L2/L1BlockInterop.sol:L1BlockInterop","label":"l1FeeOverhead","offset":0,"slot":"5","type":"t_uint256"},{"astId":100412,"contract":"src/L2/L1BlockInterop.sol:L1BlockInterop","label":"l1FeeScalar","offset":0,"slot":"6","type":"t_uint256"},{"astId":100415,"contract":"src/L2/L1BlockInterop.sol:L1BlockInterop","label":"blobBaseFee","offset":0,"slot":"7","type":"t_uint256"},{"astId":100598,"contract":"src/L2/L1BlockInterop.sol:L1BlockInterop","label":"dependencySet","offset":0,"slot":"8","type":"t_struct(UintSet)57247_storage"}],"types":{"t_array(t_bytes32)dyn_storage":{"encoding":"dynamic_array","label":"bytes32[]","numberOfBytes":"32","base":"t_bytes32"},"t_bytes32":{"encoding":"inplace","label":"bytes32","numberOfBytes":"32"},"t_mapping(t_bytes32,t_uint256)":{"encoding":"mapping","key":"t_bytes32","label":"mapping(bytes32 => uint256)","numberOfBytes":"32","value":"t_uint256"},"t_struct(Set)56789_storage":{"encoding":"inplace","label":"struct EnumerableSet.Set","numberOfBytes":"64","members":[{"astId":56784,"contract":"src/L2/L1BlockInterop.sol:L1BlockInterop","label":"_values","offset":0,"slot":"0","type":"t_array(t_bytes32)dyn_storage"},{"astId":56788,"contract":"src/L2/L1BlockInterop.sol:L1BlockInterop","label":"_indexes","offset":0,"slot":"1","type":"t_mapping(t_bytes32,t_uint256)"}]},"t_struct(UintSet)57247_storage":{"encoding":"inplace","label":"struct EnumerableSet.UintSet","numberOfBytes":"64","members":[{"astId":57246,"contract":"src/L2/L1BlockInterop.sol:L1BlockInterop","label":"_inner","offset":0,"slot":"0","type":"t_struct(Set)56789_storage"}]},"t_uint256":{"encoding":"inplace","label":"uint256","numberOfBytes":"32"},"t_uint32":{"encoding":"inplace","label":"uint32","numberOfBytes":"4"},"t_uint64":{"encoding":"inplace","label":"uint64","numberOfBytes":"8"}}},"userdoc":{"version":1,"kind":"user","methods":{"DEPOSITOR_ACCOUNT()":{"notice":"Address of the special depositor account."},"baseFeeScalar()":{"notice":"The scalar value applied to the L1 base fee portion of the blob-capable L1 cost func."},"basefee()":{"notice":"The latest L1 base fee."},"batcherHash()":{"notice":"The versioned hash to authenticate the batcher by."},"blobBaseFee()":{"notice":"The latest L1 blob base fee."},"blobBaseFeeScalar()":{"notice":"The scalar value applied to the L1 blob base fee portion of the blob-capable L1 cost func."},"dependencySetSize()":{"notice":"Returns the size of the interop dependency set."},"depositsComplete()":{"notice":"Resets the isDeposit flag.         Should only be called by the depositor account after the deposits are complete."},"gasPayingToken()":{"notice":"Returns the gas paying token, its decimals, name and symbol."},"gasPayingTokenName()":{"notice":"Returns the gas paying token name.         If nothing is set in state, then it means ether is used.         This function cannot be removed because WETH depends on it."},"gasPayingTokenSymbol()":{"notice":"Returns the gas paying token symbol.         If nothing is set in state, then it means ether is used.         This function cannot be removed because WETH depends on it."},"hash()":{"notice":"The latest L1 blockhash."},"isCustomGasToken()":{"notice":"Getter for custom gas token paying networks. Returns true if the         network uses a custom gas token."},"isDeposit()":{"notice":"Returns whether the call was triggered from a a deposit or not.This function is only callable by the CrossL2Inbox contract."},"isInDependencySet(uint256)":{"notice":"Returns true if a chain ID is in the interop dependency set and false otherwise.         The chain's chain ID is always considered to be in the dependency set."},"l1FeeOverhead()":{"notice":"The overhead value applied to the L1 portion of the transaction fee."},"l1FeeScalar()":{"notice":"The scalar value applied to the L1 portion of the transaction fee."},"number()":{"notice":"The latest L1 block number known by the L2 system."},"sequenceNumber()":{"notice":"The number of L2 blocks in the same epoch."},"setConfig(uint8,bytes)":{"notice":"Sets static configuration options for the L2 system. Can only be called by the special         depositor account."},"setL1BlockValuesEcotone()":{"notice":"Updates the L1 block values for an Ecotone upgraded chain. Params are packed and passed in as raw msg.data instead of ABI to reduce calldata size. Params are expected to be in the following order:   1. _baseFeeScalar      L1 base fee scalar   2. _blobBaseFeeScalar  L1 blob base fee scalar   3. _sequenceNumber     Number of L2 blocks since epoch start.   4. _timestamp          L1 timestamp.   5. _number             L1 blocknumber.   6. _basefee            L1 base fee.   7. _blobBaseFee        L1 blob base fee.   8. _hash               L1 blockhash.   9. _batcherHash        Versioned hash to authenticate batcher by."},"setL1BlockValuesInterop()":{"notice":"Updates the `isDeposit` flag and sets the L1 block values for an Interop upgraded chain.         It updates the L1 block values through the `setL1BlockValuesEcotone` function.         It forwards the calldata to the internally-used `setL1BlockValuesEcotone` function."},"timestamp()":{"notice":"The latest L1 timestamp known by the L2 system."}},"events":{"DependencyAdded(uint256)":{"notice":"Event emitted when a new dependency is added to the interop dependency set."},"DependencyRemoved(uint256)":{"notice":"Event emitted when a dependency is removed from the interop dependency set."}},"errors":{"AlreadyDependency()":[{"notice":"Error when a chain ID already in the interop dependency set is attempted to be added."}],"CantRemovedDependency()":[{"notice":"Error when the chain's chain ID is attempted to be removed from the interop dependency set."}],"DependencySetSizeTooLarge()":[{"notice":"Error when the interop dependency set size is too large."}],"NotCrossL2Inbox()":[{"notice":"Error when a non-cross L2 Inbox sender tries to call the `isDeposit()` method."}],"NotDependency()":[{"notice":"Error when a chain ID is not in the interop dependency set."}],"NotDepositor()":[{"notice":"Error returns when a non-depositor account tries to set L1 block values."}]},"notice":"Interop extenstions of L1Block."},"devdoc":{"version":1,"kind":"dev","methods":{"dependencySetSize()":{"returns":{"_0":"The size of the interop dependency set."}},"isInDependencySet(uint256)":{"params":{"_chainId":"The chain ID to check."},"returns":{"_0":"True if the chain ID to check is in the interop dependency set. False otherwise."}},"setConfig(uint8,bytes)":{"params":{"_type":"The type of configuration to set.","_value":"The encoded value with which to set the configuration."}},"setL1BlockValues(uint64,uint64,uint256,bytes32,uint64,bytes32,uint256,uint256)":{"params":{"_basefee":"L1 basefee.","_batcherHash":"Versioned hash to authenticate batcher by.","_hash":"L1 blockhash.","_l1FeeOverhead":"L1 fee overhead.","_l1FeeScalar":"L1 fee scalar.","_number":"L1 blocknumber.","_sequenceNumber":"Number of L2 blocks since epoch start.","_timestamp":"L1 timestamp."}},"version()":{}},"title":"L1BlockInterop"},"id":221}