{"abi":[{"type":"constructor","inputs":[],"stateMutability":"nonpayable"},{"type":"function","name":"DOMAIN_SEPARATOR","inputs":[],"outputs":[{"name":"result","type":"bytes32","internalType":"bytes32"}],"stateMutability":"view"},{"type":"function","name":"allowance","inputs":[{"name":"owner","type":"address","internalType":"address"},{"name":"spender","type":"address","internalType":"address"}],"outputs":[{"name":"result","type":"uint256","internalType":"uint256"}],"stateMutability":"view"},{"type":"function","name":"approve","inputs":[{"name":"spender","type":"address","internalType":"address"},{"name":"amount","type":"uint256","internalType":"uint256"}],"outputs":[{"name":"","type":"bool","internalType":"bool"}],"stateMutability":"nonpayable"},{"type":"function","name":"balanceOf","inputs":[{"name":"owner","type":"address","internalType":"address"}],"outputs":[{"name":"result","type":"uint256","internalType":"uint256"}],"stateMutability":"view"},{"type":"function","name":"burn","inputs":[{"name":"_from","type":"address","internalType":"address"},{"name":"_amount","type":"uint256","internalType":"uint256"}],"outputs":[],"stateMutability":"nonpayable"},{"type":"function","name":"crosschainBurn","inputs":[{"name":"_from","type":"address","internalType":"address"},{"name":"_amount","type":"uint256","internalType":"uint256"}],"outputs":[],"stateMutability":"nonpayable"},{"type":"function","name":"crosschainMint","inputs":[{"name":"_to","type":"address","internalType":"address"},{"name":"_amount","type":"uint256","internalType":"uint256"}],"outputs":[],"stateMutability":"nonpayable"},{"type":"function","name":"decimals","inputs":[],"outputs":[{"name":"","type":"uint8","internalType":"uint8"}],"stateMutability":"view"},{"type":"function","name":"initialize","inputs":[{"name":"_remoteToken","type":"address","internalType":"address"},{"name":"_name","type":"string","internalType":"string"},{"name":"_symbol","type":"string","internalType":"string"},{"name":"_decimals","type":"uint8","internalType":"uint8"}],"outputs":[],"stateMutability":"nonpayable"},{"type":"function","name":"mint","inputs":[{"name":"_to","type":"address","internalType":"address"},{"name":"_amount","type":"uint256","internalType":"uint256"}],"outputs":[],"stateMutability":"nonpayable"},{"type":"function","name":"name","inputs":[],"outputs":[{"name":"","type":"string","internalType":"string"}],"stateMutability":"view"},{"type":"function","name":"nonces","inputs":[{"name":"owner","type":"address","internalType":"address"}],"outputs":[{"name":"result","type":"uint256","internalType":"uint256"}],"stateMutability":"view"},{"type":"function","name":"permit","inputs":[{"name":"owner","type":"address","internalType":"address"},{"name":"spender","type":"address","internalType":"address"},{"name":"value","type":"uint256","internalType":"uint256"},{"name":"deadline","type":"uint256","internalType":"uint256"},{"name":"v","type":"uint8","internalType":"uint8"},{"name":"r","type":"bytes32","internalType":"bytes32"},{"name":"s","type":"bytes32","internalType":"bytes32"}],"outputs":[],"stateMutability":"nonpayable"},{"type":"function","name":"remoteToken","inputs":[],"outputs":[{"name":"","type":"address","internalType":"address"}],"stateMutability":"view"},{"type":"function","name":"supportsInterface","inputs":[{"name":"_interfaceId","type":"bytes4","internalType":"bytes4"}],"outputs":[{"name":"","type":"bool","internalType":"bool"}],"stateMutability":"view"},{"type":"function","name":"symbol","inputs":[],"outputs":[{"name":"","type":"string","internalType":"string"}],"stateMutability":"view"},{"type":"function","name":"totalSupply","inputs":[],"outputs":[{"name":"result","type":"uint256","internalType":"uint256"}],"stateMutability":"view"},{"type":"function","name":"transfer","inputs":[{"name":"to","type":"address","internalType":"address"},{"name":"amount","type":"uint256","internalType":"uint256"}],"outputs":[{"name":"","type":"bool","internalType":"bool"}],"stateMutability":"nonpayable"},{"type":"function","name":"transferFrom","inputs":[{"name":"from","type":"address","internalType":"address"},{"name":"to","type":"address","internalType":"address"},{"name":"amount","type":"uint256","internalType":"uint256"}],"outputs":[{"name":"","type":"bool","internalType":"bool"}],"stateMutability":"nonpayable"},{"type":"function","name":"version","inputs":[],"outputs":[{"name":"","type":"string","internalType":"string"}],"stateMutability":"view"},{"type":"event","name":"Approval","inputs":[{"name":"owner","type":"address","indexed":true,"internalType":"address"},{"name":"spender","type":"address","indexed":true,"internalType":"address"},{"name":"amount","type":"uint256","indexed":false,"internalType":"uint256"}],"anonymous":false},{"type":"event","name":"Burn","inputs":[{"name":"from","type":"address","indexed":true,"internalType":"address"},{"name":"amount","type":"uint256","indexed":false,"internalType":"uint256"}],"anonymous":false},{"type":"event","name":"CrosschainBurn","inputs":[{"name":"from","type":"address","indexed":true,"internalType":"address"},{"name":"amount","type":"uint256","indexed":false,"internalType":"uint256"},{"name":"sender","type":"address","indexed":true,"internalType":"address"}],"anonymous":false},{"type":"event","name":"CrosschainMint","inputs":[{"name":"to","type":"address","indexed":true,"internalType":"address"},{"name":"amount","type":"uint256","indexed":false,"internalType":"uint256"},{"name":"sender","type":"address","indexed":true,"internalType":"address"}],"anonymous":false},{"type":"event","name":"Initialized","inputs":[{"name":"version","type":"uint64","indexed":false,"internalType":"uint64"}],"anonymous":false},{"type":"event","name":"Mint","inputs":[{"name":"to","type":"address","indexed":true,"internalType":"address"},{"name":"amount","type":"uint256","indexed":false,"internalType":"uint256"}],"anonymous":false},{"type":"event","name":"Transfer","inputs":[{"name":"from","type":"address","indexed":true,"internalType":"address"},{"name":"to","type":"address","indexed":true,"internalType":"address"},{"name":"amount","type":"uint256","indexed":false,"internalType":"uint256"}],"anonymous":false},{"type":"error","name":"AllowanceOverflow","inputs":[]},{"type":"error","name":"AllowanceUnderflow","inputs":[]},{"type":"error","name":"InsufficientAllowance","inputs":[]},{"type":"error","name":"InsufficientBalance","inputs":[]},{"type":"error","name":"InvalidInitialization","inputs":[]},{"type":"error","name":"InvalidPermit","inputs":[]},{"type":"error","name":"NotInitializing","inputs":[]},{"type":"error","name":"Permit2AllowanceIsFixedAtInfinity","inputs":[]},{"type":"error","name":"PermitExpired","inputs":[]},{"type":"error","name":"TotalSupplyOverflow","inputs":[]},{"type":"error","name":"Unauthorized","inputs":[]},{"type":"error","name":"ZeroAddress","inputs":[]}],"bytecode":{"object":"0x6080604052348015600e575f80fd5b5060156019565b60c9565b7ff0c57e16840df040f15088dc2f81fe391c3923bec73e23a9662efc9c229c6a00805468010000000000000000900460ff161560685760405163f92ee8a960e01b815260040160405180910390fd5b80546001600160401b039081161460c65780546001600160401b0319166001600160401b0390811782556040519081527fc7f505b2f371ae2175ee4913f4499e1f2633a7b5936321eed1cdaeb6115181d29060200160405180910390a15b50565b6115ba806100d65f395ff3fe608060405234801561000f575f80fd5b5060043610610163575f3560e01c806354fd4d50116100c7578063a9059cbb1161007d578063d6c0b2c411610063578063d6c0b2c414610322578063dd62ed3e14610369578063f6d2ee861461037c575f80fd5b8063a9059cbb146102fc578063d505accf1461030f575f80fd5b80637ecebe00116100ad5780637ecebe00146102bc57806395d89b41146102e15780639dc29fac146102e9575f80fd5b806354fd4d501461025b57806370a0823114610297575f80fd5b806323b872dd1161011c578063313ce56711610102578063313ce5671461020c5780633644e5151461024057806340c10f1914610248575f80fd5b806323b872dd146101e65780632b8c49e3146101f9575f80fd5b8063095ea7b31161014c578063095ea7b3146101a457806318160ddd146101b757806318bf5077146101d1575f80fd5b806301ffc9a71461016757806306fdde031461018f575b5f80fd5b61017a6101753660046110c0565b61038f565b60405190151581526020015b60405180910390f35b6101976103ea565b6040516101869190611106565b61017a6101b2366004611181565b61049c565b6805345cdf77eb68f44c545b604051908152602001610186565b6101e46101df366004611181565b610528565b005b61017a6101f43660046111a9565b6105d1565b6101e4610207366004611181565b6106a0565b7f07f04e84143df95a6373fcf376312ae41da81a193a3089073a54f47a74d8fb035460405160ff9091168152602001610186565b6101c3610741565b6101e4610256366004611181565b6107bd565b6101976040518060400160405280600d81526020017f312e302e302d626574612e31320000000000000000000000000000000000000081525081565b6101c36102a53660046111e2565b6387a211a2600c9081525f91909152602090205490565b6101c36102ca3660046111e2565b6338377508600c9081525f91909152602090205490565b6101976108b5565b6101e46102f7366004611181565b6108e6565b61017a61030a366004611181565b6109d2565b6101e461031d36600461120b565b610a49565b7f07f04e84143df95a6373fcf376312ae41da81a193a3089073a54f47a74d8fb005460405173ffffffffffffffffffffffffffffffffffffffff9091168152602001610186565b6101c3610377366004611270565b610c1b565b6101e461038a366004611375565b610c9b565b5f7fffffffff0000000000000000000000000000000000000000000000000000000082167fe0ee87f30000000000000000000000000000000000000000000000000000000014806103e457506103e482610edb565b92915050565b60607f07f04e84143df95a6373fcf376312ae41da81a193a3089073a54f47a74d8fb00600101805461041b906113f5565b80601f0160208091040260200160405190810160405280929190818152602001828054610447906113f5565b80156104925780601f1061046957610100808354040283529160200191610492565b820191905f5260205f20905b81548152906001019060200180831161047557829003601f168201915b5050505050905090565b5f73ffffffffffffffffffffffffffffffffffffffff83166e22d473030f116ddee9f6b43ac78ba318821915176104da57633f68539a5f526004601cfd5b82602052637f5e9f20600c52335f52816034600c2055815f52602c5160601c337f8c5be1e5ebec7d5bd14f71427d1e84f3dd0314c0f7b2291e5b200ac8c7c3b92560205fa350600192915050565b3373420000000000000000000000000000000000002814610575576040517f82b4290000000000000000000000000000000000000000000000000000000000815260040160405180910390fd5b61057f8282610fbe565b604051818152339073ffffffffffffffffffffffffffffffffffffffff8416907fde22baff038e3a3e08407cbdf617deed74e869a7ba517df611e33131c6e6ea04906020015b60405180910390a35050565b5f8360601b6e22d473030f116ddee9f6b43ac78ba333146106265733602052637f5e9f208117600c526034600c208054801915610623578085111561061d576313be252b5f526004601cfd5b84810382555b50505b6387a211a28117600c526020600c2080548085111561064c5763f4d678b85f526004601cfd5b84810382555050835f526020600c208381540181555082602052600c5160601c8160601c7fddf252ad1be2c89b69c2b068fc378daa952ba7f163c4a11628f55a4df523b3ef602080a3505060019392505050565b33734200000000000000000000000000000000000028146106ed576040517f82b4290000000000000000000000000000000000000000000000000000000000815260040160405180910390fd5b6106f7828261103f565b604051818152339073ffffffffffffffffffffffffffffffffffffffff8416907fb90795a66650155983e242cac3e1ac1a4dc26f8ed2987f3ce416a34e00111fd4906020016105c5565b5f8061074b6103ea565b805190602001209050604080517f8b73c3c69bb8fe3d512ecc4cf759cc79239f7b179b0ffacaa9a75d522b39400f815260208101929092527fc89efdaa54c0f20c7adf612882df0950f5a951637e0307cdcb4c672f298b8bc69082015246606082015230608082015260a09020919050565b337342000000000000000000000000000000000000101461080a576040517f82b4290000000000000000000000000000000000000000000000000000000000815260040160405180910390fd5b73ffffffffffffffffffffffffffffffffffffffff8216610857576040517fd92e233d00000000000000000000000000000000000000000000000000000000815260040160405180910390fd5b6108618282610fbe565b8173ffffffffffffffffffffffffffffffffffffffff167f0f6798a560793a54c3bcfe86a93cde1e73087d944c0ea20544137d4121396885826040516108a991815260200190565b60405180910390a25050565b60607f07f04e84143df95a6373fcf376312ae41da81a193a3089073a54f47a74d8fb00600201805461041b906113f5565b3373420000000000000000000000000000000000001014610933576040517f82b4290000000000000000000000000000000000000000000000000000000000815260040160405180910390fd5b73ffffffffffffffffffffffffffffffffffffffff8216610980576040517fd92e233d00000000000000000000000000000000000000000000000000000000815260040160405180910390fd5b61098a828261103f565b8173ffffffffffffffffffffffffffffffffffffffff167fcc16f5dbb4873280815c1ee09dbd06736cffcc184412cf7a71a0fdb75d397ca5826040516108a991815260200190565b5f6387a211a2600c52335f526020600c208054808411156109fa5763f4d678b85f526004601cfd5b83810382555050825f526020600c208281540181555081602052600c5160601c337fddf252ad1be2c89b69c2b068fc378daa952ba7f163c4a11628f55a4df523b3ef602080a350600192915050565b73ffffffffffffffffffffffffffffffffffffffff86166e22d473030f116ddee9f6b43ac78ba31885191517610a8657633f68539a5f526004601cfd5b5f610a8f6103ea565b8051906020012090507fc89efdaa54c0f20c7adf612882df0950f5a951637e0307cdcb4c672f298b8bc642861015610ace57631a15a3cc5f526004601cfd5b6040518960601b60601c99508860601b60601c985065383775081901600e52895f526020600c2080547f8b73c3c69bb8fe3d512ecc4cf759cc79239f7b179b0ffacaa9a75d522b39400f835284602084015283604084015246606084015230608084015260a08320602e527f6e71edae12b1b97f4d1f60370fef10105fa2faae0126114a169c64845d6126c983528b60208401528a60408401528960608401528060808401528860a084015260c08320604e526042602c205f528760ff16602052866040528560605260208060805f60015afa8c3d5114610bb65763ddafbaef5f526004601cfd5b019055777f5e9f20000000000000000000000000000000000000000089176040526034602c20889055888a7f8c5be1e5ebec7d5bd14f71427d1e84f3dd0314c0f7b2291e5b200ac8c7c3b925602060608501a360405250505f60605250505050505050565b5f7fffffffffffffffffffffffffffffffffffdd2b8cfcf0ee922116094bc538745d73ffffffffffffffffffffffffffffffffffffffff831601610c8057507fffffffffffffffffffffffffffffffffffffffffffffffffffffffffffffffff6103e4565b50602052637f5e9f20600c9081525f91909152603490205490565b7ff0c57e16840df040f15088dc2f81fe391c3923bec73e23a9662efc9c229c6a00805468010000000000000000810460ff16159067ffffffffffffffff165f81158015610ce55750825b90505f8267ffffffffffffffff166001148015610d015750303b155b905081158015610d0f575080155b15610d46576040517ff92ee8a900000000000000000000000000000000000000000000000000000000815260040160405180910390fd5b84547fffffffffffffffffffffffffffffffffffffffffffffffff00000000000000001660011785558315610da75784547fffffffffffffffffffffffffffffffffffffffffffffff00ffffffffffffffff16680100000000000000001785555b7f07f04e84143df95a6373fcf376312ae41da81a193a3089073a54f47a74d8fb0080547fffffffffffffffffffffffff00000000000000000000000000000000000000001673ffffffffffffffffffffffffffffffffffffffff8b161781557f07f04e84143df95a6373fcf376312ae41da81a193a3089073a54f47a74d8fb01610e318a82611491565b5060028101610e408982611491565b5060030180547fffffffffffffffffffffffffffffffffffffffffffffffffffffffffffffff001660ff88161790558315610ed05784547fffffffffffffffffffffffffffffffffffffffffffffff00ffffffffffffffff168555604051600181527fc7f505b2f371ae2175ee4913f4499e1f2633a7b5936321eed1cdaeb6115181d29060200160405180910390a15b505050505050505050565b5f7fffffffff0000000000000000000000000000000000000000000000000000000082167f33331994000000000000000000000000000000000000000000000000000000001480610f6d57507fffffffff0000000000000000000000000000000000000000000000000000000082167f36372b0700000000000000000000000000000000000000000000000000000000145b806103e457507fffffffff0000000000000000000000000000000000000000000000000000000082167f01ffc9a7000000000000000000000000000000000000000000000000000000001492915050565b6805345cdf77eb68f44c5481810181811015610fe15763e5cfe9575f526004601cfd5b806805345cdf77eb68f44c5550506387a211a2600c52815f526020600c208181540181555080602052600c5160601c5f7fddf252ad1be2c89b69c2b068fc378daa952ba7f163c4a11628f55a4df523b3ef602080a35050565b505050565b6387a211a2600c52815f526020600c208054808311156110665763f4d678b85f526004601cfd5b82900390556805345cdf77eb68f44c805482900390555f81815273ffffffffffffffffffffffffffffffffffffffff83167fddf252ad1be2c89b69c2b068fc378daa952ba7f163c4a11628f55a4df523b3ef602083a35050565b5f602082840312156110d0575f80fd5b81357fffffffff00000000000000000000000000000000000000000000000000000000811681146110ff575f80fd5b9392505050565b602081525f82518060208401528060208501604085015e5f6040828501015260407fffffffffffffffffffffffffffffffffffffffffffffffffffffffffffffffe0601f83011684010191505092915050565b803573ffffffffffffffffffffffffffffffffffffffff8116811461117c575f80fd5b919050565b5f8060408385031215611192575f80fd5b61119b83611159565b946020939093013593505050565b5f805f606084860312156111bb575f80fd5b6111c484611159565b92506111d260208501611159565b9150604084013590509250925092565b5f602082840312156111f2575f80fd5b6110ff82611159565b803560ff8116811461117c575f80fd5b5f805f805f805f60e0888a031215611221575f80fd5b61122a88611159565b965061123860208901611159565b95506040880135945060608801359350611254608089016111fb565b925060a0880135915060c0880135905092959891949750929550565b5f8060408385031215611281575f80fd5b61128a83611159565b915061129860208401611159565b90509250929050565b7f4e487b71000000000000000000000000000000000000000000000000000000005f52604160045260245ffd5b5f82601f8301126112dd575f80fd5b813567ffffffffffffffff808211156112f8576112f86112a1565b604051601f83017fffffffffffffffffffffffffffffffffffffffffffffffffffffffffffffffe0908116603f0116810190828211818310171561133e5761133e6112a1565b81604052838152866020858801011115611356575f80fd5b836020870160208301375f602085830101528094505050505092915050565b5f805f8060808587031215611388575f80fd5b61139185611159565b9350602085013567ffffffffffffffff808211156113ad575f80fd5b6113b9888389016112ce565b945060408701359150808211156113ce575f80fd5b506113db878288016112ce565b9250506113ea606086016111fb565b905092959194509250565b600181811c9082168061140957607f821691505b602082108103611440577f4e487b71000000000000000000000000000000000000000000000000000000005f52602260045260245ffd5b50919050565b601f82111561103a57805f5260205f20601f840160051c8101602085101561146b5750805b601f840160051c820191505b8181101561148a575f8155600101611477565b5050505050565b815167ffffffffffffffff8111156114ab576114ab6112a1565b6114bf816114b984546113f5565b84611446565b602080601f831160018114611511575f84156114db5750858301515b7fffffffffffffffffffffffffffffffffffffffffffffffffffffffffffffffff600386901b1c1916600185901b1785556115a5565b5f858152602081207fffffffffffffffffffffffffffffffffffffffffffffffffffffffffffffffe08616915b8281101561155d5788860151825594840194600190910190840161153e565b508582101561159957878501517fffffffffffffffffffffffffffffffffffffffffffffffffffffffffffffffff600388901b60f8161c191681555b505060018460011b0185555b50505050505056fea164736f6c6343000819000a","linkReferences":{}},"methodIdentifiers":{"DOMAIN_SEPARATOR()":"3644e515","allowance(address,address)":"dd62ed3e","approve(address,uint256)":"095ea7b3","balanceOf(address)":"70a08231","burn(address,uint256)":"9dc29fac","crosschainBurn(address,uint256)":"2b8c49e3","crosschainMint(address,uint256)":"18bf5077","decimals()":"313ce567","initialize(address,string,string,uint8)":"f6d2ee86","mint(address,uint256)":"40c10f19","name()":"06fdde03","nonces(address)":"7ecebe00","permit(address,address,uint256,uint256,uint8,bytes32,bytes32)":"d505accf","remoteToken()":"d6c0b2c4","supportsInterface(bytes4)":"01ffc9a7","symbol()":"95d89b41","totalSupply()":"18160ddd","transfer(address,uint256)":"a9059cbb","transferFrom(address,address,uint256)":"23b872dd","version()":"54fd4d50"},"storageLayout":{"storage":[],"types":{}},"userdoc":{"version":1,"kind":"user","methods":{"burn(address,uint256)":{"notice":"Allows the L2StandardBridge to burn tokens."},"constructor":{"notice":"Constructs the OptimismSuperchainERC20 contract."},"crosschainBurn(address,uint256)":{"notice":"Allows the SuperchainTokenBridge to burn tokens."},"crosschainMint(address,uint256)":{"notice":"Allows the SuperchainTokenBridge to mint tokens."},"decimals()":{"notice":"Returns the number of decimals used to get its user representation. For example, if `decimals` equals `2`, a balance of `505` tokens should be displayed to a user as `5.05` (`505 / 10 ** 2`). NOTE: This information is only used for _display_ purposes: it in no way affects any of the arithmetic of the contract, including {IERC20-balanceOf} and {IERC20-transfer}."},"initialize(address,string,string,uint8)":{"notice":"Initializes the contract."},"mint(address,uint256)":{"notice":"Allows the L2StandardBridge to mint tokens."},"name()":{"notice":"Returns the name of the token."},"remoteToken()":{"notice":"Returns the address of the corresponding version of this token on the remote chain."},"supportsInterface(bytes4)":{"notice":"ERC165 interface check function."},"symbol()":{"notice":"Returns the symbol of the token."},"version()":{"notice":"Semantic version."}},"events":{"Burn(address,uint256)":{"notice":"Emitted whenever tokens are burned from an account."},"CrosschainBurn(address,uint256,address)":{"notice":"Emitted when a crosschain transfer burns tokens."},"CrosschainMint(address,uint256,address)":{"notice":"Emitted when a crosschain transfer mints tokens."},"Mint(address,uint256)":{"notice":"Emitted whenever tokens are minted for an account."}},"errors":{"Unauthorized()":[{"notice":"Error for an unauthorized CALLER."}],"ZeroAddress()":[{"notice":"Thrown when attempting to perform an operation and the account is the zero address."}]},"notice":"OptimismSuperchainERC20 is a standard extension of the base ERC20 token contract that unifies ERC20 token         bridging to make it fungible across the Superchain. This construction allows the L2StandardBridge to burn         and mint tokens. This makes it possible to convert a valid OptimismMintableERC20 token to a         OptimismSuperchainERC20 token, turning it fungible and interoperable across the superchain. Likewise, it         also enables the inverse conversion path.         Moreover, it builds on top of the L2ToL2CrossDomainMessenger for both replay protection and domain binding."},"devdoc":{"version":1,"kind":"dev","methods":{"DOMAIN_SEPARATOR()":{"details":"Returns the EIP-712 domain separator for the EIP-2612 permit."},"allowance(address,address)":{"details":"Returns the amount of tokens that `spender` can spend on behalf of `owner`."},"approve(address,uint256)":{"details":"Sets `amount` as the allowance of `spender` over the caller's tokens. Emits a {Approval} event."},"balanceOf(address)":{"details":"Returns the amount of tokens owned by `owner`."},"burn(address,uint256)":{"params":{"_amount":"Amount of tokens to burn.","_from":"Address to burn tokens from."}},"crosschainBurn(address,uint256)":{"params":{"_amount":"Amount of tokens to burn.","_from":"Address to burn tokens from."}},"crosschainMint(address,uint256)":{"params":{"_amount":"Amount of tokens to mint.","_to":"Address to mint tokens to."}},"initialize(address,string,string,uint8)":{"params":{"_decimals":"ERC20 decimals.","_name":"ERC20 name.","_remoteToken":"Address of the corresponding remote token.","_symbol":"ERC20 symbol."}},"mint(address,uint256)":{"params":{"_amount":"Amount of tokens to mint.","_to":"Address to mint tokens to."}},"nonces(address)":{"details":"Returns the current nonce for `owner`. This value is used to compute the signature for EIP-2612 permit."},"permit(address,address,uint256,uint256,uint8,bytes32,bytes32)":{"details":"Sets `value` as the allowance of `spender` over the tokens of `owner`, authorized by a signed approval by `owner`. Emits a {Approval} event."},"supportsInterface(bytes4)":{"params":{"_interfaceId":"Interface ID to check."},"returns":{"_0":"Whether or not the interface is supported by this contract."}},"totalSupply()":{"details":"Returns the amount of tokens in existence."},"transfer(address,uint256)":{"details":"Transfer `amount` tokens from the caller to `to`. Requirements: - `from` must at least have `amount`. Emits a {Transfer} event."},"transferFrom(address,address,uint256)":{"details":"Transfers `amount` tokens from `from` to `to`. Note: Does not update the allowance if it is the maximum uint256 value. Requirements: - `from` must at least have `amount`. - The caller must have at least `amount` of allowance to transfer the tokens of `from`. Emits a {Transfer} event."}},"events":{"Approval(address,address,uint256)":{"details":"Emitted when `amount` tokens is approved by `owner` to be used by `spender`."},"Burn(address,uint256)":{"params":{"amount":"Amount of tokens burned.","from":"Address of the account tokens are being burned from."}},"CrosschainBurn(address,uint256,address)":{"params":{"amount":"Amount of tokens burned.","from":"Address of the account tokens are being burned from.","sender":"Address of the account that initiated the crosschain transfer."}},"CrosschainMint(address,uint256,address)":{"params":{"amount":"Amount of tokens minted.","sender":"Address of the account that finilized the crosschain transfer.","to":"Address of the account tokens are being minted for."}},"Initialized(uint64)":{"details":"Triggered when the contract has been initialized or reinitialized."},"Mint(address,uint256)":{"params":{"amount":"Amount of tokens minted.","to":"Address of the account tokens are being minted for."}},"Transfer(address,address,uint256)":{"details":"Emitted when `amount` tokens is transferred from `from` to `to`."}},"errors":{"AllowanceOverflow()":[{"details":"The allowance has overflowed."}],"AllowanceUnderflow()":[{"details":"The allowance has underflowed."}],"InsufficientAllowance()":[{"details":"Insufficient allowance."}],"InsufficientBalance()":[{"details":"Insufficient balance."}],"InvalidInitialization()":[{"details":"The contract is already initialized."}],"InvalidPermit()":[{"details":"The permit is invalid."}],"NotInitializing()":[{"details":"The contract is not initializing."}],"Permit2AllowanceIsFixedAtInfinity()":[{"details":"The allowance of Permit2 is fixed at infinity."}],"PermitExpired()":[{"details":"The permit has expired."}],"TotalSupplyOverflow()":[{"details":"The total supply has overflowed."}]},"title":"OptimismSuperchainERC20"},"id":96}