{"abi":[{"type":"function","name":"kevm","inputs":[],"outputs":[{"name":"","type":"address","internalType":"contract KontrolCheatsBase"}],"stateMutability":"view"},{"type":"function","name":"prove_relayMessage_paused","inputs":[{"name":"_nonce","type":"uint256","internalType":"uint256"},{"name":"_sender","type":"address","internalType":"address"},{"name":"_target","type":"address","internalType":"address"},{"name":"_value","type":"uint256","internalType":"uint256"},{"name":"_gas","type":"uint256","internalType":"uint256"},{"name":"_message","type":"bytes","internalType":"bytes"}],"outputs":[],"stateMutability":"nonpayable"},{"type":"function","name":"setUpInlined","inputs":[],"outputs":[],"stateMutability":"nonpayable"}],"bytecode":{"object":"0x608060405234801561001057600080fd5b50610601806100206000396000f3fe608060405234801561001057600080fd5b50600436106100415760003560e01c80638fe30c6914610046578063ac4bba32146100a1578063d6a2ec76146100b4575b600080fd5b6000546005805473ffffffffffffffffffffffffffffffffffffffff9283167fffffffffffffffffffffffff00000000000000000000000000000000000000009182161790915560015460068054919093169116179055005b005b61009f6100af36600461048e565b610104565b6100db7f885cb69240a935d632d79c317109709ecfa91a80626ff3989d68f67f5b1dd12d81565b60405173ffffffffffffffffffffffffffffffffffffffff909116815260200160405180910390f35b600054600580547fffffffffffffffffffffffff000000000000000000000000000000000000000090811673ffffffffffffffffffffffffffffffffffffffff938416179091556001546006805490921692169182179055604080517f452a93200000000000000000000000000000000000000000000000000000000081529051737109709ecfa91a80626ff3989d68f67f5b1dd12d9263ca669fa792909163452a9320916004808201926020929091908290030181865afa1580156101ce573d6000803e3d6000fd5b505050506040513d601f19601f820116820180604052508101906101f29190610543565b6040517fffffffff0000000000000000000000000000000000000000000000000000000060e084901b16815273ffffffffffffffffffffffffffffffffffffffff9091166004820152602401600060405180830381600087803b15801561025857600080fd5b505af115801561026c573d6000803e3d6000fd5b50506006546040517f6da6635500000000000000000000000000000000000000000000000000000000815260206004820152600a60248201527f6964656e74696669657200000000000000000000000000000000000000000000604482015273ffffffffffffffffffffffffffffffffffffffff9091169250636da663559150606401600060405180830381600087803b15801561030957600080fd5b505af115801561031d573d6000803e3d6000fd5b50506040517ff28dceb300000000000000000000000000000000000000000000000000000000815260206004820152601c60248201527f43726f7373446f6d61696e4d657373656e6765723a20706175736564000000006044820152737109709ecfa91a80626ff3989d68f67f5b1dd12d925063f28dceb39150606401600060405180830381600087803b1580156103b457600080fd5b505af11580156103c8573d6000803e3d6000fd5b50506005546040517fd764ad0b00000000000000000000000000000000000000000000000000000000815273ffffffffffffffffffffffffffffffffffffffff909116925063d764ad0b915061042e908a908a908a908a908a908a908a90600401610567565b600060405180830381600087803b15801561044857600080fd5b505af115801561045c573d6000803e3d6000fd5b5050505050505050505050565b73ffffffffffffffffffffffffffffffffffffffff8116811461048b57600080fd5b50565b600080600080600080600060c0888a0312156104a957600080fd5b8735965060208801356104bb81610469565b955060408801356104cb81610469565b9450606088013593506080880135925060a088013567ffffffffffffffff808211156104f657600080fd5b818a0191508a601f83011261050a57600080fd5b81358181111561051957600080fd5b8b602082850101111561052b57600080fd5b60208301945080935050505092959891949750929550565b60006020828403121561055557600080fd5b815161056081610469565b9392505050565b878152600073ffffffffffffffffffffffffffffffffffffffff808916602084015280881660408401525085606083015284608083015260c060a08301528260c0830152828460e0840137600060e0848401015260e07fffffffffffffffffffffffffffffffffffffffffffffffffffffffffffffffe0601f85011683010190509897505050505050505056fea164736f6c634300080f000a","linkReferences":{}},"methodIdentifiers":{"kevm()":"d6a2ec76","prove_relayMessage_paused(uint256,address,address,uint256,uint256,bytes)":"ac4bba32","setUpInlined()":"8fe30c69"},"storageLayout":{"storage":[{"astId":229788,"contract":"test/kontrol/proofs/L1CrossDomainMessenger.k.sol:L1CrossDomainMessengerKontrol","label":"l1CrossDomainMessengerProxyAddress","offset":0,"slot":"0","type":"t_address"},{"astId":229790,"contract":"test/kontrol/proofs/L1CrossDomainMessenger.k.sol:L1CrossDomainMessengerKontrol","label":"superchainConfigProxyAddress","offset":0,"slot":"1","type":"t_address"},{"astId":229792,"contract":"test/kontrol/proofs/L1CrossDomainMessenger.k.sol:L1CrossDomainMessengerKontrol","label":"l1ERC721BridgeProxyAddress","offset":0,"slot":"2","type":"t_address"},{"astId":229794,"contract":"test/kontrol/proofs/L1CrossDomainMessenger.k.sol:L1CrossDomainMessengerKontrol","label":"l1StandardBridgeProxyAddress","offset":0,"slot":"3","type":"t_address"},{"astId":229796,"contract":"test/kontrol/proofs/L1CrossDomainMessenger.k.sol:L1CrossDomainMessengerKontrol","label":"optimismPortalProxyAddress","offset":0,"slot":"4","type":"t_address"},{"astId":228961,"contract":"test/kontrol/proofs/L1CrossDomainMessenger.k.sol:L1CrossDomainMessengerKontrol","label":"l1CrossDomainMessenger","offset":0,"slot":"5","type":"t_contract(IL1CrossDomainMessenger)278"},{"astId":228964,"contract":"test/kontrol/proofs/L1CrossDomainMessenger.k.sol:L1CrossDomainMessengerKontrol","label":"superchainConfig","offset":0,"slot":"6","type":"t_contract(ISuperchainConfig)1836"}],"types":{"t_address":{"encoding":"inplace","label":"address","numberOfBytes":"20"},"t_contract(IL1CrossDomainMessenger)278":{"encoding":"inplace","label":"contract IL1CrossDomainMessenger","numberOfBytes":"20"},"t_contract(ISuperchainConfig)1836":{"encoding":"inplace","label":"contract ISuperchainConfig","numberOfBytes":"20"}}},"userdoc":{"version":1,"kind":"user"},"devdoc":{"version":1,"kind":"dev","methods":{"setUpInlined()":{"details":"Inlined setUp function for faster Kontrol performance      Tracking issue: https://github.com/runtimeverification/kontrol/issues/282"}}},"id":377}