{"abi":[{"type":"constructor","inputs":[{"name":"_superchainConfig","type":"address","internalType":"contract ISuperchainConfig"},{"name":"_protocolVersions","type":"address","internalType":"contract IProtocolVersions"},{"name":"_superchainProxyAdmin","type":"address","internalType":"contract IProxyAdmin"},{"name":"_l1ContractsRelease","type":"string","internalType":"string"},{"name":"_blueprints","type":"tuple","internalType":"struct OPContractsManager.Blueprints","components":[{"name":"addressManager","type":"address","internalType":"address"},{"name":"proxy","type":"address","internalType":"address"},{"name":"proxyAdmin","type":"address","internalType":"address"},{"name":"l1ChugSplashProxy","type":"address","internalType":"address"},{"name":"resolvedDelegateProxy","type":"address","internalType":"address"},{"name":"permissionedDisputeGame1","type":"address","internalType":"address"},{"name":"permissionedDisputeGame2","type":"address","internalType":"address"},{"name":"permissionlessDisputeGame1","type":"address","internalType":"address"},{"name":"permissionlessDisputeGame2","type":"address","internalType":"address"}]},{"name":"_implementations","type":"tuple","internalType":"struct OPContractsManager.Implementations","components":[{"name":"superchainConfigImpl","type":"address","internalType":"address"},{"name":"protocolVersionsImpl","type":"address","internalType":"address"},{"name":"l1ERC721BridgeImpl","type":"address","internalType":"address"},{"name":"optimismPortalImpl","type":"address","internalType":"address"},{"name":"systemConfigImpl","type":"address","internalType":"address"},{"name":"optimismMintableERC20FactoryImpl","type":"address","internalType":"address"},{"name":"l1CrossDomainMessengerImpl","type":"address","internalType":"address"},{"name":"l1StandardBridgeImpl","type":"address","internalType":"address"},{"name":"disputeGameFactoryImpl","type":"address","internalType":"address"},{"name":"anchorStateRegistryImpl","type":"address","internalType":"address"},{"name":"delayedWETHImpl","type":"address","internalType":"address"},{"name":"mipsImpl","type":"address","internalType":"address"}]},{"name":"_upgradeController","type":"address","internalType":"address"}],"stateMutability":"nonpayable"},{"type":"function","name":"addGameType","inputs":[{"name":"_gameConfigs","type":"tuple[]","internalType":"struct OPContractsManager.AddGameInput[]","components":[{"name":"saltMixer","type":"string","internalType":"string"},{"name":"systemConfig","type":"address","internalType":"contract ISystemConfig"},{"name":"proxyAdmin","type":"address","internalType":"contract IProxyAdmin"},{"name":"delayedWETH","type":"address","internalType":"contract IDelayedWETH"},{"name":"disputeGameType","type":"uint32","internalType":"GameType"},{"name":"disputeAbsolutePrestate","type":"bytes32","internalType":"Claim"},{"name":"disputeMaxGameDepth","type":"uint256","internalType":"uint256"},{"name":"disputeSplitDepth","type":"uint256","internalType":"uint256"},{"name":"disputeClockExtension","type":"uint64","internalType":"Duration"},{"name":"disputeMaxClockDuration","type":"uint64","internalType":"Duration"},{"name":"initialBond","type":"uint256","internalType":"uint256"},{"name":"vm","type":"address","internalType":"contract IBigStepper"},{"name":"permissioned","type":"bool","internalType":"bool"}]}],"outputs":[{"name":"","type":"tuple[]","internalType":"struct OPContractsManager.AddGameOutput[]","components":[{"name":"delayedWETH","type":"address","internalType":"contract IDelayedWETH"},{"name":"faultDisputeGame","type":"address","internalType":"contract IFaultDisputeGame"}]}],"stateMutability":"nonpayable"},{"type":"function","name":"blueprints","inputs":[],"outputs":[{"name":"","type":"tuple","internalType":"struct OPContractsManager.Blueprints","components":[{"name":"addressManager","type":"address","internalType":"address"},{"name":"proxy","type":"address","internalType":"address"},{"name":"proxyAdmin","type":"address","internalType":"address"},{"name":"l1ChugSplashProxy","type":"address","internalType":"address"},{"name":"resolvedDelegateProxy","type":"address","internalType":"address"},{"name":"permissionedDisputeGame1","type":"address","internalType":"address"},{"name":"permissionedDisputeGame2","type":"address","internalType":"address"},{"name":"permissionlessDisputeGame1","type":"address","internalType":"address"},{"name":"permissionlessDisputeGame2","type":"address","internalType":"address"}]}],"stateMutability":"view"},{"type":"function","name":"chainIdToBatchInboxAddress","inputs":[{"name":"_l2ChainId","type":"uint256","internalType":"uint256"}],"outputs":[{"name":"","type":"address","internalType":"address"}],"stateMutability":"pure"},{"type":"function","name":"deploy","inputs":[{"name":"_input","type":"tuple","internalType":"struct OPContractsManager.DeployInput","components":[{"name":"roles","type":"tuple","internalType":"struct OPContractsManager.Roles","components":[{"name":"opChainProxyAdminOwner","type":"address","internalType":"address"},{"name":"systemConfigOwner","type":"address","internalType":"address"},{"name":"batcher","type":"address","internalType":"address"},{"name":"unsafeBlockSigner","type":"address","internalType":"address"},{"name":"proposer","type":"address","internalType":"address"},{"name":"challenger","type":"address","internalType":"address"}]},{"name":"basefeeScalar","type":"uint32","internalType":"uint32"},{"name":"blobBasefeeScalar","type":"uint32","internalType":"uint32"},{"name":"l2ChainId","type":"uint256","internalType":"uint256"},{"name":"startingAnchorRoot","type":"bytes","internalType":"bytes"},{"name":"saltMixer","type":"string","internalType":"string"},{"name":"gasLimit","type":"uint64","internalType":"uint64"},{"name":"disputeGameType","type":"uint32","internalType":"GameType"},{"name":"disputeAbsolutePrestate","type":"bytes32","internalType":"Claim"},{"name":"disputeMaxGameDepth","type":"uint256","internalType":"uint256"},{"name":"disputeSplitDepth","type":"uint256","internalType":"uint256"},{"name":"disputeClockExtension","type":"uint64","internalType":"Duration"},{"name":"disputeMaxClockDuration","type":"uint64","internalType":"Duration"}]}],"outputs":[{"name":"","type":"tuple","internalType":"struct OPContractsManager.DeployOutput","components":[{"name":"opChainProxyAdmin","type":"address","internalType":"contract IProxyAdmin"},{"name":"addressManager","type":"address","internalType":"contract IAddressManager"},{"name":"l1ERC721BridgeProxy","type":"address","internalType":"contract IL1ERC721Bridge"},{"name":"systemConfigProxy","type":"address","internalType":"contract ISystemConfig"},{"name":"optimismMintableERC20FactoryProxy","type":"address","internalType":"contract IOptimismMintableERC20Factory"},{"name":"l1StandardBridgeProxy","type":"address","internalType":"contract IL1StandardBridge"},{"name":"l1CrossDomainMessengerProxy","type":"address","internalType":"contract IL1CrossDomainMessenger"},{"name":"optimismPortalProxy","type":"address","internalType":"contract IOptimismPortal2"},{"name":"disputeGameFactoryProxy","type":"address","internalType":"contract IDisputeGameFactory"},{"name":"anchorStateRegistryProxy","type":"address","internalType":"contract IAnchorStateRegistry"},{"name":"faultDisputeGame","type":"address","internalType":"contract IFaultDisputeGame"},{"name":"permissionedDisputeGame","type":"address","internalType":"contract IPermissionedDisputeGame"},{"name":"delayedWETHPermissionedGameProxy","type":"address","internalType":"contract IDelayedWETH"},{"name":"delayedWETHPermissionlessGameProxy","type":"address","internalType":"contract IDelayedWETH"}]}],"stateMutability":"nonpayable"},{"type":"function","name":"implementations","inputs":[],"outputs":[{"name":"","type":"tuple","internalType":"struct OPContractsManager.Implementations","components":[{"name":"superchainConfigImpl","type":"address","internalType":"address"},{"name":"protocolVersionsImpl","type":"address","internalType":"address"},{"name":"l1ERC721BridgeImpl","type":"address","internalType":"address"},{"name":"optimismPortalImpl","type":"address","internalType":"address"},{"name":"systemConfigImpl","type":"address","internalType":"address"},{"name":"optimismMintableERC20FactoryImpl","type":"address","internalType":"address"},{"name":"l1CrossDomainMessengerImpl","type":"address","internalType":"address"},{"name":"l1StandardBridgeImpl","type":"address","internalType":"address"},{"name":"disputeGameFactoryImpl","type":"address","internalType":"address"},{"name":"anchorStateRegistryImpl","type":"address","internalType":"address"},{"name":"delayedWETHImpl","type":"address","internalType":"address"},{"name":"mipsImpl","type":"address","internalType":"address"}]}],"stateMutability":"view"},{"type":"function","name":"isRC","inputs":[],"outputs":[{"name":"","type":"bool","internalType":"bool"}],"stateMutability":"view"},{"type":"function","name":"l1ContractsRelease","inputs":[],"outputs":[{"name":"","type":"string","internalType":"string"}],"stateMutability":"view"},{"type":"function","name":"protocolVersions","inputs":[],"outputs":[{"name":"","type":"address","internalType":"contract IProtocolVersions"}],"stateMutability":"view"},{"type":"function","name":"setRC","inputs":[{"name":"_isRC","type":"bool","internalType":"bool"}],"outputs":[],"stateMutability":"nonpayable"},{"type":"function","name":"superchainConfig","inputs":[],"outputs":[{"name":"","type":"address","internalType":"contract ISuperchainConfig"}],"stateMutability":"view"},{"type":"function","name":"superchainProxyAdmin","inputs":[],"outputs":[{"name":"","type":"address","internalType":"contract IProxyAdmin"}],"stateMutability":"view"},{"type":"function","name":"upgrade","inputs":[{"name":"_opChainConfigs","type":"tuple[]","internalType":"struct OPContractsManager.OpChainConfig[]","components":[{"name":"systemConfigProxy","type":"address","internalType":"contract ISystemConfig"},{"name":"proxyAdmin","type":"address","internalType":"contract IProxyAdmin"},{"name":"absolutePrestate","type":"bytes32","internalType":"Claim"}]}],"outputs":[],"stateMutability":"nonpayable"},{"type":"function","name":"upgradeController","inputs":[],"outputs":[{"name":"","type":"address","internalType":"address"}],"stateMutability":"view"},{"type":"function","name":"version","inputs":[],"outputs":[{"name":"","type":"string","internalType":"string"}],"stateMutability":"pure"},{"type":"event","name":"Deployed","inputs":[{"name":"l2ChainId","type":"uint256","indexed":true,"internalType":"uint256"},{"name":"deployer","type":"address","indexed":true,"internalType":"address"},{"name":"deployOutput","type":"bytes","indexed":false,"internalType":"bytes"}],"anonymous":false},{"type":"event","name":"Upgraded","inputs":[{"name":"l2ChainId","type":"uint256","indexed":true,"internalType":"uint256"},{"name":"systemConfig","type":"address","indexed":true,"internalType":"contract ISystemConfig"},{"name":"upgrader","type":"address","indexed":true,"internalType":"address"}],"anonymous":false},{"type":"error","name":"AddressHasNoCode","inputs":[{"name":"who","type":"address","internalType":"address"}]},{"type":"error","name":"AddressNotFound","inputs":[{"name":"who","type":"address","internalType":"address"}]},{"type":"error","name":"AlreadyReleased","inputs":[]},{"type":"error","name":"BytesArrayTooLong","inputs":[]},{"type":"error","name":"DeploymentFailed","inputs":[]},{"type":"error","name":"EmptyInitcode","inputs":[]},{"type":"error","name":"IdentityPrecompileCallFailed","inputs":[]},{"type":"error","name":"InvalidChainId","inputs":[]},{"type":"error","name":"InvalidGameConfigs","inputs":[]},{"type":"error","name":"InvalidRoleAddress","inputs":[{"name":"role","type":"string","internalType":"string"}]},{"type":"error","name":"InvalidStartingAnchorRoot","inputs":[]},{"type":"error","name":"LatestReleaseNotSet","inputs":[]},{"type":"error","name":"NotABlueprint","inputs":[]},{"type":"error","name":"OnlyDelegatecall","inputs":[]},{"type":"error","name":"OnlyUpgradeController","inputs":[]},{"type":"error","name":"PrestateNotSet","inputs":[]},{"type":"error","name":"ReservedBitsSet","inputs":[]},{"type":"error","name":"SuperchainConfigMismatch","inputs":[{"name":"systemConfig","type":"address","internalType":"contract ISystemConfig"}]},{"type":"error","name":"SuperchainProxyAdminMismatch","inputs":[]},{"type":"error","name":"UnexpectedPreambleData","inputs":[{"name":"data","type":"bytes","internalType":"bytes"}]},{"type":"error","name":"UnsupportedERCVersion","inputs":[{"name":"version","type":"uint8","internalType":"uint8"}]}],"bytecode":{"object":"0x6101206040526016805460ff191660011790553480156200001f57600080fd5b50604051620064a9380380620064a9833981016040819052620000429162000511565b6200004d8762000246565b620000588662000246565b6001600160a01b03808816608052861660a0526000620000798582620006df565b506001600160a01b0394851660c09081528351600180546001600160a01b0319908116928916929092179055602080860151600280548416918a16919091179055604080870151600380548516918b16919091179055606080880151600480548616918c16919091179055608080890151600580548716918d1691909117905560a0808a0151600680548816918e1691909117905589870151600780548816918e1691909117905560e0808b0151600880548916918f169190911790556101009a8b0151600980548916918f169190911790558951600a80548916918f1691909117905594890151600b80548816918e1691909117905592880151600c80548716918d1691909117905590870151600d80548616918c16919091179055860151600e80548516918b16919091179055850151600f80548416918a169190911790559184015160108054831691891691909117905583820151601180548316918916919091179055838501516012805483169189169190911790556101208401516013805483169189169190911790556101408401516014805483169189169190911790556101609093015160158054909416908716179092553090915290921690915250620007ab915050565b806001600160a01b03163b60000362000281576040516310d76a3760e31b81526001600160a01b038216600482015260240160405180910390fd5b50565b6001600160a01b03811681146200028157600080fd5b634e487b7160e01b600052604160045260246000fd5b60405161012081016001600160401b0381118282101715620002d657620002d66200029a565b60405290565b60405161018081016001600160401b0381118282101715620002d657620002d66200029a565b604051601f8201601f191681016001600160401b03811182821017156200032d576200032d6200029a565b604052919050565b8051620003428162000284565b919050565b600061012082840312156200035b57600080fd5b62000365620002b0565b9050620003728262000335565b8152620003826020830162000335565b6020820152620003956040830162000335565b6040820152620003a86060830162000335565b6060820152620003bb6080830162000335565b6080820152620003ce60a0830162000335565b60a0820152620003e160c0830162000335565b60c0820152620003f460e0830162000335565b60e08201526101006200040981840162000335565b9082015292915050565b600061018082840312156200042757600080fd5b62000431620002dc565b90506200043e8262000335565b81526200044e6020830162000335565b6020820152620004616040830162000335565b6040820152620004746060830162000335565b6060820152620004876080830162000335565b60808201526200049a60a0830162000335565b60a0820152620004ad60c0830162000335565b60c0820152620004c060e0830162000335565b60e0820152610100620004d581840162000335565b90820152610120620004e983820162000335565b90820152610140620004fd83820162000335565b908201526101606200040983820162000335565b6000806000806000806000610340888a0312156200052e57600080fd5b87516200053b8162000284565b80975050602080890151620005508162000284565b60408a0151909750620005638162000284565b60608a01519096506001600160401b03808211156200058157600080fd5b818b0191508b601f8301126200059657600080fd5b815181811115620005ab57620005ab6200029a565b620005bf601f8201601f1916850162000302565b91508082528c84828501011115620005d657600080fd5b60005b81811015620005f6578381018501518382018601528401620005d9565b81811115620006085760008583850101525b50508096505050506200061f8960808a0162000347565b925062000631896101a08a0162000413565b915062000642610320890162000335565b905092959891949750929550565b600181811c908216806200066557607f821691505b6020821081036200068657634e487b7160e01b600052602260045260246000fd5b50919050565b601f821115620006da57600081815260208120601f850160051c81016020861015620006b55750805b601f850160051c820191505b81811015620006d657828155600101620006c1565b5050505b505050565b81516001600160401b03811115620006fb57620006fb6200029a565b62000713816200070c845462000650565b846200068c565b602080601f8311600181146200074b5760008415620007325750858301515b600019600386901b1c1916600185901b178555620006d6565b600085815260208120601f198616915b828110156200077c578886015182559484019460019091019084016200075b565b50858210156200079b5787850151600019600388901b60f8161c191681555b5050505050600190811b01905550565b60805160a05160c05160e05161010051615c1f6200088a60003960008181610345015281816119a70152611a9b01526000818161046f01528181611a3901528181611af00152818161277a0152612a0701526000818161011d01528181611bcc01528181611c4a01528181611cf50152611d7301526000818161030901528181611cc90152611d940152600081816102890152818161075e0152818161162401528181611b9d01528181611c6b015281816120cd0152818161258f015281816134f901528181613669015281816136ba01526137200152615c1f6000f3fe608060405234801561001057600080fd5b50600436106100ea5760003560e01c8063613e827b1161008c57806387543ef61161006657806387543ef614610340578063b51f9c2b14610367578063f179c48d14610433578063ff2dd5a11461045057600080fd5b8063613e827b146102e45780636624856a146103045780636ccdfe111461032b57600080fd5b8063318b1b80116100c8578063318b1b801461025c57806335cb2e9b1461026f57806335e80ab31461028457806354fd4d50146102ab57600080fd5b80631661a2e9146100ef5780632b96b8391461011857806330e9012c14610157575b600080fd5b6101026100fd36600461496c565b610463565b60405161010f9190614b19565b60405180910390f35b61013f7f000000000000000000000000000000000000000000000000000000000000000081565b6040516001600160a01b03909116815260200161010f565b61024f6040805161018081018252600080825260208201819052918101829052606081018290526080810182905260a0810182905260c0810182905260e08101829052610100810182905261012081018290526101408101829052610160810191909152506040805161018081018252600a546001600160a01b039081168252600b5481166020830152600c54811692820192909252600d5482166060820152600e5482166080820152600f54821660a0820152601054821660c0820152601154821660e082015260125482166101008201526013548216610120820152601454821661014082015260155490911661016082015290565b60405161010f9190614b75565b61013f61026a366004614c8f565b610bb7565b610277610c32565b60405161010f9190614d00565b61013f7f000000000000000000000000000000000000000000000000000000000000000081565b60408051808201909152600581527f312e322e300000000000000000000000000000000000000000000000000000006020820152610277565b6102f76102f2366004614d13565b610cf6565b60405161010f9190614d4f565b61013f7f000000000000000000000000000000000000000000000000000000000000000081565b61033e610339366004614e7f565b61199c565b005b61013f7f000000000000000000000000000000000000000000000000000000000000000081565b6104266040805161012081018252600080825260208201819052918101829052606081018290526080810182905260a0810182905260c0810182905260e081018290526101008101919091525060408051610120810182526001546001600160a01b039081168252600254811660208301526003548116928201929092526004548216606082015260055482166080820152600654821660a0820152600754821660c0820152600854821660e082015260095490911661010082015290565b60405161010f9190614e9a565b6016546104409060ff1681565b604051901515815260200161010f565b61033e61045e366004614f16565b611a2f565b60606001600160a01b037f00000000000000000000000000000000000000000000000000000000000000001630036104c7576040517f0a57d61d00000000000000000000000000000000000000000000000000000000815260040160405180910390fd5b8151600003610502576040517fea11647200000000000000000000000000000000000000000000000000000000815260040160405180910390fd5b6000825167ffffffffffffffff81111561051e5761051e614770565b60405190808252806020026020018201604052801561056357816020015b604080518082019091526000808252602082015281526020019060019003908161053c5790505b509050600061057061272f565b905060001960005b8551811015610bad57600086828151811061059557610595614fe6565b6020026020010151905060006105b2826080015163ffffffff1690565b63ffffffff1690508084126105f3576040517fea11647200000000000000000000000000000000000000000000000000000000815260040160405180910390fd5b809350600061060f61060884602001516127fb565b6001612865565b9050600061061c826128f6565b60608501519091506001600160a01b03166107ea5761067a81856040015186600001516040518060400160405280600b81526020017f44656c617965645745544800000000000000000000000000000000000000000081525061295a565b88868151811061068c5761068c614fe6565b6020026020010151600001906001600160a01b031690816001600160a01b0316815250506107e584604001518987815181106106ca576106ca614fe6565b6020026020010151600001516106de6129a4565b610140015187604001516001600160a01b0316638da5cb5b6040518163ffffffff1660e01b8152600401602060405180830381865afa158015610725573d6000803e3d6000fd5b505050506040513d601f19601f820116820180604052508101906107499190615020565b6040516001600160a01b0391821660248201527f0000000000000000000000000000000000000000000000000000000000000000909116604482015260640160408051601f198184030181529190526020810180517bffffffffffffffffffffffffffffffffffffffffffffffffffffffff167f485cc95500000000000000000000000000000000000000000000000000000000179052612a88565b61081a565b836060015188868151811061080157610801614fe6565b60209081029190910101516001600160a01b0390911690525b8361018001511561098a5760008290506109588860a001518960c0015161087b8589600001516040518060400160405280601781526020017f5065726d697373696f6e65644469737075746547616d65000000000000000000815250612b12565b6109536040518061014001604052808b6080015163ffffffff1681526020018b60a0015181526020018b60c0015181526020018b60e0015181526020018b610100015167ffffffffffffffff1681526020018b610120015167ffffffffffffffff1681526020018b61016001516001600160a01b031681526020018f8d8151811061090857610908614fe6565b6020026020010151600001516001600160a01b0316815260200161092b88612b48565b6001600160a01b0316815260200188905261094587612b88565b61094e88612bc8565b612c08565b612c8f565b89878151811061096a5761096a614fe6565b6020908102919091018101516001600160a01b0390921691015250610acf565b610aa28760e001518861010001516109dc8488600001516040518060400160405280601981526020017f5065726d697373696f6e6c6573734469737075746547616d6500000000000000815250612b12565b6109536040518061014001604052808a6080015163ffffffff1681526020018a60a0015181526020018a60c0015181526020018a60e0015181526020018a610100015167ffffffffffffffff1681526020018a610120015167ffffffffffffffff1681526020018a61016001516001600160a01b031681526020018e8c81518110610a6957610a69614fe6565b6020026020010151600001516001600160a01b03168152602001610a8c89612b48565b6001600160a01b03168152602001879052612e8b565b888681518110610ab457610ab4614fe6565b6020908102919091018101516001600160a01b039092169101525b6000610ade85602001516127fb565b9050610b0c8186608001518b8981518110610afb57610afb614fe6565b602002602001015160200151612f05565b60808501516101408601516040517f1e33424000000000000000000000000000000000000000000000000000000000815263ffffffff909216600483015260248201526001600160a01b03821690631e33424090604401600060405180830381600087803b158015610b7d57600080fd5b505af1158015610b91573d6000803e3d6000fd5b5050505050505050508080610ba59061506c565b915050610578565b5091949350505050565b604080516020808201849052825180830382018152828401845280519101206000606083018190527fffffffffffffffffffffffffffffffffffffff000000000000000000000000008216606184015283516054818503018152607490930190935282918190610c2690615086565b60601c95945050505050565b60165460609060ff16610ccf5760008054610c4c906150d6565b80601f0160208091040260200160405190810160405280929190818152602001828054610c78906150d6565b8015610cc55780601f10610c9a57610100808354040283529160200191610cc5565b820191906000526020600020905b815481529060010190602001808311610ca857829003601f168201915b5050505050905090565b6000604051602001610ce19190615129565b6040516020818303038152906040525b905090565b604080516101c081018252600080825260208201819052918101829052606081018290526080810182905260a0810182905260c0810182905260e08101829052610100810182905261012081018290526101408101829052610160810182905261018081018290526101a0810191909152610d7082612f8b565b6101008201356000610d8661014085018561522a565b8080601f0160208091040260200160405190810160405280939291908181526020018383808284376000920182905250604080516101c08101825282815260208101839052908101829052606081018290526080810182905260a0810182905260c0810182905260e08101829052610100810182905261012081018290526101408101829052610160810182905261018081018290526101a0810191909152939450610e3192505050565b60015460408051808201909152600e81527f416464726573734d616e616765720000000000000000000000000000000000006020820152610e97916001600160a01b031690610e839086908690612b12565b60408051600081526020810190915261332d565b6001600160a01b0390811660208084019190915260035460408051808201909152600a81527f50726f787941646d696e0000000000000000000000000000000000000000000092810192909252610f17921690610ef79086908690612b12565b60408051306020820152015b60405160208183030381529060405261332d565b6001600160a01b0390811680835260208301516040517f0652b57a0000000000000000000000000000000000000000000000000000000081529216600483015290630652b57a90602401600060405180830381600087803b158015610f7b57600080fd5b505af1158015610f8f573d6000803e3d6000fd5b50505060208201518251610fa39250613467565b610fe8838260000151846040518060400160405280600e81526020017f4c3145524337323142726964676500000000000000000000000000000000000081525061295a565b6001600160a01b031660408083019190915281518151808301909252600e82527f4f7074696d69736d506f7274616c000000000000000000000000000000000000602083015261103c91859190859061295a565b6001600160a01b031660e0820152805160408051808201909152600c81527f53797374656d436f6e6669670000000000000000000000000000000000000000602082015261108d918591859061295a565b6001600160a01b03166060820152805160408051808201909152601c81527f4f7074696d69736d4d696e7461626c654552433230466163746f72790000000060208201526110de918591859061295a565b6001600160a01b03166080820152805160408051808201909152601281527f4469737075746547616d65466163746f72790000000000000000000000000000602082015261112f918591859061295a565b6001600160a01b0316610100820152805160408051808201909152601381527f416e63686f7253746174655265676973747279000000000000000000000000006020820152611181918591859061295a565b6001600160a01b0390811661012083015260045460408051808201909152601081527f4c315374616e646172644272696467650000000000000000000000000000000060208201526111fb9291909116906111df9086908690612b12565b8351604080516001600160a01b03909216602083015201610f03565b6001600160a01b0390811660a0830181905282516040517f8d52d4a0000000000000000000000000000000000000000000000000000000008152921691638d52d4a09161124d9160019060040161528f565b600060405180830381600087803b15801561126757600080fd5b505af115801561127b573d6000803e3d6000fd5b5050505060006040518060400160405280601a81526020017f4f564d5f4c3143726f7373446f6d61696e4d657373656e676572000000000000815250905061132a600160040160009054906101000a90046001600160a01b031661131586866040518060400160405280601681526020017f4c3143726f7373446f6d61696e4d657373656e67657200000000000000000000815250612b12565b602080860151604051610f03928791016152e3565b6001600160a01b0390811660c0840181905283516040517f8d52d4a0000000000000000000000000000000000000000000000000000000008152921691638d52d4a09161137c9160029060040161528f565b600060405180830381600087803b15801561139657600080fd5b505af11580156113aa573d6000803e3d6000fd5b5050835160c08501516040517f860f7cda0000000000000000000000000000000000000000000000000000000081526001600160a01b03909216935063860f7cda92506113fb9185906004016152e3565b600060405180830381600087803b15801561141557600080fd5b505af1158015611429573d6000803e3d6000fd5b50505050611472848360000151856040518060400160405280601b81526020017f44656c61796564574554485065726d697373696f6e656447616d65000000000081525061295a565b6001600160a01b0390811661018084015260065460075460408051808201909152601781527f5065726d697373696f6e65644469737075746547616d6500000000000000000060208201526115bd939283169291909116906114d79088908890612b12565b6109536040518061014001604052808c6101800160208101906114fa919061530d565b63ffffffff1681526101a08d013560208201526101c08d013560408201526101e08d013560608201526080016115386102208e016102008f0161532a565b67ffffffffffffffff1681526020016115596102408e016102208f0161532a565b67ffffffffffffffff1681526015546001600160a01b0390811660208301526101808a0151811660408301526101208a01511660608201526101008d01356080918201526115ad9060a08e01908e01615347565b61094e60c08e0160a08f01615347565b6001600160a01b031661016083015260606115d7836134df565b83516040850151600c549293506115f7926001600160a01b031684612a88565b6116b4836101008101516060808301516040516001600160a01b03938416602482015290831660448201527f00000000000000000000000000000000000000000000000000000000000000009092166064830152600160848301529060a40160408051601f198184030181529190526020810180517bffffffffffffffffffffffffffffffffffffffffffffffffffffffff167f8e819e540000000000000000000000000000000000000000000000000000000017905292915050565b835160e0850151600d549293506116d4926001600160a01b031684612a88565b6116e66116e088615413565b84613585565b83516060850151600e54929350611706926001600160a01b031684612a88565b6117868360a08101516040516001600160a01b03909116602482015260609060440160408051601f198184030181529190526020810180517bffffffffffffffffffffffffffffffffffffffffffffffffffffffff167fc4d66de80000000000000000000000000000000000000000000000000000000017905292915050565b83516080850151600f549293506117a6926001600160a01b031684612a88565b6117af83613657565b835160c08501516010549293506117cf926001600160a01b031684612a88565b6117d8836134df565b835160a08501516011549293506117f8926001600160a01b031684612a88565b61180961180488615413565b6136a2565b835161018085015160145492935061182a926001600160a01b031684612a88565b61189960405130602482015260609060440160408051601f198184030181529190526020810180517bffffffffffffffffffffffffffffffffffffffffffffffffffffffff167fc4d66de800000000000000000000000000000000000000000000000000000000179052919050565b83516101008501516012549293506118ba926001600160a01b031684612a88565b6118d08361010001516001856101600151612f05565b6101008301516118ec906118e760208a018a615347565b613467565b6118fe6118f888615413565b846136ec565b835161012085015160135492935061191f926001600160a01b031684612a88565b8251611932906118e760208a018a615347565b336001600160a01b0316857fb40fb1137b92aa97efb20f29c17d36c5947aac681c3315ba854b0232f83495428560405160200161196f9190614d4f565b60408051601f198184030181529082905261198991614d00565b60405180910390a3509095945050505050565b336001600160a01b037f000000000000000000000000000000000000000000000000000000000000000016146119fe576040517f861c183d00000000000000000000000000000000000000000000000000000000815260040160405180910390fd5b601680547fffffffffffffffffffffffffffffffffffffffffffffffffffffffffffffff0016911515919091179055565b6001600160a01b037f0000000000000000000000000000000000000000000000000000000000000000163003611a91576040517f0a57d61d00000000000000000000000000000000000000000000000000000000815260040160405180910390fd5b6001600160a01b037f0000000000000000000000000000000000000000000000000000000000000000163003611b55576040517f6ccdfe11000000000000000000000000000000000000000000000000000000008152600060048201527f00000000000000000000000000000000000000000000000000000000000000006001600160a01b031690636ccdfe1190602401600060405180830381600087803b158015611b3c57600080fd5b505af1158015611b50573d6000803e3d6000fd5b505050505b6000611b5f6129a4565b90506000611b6b61272f565b82516040517f204e1c7a0000000000000000000000000000000000000000000000000000000081526001600160a01b037f000000000000000000000000000000000000000000000000000000000000000081166004830152929350908216917f0000000000000000000000000000000000000000000000000000000000000000169063204e1c7a90602401602060405180830381865afa158015611c13573d6000803e3d6000fd5b505050506040513d601f19601f82011682018060405250810190611c379190615020565b6001600160a01b031614611c9457611c947f00000000000000000000000000000000000000000000000000000000000000007f000000000000000000000000000000000000000000000000000000000000000084600001516137cd565b60208201516040517f204e1c7a0000000000000000000000000000000000000000000000000000000081526001600160a01b037f000000000000000000000000000000000000000000000000000000000000000081166004830152918216917f0000000000000000000000000000000000000000000000000000000000000000169063204e1c7a90602401602060405180830381865afa158015611d3c573d6000803e3d6000fd5b505050506040513d601f19601f82011682018060405250810190611d609190615020565b6001600160a01b031614611dbd57611dbd7f00000000000000000000000000000000000000000000000000000000000000007f000000000000000000000000000000000000000000000000000000000000000084602001516137cd565b60005b83518110156127295760006040518060c00160405280868481518110611de857611de8614fe6565b6020026020010151600001516001600160a01b031663a71198696040518163ffffffff1660e01b8152600401602060405180830381865afa158015611e31573d6000803e3d6000fd5b505050506040513d601f19601f82011682018060405250810190611e559190615020565b6001600160a01b03168152602001868481518110611e7557611e75614fe6565b6020026020010151600001516001600160a01b031663c4e8ddfa6040518163ffffffff1660e01b8152600401602060405180830381865afa158015611ebe573d6000803e3d6000fd5b505050506040513d601f19601f82011682018060405250810190611ee29190615020565b6001600160a01b03168152602001868481518110611f0257611f02614fe6565b6020026020010151600001516001600160a01b031663078f29cf6040518163ffffffff1660e01b8152600401602060405180830381865afa158015611f4b573d6000803e3d6000fd5b505050506040513d601f19601f82011682018060405250810190611f6f9190615020565b6001600160a01b03168152602001611fa3878581518110611f9257611f92614fe6565b6020026020010151600001516127fb565b6001600160a01b03168152602001868481518110611fc357611fc3614fe6565b6020026020010151600001516001600160a01b0316630a49cb036040518163ffffffff1660e01b8152600401602060405180830381865afa15801561200c573d6000803e3d6000fd5b505050506040513d601f19601f820116820180604052508101906120309190615020565b6001600160a01b0316815260200186848151811061205057612050614fe6565b6020026020010151600001516001600160a01b0316639b7d7f0a6040518163ffffffff1660e01b8152600401602060405180830381865afa158015612099573d6000803e3d6000fd5b505050506040513d601f19601f820116820180604052508101906120bd9190615020565b6001600160a01b031681525090507f00000000000000000000000000000000000000000000000000000000000000006001600160a01b031681608001516001600160a01b03166335e80ab36040518163ffffffff1660e01b8152600401602060405180830381865afa158015612137573d6000803e3d6000fd5b505050506040513d601f19601f8201168201806040525081019061215b9190615020565b6001600160a01b0316146121ca5784828151811061217b5761217b614fe6565b6020908102919091010151516040517fc358e75a0000000000000000000000000000000000000000000000000000000081526001600160a01b0390911660048201526024015b60405180910390fd5b6122138583815181106121df576121df614fe6565b6020026020010151602001518684815181106121fd576121fd614fe6565b60200260200101516000015186608001516137cd565b61224385838151811061222857612228614fe6565b60200260200101516020015182600001518660c001516137cd565b61227385838151811061225857612258614fe6565b602002602001015160200151826020015186604001516137cd565b6122a385838151811061228857612288614fe6565b60200260200101516020015182604001518660e001516137cd565b6122d48583815181106122b8576122b8614fe6565b60200260200101516020015182606001518661010001516137cd565b6123048583815181106122e9576122e9614fe6565b602002602001015160200151826080015186606001516137cd565b61233485838151811061231957612319614fe6565b6020026020010151602001518260a001518660a001516137cd565b600061234582606001516001612865565b90506000612352826128f6565b905060006124318289878151811061236c5761236c614fe6565b6020026020010151602001518a888151811061238a5761238a614fe6565b60200260200101516000015160601b6040516020016123d191907fffffffffffffffffffffffffffffffffffffffff00000000000000000000000091909116815260140190565b60408051601f19818403018152908290526123ee91602001615530565b60408051601f19818403018152828201909152601382527f416e63686f72537461746552656769737472790000000000000000000000000060208301529061295a565b9050600084608001516001600160a01b0316633c9f397c6040518163ffffffff1660e01b8152600401602060405180830381865afa158015612477573d6000803e3d6000fd5b505050506040513d601f19601f8201168201806040525081019061249b9190615575565b90506000806124a986612b48565b6040517f7258a80700000000000000000000000000000000000000000000000000000000815263ffffffff851660048201526001600160a01b039190911690637258a807906024016040805180830381865afa15801561250d573d6000803e3d6000fd5b505050506040513d601f19601f820116820180604052508101906125319190615592565b91509150600060405180604001604052808481526020018381525090506126398c8a8151811061256357612563614fe6565b6020908102919091018101518101516101208e015160608c015160808d01516040516001600160a01b037f000000000000000000000000000000000000000000000000000000000000000081166024830152928316604482015291166064820152855160848201529285015160a4840152909188919060c40160408051601f198184030181529190526020810180517bffffffffffffffffffffffffffffffffffffffffffffffffffffffff167f060fa21600000000000000000000000000000000000000000000000000000000179052612a88565b5050505061266782848360018c8a8151811061265757612657614fe6565b60200260200101518b8d8b613825565b600061267885606001516000612865565b90506001600160a01b038116156126b3576126b383828460008d8b815181106126a3576126a3614fe6565b60200260200101518c8e8c613825565b306001600160a01b03168987815181106126cf576126cf614fe6565b6020026020010151600001516001600160a01b0316847f78bc67b9bf548ef6410becd31a3e10b9ea6c255974ef6b4530728b431df3003060405160405180910390a4505050505080806127219061506c565b915050611dc0565b50505050565b6040805161012081018252600080825260208201819052918101829052606081018290526080810182905260a0810182905260c0810182905260e081018290526101008101919091527f00000000000000000000000000000000000000000000000000000000000000006001600160a01b031663b51f9c2b6040518163ffffffff1660e01b815260040161012060405180830381865afa1580156127d7573d6000803e3d6000fd5b505050506040513d601f19601f82011682018060405250810190610cf191906155b6565b6000816001600160a01b031663f2b4e6176040518163ffffffff1660e01b8152600401602060405180830381865afa15801561283b573d6000803e3d6000fd5b505050506040513d601f19601f8201168201806040525081019061285f9190615020565b92915050565b6040517f1b685b9e00000000000000000000000000000000000000000000000000000000815263ffffffff821660048201526000906001600160a01b03841690631b685b9e90602401602060405180830381865afa1580156128cb573d6000803e3d6000fd5b505050506040513d601f19601f820116820180604052508101906128ef9190615020565b9392505050565b6000816001600160a01b031663d6ae3cd56040518163ffffffff1660e01b8152600401602060405180830381865afa158015612936573d6000803e3d6000fd5b505050506040513d601f19601f8201168201806040525081019061285f919061566c565b600080612968868585612b12565b905061299a61297561272f565b602001518287604051602001610f0391906001600160a01b0391909116815260200190565b9695505050505050565b6040805161018081018252600080825260208201819052918101829052606081018290526080810182905260a0810182905260c0810182905260e081018290526101008101829052610120810182905261014081018290526101608101919091527f00000000000000000000000000000000000000000000000000000000000000006001600160a01b03166330e9012c6040518163ffffffff1660e01b815260040161018060405180830381865afa158015612a64573d6000803e3d6000fd5b505050506040513d601f19601f82011682018060405250810190610cf19190615685565b612a9182613a22565b6040517f9623609d0000000000000000000000000000000000000000000000000000000081526001600160a01b03851690639623609d90612ada90869086908690600401615766565b600060405180830381600087803b158015612af457600080fd5b505af1158015612b08573d6000803e3d6000fd5b5050505050505050565b6000838383604051602001612b2993929190615792565b6040516020818303038152906040528051906020012090509392505050565b6000816001600160a01b0316635c0cba336040518163ffffffff1660e01b8152600401602060405180830381865afa15801561283b573d6000803e3d6000fd5b6000816001600160a01b031663a8e4fb906040518163ffffffff1660e01b8152600401602060405180830381865afa15801561283b573d6000803e3d6000fd5b6000816001600160a01b031663534db0e26040518163ffffffff1660e01b8152600401602060405180830381865afa15801561283b573d6000803e3d6000fd5b60606000848484604051602401612c2193929190615873565b60408051601f198184030181529190526020810180517bffffffffffffffffffffffffffffffffffffffffffffffffffffffff167f9ecd8b34000000000000000000000000000000000000000000000000000000001790529050612c86816004613a71565b95945050505050565b600080612cc0866001600160a01b0316803b806020016040519081016040528181526000908060200190933c613aa7565b805190915060ff1615612d075780516040517f1a66c69200000000000000000000000000000000000000000000000000000000815260ff90911660048201526024016121c1565b60208101515115612d4a5780602001516040517f57a058350000000000000000000000000000000000000000000000000000000081526004016121c19190614d00565b6000612d7a866001600160a01b0316803b806020016040519081016040528181526000908060200190933c613aa7565b805190915060ff1615612dc15780516040517f1a66c69200000000000000000000000000000000000000000000000000000000815260ff90911660048201526024016121c1565b60208101515115612e045780602001516040517f57a058350000000000000000000000000000000000000000000000000000000081526004016121c19190614d00565b60008260400151826040015186604051602001612e23939291906158a5565b6040516020818303038152906040529050858151602083016000f593506001600160a01b038416612e80576040517f3011642500000000000000000000000000000000000000000000000000000000815260040160405180910390fd5b505050949350505050565b6060600082604051602401612ea091906158e8565b60408051601f198184030181529190526020810180517bffffffffffffffffffffffffffffffffffffffffffffffffffffffff167f5599c6460000000000000000000000000000000000000000000000000000000017905290506128ef816004613a71565b6040517f14f6b1a300000000000000000000000000000000000000000000000000000000815263ffffffff831660048201526001600160a01b0382811660248301528416906314f6b1a3906044015b600060405180830381600087803b158015612f6e57600080fd5b505af1158015612f82573d6000803e3d6000fd5b50505050505050565b6101008101351580612fa1575046816101000135145b15612fd8576040517f7a47c9a200000000000000000000000000000000000000000000000000000000815260040160405180910390fd5b6000612fe76020830183615347565b6001600160a01b031603613057576040517fe646e04300000000000000000000000000000000000000000000000000000000815260206004820152601660248201527f6f70436861696e50726f787941646d696e4f776e65720000000000000000000060448201526064016121c1565b60006130696040830160208401615347565b6001600160a01b0316036130d9576040517fe646e04300000000000000000000000000000000000000000000000000000000815260206004820152601160248201527f73797374656d436f6e6669674f776e657200000000000000000000000000000060448201526064016121c1565b60006130eb6060830160408401615347565b6001600160a01b03160361315b576040517fe646e04300000000000000000000000000000000000000000000000000000000815260206004820152600760248201527f626174636865720000000000000000000000000000000000000000000000000060448201526064016121c1565b600061316d6080830160608401615347565b6001600160a01b0316036131dd576040517fe646e04300000000000000000000000000000000000000000000000000000000815260206004820152601160248201527f756e73616665426c6f636b5369676e657200000000000000000000000000000060448201526064016121c1565b60006131ef60a0830160808401615347565b6001600160a01b03160361325f576040517fe646e04300000000000000000000000000000000000000000000000000000000815260206004820152600860248201527f70726f706f73657200000000000000000000000000000000000000000000000060448201526064016121c1565b600061327160c0830160a08401615347565b6001600160a01b0316036132e1576040517fe646e04300000000000000000000000000000000000000000000000000000000815260206004820152600a60248201527f6368616c6c656e6765720000000000000000000000000000000000000000000060448201526064016121c1565b6132ef61012082018261522a565b905060000361332a576040517f89e0acdf00000000000000000000000000000000000000000000000000000000815260040160405180910390fd5b50565b60008061335e856001600160a01b0316803b806020016040519081016040528181526000908060200190933c613aa7565b805190915060ff16156133a55780516040517f1a66c69200000000000000000000000000000000000000000000000000000000815260ff90911660048201526024016121c1565b602081015151156133e85780602001516040517f57a058350000000000000000000000000000000000000000000000000000000081526004016121c19190614d00565b60008160400151846040516020016134019291906158f7565b6040516020818303038152906040529050848151602083016000f592506001600160a01b03831661345e576040517f3011642500000000000000000000000000000000000000000000000000000000815260040160405180910390fd5b50509392505050565b6040517ff2fde38b0000000000000000000000000000000000000000000000000000000081526001600160a01b03828116600483015283169063f2fde38b90602401600060405180830381600087803b1580156134c357600080fd5b505af11580156134d7573d6000803e3d6000fd5b505050505050565b60c08101516040516001600160a01b0391821660248201527f000000000000000000000000000000000000000000000000000000000000000090911660448201526060906064015b60408051601f198184030181529190526020810180517bffffffffffffffffffffffffffffffffffffffffffffffffffffffff167f485cc9550000000000000000000000000000000000000000000000000000000017905292915050565b60606000806135948585613f66565b91509150846000015160200151856020015186604001518760000151604001516001600160a01b031660001b8860c00151896000015160600151876135dc8c60600151610bb7565b886040516024016135f599989796959493929190615926565b60408051601f198184030181529190526020810180517bffffffffffffffffffffffffffffffffffffffffffffffffffffffff167fca407f0c000000000000000000000000000000000000000000000000000000001790529250505092915050565b60e08101516040516001600160a01b037f0000000000000000000000000000000000000000000000000000000000000000811660248301529091166044820152606090606401613527565b8051516040516001600160a01b0391821660248201527f00000000000000000000000000000000000000000000000000000000000000009091166044820152606090606401613527565b6060600083608001518060200190518101906137089190615a43565b61010084015160e08501516040516001600160a01b037f00000000000000000000000000000000000000000000000000000000000000008116602483015292831660448201529116606482015281516084820152602082015160a482015290915060c40160408051601f198184030181529190526020810180517bffffffffffffffffffffffffffffffffffffffffffffffffffffffff167f060fa2160000000000000000000000000000000000000000000000000000000017905291505092915050565b6137d681613a22565b6040517f99a88ec40000000000000000000000000000000000000000000000000000000081526001600160a01b03838116600483015282811660248301528416906399a88ec490604401612f54565b600061383088614122565b90506138468560200151828561014001516137cd565b50600061385288614162565b6001600160a01b038089166101008301526101608501511660c082015260408601519091506138ad576040517fefc878f200000000000000000000000000000000000000000000000000000000815260040160405180910390fd5b60408501516020820152600060001963ffffffff8816016139785760006138d38a612b88565b905060006138e08b612bc8565b905061396f8760a001518860c001516139648f6040518060400160405280600681526020017f76322e302e3000000000000000000000000000000000000000000000000000008152506040518060400160405280601781526020017f5065726d697373696f6e65644469737075746547616d65000000000000000000815250612b12565b610953888787612c08565b92505050613a07565b613a048560e001518661010001516139fb8d6040518060400160405280600681526020017f76322e302e3000000000000000000000000000000000000000000000000000008152506040518060400160405280601981526020017f5065726d697373696f6e6c6573734469737075746547616d6500000000000000815250612b12565b61095386612e8b565b90505b613a1683606001518883612f05565b50505050505050505050565b806001600160a01b03163b60000361332a576040517f86bb51b80000000000000000000000000000000000000000000000000000000081526001600160a01b03821660048201526024016121c1565b606082518210613a90575060408051602081019091526000815261285f565b6128ef8383848651613aa29190615a92565b6144f5565b613ace6040518060600160405280600060ff16815260200160608152602001606081525090565b600282511080613b38575081600081518110613aec57613aec614fe6565b6020910101517fff00000000000000000000000000000000000000000000000000000000000000167ffe0000000000000000000000000000000000000000000000000000000000000014155b80613b9d575081600181518110613b5157613b51614fe6565b6020910101517fff00000000000000000000000000000000000000000000000000000000000000167f710000000000000000000000000000000000000000000000000000000000000014155b15613bd4576040517f31f56e1f00000000000000000000000000000000000000000000000000000000815260040160405180910390fd5b6000600283600281518110613beb57613beb614fe6565b602001015160f81c60f81b60fc60f81b1660f81c60ff16901c9050600083600281518110613c1b57613c1b614fe6565b60209101015160f81c60039081169150819003613c64576040517fb214675a00000000000000000000000000000000000000000000000000000000815260040160405180910390fd5b600060ff821615613d505760008260ff1667ffffffffffffffff811115613c8d57613c8d614770565b6040519080825280601f01601f191660200182016040528015613cb7576020820181803683370190505b50905060005b8360ff16811015613d425786613cd4826003615aa9565b81518110613ce457613ce4614fe6565b602001015160f81c60f81b828281518110613d0157613d01614fe6565b60200101907effffffffffffffffffffffffffffffffffffffffffffffffffffffffffffff1916908160001a90535080613d3a8161506c565b915050613cbd565b50613d4c816146af565b9150505b60008167ffffffffffffffff811115613d6b57613d6b614770565b6040519080825280601f01601f191660200182016040528015613d95576020820181803683370190505b50905060ff831615613e3a576000613dae846003615ac1565b60ff16905060005b83811015613e375787613dc98284615aa9565b81518110613dd957613dd9614fe6565b602001015160f81c60f81b838281518110613df657613df6614fe6565b60200101907effffffffffffffffffffffffffffffffffffffffffffffffffffffffffffff1916908160001a90535080613e2f8161506c565b915050613db6565b50505b600082613e48856003615ac1565b60ff16613e559190615aa9565b90506000818851613e669190615a92565b905080600003613ea2576040517f028512d400000000000000000000000000000000000000000000000000000000815260040160405180910390fd5b60008167ffffffffffffffff811115613ebd57613ebd614770565b6040519080825280601f01601f191660200182016040528015613ee7576020820181803683370190505b50905060008360208b0101602083018481868460045afa9250505080613f39576040517ff7046f3000000000000000000000000000000000000000000000000000000000815260040160405180910390fd5b60405180606001604052808960ff1681526020018681526020018381525098505050505050505050919050565b6040805160c081018252600080825260208201819052918101829052606081018290526080810182905260a08101919091526040805160c081018252600080825260208201819052918101829052606081018290526080810182905260a081019190915261404d6040805160c081018252600080825260208201819052918101829052606081018290526080810182905260a0810191909152506040805160c0810182526301312d008152600a6020820152600891810191909152633b9aca006060820152620f424060808201526fffffffffffffffffffffffffffffffff60a082015290565b91506040518060c001604052808460c001516001600160a01b0316815260200184604001516001600160a01b031681526020018460a001516001600160a01b031681526020018461010001516001600160a01b031681526020018460e001516001600160a01b0316815260200184608001516001600160a01b031681525090506140da8160000151613a22565b6140e78160200151613a22565b6140f48160400151613a22565b6141018160600151613a22565b61410e8160800151613a22565b61411b8160a00151613a22565b9250929050565b6000816001600160a01b0316633fc8cef36040518163ffffffff1660e01b8152600401602060405180830381865afa15801561283b573d6000803e3d6000fd5b6040805161014081018252600080825260208201819052918101829052606081018290526080810182905260a0810182905260c0810182905260e0810182905261010081018290526101208101919091526000604051806101400160405280846001600160a01b031663bbdc02db6040518163ffffffff1660e01b8152600401602060405180830381865afa1580156141ff573d6000803e3d6000fd5b505050506040513d601f19601f820116820180604052508101906142239190615575565b63ffffffff168152602001846001600160a01b0316638d450a956040518163ffffffff1660e01b8152600401602060405180830381865afa15801561426c573d6000803e3d6000fd5b505050506040513d601f19601f82011682018060405250810190614290919061566c565b8152602001846001600160a01b031663fa315aa96040518163ffffffff1660e01b8152600401602060405180830381865afa1580156142d3573d6000803e3d6000fd5b505050506040513d601f19601f820116820180604052508101906142f7919061566c565b8152602001846001600160a01b031663ec5e63086040518163ffffffff1660e01b8152600401602060405180830381865afa15801561433a573d6000803e3d6000fd5b505050506040513d601f19601f8201168201806040525081019061435e919061566c565b8152602001846001600160a01b0316636b6716c06040518163ffffffff1660e01b8152600401602060405180830381865afa1580156143a1573d6000803e3d6000fd5b505050506040513d601f19601f820116820180604052508101906143c59190615ae6565b67ffffffffffffffff168152602001846001600160a01b031663dabd396d6040518163ffffffff1660e01b8152600401602060405180830381865afa158015614412573d6000803e3d6000fd5b505050506040513d601f19601f820116820180604052508101906144369190615ae6565b67ffffffffffffffff168152602001846001600160a01b0316633a7684636040518163ffffffff1660e01b8152600401602060405180830381865afa158015614483573d6000803e3d6000fd5b505050506040513d601f19601f820116820180604052508101906144a79190615020565b6001600160a01b031681526020016144be85614122565b6001600160a01b031681526020016144d585612b48565b6001600160a01b031681526020016144ec856128f6565b90529392505050565b60608182601f011015614564576040517f08c379a000000000000000000000000000000000000000000000000000000000815260206004820152600e60248201527f736c6963655f6f766572666c6f7700000000000000000000000000000000000060448201526064016121c1565b8282840110156145d0576040517f08c379a000000000000000000000000000000000000000000000000000000000815260206004820152600e60248201527f736c6963655f6f766572666c6f7700000000000000000000000000000000000060448201526064016121c1565b8183018451101561463d576040517f08c379a000000000000000000000000000000000000000000000000000000000815260206004820152601160248201527f736c6963655f6f75744f66426f756e647300000000000000000000000000000060448201526064016121c1565b60608215801561465c57604051915060008252602082016040526146a6565b6040519150601f8416801560200281840101858101878315602002848b0101015b8183101561469557805183526020928301920161467d565b5050858452601f01601f1916604052505b50949350505050565b60006020825111156146ed576040517f5623dc1c00000000000000000000000000000000000000000000000000000000815260040160405180910390fd5b6000805b835181101561476957614705816001615aa9565b84516147119190615a92565b61471c906008615b03565b614727906002615c06565b84828151811061473957614739614fe6565b016020015161474b919060f81c615b03565b6147559083615aa9565b9150806147618161506c565b9150506146f1565b5092915050565b7f4e487b7100000000000000000000000000000000000000000000000000000000600052604160045260246000fd5b6040516101a0810167ffffffffffffffff811182821017156147c3576147c3614770565b60405290565b6040516060810167ffffffffffffffff811182821017156147c3576147c3614770565b604051610120810167ffffffffffffffff811182821017156147c3576147c3614770565b604051610180810167ffffffffffffffff811182821017156147c3576147c3614770565b604051601f8201601f1916810167ffffffffffffffff8111828210171561485d5761485d614770565b604052919050565b600067ffffffffffffffff82111561487f5761487f614770565b5060051b60200190565b600082601f83011261489a57600080fd5b813567ffffffffffffffff8111156148b4576148b4614770565b6148c76020601f19601f84011601614834565b8181528460208386010111156148dc57600080fd5b816020850160208301376000918101602001919091529392505050565b6001600160a01b038116811461332a57600080fd5b8035614919816148f9565b919050565b63ffffffff8116811461332a57600080fd5b80356149198161491e565b67ffffffffffffffff8116811461332a57600080fd5b80356149198161493b565b8035801515811461491957600080fd5b6000602080838503121561497f57600080fd5b823567ffffffffffffffff8082111561499757600080fd5b818501915085601f8301126149ab57600080fd5b81356149be6149b982614865565b614834565b81815260059190911b830184019084810190888311156149dd57600080fd5b8585015b83811015614b0c578035858111156149f95760008081fd5b86016101a0818c03601f1901811315614a125760008081fd5b614a1a61479f565b8983013588811115614a2c5760008081fd5b614a3a8e8c83870101614889565b8252506040614a4a81850161490e565b8b8301526060614a5b81860161490e565b8284015260809150614a6e82860161490e565b9083015260a0614a7f858201614930565b8284015260c0915081850135818401525060e080850135828401526101009150818501358184015250610120614ab6818601614951565b828401526101409150614aca828601614951565b818401525061016080850135828401526101809150614aea82860161490e565b90830152614af984840161495c565b90820152855250509186019186016149e1565b5098975050505050505050565b602080825282518282018190526000919060409081850190868401855b82811015614b6857815180516001600160a01b0390811686529087015116868501529284019290850190600101614b36565b5091979650505050505050565b81516001600160a01b0316815261018081016020830151614ba160208401826001600160a01b03169052565b506040830151614bbc60408401826001600160a01b03169052565b506060830151614bd760608401826001600160a01b03169052565b506080830151614bf260808401826001600160a01b03169052565b5060a0830151614c0d60a08401826001600160a01b03169052565b5060c0830151614c2860c08401826001600160a01b03169052565b5060e0830151614c4360e08401826001600160a01b03169052565b50610100838101516001600160a01b039081169184019190915261012080850151821690840152610140808501518216908401526101608085015191821681850152905b505092915050565b600060208284031215614ca157600080fd5b5035919050565b60005b83811015614cc3578181015183820152602001614cab565b838111156127295750506000910152565b60008151808452614cec816020860160208601614ca8565b601f01601f19169290920160200192915050565b6020815260006128ef6020830184614cd4565b600060208284031215614d2557600080fd5b813567ffffffffffffffff811115614d3c57600080fd5b820161024081850312156128ef57600080fd5b81516001600160a01b031681526101c081016020830151614d7b60208401826001600160a01b03169052565b506040830151614d9660408401826001600160a01b03169052565b506060830151614db160608401826001600160a01b03169052565b506080830151614dcc60808401826001600160a01b03169052565b5060a0830151614de760a08401826001600160a01b03169052565b5060c0830151614e0260c08401826001600160a01b03169052565b5060e0830151614e1d60e08401826001600160a01b03169052565b50610100838101516001600160a01b0390811691840191909152610120808501518216908401526101408085015182169084015261016080850151821690840152610180808501518216908401526101a0808501519182168185015290614c87565b600060208284031215614e9157600080fd5b6128ef8261495c565b81516001600160a01b03908116825260208084015182169083015260408084015182169083015260608084015182169083015260808084015182169083015260a08084015182169083015260c08084015182169083015260e0808401518216908301526101008084015191821681840152610120830191614c87565b60006020808385031215614f2957600080fd5b823567ffffffffffffffff811115614f4057600080fd5b8301601f81018513614f5157600080fd5b8035614f5f6149b982614865565b81815260609182028301840191848201919088841115614f7e57600080fd5b938501935b83851015614fda5780858a031215614f9b5760008081fd5b614fa36147c9565b8535614fae816148f9565b815285870135614fbd816148f9565b818801526040868101359082015283529384019391850191614f83565b50979650505050505050565b7f4e487b7100000000000000000000000000000000000000000000000000000000600052603260045260246000fd5b8051614919816148f9565b60006020828403121561503257600080fd5b81516128ef816148f9565b7f4e487b7100000000000000000000000000000000000000000000000000000000600052601160045260246000fd5b6000600019820361507f5761507f61503d565b5060010190565b6000815160208301517fffffffffffffffffffffffffffffffffffffffff000000000000000000000000808216935060148310156150ce5780818460140360031b1b83161693505b505050919050565b600181811c908216806150ea57607f821691505b602082108103615123577f4e487b7100000000000000000000000000000000000000000000000000000000600052602260045260246000fd5b50919050565b600080835481600182811c91508083168061514557607f831692505b6020808410820361517d577f4e487b710000000000000000000000000000000000000000000000000000000086526022600452602486fd5b81801561519157600181146151c4576151f1565b7fffffffffffffffffffffffffffffffffffffffffffffffffffffffffffffff00861689528415158502890196506151f1565b60008a81526020902060005b868110156151e95781548b8201529085019083016151d0565b505084890196505b505050505050615220817f2d726300000000000000000000000000000000000000000000000000000000009052565b6003019392505050565b60008083357fffffffffffffffffffffffffffffffffffffffffffffffffffffffffffffffe184360301811261525f57600080fd5b83018035915067ffffffffffffffff82111561527a57600080fd5b60200191503681900382131561411b57600080fd5b6001600160a01b038316815260408101600383106152d6577f4e487b7100000000000000000000000000000000000000000000000000000000600052602160045260246000fd5b8260208301529392505050565b6001600160a01b03831681526040602082015260006153056040830184614cd4565b949350505050565b60006020828403121561531f57600080fd5b81356128ef8161491e565b60006020828403121561533c57600080fd5b81356128ef8161493b565b60006020828403121561535957600080fd5b81356128ef816148f9565b600060c0828403121561537657600080fd5b60405160c0810181811067ffffffffffffffff8211171561539957615399614770565b60405290508082356153aa816148f9565b815260208301356153ba816148f9565b602082015260408301356153cd816148f9565b604082015260608301356153e0816148f9565b606082015260808301356153f3816148f9565b608082015260a0830135615406816148f9565b60a0919091015292915050565b6000610240823603121561542657600080fd5b61542e61479f565b6154383684615364565b815261544660c08401614930565b602082015261545760e08401614930565b60408201526101008084013560608301526101208085013567ffffffffffffffff8082111561548557600080fd5b61549136838901614889565b6080860152610140915081870135818111156154ac57600080fd5b6154b836828a01614889565b60a087015250506101606154cd818801614951565b60c08601526101806154e0818901614930565b60e08701526101a0880135858701526101c0880135848701526101e0880135838701526155106102008901614951565b828701526155216102208901614951565b90860152509295945050505050565b7f76322e302e302d00000000000000000000000000000000000000000000000000815260008251615568816007850160208701614ca8565b9190910160070192915050565b60006020828403121561558757600080fd5b81516128ef8161491e565b600080604083850312156155a557600080fd5b505080516020909101519092909150565b600061012082840312156155c957600080fd5b6155d16147ec565b6155da83615015565b81526155e860208401615015565b60208201526155f960408401615015565b604082015261560a60608401615015565b606082015261561b60808401615015565b608082015261562c60a08401615015565b60a082015261563d60c08401615015565b60c082015261564e60e08401615015565b60e0820152610100615661818501615015565b908201529392505050565b60006020828403121561567e57600080fd5b5051919050565b6000610180828403121561569857600080fd5b6156a0614810565b6156a983615015565b81526156b760208401615015565b60208201526156c860408401615015565b60408201526156d960608401615015565b60608201526156ea60808401615015565b60808201526156fb60a08401615015565b60a082015261570c60c08401615015565b60c082015261571d60e08401615015565b60e0820152610100615730818501615015565b90820152610120615742848201615015565b90820152610140615754848201615015565b90820152610160615661848201615015565b60006001600160a01b03808616835280851660208401525060606040830152612c866060830184614cd4565b8381526060602082015260006157ab6060830185614cd4565b828103604084015261299a8185614cd4565b805163ffffffff1682526020810151602083015260408101516040830152606081015160608301526080810151615800608084018267ffffffffffffffff169052565b5060a081015161581c60a084018267ffffffffffffffff169052565b5060c081015161583760c08401826001600160a01b03169052565b5060e081015161585260e08401826001600160a01b03169052565b50610100818101516001600160a01b03169083015261012090810151910152565b610180810161588282866157bd565b6001600160a01b0380851661014084015280841661016084015250949350505050565b600084516158b7818460208901614ca8565b8451908301906158cb818360208901614ca8565b84519101906158de818360208801614ca8565b0195945050505050565b610140810161285f82846157bd565b60008351615909818460208801614ca8565b83519083019061591d818360208801614ca8565b01949350505050565b6000610260820190506001600160a01b03808c16835263ffffffff808c166020850152808b16604085015289606085015267ffffffffffffffff8916608085015281881660a08501528087511660c085015260ff60208801511660e085015260ff604088015116610100850152806060880151166101208501528060808801511661014085015250506fffffffffffffffffffffffffffffffff60a0860151166101608301526159e26101808301856001600160a01b03169052565b82516001600160a01b039081166101a0840152602084015181166101c0840152604084015181166101e0840152606084015181166102008401526080840151811661022084015260a0840151166102408301529a9950505050505050505050565b600060408284031215615a5557600080fd5b6040516040810181811067ffffffffffffffff82111715615a7857615a78614770565b604052825181526020928301519281019290925250919050565b600082821015615aa457615aa461503d565b500390565b60008219821115615abc57615abc61503d565b500190565b600060ff821660ff84168060ff03821115615ade57615ade61503d565b019392505050565b600060208284031215615af857600080fd5b81516128ef8161493b565b6000816000190483118215151615615b1d57615b1d61503d565b500290565b600181815b80851115615b5d578160001904821115615b4357615b4361503d565b80851615615b5057918102915b93841c9390800290615b27565b509250929050565b600082615b745750600161285f565b81615b815750600061285f565b8160018114615b975760028114615ba157615bbd565b600191505061285f565b60ff841115615bb257615bb261503d565b50506001821b61285f565b5060208310610133831016604e8410600b8410161715615be0575081810a61285f565b615bea8383615b22565b8060001904821115615bfe57615bfe61503d565b029392505050565b60006128ef8383615b6556fea164736f6c634300080f000a","linkReferences":{}},"methodIdentifiers":{"addGameType((string,address,address,address,uint32,bytes32,uint256,uint256,uint64,uint64,uint256,address,bool)[])":"1661a2e9","blueprints()":"b51f9c2b","chainIdToBatchInboxAddress(uint256)":"318b1b80","deploy(((address,address,address,address,address,address),uint32,uint32,uint256,bytes,string,uint64,uint32,bytes32,uint256,uint256,uint64,uint64))":"613e827b","implementations()":"30e9012c","isRC()":"f179c48d","l1ContractsRelease()":"35cb2e9b","protocolVersions()":"6624856a","setRC(bool)":"6ccdfe11","superchainConfig()":"35e80ab3","superchainProxyAdmin()":"2b96b839","upgrade((address,address,bytes32)[])":"ff2dd5a1","upgradeController()":"87543ef6","version()":"54fd4d50"},"storageLayout":{"storage":[{"astId":77847,"contract":"src/L1/OPContractsManager.sol:OPContractsManager","label":"L1_CONTRACTS_RELEASE","offset":0,"slot":"0","type":"t_string_storage"},{"astId":77851,"contract":"src/L1/OPContractsManager.sol:OPContractsManager","label":"blueprint","offset":0,"slot":"1","type":"t_struct(Blueprints)77746_storage"},{"astId":77855,"contract":"src/L1/OPContractsManager.sol:OPContractsManager","label":"implementation","offset":0,"slot":"10","type":"t_struct(Implementations)77771_storage"},{"astId":77866,"contract":"src/L1/OPContractsManager.sol:OPContractsManager","label":"isRC","offset":0,"slot":"22","type":"t_bool"}],"types":{"t_address":{"encoding":"inplace","label":"address","numberOfBytes":"20"},"t_bool":{"encoding":"inplace","label":"bool","numberOfBytes":"1"},"t_string_storage":{"encoding":"bytes","label":"string","numberOfBytes":"32"},"t_struct(Blueprints)77746_storage":{"encoding":"inplace","label":"struct OPContractsManager.Blueprints","numberOfBytes":"288","members":[{"astId":77729,"contract":"src/L1/OPContractsManager.sol:OPContractsManager","label":"addressManager","offset":0,"slot":"0","type":"t_address"},{"astId":77731,"contract":"src/L1/OPContractsManager.sol:OPContractsManager","label":"proxy","offset":0,"slot":"1","type":"t_address"},{"astId":77733,"contract":"src/L1/OPContractsManager.sol:OPContractsManager","label":"proxyAdmin","offset":0,"slot":"2","type":"t_address"},{"astId":77735,"contract":"src/L1/OPContractsManager.sol:OPContractsManager","label":"l1ChugSplashProxy","offset":0,"slot":"3","type":"t_address"},{"astId":77737,"contract":"src/L1/OPContractsManager.sol:OPContractsManager","label":"resolvedDelegateProxy","offset":0,"slot":"4","type":"t_address"},{"astId":77739,"contract":"src/L1/OPContractsManager.sol:OPContractsManager","label":"permissionedDisputeGame1","offset":0,"slot":"5","type":"t_address"},{"astId":77741,"contract":"src/L1/OPContractsManager.sol:OPContractsManager","label":"permissionedDisputeGame2","offset":0,"slot":"6","type":"t_address"},{"astId":77743,"contract":"src/L1/OPContractsManager.sol:OPContractsManager","label":"permissionlessDisputeGame1","offset":0,"slot":"7","type":"t_address"},{"astId":77745,"contract":"src/L1/OPContractsManager.sol:OPContractsManager","label":"permissionlessDisputeGame2","offset":0,"slot":"8","type":"t_address"}]},"t_struct(Implementations)77771_storage":{"encoding":"inplace","label":"struct OPContractsManager.Implementations","numberOfBytes":"384","members":[{"astId":77748,"contract":"src/L1/OPContractsManager.sol:OPContractsManager","label":"superchainConfigImpl","offset":0,"slot":"0","type":"t_address"},{"astId":77750,"contract":"src/L1/OPContractsManager.sol:OPContractsManager","label":"protocolVersionsImpl","offset":0,"slot":"1","type":"t_address"},{"astId":77752,"contract":"src/L1/OPContractsManager.sol:OPContractsManager","label":"l1ERC721BridgeImpl","offset":0,"slot":"2","type":"t_address"},{"astId":77754,"contract":"src/L1/OPContractsManager.sol:OPContractsManager","label":"optimismPortalImpl","offset":0,"slot":"3","type":"t_address"},{"astId":77756,"contract":"src/L1/OPContractsManager.sol:OPContractsManager","label":"systemConfigImpl","offset":0,"slot":"4","type":"t_address"},{"astId":77758,"contract":"src/L1/OPContractsManager.sol:OPContractsManager","label":"optimismMintableERC20FactoryImpl","offset":0,"slot":"5","type":"t_address"},{"astId":77760,"contract":"src/L1/OPContractsManager.sol:OPContractsManager","label":"l1CrossDomainMessengerImpl","offset":0,"slot":"6","type":"t_address"},{"astId":77762,"contract":"src/L1/OPContractsManager.sol:OPContractsManager","label":"l1StandardBridgeImpl","offset":0,"slot":"7","type":"t_address"},{"astId":77764,"contract":"src/L1/OPContractsManager.sol:OPContractsManager","label":"disputeGameFactoryImpl","offset":0,"slot":"8","type":"t_address"},{"astId":77766,"contract":"src/L1/OPContractsManager.sol:OPContractsManager","label":"anchorStateRegistryImpl","offset":0,"slot":"9","type":"t_address"},{"astId":77768,"contract":"src/L1/OPContractsManager.sol:OPContractsManager","label":"delayedWETHImpl","offset":0,"slot":"10","type":"t_address"},{"astId":77770,"contract":"src/L1/OPContractsManager.sol:OPContractsManager","label":"mipsImpl","offset":0,"slot":"11","type":"t_address"}]}}},"userdoc":{"version":1,"kind":"user","methods":{"addGameType((string,address,address,address,uint32,bytes32,uint256,uint256,uint64,uint64,uint256,address,bool)[])":{"notice":"addGameType deploys a new dispute game and links it to the DisputeGameFactory. The inputted _gameConfigs must be added in ascending GameType order."},"blueprints()":{"notice":"Returns the blueprint contract addresses."},"chainIdToBatchInboxAddress(uint256)":{"notice":"Maps an L2 chain ID to an L1 batch inbox address as defined by the standard configuration's convention. This convention is `versionByte || keccak256(bytes32(chainId))[:19]`, where || denotes concatenation`, versionByte is 0x00, and chainId is a uint256. https://specs.optimism.io/protocol/configurability.html#consensus-parameters"},"implementations()":{"notice":"Returns the implementation contract addresses."},"isRC()":{"notice":"Whether this is a release candidate."},"l1ContractsRelease()":{"notice":"Returns the release string. Appends \"-rc\" if this is a release candidate."},"protocolVersions()":{"notice":"Address of the ProtocolVersions contract shared by all chains."},"setRC(bool)":{"notice":"Sets the RC flag."},"superchainConfig()":{"notice":"Address of the SuperchainConfig contract shared by all chains."},"superchainProxyAdmin()":{"notice":"Address of the SuperchainProxyAdmin contract shared by all chains."},"upgrade((address,address,bytes32)[])":{"notice":"Upgrades a set of chains to the latest implementation contracts"},"upgradeController()":{"notice":"The address of the upgrade controller."}},"events":{"Deployed(uint256,address,bytes)":{"notice":"Emitted when a new OP Stack chain is deployed."},"Upgraded(uint256,address,address)":{"notice":"Emitted when a chain is upgraded"}},"errors":{"AddressHasNoCode(address)":[{"notice":"Throw when a contract address has no code."}],"AddressNotFound(address)":[{"notice":"Thrown when an address is the zero address."}],"AlreadyReleased()":[{"notice":"Thrown when a release version is already set."}],"BytesArrayTooLong()":[{"notice":"Thrown when converting a bytes array to a uint256 and the bytes array is too long."}],"DeploymentFailed()":[{"notice":"Throw when contract deployment fails."}],"EmptyInitcode()":[{"notice":"Thrown when parsing a blueprint preamble and the resulting initcode is empty."}],"IdentityPrecompileCallFailed()":[{"notice":"Thrown when call to the identity precompile fails."}],"InvalidChainId()":[{"notice":"Thrown when an invalid `l2ChainId` is provided to `deploy`."}],"InvalidGameConfigs()":[{"notice":"Thrown when game configs passed to addGameType are invalid."}],"InvalidRoleAddress(string)":[{"notice":"Thrown when a role's address is not valid."}],"InvalidStartingAnchorRoot()":[{"notice":"Thrown when the starting anchor root is not provided."}],"LatestReleaseNotSet()":[{"notice":"Thrown when the latest release is not set upon initialization."}],"NotABlueprint()":[{"notice":"Thrown when parsing a blueprint preamble and the bytecode does not contain the expected prefix bytes."}],"OnlyDelegatecall()":[{"notice":"Thrown when certain methods are called outside of a DELEGATECALL."}],"OnlyUpgradeController()":[{"notice":"Thrown when an address other than the upgrade controller calls the setRC function."}],"PrestateNotSet()":[{"notice":"Thrown when a prestate is not set for a game."}],"ReservedBitsSet()":[{"notice":"Thrown when parsing a blueprint preamble and the reserved bits are set."}],"SuperchainConfigMismatch(address)":[{"notice":"Thrown when the SuperchainConfig of the chain does not match the SuperchainConfig of this OPCM."}],"SuperchainProxyAdminMismatch()":[{"notice":"Thrown when the SuperchainProxyAdmin does not match the SuperchainConfig's admin."}],"UnexpectedPreambleData(bytes)":[{"notice":"Thrown when parsing a blueprint preamble and the preamble data is not empty. We do not use the preamble data, so it's expected to be empty."}],"UnsupportedERCVersion(uint8)":[{"notice":"Thrown during deployment if the ERC version is not supported."}]}},"devdoc":{"version":1,"kind":"dev","methods":{"upgrade((address,address,bytes32)[])":{"details":"This function is intended to be called via DELEGATECALL from the Upgrade Controller Safe","params":{"_opChainConfigs":"Array of OpChain structs, one per chain to upgrade"}},"version()":{}},"events":{"Deployed(uint256,address,bytes)":{"params":{"deployOutput":"ABI-encoded output of the deployment.","deployer":"Address that deployed the chain.","l2ChainId":"Chain ID of the new chain."}},"Upgraded(uint256,address,address)":{"params":{"systemConfig":"Address of the chain's SystemConfig contract","upgrader":"Address that initiated the upgrade"}}}},"id":117}