{"abi":[{"type":"function","name":"disableModule","inputs":[{"name":"prevModule","type":"address","internalType":"address"},{"name":"module","type":"address","internalType":"address"}],"outputs":[],"stateMutability":"nonpayable"},{"type":"function","name":"enableModule","inputs":[{"name":"module","type":"address","internalType":"address"}],"outputs":[],"stateMutability":"nonpayable"},{"type":"function","name":"execTransactionFromModule","inputs":[{"name":"to","type":"address","internalType":"address"},{"name":"value","type":"uint256","internalType":"uint256"},{"name":"data","type":"bytes","internalType":"bytes"},{"name":"operation","type":"uint8","internalType":"enum Enum.Operation"}],"outputs":[{"name":"success","type":"bool","internalType":"bool"}],"stateMutability":"nonpayable"},{"type":"function","name":"execTransactionFromModuleReturnData","inputs":[{"name":"to","type":"address","internalType":"address"},{"name":"value","type":"uint256","internalType":"uint256"},{"name":"data","type":"bytes","internalType":"bytes"},{"name":"operation","type":"uint8","internalType":"enum Enum.Operation"}],"outputs":[{"name":"success","type":"bool","internalType":"bool"},{"name":"returnData","type":"bytes","internalType":"bytes"}],"stateMutability":"nonpayable"},{"type":"function","name":"getModulesPaginated","inputs":[{"name":"start","type":"address","internalType":"address"},{"name":"pageSize","type":"uint256","internalType":"uint256"}],"outputs":[{"name":"array","type":"address[]","internalType":"address[]"},{"name":"next","type":"address","internalType":"address"}],"stateMutability":"view"},{"type":"function","name":"isModuleEnabled","inputs":[{"name":"module","type":"address","internalType":"address"}],"outputs":[{"name":"","type":"bool","internalType":"bool"}],"stateMutability":"view"},{"type":"event","name":"DisabledModule","inputs":[{"name":"module","type":"address","indexed":false,"internalType":"address"}],"anonymous":false},{"type":"event","name":"EnabledModule","inputs":[{"name":"module","type":"address","indexed":false,"internalType":"address"}],"anonymous":false},{"type":"event","name":"ExecutionFromModuleFailure","inputs":[{"name":"module","type":"address","indexed":true,"internalType":"address"}],"anonymous":false},{"type":"event","name":"ExecutionFromModuleSuccess","inputs":[{"name":"module","type":"address","indexed":true,"internalType":"address"}],"anonymous":false}],"bytecode":{"object":"0x6080604052348015600e575f80fd5b50610bbe8061001c5f395ff3fe608060405234801561000f575f80fd5b506004361061006f575f3560e01c8063610b59251161004d578063610b5925146100cf578063cc2f8452146100e4578063e009cfde14610105575f80fd5b80632d9ad53d14610073578063468721a71461009b5780635229073f146100ae575b5f80fd5b61008661008136600461087f565b610118565b60405190151581526020015b60405180910390f35b6100866100a93660046108da565b61016b565b6100c16100bc3660046108da565b610282565b6040516100929291906109cd565b6100e26100dd36600461087f565b6102b6565b005b6100f76100f2366004610a29565b6104a4565b604051610092929190610a51565b6100e2610113366004610aca565b6105ce565b5f600173ffffffffffffffffffffffffffffffffffffffff831614801590610165575073ffffffffffffffffffffffffffffffffffffffff8281165f908152602081905260409020541615155b92915050565b5f336001148015906101a05750335f9081526020819052604090205473ffffffffffffffffffffffffffffffffffffffff1615155b61020b576040517f08c379a000000000000000000000000000000000000000000000000000000000815260206004820152600560248201527f475331303400000000000000000000000000000000000000000000000000000060448201526064015b60405180910390fd5b610218858585855a6107a8565b9050801561024f5760405133907f6895c13664aa4f67288b25d7a21d7aaa34916e355fb9b6fae0a139a9085becb8905f90a261027a565b60405133907facd2c8702804128fdb0db2bb49f6d127dd0181c13fd45dbfe16de0930e2bd375905f90a25b949350505050565b5f60606102918686868661016b565b915060405160203d0181016040523d81523d5f602083013e8091505094509492505050565b6102be6107ec565b73ffffffffffffffffffffffffffffffffffffffff8116158015906102fa575073ffffffffffffffffffffffffffffffffffffffff8116600114155b610360576040517f08c379a000000000000000000000000000000000000000000000000000000000815260206004820152600560248201527f47533130310000000000000000000000000000000000000000000000000000006044820152606401610202565b73ffffffffffffffffffffffffffffffffffffffff8181165f9081526020819052604090205416156103ee576040517f08c379a000000000000000000000000000000000000000000000000000000000815260206004820152600560248201527f47533130320000000000000000000000000000000000000000000000000000006044820152606401610202565b5f60208181527fada5013122d395ba3c54772283fb069b10426056ef8ca54750cb9bb552a59e7d805473ffffffffffffffffffffffffffffffffffffffff85811680865260408087208054939094167fffffffffffffffffffffffff00000000000000000000000000000000000000009384161790935560019095528254168417909155519182527fecdf3a3effea5783a3c4c2140e677577666428d44ed9d474a0b3a4c9943f8440910160405180910390a150565b60605f8267ffffffffffffffff8111156104c0576104c061089f565b6040519080825280602002602001820160405280156104e9578160200160208202803683370190505b5073ffffffffffffffffffffffffffffffffffffffff8086165f9081526020819052604081205492945091165b73ffffffffffffffffffffffffffffffffffffffff811615801590610552575073ffffffffffffffffffffffffffffffffffffffff8116600114155b801561055d57508482105b156105c0578084838151811061057557610575610afb565b73ffffffffffffffffffffffffffffffffffffffff9283166020918202929092018101919091529181165f9081529182905260409091205416816105b881610b28565b925050610516565b908352919491935090915050565b6105d66107ec565b73ffffffffffffffffffffffffffffffffffffffff811615801590610612575073ffffffffffffffffffffffffffffffffffffffff8116600114155b610678576040517f08c379a000000000000000000000000000000000000000000000000000000000815260206004820152600560248201527f47533130310000000000000000000000000000000000000000000000000000006044820152606401610202565b73ffffffffffffffffffffffffffffffffffffffff8281165f9081526020819052604090205481169082161461070a576040517f08c379a000000000000000000000000000000000000000000000000000000000815260206004820152600560248201527f47533130330000000000000000000000000000000000000000000000000000006044820152606401610202565b73ffffffffffffffffffffffffffffffffffffffff8181165f81815260208181526040808320805488871685528285208054919097167fffffffffffffffffffffffff00000000000000000000000000000000000000009182161790965592849052825490941690915591519081527faab4fa2b463f581b2b32cb3b7e3b704b9ce37cc209b5fb4d77e593ace4054276910160405180910390a15050565b5f60018360018111156107bd576107bd610b84565b036107d4575f808551602087018986f490506107e3565b5f80855160208701888a87f190505b95945050505050565b333014610855576040517f08c379a000000000000000000000000000000000000000000000000000000000815260206004820152600560248201527f47533033310000000000000000000000000000000000000000000000000000006044820152606401610202565b565b803573ffffffffffffffffffffffffffffffffffffffff8116811461087a575f80fd5b919050565b5f6020828403121561088f575f80fd5b61089882610857565b9392505050565b7f4e487b71000000000000000000000000000000000000000000000000000000005f52604160045260245ffd5b80356002811061087a575f80fd5b5f805f80608085870312156108ed575f80fd5b6108f685610857565b935060208501359250604085013567ffffffffffffffff80821115610919575f80fd5b818701915087601f83011261092c575f80fd5b81358181111561093e5761093e61089f565b604051601f82017fffffffffffffffffffffffffffffffffffffffffffffffffffffffffffffffe0908116603f011681019083821181831017156109845761098461089f565b816040528281528a602084870101111561099c575f80fd5b826020860160208301375f6020848301015280965050505050506109c2606086016108cc565b905092959194509250565b8215158152604060208201525f82518060408401528060208501606085015e5f6060828501015260607fffffffffffffffffffffffffffffffffffffffffffffffffffffffffffffffe0601f8301168401019150509392505050565b5f8060408385031215610a3a575f80fd5b610a4383610857565b946020939093013593505050565b604080825283519082018190525f906020906060840190828701845b82811015610a9f57815173ffffffffffffffffffffffffffffffffffffffff1684529284019290840190600101610a6d565b505050809250505073ffffffffffffffffffffffffffffffffffffffff831660208301529392505050565b5f8060408385031215610adb575f80fd5b610ae483610857565b9150610af260208401610857565b90509250929050565b7f4e487b71000000000000000000000000000000000000000000000000000000005f52603260045260245ffd5b5f7fffffffffffffffffffffffffffffffffffffffffffffffffffffffffffffffff8203610b7d577f4e487b71000000000000000000000000000000000000000000000000000000005f52601160045260245ffd5b5060010190565b7f4e487b71000000000000000000000000000000000000000000000000000000005f52602160045260245ffdfea164736f6c6343000819000a","linkReferences":{}},"methodIdentifiers":{"disableModule(address,address)":"e009cfde","enableModule(address)":"610b5925","execTransactionFromModule(address,uint256,bytes,uint8)":"468721a7","execTransactionFromModuleReturnData(address,uint256,bytes,uint8)":"5229073f","getModulesPaginated(address,uint256)":"cc2f8452","isModuleEnabled(address)":"2d9ad53d"},"storageLayout":{"storage":[{"astId":48812,"contract":"lib/safe-contracts/contracts/base/ModuleManager.sol:ModuleManager","label":"modules","offset":0,"slot":"0","type":"t_mapping(t_address,t_address)"}],"types":{"t_address":{"encoding":"inplace","label":"address","numberOfBytes":"20"},"t_mapping(t_address,t_address)":{"encoding":"mapping","key":"t_address","label":"mapping(address => address)","numberOfBytes":"32","value":"t_address"}}},"userdoc":{"version":1,"kind":"user","methods":{"disableModule(address,address)":{"notice":"Disables the module `module` for the Safe."},"enableModule(address)":{"notice":"Enables the module `module` for the Safe."}}},"devdoc":{"version":1,"kind":"dev","author":"Stefan George - <stefan@gnosis.pm>Richard Meissner - <richard@gnosis.pm>","methods":{"disableModule(address,address)":{"details":"Allows to remove a module from the whitelist.      This can only be done via a Safe transaction.","params":{"module":"Module to be removed.","prevModule":"Module that pointed to the module to be removed in the linked list"}},"enableModule(address)":{"details":"Allows to add a module to the whitelist.      This can only be done via a Safe transaction.","params":{"module":"Module to be whitelisted."}},"execTransactionFromModule(address,uint256,bytes,uint8)":{"details":"Allows a Module to execute a Safe transaction without any further confirmations.","params":{"data":"Data payload of module transaction.","operation":"Operation type of module transaction.","to":"Destination address of module transaction.","value":"Ether value of module transaction."}},"execTransactionFromModuleReturnData(address,uint256,bytes,uint8)":{"details":"Allows a Module to execute a Safe transaction without any further confirmations and return data","params":{"data":"Data payload of module transaction.","operation":"Operation type of module transaction.","to":"Destination address of module transaction.","value":"Ether value of module transaction."}},"getModulesPaginated(address,uint256)":{"details":"Returns array of modules.","params":{"pageSize":"Maximum number of modules that should be returned.","start":"Start of the page."},"returns":{"array":"Array of modules.","next":"Start of the next page."}},"isModuleEnabled(address)":{"details":"Returns if an module is enabled","returns":{"_0":"True if the module is enabled"}}},"title":"Module Manager - A contract that manages modules that can execute transactions via this contract"},"id":74}