{"abi":[{"type":"function","name":"burn","inputs":[],"outputs":[],"stateMutability":"payable"},{"type":"function","name":"mint","inputs":[{"name":"_amount","type":"uint256","internalType":"uint256"}],"outputs":[],"stateMutability":"nonpayable"},{"type":"function","name":"version","inputs":[],"outputs":[{"name":"","type":"string","internalType":"string"}],"stateMutability":"view"},{"type":"event","name":"LiquidityBurned","inputs":[{"name":"caller","type":"address","indexed":true,"internalType":"address"},{"name":"value","type":"uint256","indexed":false,"internalType":"uint256"}],"anonymous":false},{"type":"event","name":"LiquidityMinted","inputs":[{"name":"caller","type":"address","indexed":true,"internalType":"address"},{"name":"value","type":"uint256","indexed":false,"internalType":"uint256"}],"anonymous":false},{"type":"error","name":"Unauthorized","inputs":[]}],"bytecode":{"object":"0x608060405234801561001057600080fd5b50610313806100206000396000f3fe6080604052600436106100345760003560e01c806344df8e701461003957806354fd4d5014610043578063a0712d68146100a2575b600080fd5b6100416100c2565b005b34801561004f57600080fd5b5061008c6040518060400160405280600c81526020017f312e302e302d626574612e36000000000000000000000000000000000000000081525081565b6040516100999190610221565b60405180910390f35b3480156100ae57600080fd5b506100416100bd366004610294565b610146565b337342000000000000000000000000000000000000241461010f576040517f82b4290000000000000000000000000000000000000000000000000000000000815260040160405180910390fd5b60405134815233907f875e07afd7ce17c6531b1a6b7b34829dcd8b7e6639448afbd6a8e29fa1422b829060200160405180910390a2565b3373420000000000000000000000000000000000002414610193576040517f82b4290000000000000000000000000000000000000000000000000000000000815260040160405180910390fd5b80336040516101a190610215565b73ffffffffffffffffffffffffffffffffffffffff90911681526020016040518091039082f09050801580156101db573d6000803e3d6000fd5b505060405181815233907f85719716ac5bd2744ae7ed3d16702129383049b97123b506320e7a5826ebbbba9060200160405180910390a250565b6059806102ae83390190565b600060208083528351808285015260005b8181101561024e57858101830151858201604001528201610232565b81811115610260576000604083870101525b50601f017fffffffffffffffffffffffffffffffffffffffffffffffffffffffffffffffe016929092016040019392505050565b6000602082840312156102a657600080fd5b503591905056fe608060405260405160593803806059833981016040819052601e91602a565b806001600160a01b0316ff5b600060208284031215603b57600080fd5b81516001600160a01b0381168114605157600080fd5b939250505056fea164736f6c634300080f000a","linkReferences":{}},"methodIdentifiers":{"burn()":"44df8e70","mint(uint256)":"a0712d68","version()":"54fd4d50"},"storageLayout":{"storage":[],"types":{}},"userdoc":{"version":1,"kind":"user","methods":{"burn()":{"notice":"Allows an address to lock ETH liquidity into this contract."},"mint(uint256)":{"notice":"Allows an address to unlock ETH liquidity from this contract."},"version()":{"notice":"Semantic version."}},"events":{"LiquidityBurned(address,uint256)":{"notice":"Emitted when an address burns ETH liquidity."},"LiquidityMinted(address,uint256)":{"notice":"Emitted when an address mints ETH liquidity."}},"errors":{"Unauthorized()":[{"notice":"Error for an unauthorized CALLER."}]},"notice":"The ETHLiquidity contract allows other contracts to access ETH liquidity without         needing to modify the EVM to generate new ETH."},"devdoc":{"version":1,"kind":"dev","methods":{"mint(uint256)":{"params":{"_amount":"The amount of liquidity to unlock."}}},"title":"ETHLiquidity"},"id":217}