{"abi":[{"type":"constructor","inputs":[{"name":"_proofMaturityDelaySeconds","type":"uint256","internalType":"uint256"},{"name":"_disputeGameFinalityDelaySeconds","type":"uint256","internalType":"uint256"}],"stateMutability":"nonpayable"},{"type":"receive","stateMutability":"payable"},{"type":"function","name":"blacklistDisputeGame","inputs":[{"name":"_disputeGame","type":"address","internalType":"contract IDisputeGame"}],"outputs":[],"stateMutability":"nonpayable"},{"type":"function","name":"checkWithdrawal","inputs":[{"name":"_withdrawalHash","type":"bytes32","internalType":"bytes32"},{"name":"_proofSubmitter","type":"address","internalType":"address"}],"outputs":[],"stateMutability":"view"},{"type":"function","name":"depositTransaction","inputs":[{"name":"_to","type":"address","internalType":"address"},{"name":"_value","type":"uint256","internalType":"uint256"},{"name":"_gasLimit","type":"uint64","internalType":"uint64"},{"name":"_isCreation","type":"bool","internalType":"bool"},{"name":"_data","type":"bytes","internalType":"bytes"}],"outputs":[],"stateMutability":"payable"},{"type":"function","name":"disputeGameBlacklist","inputs":[{"name":"","type":"address","internalType":"contract IDisputeGame"}],"outputs":[{"name":"","type":"bool","internalType":"bool"}],"stateMutability":"view"},{"type":"function","name":"disputeGameFactory","inputs":[],"outputs":[{"name":"","type":"address","internalType":"contract IDisputeGameFactory"}],"stateMutability":"view"},{"type":"function","name":"disputeGameFinalityDelaySeconds","inputs":[],"outputs":[{"name":"","type":"uint256","internalType":"uint256"}],"stateMutability":"view"},{"type":"function","name":"donateETH","inputs":[],"outputs":[],"stateMutability":"payable"},{"type":"function","name":"finalizeWithdrawalTransaction","inputs":[{"name":"_tx","type":"tuple","internalType":"struct Types.WithdrawalTransaction","components":[{"name":"nonce","type":"uint256","internalType":"uint256"},{"name":"sender","type":"address","internalType":"address"},{"name":"target","type":"address","internalType":"address"},{"name":"value","type":"uint256","internalType":"uint256"},{"name":"gasLimit","type":"uint256","internalType":"uint256"},{"name":"data","type":"bytes","internalType":"bytes"}]}],"outputs":[],"stateMutability":"nonpayable"},{"type":"function","name":"finalizeWithdrawalTransactionExternalProof","inputs":[{"name":"_tx","type":"tuple","internalType":"struct Types.WithdrawalTransaction","components":[{"name":"nonce","type":"uint256","internalType":"uint256"},{"name":"sender","type":"address","internalType":"address"},{"name":"target","type":"address","internalType":"address"},{"name":"value","type":"uint256","internalType":"uint256"},{"name":"gasLimit","type":"uint256","internalType":"uint256"},{"name":"data","type":"bytes","internalType":"bytes"}]},{"name":"_proofSubmitter","type":"address","internalType":"address"}],"outputs":[],"stateMutability":"nonpayable"},{"type":"function","name":"finalizedWithdrawals","inputs":[{"name":"","type":"bytes32","internalType":"bytes32"}],"outputs":[{"name":"","type":"bool","internalType":"bool"}],"stateMutability":"view"},{"type":"function","name":"guardian","inputs":[],"outputs":[{"name":"","type":"address","internalType":"address"}],"stateMutability":"view"},{"type":"function","name":"initialize","inputs":[{"name":"_disputeGameFactory","type":"address","internalType":"contract IDisputeGameFactory"},{"name":"_systemConfig","type":"address","internalType":"contract ISystemConfig"},{"name":"_superchainConfig","type":"address","internalType":"contract ISuperchainConfig"},{"name":"_initialRespectedGameType","type":"uint32","internalType":"GameType"}],"outputs":[],"stateMutability":"nonpayable"},{"type":"function","name":"l2Sender","inputs":[],"outputs":[{"name":"","type":"address","internalType":"address"}],"stateMutability":"view"},{"type":"function","name":"minimumGasLimit","inputs":[{"name":"_byteCount","type":"uint64","internalType":"uint64"}],"outputs":[{"name":"","type":"uint64","internalType":"uint64"}],"stateMutability":"pure"},{"type":"function","name":"numProofSubmitters","inputs":[{"name":"_withdrawalHash","type":"bytes32","internalType":"bytes32"}],"outputs":[{"name":"","type":"uint256","internalType":"uint256"}],"stateMutability":"view"},{"type":"function","name":"params","inputs":[],"outputs":[{"name":"prevBaseFee","type":"uint128","internalType":"uint128"},{"name":"prevBoughtGas","type":"uint64","internalType":"uint64"},{"name":"prevBlockNum","type":"uint64","internalType":"uint64"}],"stateMutability":"view"},{"type":"function","name":"paused","inputs":[],"outputs":[{"name":"","type":"bool","internalType":"bool"}],"stateMutability":"view"},{"type":"function","name":"proofMaturityDelaySeconds","inputs":[],"outputs":[{"name":"","type":"uint256","internalType":"uint256"}],"stateMutability":"view"},{"type":"function","name":"proofSubmitters","inputs":[{"name":"","type":"bytes32","internalType":"bytes32"},{"name":"","type":"uint256","internalType":"uint256"}],"outputs":[{"name":"","type":"address","internalType":"address"}],"stateMutability":"view"},{"type":"function","name":"proveWithdrawalTransaction","inputs":[{"name":"_tx","type":"tuple","internalType":"struct Types.WithdrawalTransaction","components":[{"name":"nonce","type":"uint256","internalType":"uint256"},{"name":"sender","type":"address","internalType":"address"},{"name":"target","type":"address","internalType":"address"},{"name":"value","type":"uint256","internalType":"uint256"},{"name":"gasLimit","type":"uint256","internalType":"uint256"},{"name":"data","type":"bytes","internalType":"bytes"}]},{"name":"_disputeGameIndex","type":"uint256","internalType":"uint256"},{"name":"_outputRootProof","type":"tuple","internalType":"struct Types.OutputRootProof","components":[{"name":"version","type":"bytes32","internalType":"bytes32"},{"name":"stateRoot","type":"bytes32","internalType":"bytes32"},{"name":"messagePasserStorageRoot","type":"bytes32","internalType":"bytes32"},{"name":"latestBlockhash","type":"bytes32","internalType":"bytes32"}]},{"name":"_withdrawalProof","type":"bytes[]","internalType":"bytes[]"}],"outputs":[],"stateMutability":"nonpayable"},{"type":"function","name":"provenWithdrawals","inputs":[{"name":"","type":"bytes32","internalType":"bytes32"},{"name":"","type":"address","internalType":"address"}],"outputs":[{"name":"disputeGameProxy","type":"address","internalType":"contract IDisputeGame"},{"name":"timestamp","type":"uint64","internalType":"uint64"}],"stateMutability":"view"},{"type":"function","name":"respectedGameType","inputs":[],"outputs":[{"name":"","type":"uint32","internalType":"GameType"}],"stateMutability":"view"},{"type":"function","name":"respectedGameTypeUpdatedAt","inputs":[],"outputs":[{"name":"","type":"uint64","internalType":"uint64"}],"stateMutability":"view"},{"type":"function","name":"setRespectedGameType","inputs":[{"name":"_gameType","type":"uint32","internalType":"GameType"}],"outputs":[],"stateMutability":"nonpayable"},{"type":"function","name":"superchainConfig","inputs":[],"outputs":[{"name":"","type":"address","internalType":"contract ISuperchainConfig"}],"stateMutability":"view"},{"type":"function","name":"systemConfig","inputs":[],"outputs":[{"name":"","type":"address","internalType":"contract ISystemConfig"}],"stateMutability":"view"},{"type":"function","name":"version","inputs":[],"outputs":[{"name":"","type":"string","internalType":"string"}],"stateMutability":"pure"},{"type":"event","name":"DisputeGameBlacklisted","inputs":[{"name":"disputeGame","type":"address","indexed":true,"internalType":"contract IDisputeGame"}],"anonymous":false},{"type":"event","name":"Initialized","inputs":[{"name":"version","type":"uint8","indexed":false,"internalType":"uint8"}],"anonymous":false},{"type":"event","name":"RespectedGameTypeSet","inputs":[{"name":"newGameType","type":"uint32","indexed":true,"internalType":"GameType"},{"name":"updatedAt","type":"uint64","indexed":true,"internalType":"Timestamp"}],"anonymous":false},{"type":"event","name":"TransactionDeposited","inputs":[{"name":"from","type":"address","indexed":true,"internalType":"address"},{"name":"to","type":"address","indexed":true,"internalType":"address"},{"name":"version","type":"uint256","indexed":true,"internalType":"uint256"},{"name":"opaqueData","type":"bytes","indexed":false,"internalType":"bytes"}],"anonymous":false},{"type":"event","name":"WithdrawalFinalized","inputs":[{"name":"withdrawalHash","type":"bytes32","indexed":true,"internalType":"bytes32"},{"name":"success","type":"bool","indexed":false,"internalType":"bool"}],"anonymous":false},{"type":"event","name":"WithdrawalProven","inputs":[{"name":"withdrawalHash","type":"bytes32","indexed":true,"internalType":"bytes32"},{"name":"from","type":"address","indexed":true,"internalType":"address"},{"name":"to","type":"address","indexed":true,"internalType":"address"}],"anonymous":false},{"type":"event","name":"WithdrawalProvenExtension1","inputs":[{"name":"withdrawalHash","type":"bytes32","indexed":true,"internalType":"bytes32"},{"name":"proofSubmitter","type":"address","indexed":true,"internalType":"address"}],"anonymous":false},{"type":"error","name":"AlreadyFinalized","inputs":[]},{"type":"error","name":"BadTarget","inputs":[]},{"type":"error","name":"Blacklisted","inputs":[]},{"type":"error","name":"CallPaused","inputs":[]},{"type":"error","name":"ContentLengthMismatch","inputs":[]},{"type":"error","name":"EmptyItem","inputs":[]},{"type":"error","name":"GasEstimation","inputs":[]},{"type":"error","name":"InvalidDataRemainder","inputs":[]},{"type":"error","name":"InvalidDisputeGame","inputs":[]},{"type":"error","name":"InvalidGameType","inputs":[]},{"type":"error","name":"InvalidHeader","inputs":[]},{"type":"error","name":"InvalidMerkleProof","inputs":[]},{"type":"error","name":"InvalidProof","inputs":[]},{"type":"error","name":"LargeCalldata","inputs":[]},{"type":"error","name":"LegacyGame","inputs":[]},{"type":"error","name":"NonReentrant","inputs":[]},{"type":"error","name":"OutOfGas","inputs":[]},{"type":"error","name":"ProposalNotValidated","inputs":[]},{"type":"error","name":"SmallGasLimit","inputs":[]},{"type":"error","name":"Unauthorized","inputs":[]},{"type":"error","name":"UnexpectedList","inputs":[]},{"type":"error","name":"UnexpectedString","inputs":[]},{"type":"error","name":"Unproven","inputs":[]}],"bytecode":{"object":"0x60c06040523480156200001157600080fd5b506040516200526338038062005263833981016040819052620000349162000112565b608082905260a08190526200004862000050565b505062000137565b600054610100900460ff1615620000bd5760405162461bcd60e51b815260206004820152602760248201527f496e697469616c697a61626c653a20636f6e747261637420697320696e697469604482015266616c697a696e6760c81b606482015260840160405180910390fd5b60005460ff908116101562000110576000805460ff191660ff9081179091556040519081527f7f26b83ff96e1f2b6a682f133852f6798a09c465da95921460cefb38474024989060200160405180910390a15b565b600080604083850312156200012657600080fd5b505080516020909101519092909150565b60805160a0516150f86200016b600039600081816104b9015261193601526000818161063001526115f501526150f86000f3fe6080604052600436106101b05760003560e01c80637fc48504116100ec578063a35d99df1161008a578063bf653a5c11610064578063bf653a5c14610621578063cff0ab9614610654578063e9e05c42146106f5578063f2b4e6171461070857600080fd5b8063a35d99df1461053a578063a3860f481461055a578063bb2c727e1461057a57600080fd5b80638e819e54116100c65780638e819e541461048a578063952b2797146104aa5780639bf62d82146104dd578063a14238e71461050a57600080fd5b80637fc485041461044a5780638b4c40b0146101d55780638c3152e91461046a57600080fd5b80634870496f1161015957806354fd4d501161013357806354fd4d50146103a95780635c975abb146103f557806371c1566e1461040a5780637d6be8dc1461042a57600080fd5b80634870496f1461030c5780634fd0434c1461032c578063513747ab1461036e57600080fd5b806343ca1c501161018a57806343ca1c5014610297578063452a9320146102b757806345884d32146102cc57600080fd5b806333d7e2bd146101dc57806335e80ab3146102335780633c9f397c1461026557600080fd5b366101d7576101d53334620186a0600060405180602001604052806000815250610735565b005b600080fd5b3480156101e857600080fd5b506037546102099073ffffffffffffffffffffffffffffffffffffffff1681565b60405173ffffffffffffffffffffffffffffffffffffffff90911681526020015b60405180910390f35b34801561023f57600080fd5b5060355461020990610100900473ffffffffffffffffffffffffffffffffffffffff1681565b34801561027157600080fd5b50603b546102829063ffffffff1681565b60405163ffffffff909116815260200161022a565b3480156102a357600080fd5b506101d56102b23660046145b8565b6108f2565b3480156102c357600080fd5b50610209610af5565b3480156102d857600080fd5b506102fc6102e736600461460a565b603a6020526000908152604090205460ff1681565b604051901515815260200161022a565b34801561031857600080fd5b506101d5610327366004614627565b610b8d565b34801561033857600080fd5b50603b5461035590640100000000900467ffffffffffffffff1681565b60405167ffffffffffffffff909116815260200161022a565b34801561037a57600080fd5b5061039b610389366004614703565b6000908152603c602052604090205490565b60405190815260200161022a565b3480156103b557600080fd5b50604080518082018252600681527f332e31322e3000000000000000000000000000000000000000000000000000006020820152905161022a9190614792565b34801561040157600080fd5b506102fc61134a565b34801561041657600080fd5b506101d56104253660046147a5565b6113dd565b34801561043657600080fd5b506101d561044536600461460a565b611a94565b34801561045657600080fd5b506101d56104653660046147dc565b611b77565b34801561047657600080fd5b506101d56104853660046147f9565b611ccc565b34801561049657600080fd5b506101d56104a5366004614836565b611d18565b3480156104b657600080fd5b507f000000000000000000000000000000000000000000000000000000000000000061039b565b3480156104e957600080fd5b506032546102099073ffffffffffffffffffffffffffffffffffffffff1681565b34801561051657600080fd5b506102fc610525366004614703565b60336020526000908152604090205460ff1681565b34801561054657600080fd5b506103556105553660046148a8565b611fcd565b34801561056657600080fd5b506102096105753660046148c5565b611fec565b34801561058657600080fd5b506105ec6105953660046147a5565b603960209081526000928352604080842090915290825290205473ffffffffffffffffffffffffffffffffffffffff81169074010000000000000000000000000000000000000000900467ffffffffffffffff1682565b6040805173ffffffffffffffffffffffffffffffffffffffff909316835267ffffffffffffffff90911660208301520161022a565b34801561062d57600080fd5b507f000000000000000000000000000000000000000000000000000000000000000061039b565b34801561066057600080fd5b506001546106bc906fffffffffffffffffffffffffffffffff81169067ffffffffffffffff7001000000000000000000000000000000008204811691780100000000000000000000000000000000000000000000000090041683565b604080516fffffffffffffffffffffffffffffffff909416845267ffffffffffffffff928316602085015291169082015260600161022a565b6101d56107033660046148f5565b610735565b34801561071457600080fd5b506038546102099073ffffffffffffffffffffffffffffffffffffffff1681565b8260005a905083801561075d575073ffffffffffffffffffffffffffffffffffffffff871615155b15610794576040517f13496fda00000000000000000000000000000000000000000000000000000000815260040160405180910390fd5b61079e8351611fcd565b67ffffffffffffffff168567ffffffffffffffff1610156107eb576040517f4929b80800000000000000000000000000000000000000000000000000000000815260040160405180910390fd5b6201d4c083511115610829576040517f73052b0f00000000000000000000000000000000000000000000000000000000815260040160405180910390fd5b3332811461084a575033731111000000000000000000000000000000001111015b60003488888888604051602001610865959493929190614974565b604051602081830303815290604052905060008973ffffffffffffffffffffffffffffffffffffffff168373ffffffffffffffffffffffffffffffffffffffff167fb3813568d9991fc951961fcb4c784893574240a28925604d09fc577c55bb7c32846040516108d59190614792565b60405180910390a450506108e98282612031565b50505050505050565b6108fa61134a565b15610931576040517ff480973e00000000000000000000000000000000000000000000000000000000815260040160405180910390fd5b60325473ffffffffffffffffffffffffffffffffffffffff1661dead14610984576040517f9396d15600000000000000000000000000000000000000000000000000000000815260040160405180910390fd5b600061098f83612308565b905061099b81836113dd565b600081815260336020908152604080832080547fffffffffffffffffffffffffffffffffffffffffffffffffffffffffffffff00166001179055908501516032805473ffffffffffffffffffffffffffffffffffffffff9092167fffffffffffffffffffffffff00000000000000000000000000000000000000009092169190911790558401516080850151606086015160a0870151610a3d93929190612355565b603280547fffffffffffffffffffffffff00000000000000000000000000000000000000001661dead17905560405190915082907fdb5c7652857aa163daadd670e116628fb42e869d8ac4251ef8971d9e5727df1b90610aa290841515815260200190565b60405180910390a280158015610ab85750326001145b15610aef576040517feeae4ed300000000000000000000000000000000000000000000000000000000815260040160405180910390fd5b50505050565b6000603560019054906101000a900473ffffffffffffffffffffffffffffffffffffffff1673ffffffffffffffffffffffffffffffffffffffff1663452a93206040518163ffffffff1660e01b8152600401602060405180830381865afa158015610b64573d6000803e3d6000fd5b505050506040513d601f19601f82011682018060405250810190610b8891906149d9565b905090565b610b9561134a565b15610bcc576040517ff480973e00000000000000000000000000000000000000000000000000000000815260040160405180910390fd5b3073ffffffffffffffffffffffffffffffffffffffff16856040015173ffffffffffffffffffffffffffffffffffffffff1603610c35576040517f13496fda00000000000000000000000000000000000000000000000000000000815260040160405180910390fd5b6038546040517fbb8aa1fc00000000000000000000000000000000000000000000000000000000815260048101869052600091829173ffffffffffffffffffffffffffffffffffffffff9091169063bb8aa1fc90602401606060405180830381865afa158015610ca9573d6000803e3d6000fd5b505050506040513d601f19601f82011682018060405250810190610ccd91906149f6565b925050915060008173ffffffffffffffffffffffffffffffffffffffff1663bcef3b556040518163ffffffff1660e01b8152600401602060405180830381865afa158015610d1f573d6000803e3d6000fd5b505050506040513d601f19601f82011682018060405250810190610d439190614a43565b603b5490915063ffffffff848116911614610d8a576040517f27a10cc200000000000000000000000000000000000000000000000000000000815260040160405180910390fd5b8173ffffffffffffffffffffffffffffffffffffffff1663250e69bd6040518163ffffffff1660e01b8152600401602060405180830381865afa925050508015610e0f575060408051601f3d9081017fffffffffffffffffffffffffffffffffffffffffffffffffffffffffffffffe0168201909252610e0c91810190614a5c565b60015b610e45576040517fd502c9a600000000000000000000000000000000000000000000000000000000815260040160405180910390fd5b80610e7c576040517f27a10cc200000000000000000000000000000000000000000000000000000000815260040160405180910390fd5b50603b60049054906101000a900467ffffffffffffffff1667ffffffffffffffff16610f1d8373ffffffffffffffffffffffffffffffffffffffff1663cf09e0d06040518163ffffffff1660e01b8152600401602060405180830381865afa158015610eec573d6000803e3d6000fd5b505050506040513d601f19601f82011682018060405250810190610f109190614a79565b67ffffffffffffffff1690565b67ffffffffffffffff1611610fdf576040517f08c379a000000000000000000000000000000000000000000000000000000000815260206004820152604b60248201527f4f7074696d69736d506f7274616c3a20646973707574652067616d652063726560448201527f61746564206265666f7265207265737065637465642067616d6520747970652060648201527f7761732075706461746564000000000000000000000000000000000000000000608482015260a4015b60405180910390fd5b610ff6610ff136889003880188614a96565b6123b3565b811461102e576040517f09bde33900000000000000000000000000000000000000000000000000000000815260040160405180910390fd5b600061103989612308565b905060018373ffffffffffffffffffffffffffffffffffffffff1663200d2ed26040518163ffffffff1660e01b8152600401602060405180830381865afa158015611088573d6000803e3d6000fd5b505050506040513d601f19601f820116820180604052508101906110ac9190614b2b565b60028111156110bd576110bd614afc565b036110f4576040517fd357347400000000000000000000000000000000000000000000000000000000815260040160405180910390fd5b60408051602081018390526000918101829052606001604080517fffffffffffffffffffffffffffffffffffffffffffffffffffffffffffffffe0818403018152828252805160209182012090830181905292506111bd9101604080517fffffffffffffffffffffffffffffffffffffffffffffffffffffffffffffffe0818403018152828201909152600182527f01000000000000000000000000000000000000000000000000000000000000006020830152906111b3898b614b4c565b8b604001356123f2565b15156000036111f8576040517fb05e92fa00000000000000000000000000000000000000000000000000000000815260040160405180910390fd5b60408051808201825273ffffffffffffffffffffffffffffffffffffffff808716825267ffffffffffffffff4281166020808501918252600088815260398252868120338252825286812095518654935190941674010000000000000000000000000000000000000000027fffffffff0000000000000000000000000000000000000000000000000000000090931693851693909317919091179093558d840151928e01519351928216939091169185917f67a6208cfcc0801d50f6cbe764733f4fddf66ac0b04442061a8a8c0cb6b63f6291a4604051339083907f798f9f13695f8f045aa5f80ed8efebb695f3c7fe65da381969f2f28bf3c60b9790600090a3506000908152603c602090815260408220805460018101825590835291200180547fffffffffffffffffffffffff000000000000000000000000000000000000000016331790555050505050505050565b6000603560019054906101000a900473ffffffffffffffffffffffffffffffffffffffff1673ffffffffffffffffffffffffffffffffffffffff16635c975abb6040518163ffffffff1660e01b8152600401602060405180830381865afa1580156113b9573d6000803e3d6000fd5b505050506040513d601f19601f82011682018060405250810190610b889190614a5c565b600082815260396020908152604080832073ffffffffffffffffffffffffffffffffffffffff85811685529083528184208251808401845290549182168082527401000000000000000000000000000000000000000090920467ffffffffffffffff1681850152818552603a90935292205490919060ff161561148c576040517f09550c7700000000000000000000000000000000000000000000000000000000815260040160405180910390fd5b816020015167ffffffffffffffff166000036114d4576040517f94efd49b00000000000000000000000000000000000000000000000000000000815260040160405180910390fd5b60006115248273ffffffffffffffffffffffffffffffffffffffff1663cf09e0d06040518163ffffffff1660e01b8152600401602060405180830381865afa158015610eec573d6000803e3d6000fd5b90508067ffffffffffffffff16836020015167ffffffffffffffff16116115f3576040517f08c379a000000000000000000000000000000000000000000000000000000000815260206004820152604e60248201527f4f7074696d69736d506f7274616c3a207769746864726177616c2074696d657360448201527f74616d70206c657373207468616e20646973707574652067616d65206372656160648201527f74696f6e2074696d657374616d70000000000000000000000000000000000000608482015260a401610fd6565b7f0000000000000000000000000000000000000000000000000000000000000000836020015167ffffffffffffffff164261162e9190614bff565b116116bb576040517f08c379a000000000000000000000000000000000000000000000000000000000815260206004820152603560248201527f4f7074696d69736d506f7274616c3a2070726f76656e2077697468647261776160448201527f6c20686173206e6f74206d6174757265642079657400000000000000000000006064820152608401610fd6565b60028273ffffffffffffffffffffffffffffffffffffffff1663200d2ed26040518163ffffffff1660e01b8152600401602060405180830381865afa158015611708573d6000803e3d6000fd5b505050506040513d601f19601f8201168201806040525081019061172c9190614b2b565b600281111561173d5761173d614afc565b14611774576040517fa080a3c400000000000000000000000000000000000000000000000000000000815260040160405180910390fd5b8173ffffffffffffffffffffffffffffffffffffffff1663250e69bd6040518163ffffffff1660e01b8152600401602060405180830381865afa9250505080156117f9575060408051601f3d9081017fffffffffffffffffffffffffffffffffffffffffffffffffffffffffffffffe01682019092526117f691810190614a5c565b60015b61182f576040517fd502c9a600000000000000000000000000000000000000000000000000000000815260040160405180910390fd5b80611866576040517f27a10cc200000000000000000000000000000000000000000000000000000000815260040160405180910390fd5b50603b5467ffffffffffffffff640100000000909104811690821611611934576040517f08c379a000000000000000000000000000000000000000000000000000000000815260206004820152604b60248201527f4f7074696d69736d506f7274616c3a20646973707574652067616d652063726560448201527f61746564206265666f7265207265737065637465642067616d6520747970652060648201527f7761732075706461746564000000000000000000000000000000000000000000608482015260a401610fd6565b7f00000000000000000000000000000000000000000000000000000000000000006119a38373ffffffffffffffffffffffffffffffffffffffff166319effeb46040518163ffffffff1660e01b8152600401602060405180830381865afa158015610eec573d6000803e3d6000fd5b6119b79067ffffffffffffffff1642614bff565b11611a44576040517f08c379a000000000000000000000000000000000000000000000000000000000815260206004820152602a60248201527f4f7074696d69736d506f7274616c3a206f75747075742070726f706f73616c2060448201527f696e206169722d676170000000000000000000000000000000000000000000006064820152608401610fd6565b60008581526033602052604090205460ff1615611a8d576040517f475a253500000000000000000000000000000000000000000000000000000000815260040160405180910390fd5b5050505050565b611a9c610af5565b73ffffffffffffffffffffffffffffffffffffffff163373ffffffffffffffffffffffffffffffffffffffff1614611b00576040517f82b4290000000000000000000000000000000000000000000000000000000000815260040160405180910390fd5b73ffffffffffffffffffffffffffffffffffffffff81166000818152603a602052604080822080547fffffffffffffffffffffffffffffffffffffffffffffffffffffffffffffff00166001179055517f192c289026d59a41a27f5aea08f3969b57931b0589202d14f4368cded95d3cda9190a250565b611b7f610af5565b73ffffffffffffffffffffffffffffffffffffffff163373ffffffffffffffffffffffffffffffffffffffff1614611be3576040517f82b4290000000000000000000000000000000000000000000000000000000000815260040160405180910390fd5b7fffffffffffffffffffffffffffffffffffffffffffffffffffffffff0000000163ffffffff821601611c5057603b80547fffffffffffffffffffffffffffffffffffffffff0000000000000000ffffffff166401000000004267ffffffffffffffff1602179055611c81565b603b80547fffffffffffffffffffffffffffffffffffffffffffffffffffffffff000000001663ffffffff83161790555b603b5460405167ffffffffffffffff6401000000008304169163ffffffff16907f049fe9dd413cdf037cce27011cc1790c753118272f3630e6e8bdfa5e8208176090600090a350565b565b611cd461134a565b15611d0b576040517ff480973e00000000000000000000000000000000000000000000000000000000815260040160405180910390fd5b611d1581336108f2565b50565b600054610100900460ff1615808015611d385750600054600160ff909116105b80611d525750303b158015611d52575060005460ff166001145b611dde576040517f08c379a000000000000000000000000000000000000000000000000000000000815260206004820152602e60248201527f496e697469616c697a61626c653a20636f6e747261637420697320616c72656160448201527f647920696e697469616c697a65640000000000000000000000000000000000006064820152608401610fd6565b600080547fffffffffffffffffffffffffffffffffffffffffffffffffffffffffffffff001660011790558015611e3c57600080547fffffffffffffffffffffffffffffffffffffffffffffffffffffffffffff00ff166101001790555b603880547fffffffffffffffffffffffff000000000000000000000000000000000000000090811673ffffffffffffffffffffffffffffffffffffffff8881169190911790925560378054909116868316179055603580547fffffffffffffffffffffff0000000000000000000000000000000000000000ff166101008684160217905560325416611f5c576032805461dead7fffffffffffffffffffffffff0000000000000000000000000000000000000000909116179055603b80547fffffffffffffffffffffffffffffffffffffffff000000000000000000000000166401000000004267ffffffffffffffff16027fffffffffffffffffffffffffffffffffffffffffffffffffffffffff00000000161763ffffffff84161790555b611f64612416565b8015611a8d57600080547fffffffffffffffffffffffffffffffffffffffffffffffffffffffffffff00ff169055604051600181527f7f26b83ff96e1f2b6a682f133852f6798a09c465da95921460cefb38474024989060200160405180910390a15050505050565b6000611fda826010614c16565b611fe690615208614c46565b92915050565b603c602052816000526040600020818154811061200857600080fd5b60009182526020909120015473ffffffffffffffffffffffffffffffffffffffff169150829050565b600154600090612067907801000000000000000000000000000000000000000000000000900467ffffffffffffffff1643614bff565b90506000612073612529565b90506000816020015160ff16826000015163ffffffff166120949190614ca1565b905082156121cb576001546000906120cb908390700100000000000000000000000000000000900467ffffffffffffffff16614d09565b90506000836040015160ff16836120e29190614d7d565b6001546121029084906fffffffffffffffffffffffffffffffff16614d7d565b61210c9190614ca1565b60015490915060009061215d906121369084906fffffffffffffffffffffffffffffffff16614e39565b866060015163ffffffff168760a001516fffffffffffffffffffffffffffffffff166125ef565b9050600186111561218c5761218961213682876040015160ff1660018a6121849190614bff565b61260e565b90505b6fffffffffffffffffffffffffffffffff16780100000000000000000000000000000000000000000000000067ffffffffffffffff4316021760015550505b600180548691906010906121fe908490700100000000000000000000000000000000900467ffffffffffffffff16614c46565b92506101000a81548167ffffffffffffffff021916908367ffffffffffffffff160217905550816000015163ffffffff16600160000160109054906101000a900467ffffffffffffffff1667ffffffffffffffff16131561228b576040517f77ebef4d00000000000000000000000000000000000000000000000000000000815260040160405180910390fd5b6001546000906122b7906fffffffffffffffffffffffffffffffff1667ffffffffffffffff8816614ead565b905060006122c948633b9aca00612663565b6122d39083614eea565b905060005a6122e29088614bff565b9050808211156122fe576122fe6122f98284614bff565b61267a565b5050505050505050565b80516020808301516040808501516060860151608087015160a08801519351600097612338979096959101614efe565b604051602081830303815290604052805190602001209050919050565b60008060006123658660006126a8565b90508061239b576308c379a06000526020805278185361666543616c6c3a204e6f7420656e6f756768206761736058526064601cfd5b600080855160208701888b5af1979650505050505050565b60008160000151826020015183604001518460600151604051602001612338949392919093845260208401929092526040830152606082015260800190565b6000806123fe866126c6565b905061240c818686866126f8565b9695505050505050565b600054610100900460ff166124ad576040517f08c379a000000000000000000000000000000000000000000000000000000000815260206004820152602b60248201527f496e697469616c697a61626c653a20636f6e7472616374206973206e6f74206960448201527f6e697469616c697a696e670000000000000000000000000000000000000000006064820152608401610fd6565b6001547801000000000000000000000000000000000000000000000000900467ffffffffffffffff16600003611cca5760408051606081018252633b9aca00808252600060208301524367ffffffffffffffff169190920181905278010000000000000000000000000000000000000000000000000217600155565b6040805160c081018252600080825260208201819052918101829052606081018290526080810182905260a0810191909152603754604080517fcc731b02000000000000000000000000000000000000000000000000000000008152905160009273ffffffffffffffffffffffffffffffffffffffff169163cc731b029160048083019260c09291908290030181865afa1580156125cb573d6000803e3d6000fd5b505050506040513d601f19601f82011682018060405250810190611fe69190614f6b565b60006126046125fe8585612728565b83612738565b90505b9392505050565b6000670de0b6b3a764000061264f6126268583614ca1565b61263890670de0b6b3a7640000614d09565b61264a85670de0b6b3a7640000614d7d565b612747565b6126599086614d7d565b6126049190614ca1565b6000818310156126735781612607565b5090919050565b6000805a90505b825a61268d9083614bff565b10156126a35761269c82615027565b9150612681565b505050565b600080603f83619c4001026040850201603f5a021015949350505050565b606081805190602001206040516020016126e291815260200190565b6040516020818303038152906040529050919050565b600061271f84612709878686612778565b8051602091820120825192909101919091201490565b95945050505050565b6000818312156126735781612607565b60008183126126735781612607565b6000612607670de0b6b3a76400008361275f866131f6565b6127699190614d7d565b6127739190614ca1565b61343a565b606060008451116127e5576040517f08c379a000000000000000000000000000000000000000000000000000000000815260206004820152601560248201527f4d65726b6c65547269653a20656d707479206b657900000000000000000000006044820152606401610fd6565b60006127f084613679565b905060006127fd86613765565b905060008460405160200161281491815260200190565b60405160208183030381529060405290506000805b845181101561316d5760008582815181106128465761284661505f565b6020026020010151905084518311156128e1576040517f08c379a000000000000000000000000000000000000000000000000000000000815260206004820152602e60248201527f4d65726b6c65547269653a206b657920696e646578206578636565647320746f60448201527f74616c206b6579206c656e6774680000000000000000000000000000000000006064820152608401610fd6565b8260000361299a578051805160209182012060405161292f9261290992910190815260200190565b604051602081830303815290604052858051602091820120825192909101919091201490565b612995576040517f08c379a000000000000000000000000000000000000000000000000000000000815260206004820152601d60248201527f4d65726b6c65547269653a20696e76616c696420726f6f7420686173680000006044820152606401610fd6565b612af1565b805151602011612a5057805180516020918201206040516129c49261290992910190815260200190565b612995576040517f08c379a000000000000000000000000000000000000000000000000000000000815260206004820152602760248201527f4d65726b6c65547269653a20696e76616c6964206c6172676520696e7465726e60448201527f616c2068617368000000000000000000000000000000000000000000000000006064820152608401610fd6565b805184516020808701919091208251919092012014612af1576040517f08c379a000000000000000000000000000000000000000000000000000000000815260206004820152602660248201527f4d65726b6c65547269653a20696e76616c696420696e7465726e616c206e6f6460448201527f65206861736800000000000000000000000000000000000000000000000000006064820152608401610fd6565b612afd6010600161508e565b81602001515103612cd95784518303612c7157612b378160200151601081518110612b2a57612b2a61505f565b60200260200101516137c8565b96506000875111612bca576040517f08c379a000000000000000000000000000000000000000000000000000000000815260206004820152603b60248201527f4d65726b6c65547269653a2076616c7565206c656e677468206d75737420626560448201527f2067726561746572207468616e207a65726f20286272616e63682900000000006064820152608401610fd6565b60018651612bd89190614bff565b8214612c66576040517f08c379a000000000000000000000000000000000000000000000000000000000815260206004820152603a60248201527f4d65726b6c65547269653a2076616c7565206e6f6465206d757374206265206c60448201527f617374206e6f646520696e2070726f6f6620286272616e6368290000000000006064820152608401610fd6565b505050505050612607565b6000858481518110612c8557612c8561505f565b602001015160f81c60f81b60f81c9050600082602001518260ff1681518110612cb057612cb061505f565b60200260200101519050612cc38161387c565b9550612cd060018661508e565b9450505061315a565b6002816020015151036130d2576000612cf1826138a1565b9050600081600081518110612d0857612d0861505f565b016020015160f81c90506000612d1f6002836150a6565b612d2a9060026150c8565b90506000612d3b848360ff166138c5565b90506000612d498a896138c5565b90506000612d5783836138fb565b905080835114612de9576040517f08c379a000000000000000000000000000000000000000000000000000000000815260206004820152603a60248201527f4d65726b6c65547269653a20706174682072656d61696e646572206d7573742060448201527f736861726520616c6c206e6962626c65732077697468206b65790000000000006064820152608401610fd6565b60ff851660021480612dfe575060ff85166003145b15612fed5780825114612e93576040517f08c379a000000000000000000000000000000000000000000000000000000000815260206004820152603d60248201527f4d65726b6c65547269653a206b65792072656d61696e646572206d757374206260448201527f65206964656e746963616c20746f20706174682072656d61696e6465720000006064820152608401610fd6565b612ead8760200151600181518110612b2a57612b2a61505f565b9c5060008d5111612f40576040517f08c379a000000000000000000000000000000000000000000000000000000000815260206004820152603960248201527f4d65726b6c65547269653a2076616c7565206c656e677468206d75737420626560448201527f2067726561746572207468616e207a65726f20286c65616629000000000000006064820152608401610fd6565b60018c51612f4e9190614bff565b8814612fdc576040517f08c379a000000000000000000000000000000000000000000000000000000000815260206004820152603860248201527f4d65726b6c65547269653a2076616c7565206e6f6465206d757374206265206c60448201527f617374206e6f646520696e2070726f6f6620286c6561662900000000000000006064820152608401610fd6565b505050505050505050505050612607565b60ff85161580613000575060ff85166001145b1561303f5761302c876020015160018151811061301f5761301f61505f565b602002602001015161387c565b9950613038818a61508e565b98506130c7565b6040517f08c379a000000000000000000000000000000000000000000000000000000000815260206004820152603260248201527f4d65726b6c65547269653a2072656365697665642061206e6f6465207769746860448201527f20616e20756e6b6e6f776e2070726566697800000000000000000000000000006064820152608401610fd6565b50505050505061315a565b6040517f08c379a000000000000000000000000000000000000000000000000000000000815260206004820152602860248201527f4d65726b6c65547269653a20726563656976656420616e20756e70617273656160448201527f626c65206e6f64650000000000000000000000000000000000000000000000006064820152608401610fd6565b508061316581615027565b915050612829565b506040517f08c379a000000000000000000000000000000000000000000000000000000000815260206004820152602560248201527f4d65726b6c65547269653a2072616e206f7574206f662070726f6f6620656c6560448201527f6d656e74730000000000000000000000000000000000000000000000000000006064820152608401610fd6565b6000808213613261576040517f08c379a000000000000000000000000000000000000000000000000000000000815260206004820152600960248201527f554e444546494e454400000000000000000000000000000000000000000000006044820152606401610fd6565b6000606061326e846139af565b03609f8181039490941b90931c6c465772b2bbbb5f824b15207a3081018102606090811d6d0388eaa27412d5aca026815d636e018202811d6d0df99ac502031bf953eff472fdcc018202811d6d13cdffb29d51d99322bdff5f2211018202811d6d0a0f742023def783a307a986912e018202811d6d01920d8043ca89b5239253284e42018202811d6c0b7a86d7375468fac667a0a527016c29508e458543d8aa4df2abee7883018302821d6d0139601a2efabe717e604cbb4894018302821d6d02247f7a7b6594320649aa03aba1018302821d7fffffffffffffffffffffffffffffffffffffff73c0c716a594e00d54e3c4cbc9018302821d7ffffffffffffffffffffffffffffffffffffffdc7b88c420e53a9890533129f6f01830290911d7fffffffffffffffffffffffffffffffffffffff465fda27eb4d63ded474e5f832019091027ffffffffffffffff5f6af8f7b3396644f18e157960000000000000000000000000105711340daa0d5f769dba1915cef59f0815a5506027d0267a36c0c95b3975ab3ee5b203a7614a3f75373f047d803ae7b6687f2b393909302929092017d57115e47018c7177eebf7cd370a3356a1b7863008a5ae8028c72b88642840160ae1d92915050565b60007ffffffffffffffffffffffffffffffffffffffffffffffffdb731c958f34d94c1821361346b57506000919050565b680755bf798b4a1bf1e582126134dd576040517f08c379a000000000000000000000000000000000000000000000000000000000815260206004820152600c60248201527f4558505f4f564552464c4f5700000000000000000000000000000000000000006044820152606401610fd6565b6503782dace9d9604e83901b059150600060606bb17217f7d1cf79abc9e3b39884821b056b80000000000000000000000001901d6bb17217f7d1cf79abc9e3b39881029093037fffffffffffffffffffffffffffffffffffffffdbf3ccf1604d263450f02a550481018102606090811d6d0277594991cfc85f6e2461837cd9018202811d7fffffffffffffffffffffffffffffffffffffe5adedaa1cb095af9e4da10e363c018202811d6db1bbb201f443cf962f1a1d3db4a5018202811d7ffffffffffffffffffffffffffffffffffffd38dc772608b0ae56cce01296c0eb018202811d6e05180bb14799ab47a8a8cb2a527d57016d02d16720577bd19bf614176fe9ea6c10fe68e7fd37d0007b713f765084018402831d9081019084017ffffffffffffffffffffffffffffffffffffffe2c69812cf03b0763fd454a8f7e010290911d6e0587f503bb6ea29d25fcb7401964500190910279d835ebba824c98fb31b83b2ca45c000000000000000000000000010574029d9dc38563c32e5c2f6dc192ee70ef65f9978af30260c3939093039290921c92915050565b80516060908067ffffffffffffffff811115613697576136976143db565b6040519080825280602002602001820160405280156136dc57816020015b60408051808201909152606080825260208201528152602001906001900390816136b55790505b50915060005b8181101561375e5760405180604001604052808583815181106137075761370761505f565b602002602001015181526020016137368684815181106137295761372961505f565b6020026020010151613a85565b81525083828151811061374b5761374b61505f565b60209081029190910101526001016136e2565b5050919050565b606080604051905082518060011b603f8101601f1916830160405280835250602084016020830160005b838110156137bd578060011b82018184015160001a8060041c8253600f81166001830153505060010161378f565b509295945050505050565b606060008060006137d885613a98565b9194509250905060008160018111156137f3576137f3614afc565b1461382a576040517f1ff9b2e400000000000000000000000000000000000000000000000000000000815260040160405180910390fd5b613834828461508e565b85511461386d576040517f5c5537b800000000000000000000000000000000000000000000000000000000815260040160405180910390fd5b61271f85602001518484613f36565b6060602082600001511061389857613893826137c8565b611fe6565b611fe682613fca565b6060611fe66138c08360200151600081518110612b2a57612b2a61505f565b613765565b6060825182106138e45750604080516020810190915260008152611fe6565b61260783838486516138f69190614bff565b613fe0565b600080825184511061390e578251613911565b83515b90505b808210801561399857508282815181106139305761393061505f565b602001015160f81c60f81b7effffffffffffffffffffffffffffffffffffffffffffffffffffffffffffff191684838151811061396f5761396f61505f565b01602001517fff0000000000000000000000000000000000000000000000000000000000000016145b156139a857816001019150613914565b5092915050565b6000808211613a1a576040517f08c379a000000000000000000000000000000000000000000000000000000000815260206004820152600960248201527f554e444546494e454400000000000000000000000000000000000000000000006044820152606401610fd6565b5060016fffffffffffffffffffffffffffffffff821160071b82811c67ffffffffffffffff1060061b1782811c63ffffffff1060051b1782811c61ffff1060041b1782811c60ff10600390811b90911783811c600f1060021b1783811c909110821b1791821c111790565b6060611fe6613a93836141b8565b614225565b60008060008360000151600003613adb576040517f5ab458fb00000000000000000000000000000000000000000000000000000000815260040160405180910390fd5b6020840151805160001a607f8111613b00576000600160009450945094505050613f2f565b60b78111613c16576000613b15608083614bff565b905080876000015111613b54576040517f66c9448500000000000000000000000000000000000000000000000000000000815260040160405180910390fd5b6001838101517fff00000000000000000000000000000000000000000000000000000000000000169082148015613bcc57507f80000000000000000000000000000000000000000000000000000000000000007fff000000000000000000000000000000000000000000000000000000000000008216105b15613c03576040517fbabb01dd00000000000000000000000000000000000000000000000000000000815260040160405180910390fd5b5060019550935060009250613f2f915050565b60bf8111613d74576000613c2b60b783614bff565b905080876000015111613c6a576040517f66c9448500000000000000000000000000000000000000000000000000000000815260040160405180910390fd5b60018301517fff00000000000000000000000000000000000000000000000000000000000000166000819003613ccc576040517fbabb01dd00000000000000000000000000000000000000000000000000000000815260040160405180910390fd5b600184015160088302610100031c60378111613d14576040517fbabb01dd00000000000000000000000000000000000000000000000000000000815260040160405180910390fd5b613d1e818461508e565b895111613d57576040517f66c9448500000000000000000000000000000000000000000000000000000000815260040160405180910390fd5b613d6283600161508e565b9750955060009450613f2f9350505050565b60f78111613dd9576000613d8960c083614bff565b905080876000015111613dc8576040517f66c9448500000000000000000000000000000000000000000000000000000000815260040160405180910390fd5b600195509350849250613f2f915050565b6000613de660f783614bff565b905080876000015111613e25576040517f66c9448500000000000000000000000000000000000000000000000000000000815260040160405180910390fd5b60018301517fff00000000000000000000000000000000000000000000000000000000000000166000819003613e87576040517fbabb01dd00000000000000000000000000000000000000000000000000000000815260040160405180910390fd5b600184015160088302610100031c60378111613ecf576040517fbabb01dd00000000000000000000000000000000000000000000000000000000815260040160405180910390fd5b613ed9818461508e565b895111613f12576040517f66c9448500000000000000000000000000000000000000000000000000000000815260040160405180910390fd5b613f1d83600161508e565b9750955060019450613f2f9350505050565b9193909250565b60608167ffffffffffffffff811115613f5157613f516143db565b6040519080825280601f01601f191660200182016040528015613f7b576020820181803683370190505b5090508115612607576000613f90848661508e565b90506020820160005b84811015613fb1578281015182820152602001613f99565b84811115613fc0576000858301525b5050509392505050565b6060611fe6826020015160008460000151613f36565b60608182601f01101561404f576040517f08c379a000000000000000000000000000000000000000000000000000000000815260206004820152600e60248201527f736c6963655f6f766572666c6f770000000000000000000000000000000000006044820152606401610fd6565b8282840110156140bb576040517f08c379a000000000000000000000000000000000000000000000000000000000815260206004820152600e60248201527f736c6963655f6f766572666c6f770000000000000000000000000000000000006044820152606401610fd6565b81830184511015614128576040517f08c379a000000000000000000000000000000000000000000000000000000000815260206004820152601160248201527f736c6963655f6f75744f66426f756e64730000000000000000000000000000006044820152606401610fd6565b60608215801561414757604051915060008252602082016040526141af565b6040519150601f8416801560200281840101858101878315602002848b0101015b81831015614180578051835260209283019201614168565b5050858452601f017fffffffffffffffffffffffffffffffffffffffffffffffffffffffffffffffe016604052505b50949350505050565b60408051808201909152600080825260208201528151600003614207576040517f5ab458fb00000000000000000000000000000000000000000000000000000000815260040160405180910390fd5b50604080518082019091528151815260209182019181019190915290565b6060600080600061423585613a98565b91945092509050600181600181111561425057614250614afc565b14614287576040517f4b9c6abe00000000000000000000000000000000000000000000000000000000815260040160405180910390fd5b8451614293838561508e565b146142ca576040517f5c5537b800000000000000000000000000000000000000000000000000000000815260040160405180910390fd5b604080516020808252610420820190925290816020015b60408051808201909152600080825260208201528152602001906001900390816142e15790505093506000835b86518110156143cf576000806143546040518060400160405280858c600001516143389190614bff565b8152602001858c6020015161434d919061508e565b9052613a98565b509150915060405180604001604052808383614370919061508e565b8152602001848b60200151614385919061508e565b81525088858151811061439a5761439a61505f565b60209081029190910101526143b060018561508e565b93506143bc818361508e565b6143c6908461508e565b9250505061430e565b50845250919392505050565b7f4e487b7100000000000000000000000000000000000000000000000000000000600052604160045260246000fd5b604051601f82017fffffffffffffffffffffffffffffffffffffffffffffffffffffffffffffffe016810167ffffffffffffffff81118282101715614451576144516143db565b604052919050565b73ffffffffffffffffffffffffffffffffffffffff81168114611d1557600080fd5b600082601f83011261448c57600080fd5b813567ffffffffffffffff8111156144a6576144a66143db565b6144d760207fffffffffffffffffffffffffffffffffffffffffffffffffffffffffffffffe0601f8401160161440a565b8181528460208386010111156144ec57600080fd5b816020850160208301376000918101602001919091529392505050565b600060c0828403121561451b57600080fd5b60405160c0810167ffffffffffffffff828210818311171561453f5761453f6143db565b81604052829350843583526020850135915061455a82614459565b8160208401526040850135915061457082614459565b816040840152606085013560608401526080850135608084015260a085013591508082111561459e57600080fd5b506145ab8582860161447b565b60a0830152505092915050565b600080604083850312156145cb57600080fd5b823567ffffffffffffffff8111156145e257600080fd5b6145ee85828601614509565b92505060208301356145ff81614459565b809150509250929050565b60006020828403121561461c57600080fd5b813561260781614459565b600080600080600085870360e081121561464057600080fd5b863567ffffffffffffffff8082111561465857600080fd5b6146648a838b01614509565b97506020890135965060807fffffffffffffffffffffffffffffffffffffffffffffffffffffffffffffffc08401121561469d57600080fd5b60408901955060c08901359250808311156146b757600080fd5b828901925089601f8401126146cb57600080fd5b82359150808211156146dc57600080fd5b508860208260051b84010111156146f257600080fd5b959894975092955050506020019190565b60006020828403121561471557600080fd5b5035919050565b60005b8381101561473757818101518382015260200161471f565b83811115610aef5750506000910152565b6000815180845261476081602086016020860161471c565b601f017fffffffffffffffffffffffffffffffffffffffffffffffffffffffffffffffe0169290920160200192915050565b6020815260006126076020830184614748565b600080604083850312156147b857600080fd5b8235915060208301356145ff81614459565b63ffffffff81168114611d1557600080fd5b6000602082840312156147ee57600080fd5b8135612607816147ca565b60006020828403121561480b57600080fd5b813567ffffffffffffffff81111561482257600080fd5b61482e84828501614509565b949350505050565b6000806000806080858703121561484c57600080fd5b843561485781614459565b9350602085013561486781614459565b9250604085013561487781614459565b91506060850135614887816147ca565b939692955090935050565b67ffffffffffffffff81168114611d1557600080fd5b6000602082840312156148ba57600080fd5b813561260781614892565b600080604083850312156148d857600080fd5b50508035926020909101359150565b8015158114611d1557600080fd5b600080600080600060a0868803121561490d57600080fd5b853561491881614459565b945060208601359350604086013561492f81614892565b9250606086013561493f816148e7565b9150608086013567ffffffffffffffff81111561495b57600080fd5b6149678882890161447b565b9150509295509295909350565b8581528460208201527fffffffffffffffff0000000000000000000000000000000000000000000000008460c01b16604082015282151560f81b6048820152600082516149c881604985016020870161471c565b919091016049019695505050505050565b6000602082840312156149eb57600080fd5b815161260781614459565b600080600060608486031215614a0b57600080fd5b8351614a16816147ca565b6020850151909350614a2781614892565b6040850151909250614a3881614459565b809150509250925092565b600060208284031215614a5557600080fd5b5051919050565b600060208284031215614a6e57600080fd5b8151612607816148e7565b600060208284031215614a8b57600080fd5b815161260781614892565b600060808284031215614aa857600080fd5b6040516080810181811067ffffffffffffffff82111715614acb57614acb6143db565b8060405250823581526020830135602082015260408301356040820152606083013560608201528091505092915050565b7f4e487b7100000000000000000000000000000000000000000000000000000000600052602160045260246000fd5b600060208284031215614b3d57600080fd5b81516003811061260757600080fd5b600067ffffffffffffffff80841115614b6757614b676143db565b8360051b6020614b7881830161440a565b868152918501918181019036841115614b9057600080fd5b865b84811015614bc457803586811115614baa5760008081fd5b614bb636828b0161447b565b845250918301918301614b92565b50979650505050505050565b7f4e487b7100000000000000000000000000000000000000000000000000000000600052601160045260246000fd5b600082821015614c1157614c11614bd0565b500390565b600067ffffffffffffffff80831681851681830481118215151615614c3d57614c3d614bd0565b02949350505050565b600067ffffffffffffffff808316818516808303821115614c6957614c69614bd0565b01949350505050565b7f4e487b7100000000000000000000000000000000000000000000000000000000600052601260045260246000fd5b600082614cb057614cb0614c72565b7fffffffffffffffffffffffffffffffffffffffffffffffffffffffffffffffff83147f800000000000000000000000000000000000000000000000000000000000000083141615614d0457614d04614bd0565b500590565b6000808312837f800000000000000000000000000000000000000000000000000000000000000001831281151615614d4357614d43614bd0565b837f7fffffffffffffffffffffffffffffffffffffffffffffffffffffffffffffff018313811615614d7757614d77614bd0565b50500390565b60007f7fffffffffffffffffffffffffffffffffffffffffffffffffffffffffffffff600084136000841385830485118282161615614dbe57614dbe614bd0565b7f80000000000000000000000000000000000000000000000000000000000000006000871286820588128184161615614df957614df9614bd0565b60008712925087820587128484161615614e1557614e15614bd0565b87850587128184161615614e2b57614e2b614bd0565b505050929093029392505050565b6000808212827f7fffffffffffffffffffffffffffffffffffffffffffffffffffffffffffffff03841381151615614e7357614e73614bd0565b827f8000000000000000000000000000000000000000000000000000000000000000038412811615614ea757614ea7614bd0565b50500190565b6000817fffffffffffffffffffffffffffffffffffffffffffffffffffffffffffffffff0483118215151615614ee557614ee5614bd0565b500290565b600082614ef957614ef9614c72565b500490565b868152600073ffffffffffffffffffffffffffffffffffffffff808816602084015280871660408401525084606083015283608083015260c060a0830152614f4960c0830184614748565b98975050505050505050565b805160ff81168114614f6657600080fd5b919050565b600060c08284031215614f7d57600080fd5b60405160c0810181811067ffffffffffffffff82111715614fa057614fa06143db565b6040528251614fae816147ca565b8152614fbc60208401614f55565b6020820152614fcd60408401614f55565b60408201526060830151614fe0816147ca565b60608201526080830151614ff3816147ca565b608082015260a08301516fffffffffffffffffffffffffffffffff8116811461501b57600080fd5b60a08201529392505050565b60007fffffffffffffffffffffffffffffffffffffffffffffffffffffffffffffffff820361505857615058614bd0565b5060010190565b7f4e487b7100000000000000000000000000000000000000000000000000000000600052603260045260246000fd5b600082198211156150a1576150a1614bd0565b500190565b600060ff8316806150b9576150b9614c72565b8060ff84160691505092915050565b600060ff821660ff8416808210156150e2576150e2614bd0565b9003939250505056fea164736f6c634300080f000a","linkReferences":{}},"methodIdentifiers":{"blacklistDisputeGame(address)":"7d6be8dc","checkWithdrawal(bytes32,address)":"71c1566e","depositTransaction(address,uint256,uint64,bool,bytes)":"e9e05c42","disputeGameBlacklist(address)":"45884d32","disputeGameFactory()":"f2b4e617","disputeGameFinalityDelaySeconds()":"952b2797","donateETH()":"8b4c40b0","finalizeWithdrawalTransaction((uint256,address,address,uint256,uint256,bytes))":"8c3152e9","finalizeWithdrawalTransactionExternalProof((uint256,address,address,uint256,uint256,bytes),address)":"43ca1c50","finalizedWithdrawals(bytes32)":"a14238e7","guardian()":"452a9320","initialize(address,address,address,uint32)":"8e819e54","l2Sender()":"9bf62d82","minimumGasLimit(uint64)":"a35d99df","numProofSubmitters(bytes32)":"513747ab","params()":"cff0ab96","paused()":"5c975abb","proofMaturityDelaySeconds()":"bf653a5c","proofSubmitters(bytes32,uint256)":"a3860f48","proveWithdrawalTransaction((uint256,address,address,uint256,uint256,bytes),uint256,(bytes32,bytes32,bytes32,bytes32),bytes[])":"4870496f","provenWithdrawals(bytes32,address)":"bb2c727e","respectedGameType()":"3c9f397c","respectedGameTypeUpdatedAt()":"4fd0434c","setRespectedGameType(uint32)":"7fc48504","superchainConfig()":"35e80ab3","systemConfig()":"33d7e2bd","version()":"54fd4d50"},"storageLayout":{"storage":[{"astId":49406,"contract":"src/L1/OptimismPortal2.sol:OptimismPortal2","label":"_initialized","offset":0,"slot":"0","type":"t_uint8"},{"astId":49409,"contract":"src/L1/OptimismPortal2.sol:OptimismPortal2","label":"_initializing","offset":1,"slot":"0","type":"t_bool"},{"astId":97614,"contract":"src/L1/OptimismPortal2.sol:OptimismPortal2","label":"params","offset":0,"slot":"1","type":"t_struct(ResourceParams)97597_storage"},{"astId":97619,"contract":"src/L1/OptimismPortal2.sol:OptimismPortal2","label":"__gap","offset":0,"slot":"2","type":"t_array(t_uint256)48_storage"},{"astId":96352,"contract":"src/L1/OptimismPortal2.sol:OptimismPortal2","label":"l2Sender","offset":0,"slot":"50","type":"t_address"},{"astId":96357,"contract":"src/L1/OptimismPortal2.sol:OptimismPortal2","label":"finalizedWithdrawals","offset":0,"slot":"51","type":"t_mapping(t_bytes32,t_bool)"},{"astId":96360,"contract":"src/L1/OptimismPortal2.sol:OptimismPortal2","label":"spacer_52_0_32","offset":0,"slot":"52","type":"t_bytes32"},{"astId":96363,"contract":"src/L1/OptimismPortal2.sol:OptimismPortal2","label":"spacer_53_0_1","offset":0,"slot":"53","type":"t_bool"},{"astId":96367,"contract":"src/L1/OptimismPortal2.sol:OptimismPortal2","label":"superchainConfig","offset":1,"slot":"53","type":"t_contract(ISuperchainConfig)1836"},{"astId":96370,"contract":"src/L1/OptimismPortal2.sol:OptimismPortal2","label":"spacer_54_0_20","offset":0,"slot":"54","type":"t_address"},{"astId":96374,"contract":"src/L1/OptimismPortal2.sol:OptimismPortal2","label":"systemConfig","offset":0,"slot":"55","type":"t_contract(ISystemConfig)2116"},{"astId":96378,"contract":"src/L1/OptimismPortal2.sol:OptimismPortal2","label":"disputeGameFactory","offset":0,"slot":"56","type":"t_contract(IDisputeGameFactory)5495"},{"astId":96386,"contract":"src/L1/OptimismPortal2.sol:OptimismPortal2","label":"provenWithdrawals","offset":0,"slot":"57","type":"t_mapping(t_bytes32,t_mapping(t_address,t_struct(ProvenWithdrawal)96331_storage))"},{"astId":96392,"contract":"src/L1/OptimismPortal2.sol:OptimismPortal2","label":"disputeGameBlacklist","offset":0,"slot":"58","type":"t_mapping(t_contract(IDisputeGame)5286,t_bool)"},{"astId":96396,"contract":"src/L1/OptimismPortal2.sol:OptimismPortal2","label":"respectedGameType","offset":0,"slot":"59","type":"t_userDefinedValueType(GameType)119491"},{"astId":96399,"contract":"src/L1/OptimismPortal2.sol:OptimismPortal2","label":"respectedGameTypeUpdatedAt","offset":4,"slot":"59","type":"t_uint64"},{"astId":96405,"contract":"src/L1/OptimismPortal2.sol:OptimismPortal2","label":"proofSubmitters","offset":0,"slot":"60","type":"t_mapping(t_bytes32,t_array(t_address)dyn_storage)"},{"astId":96408,"contract":"src/L1/OptimismPortal2.sol:OptimismPortal2","label":"spacer_61_0_32","offset":0,"slot":"61","type":"t_uint256"}],"types":{"t_address":{"encoding":"inplace","label":"address","numberOfBytes":"20"},"t_array(t_address)dyn_storage":{"encoding":"dynamic_array","label":"address[]","numberOfBytes":"32","base":"t_address"},"t_array(t_uint256)48_storage":{"encoding":"inplace","label":"uint256[48]","numberOfBytes":"1536","base":"t_uint256"},"t_bool":{"encoding":"inplace","label":"bool","numberOfBytes":"1"},"t_bytes32":{"encoding":"inplace","label":"bytes32","numberOfBytes":"32"},"t_contract(IDisputeGame)5286":{"encoding":"inplace","label":"contract IDisputeGame","numberOfBytes":"20"},"t_contract(IDisputeGameFactory)5495":{"encoding":"inplace","label":"contract IDisputeGameFactory","numberOfBytes":"20"},"t_contract(ISuperchainConfig)1836":{"encoding":"inplace","label":"contract ISuperchainConfig","numberOfBytes":"20"},"t_contract(ISystemConfig)2116":{"encoding":"inplace","label":"contract ISystemConfig","numberOfBytes":"20"},"t_mapping(t_address,t_struct(ProvenWithdrawal)96331_storage)":{"encoding":"mapping","key":"t_address","label":"mapping(address => struct OptimismPortal2.ProvenWithdrawal)","numberOfBytes":"32","value":"t_struct(ProvenWithdrawal)96331_storage"},"t_mapping(t_bytes32,t_array(t_address)dyn_storage)":{"encoding":"mapping","key":"t_bytes32","label":"mapping(bytes32 => address[])","numberOfBytes":"32","value":"t_array(t_address)dyn_storage"},"t_mapping(t_bytes32,t_bool)":{"encoding":"mapping","key":"t_bytes32","label":"mapping(bytes32 => bool)","numberOfBytes":"32","value":"t_bool"},"t_mapping(t_bytes32,t_mapping(t_address,t_struct(ProvenWithdrawal)96331_storage))":{"encoding":"mapping","key":"t_bytes32","label":"mapping(bytes32 => mapping(address => struct OptimismPortal2.ProvenWithdrawal))","numberOfBytes":"32","value":"t_mapping(t_address,t_struct(ProvenWithdrawal)96331_storage)"},"t_mapping(t_contract(IDisputeGame)5286,t_bool)":{"encoding":"mapping","key":"t_contract(IDisputeGame)5286","label":"mapping(contract IDisputeGame => bool)","numberOfBytes":"32","value":"t_bool"},"t_struct(ProvenWithdrawal)96331_storage":{"encoding":"inplace","label":"struct OptimismPortal2.ProvenWithdrawal","numberOfBytes":"32","members":[{"astId":96328,"contract":"src/L1/OptimismPortal2.sol:OptimismPortal2","label":"disputeGameProxy","offset":0,"slot":"0","type":"t_contract(IDisputeGame)5286"},{"astId":96330,"contract":"src/L1/OptimismPortal2.sol:OptimismPortal2","label":"timestamp","offset":20,"slot":"0","type":"t_uint64"}]},"t_struct(ResourceParams)97597_storage":{"encoding":"inplace","label":"struct ResourceMetering.ResourceParams","numberOfBytes":"32","members":[{"astId":97592,"contract":"src/L1/OptimismPortal2.sol:OptimismPortal2","label":"prevBaseFee","offset":0,"slot":"0","type":"t_uint128"},{"astId":97594,"contract":"src/L1/OptimismPortal2.sol:OptimismPortal2","label":"prevBoughtGas","offset":16,"slot":"0","type":"t_uint64"},{"astId":97596,"contract":"src/L1/OptimismPortal2.sol:OptimismPortal2","label":"prevBlockNum","offset":24,"slot":"0","type":"t_uint64"}]},"t_uint128":{"encoding":"inplace","label":"uint128","numberOfBytes":"16"},"t_uint256":{"encoding":"inplace","label":"uint256","numberOfBytes":"32"},"t_uint64":{"encoding":"inplace","label":"uint64","numberOfBytes":"8"},"t_uint8":{"encoding":"inplace","label":"uint8","numberOfBytes":"1"},"t_userDefinedValueType(GameType)119491":{"encoding":"inplace","label":"GameType","numberOfBytes":"4"}}},"userdoc":{"version":1,"kind":"user","methods":{"blacklistDisputeGame(address)":{"notice":"Blacklists a dispute game. Should only be used in the event that a dispute game resolves incorrectly."},"checkWithdrawal(bytes32,address)":{"notice":"Checks if a withdrawal can be finalized. This function will revert if the withdrawal cannot be         finalized, and otherwise has no side-effects."},"constructor":{"notice":"Constructs the OptimismPortal contract."},"depositTransaction(address,uint256,uint64,bool,bytes)":{"notice":"Accepts deposits of ETH and data, and emits a TransactionDeposited event for use in         deriving deposit transactions. Note that if a deposit is made by a contract, its         address will be aliased when retrieved using `tx.origin` or `msg.sender`. Consider         using the CrossDomainMessenger contracts for a simpler developer experience."},"disputeGameBlacklist(address)":{"notice":"A mapping of dispute game addresses to whether or not they are blacklisted."},"disputeGameFactory()":{"notice":"Address of the DisputeGameFactory."},"disputeGameFinalityDelaySeconds()":{"notice":"Getter for the dispute game finality delay."},"donateETH()":{"notice":"Accepts ETH value without triggering a deposit to L2.         This function mainly exists for the sake of the migration between the legacy         Optimism system and Bedrock."},"finalizeWithdrawalTransaction((uint256,address,address,uint256,uint256,bytes))":{"notice":"Finalizes a withdrawal transaction."},"finalizeWithdrawalTransactionExternalProof((uint256,address,address,uint256,uint256,bytes),address)":{"notice":"Finalizes a withdrawal transaction, using an external proof submitter."},"finalizedWithdrawals(bytes32)":{"notice":"A list of withdrawal hashes which have been successfully finalized."},"guardian()":{"notice":"Getter function for the address of the guardian.         Public getter is legacy and will be removed in the future. Use `SuperchainConfig.guardian()` instead."},"initialize(address,address,address,uint32)":{"notice":"Initializer."},"l2Sender()":{"notice":"Address of the L2 account which initiated a withdrawal in this transaction.         If the of this variable is the default L2 sender address, then we are NOT inside of         a call to finalizeWithdrawalTransaction."},"minimumGasLimit(uint64)":{"notice":"Computes the minimum gas limit for a deposit.         The minimum gas limit linearly increases based on the size of the calldata.         This is to prevent users from creating L2 resource usage without paying for it.         This function can be used when interacting with the portal to ensure forwards         compatibility."},"numProofSubmitters(bytes32)":{"notice":"External getter for the number of proof submitters for a withdrawal hash."},"params()":{"notice":"EIP-1559 style gas parameters."},"paused()":{"notice":"Getter for the current paused status."},"proofMaturityDelaySeconds()":{"notice":"Getter for the proof maturity delay."},"proofSubmitters(bytes32,uint256)":{"notice":"Mapping of withdrawal hashes to addresses that have submitted a proof for the         withdrawal. Original OptimismPortal contract only allowed one proof to be submitted         for any given withdrawal hash. Fault Proofs version of this contract must allow         multiple proofs for the same withdrawal hash to prevent a malicious user from         blocking other withdrawals by proving them against invalid proposals. Submitters         are tracked in an array to simplify the off-chain process of determining which         proof submission should be used when finalizing a withdrawal."},"proveWithdrawalTransaction((uint256,address,address,uint256,uint256,bytes),uint256,(bytes32,bytes32,bytes32,bytes32),bytes[])":{"notice":"Proves a withdrawal transaction."},"provenWithdrawals(bytes32,address)":{"notice":"A mapping of withdrawal hashes to proof submitters to `ProvenWithdrawal` data."},"respectedGameType()":{"notice":"The game type that the OptimismPortal consults for output proposals."},"respectedGameTypeUpdatedAt()":{"notice":"The timestamp at which the respected game type was last updated."},"setRespectedGameType(uint32)":{"notice":"Sets the respected game type. Changing this value can alter the security properties of the system,         depending on the new game's behavior."},"superchainConfig()":{"notice":"Contract of the Superchain Config."},"systemConfig()":{"notice":"Contract of the SystemConfig."},"version()":{"notice":"Semantic version."}},"events":{"DisputeGameBlacklisted(address)":{"notice":"Emitted when a dispute game is blacklisted by the Guardian."},"RespectedGameTypeSet(uint32,uint64)":{"notice":"Emitted when the Guardian changes the respected game type in the portal."},"TransactionDeposited(address,address,uint256,bytes)":{"notice":"Emitted when a transaction is deposited from L1 to L2.         The parameters of this event are read by the rollup node and used to derive deposit         transactions on L2."},"WithdrawalFinalized(bytes32,bool)":{"notice":"Emitted when a withdrawal transaction is finalized."},"WithdrawalProven(bytes32,address,address)":{"notice":"Emitted when a withdrawal transaction is proven."},"WithdrawalProvenExtension1(bytes32,address)":{"notice":"Emitted when a withdrawal transaction is proven. Exists as a separate event to allow for backwards         compatibility for tooling that observes the `WithdrawalProven` event."}},"errors":{"AlreadyFinalized()":[{"notice":"Error for when a withdrawal has already been finalized."}],"BadTarget()":[{"notice":"Error for when a deposit or withdrawal is to a bad target."}],"Blacklisted()":[{"notice":"Error for when a dispute game has been blacklisted."}],"CallPaused()":[{"notice":"Error for when a method cannot be called when paused. This could be renamed         to `Paused` in the future, but it collides with the `Paused` event."}],"ContentLengthMismatch()":[{"notice":"The length of the content must be greater than the RLP item length"}],"EmptyItem()":[{"notice":"The length of an RLP item must be greater than zero to be decodable"}],"GasEstimation()":[{"notice":"Error for special gas estimation."}],"InvalidDataRemainder()":[{"notice":"The RLP item has an invalid data remainder"}],"InvalidDisputeGame()":[{"notice":"Error for an invalid dispute game."}],"InvalidGameType()":[{"notice":"Error for invalid game type."}],"InvalidHeader()":[{"notice":"Invalid RLP header for RLP item"}],"InvalidMerkleProof()":[{"notice":"Error for an invalid merkle proof."}],"InvalidProof()":[{"notice":"Error for invalid proof."}],"LargeCalldata()":[{"notice":"Error for when a deposit has too much calldata."}],"LegacyGame()":[{"notice":"Error for when a game is a legacy game."}],"NonReentrant()":[{"notice":"Error for when a method is being reentered."}],"OutOfGas()":[{"notice":"Error returned when too much gas resource is consumed."}],"ProposalNotValidated()":[{"notice":"Error for when a proposal is not validated."}],"SmallGasLimit()":[{"notice":"Error for when a deposit has too small of a gas limit."}],"Unauthorized()":[{"notice":"Error for an unauthorized CALLER."}],"UnexpectedList()":[{"notice":"Decoded item type for bytes is not a string item"}],"UnexpectedString()":[{"notice":"The decoded item type for list is not a list item"}],"Unproven()":[{"notice":"Error for when trying to withdrawal without first proven."}]},"notice":"The OptimismPortal is a low-level contract responsible for passing messages between L1         and L2. Messages sent directly to the OptimismPortal have no form of replayability.         Users are encouraged to use the L1CrossDomainMessenger for a higher-level interface."},"devdoc":{"version":1,"kind":"dev","methods":{"blacklistDisputeGame(address)":{"params":{"_disputeGame":"Dispute game to blacklist."}},"checkWithdrawal(bytes32,address)":{"params":{"_proofSubmitter":"The submitter of the proof for the withdrawal hash","_withdrawalHash":"Hash of the withdrawal to check."}},"depositTransaction(address,uint256,uint64,bool,bytes)":{"params":{"_data":"Data to trigger the recipient with.","_gasLimit":"Amount of L2 gas to purchase by burning gas on L1.","_isCreation":"Whether or not the transaction is a contract creation.","_to":"Target address on L2.","_value":"ETH value to send to the recipient."}},"finalizeWithdrawalTransaction((uint256,address,address,uint256,uint256,bytes))":{"params":{"_tx":"Withdrawal transaction to finalize."}},"finalizeWithdrawalTransactionExternalProof((uint256,address,address,uint256,uint256,bytes),address)":{"params":{"_proofSubmitter":"Address of the proof submitter.","_tx":"Withdrawal transaction to finalize."}},"guardian()":{"returns":{"_0":"Address of the guardian."}},"initialize(address,address,address,uint32)":{"params":{"_disputeGameFactory":"Contract of the DisputeGameFactory.","_superchainConfig":"Contract of the SuperchainConfig.","_systemConfig":"Contract of the SystemConfig."}},"minimumGasLimit(uint64)":{"params":{"_byteCount":"Number of bytes in the calldata."},"returns":{"_0":"The minimum gas limit for a deposit."}},"numProofSubmitters(bytes32)":{"params":{"_withdrawalHash":"Hash of the withdrawal."},"returns":{"_0":"The number of proof submitters for the withdrawal hash."}},"proveWithdrawalTransaction((uint256,address,address,uint256,uint256,bytes),uint256,(bytes32,bytes32,bytes32,bytes32),bytes[])":{"params":{"_disputeGameIndex":"Index of the dispute game to prove the withdrawal against.","_outputRootProof":"Inclusion proof of the L2ToL1MessagePasser contract's storage root.","_tx":"Withdrawal transaction to finalize.","_withdrawalProof":"Inclusion proof of the withdrawal in L2ToL1MessagePasser contract."}},"setRespectedGameType(uint32)":{"params":{"_gameType":"The game type to consult for output proposals."}},"version()":{}},"events":{"DisputeGameBlacklisted(address)":{"params":{"disputeGame":"Address of the dispute game that was blacklisted."}},"RespectedGameTypeSet(uint32,uint64)":{"params":{"newGameType":"The new respected game type.","updatedAt":"The timestamp at which the respected game type was updated."}},"TransactionDeposited(address,address,uint256,bytes)":{"params":{"from":"Address that triggered the deposit transaction.","opaqueData":"ABI encoded deposit data to be parsed off-chain.","to":"Address that the deposit transaction is directed to.","version":"Version of this deposit transaction event."}},"WithdrawalFinalized(bytes32,bool)":{"params":{"success":"Whether the withdrawal transaction was successful.","withdrawalHash":"Hash of the withdrawal transaction."}},"WithdrawalProven(bytes32,address,address)":{"params":{"from":"Address that triggered the withdrawal transaction.","to":"Address that the withdrawal transaction is directed to.","withdrawalHash":"Hash of the withdrawal transaction."}},"WithdrawalProvenExtension1(bytes32,address)":{"params":{"proofSubmitter":"Address of the proof submitter.","withdrawalHash":"Hash of the withdrawal transaction."}}},"title":"OptimismPortal2"},"id":206}