{"abi":[{"type":"constructor","inputs":[{"name":"_delay","type":"uint256","internalType":"uint256"}],"stateMutability":"nonpayable"},{"type":"fallback","stateMutability":"payable"},{"type":"receive","stateMutability":"payable"},{"type":"function","name":"allowance","inputs":[{"name":"owner","type":"address","internalType":"address"},{"name":"spender","type":"address","internalType":"address"}],"outputs":[{"name":"","type":"uint256","internalType":"uint256"}],"stateMutability":"view"},{"type":"function","name":"approve","inputs":[{"name":"guy","type":"address","internalType":"address"},{"name":"wad","type":"uint256","internalType":"uint256"}],"outputs":[{"name":"","type":"bool","internalType":"bool"}],"stateMutability":"nonpayable"},{"type":"function","name":"balanceOf","inputs":[{"name":"src","type":"address","internalType":"address"}],"outputs":[{"name":"","type":"uint256","internalType":"uint256"}],"stateMutability":"view"},{"type":"function","name":"config","inputs":[],"outputs":[{"name":"","type":"address","internalType":"contract ISuperchainConfig"}],"stateMutability":"view"},{"type":"function","name":"decimals","inputs":[],"outputs":[{"name":"","type":"uint8","internalType":"uint8"}],"stateMutability":"view"},{"type":"function","name":"delay","inputs":[],"outputs":[{"name":"","type":"uint256","internalType":"uint256"}],"stateMutability":"view"},{"type":"function","name":"deposit","inputs":[],"outputs":[],"stateMutability":"payable"},{"type":"function","name":"hold","inputs":[{"name":"_guy","type":"address","internalType":"address"},{"name":"_wad","type":"uint256","internalType":"uint256"}],"outputs":[],"stateMutability":"nonpayable"},{"type":"function","name":"hold","inputs":[{"name":"_guy","type":"address","internalType":"address"}],"outputs":[],"stateMutability":"nonpayable"},{"type":"function","name":"initialize","inputs":[{"name":"_owner","type":"address","internalType":"address"},{"name":"_config","type":"address","internalType":"contract ISuperchainConfig"}],"outputs":[],"stateMutability":"nonpayable"},{"type":"function","name":"name","inputs":[],"outputs":[{"name":"","type":"string","internalType":"string"}],"stateMutability":"view"},{"type":"function","name":"owner","inputs":[],"outputs":[{"name":"","type":"address","internalType":"address"}],"stateMutability":"view"},{"type":"function","name":"recover","inputs":[{"name":"_wad","type":"uint256","internalType":"uint256"}],"outputs":[],"stateMutability":"nonpayable"},{"type":"function","name":"renounceOwnership","inputs":[],"outputs":[],"stateMutability":"nonpayable"},{"type":"function","name":"symbol","inputs":[],"outputs":[{"name":"","type":"string","internalType":"string"}],"stateMutability":"view"},{"type":"function","name":"totalSupply","inputs":[],"outputs":[{"name":"","type":"uint256","internalType":"uint256"}],"stateMutability":"view"},{"type":"function","name":"transfer","inputs":[{"name":"dst","type":"address","internalType":"address"},{"name":"wad","type":"uint256","internalType":"uint256"}],"outputs":[{"name":"","type":"bool","internalType":"bool"}],"stateMutability":"nonpayable"},{"type":"function","name":"transferFrom","inputs":[{"name":"src","type":"address","internalType":"address"},{"name":"dst","type":"address","internalType":"address"},{"name":"wad","type":"uint256","internalType":"uint256"}],"outputs":[{"name":"","type":"bool","internalType":"bool"}],"stateMutability":"nonpayable"},{"type":"function","name":"transferOwnership","inputs":[{"name":"newOwner","type":"address","internalType":"address"}],"outputs":[],"stateMutability":"nonpayable"},{"type":"function","name":"unlock","inputs":[{"name":"_guy","type":"address","internalType":"address"},{"name":"_wad","type":"uint256","internalType":"uint256"}],"outputs":[],"stateMutability":"nonpayable"},{"type":"function","name":"version","inputs":[],"outputs":[{"name":"","type":"string","internalType":"string"}],"stateMutability":"view"},{"type":"function","name":"withdraw","inputs":[{"name":"_wad","type":"uint256","internalType":"uint256"}],"outputs":[],"stateMutability":"nonpayable"},{"type":"function","name":"withdraw","inputs":[{"name":"_guy","type":"address","internalType":"address"},{"name":"_wad","type":"uint256","internalType":"uint256"}],"outputs":[],"stateMutability":"nonpayable"},{"type":"function","name":"withdrawals","inputs":[{"name":"","type":"address","internalType":"address"},{"name":"","type":"address","internalType":"address"}],"outputs":[{"name":"amount","type":"uint256","internalType":"uint256"},{"name":"timestamp","type":"uint256","internalType":"uint256"}],"stateMutability":"view"},{"type":"event","name":"Approval","inputs":[{"name":"src","type":"address","indexed":true,"internalType":"address"},{"name":"guy","type":"address","indexed":true,"internalType":"address"},{"name":"wad","type":"uint256","indexed":false,"internalType":"uint256"}],"anonymous":false},{"type":"event","name":"Deposit","inputs":[{"name":"dst","type":"address","indexed":true,"internalType":"address"},{"name":"wad","type":"uint256","indexed":false,"internalType":"uint256"}],"anonymous":false},{"type":"event","name":"Initialized","inputs":[{"name":"version","type":"uint8","indexed":false,"internalType":"uint8"}],"anonymous":false},{"type":"event","name":"OwnershipTransferred","inputs":[{"name":"previousOwner","type":"address","indexed":true,"internalType":"address"},{"name":"newOwner","type":"address","indexed":true,"internalType":"address"}],"anonymous":false},{"type":"event","name":"Transfer","inputs":[{"name":"src","type":"address","indexed":true,"internalType":"address"},{"name":"dst","type":"address","indexed":true,"internalType":"address"},{"name":"wad","type":"uint256","indexed":false,"internalType":"uint256"}],"anonymous":false},{"type":"event","name":"Withdrawal","inputs":[{"name":"src","type":"address","indexed":true,"internalType":"address"},{"name":"wad","type":"uint256","indexed":false,"internalType":"uint256"}],"anonymous":false}],"bytecode":{"object":"0x60a060405234801561001057600080fd5b5060405161176b38038061176b83398101604081905261002f91610102565b608081905261003c610042565b5061011b565b600054610100900460ff16156100ae5760405162461bcd60e51b815260206004820152602760248201527f496e697469616c697a61626c653a20636f6e747261637420697320696e697469604482015266616c697a696e6760c81b606482015260840160405180910390fd5b60005460ff9081161015610100576000805460ff191660ff9081179091556040519081527f7f26b83ff96e1f2b6a682f133852f6798a09c465da95921460cefb38474024989060200160405180910390a15b565b60006020828403121561011457600080fd5b5051919050565b60805161162e61013d6000396000818161034a0152611074015261162e6000f3fe60806040526004361061018f5760003560e01c806379502c55116100d6578063a9059cbb1161007f578063dd62ed3e11610059578063dd62ed3e1461055d578063f2fde38b146105b0578063f3fef3a3146105d05761019e565b8063a9059cbb146104e9578063cd47bde114610509578063d0e30db01461019e5761019e565b806395d89b41116100b057806395d89b4114610463578063977a5ec5146104a9578063a7e21e80146104c95761019e565b806379502c55146103c65780637eee288d146104185780638da5cb5b146104385761019e565b8063313ce567116101385780636a42b8f8116101125780636a42b8f81461033b57806370a082311461036e578063715018a6146103b15761019e565b8063313ce567146102ab578063485cc955146102d257806354fd4d50146102f25761019e565b806318160ddd1161016957806318160ddd1461024e57806323b872dd1461026b5780632e1a7d4d1461028b5761019e565b806306fdde03146101a6578063095ea7b3146101fe5780630ca356821461022e5761019e565b3661019e5761019c6105f0565b005b61019c6105f0565b3480156101b257600080fd5b5060408051808201909152600d81527f577261707065642045746865720000000000000000000000000000000000000060208201525b6040516101f59190611430565b60405180910390f35b34801561020a57600080fd5b5061021e6102193660046114c5565b61064b565b60405190151581526020016101f5565b34801561023a57600080fd5b5061019c6102493660046114f1565b6106c4565b34801561025a57600080fd5b50475b6040519081526020016101f5565b34801561027757600080fd5b5061021e61028636600461150a565b610815565b34801561029757600080fd5b5061019c6102a63660046114f1565b6109e8565b3480156102b757600080fd5b506102c0601281565b60405160ff90911681526020016101f5565b3480156102de57600080fd5b5061019c6102ed36600461154b565b6109f5565b3480156102fe57600080fd5b506101e86040518060400160405280600581526020017f312e332e3000000000000000000000000000000000000000000000000000000081525081565b34801561034757600080fd5b507f000000000000000000000000000000000000000000000000000000000000000061025d565b34801561037a57600080fd5b5061025d610389366004611584565b73ffffffffffffffffffffffffffffffffffffffff1660009081526065602052604090205490565b3480156103bd57600080fd5b5061019c610bd1565b3480156103d257600080fd5b506068546103f39073ffffffffffffffffffffffffffffffffffffffff1681565b60405173ffffffffffffffffffffffffffffffffffffffff90911681526020016101f5565b34801561042457600080fd5b5061019c6104333660046114c5565b610be5565b34801561044457600080fd5b5060335473ffffffffffffffffffffffffffffffffffffffff166103f3565b34801561046f57600080fd5b5060408051808201909152600481527f574554480000000000000000000000000000000000000000000000000000000060208201526101e8565b3480156104b557600080fd5b5061019c6104c43660046114c5565b610c39565b3480156104d557600080fd5b5061019c6104e4366004611584565b610d2d565b3480156104f557600080fd5b5061021e6105043660046114c5565b610d5d565b34801561051557600080fd5b5061054861052436600461154b565b60676020908152600092835260408084209091529082529020805460019091015482565b604080519283526020830191909152016101f5565b34801561056957600080fd5b5061025d61057836600461154b565b73ffffffffffffffffffffffffffffffffffffffff918216600090815260666020908152604080832093909416825291909152205490565b3480156105bc57600080fd5b5061019c6105cb366004611584565b610d71565b3480156105dc57600080fd5b5061019c6105eb3660046114c5565b610e25565b336000908152606560205260408120805434929061060f9084906115d0565b909155505060405134815233907fe1fffcc4923d04b559f4d29a8bfc6cda04eb5b0d3c460751c2402c5c5cc9109c9060200160405180910390a2565b33600081815260666020908152604080832073ffffffffffffffffffffffffffffffffffffffff8716808552925280832085905551919290917f8c5be1e5ebec7d5bd14f71427d1e84f3dd0314c0f7b2291e5b200ac8c7c3b925906106b39086815260200190565b60405180910390a350600192915050565b60335473ffffffffffffffffffffffffffffffffffffffff16331461074a576040517f08c379a000000000000000000000000000000000000000000000000000000000815260206004820152601660248201527f44656c61796564574554483a206e6f74206f776e65720000000000000000000060448201526064015b60405180910390fd5b6000478210610759574761075b565b815b604051909150600090339083908381818185875af1925050503d80600081146107a0576040519150601f19603f3d011682016040523d82523d6000602084013e6107a5565b606091505b5050905080610810576040517f08c379a000000000000000000000000000000000000000000000000000000000815260206004820152601b60248201527f44656c61796564574554483a207265636f766572206661696c656400000000006044820152606401610741565b505050565b73ffffffffffffffffffffffffffffffffffffffff831660009081526065602052604081205482111561084757600080fd5b73ffffffffffffffffffffffffffffffffffffffff841660008181526066602090815260408083203380855292529091205491148015906108a857507fffffffffffffffffffffffffffffffffffffffffffffffffffffffffffffffff8114155b1561090057828110156108ba57600080fd5b73ffffffffffffffffffffffffffffffffffffffff85166000908152606660209081526040808320338452909152812080548592906108fa9084906115e8565b90915550505b73ffffffffffffffffffffffffffffffffffffffff8516600090815260656020526040812080548592906109359084906115e8565b909155505073ffffffffffffffffffffffffffffffffffffffff84166000908152606560205260408120805485929061096f9084906115d0565b925050819055508373ffffffffffffffffffffffffffffffffffffffff168573ffffffffffffffffffffffffffffffffffffffff167fddf252ad1be2c89b69c2b068fc378daa952ba7f163c4a11628f55a4df523b3ef856040516109d591815260200190565b60405180910390a3506001949350505050565b6109f23382610e25565b50565b600054610100900460ff1615808015610a155750600054600160ff909116105b80610a2f5750303b158015610a2f575060005460ff166001145b610abb576040517f08c379a000000000000000000000000000000000000000000000000000000000815260206004820152602e60248201527f496e697469616c697a61626c653a20636f6e747261637420697320616c72656160448201527f647920696e697469616c697a65640000000000000000000000000000000000006064820152608401610741565b600080547fffffffffffffffffffffffffffffffffffffffffffffffffffffffffffffff001660011790558015610b1957600080547fffffffffffffffffffffffffffffffffffffffffffffffffffffffffffff00ff166101001790555b610b21611153565b610b2a836111f2565b606880547fffffffffffffffffffffffff00000000000000000000000000000000000000001673ffffffffffffffffffffffffffffffffffffffff8416179055801561081057600080547fffffffffffffffffffffffffffffffffffffffffffffffffffffffffffff00ff169055604051600181527f7f26b83ff96e1f2b6a682f133852f6798a09c465da95921460cefb38474024989060200160405180910390a1505050565b610bd9611269565b610be360006111f2565b565b33600090815260676020908152604080832073ffffffffffffffffffffffffffffffffffffffff861684529091528120426001820155805490918391839190610c2f9084906115d0565b9091555050505050565b60335473ffffffffffffffffffffffffffffffffffffffff163314610cba576040517f08c379a000000000000000000000000000000000000000000000000000000000815260206004820152601660248201527f44656c61796564574554483a206e6f74206f776e6572000000000000000000006044820152606401610741565b73ffffffffffffffffffffffffffffffffffffffff821660008181526066602090815260408083203380855290835292819020859055518481529192917f8c5be1e5ebec7d5bd14f71427d1e84f3dd0314c0f7b2291e5b200ac8c7c3b925910160405180910390a3610810823383610815565b6109f2816104c48373ffffffffffffffffffffffffffffffffffffffff1660009081526065602052604090205490565b6000610d6a338484610815565b9392505050565b610d79611269565b73ffffffffffffffffffffffffffffffffffffffff8116610e1c576040517f08c379a000000000000000000000000000000000000000000000000000000000815260206004820152602660248201527f4f776e61626c653a206e6577206f776e657220697320746865207a65726f206160448201527f64647265737300000000000000000000000000000000000000000000000000006064820152608401610741565b6109f2816111f2565b606860009054906101000a900473ffffffffffffffffffffffffffffffffffffffff1673ffffffffffffffffffffffffffffffffffffffff16635c975abb6040518163ffffffff1660e01b8152600401602060405180830381865afa158015610e92573d6000803e3d6000fd5b505050506040513d601f19601f82011682018060405250810190610eb691906115ff565b15610f1d576040517f08c379a000000000000000000000000000000000000000000000000000000000815260206004820152601f60248201527f44656c61796564574554483a20636f6e747261637420697320706175736564006044820152606401610741565b33600090815260676020908152604080832073ffffffffffffffffffffffffffffffffffffffff8616845290915290208054821115610fde576040517f08c379a000000000000000000000000000000000000000000000000000000000815260206004820152602d60248201527f44656c61796564574554483a20696e73756666696369656e7420756e6c6f636b60448201527f6564207769746864726177616c000000000000000000000000000000000000006064820152608401610741565b6000816001015411611071576040517f08c379a0000000000000000000000000000000000000000000000000000000008152602060048201526024808201527f44656c61796564574554483a207769746864726177616c206e6f7420756e6c6f60448201527f636b6564000000000000000000000000000000000000000000000000000000006064820152608401610741565b427f000000000000000000000000000000000000000000000000000000000000000082600101546110a291906115d0565b1115611130576040517f08c379a000000000000000000000000000000000000000000000000000000000815260206004820152602560248201527f44656c61796564574554483a207769746864726177616c2064656c6179206e6f60448201527f74206d65740000000000000000000000000000000000000000000000000000006064820152608401610741565b8181600001600082825461114491906115e8565b909155506108109050826112ea565b600054610100900460ff166111ea576040517f08c379a000000000000000000000000000000000000000000000000000000000815260206004820152602b60248201527f496e697469616c697a61626c653a20636f6e7472616374206973206e6f74206960448201527f6e697469616c697a696e670000000000000000000000000000000000000000006064820152608401610741565b610be3611390565b6033805473ffffffffffffffffffffffffffffffffffffffff8381167fffffffffffffffffffffffff0000000000000000000000000000000000000000831681179093556040519116919082907f8be0079c531659141344cd1fd0a4f28419497f9722a3daafe3b4186f6b6457e090600090a35050565b60335473ffffffffffffffffffffffffffffffffffffffff163314610be3576040517f08c379a000000000000000000000000000000000000000000000000000000000815260206004820181905260248201527f4f776e61626c653a2063616c6c6572206973206e6f7420746865206f776e65726044820152606401610741565b3360009081526065602052604090205481111561130657600080fd5b33600090815260656020526040812080548392906113259084906115e8565b9091555050604051339082156108fc029083906000818181858888f19350505050158015611357573d6000803e3d6000fd5b5060405181815233907f7fcf532c15f0a6db0bd6d0e038bea71d30d808c7d98cb3bf7268a95bf5081b659060200160405180910390a250565b600054610100900460ff16611427576040517f08c379a000000000000000000000000000000000000000000000000000000000815260206004820152602b60248201527f496e697469616c697a61626c653a20636f6e7472616374206973206e6f74206960448201527f6e697469616c697a696e670000000000000000000000000000000000000000006064820152608401610741565b610be3336111f2565b600060208083528351808285015260005b8181101561145d57858101830151858201604001528201611441565b8181111561146f576000604083870101525b50601f017fffffffffffffffffffffffffffffffffffffffffffffffffffffffffffffffe016929092016040019392505050565b73ffffffffffffffffffffffffffffffffffffffff811681146109f257600080fd5b600080604083850312156114d857600080fd5b82356114e3816114a3565b946020939093013593505050565b60006020828403121561150357600080fd5b5035919050565b60008060006060848603121561151f57600080fd5b833561152a816114a3565b9250602084013561153a816114a3565b929592945050506040919091013590565b6000806040838503121561155e57600080fd5b8235611569816114a3565b91506020830135611579816114a3565b809150509250929050565b60006020828403121561159657600080fd5b8135610d6a816114a3565b7f4e487b7100000000000000000000000000000000000000000000000000000000600052601160045260246000fd5b600082198211156115e3576115e36115a1565b500190565b6000828210156115fa576115fa6115a1565b500390565b60006020828403121561161157600080fd5b81518015158114610d6a57600080fdfea164736f6c634300080f000a","linkReferences":{}},"methodIdentifiers":{"allowance(address,address)":"dd62ed3e","approve(address,uint256)":"095ea7b3","balanceOf(address)":"70a08231","config()":"79502c55","decimals()":"313ce567","delay()":"6a42b8f8","deposit()":"d0e30db0","hold(address)":"a7e21e80","hold(address,uint256)":"977a5ec5","initialize(address,address)":"485cc955","name()":"06fdde03","owner()":"8da5cb5b","recover(uint256)":"0ca35682","renounceOwnership()":"715018a6","symbol()":"95d89b41","totalSupply()":"18160ddd","transfer(address,uint256)":"a9059cbb","transferFrom(address,address,uint256)":"23b872dd","transferOwnership(address)":"f2fde38b","unlock(address,uint256)":"7eee288d","version()":"54fd4d50","withdraw(address,uint256)":"f3fef3a3","withdraw(uint256)":"2e1a7d4d","withdrawals(address,address)":"cd47bde1"},"storageLayout":{"storage":[{"astId":48135,"contract":"src/dispute/DelayedWETH.sol:DelayedWETH","label":"_initialized","offset":0,"slot":"0","type":"t_uint8"},{"astId":48138,"contract":"src/dispute/DelayedWETH.sol:DelayedWETH","label":"_initializing","offset":1,"slot":"0","type":"t_bool"},{"astId":48563,"contract":"src/dispute/DelayedWETH.sol:DelayedWETH","label":"__gap","offset":0,"slot":"1","type":"t_array(t_uint256)50_storage"},{"astId":48007,"contract":"src/dispute/DelayedWETH.sol:DelayedWETH","label":"_owner","offset":0,"slot":"51","type":"t_address"},{"astId":48127,"contract":"src/dispute/DelayedWETH.sol:DelayedWETH","label":"__gap","offset":0,"slot":"52","type":"t_array(t_uint256)49_storage"},{"astId":131735,"contract":"src/dispute/DelayedWETH.sol:DelayedWETH","label":"_balanceOf","offset":0,"slot":"101","type":"t_mapping(t_address,t_uint256)"},{"astId":131741,"contract":"src/dispute/DelayedWETH.sol:DelayedWETH","label":"_allowance","offset":0,"slot":"102","type":"t_mapping(t_address,t_mapping(t_address,t_uint256))"},{"astId":118077,"contract":"src/dispute/DelayedWETH.sol:DelayedWETH","label":"withdrawals","offset":0,"slot":"103","type":"t_mapping(t_address,t_mapping(t_address,t_struct(WithdrawalRequest)118065_storage))"},{"astId":118084,"contract":"src/dispute/DelayedWETH.sol:DelayedWETH","label":"config","offset":0,"slot":"104","type":"t_contract(ISuperchainConfig)1836"}],"types":{"t_address":{"encoding":"inplace","label":"address","numberOfBytes":"20"},"t_array(t_uint256)49_storage":{"encoding":"inplace","label":"uint256[49]","numberOfBytes":"1568","base":"t_uint256"},"t_array(t_uint256)50_storage":{"encoding":"inplace","label":"uint256[50]","numberOfBytes":"1600","base":"t_uint256"},"t_bool":{"encoding":"inplace","label":"bool","numberOfBytes":"1"},"t_contract(ISuperchainConfig)1836":{"encoding":"inplace","label":"contract ISuperchainConfig","numberOfBytes":"20"},"t_mapping(t_address,t_mapping(t_address,t_struct(WithdrawalRequest)118065_storage))":{"encoding":"mapping","key":"t_address","label":"mapping(address => mapping(address => struct DelayedWETH.WithdrawalRequest))","numberOfBytes":"32","value":"t_mapping(t_address,t_struct(WithdrawalRequest)118065_storage)"},"t_mapping(t_address,t_mapping(t_address,t_uint256))":{"encoding":"mapping","key":"t_address","label":"mapping(address => mapping(address => uint256))","numberOfBytes":"32","value":"t_mapping(t_address,t_uint256)"},"t_mapping(t_address,t_struct(WithdrawalRequest)118065_storage)":{"encoding":"mapping","key":"t_address","label":"mapping(address => struct DelayedWETH.WithdrawalRequest)","numberOfBytes":"32","value":"t_struct(WithdrawalRequest)118065_storage"},"t_mapping(t_address,t_uint256)":{"encoding":"mapping","key":"t_address","label":"mapping(address => uint256)","numberOfBytes":"32","value":"t_uint256"},"t_struct(WithdrawalRequest)118065_storage":{"encoding":"inplace","label":"struct DelayedWETH.WithdrawalRequest","numberOfBytes":"64","members":[{"astId":118062,"contract":"src/dispute/DelayedWETH.sol:DelayedWETH","label":"amount","offset":0,"slot":"0","type":"t_uint256"},{"astId":118064,"contract":"src/dispute/DelayedWETH.sol:DelayedWETH","label":"timestamp","offset":0,"slot":"1","type":"t_uint256"}]},"t_uint256":{"encoding":"inplace","label":"uint256","numberOfBytes":"32"},"t_uint8":{"encoding":"inplace","label":"uint8","numberOfBytes":"1"}}},"userdoc":{"version":1,"kind":"user","methods":{"allowance(address,address)":{"notice":"Returns the amount of WETH that the spender can transfer on behalf of the owner."},"approve(address,uint256)":{"notice":"Approves the given address to transfer the WETH on behalf of the caller."},"balanceOf(address)":{"notice":"Returns the balance of the given address."},"config()":{"notice":"Address of the SuperchainConfig contract."},"decimals()":{"notice":"Returns the number of decimals the token uses."},"delay()":{"notice":"Returns the withdrawal delay in seconds."},"deposit()":{"notice":"Allows WETH to be deposited by sending ether to the contract."},"hold(address)":{"notice":"Allows the owner to recover from error cases by pulling all WETH from a specific owner."},"hold(address,uint256)":{"notice":"Allows the owner to recover from error cases by pulling a specific amount of WETH from a specific owner."},"initialize(address,address)":{"notice":"Initializes the contract."},"name()":{"notice":"Returns the name of the token."},"recover(uint256)":{"notice":"Allows the owner to recover from error cases by pulling ETH out of the contract."},"symbol()":{"notice":"Returns the symbol of the token."},"totalSupply()":{"notice":"Returns the total supply of WETH."},"transfer(address,uint256)":{"notice":"Transfers the given amount of WETH to the given address."},"transferFrom(address,address,uint256)":{"notice":"Transfers the given amount of WETH from the given address to the given address."},"unlock(address,uint256)":{"notice":"Unlocks withdrawals for the sender's account, after a time delay."},"version()":{"notice":"Semantic version."},"withdraw(address,uint256)":{"notice":"Extension to withdrawal, must provide a sub-account to withdraw from."},"withdraw(uint256)":{"notice":"Withdraws an amount of ETH."},"withdrawals(address,address)":{"notice":"Returns a withdrawal request for the given address."}},"events":{"Approval(address,address,uint256)":{"notice":"Emitted when an approval is made."},"Deposit(address,uint256)":{"notice":"Emitted when a deposit is made."},"Transfer(address,address,uint256)":{"notice":"Emitted when a transfer is made."},"Withdrawal(address,uint256)":{"notice":"Emitted when a withdrawal is made."}},"notice":"DelayedWETH is an extension to WETH9 that allows for delayed withdrawals. Accounts must trigger an unlock         function before they can withdraw WETH. Accounts must trigger unlock by specifying a sub-account and an         amount of WETH to unlock. Accounts can trigger the unlock function at any time, but must wait a delay         period before they can withdraw after the unlock function is triggered. DelayedWETH is designed to be used         by the DisputeGame contracts where unlock will only be triggered after a dispute is resolved. DelayedWETH         is meant to sit behind a proxy contract and has an owner address that can pull WETH from any account and         can recover ETH from the contract itself. Variable and function naming vaguely follows the vibe of WETH9.         Not the prettiest contract in the world, but it gets the job done."},"devdoc":{"version":1,"kind":"dev","methods":{"allowance(address,address)":{"params":{"owner":"The address that owns the WETH.","spender":"The address that is approved to transfer the WETH."},"returns":{"_0":"The amount of WETH that the spender can transfer on behalf of the owner."}},"approve(address,uint256)":{"params":{"guy":"The address that is approved to transfer the WETH.","wad":"The amount that is approved to transfer."},"returns":{"_0":"True if the approval was successful."}},"balanceOf(address)":{"params":{"src":"The address to query the balance of."},"returns":{"_0":"The balance of the given address."}},"constructor":{"params":{"_delay":"The delay for withdrawals in seconds."}},"delay()":{"returns":{"_0":"The withdrawal delay in seconds."}},"hold(address)":{"params":{"_guy":"The address to recover the WETH from."}},"hold(address,uint256)":{"params":{"_guy":"The address to recover the WETH from.","_wad":"The amount of WETH to recover."}},"initialize(address,address)":{"params":{"_config":"Address of the SuperchainConfig contract.","_owner":"The address of the owner."}},"name()":{"returns":{"_0":"name_ The name of the token."}},"owner()":{"details":"Returns the address of the current owner."},"recover(uint256)":{"params":{"_wad":"The amount of WETH to recover."}},"renounceOwnership()":{"details":"Leaves the contract without owner. It will not be possible to call `onlyOwner` functions anymore. Can only be called by the current owner. NOTE: Renouncing ownership will leave the contract without an owner, thereby removing any functionality that is only available to the owner."},"symbol()":{"returns":{"_0":"symbol_ The symbol of the token."}},"totalSupply()":{"returns":{"_0":"The total supply of WETH."}},"transfer(address,uint256)":{"params":{"dst":"The address to transfer the WETH to.","wad":"The amount of WETH to transfer."},"returns":{"_0":"True if the transfer was successful."}},"transferFrom(address,address,uint256)":{"params":{"dst":"The address to transfer the WETH to.","src":"The address to transfer the WETH from.","wad":"The amount of WETH to transfer."},"returns":{"_0":"True if the transfer was successful."}},"transferOwnership(address)":{"details":"Transfers ownership of the contract to a new account (`newOwner`). Can only be called by the current owner."},"unlock(address,uint256)":{"params":{"_guy":"Sub-account to unlock.","_wad":"The amount of WETH to unlock."}},"withdraw(address,uint256)":{"params":{"_guy":"Sub-account to withdraw from.","_wad":"The amount of WETH to withdraw."}},"withdraw(uint256)":{"params":{"_wad":"The amount of ETH to withdraw."}}},"title":"DelayedWETH"},"id":251}