{"abi":[{"type":"fallback","stateMutability":"payable"},{"type":"receive","stateMutability":"payable"},{"type":"function","name":"allowance","inputs":[{"name":"owner","type":"address","internalType":"address"},{"name":"spender","type":"address","internalType":"address"}],"outputs":[{"name":"","type":"uint256","internalType":"uint256"}],"stateMutability":"view"},{"type":"function","name":"approve","inputs":[{"name":"guy","type":"address","internalType":"address"},{"name":"wad","type":"uint256","internalType":"uint256"}],"outputs":[{"name":"","type":"bool","internalType":"bool"}],"stateMutability":"nonpayable"},{"type":"function","name":"balanceOf","inputs":[{"name":"src","type":"address","internalType":"address"}],"outputs":[{"name":"","type":"uint256","internalType":"uint256"}],"stateMutability":"view"},{"type":"function","name":"crosschainBurn","inputs":[{"name":"_from","type":"address","internalType":"address"},{"name":"_amount","type":"uint256","internalType":"uint256"}],"outputs":[],"stateMutability":"nonpayable"},{"type":"function","name":"crosschainMint","inputs":[{"name":"_to","type":"address","internalType":"address"},{"name":"_amount","type":"uint256","internalType":"uint256"}],"outputs":[],"stateMutability":"nonpayable"},{"type":"function","name":"decimals","inputs":[],"outputs":[{"name":"","type":"uint8","internalType":"uint8"}],"stateMutability":"view"},{"type":"function","name":"deposit","inputs":[],"outputs":[],"stateMutability":"payable"},{"type":"function","name":"name","inputs":[],"outputs":[{"name":"","type":"string","internalType":"string"}],"stateMutability":"view"},{"type":"function","name":"relayETH","inputs":[{"name":"_from","type":"address","internalType":"address"},{"name":"_to","type":"address","internalType":"address"},{"name":"_amount","type":"uint256","internalType":"uint256"}],"outputs":[],"stateMutability":"nonpayable"},{"type":"function","name":"sendETH","inputs":[{"name":"_to","type":"address","internalType":"address"},{"name":"_chainId","type":"uint256","internalType":"uint256"}],"outputs":[{"name":"msgHash_","type":"bytes32","internalType":"bytes32"}],"stateMutability":"payable"},{"type":"function","name":"supportsInterface","inputs":[{"name":"_interfaceId","type":"bytes4","internalType":"bytes4"}],"outputs":[{"name":"","type":"bool","internalType":"bool"}],"stateMutability":"view"},{"type":"function","name":"symbol","inputs":[],"outputs":[{"name":"","type":"string","internalType":"string"}],"stateMutability":"view"},{"type":"function","name":"totalSupply","inputs":[],"outputs":[{"name":"","type":"uint256","internalType":"uint256"}],"stateMutability":"view"},{"type":"function","name":"transfer","inputs":[{"name":"dst","type":"address","internalType":"address"},{"name":"wad","type":"uint256","internalType":"uint256"}],"outputs":[{"name":"","type":"bool","internalType":"bool"}],"stateMutability":"nonpayable"},{"type":"function","name":"transferFrom","inputs":[{"name":"src","type":"address","internalType":"address"},{"name":"dst","type":"address","internalType":"address"},{"name":"wad","type":"uint256","internalType":"uint256"}],"outputs":[{"name":"","type":"bool","internalType":"bool"}],"stateMutability":"nonpayable"},{"type":"function","name":"version","inputs":[],"outputs":[{"name":"","type":"string","internalType":"string"}],"stateMutability":"view"},{"type":"function","name":"withdraw","inputs":[{"name":"wad","type":"uint256","internalType":"uint256"}],"outputs":[],"stateMutability":"nonpayable"},{"type":"event","name":"Approval","inputs":[{"name":"src","type":"address","indexed":true,"internalType":"address"},{"name":"guy","type":"address","indexed":true,"internalType":"address"},{"name":"wad","type":"uint256","indexed":false,"internalType":"uint256"}],"anonymous":false},{"type":"event","name":"CrosschainBurn","inputs":[{"name":"from","type":"address","indexed":true,"internalType":"address"},{"name":"amount","type":"uint256","indexed":false,"internalType":"uint256"},{"name":"sender","type":"address","indexed":true,"internalType":"address"}],"anonymous":false},{"type":"event","name":"CrosschainMint","inputs":[{"name":"to","type":"address","indexed":true,"internalType":"address"},{"name":"amount","type":"uint256","indexed":false,"internalType":"uint256"},{"name":"sender","type":"address","indexed":true,"internalType":"address"}],"anonymous":false},{"type":"event","name":"Deposit","inputs":[{"name":"dst","type":"address","indexed":true,"internalType":"address"},{"name":"wad","type":"uint256","indexed":false,"internalType":"uint256"}],"anonymous":false},{"type":"event","name":"RelayETH","inputs":[{"name":"from","type":"address","indexed":true,"internalType":"address"},{"name":"to","type":"address","indexed":true,"internalType":"address"},{"name":"amount","type":"uint256","indexed":false,"internalType":"uint256"},{"name":"source","type":"uint256","indexed":false,"internalType":"uint256"}],"anonymous":false},{"type":"event","name":"SendETH","inputs":[{"name":"from","type":"address","indexed":true,"internalType":"address"},{"name":"to","type":"address","indexed":true,"internalType":"address"},{"name":"amount","type":"uint256","indexed":false,"internalType":"uint256"},{"name":"destination","type":"uint256","indexed":false,"internalType":"uint256"}],"anonymous":false},{"type":"event","name":"Transfer","inputs":[{"name":"src","type":"address","indexed":true,"internalType":"address"},{"name":"dst","type":"address","indexed":true,"internalType":"address"},{"name":"wad","type":"uint256","indexed":false,"internalType":"uint256"}],"anonymous":false},{"type":"event","name":"Withdrawal","inputs":[{"name":"src","type":"address","indexed":true,"internalType":"address"},{"name":"wad","type":"uint256","indexed":false,"internalType":"uint256"}],"anonymous":false},{"type":"error","name":"InvalidCrossDomainSender","inputs":[]},{"type":"error","name":"Unauthorized","inputs":[]},{"type":"error","name":"ZeroAddress","inputs":[]}],"bytecode":{"object":"0x608060405234801561001057600080fd5b506113ac806100206000396000f3fe6080604052600436106101125760003560e01c8063313ce567116100a557806370a0823111610074578063a9059cbb11610059578063a9059cbb14610396578063d0e30db014610121578063dd62ed3e146103b657610121565b806370a082311461030d57806395d89b411461035057610121565b8063313ce5671461026a5780634f0edcc91461029157806354fd4d50146102b157806364a197f3146102fa57610121565b806318bf5077116100e157806318bf5077146101ea57806323b872dd1461020a5780632b8c49e31461022a5780632e1a7d4d1461024a57610121565b806301ffc9a71461012957806306fdde031461015e578063095ea7b3146101ad57806318160ddd146101cd57610121565b366101215761011f6103d6565b005b61011f6103d6565b34801561013557600080fd5b506101496101443660046110a2565b610431565b60405190151581526020015b60405180910390f35b34801561016a57600080fd5b5060408051808201909152600d81527f577261707065642045746865720000000000000000000000000000000000000060208201525b604051610155919061114f565b3480156101b957600080fd5b506101496101c8366004611187565b610516565b3480156101d957600080fd5b50475b604051908152602001610155565b3480156101f657600080fd5b5061011f610205366004611187565b61058f565b34801561021657600080fd5b506101496102253660046111b3565b6106b6565b34801561023657600080fd5b5061011f610245366004611187565b61087c565b34801561025657600080fd5b5061011f6102653660046111f4565b610992565b34801561027657600080fd5b5061027f601281565b60405160ff9091168152602001610155565b34801561029d57600080fd5b5061011f6102ac3660046111b3565b610a38565b3480156102bd57600080fd5b506101a06040518060400160405280600d81526020017f312e302e302d626574612e31340000000000000000000000000000000000000081525081565b6101dc610308366004611187565b610c9d565b34801561031957600080fd5b506101dc61032836600461120d565b73ffffffffffffffffffffffffffffffffffffffff1660009081526020819052604090205490565b34801561035c57600080fd5b5060408051808201909152600481527f574554480000000000000000000000000000000000000000000000000000000060208201526101a0565b3480156103a257600080fd5b506101496103b1366004611187565b610eda565b3480156103c257600080fd5b506101dc6103d136600461122a565b610eee565b33600090815260208190526040812080543492906103f5908490611292565b909155505060405134815233907fe1fffcc4923d04b559f4d29a8bfc6cda04eb5b0d3c460751c2402c5c5cc9109c9060200160405180910390a2565b60007fffffffff0000000000000000000000000000000000000000000000000000000082167f333319940000000000000000000000000000000000000000000000000000000014806104c457507fffffffff0000000000000000000000000000000000000000000000000000000082167f36372b0700000000000000000000000000000000000000000000000000000000145b8061051057507fffffffff0000000000000000000000000000000000000000000000000000000082167f01ffc9a700000000000000000000000000000000000000000000000000000000145b92915050565b33600081815260016020908152604080832073ffffffffffffffffffffffffffffffffffffffff8716808552925280832085905551919290917f8c5be1e5ebec7d5bd14f71427d1e84f3dd0314c0f7b2291e5b200ac8c7c3b9259061057e9086815260200190565b60405180910390a350600192915050565b33734200000000000000000000000000000000000028146105dc576040517f82b4290000000000000000000000000000000000000000000000000000000000815260040160405180910390fd5b6105e68282610f8c565b6040517fa0712d68000000000000000000000000000000000000000000000000000000008152600481018290527342000000000000000000000000000000000000259063a0712d6890602401600060405180830381600087803b15801561064c57600080fd5b505af1158015610660573d6000803e3d6000fd5b505060405183815233925073ffffffffffffffffffffffffffffffffffffffff851691507fde22baff038e3a3e08407cbdf617deed74e869a7ba517df611e33131c6e6ea04906020015b60405180910390a35050565b73ffffffffffffffffffffffffffffffffffffffff83166000908152602081905260408120548211156106e857600080fd5b60006106f48533610eee565b905073ffffffffffffffffffffffffffffffffffffffff8516331480159061073c57507fffffffffffffffffffffffffffffffffffffffffffffffffffffffffffffffff8114155b15610794578281101561074e57600080fd5b73ffffffffffffffffffffffffffffffffffffffff851660009081526001602090815260408083203384529091528120805485929061078e9084906112aa565b90915550505b73ffffffffffffffffffffffffffffffffffffffff8516600090815260208190526040812080548592906107c99084906112aa565b909155505073ffffffffffffffffffffffffffffffffffffffff841660009081526020819052604081208054859290610803908490611292565b925050819055508373ffffffffffffffffffffffffffffffffffffffff168573ffffffffffffffffffffffffffffffffffffffff167fddf252ad1be2c89b69c2b068fc378daa952ba7f163c4a11628f55a4df523b3ef8560405161086991815260200190565b60405180910390a3506001949350505050565b33734200000000000000000000000000000000000028146108c9576040517f82b4290000000000000000000000000000000000000000000000000000000000815260040160405180910390fd5b6108d38282611011565b73420000000000000000000000000000000000002573ffffffffffffffffffffffffffffffffffffffff166344df8e70826040518263ffffffff1660e01b81526004016000604051808303818588803b15801561092f57600080fd5b505af1158015610943573d6000803e3d6000fd5b505060405184815233935073ffffffffffffffffffffffffffffffffffffffff861692507fb90795a66650155983e242cac3e1ac1a4dc26f8ed2987f3ce416a34e00111fd491506020016106aa565b336000908152602081905260409020548111156109ae57600080fd5b33600090815260208190526040812080548392906109cd9084906112aa565b9091555050604051339082156108fc029083906000818181858888f193505050501580156109ff573d6000803e3d6000fd5b5060405181815233907f7fcf532c15f0a6db0bd6d0e038bea71d30d808c7d98cb3bf7268a95bf5081b659060200160405180910390a250565b3373420000000000000000000000000000000000002314610a85576040517f82b4290000000000000000000000000000000000000000000000000000000000815260040160405180910390fd5b60008073420000000000000000000000000000000000002373ffffffffffffffffffffffffffffffffffffffff16637936cbee6040518163ffffffff1660e01b81526004016040805180830381865afa158015610ae6573d6000803e3d6000fd5b505050506040513d601f19601f82011682018060405250810190610b0a91906112c1565b909250905073ffffffffffffffffffffffffffffffffffffffff82163014610b5e576040517fbc22e2aa00000000000000000000000000000000000000000000000000000000815260040160405180910390fd5b6040517fa0712d68000000000000000000000000000000000000000000000000000000008152600481018490527342000000000000000000000000000000000000259063a0712d6890602401600060405180830381600087803b158015610bc457600080fd5b505af1158015610bd8573d6000803e3d6000fd5b505050508284604051610bea90611096565b73ffffffffffffffffffffffffffffffffffffffff90911681526020016040518091039082f0905080158015610c24573d6000803e3d6000fd5b50508373ffffffffffffffffffffffffffffffffffffffff168573ffffffffffffffffffffffffffffffffffffffff167fe5479bb8ebad3b9ac81f55f424a6289cf0a54ff2641708f41dcb2b26f264d3598584604051610c8e929190918252602082015260400190565b60405180910390a35050505050565b600073ffffffffffffffffffffffffffffffffffffffff8316610cec576040517fd92e233d00000000000000000000000000000000000000000000000000000000815260040160405180910390fd5b73420000000000000000000000000000000000002573ffffffffffffffffffffffffffffffffffffffff166344df8e70346040518263ffffffff1660e01b81526004016000604051808303818588803b158015610d4857600080fd5b505af1158015610d5c573d6000803e3d6000fd5b50506040805133602482015273ffffffffffffffffffffffffffffffffffffffff881660448201523460648083019190915282518083039091018152608490910182526020810180517bffffffffffffffffffffffffffffffffffffffffffffffffffffffff167f4f0edcc90000000000000000000000000000000000000000000000000000000017905290517f7056f41f0000000000000000000000000000000000000000000000000000000081527342000000000000000000000000000000000000239450637056f41f9350610e3b9250869130916004016112ef565b6020604051808303816000875af1158015610e5a573d6000803e3d6000fd5b505050506040513d601f19601f82011682018060405250810190610e7e919061132d565b604080513481526020810185905291925073ffffffffffffffffffffffffffffffffffffffff85169133917fed98a2ff78833375c368471a747cdf0633024dde3f870feb08a934ac5be83402910160405180910390a392915050565b6000610ee73384846106b6565b9392505050565b60007fffffffffffffffffffffffffffffffffffdd2b8cfcf0ee922116094bc538745d73ffffffffffffffffffffffffffffffffffffffff831601610f5457507fffffffffffffffffffffffffffffffffffffffffffffffffffffffffffffffff610510565b73ffffffffffffffffffffffffffffffffffffffff808416600090815260016020908152604080832093861683529290522054610ee7565b73ffffffffffffffffffffffffffffffffffffffff821660009081526020819052604081208054839290610fc1908490611292565b909155505060405181815273ffffffffffffffffffffffffffffffffffffffff8316906000907fddf252ad1be2c89b69c2b068fc378daa952ba7f163c4a11628f55a4df523b3ef906020016106aa565b73ffffffffffffffffffffffffffffffffffffffff8216600090815260208190526040812080548392906110469084906112aa565b909155505060405181815260009073ffffffffffffffffffffffffffffffffffffffff8416907fddf252ad1be2c89b69c2b068fc378daa952ba7f163c4a11628f55a4df523b3ef906020016106aa565b60598061134783390190565b6000602082840312156110b457600080fd5b81357fffffffff0000000000000000000000000000000000000000000000000000000081168114610ee757600080fd5b6000815180845260005b8181101561110a576020818501810151868301820152016110ee565b8181111561111c576000602083870101525b50601f017fffffffffffffffffffffffffffffffffffffffffffffffffffffffffffffffe0169290920160200192915050565b602081526000610ee760208301846110e4565b73ffffffffffffffffffffffffffffffffffffffff8116811461118457600080fd5b50565b6000806040838503121561119a57600080fd5b82356111a581611162565b946020939093013593505050565b6000806000606084860312156111c857600080fd5b83356111d381611162565b925060208401356111e381611162565b929592945050506040919091013590565b60006020828403121561120657600080fd5b5035919050565b60006020828403121561121f57600080fd5b8135610ee781611162565b6000806040838503121561123d57600080fd5b823561124881611162565b9150602083013561125881611162565b809150509250929050565b7f4e487b7100000000000000000000000000000000000000000000000000000000600052601160045260246000fd5b600082198211156112a5576112a5611263565b500190565b6000828210156112bc576112bc611263565b500390565b600080604083850312156112d457600080fd5b82516112df81611162565b6020939093015192949293505050565b83815273ffffffffffffffffffffffffffffffffffffffff8316602082015260606040820152600061132460608301846110e4565b95945050505050565b60006020828403121561133f57600080fd5b505191905056fe608060405260405160593803806059833981016040819052601e91602a565b806001600160a01b0316ff5b600060208284031215603b57600080fd5b81516001600160a01b0381168114605157600080fd5b939250505056fea164736f6c634300080f000a","linkReferences":{}},"methodIdentifiers":{"allowance(address,address)":"dd62ed3e","approve(address,uint256)":"095ea7b3","balanceOf(address)":"70a08231","crosschainBurn(address,uint256)":"2b8c49e3","crosschainMint(address,uint256)":"18bf5077","decimals()":"313ce567","deposit()":"d0e30db0","name()":"06fdde03","relayETH(address,address,uint256)":"4f0edcc9","sendETH(address,uint256)":"64a197f3","supportsInterface(bytes4)":"01ffc9a7","symbol()":"95d89b41","totalSupply()":"18160ddd","transfer(address,uint256)":"a9059cbb","transferFrom(address,address,uint256)":"23b872dd","version()":"54fd4d50","withdraw(uint256)":"2e1a7d4d"},"storageLayout":{"storage":[{"astId":131735,"contract":"src/L2/SuperchainWETH.sol:SuperchainWETH","label":"_balanceOf","offset":0,"slot":"0","type":"t_mapping(t_address,t_uint256)"},{"astId":131741,"contract":"src/L2/SuperchainWETH.sol:SuperchainWETH","label":"_allowance","offset":0,"slot":"1","type":"t_mapping(t_address,t_mapping(t_address,t_uint256))"}],"types":{"t_address":{"encoding":"inplace","label":"address","numberOfBytes":"20"},"t_mapping(t_address,t_mapping(t_address,t_uint256))":{"encoding":"mapping","key":"t_address","label":"mapping(address => mapping(address => uint256))","numberOfBytes":"32","value":"t_mapping(t_address,t_uint256)"},"t_mapping(t_address,t_uint256)":{"encoding":"mapping","key":"t_address","label":"mapping(address => uint256)","numberOfBytes":"32","value":"t_uint256"},"t_uint256":{"encoding":"inplace","label":"uint256","numberOfBytes":"32"}}},"userdoc":{"version":1,"kind":"user","methods":{"allowance(address,address)":{"notice":"Returns the amount of WETH that the spender can transfer on behalf of the owner."},"approve(address,uint256)":{"notice":"Approves the given address to transfer the WETH on behalf of the caller."},"balanceOf(address)":{"notice":"Returns the balance of the given address."},"crosschainBurn(address,uint256)":{"notice":"Allows the SuperchainTokenBridge to burn tokens."},"crosschainMint(address,uint256)":{"notice":"Allows the SuperchainTokenBridge to mint tokens."},"decimals()":{"notice":"Returns the number of decimals the token uses."},"deposit()":{"notice":"Allows WETH to be deposited by sending ether to the contract."},"name()":{"notice":"Returns the name of the token."},"relayETH(address,address,uint256)":{"notice":"Relays ETH received from another chain."},"sendETH(address,uint256)":{"notice":"Sends ETH to some target address on another chain."},"symbol()":{"notice":"Returns the symbol of the token."},"totalSupply()":{"notice":"Returns the total supply of WETH."},"transfer(address,uint256)":{"notice":"Transfers the given amount of WETH to the given address."},"transferFrom(address,address,uint256)":{"notice":"Transfers the given amount of WETH from the given address to the given address."},"version()":{"notice":"Semantic version."},"withdraw(uint256)":{"notice":"Withdraws an amount of ETH."}},"events":{"Approval(address,address,uint256)":{"notice":"Emitted when an approval is made."},"CrosschainBurn(address,uint256,address)":{"notice":"Emitted when a crosschain transfer burns tokens."},"CrosschainMint(address,uint256,address)":{"notice":"Emitted when a crosschain transfer mints tokens."},"Deposit(address,uint256)":{"notice":"Emitted when a deposit is made."},"RelayETH(address,address,uint256,uint256)":{"notice":"Emitted whenever ETH is successfully relayed on this chain."},"SendETH(address,address,uint256,uint256)":{"notice":"Emitted when ETH is sent from one chain to another."},"Transfer(address,address,uint256)":{"notice":"Emitted when a transfer is made."},"Withdrawal(address,uint256)":{"notice":"Emitted when a withdrawal is made."}},"errors":{"InvalidCrossDomainSender()":[{"notice":"Thrown when attempting to relay a message and the cross domain message sender is not SuperchainWETH."}],"Unauthorized()":[{"notice":"Error for an unauthorized CALLER."}],"ZeroAddress()":[{"notice":"Thrown when attempting to perform an operation and the account is the zero address."}]},"notice":"SuperchainWETH is a version of WETH that can be freely transfrered between chains         within the superchain. SuperchainWETH can be converted into native ETH on chains that         do not use a custom gas token."},"devdoc":{"version":1,"kind":"dev","methods":{"allowance(address,address)":{"params":{"owner":"The address that owns the WETH.","spender":"The address that is approved to transfer the WETH."},"returns":{"_0":"The amount of WETH that the spender can transfer on behalf of the owner."}},"approve(address,uint256)":{"params":{"guy":"The address that is approved to transfer the WETH.","wad":"The amount that is approved to transfer."},"returns":{"_0":"True if the approval was successful."}},"balanceOf(address)":{"params":{"src":"The address to query the balance of."},"returns":{"_0":"The balance of the given address."}},"crosschainBurn(address,uint256)":{"params":{"_amount":"Amount of tokens to burn.","_from":"Address to burn tokens from."}},"crosschainMint(address,uint256)":{"params":{"_amount":"Amount of tokens to mint.","_to":"Address to mint tokens to."}},"name()":{"returns":{"_0":"name_ The name of the token."}},"relayETH(address,address,uint256)":{"params":{"_amount":"Amount of ETH to relay.","_from":"Address of the msg.sender of sendETH on the source chain.","_to":"Address to relay ETH to."}},"sendETH(address,uint256)":{"params":{"_chainId":"Chain ID of the destination chain.","_to":"Address to send ETH to."},"returns":{"msgHash_":"Hash of the message sent."}},"supportsInterface(bytes4)":{"details":"Returns true if this contract implements the interface defined by `interfaceId`. See the corresponding https://eips.ethereum.org/EIPS/eip-165#how-interfaces-are-identified[EIP section] to learn more about how these ids are created. This function call must use less than 30 000 gas."},"symbol()":{"returns":{"_0":"symbol_ The symbol of the token."}},"totalSupply()":{"returns":{"_0":"The total supply of WETH."}},"transfer(address,uint256)":{"params":{"dst":"The address to transfer the WETH to.","wad":"The amount of WETH to transfer."},"returns":{"_0":"True if the transfer was successful."}},"transferFrom(address,address,uint256)":{"params":{"dst":"The address to transfer the WETH to.","src":"The address to transfer the WETH from.","wad":"The amount of WETH to transfer."},"returns":{"_0":"True if the transfer was successful."}},"withdraw(uint256)":{"params":{"wad":"The amount of ETH to withdraw."}}},"events":{"RelayETH(address,address,uint256,uint256)":{"params":{"amount":"Amount of ETH relayed.","from":"Address of the msg.sender of sendETH on the source chain.","source":"Chain ID of the source chain.","to":"Address of the recipient."}},"SendETH(address,address,uint256,uint256)":{"params":{"amount":"Amount of ETH sent.","destination":"Chain ID of the destination chain.","from":"Address of the sender.","to":"Address of the recipient."}}},"title":"SuperchainWETH"},"id":232}