{"abi":[{"type":"function","name":"setGuard","inputs":[{"name":"guard","type":"address","internalType":"address"}],"outputs":[],"stateMutability":"nonpayable"},{"type":"event","name":"ChangedGuard","inputs":[{"name":"guard","type":"address","indexed":false,"internalType":"address"}],"anonymous":false}],"bytecode":{"object":"0x6080604052348015600e575f5ffd5b506101718061001c5f395ff3fe608060405234801561000f575f5ffd5b5060043610610029575f3560e01c8063e19a9dd91461002d575b5f5ffd5b61004061003b36600461012a565b610042565b005b61004a6100bb565b7f4a204f620c8c5ccdca3fd54d003badd85ba500436a431f0cbda4f558c93c34c881815560405173ffffffffffffffffffffffffffffffffffffffff831681527f1151116914515bc0891ff9047a6cb32cf902546f83066499bcf8ba33d2353fa29060200160405180910390a15050565b333014610128576040517f08c379a000000000000000000000000000000000000000000000000000000000815260206004820152600560248201527f4753303331000000000000000000000000000000000000000000000000000000604482015260640160405180910390fd5b565b5f6020828403121561013a575f5ffd5b813573ffffffffffffffffffffffffffffffffffffffff8116811461015d575f5ffd5b939250505056fea164736f6c634300081c000a","linkReferences":{}},"methodIdentifiers":{"setGuard(address)":"e19a9dd9"},"storageLayout":{"storage":[],"types":{}},"userdoc":{"version":1,"kind":"user"},"devdoc":{"version":1,"kind":"dev","author":"Richard Meissner - <richard@gnosis.pm>","methods":{"setGuard(address)":{"details":"Set a guard that checks transactions before execution","params":{"guard":"The address of the guard to be used or the 0 address to disable the guard"}}},"title":"Fallback Manager - A contract that manages fallback calls made to this contract"},"id":53}