{"abi":[{"type":"constructor","inputs":[{"name":"_oracle","type":"address","internalType":"contract IPreimageOracle"}],"stateMutability":"nonpayable"},{"type":"function","name":"oracle","inputs":[],"outputs":[{"name":"","type":"address","internalType":"contract IPreimageOracle"}],"stateMutability":"view"},{"type":"function","name":"step","inputs":[{"name":"_stateData","type":"bytes","internalType":"bytes"},{"name":"_proof","type":"bytes","internalType":"bytes"},{"name":"_localContext","type":"bytes32","internalType":"bytes32"}],"outputs":[{"name":"","type":"bytes32","internalType":"bytes32"}],"stateMutability":"nonpayable"},{"type":"function","name":"version","inputs":[],"outputs":[{"name":"","type":"string","internalType":"string"}],"stateMutability":"view"}],"bytecode":{"object":"0x6080604052348015600e575f80fd5b506040516121a53803806121a5833981016040819052602b91604e565b5f80546001600160a01b0319166001600160a01b03929092169190911790556079565b5f60208284031215605d575f80fd5b81516001600160a01b03811681146072575f80fd5b9392505050565b61211f806100865f395ff3fe608060405234801561000f575f80fd5b506004361061003f575f3560e01c806354fd4d50146100435780637dc0d1d014610095578063e14ced32146100d9575b5f80fd5b61007f6040518060400160405280600a81526020017f312e322e302d72632e310000000000000000000000000000000000000000000081525081565b60405161008c9190612013565b60405180910390f35b5f546100b49073ffffffffffffffffffffffffffffffffffffffff1681565b60405173ffffffffffffffffffffffffffffffffffffffff909116815260200161008c565b6100ec6100e73660046120a4565b6100fa565b60405190815260200161008c565b5f61039d565b805f5260205ffd5b905090565b5f67ffffffffffffffff61011f565b90565b909116919050565b5f610141601f61013c63ffffffff5b856102c5565b61015d565b92915050565b5f600160405b1b905090565b5f6001603f61014d565b5f6001831b821680156101805767ffffffffffffffff841c841b83179150610199565b61019667ffffffffffffffff85603f031c841690565b91505b5092915050565b5f6101a9610153565b821680156101db577fffffffffffffffffffffffffffffffffffffffffffffffff0000000000000000831791506101df565b8291505b50919050565b5f6101f86101f1610147565b8484010690565b9392505050565b5f6101f861020b610147565b8484030690565b5f6101f883830261010d565b5f6101f883830461010d565b5f6101f8610237846101a0565b610240846101a0565b0561010d565b5f8282066101f8565b5f6101f861025c846101a0565b610265846101a0565b0761010d565b5f610141821961010d565b5f8282106101f8565b5f8282116101f8565b5f6101f8610295846101a0565b61029e846101a0565b1290565b5f6101f86102af846101a0565b6102b8846101a0565b1390565b5f8183146101f8565b5f8183166101f8565b5f8183176101f8565b5f8183186101f8565b5f6101f883831b61010d565b5f82821c6101f8565b5f6101f8610302846101a0565b831d61010d565b60208110156101df5760ff83168260081b1791508260081c9250600181019050610309565b5f60205f5b01905090565b5f602061033361032e565b5f6008610333610339565b5f6008610333610344565b5f600161033361034f565b5f600161033361035a565b5f6008610333610365565b5f6008610333610370565b5f600861033361037b565b5f610100610333610386565b6080604051146103ab575f80fd5b608486146103b7575f80fd5b6103bf610391565b6020870335146103cd575f80fd5b60206103e76103da610391565b601f808216602003160190565b87010184146103f4575f80fd5b6102248414610401575f80fd5b610409610391565b608001604052610417610391565b866080376113f7565b6080015160209190910360031b1c90565b60800180517fffffffffffffffffffffffffffffffffffffffffffffffffffffffffffffffff60209390930360031b92831b19169290911b919091179052565b50565b5f610108602061042061032e565b61047181602061043161032e565b5f6101086008610420610339565b610471816008610431610339565b5f6101086008610420610344565b610471816008610431610344565b5f610108600161042061035a565b6104e460018061043161035a565b565b5f610108600161042061034f565b61047181600161043161034f565b5f6101086008610420610365565b610471816008610431610365565b5f6101086008610420610370565b610471816008610431610370565b5f610108600861042061037b565b61047181600861043161037b565b5f610562601f8361027f565b156105735761057362bad4e9610100565b610591610581600884610212565b61058c61011c610386565b6101e5565b608081015160c01c6101f8565b806105a7575050565b6105b3601f5b8261027f565b156105c4576105c462bad4e9610100565b6105d2610581600883610212565b60808101805177ffffffffffffffffffffffffffffffffffffffffffffffff1660c085901b179052505050565b505050565b5f61060d6104c8565b6001811461061d57600391505090565b6106256104e6565b801561063c57600181146106445760029250505090565b5f9250505090565b60019250505090565b610655610391565b6080a05f610661610391565b608020905061066e610604565b60f81b7effffffffffffffffffffffffffffffffffffffffffffffffffffffffffffff919091161790565b5f610141600b61013c8460146102ec565b6102ec565b5f610141600b61013c6106cd601f6106c88760076102ec565b6102c5565b6106e76106db8760196102ec565b60056102e0565b6102e0565b6102ce565b5f610141600c61013c61072761070d61070687601f6102ec565b600c6102e0565b6106e761072060016106c88a60076102ec565b600b6102e0565b6106e761073d6106db603f6106c88a60196102ec565b6106e7610750600f6106c88b60086102ec565b60016102e0565b5f610141601361013c84600c6102ec565b5f610141601361013c61079c61078961078287601f6102ec565b60136102e0565b6106e761072060ff6106c88a600c6102ec565b6106e76107b96107b260016106c88a60146102ec565b600a6102e0565b6106e76103ff6106c88a60156102ec565b5f610141607f5b836102c5565b5f610141601f6106c88460076102ec565b5f61014160076106c884600c6102ec565b5f610141601f6106c884600f6102ec565b5f610141601f6106c88460146102ec565b5f6101418260196102ec565b5f61083d6020610838603c85610212565b610212565b90506101416102245b826101e5565b5f610857601f6107d1565b156108695761086963bad10ad0610100565b61087283610827565b803561088060205b836101e5565b915061088d8460056102ec565b815f5b603b8110156108f85784356108a66020876101e5565b95506108b760016106c886856102ec565b80156108ca57600181146108de576108ee565b5f84815260208390526040902093506108ee565b5f82815260208590526040902093505b5050600101610890565b5060805193508381146109125761091263badf00d1610100565b509095945050505050565b610929601f5b826102c5565b1561093b5761093b63bad10ad0610100565b61094483610827565b8261094f602061087a565b915061095c8360056102ec565b5f5b603b8110156109c757833561097560205b866101e5565b945061098660016106c885856102ec565b801561099957600181146109ad576109bd565b5f85815260208390526040902094506109bd565b5f82815260208690526040902094505b505060010161095e565b50506109d281608052565b5050505050565b5f60088311156109f0576109f063bad512e0610100565b610a026107d1601f61026b565b61026b565b610a0f61011c878361084c565b610a1982856101ff565b5f610a3b610a27601f61026b565b6106c8610a3560018b6101ff565b896101e5565b610a4d88610a4885602082565b6101ff565b5f610a5f610a5b84896102bc565b1590565b15610a9b5760ff8d03610a7957610a7963bad22220610100565b610a8661011c8e8561084c565b93505f9150610a988a610a4887604082565b90505b88945089925085610ab061011c8460036102e0565b1c955083610ac261011c8360036102e0565b1c935050505f5b81811015610b4f57610af1610ade601f61026b565b6106c883610a486001610a48888b6101e5565b5f610afc88836102bc565b60018114610b0f578015610b1f57610b2b565b600888901c9760ff169150610b2b565b600886901c9560ff1691505b50610b43610b388261010d565b6106e78b60086102e0565b98505050600101610ac9565b508815610b7557610b666001610a488360036102e0565b9450610b72858761015d565b95505b505050505095945050505050565b5f805f8084610b9287876101e5565b5f5b6040811015610c585780610ba9602082610276565b8060018114610bbd578015610bce57610bdb565b8760081b97508960081b9950610bdb565b8660081b96508860081b98505b50610bfc610be98584610276565b6106c85f610bf78987610276565b6102bc565b15610c4e5760ff8c610c1b61011c610c148e876101ff565b60036102e0565b1c168160018114610c31578015610c4057610c4b565b9781179760ff8b179a50610c4b565b9681179660ff8a1799505b50505b5050600101610b94565b50505093509350935093565b6020821115610c7a57610c7a63bad512e1610100565b610c87610923601f61026b565b610ca8610c94601f61026b565b6106c8610ca26001876101ff565b856101e5565b610cb282846101ff565b610cbd868683610b83565b9350610ccc61011c8b8861084c565b8319168117610cdc8b828961091d565b5050610ce884866102bc565b15610cf95750505050505050505050565b60ff8a03610d0e57610d0e63bad22221610100565b610d1b61011c8b8661084c565b9019169091179250610d36905087610d308490565b8361091d565b50505050505050565b6109d28585858585610c64565b5f610d57601f6107d1565b610d628160206101ff565b610d6c818661027f565b15610d75578094505b50610d8d61011c6001610d8884876101ff565b61084c565b80610d9c61011c8460036102e0565b1b905080610db161011c610c148860206101ff565b1c90508460031b9150610dc2610474565b821b8117610dcf81610482565b505050610de1610ddc5f90565b61049e565b5090919050565b5f80805460405163e03110e160e01b815284600482015285602482015260405f6044835f865af19150508015610e27575f519250602051915050610e35565b50610e3563badf00d0610100565b9250929050565b5f610e45610474565b610e4d610490565b8160f81c60018103610eb457604080515f858152336020528983526060902091527effffffffffffffffffffffffffffffffffffffffffffffffffffffffffffff167f01000000000000000000000000000000000000000000000000000000000000001792505b50610ebf8183610de8565b925082610ed1575f93505050506101f8565b610edd601f5b866102c5565b610ee88160206101ff565b610ef2818961027f565b15610efb578097505b50610f06848861027f565b15610f0f578396505b85935086610f21610c148260206101ff565b6001901b7fffffffffffffffffffffffffffffffffffffffffffffffffffffffffffffffff0119610f5661011c8460036102e0565b93841c931c610f6582866101e5565b9450610f708561049e565b819650610f826001610d8885896101ff565b848216911916179350610fa29050600184610f9d84886101ff565b61091d565b505050509392505050565b610fb76011610556565b80605d811461104257605e81146110425760d681146110615760de811461108257603f811461114d57604081146111c957601981146112225760388114611333576071811461134e5760dc811461137f5760a381146113895761010581146113ea576101a681146113ea57606581146113ea576110365f5b600a61059e565b6105ff5f5b600b61059e565b61104c600a610556565b61105860ff82166104f4565b506105ff6104d6565b61106d6001601e6102e0565b61107881600a61059e565b506105ff5f61103b565b61108c600a610556565b611096600b610556565b6110a0600d610556565b6110aa600e610556565b5f67ffffffffffffffff8214196020841615176001811461111c578580611116576110d8610fff5b876102c5565b80156110f6576110f36110ed826110006101ff565b886101e5565b96505b506110ff61051e565b80975061111461110f88836101e5565b61052c565b505b5061112c565b67ffffffffffffffff9550604d91505b5061113885600a61059e565b61114381600b61059e565b5050505050505050565b611157600a610556565b611161600b610556565b61116b600c610556565b5f8084801561119a57600381146111a357600581146111ac5767ffffffffffffffff5b9250604d5b91506111bd565b5f92505f611193565b8392505f611193565b6111b7898587610e3c565b92505f91505b5061113882600a61059e565b6111d3600a610556565b6111dd600b610556565b6111e7600c610556565b5f8084600181146111a357600281146111a357600481146111a357600681146112185767ffffffffffffffff61118e565b6111b78486610d4c565b61122c600a610556565b611236600b610556565b5f80826001811461125d57600381146112ba5767ffffffffffffffff92506016915061131c565b8480156112a857600181146112a857600281146112a857600381146112a857600481146112a857600581146112a857600681146112b05767ffffffffffffffff9350604d92506112b4565b5f93506112b4565b5f93505b5061131c565b848015611305576001811461130e576002811461130e5760038114611305576004811461130e576005811461130557600681146113155767ffffffffffffffff9350604d925061131a565b5f5b935061131a565b6001611307565b600193505b505b5061132882600a61059e565b610d3681600b61059e565b61134467ffffffffffffffff61102f565b6105ff600d61103b565b611358600b610556565b682a0000000000000539611373600260018360105b86610c64565b505061103661102f5f90565b611036600161102f565b611393600a610556565b61139d600b610556565b81600781146113b7576113b2620f0012610100565b6113e2565b6113d0600260016904000000000000000400601061136d565b6113d95f61102f565b6113e25f61103b565b505050505050565b6105ff63f001ca11610100565b6113ff6104c8565b156114135761140c61064d565b5f5260205ff35b611428611423600161058c610502565b610510565b6114306104ac565b61143f60ff5f806004856109d9565b611448816107ca565b611451826107d7565b61145a836107e8565b611463846107f9565b61146c8561080a565b6114758661081b565b8560038114611510576023811461158b57606381146115e257601381146116c657601b81146117e257603381146118a057603b8114611aa85760378114611c975760178114611cc557606f8114611ce15760678114611d1b5760738114611d6f57602f8114611dcd57600f8114611fe85760078114611fe85760278114611fe85760538114611ff55761150b63f001c0de610100565b612002565b8861151a89610699565b611529610a5b60045b896102c5565b61153a60016106e260035b8b6102c5565b61154388610556565b611552610846600b5b8661015d565b935050611564600260018484876109d9565b92505050611572818961059e565b50611585611580600461087a565b6104ba565b50612002565b88611595896106af565b6115a06001886102e0565b6115a986610556565b6115b288610556565b6115bf610846600b61154c565b9350506115d160026001838587610d3f565b50505061158561158061087a600490565b6115eb84610556565b6115f484610556565b5f878015611629576001811461163a576004811461164c57600581146116565760068114611668576007811461167257611687565b61163383856102bc565b9150611687565b61163360016106c86109fd86886102bc565b6116338385610288565b61163360016106c86109fd8688610288565b6116338385610276565b61168460016106c86109fd8688610276565b91505b508080156116ab576116988c6106ec565b93506116a4848e6101e5565b9c506116b9565b6116b660048e6101e5565b9c505b5050505061150b896104ba565b6116cf84610556565b6116d889610699565b5f87801561171d576001811461172e576002811461173c57600381146117465760048114611750576005811461175a57600681146117a957600781146117b3576117c0565b61172783856101e5565b91506117c0565b611727846106e2603f610ed7565b6117278385610288565b6117278385610276565b61172783856102d7565b6117658360066102ec565b8015611778576010811461178d576117a3565b611786856106aa603f6110d2565b92506117a3565b6117a08561179b603f6110d2565b6102f5565b92505b506117c0565b61172783856102ce565b6117bd83856102c5565b91505b506117cb818a61059e565b50505061150b6115806117dc600490565b8b6101e5565b6117eb84610556565b6117f489610699565b5f87801561181157600181146118235760058114611834576117c0565b61172761181e84866101e5565b610127565b61172761181e856106e2601f6110d2565b61183f601f846102c5565b61184a8460056102ec565b801561185d576020811461188257611893565b61187b601f5b61013c61187563ffffffff5b8a6102c5565b856102ec565b9350611893565b61189061186383601f6101ff565b93505b5050506117cb818a61059e565b6118a984610556565b6118b284610556565b5f84600181146119aa57888015611900576001811461193857600281146119465760038114611950576004811461195a5760058114611964576006811461199657600781146119a0576117a3565b868015611914576020811461192557611932565b61191e85876101e5565b9350611932565b61192f85876101ff565b93505b506117a3565b611786856106e2603f6110d2565b6117868486610288565b6117868486610276565b61178684866102d7565b868015611978576020811461198857611932565b61191e866106aa603f5b886102c5565b61192f8661179b603f611982565b61178684866102ce565b6117a084866102c5565b8880156119ee57600181146119ff5760028114611a1d5760038114611a265760048114611a305760058114611a5b5760068114611a6c5760078114611a8657611a9c565b6119f88486610212565b9250611a9c565b6119f8611a0b856101a0565b611a14876101a0565b0260401c61010d565b6119f884611a0b565b6119f88486611a14565b838015611a4857611a41858761022a565b9350611a55565b67ffffffffffffffff5b93505b50611a9c565b838015611a4857611a41858761021e565b838015611a7d57611a41858761024f565b85935050611a9c565b838015611a975761187b8587610246565b859350505b50506117cb818a61059e565b611ab184610556565b611aba84610556565b5f8460018114611b9957888015611ae05760018114611b345760058114611b45576117a3565b868015611af45760208114611b1457611932565b61191e61181e611b0763ffffffff611982565b61058c63ffffffff61186f565b61192f61181e611b2763ffffffff611982565b610a4863ffffffff61186f565b61178661181e866106e2601f611982565b611b4f601f610136565b878015611b635760208114611b8057611b91565b611b79601f5b61013c61187563ffffffff611534565b9450611b91565b611b8e611b6983601f6101ff565b94505b5050506117c0565b888015611bc55760048114611be55760058114611c095760068114611c355760078114611c6257611a9c565b6119f861181e611bd863ffffffff6110d2565b61083863ffffffff611523565b838015611a4857611a4161181e611bfb87610127565b611c0489610127565b61022a565b838015611a4857611a4161181e611c2363ffffffff611982565b611c3063ffffffff61186f565b61021e565b838015611c5957611a4161181e611c4b87610127565b611c5489610127565b61024f565b611a5286610127565b838015611c8e5761187b61181e611c7c63ffffffff611982565b611c8963ffffffff61186f565b610246565b61189086610127565b611ca088610757565b611cab81600c6102e0565b9050611cb7818861059e565b5061150b61158060046117dc565b611cce88610757565b611cab6117dc601f61013c84600c6102e0565b611cea88610768565b611cf460046117dc565b611cfe818961059e565b50611585611580611d15601461013c8560016102e0565b8c6101e5565b611d2484610556565b611d2d89610699565b611d376004611d15565b611d41818a61059e565b50611d68611580611d5b600167ffffffffffffffff6102d7565b6106c861096f600b61154c565b5050612002565b848015611d9257611d805f8861059e565b611d8d6115806004611d15565b611585565b611d9d8960146102ec565b8015611db757611db261158060045b8d6101e5565b611d68565b611dc08d610fad565b611d686115806004611dac565b611dd86001866102e0565b611de260086105ad565b611ded600483610276565b1715611dff57611dff62bada70610100565b611e0885610556565b611e126003610923565b15611e2457611e2463bad10ad0610100565b611e2f8460026102ec565b8060028114611f655760038114611f8d57611e4987610556565b611e546004866102bc565b15611e6557611e6281610127565b90505b611e74600260018088886109d9565b80848015611ece5760018114611edf5760048114611ee75760088114611ef157600c8114611efb5760108114611f055760148114611f1c5760188114611f2657601c8114611f3057611ec9630f001a70610100565b611f43565b611ed884846101e5565b9250611f43565b839250611f43565b611ed884846102d7565b611ed884846102ce565b611ed884846102c5565b611f0f8385610288565b15611ec957839250611f43565b611f0f83856102a2565b611f0f8385610276565b611f3a838561027f565b15611f43578392505b50611f5360036001848a8a610d3f565b611f5d818e61059e565b505050611fd6565b611f74600260018087876109d9565b611f7e818c61059e565b50611f8883610548565b611fd6565b6001611fa0611f9a61053a565b856102bc565b15611fc257611fae88610556565b611fbd60026001838989610d3f565b505f90505b611fcc818c61059e565b50611fd65f610548565b5050505061150b6115806117dc600490565b61150b61158060046117dc565b61200261158060046117dc565b50505050505050505061140c61064d565b602081525f82518060208401528060208501604085015e5f6040828501015260407fffffffffffffffffffffffffffffffffffffffffffffffffffffffffffffffe0601f83011684010191505092915050565b5f8083601f840112612076575f80fd5b50813567ffffffffffffffff81111561208d575f80fd5b602083019150836020828501011115610e35575f80fd5b5f805f805f606086880312156120b8575f80fd5b853567ffffffffffffffff808211156120cf575f80fd5b6120db89838a01612066565b909750955060208801359150808211156120f3575f80fd5b5061210088828901612066565b9699959850966040013594935050505056fea164736f6c6343000819000a","linkReferences":{}},"methodIdentifiers":{"oracle()":"7dc0d1d0","step(bytes,bytes,bytes32)":"e14ced32","version()":"54fd4d50"},"storageLayout":{"storage":[{"astId":60803,"contract":"src/vendor/asterisc/RISCV.sol:RISCV","label":"oracle","offset":0,"slot":"0","type":"t_contract(IPreimageOracle)1663"}],"types":{"t_contract(IPreimageOracle)1663":{"encoding":"inplace","label":"contract IPreimageOracle","numberOfBytes":"20"}}},"userdoc":{"version":1,"kind":"user","methods":{"oracle()":{"notice":"The preimage oracle contract."},"step(bytes,bytes,bytes32)":{"notice":"Performs the state transition from a given prestate and returns the hash of the post state witness."},"version()":{"notice":"The version of the contract."}},"notice":"The RISCV contract emulates a single RISCV hart cycle statelessly, using memory proofs to verify the         instruction and optional memory access' inclusion in the memory merkle root provided in the trusted         prestate witness."},"devdoc":{"version":1,"kind":"dev","details":"https://github.com/ethereum-optimism/asterisc","methods":{"constructor":{"params":{"_oracle":"The preimage oracle contract."}},"step(bytes,bytes,bytes32)":{"params":{"_localContext":"The local key context for the preimage oracle. Optional, can be set as a constant if the                      implementation only requires one set of local keys.","_proof":"Opaque proof data, can be used to prove things about the prestate in relation to the state of the               interface's implementation.","_stateData":"The raw opaque prestate data."},"returns":{"_0":"The hash of the post state witness after the state transition."}}},"title":"RISCV"},"id":117}