{"abi":[{"type":"function","name":"getAddress","inputs":[{"name":"_slot","type":"bytes32","internalType":"bytes32"}],"outputs":[{"name":"addr_","type":"address","internalType":"address"}],"stateMutability":"view"},{"type":"function","name":"getBool","inputs":[{"name":"_slot","type":"bytes32","internalType":"bytes32"}],"outputs":[{"name":"value_","type":"bool","internalType":"bool"}],"stateMutability":"view"},{"type":"function","name":"getBytes32","inputs":[{"name":"_slot","type":"bytes32","internalType":"bytes32"}],"outputs":[{"name":"value_","type":"bytes32","internalType":"bytes32"}],"stateMutability":"view"},{"type":"function","name":"getUint","inputs":[{"name":"_slot","type":"bytes32","internalType":"bytes32"}],"outputs":[{"name":"value_","type":"uint256","internalType":"uint256"}],"stateMutability":"view"},{"type":"function","name":"setAddress","inputs":[{"name":"_slot","type":"bytes32","internalType":"bytes32"},{"name":"_address","type":"address","internalType":"address"}],"outputs":[],"stateMutability":"nonpayable"},{"type":"function","name":"setBool","inputs":[{"name":"_slot","type":"bytes32","internalType":"bytes32"},{"name":"_value","type":"bool","internalType":"bool"}],"outputs":[],"stateMutability":"nonpayable"},{"type":"function","name":"setBytes32","inputs":[{"name":"_slots","type":"tuple[]","internalType":"struct StorageSetter.Slot[]","components":[{"name":"key","type":"bytes32","internalType":"bytes32"},{"name":"value","type":"bytes32","internalType":"bytes32"}]}],"outputs":[],"stateMutability":"nonpayable"},{"type":"function","name":"setBytes32","inputs":[{"name":"_slot","type":"bytes32","internalType":"bytes32"},{"name":"_value","type":"bytes32","internalType":"bytes32"}],"outputs":[],"stateMutability":"nonpayable"},{"type":"function","name":"setUint","inputs":[{"name":"_slot","type":"bytes32","internalType":"bytes32"},{"name":"_value","type":"uint256","internalType":"uint256"}],"outputs":[],"stateMutability":"nonpayable"},{"type":"function","name":"version","inputs":[],"outputs":[{"name":"","type":"string","internalType":"string"}],"stateMutability":"view"}],"bytecode":{"object":"0x608060405234801561001057600080fd5b5061046a806100206000396000f3fe608060405234801561001057600080fd5b50600436106100be5760003560e01c8063a6ed563e11610076578063bd02d0f51161005b578063bd02d0f51461018e578063ca446dd9146101b8578063e2a4853a1461011557600080fd5b8063a6ed563e1461018e578063abfdcced146101aa57600080fd5b80634e91db08116100a75780634e91db081461011557806354fd4d50146101275780637ae1cfca1461017057600080fd5b80630528afe2146100c357806321f8a721146100d8575b600080fd5b6100d66100d1366004610239565b6101c6565b005b6100eb6100e63660046102ae565b610229565b60405173ffffffffffffffffffffffffffffffffffffffff90911681526020015b60405180910390f35b6100d66101233660046102c7565b9055565b6101636040518060400160405280600c81526020017f312e322e312d626574612e34000000000000000000000000000000000000000081525081565b60405161010c91906102e9565b61017e6100e63660046102ae565b604051901515815260200161010c565b61019c6100e63660046102ae565b60405190815260200161010c565b6100d661012336600461035c565b6100d6610123366004610391565b8060005b81811015610223576102118484838181106101e7576101e76103cf565b90506040020160000135858584818110610203576102036103cf565b905060400201602001359055565b8061021b816103fe565b9150506101ca565b50505050565b6000610233825490565b92915050565b6000806020838503121561024c57600080fd5b823567ffffffffffffffff8082111561026457600080fd5b818501915085601f83011261027857600080fd5b81358181111561028757600080fd5b8660208260061b850101111561029c57600080fd5b60209290920196919550909350505050565b6000602082840312156102c057600080fd5b5035919050565b600080604083850312156102da57600080fd5b50508035926020909101359150565b600060208083528351808285015260005b81811015610316578581018301518582016040015282016102fa565b81811115610328576000604083870101525b50601f017fffffffffffffffffffffffffffffffffffffffffffffffffffffffffffffffe016929092016040019392505050565b6000806040838503121561036f57600080fd5b823591506020830135801515811461038657600080fd5b809150509250929050565b600080604083850312156103a457600080fd5b82359150602083013573ffffffffffffffffffffffffffffffffffffffff8116811461038657600080fd5b7f4e487b7100000000000000000000000000000000000000000000000000000000600052603260045260246000fd5b60007fffffffffffffffffffffffffffffffffffffffffffffffffffffffffffffffff8203610456577f4e487b7100000000000000000000000000000000000000000000000000000000600052601160045260246000fd5b506001019056fea164736f6c634300080f000a","linkReferences":{}},"methodIdentifiers":{"getAddress(bytes32)":"21f8a721","getBool(bytes32)":"7ae1cfca","getBytes32(bytes32)":"a6ed563e","getUint(bytes32)":"bd02d0f5","setAddress(bytes32,address)":"ca446dd9","setBool(bytes32,bool)":"abfdcced","setBytes32((bytes32,bytes32)[])":"0528afe2","setBytes32(bytes32,bytes32)":"4e91db08","setUint(bytes32,uint256)":"e2a4853a","version()":"54fd4d50"},"storageLayout":{"storage":[],"types":{}},"userdoc":{"version":1,"kind":"user","methods":{"getAddress(bytes32)":{"notice":"Retrieves an address value from `_slot`."},"getBool(bytes32)":{"notice":"Retrieves a bool value from `_slot`."},"getBytes32(bytes32)":{"notice":"Retrieves a bytes32 value from `_slot`."},"getUint(bytes32)":{"notice":"Retrieves a uint256 value from `_slot`."},"setAddress(bytes32,address)":{"notice":"Stores an address `_value` at `_slot`."},"setBool(bytes32,bool)":{"notice":"Stores a bool `_value` at `_slot`."},"setBytes32((bytes32,bytes32)[])":{"notice":"Stores a bytes32 value at each key in `_slots`."},"setBytes32(bytes32,bytes32)":{"notice":"Stores a bytes32 `_value` at `_slot`. Any storage slots that         are packed should be set through this interface."},"setUint(bytes32,uint256)":{"notice":"Stores a uint256 `_value` at `_slot`."},"version()":{"notice":"Semantic version."}},"notice":"A simple contract that allows setting arbitrary storage slots.         WARNING: this contract is not safe to be called by untrusted parties.         It is only meant as an intermediate step during upgrades."},"devdoc":{"version":1,"kind":"dev","title":"StorageSetter"},"id":312}