{"abi":[{"type":"constructor","inputs":[{"name":"_minProposalSize","type":"uint256","internalType":"uint256"},{"name":"_challengePeriod","type":"uint256","internalType":"uint256"}],"stateMutability":"nonpayable"},{"type":"function","name":"KECCAK_TREE_DEPTH","inputs":[],"outputs":[{"name":"","type":"uint256","internalType":"uint256"}],"stateMutability":"view"},{"type":"function","name":"MAX_LEAF_COUNT","inputs":[],"outputs":[{"name":"","type":"uint256","internalType":"uint256"}],"stateMutability":"view"},{"type":"function","name":"MIN_BOND_SIZE","inputs":[],"outputs":[{"name":"","type":"uint256","internalType":"uint256"}],"stateMutability":"view"},{"type":"function","name":"PRECOMPILE_CALL_RESERVED_GAS","inputs":[],"outputs":[{"name":"","type":"uint256","internalType":"uint256"}],"stateMutability":"view"},{"type":"function","name":"addLeavesLPP","inputs":[{"name":"_uuid","type":"uint256","internalType":"uint256"},{"name":"_inputStartBlock","type":"uint256","internalType":"uint256"},{"name":"_input","type":"bytes","internalType":"bytes"},{"name":"_stateCommitments","type":"bytes32[]","internalType":"bytes32[]"},{"name":"_finalize","type":"bool","internalType":"bool"}],"outputs":[],"stateMutability":"nonpayable"},{"type":"function","name":"challengeFirstLPP","inputs":[{"name":"_claimant","type":"address","internalType":"address"},{"name":"_uuid","type":"uint256","internalType":"uint256"},{"name":"_postState","type":"tuple","internalType":"struct PreimageOracle.Leaf","components":[{"name":"input","type":"bytes","internalType":"bytes"},{"name":"index","type":"uint256","internalType":"uint256"},{"name":"stateCommitment","type":"bytes32","internalType":"bytes32"}]},{"name":"_postStateProof","type":"bytes32[]","internalType":"bytes32[]"}],"outputs":[],"stateMutability":"nonpayable"},{"type":"function","name":"challengeLPP","inputs":[{"name":"_claimant","type":"address","internalType":"address"},{"name":"_uuid","type":"uint256","internalType":"uint256"},{"name":"_stateMatrix","type":"tuple","internalType":"struct LibKeccak.StateMatrix","components":[{"name":"state","type":"uint64[25]","internalType":"uint64[25]"}]},{"name":"_preState","type":"tuple","internalType":"struct PreimageOracle.Leaf","components":[{"name":"input","type":"bytes","internalType":"bytes"},{"name":"index","type":"uint256","internalType":"uint256"},{"name":"stateCommitment","type":"bytes32","internalType":"bytes32"}]},{"name":"_preStateProof","type":"bytes32[]","internalType":"bytes32[]"},{"name":"_postState","type":"tuple","internalType":"struct PreimageOracle.Leaf","components":[{"name":"input","type":"bytes","internalType":"bytes"},{"name":"index","type":"uint256","internalType":"uint256"},{"name":"stateCommitment","type":"bytes32","internalType":"bytes32"}]},{"name":"_postStateProof","type":"bytes32[]","internalType":"bytes32[]"}],"outputs":[],"stateMutability":"nonpayable"},{"type":"function","name":"challengePeriod","inputs":[],"outputs":[{"name":"challengePeriod_","type":"uint256","internalType":"uint256"}],"stateMutability":"view"},{"type":"function","name":"getTreeRootLPP","inputs":[{"name":"_owner","type":"address","internalType":"address"},{"name":"_uuid","type":"uint256","internalType":"uint256"}],"outputs":[{"name":"treeRoot_","type":"bytes32","internalType":"bytes32"}],"stateMutability":"view"},{"type":"function","name":"initLPP","inputs":[{"name":"_uuid","type":"uint256","internalType":"uint256"},{"name":"_partOffset","type":"uint32","internalType":"uint32"},{"name":"_claimedSize","type":"uint32","internalType":"uint32"}],"outputs":[],"stateMutability":"payable"},{"type":"function","name":"loadBlobPreimagePart","inputs":[{"name":"_z","type":"uint256","internalType":"uint256"},{"name":"_y","type":"uint256","internalType":"uint256"},{"name":"_commitment","type":"bytes","internalType":"bytes"},{"name":"_proof","type":"bytes","internalType":"bytes"},{"name":"_partOffset","type":"uint256","internalType":"uint256"}],"outputs":[],"stateMutability":"nonpayable"},{"type":"function","name":"loadKeccak256PreimagePart","inputs":[{"name":"_partOffset","type":"uint256","internalType":"uint256"},{"name":"_preimage","type":"bytes","internalType":"bytes"}],"outputs":[],"stateMutability":"nonpayable"},{"type":"function","name":"loadLocalData","inputs":[{"name":"_ident","type":"uint256","internalType":"uint256"},{"name":"_localContext","type":"bytes32","internalType":"bytes32"},{"name":"_word","type":"bytes32","internalType":"bytes32"},{"name":"_size","type":"uint256","internalType":"uint256"},{"name":"_partOffset","type":"uint256","internalType":"uint256"}],"outputs":[{"name":"key_","type":"bytes32","internalType":"bytes32"}],"stateMutability":"nonpayable"},{"type":"function","name":"loadPrecompilePreimagePart","inputs":[{"name":"_partOffset","type":"uint256","internalType":"uint256"},{"name":"_precompile","type":"address","internalType":"address"},{"name":"_requiredGas","type":"uint64","internalType":"uint64"},{"name":"_input","type":"bytes","internalType":"bytes"}],"outputs":[],"stateMutability":"nonpayable"},{"type":"function","name":"loadSha256PreimagePart","inputs":[{"name":"_partOffset","type":"uint256","internalType":"uint256"},{"name":"_preimage","type":"bytes","internalType":"bytes"}],"outputs":[],"stateMutability":"nonpayable"},{"type":"function","name":"minProposalSize","inputs":[],"outputs":[{"name":"minProposalSize_","type":"uint256","internalType":"uint256"}],"stateMutability":"view"},{"type":"function","name":"preimageLengths","inputs":[{"name":"","type":"bytes32","internalType":"bytes32"}],"outputs":[{"name":"","type":"uint256","internalType":"uint256"}],"stateMutability":"view"},{"type":"function","name":"preimagePartOk","inputs":[{"name":"","type":"bytes32","internalType":"bytes32"},{"name":"","type":"uint256","internalType":"uint256"}],"outputs":[{"name":"","type":"bool","internalType":"bool"}],"stateMutability":"view"},{"type":"function","name":"preimageParts","inputs":[{"name":"","type":"bytes32","internalType":"bytes32"},{"name":"","type":"uint256","internalType":"uint256"}],"outputs":[{"name":"","type":"bytes32","internalType":"bytes32"}],"stateMutability":"view"},{"type":"function","name":"proposalBlocks","inputs":[{"name":"","type":"address","internalType":"address"},{"name":"","type":"uint256","internalType":"uint256"},{"name":"","type":"uint256","internalType":"uint256"}],"outputs":[{"name":"","type":"uint64","internalType":"uint64"}],"stateMutability":"view"},{"type":"function","name":"proposalBlocksLen","inputs":[{"name":"_claimant","type":"address","internalType":"address"},{"name":"_uuid","type":"uint256","internalType":"uint256"}],"outputs":[{"name":"len_","type":"uint256","internalType":"uint256"}],"stateMutability":"view"},{"type":"function","name":"proposalBonds","inputs":[{"name":"","type":"address","internalType":"address"},{"name":"","type":"uint256","internalType":"uint256"}],"outputs":[{"name":"","type":"uint256","internalType":"uint256"}],"stateMutability":"view"},{"type":"function","name":"proposalBranches","inputs":[{"name":"","type":"address","internalType":"address"},{"name":"","type":"uint256","internalType":"uint256"},{"name":"","type":"uint256","internalType":"uint256"}],"outputs":[{"name":"","type":"bytes32","internalType":"bytes32"}],"stateMutability":"view"},{"type":"function","name":"proposalCount","inputs":[],"outputs":[{"name":"count_","type":"uint256","internalType":"uint256"}],"stateMutability":"view"},{"type":"function","name":"proposalMetadata","inputs":[{"name":"","type":"address","internalType":"address"},{"name":"","type":"uint256","internalType":"uint256"}],"outputs":[{"name":"","type":"bytes32","internalType":"LPPMetaData"}],"stateMutability":"view"},{"type":"function","name":"proposalParts","inputs":[{"name":"","type":"address","internalType":"address"},{"name":"","type":"uint256","internalType":"uint256"}],"outputs":[{"name":"","type":"bytes32","internalType":"bytes32"}],"stateMutability":"view"},{"type":"function","name":"proposals","inputs":[{"name":"","type":"uint256","internalType":"uint256"}],"outputs":[{"name":"claimant","type":"address","internalType":"address"},{"name":"uuid","type":"uint256","internalType":"uint256"}],"stateMutability":"view"},{"type":"function","name":"readPreimage","inputs":[{"name":"_key","type":"bytes32","internalType":"bytes32"},{"name":"_offset","type":"uint256","internalType":"uint256"}],"outputs":[{"name":"dat_","type":"bytes32","internalType":"bytes32"},{"name":"datLen_","type":"uint256","internalType":"uint256"}],"stateMutability":"view"},{"type":"function","name":"squeezeLPP","inputs":[{"name":"_claimant","type":"address","internalType":"address"},{"name":"_uuid","type":"uint256","internalType":"uint256"},{"name":"_stateMatrix","type":"tuple","internalType":"struct LibKeccak.StateMatrix","components":[{"name":"state","type":"uint64[25]","internalType":"uint64[25]"}]},{"name":"_preState","type":"tuple","internalType":"struct PreimageOracle.Leaf","components":[{"name":"input","type":"bytes","internalType":"bytes"},{"name":"index","type":"uint256","internalType":"uint256"},{"name":"stateCommitment","type":"bytes32","internalType":"bytes32"}]},{"name":"_preStateProof","type":"bytes32[]","internalType":"bytes32[]"},{"name":"_postState","type":"tuple","internalType":"struct PreimageOracle.Leaf","components":[{"name":"input","type":"bytes","internalType":"bytes"},{"name":"index","type":"uint256","internalType":"uint256"},{"name":"stateCommitment","type":"bytes32","internalType":"bytes32"}]},{"name":"_postStateProof","type":"bytes32[]","internalType":"bytes32[]"}],"outputs":[],"stateMutability":"nonpayable"},{"type":"function","name":"version","inputs":[],"outputs":[{"name":"","type":"string","internalType":"string"}],"stateMutability":"view"},{"type":"function","name":"zeroHashes","inputs":[{"name":"","type":"uint256","internalType":"uint256"}],"outputs":[{"name":"","type":"bytes32","internalType":"bytes32"}],"stateMutability":"view"},{"type":"error","name":"ActiveProposal","inputs":[]},{"type":"error","name":"AlreadyFinalized","inputs":[]},{"type":"error","name":"AlreadyInitialized","inputs":[]},{"type":"error","name":"BadProposal","inputs":[]},{"type":"error","name":"BondTransferFailed","inputs":[]},{"type":"error","name":"InsufficientBond","inputs":[]},{"type":"error","name":"InvalidInputSize","inputs":[]},{"type":"error","name":"InvalidPreimage","inputs":[]},{"type":"error","name":"InvalidProof","inputs":[]},{"type":"error","name":"NotEOA","inputs":[]},{"type":"error","name":"NotInitialized","inputs":[]},{"type":"error","name":"PartOffsetOOB","inputs":[]},{"type":"error","name":"PostStateMatches","inputs":[]},{"type":"error","name":"StatesNotContiguous","inputs":[]},{"type":"error","name":"TreeSizeOverflow","inputs":[]},{"type":"error","name":"WrongStartingBlock","inputs":[]}],"bytecode":{"object":"0x60c06040523480156200001157600080fd5b50604051620039ec380380620039ec833981016040819052620000349162000162565b60a082905260808190526001600160401b03811115620000ad5760405162461bcd60e51b815260206004820152602a60248201527f507265696d6167654f7261636c653a206368616c6c656e676520706572696f6460448201526920746f6f206c6172676560b01b606482015260840160405180910390fd5b60005b620000be600160106200019d565b811015620001595760038160108110620000dc57620000dc620001b7565b015460038260108110620000f457620000f4620001b7565b01546040805160208101939093528201526060016040516020818303038152906040528051906020012060038260016200012f9190620001cd565b60108110620001425762000142620001b7565b0155806200015081620001e8565b915050620000b0565b50505062000204565b600080604083850312156200017657600080fd5b505080516020909101519092909150565b634e487b7160e01b600052601160045260246000fd5b600082821015620001b257620001b262000187565b500390565b634e487b7160e01b600052603260045260246000fd5b60008219821115620001e357620001e362000187565b500190565b600060018201620001fd57620001fd62000187565b5060010190565b60805160a0516137b462000238600039600081816105b00152611dea0152600081816106b001526114f301526137b46000f3fe6080604052600436106101d85760003560e01c80639d53a64811610102578063ddcd58de11610095578063ec5efcbc11610064578063ec5efcbc14610681578063f3f480d9146106a1578063faf37bc7146106d4578063fef2b4ed146106e757600080fd5b8063ddcd58de146105d4578063e03110e11461060c578063e159261114610641578063ea7139501461066157600080fd5b8063b5e7154c116100d1578063b5e7154c14610555578063d18534b51461056c578063da35c6641461058c578063dd24f9bf146105a157600080fd5b80639d53a6481461048e5780639d7e8769146104dd578063b2e67ba8146104fd578063b4801e611461053557600080fd5b806361238bde1161017a5780637ac54767116101495780637ac54767146103ca5780638542cf50146103ea578063882856ef146104355780638dc4be111461046e57600080fd5b806361238bde1461031e5780636551927b146103565780637051472e1461038e5780637917de1d146103aa57600080fd5b80633909af5c116101b65780633909af5c146102715780634d52b4c91461029357806352f0f3ad146102a857806354fd4d50146102c857600080fd5b8063013cf08b146101dd5780630359a5631461022e5780632055b36b1461025c575b600080fd5b3480156101e957600080fd5b506101fd6101f8366004612ca2565b610714565b6040805173ffffffffffffffffffffffffffffffffffffffff90931683526020830191909152015b60405180910390f35b34801561023a57600080fd5b5061024e610249366004612ce4565b610759565b604051908152602001610225565b34801561026857600080fd5b5061024e601081565b34801561027d57600080fd5b5061029161028c366004612eec565b610891565b005b34801561029f57600080fd5b5061024e610ae8565b3480156102b457600080fd5b5061024e6102c3366004612fd8565b610b03565b3480156102d457600080fd5b506103116040518060400160405280600c81526020017f312e312e332d626574612e39000000000000000000000000000000000000000081525081565b604051610225919061303f565b34801561032a57600080fd5b5061024e610339366004613090565b600160209081526000928352604080842090915290825290205481565b34801561036257600080fd5b5061024e610371366004612ce4565b601560209081526000928352604080842090915290825290205481565b34801561039a57600080fd5b5061024e6703782dace9d9000081565b3480156103b657600080fd5b506102916103c53660046130f4565b610bd9565b3480156103d657600080fd5b5061024e6103e5366004612ca2565b6110dc565b3480156103f657600080fd5b50610425610405366004613090565b600260209081526000928352604080842090915290825290205460ff1681565b6040519015158152602001610225565b34801561044157600080fd5b50610455610450366004613190565b6110f3565b60405167ffffffffffffffff9091168152602001610225565b34801561047a57600080fd5b506102916104893660046131c3565b61114d565b34801561049a57600080fd5b5061024e6104a9366004612ce4565b73ffffffffffffffffffffffffffffffffffffffff9091166000908152601860209081526040808320938352929052205490565b3480156104e957600080fd5b506102916104f836600461320f565b611248565b34801561050957600080fd5b5061024e610518366004612ce4565b601760209081526000928352604080842090915290825290205481565b34801561054157600080fd5b5061024e610550366004613190565b6113ff565b34801561056157600080fd5b5061024e620186a081565b34801561057857600080fd5b50610291610587366004612eec565b611431565b34801561059857600080fd5b5060135461024e565b3480156105ad57600080fd5b507f000000000000000000000000000000000000000000000000000000000000000061024e565b3480156105e057600080fd5b5061024e6105ef366004612ce4565b601660209081526000928352604080842090915290825290205481565b34801561061857600080fd5b5061062c610627366004613090565b611840565b60408051928352602083019190915201610225565b34801561064d57600080fd5b5061029161065c3660046131c3565b611931565b34801561066d57600080fd5b5061029161067c36600461329b565b611a39565b34801561068d57600080fd5b5061029161069c36600461330a565b611b98565b3480156106ad57600080fd5b507f000000000000000000000000000000000000000000000000000000000000000061024e565b6102916106e2366004613392565b611d1e565b3480156106f357600080fd5b5061024e610702366004612ca2565b60006020819052908152604090205481565b6013818154811061072457600080fd5b60009182526020909120600290910201805460019091015473ffffffffffffffffffffffffffffffffffffffff909116915082565b73ffffffffffffffffffffffffffffffffffffffff82166000908152601560209081526040808320848452909152812054819061079c9060601c63ffffffff1690565b63ffffffff16905060005b6010811015610889578160011660010361082f5773ffffffffffffffffffffffffffffffffffffffff85166000908152601460209081526040808320878452909152902081601081106107fc576107fc6133ce565b01546040805160208101929092528101849052606001604051602081830303815290604052805190602001209250610870565b8260038260108110610843576108436133ce565b01546040805160208101939093528201526060016040516020818303038152906040528051906020012092505b60019190911c90806108818161342c565b9150506107a7565b505092915050565b600061089d8a8a610759565b90506108c086868360208b01356108bb6108b68d613464565b611fea565b61202a565b80156108de57506108de83838360208801356108bb6108b68a613464565b610914576040517f09bde33900000000000000000000000000000000000000000000000000000000815260040160405180910390fd5b86604001358860405160200161092a9190613533565b6040516020818303038152906040528051906020012014610977576040517f1968a90200000000000000000000000000000000000000000000000000000000815260040160405180910390fd5b83602001358760200135600161098d9190613571565b146109c4576040517f9a3b119900000000000000000000000000000000000000000000000000000000815260040160405180910390fd5b610a0c886109d28680613589565b8080601f01602080910402602001604051908101604052809392919081815260200183838082843760009201919091525061208b92505050565b610a15886121e6565b836040013588604051602001610a2b9190613533565b6040516020818303038152906040528051906020012003610a78576040517f9843145b00000000000000000000000000000000000000000000000000000000815260040160405180910390fd5b73ffffffffffffffffffffffffffffffffffffffff8a1660009081526015602090815260408083208c8452909152902080547fffffffffffffffffffffffffffffffffffffffffffffffff0000000000000000166001179055610adc8a8a33612800565b50505050505050505050565b6001610af660106002613710565b610b00919061371c565b81565b6000610b0f86866128c0565b9050610b1c836008613571565b82101580610b2a5750602083115b15610b61576040517ffe25498700000000000000000000000000000000000000000000000000000000815260040160405180910390fd5b6000602081815260c085901b82526008959095528251828252600286526040808320858452875280832080547fffffffffffffffffffffffffffffffffffffffffffffffffffffffffffffff001660019081179091558484528752808320948352938652838220558181529384905292205592915050565b60608115610bf257610beb868661296d565b9050610c2c565b85858080601f0160208091040260200160405190810160405280939291908181526020018383808284376000920191909152509293505050505b3360009081526014602090815260408083208b845290915280822081516102008101928390529160109082845b815481526020019060010190808311610c5957505050505090506000601560003373ffffffffffffffffffffffffffffffffffffffff1673ffffffffffffffffffffffffffffffffffffffff16815260200190815260200160002060008b81526020019081526020016000205490506000610cda8260601c63ffffffff1690565b63ffffffff169050333214610d1b576040517fba092d1600000000000000000000000000000000000000000000000000000000815260040160405180910390fd5b610d2b8260801c63ffffffff1690565b63ffffffff16600003610d6a576040517f87138d5c00000000000000000000000000000000000000000000000000000000815260040160405180910390fd5b610d748260c01c90565b67ffffffffffffffff1615610db5576040517f475a253500000000000000000000000000000000000000000000000000000000815260040160405180910390fd5b898114610dee576040517f60f95d5a00000000000000000000000000000000000000000000000000000000815260040160405180910390fd5b610dfb89898d88866129e6565b83516020850160888204881415608883061715610e20576307b1daf16000526004601cfd5b60405160c8810160405260005b83811015610ed0578083018051835260208101516020840152604081015160408401526060810151606084015260808101516080840152508460888301526088810460051b8b013560a883015260c882206001860195508560005b610200811015610ec5576001821615610ea55782818b0152610ec5565b8981015160009081526020938452604090209260019290921c9101610e88565b505050608801610e2d565b50505050600160106002610ee49190613710565b610eee919061371c565b811115610f27576040517f6229572300000000000000000000000000000000000000000000000000000000815260040160405180910390fd5b610f9c610f3a8360401c63ffffffff1690565b610f4a9063ffffffff168a613571565b60401b7fffffffffffffffffffffffffffffffffffffffff00000000ffffffffffffffff606084901b167fffffffffffffffffffffffffffffffff0000000000000000ffffffffffffffff8516171790565b915084156110295777ffffffffffffffffffffffffffffffffffffffffffffffff82164260c01b179150610fd68260801c63ffffffff1690565b63ffffffff16610fec8360401c63ffffffff1690565b63ffffffff1614611029576040517f7b1dafd100000000000000000000000000000000000000000000000000000000815260040160405180910390fd5b3360009081526014602090815260408083208e8452909152902061104f90846010612c18565b503360008181526018602090815260408083208f8452825280832080546001810182559084528284206004820401805460039092166008026101000a67ffffffffffffffff818102199093164390931602919091179055838352601582528083208f8452909152812084905560609190911b81523690601437366014016000a05050505050505050505050565b600381601081106110ec57600080fd5b0154905081565b6018602052826000526040600020602052816000526040600020818154811061111b57600080fd5b906000526020600020906004918282040191900660080292509250509054906101000a900467ffffffffffffffff1681565b60443560008060088301861061116b5763fe2549876000526004601cfd5b60c083901b60805260888386823786600882030151915060206000858360025afa90508061119857600080fd5b50600080517effffffffffffffffffffffffffffffffffffffffffffffffffffffffffffff167f0400000000000000000000000000000000000000000000000000000000000000178082526002602090815260408084208a8552825280842080547fffffffffffffffffffffffffffffffffffffffffffffffffffffffffffffff001660019081179091558385528252808420998452988152888320939093558152908190529490942055505050565b600080603087600037602060006030600060025afa806112705763f91129696000526004601cfd5b6000517effffffffffffffffffffffffffffffffffffffffffffffffffffffffffffff167f010000000000000000000000000000000000000000000000000000000000000017608081815260a08c905260c08b905260308a60e037603088609083013760008060c083600a5afa9250826112f2576309bde3396000526004601cfd5b602886106113085763fe2549876000526004601cfd5b6000602882015278200000000000000000000000000000000000000000000000008152600881018b905285810151935060308a8237603081019b909b52505060509098207effffffffffffffffffffffffffffffffffffffffffffffffffffffffffffff167f0500000000000000000000000000000000000000000000000000000000000000176000818152600260209081526040808320868452825280832080547fffffffffffffffffffffffffffffffffffffffffffffffffffffffffffffff0016600190811790915584845282528083209583529481528482209a909a559081528089529190912096909655505050505050565b6014602052826000526040600020602052816000526040600020816010811061142757600080fd5b0154925083915050565b73ffffffffffffffffffffffffffffffffffffffff891660009081526015602090815260408083208b845290915290205467ffffffffffffffff8116156114a4576040517fc334f06900000000000000000000000000000000000000000000000000000000815260040160405180910390fd5b6114ae8160c01c90565b67ffffffffffffffff166000036114f1576040517f55d4cbf900000000000000000000000000000000000000000000000000000000815260040160405180910390fd5b7f000000000000000000000000000000000000000000000000000000000000000061151c8260c01c90565b6115309067ffffffffffffffff164261371c565b11611567576040517f55d4cbf900000000000000000000000000000000000000000000000000000000815260040160405180910390fd5b60006115738b8b610759565b905061158c87878360208c01356108bb6108b68e613464565b80156115aa57506115aa84848360208901356108bb6108b68b613464565b6115e0576040517f09bde33900000000000000000000000000000000000000000000000000000000815260040160405180910390fd5b8760400135896040516020016115f69190613533565b6040516020818303038152906040528051906020012014611643576040517f1968a90200000000000000000000000000000000000000000000000000000000815260040160405180910390fd5b8460200135886020013560016116599190613571565b14158061168b575060016116738360601c63ffffffff1690565b61167d9190613733565b63ffffffff16856020013514155b156116c2576040517f9a3b119900000000000000000000000000000000000000000000000000000000815260040160405180910390fd5b6116d0896109d28780613589565b6116d9896121e6565b60006116e48a612b39565b7effffffffffffffffffffffffffffffffffffffffffffffffffffffffffffff167f0200000000000000000000000000000000000000000000000000000000000000179050600061173b8460a01c63ffffffff1690565b67ffffffffffffffff169050600160026000848152602001908152602001600020600083815260200190815260200160002060006101000a81548160ff021916908315150217905550601760008e73ffffffffffffffffffffffffffffffffffffffff1673ffffffffffffffffffffffffffffffffffffffff16815260200190815260200160002060008d8152602001908152602001600020546001600084815260200190815260200160002060008381526020019081526020016000208190555061180d8460801c63ffffffff1690565b600083815260208190526040902063ffffffff9190911690556118318d8d81612800565b50505050505050505050505050565b6000828152600260209081526040808320848452909152812054819060ff166118c9576040517f08c379a000000000000000000000000000000000000000000000000000000000815260206004820152601460248201527f7072652d696d616765206d757374206578697374000000000000000000000000604482015260640160405180910390fd5b50600083815260208181526040909120546118e5816008613571565b6118f0856020613571565b1061190e5783611901826008613571565b61190b919061371c565b91505b506000938452600160209081526040808620948652939052919092205492909150565b60443560008060088301861061194f5763fe2549876000526004601cfd5b60c083901b6080526088838682378087017ffffffffffffffffffffffffffffffffffffffffffffffffffffffffffffffff80151908490207effffffffffffffffffffffffffffffffffffffffffffffffffffffffffffff167f02000000000000000000000000000000000000000000000000000000000000001760008181526002602090815260408083208b8452825280832080547fffffffffffffffffffffffffffffffffffffffffffffffffffffffffffffff0016600190811790915584845282528083209a83529981528982209390935590815290819052959095209190915550505050565b60008060008060808860601b81528760c01b6014820152858782601c0137601c860181207effffffffffffffffffffffffffffffffffffffffffffffffffffffffffffff167f0600000000000000000000000000000000000000000000000000000000000000179350604088026260216001603f5a021015611ac35763dd629f866000526004601cfd5b6000808783601c018c5afa94503d6001019150600882018a10611aee5763fe2549876000526004601cfd5b60c082901b81526008018481533d6000600183013e89017ffffffffffffffffffffffffffffffffffffffffffffffffffffffffffffffff8015160008481526002602090815260408083208d8452825280832080547fffffffffffffffffffffffffffffffffffffffffffffffffffffffffffffff0016600190811790915587845282528083209c83529b81528b8220929092559384528390529790912096909655505050505050565b6000611ba48686610759565b9050611bbd83838360208801356108bb6108b68a613464565b611bf3576040517f09bde33900000000000000000000000000000000000000000000000000000000815260040160405180910390fd5b602084013515611c2f576040517f9a3b119900000000000000000000000000000000000000000000000000000000815260040160405180910390fd5b611c37612c56565b611c45816109d28780613589565b611c4e816121e6565b846040013581604051602001611c649190613533565b6040516020818303038152906040528051906020012003611cb1576040517f9843145b00000000000000000000000000000000000000000000000000000000815260040160405180910390fd5b73ffffffffffffffffffffffffffffffffffffffff87166000908152601560209081526040808320898452909152902080547fffffffffffffffffffffffffffffffffffffffffffffffff0000000000000000166001179055611d15878733612800565b50505050505050565b6703782dace9d90000341015611d60576040517fe92c469f00000000000000000000000000000000000000000000000000000000815260040160405180910390fd5b333214611d99576040517fba092d1600000000000000000000000000000000000000000000000000000000815260040160405180910390fd5b611da4816008613758565b63ffffffff168263ffffffff1610611de8576040517ffe25498700000000000000000000000000000000000000000000000000000000815260040160405180910390fd5b7f00000000000000000000000000000000000000000000000000000000000000008163ffffffff161015611e48576040517f7b1dafd100000000000000000000000000000000000000000000000000000000815260040160405180910390fd5b336000908152601560209081526040808320868452909152902054611e738160801c63ffffffff1690565b63ffffffff1615611eb0576040517f0dc149f000000000000000000000000000000000000000000000000000000000815260040160405180910390fd5b608082901b7fffffffffffffffffffffffff00000000ffffffffffffffffffffffffffffffff60a085901b167fffffffffffffffff0000000000000000ffffffffffffffffffffffffffffffff83161717336000818152601560209081526040808320898452825280832094909455835180850185528381528082018981526013805460018101825590855291517f66de8ffda797e3de9c05e8fc57b3bf0ec28a930d40b0d285d93c06501cf6a090600290930292830180547fffffffffffffffffffffffff00000000000000000000000000000000000000001673ffffffffffffffffffffffffffffffffffffffff909216919091179055517f66de8ffda797e3de9c05e8fc57b3bf0ec28a930d40b0d285d93c06501cf6a0919091015591815260168252828120968152959052909320349055505050565b600081600001518260200151836040015160405160200161200d93929190613780565b604051602081830303815290604052805190602001209050919050565b60008160005b601081101561207e578060051b880135600186831c16600181146120635760008481526020839052604090209350612074565b600082815260208590526040902093505b5050600101612030565b5090931495945050505050565b608881511461209957600080fd5b602081016020830161211a565b8260031b8201518060001a8160011a60081b178160021a60101b8260031a60181b17178160041a60201b8260051a60281b178260061a60301b8360071a60381b1717179050612114816120ff868560059190911b015190565b1867ffffffffffffffff16600586901b840152565b50505050565b612126600083836120a6565b612132600183836120a6565b61213e600283836120a6565b61214a600383836120a6565b612156600483836120a6565b612162600583836120a6565b61216e600683836120a6565b61217a600783836120a6565b612186600883836120a6565b612192600983836120a6565b61219e600a83836120a6565b6121aa600b83836120a6565b6121b6600c83836120a6565b6121c2600d83836120a6565b6121ce600e83836120a6565b6121da600f83836120a6565b612114601083836120a6565b6040805178010000000000008082800000000000808a8000000080008000602082015279808b00000000800000018000000080008081800000000000800991810191909152788a00000000000000880000000080008009000000008000000a60608201527b8000808b800000000000008b8000000000008089800000000000800360808201527f80000000000080028000000000000080000000000000800a800000008000000a60a08201527f800000008000808180000000000080800000000080000001800000008000800860c082015260009060e001604051602081830303815290604052905060208201602082016126e0565b600583901b8101518518604085900381901c90851b1867ffffffffffffffff8116600584901b8301525b505050505050565b6102808101516101e082015161014083015160a0840151845118189118186102a082015161020083015161016084015160c0850151602086015118189118186102c083015161022084015161018085015160e0860151604087015118189118186102e08401516102408501516101a0860151610100870151606088015118189118186103008501516102608601516101c0870151610120880151608089015118189118188084603f1c6123cb8660011b67ffffffffffffffff1690565b18188584603f1c6123e68660011b67ffffffffffffffff1690565b18188584603f1c6124018660011b67ffffffffffffffff1690565b181895508483603f1c61241e8560011b67ffffffffffffffff1690565b181894508387603f1c61243b8960011b67ffffffffffffffff1690565b60208b01518b51861867ffffffffffffffff168c5291189190911897508118600181901b603f9190911c18935087925061247b81602c60066001876122dc565b61248b87601460096006876122dc565b61249b86603d60166009876122dc565b6124ab876027600e6016876122dc565b6124bb8260126014600e876122dc565b6124cb86603e60026014876122dc565b6124db86602b600c6002876122dc565b6124eb856019600d600c876122dc565b6124fb8760086013600d876122dc565b61250b85603860176013876122dc565b61251b826029600f6017876122dc565b61252b87601b6004600f876122dc565b61253b87600e60186004876122dc565b61254b81600260156018876122dc565b61255b85603760086015876122dc565b61256b81602d60106008876122dc565b61257b82602460056010876122dc565b61258b85601c60036005876122dc565b61259b85601560126003876122dc565b6125ab86600f60116012876122dc565b6125bb81600a600b6011876122dc565b506125cc8560066007600b866122dc565b6125dc816003600a6007866122dc565b5067ffffffffffffffff8216610140820152612306565b600582811b8201805160018501831b8401805160028701851b8601805160038901871b8801805160048b0190981b8901805167ffffffffffffffff861985168918811690995283198a16861889169096528819861683188816909352841986168818871690528419831684189095169052919391929190611d15565b61267a6000826125f3565b6126856005826125f3565b612690600a826125f3565b61269b600f826125f3565b6126a66014826125f3565b50565b6126b28161230e565b6126bb8161266f565b600383901b820151815160c09190911c9061211490821867ffffffffffffffff168352565b6126ec600082846126a9565b6126f8600182846126a9565b612704600282846126a9565b612710600382846126a9565b61271c600482846126a9565b612728600582846126a9565b612734600682846126a9565b612740600782846126a9565b61274c600882846126a9565b612758600982846126a9565b612764600a82846126a9565b612770600b82846126a9565b61277c600c82846126a9565b612788600d82846126a9565b612794600e82846126a9565b6127a0600f82846126a9565b6127ac601082846126a9565b6127b8601182846126a9565b6127c4601282846126a9565b6127d0601382846126a9565b6127dc601482846126a9565b6127e8601582846126a9565b6127f4601682846126a9565b612114601782846126a9565b73ffffffffffffffffffffffffffffffffffffffff83811660009081526016602090815260408083208684529091528082208054908390559051909284169083908381818185875af1925050503d8060008114612879576040519150601f19603f3d011682016040523d82523d6000602084013e61287e565b606091505b50509050806128b9576040517f83e6cc6b00000000000000000000000000000000000000000000000000000000815260040160405180910390fd5b5050505050565b7f01000000000000000000000000000000000000000000000000000000000000007effffffffffffffffffffffffffffffffffffffffffffffffffffffffffffff831617612966818360408051600093845233602052918152606090922091527effffffffffffffffffffffffffffffffffffffffffffffffffffffffffffff167f01000000000000000000000000000000000000000000000000000000000000001790565b9392505050565b60606040519050816020820181810182868337608883068080156129b65760888290038501848101848103803687375060806001820353506001845160001a17845386526129cd565b608836843760018353608060878401536088850186525b5050505050601f19603f82510116810160405292915050565b60006129f88260a01c63ffffffff1690565b67ffffffffffffffff1690506000612a168360801c63ffffffff1690565b63ffffffff1690506000612a308460401c63ffffffff1690565b63ffffffff169050600883108015612a46575080155b15612a7a5760c082901b6000908152883560085283513382526017602090815260408084208a855290915290912055612b2f565b60088310158015612a98575080612a9260088561371c565b93508310155b8015612aac5750612aa98782613571565b83105b15612b2f576000612abd828561371c565b905087612acb826020613571565b10158015612ad7575085155b15612b0e576040517ffe25498700000000000000000000000000000000000000000000000000000000815260040160405180910390fd5b3360009081526017602090815260408083208a845290915290209089013590555b5050505050505050565b6000612bbc565b66ff00ff00ff00ff8160081c1667ff00ff00ff00ff00612b6a8360081b67ffffffffffffffff1690565b1617905065ffff0000ffff8160101c1667ffff0000ffff0000612b978360101b67ffffffffffffffff1690565b1617905060008160201c612bb58360201b67ffffffffffffffff1690565b1792915050565b60808201516020830190612bd490612b40565b612b40565b6040820151612be290612b40565b60401b17612bfa612bcf60018460059190911b015190565b825160809190911b90612c0c90612b40565b60c01b17179392505050565b8260108101928215612c46579160200282015b82811115612c46578251825591602001919060010190612c2b565b50612c52929150612c6e565b5090565b6040518060200160405280612c69612c83565b905290565b5b80821115612c525760008155600101612c6f565b6040518061032001604052806019906020820280368337509192915050565b600060208284031215612cb457600080fd5b5035919050565b803573ffffffffffffffffffffffffffffffffffffffff81168114612cdf57600080fd5b919050565b60008060408385031215612cf757600080fd5b612d0083612cbb565b946020939093013593505050565b7f4e487b7100000000000000000000000000000000000000000000000000000000600052604160045260246000fd5b604051610320810167ffffffffffffffff81118282101715612d6157612d61612d0e565b60405290565b6040516060810167ffffffffffffffff81118282101715612d6157612d61612d0e565b604051601f82017fffffffffffffffffffffffffffffffffffffffffffffffffffffffffffffffe016810167ffffffffffffffff81118282101715612dd157612dd1612d0e565b604052919050565b803567ffffffffffffffff81168114612cdf57600080fd5b6000610320808385031215612e0557600080fd5b604051602080820182811067ffffffffffffffff82111715612e2957612e29612d0e565b806040525081935085601f860112612e4057600080fd5b612e48612d3d565b928501928087851115612e5a57600080fd5b865b85811015612e7a57612e6d81612dd9565b8352918301918301612e5c565b509092525091949350505050565b600060608284031215612e9a57600080fd5b50919050565b60008083601f840112612eb257600080fd5b50813567ffffffffffffffff811115612eca57600080fd5b6020830191508360208260051b8501011115612ee557600080fd5b9250929050565b60008060008060008060008060006103e08a8c031215612f0b57600080fd5b612f148a612cbb565b985060208a01359750612f2a8b60408c01612df1565b96506103608a013567ffffffffffffffff80821115612f4857600080fd5b612f548d838e01612e88565b97506103808c0135915080821115612f6b57600080fd5b612f778d838e01612ea0565b90975095506103a08c0135915080821115612f9157600080fd5b612f9d8d838e01612e88565b94506103c08c0135915080821115612fb457600080fd5b50612fc18c828d01612ea0565b915080935050809150509295985092959850929598565b600080600080600060a08688031215612ff057600080fd5b505083359560208501359550604085013594606081013594506080013592509050565b60005b8381101561302e578181015183820152602001613016565b838111156121145750506000910152565b602081526000825180602084015261305e816040850160208701613013565b601f017fffffffffffffffffffffffffffffffffffffffffffffffffffffffffffffffe0169190910160400192915050565b600080604083850312156130a357600080fd5b50508035926020909101359150565b60008083601f8401126130c457600080fd5b50813567ffffffffffffffff8111156130dc57600080fd5b602083019150836020828501011115612ee557600080fd5b600080600080600080600060a0888a03121561310f57600080fd5b8735965060208801359550604088013567ffffffffffffffff8082111561313557600080fd5b6131418b838c016130b2565b909750955060608a013591508082111561315a57600080fd5b506131678a828b01612ea0565b9094509250506080880135801515811461318057600080fd5b8091505092959891949750929550565b6000806000606084860312156131a557600080fd5b6131ae84612cbb565b95602085013595506040909401359392505050565b6000806000604084860312156131d857600080fd5b83359250602084013567ffffffffffffffff8111156131f657600080fd5b613202868287016130b2565b9497909650939450505050565b600080600080600080600060a0888a03121561322a57600080fd5b8735965060208801359550604088013567ffffffffffffffff8082111561325057600080fd5b61325c8b838c016130b2565b909750955060608a013591508082111561327557600080fd5b506132828a828b016130b2565b989b979a50959894979596608090950135949350505050565b6000806000806000608086880312156132b357600080fd5b853594506132c360208701612cbb565b93506132d160408701612dd9565b9250606086013567ffffffffffffffff8111156132ed57600080fd5b6132f9888289016130b2565b969995985093965092949392505050565b60008060008060006080868803121561332257600080fd5b61332b86612cbb565b945060208601359350604086013567ffffffffffffffff8082111561334f57600080fd5b61335b89838a01612e88565b9450606088013591508082111561337157600080fd5b506132f988828901612ea0565b803563ffffffff81168114612cdf57600080fd5b6000806000606084860312156133a757600080fd5b833592506133b76020850161337e565b91506133c56040850161337e565b90509250925092565b7f4e487b7100000000000000000000000000000000000000000000000000000000600052603260045260246000fd5b7f4e487b7100000000000000000000000000000000000000000000000000000000600052601160045260246000fd5b60007fffffffffffffffffffffffffffffffffffffffffffffffffffffffffffffffff820361345d5761345d6133fd565b5060010190565b60006060823603121561347657600080fd5b61347e612d67565b823567ffffffffffffffff8082111561349657600080fd5b9084019036601f8301126134a957600080fd5b81356020828211156134bd576134bd612d0e565b6134ed817fffffffffffffffffffffffffffffffffffffffffffffffffffffffffffffffe0601f85011601612d8a565b9250818352368183860101111561350357600080fd5b81818501828501376000918301810191909152908352848101359083015250604092830135928101929092525090565b81516103208201908260005b601981101561356857825167ffffffffffffffff1682526020928301929091019060010161353f565b50505092915050565b60008219821115613584576135846133fd565b500190565b60008083357fffffffffffffffffffffffffffffffffffffffffffffffffffffffffffffffe18436030181126135be57600080fd5b83018035915067ffffffffffffffff8211156135d957600080fd5b602001915036819003821315612ee557600080fd5b600181815b8085111561364757817fffffffffffffffffffffffffffffffffffffffffffffffffffffffffffffffff0482111561362d5761362d6133fd565b8085161561363a57918102915b93841c93908002906135f3565b509250929050565b60008261365e5750600161370a565b8161366b5750600061370a565b8160018114613681576002811461368b576136a7565b600191505061370a565b60ff84111561369c5761369c6133fd565b50506001821b61370a565b5060208310610133831016604e8410600b84101617156136ca575081810a61370a565b6136d483836135ee565b807fffffffffffffffffffffffffffffffffffffffffffffffffffffffffffffffff04821115613706576137066133fd565b0290505b92915050565b6000612966838361364f565b60008282101561372e5761372e6133fd565b500390565b600063ffffffff83811690831681811015613750576137506133fd565b039392505050565b600063ffffffff808316818516808303821115613777576137776133fd565b01949350505050565b60008451613792818460208901613013565b9190910192835250602082015260400191905056fea164736f6c634300080f000a","linkReferences":{}},"methodIdentifiers":{"KECCAK_TREE_DEPTH()":"2055b36b","MAX_LEAF_COUNT()":"4d52b4c9","MIN_BOND_SIZE()":"7051472e","PRECOMPILE_CALL_RESERVED_GAS()":"b5e7154c","addLeavesLPP(uint256,uint256,bytes,bytes32[],bool)":"7917de1d","challengeFirstLPP(address,uint256,(bytes,uint256,bytes32),bytes32[])":"ec5efcbc","challengeLPP(address,uint256,(uint64[25]),(bytes,uint256,bytes32),bytes32[],(bytes,uint256,bytes32),bytes32[])":"3909af5c","challengePeriod()":"f3f480d9","getTreeRootLPP(address,uint256)":"0359a563","initLPP(uint256,uint32,uint32)":"faf37bc7","loadBlobPreimagePart(uint256,uint256,bytes,bytes,uint256)":"9d7e8769","loadKeccak256PreimagePart(uint256,bytes)":"e1592611","loadLocalData(uint256,bytes32,bytes32,uint256,uint256)":"52f0f3ad","loadPrecompilePreimagePart(uint256,address,uint64,bytes)":"ea713950","loadSha256PreimagePart(uint256,bytes)":"8dc4be11","minProposalSize()":"dd24f9bf","preimageLengths(bytes32)":"fef2b4ed","preimagePartOk(bytes32,uint256)":"8542cf50","preimageParts(bytes32,uint256)":"61238bde","proposalBlocks(address,uint256,uint256)":"882856ef","proposalBlocksLen(address,uint256)":"9d53a648","proposalBonds(address,uint256)":"ddcd58de","proposalBranches(address,uint256,uint256)":"b4801e61","proposalCount()":"da35c664","proposalMetadata(address,uint256)":"6551927b","proposalParts(address,uint256)":"b2e67ba8","proposals(uint256)":"013cf08b","readPreimage(bytes32,uint256)":"e03110e1","squeezeLPP(address,uint256,(uint64[25]),(bytes,uint256,bytes32),bytes32[],(bytes,uint256,bytes32),bytes32[])":"d18534b5","version()":"54fd4d50","zeroHashes(uint256)":"7ac54767"},"storageLayout":{"storage":[{"astId":108221,"contract":"src/cannon/PreimageOracle.sol:PreimageOracle","label":"preimageLengths","offset":0,"slot":"0","type":"t_mapping(t_bytes32,t_uint256)"},{"astId":108228,"contract":"src/cannon/PreimageOracle.sol:PreimageOracle","label":"preimageParts","offset":0,"slot":"1","type":"t_mapping(t_bytes32,t_mapping(t_uint256,t_bytes32))"},{"astId":108235,"contract":"src/cannon/PreimageOracle.sol:PreimageOracle","label":"preimagePartOk","offset":0,"slot":"2","type":"t_mapping(t_bytes32,t_mapping(t_uint256,t_bool))"},{"astId":108257,"contract":"src/cannon/PreimageOracle.sol:PreimageOracle","label":"zeroHashes","offset":0,"slot":"3","type":"t_array(t_bytes32)16_storage"},{"astId":108262,"contract":"src/cannon/PreimageOracle.sol:PreimageOracle","label":"proposals","offset":0,"slot":"19","type":"t_array(t_struct(LargePreimageProposalKeys)108252_storage)dyn_storage"},{"astId":108271,"contract":"src/cannon/PreimageOracle.sol:PreimageOracle","label":"proposalBranches","offset":0,"slot":"20","type":"t_mapping(t_address,t_mapping(t_uint256,t_array(t_bytes32)16_storage))"},{"astId":108279,"contract":"src/cannon/PreimageOracle.sol:PreimageOracle","label":"proposalMetadata","offset":0,"slot":"21","type":"t_mapping(t_address,t_mapping(t_uint256,t_userDefinedValueType(LPPMetaData)109754))"},{"astId":108286,"contract":"src/cannon/PreimageOracle.sol:PreimageOracle","label":"proposalBonds","offset":0,"slot":"22","type":"t_mapping(t_address,t_mapping(t_uint256,t_uint256))"},{"astId":108293,"contract":"src/cannon/PreimageOracle.sol:PreimageOracle","label":"proposalParts","offset":0,"slot":"23","type":"t_mapping(t_address,t_mapping(t_uint256,t_bytes32))"},{"astId":108301,"contract":"src/cannon/PreimageOracle.sol:PreimageOracle","label":"proposalBlocks","offset":0,"slot":"24","type":"t_mapping(t_address,t_mapping(t_uint256,t_array(t_uint64)dyn_storage))"}],"types":{"t_address":{"encoding":"inplace","label":"address","numberOfBytes":"20"},"t_array(t_bytes32)16_storage":{"encoding":"inplace","label":"bytes32[16]","numberOfBytes":"512","base":"t_bytes32"},"t_array(t_struct(LargePreimageProposalKeys)108252_storage)dyn_storage":{"encoding":"dynamic_array","label":"struct PreimageOracle.LargePreimageProposalKeys[]","numberOfBytes":"32","base":"t_struct(LargePreimageProposalKeys)108252_storage"},"t_array(t_uint64)dyn_storage":{"encoding":"dynamic_array","label":"uint64[]","numberOfBytes":"32","base":"t_uint64"},"t_bool":{"encoding":"inplace","label":"bool","numberOfBytes":"1"},"t_bytes32":{"encoding":"inplace","label":"bytes32","numberOfBytes":"32"},"t_mapping(t_address,t_mapping(t_uint256,t_array(t_bytes32)16_storage))":{"encoding":"mapping","key":"t_address","label":"mapping(address => mapping(uint256 => bytes32[16]))","numberOfBytes":"32","value":"t_mapping(t_uint256,t_array(t_bytes32)16_storage)"},"t_mapping(t_address,t_mapping(t_uint256,t_array(t_uint64)dyn_storage))":{"encoding":"mapping","key":"t_address","label":"mapping(address => mapping(uint256 => uint64[]))","numberOfBytes":"32","value":"t_mapping(t_uint256,t_array(t_uint64)dyn_storage)"},"t_mapping(t_address,t_mapping(t_uint256,t_bytes32))":{"encoding":"mapping","key":"t_address","label":"mapping(address => mapping(uint256 => bytes32))","numberOfBytes":"32","value":"t_mapping(t_uint256,t_bytes32)"},"t_mapping(t_address,t_mapping(t_uint256,t_uint256))":{"encoding":"mapping","key":"t_address","label":"mapping(address => mapping(uint256 => uint256))","numberOfBytes":"32","value":"t_mapping(t_uint256,t_uint256)"},"t_mapping(t_address,t_mapping(t_uint256,t_userDefinedValueType(LPPMetaData)109754))":{"encoding":"mapping","key":"t_address","label":"mapping(address => mapping(uint256 => LPPMetaData))","numberOfBytes":"32","value":"t_mapping(t_uint256,t_userDefinedValueType(LPPMetaData)109754)"},"t_mapping(t_bytes32,t_mapping(t_uint256,t_bool))":{"encoding":"mapping","key":"t_bytes32","label":"mapping(bytes32 => mapping(uint256 => bool))","numberOfBytes":"32","value":"t_mapping(t_uint256,t_bool)"},"t_mapping(t_bytes32,t_mapping(t_uint256,t_bytes32))":{"encoding":"mapping","key":"t_bytes32","label":"mapping(bytes32 => mapping(uint256 => bytes32))","numberOfBytes":"32","value":"t_mapping(t_uint256,t_bytes32)"},"t_mapping(t_bytes32,t_uint256)":{"encoding":"mapping","key":"t_bytes32","label":"mapping(bytes32 => uint256)","numberOfBytes":"32","value":"t_uint256"},"t_mapping(t_uint256,t_array(t_bytes32)16_storage)":{"encoding":"mapping","key":"t_uint256","label":"mapping(uint256 => bytes32[16])","numberOfBytes":"32","value":"t_array(t_bytes32)16_storage"},"t_mapping(t_uint256,t_array(t_uint64)dyn_storage)":{"encoding":"mapping","key":"t_uint256","label":"mapping(uint256 => uint64[])","numberOfBytes":"32","value":"t_array(t_uint64)dyn_storage"},"t_mapping(t_uint256,t_bool)":{"encoding":"mapping","key":"t_uint256","label":"mapping(uint256 => bool)","numberOfBytes":"32","value":"t_bool"},"t_mapping(t_uint256,t_bytes32)":{"encoding":"mapping","key":"t_uint256","label":"mapping(uint256 => bytes32)","numberOfBytes":"32","value":"t_bytes32"},"t_mapping(t_uint256,t_uint256)":{"encoding":"mapping","key":"t_uint256","label":"mapping(uint256 => uint256)","numberOfBytes":"32","value":"t_uint256"},"t_mapping(t_uint256,t_userDefinedValueType(LPPMetaData)109754)":{"encoding":"mapping","key":"t_uint256","label":"mapping(uint256 => LPPMetaData)","numberOfBytes":"32","value":"t_userDefinedValueType(LPPMetaData)109754"},"t_struct(LargePreimageProposalKeys)108252_storage":{"encoding":"inplace","label":"struct PreimageOracle.LargePreimageProposalKeys","numberOfBytes":"64","members":[{"astId":108248,"contract":"src/cannon/PreimageOracle.sol:PreimageOracle","label":"claimant","offset":0,"slot":"0","type":"t_address"},{"astId":108251,"contract":"src/cannon/PreimageOracle.sol:PreimageOracle","label":"uuid","offset":0,"slot":"1","type":"t_uint256"}]},"t_uint256":{"encoding":"inplace","label":"uint256","numberOfBytes":"32"},"t_uint64":{"encoding":"inplace","label":"uint64","numberOfBytes":"8"},"t_userDefinedValueType(LPPMetaData)109754":{"encoding":"inplace","label":"LPPMetaData","numberOfBytes":"32"}}},"userdoc":{"version":1,"kind":"user","methods":{"KECCAK_TREE_DEPTH()":{"notice":"The depth of the keccak256 merkle tree. Supports up to 65,536 keccak blocks, or ~8.91MB preimages."},"MAX_LEAF_COUNT()":{"notice":"The maximum number of keccak blocks that can fit into the merkle tree."},"MIN_BOND_SIZE()":{"notice":"The minimum bond size for large preimage proposals."},"PRECOMPILE_CALL_RESERVED_GAS()":{"notice":"The reserved gas for precompile call setup."},"addLeavesLPP(uint256,uint256,bytes,bytes32[],bool)":{"notice":"Adds a contiguous list of keccak state matrices to the merkle tree."},"challengeFirstLPP(address,uint256,(bytes,uint256,bytes32),bytes32[])":{"notice":"Challenge the first keccak256 block that was absorbed."},"challengeLPP(address,uint256,(uint64[25]),(bytes,uint256,bytes32),bytes32[],(bytes,uint256,bytes32),bytes32[])":{"notice":"Challenge a keccak256 block that was committed to in the merkle tree."},"challengePeriod()":{"notice":"Returns the length of the large preimage proposal challenge period."},"getTreeRootLPP(address,uint256)":{"notice":"Gets the current merkle root of the large preimage proposal tree."},"initLPP(uint256,uint32,uint32)":{"notice":"Initialize a large preimage proposal. Must be called before adding any leaves."},"loadKeccak256PreimagePart(uint256,bytes)":{"notice":"Prepares a preimage to be read by keccak256 key, starting at the given offset and up to 32 bytes         (clipped at preimage length, if out of data)."},"loadLocalData(uint256,bytes32,bytes32,uint256,uint256)":{"notice":"Loads local data parts into the preimage oracle."},"loadPrecompilePreimagePart(uint256,address,uint64,bytes)":{"notice":"Prepares a precompile result to be read by a precompile key for the specified offset.         The precompile result data is a concatenation of the precompile call status byte and its return data.         The preimage key is `6 ++ keccak256(precompile ++ input)[1:]`."},"loadSha256PreimagePart(uint256,bytes)":{"notice":"Prepares a preimage to be read by sha256 key, starting at the given offset and up to 32 bytes         (clipped at preimage length, if out of data)."},"minProposalSize()":{"notice":"Returns the minimum size (in bytes) of a large preimage proposal."},"preimageLengths(bytes32)":{"notice":"Mapping of pre-image keys to pre-image lengths."},"preimagePartOk(bytes32,uint256)":{"notice":"Mapping of pre-image keys to pre-image part offsets to preimage preparedness."},"preimageParts(bytes32,uint256)":{"notice":"Mapping of pre-image keys to pre-image offsets to pre-image parts."},"proposalBlocks(address,uint256,uint256)":{"notice":"Mapping of claimants to proposal UUIDs to blocks which leaves were added to the merkle tree."},"proposalBlocksLen(address,uint256)":{"notice":"Returns the length of the array with the block numbers of `addLeavesLPP` calls for a given large         preimage proposal."},"proposalBonds(address,uint256)":{"notice":"Mapping of claimants to proposal UUIDs to bond amounts."},"proposalBranches(address,uint256,uint256)":{"notice":"Mapping of claimants to proposal UUIDs to the current branch path of the merkleization process."},"proposalCount()":{"notice":"Returns the length of the `proposals` array"},"proposalMetadata(address,uint256)":{"notice":"Mapping of claimants to proposal UUIDs to the timestamp of creation of the proposal as well as the challenged status."},"proposalParts(address,uint256)":{"notice":"Mapping of claimants to proposal UUIDs to the preimage part picked up during the absorbtion process."},"proposals(uint256)":{"notice":"Append-only array of large preimage proposals for off-chain reference."},"readPreimage(bytes32,uint256)":{"notice":"Reads a preimage from the oracle."},"squeezeLPP(address,uint256,(uint64[25]),(bytes,uint256,bytes32),bytes32[],(bytes,uint256,bytes32),bytes32[])":{"notice":"Finalize a large preimage proposal after the challenge period has passed."},"version()":{"notice":"The semantic version of the Preimage Oracle contract."},"zeroHashes(uint256)":{"notice":"Static padding hashes. These values are persisted in storage, but are entirely immutable         after the constructor's execution."}},"errors":{"ActiveProposal()":[{"notice":"Thrown when the proposal has not matured past the challenge period."}],"AlreadyFinalized()":[{"notice":"Thrown when the preimage proposal has already been finalized."}],"AlreadyInitialized()":[{"notice":"Thrown when attempting to re-initialize an existing large preimage proposal."}],"BadProposal()":[{"notice":"Thrown when attempting to finalize a proposal that has been challenged."}],"BondTransferFailed()":[{"notice":"Thrown when a bond transfer fails."}],"InsufficientBond()":[{"notice":"Thrown when an insufficient bond is provided for a large preimage proposal."}],"InvalidInputSize()":[{"notice":"Thrown when a leaf with an invalid input size is added."}],"InvalidPreimage()":[{"notice":"Thrown when the prestate preimage doesn't match the claimed preimage."}],"InvalidProof()":[{"notice":"Thrown when a merkle proof fails to verify."}],"NotEOA()":[{"notice":"Thrown when the caller of a function is not an EOA."}],"NotInitialized()":[{"notice":"Thrown when attempting to add leaves to a preimage proposal that has not been initialized."}],"PartOffsetOOB()":[{"notice":"Thrown when a passed part offset is out of bounds."}],"PostStateMatches()":[{"notice":"Thrown when the permutation yields the expected result."}],"StatesNotContiguous()":[{"notice":"Thrown when the pre and post states passed aren't contiguous."}],"TreeSizeOverflow()":[{"notice":"Thrown when the preimage is too large to fit in the tree."}],"WrongStartingBlock()":[{"notice":"Thrown when data is submitted out of order in a large preimage proposal."}]},"notice":"A contract for storing permissioned pre-images."},"devdoc":{"version":1,"kind":"dev","methods":{"loadBlobPreimagePart(uint256,uint256,bytes,bytes,uint256)":{"params":{"_commitment":"The commitment to the polynomial. 48 bytes, part of the preimage key.","_partOffset":"The offset of the preimage to store.","_proof":"The KZG proof, part of the preimage key.","_y":"Big endian point value. The preimage for the key.","_z":"Big endian point value. Part of the preimage key."}},"loadKeccak256PreimagePart(uint256,bytes)":{"params":{"_partOffset":"The offset of the preimage to read.","_preimage":"The preimage data."}},"loadLocalData(uint256,bytes32,bytes32,uint256,uint256)":{"details":"The local data parts are loaded into the preimage oracle under the context      of the caller - no other account can write to the caller's context      specific data.      There are 5 local data identifiers:      ┌────────────┬────────────────────────┐      │ Identifier │      Data              │      ├────────────┼────────────────────────┤      │          1 │ L1 Head Hash (bytes32) │      │          2 │ Output Root (bytes32)  │      │          3 │ Root Claim (bytes32)   │      │          4 │ L2 Block Number (u64)  │      │          5 │ Chain ID (u64)         │      └────────────┴────────────────────────┘","params":{"_ident":"The identifier of the local data.","_localContext":"The local key context for the preimage oracle. Optionally, can be set as a constant                      if the caller only requires one set of local keys.","_partOffset":"The offset of the local data part to write to the oracle.","_size":"The number of bytes in `_word` to load.","_word":"The local data word."}},"loadPrecompilePreimagePart(uint256,address,uint64,bytes)":{"params":{"_input":"The input to the precompile call.","_partOffset":"The offset of the precompile result being loaded.","_precompile":"The precompile address","_requiredGas":"The gas required to fully execute an L1 precompile."}},"loadSha256PreimagePart(uint256,bytes)":{"params":{"_partOffset":"The offset of the preimage to read.","_preimage":"The preimage data."}},"readPreimage(bytes32,uint256)":{"params":{"_key":"The key of the preimage to read.","_offset":"The offset of the preimage to read."},"returns":{"datLen_":"The length of the preimage data.","dat_":"The preimage data."}}},"title":"PreimageOracle"},"id":238}