{"abi":[{"type":"constructor","inputs":[{"name":"_owner","type":"address","internalType":"address"}],"stateMutability":"nonpayable"},{"type":"function","name":"CALL","inputs":[{"name":"_target","type":"address","internalType":"address"},{"name":"_data","type":"bytes","internalType":"bytes"},{"name":"_value","type":"uint256","internalType":"uint256"}],"outputs":[{"name":"success_","type":"bool","internalType":"bool"},{"name":"data_","type":"bytes","internalType":"bytes"}],"stateMutability":"payable"},{"type":"function","name":"DELEGATECALL","inputs":[{"name":"_target","type":"address","internalType":"address"},{"name":"_data","type":"bytes","internalType":"bytes"}],"outputs":[{"name":"success_","type":"bool","internalType":"bool"},{"name":"data_","type":"bytes","internalType":"bytes"}],"stateMutability":"payable"},{"type":"function","name":"owner","inputs":[],"outputs":[{"name":"","type":"address","internalType":"address"}],"stateMutability":"view"},{"type":"function","name":"setOwner","inputs":[{"name":"newOwner","type":"address","internalType":"address"}],"outputs":[],"stateMutability":"nonpayable"},{"type":"event","name":"OwnerUpdated","inputs":[{"name":"user","type":"address","indexed":true,"internalType":"address"},{"name":"newOwner","type":"address","indexed":true,"internalType":"address"}],"anonymous":false}],"bytecode":{"object":"0x6080604052348015600e575f5ffd5b506040516106d63803806106d6833981016040819052602b916078565b5f80546001600160a01b0319166001600160a01b03831690811782556040518392907f8292fce18fa69edf4db7b94ea2e58241df0ae57f97e0a6c9b29067028bf92d76908290a3505060a3565b5f602082840312156087575f5ffd5b81516001600160a01b0381168114609c575f5ffd5b9392505050565b610626806100b05f395ff3fe60806040526004361061003e575f3560e01c806313af4035146100425780636e2d44ae146100635780638da5cb5b1461008d578063edee6239146100dd575b5f5ffd5b34801561004d575f5ffd5b5061006161005c3660046103f4565b6100f0565b005b610076610071366004610509565b6101e4565b60405161008492919061055c565b60405180910390f35b348015610098575f5ffd5b505f546100b89073ffffffffffffffffffffffffffffffffffffffff1681565b60405173ffffffffffffffffffffffffffffffffffffffff9091168152602001610084565b6100766100eb3660046105b8565b6102da565b5f5473ffffffffffffffffffffffffffffffffffffffff163314610175576040517f08c379a000000000000000000000000000000000000000000000000000000000815260206004820152600c60248201527f554e415554484f52495a4544000000000000000000000000000000000000000060448201526064015b60405180910390fd5b5f80547fffffffffffffffffffffffff00000000000000000000000000000000000000001673ffffffffffffffffffffffffffffffffffffffff83169081178255604051909133917f8292fce18fa69edf4db7b94ea2e58241df0ae57f97e0a6c9b29067028bf92d769190a350565b5f805460609073ffffffffffffffffffffffffffffffffffffffff163314610268576040517f08c379a000000000000000000000000000000000000000000000000000000000815260206004820152600c60248201527f554e415554484f52495a45440000000000000000000000000000000000000000604482015260640161016c565b8473ffffffffffffffffffffffffffffffffffffffff16838560405161028e9190610603565b5f6040518083038185875af1925050503d805f81146102c8576040519150601f19603f3d011682016040523d82523d5f602084013e6102cd565b606091505b5090969095509350505050565b5f805460609073ffffffffffffffffffffffffffffffffffffffff16331461035e576040517f08c379a000000000000000000000000000000000000000000000000000000000815260206004820152600c60248201527f554e415554484f52495a45440000000000000000000000000000000000000000604482015260640161016c565b8373ffffffffffffffffffffffffffffffffffffffff16836040516103839190610603565b5f60405180830381855af49150503d805f81146103bb576040519150601f19603f3d011682016040523d82523d5f602084013e6103c0565b606091505b50909590945092505050565b803573ffffffffffffffffffffffffffffffffffffffff811681146103ef575f5ffd5b919050565b5f60208284031215610404575f5ffd5b61040d826103cc565b9392505050565b7f4e487b71000000000000000000000000000000000000000000000000000000005f52604160045260245ffd5b5f82601f830112610450575f5ffd5b813567ffffffffffffffff81111561046a5761046a610414565b6040517fffffffffffffffffffffffffffffffffffffffffffffffffffffffffffffffe0603f7fffffffffffffffffffffffffffffffffffffffffffffffffffffffffffffffe0601f8501160116810181811067ffffffffffffffff821117156104d6576104d6610414565b6040528181528382016020018510156104ed575f5ffd5b816020850160208301375f918101602001919091529392505050565b5f5f5f6060848603121561051b575f5ffd5b610524846103cc565b9250602084013567ffffffffffffffff81111561053f575f5ffd5b61054b86828701610441565b925050604084013590509250925092565b8215158152604060208201525f82518060408401528060208501606085015e5f6060828501015260607fffffffffffffffffffffffffffffffffffffffffffffffffffffffffffffffe0601f8301168401019150509392505050565b5f5f604083850312156105c9575f5ffd5b6105d2836103cc565b9150602083013567ffffffffffffffff8111156105ed575f5ffd5b6105f985828601610441565b9150509250929050565b5f82518060208501845e5f92019182525091905056fea164736f6c634300081c000a","linkReferences":{}},"methodIdentifiers":{"CALL(address,bytes,uint256)":"6e2d44ae","DELEGATECALL(address,bytes)":"edee6239","owner()":"8da5cb5b","setOwner(address)":"13af4035"},"storageLayout":{"storage":[{"astId":47658,"contract":"src/periphery/Transactor.sol:Transactor","label":"owner","offset":0,"slot":"0","type":"t_address"}],"types":{"t_address":{"encoding":"inplace","label":"address","numberOfBytes":"20"}}},"userdoc":{"version":1,"kind":"user","methods":{"CALL(address,bytes,uint256)":{"notice":"Sends a CALL to a target address."},"DELEGATECALL(address,bytes)":{"notice":"Sends a DELEGATECALL to a target address."}},"notice":"Transactor is a minimal contract that can send transactions."},"devdoc":{"version":1,"kind":"dev","methods":{"CALL(address,bytes,uint256)":{"params":{"_data":"Data to send with the call.","_target":"Address to call.","_value":"ETH value to send with the call."},"returns":{"data_":"Bytes data returned by the call.","success_":"Boolean success value."}},"DELEGATECALL(address,bytes)":{"params":{"_data":"Data to send with the call.","_target":"Address to call."},"returns":{"data_":"Bytes data returned by the call.","success_":"Boolean success value."}},"constructor":{"params":{"_owner":"Initial contract owner."}}},"title":"Transactor"},"id":137}