{"abi":[{"type":"function","name":"lastCall","inputs":[],"outputs":[{"name":"sender","type":"address","internalType":"address"},{"name":"data","type":"bytes","internalType":"bytes"},{"name":"gas","type":"uint256","internalType":"uint256"},{"name":"value","type":"uint256","internalType":"uint256"}],"stateMutability":"view"},{"type":"function","name":"record","inputs":[],"outputs":[],"stateMutability":"payable"}],"bytecode":{"object":"0x6080604052348015600e575f5ffd5b506103c88061001c5f395ff3fe608060405260043610610028575f3560e01c8063266cf1091461002c578063da516aa914610036575b5f5ffd5b610034610063565b005b348015610041575f5ffd5b5061004a6100a6565b60405161005a949392919061015d565b60405180910390f35b5f80547fffffffffffffffffffffffff0000000000000000000000000000000000000000163317815560019061009b903690836102a5565b505a60025534600355565b5f80546001805473ffffffffffffffffffffffffffffffffffffffff90921692916100d090610208565b80601f01602080910402602001604051908101604052809291908181526020018280546100fc90610208565b80156101475780601f1061011e57610100808354040283529160200191610147565b820191905f5260205f20905b81548152906001019060200180831161012a57829003601f168201915b5050505050908060020154908060030154905084565b73ffffffffffffffffffffffffffffffffffffffff85168152608060208201525f8451806080840152806020870160a085015e5f60a0828501015260a07fffffffffffffffffffffffffffffffffffffffffffffffffffffffffffffffe0601f83011684010191505083604083015282606083015295945050505050565b7f4e487b71000000000000000000000000000000000000000000000000000000005f52604160045260245ffd5b600181811c9082168061021c57607f821691505b602082108103610253577f4e487b71000000000000000000000000000000000000000000000000000000005f52602260045260245ffd5b50919050565b601f8211156102a057805f5260205f20601f840160051c8101602085101561027e5750805b601f840160051c820191505b8181101561029d575f815560010161028a565b50505b505050565b67ffffffffffffffff8311156102bd576102bd6101db565b6102d1836102cb8354610208565b83610259565b5f601f841160018114610321575f85156102eb5750838201355b7fffffffffffffffffffffffffffffffffffffffffffffffffffffffffffffffff600387901b1c1916600186901b17835561029d565b5f838152602081207fffffffffffffffffffffffffffffffffffffffffffffffffffffffffffffffe08716915b8281101561036e578685013582556020948501946001909201910161034e565b50868210156103a9577fffffffffffffffffffffffffffffffffffffffffffffffffffffffffffffffff60f88860031b161c19848701351681555b505060018560011b018355505050505056fea164736f6c634300081c000a","linkReferences":{}},"methodIdentifiers":{"lastCall()":"da516aa9","record()":"266cf109"},"storageLayout":{"storage":[{"astId":74577,"contract":"test/mocks/Callers.sol:CallRecorder","label":"lastCall","offset":0,"slot":"0","type":"t_struct(CallInfo)74574_storage"}],"types":{"t_address":{"encoding":"inplace","label":"address","numberOfBytes":"20"},"t_bytes_storage":{"encoding":"bytes","label":"bytes","numberOfBytes":"32"},"t_struct(CallInfo)74574_storage":{"encoding":"inplace","label":"struct CallRecorder.CallInfo","numberOfBytes":"128","members":[{"astId":74567,"contract":"test/mocks/Callers.sol:CallRecorder","label":"sender","offset":0,"slot":"0","type":"t_address"},{"astId":74569,"contract":"test/mocks/Callers.sol:CallRecorder","label":"data","offset":0,"slot":"1","type":"t_bytes_storage"},{"astId":74571,"contract":"test/mocks/Callers.sol:CallRecorder","label":"gas","offset":0,"slot":"2","type":"t_uint256"},{"astId":74573,"contract":"test/mocks/Callers.sol:CallRecorder","label":"value","offset":0,"slot":"3","type":"t_uint256"}]},"t_uint256":{"encoding":"inplace","label":"uint256","numberOfBytes":"32"}}},"userdoc":{"version":1,"kind":"user"},"devdoc":{"version":1,"kind":"dev"},"id":157}