{"abi":[{"type":"function","name":"dcForward","inputs":[{"name":"_target","type":"address","internalType":"address"},{"name":"_data","type":"bytes","internalType":"bytes"}],"outputs":[],"stateMutability":"nonpayable"}],"bytecode":{"object":"0x608060405234801561001057600080fd5b5061019d806100206000396000f3fe608060405234801561001057600080fd5b506004361061002b5760003560e01c80635e05f21314610030575b600080fd5b61004361003e366004610095565b610045565b005b600080825160208401855af43d6000803e80610060573d6000fd5b503d6000f35b7f4e487b7100000000000000000000000000000000000000000000000000000000600052604160045260246000fd5b600080604083850312156100a857600080fd5b823573ffffffffffffffffffffffffffffffffffffffff811681146100cc57600080fd5b9150602083013567ffffffffffffffff808211156100e957600080fd5b818501915085601f8301126100fd57600080fd5b81358181111561010f5761010f610066565b604051601f82017fffffffffffffffffffffffffffffffffffffffffffffffffffffffffffffffe0908116603f0116810190838211818310171561015557610155610066565b8160405282815288602084870101111561016e57600080fd5b826020860160208301376000602084830101528095505050505050925092905056fea164736f6c634300080f000a","linkReferences":{}},"methodIdentifiers":{"dcForward(address,bytes)":"5e05f213"},"storageLayout":{"storage":[],"types":{}},"userdoc":{"version":1,"kind":"user"},"devdoc":{"version":1,"kind":"dev","details":"Can be etched in to any address to test making a delegatecall from that address."},"id":403}