{"abi":[{"type":"function","name":"dcForward","inputs":[{"name":"_target","type":"address","internalType":"address"},{"name":"_data","type":"bytes","internalType":"bytes"}],"outputs":[],"stateMutability":"nonpayable"}],"bytecode":{"object":"0x6080604052348015600e575f5ffd5b506101b48061001c5f395ff3fe608060405234801561000f575f5ffd5b5060043610610029575f3560e01c80635e05f2131461002d575b5f5ffd5b61004061003b36600461008c565b610042565b005b5f5f825160208401855af43d5f5f3e8061005a573d5ffd5b503d5ff35b7f4e487b71000000000000000000000000000000000000000000000000000000005f52604160045260245ffd5b5f5f6040838503121561009d575f5ffd5b823573ffffffffffffffffffffffffffffffffffffffff811681146100c0575f5ffd5b9150602083013567ffffffffffffffff8111156100db575f5ffd5b8301601f810185136100eb575f5ffd5b803567ffffffffffffffff8111156101055761010561005f565b6040517fffffffffffffffffffffffffffffffffffffffffffffffffffffffffffffffe0603f7fffffffffffffffffffffffffffffffffffffffffffffffffffffffffffffffe0601f8501160116810181811067ffffffffffffffff821117156101715761017161005f565b604052818152828201602001871015610188575f5ffd5b816020840160208301375f60208383010152809350505050925092905056fea164736f6c634300081c000a","linkReferences":{}},"methodIdentifiers":{"dcForward(address,bytes)":"5e05f213"},"storageLayout":{"storage":[],"types":{}},"userdoc":{"version":1,"kind":"user"},"devdoc":{"version":1,"kind":"dev","details":"Can be etched in to any address to test making a delegatecall from that address."},"id":157}