{"abi":[{"type":"fallback","stateMutability":"nonpayable"},{"type":"function","name":"doRevert","inputs":[],"outputs":[],"stateMutability":"pure"}],"bytecode":{"object":"0x6080604052348015600e575f5ffd5b5060a580601a5f395ff3fe6080604052348015600e575f5ffd5b50600436106026575f3560e01c8063afc874d214602a575b5f5ffd5b60306032565b005b6040517f08c379a000000000000000000000000000000000000000000000000000000000815260206004820152601b60248201527f52657665727465723a2052657665727465722072657665727465640000000000604482015260640160405180910390fdfea164736f6c634300081c000a","linkReferences":{}},"methodIdentifiers":{"doRevert()":"afc874d2"},"storageLayout":{"storage":[],"types":{}},"userdoc":{"version":1,"kind":"user"},"devdoc":{"version":1,"kind":"dev","details":"Any call will revert"},"id":157}