{"abi":[{"type":"constructor","inputs":[],"stateMutability":"nonpayable"},{"type":"function","name":"create","inputs":[{"name":"_gameType","type":"uint32","internalType":"GameType"},{"name":"_rootClaim","type":"bytes32","internalType":"Claim"},{"name":"_extraData","type":"bytes","internalType":"bytes"}],"outputs":[{"name":"proxy_","type":"address","internalType":"contract IDisputeGame"}],"stateMutability":"payable"},{"type":"function","name":"findLatestGames","inputs":[{"name":"_gameType","type":"uint32","internalType":"GameType"},{"name":"_start","type":"uint256","internalType":"uint256"},{"name":"_n","type":"uint256","internalType":"uint256"}],"outputs":[{"name":"games_","type":"tuple[]","internalType":"struct DisputeGameFactory.GameSearchResult[]","components":[{"name":"index","type":"uint256","internalType":"uint256"},{"name":"metadata","type":"bytes32","internalType":"GameId"},{"name":"timestamp","type":"uint64","internalType":"Timestamp"},{"name":"rootClaim","type":"bytes32","internalType":"Claim"},{"name":"extraData","type":"bytes","internalType":"bytes"}]}],"stateMutability":"view"},{"type":"function","name":"gameAtIndex","inputs":[{"name":"_index","type":"uint256","internalType":"uint256"}],"outputs":[{"name":"gameType_","type":"uint32","internalType":"GameType"},{"name":"timestamp_","type":"uint64","internalType":"Timestamp"},{"name":"proxy_","type":"address","internalType":"contract IDisputeGame"}],"stateMutability":"view"},{"type":"function","name":"gameCount","inputs":[],"outputs":[{"name":"gameCount_","type":"uint256","internalType":"uint256"}],"stateMutability":"view"},{"type":"function","name":"gameImpls","inputs":[{"name":"","type":"uint32","internalType":"GameType"}],"outputs":[{"name":"","type":"address","internalType":"contract IDisputeGame"}],"stateMutability":"view"},{"type":"function","name":"games","inputs":[{"name":"_gameType","type":"uint32","internalType":"GameType"},{"name":"_rootClaim","type":"bytes32","internalType":"Claim"},{"name":"_extraData","type":"bytes","internalType":"bytes"}],"outputs":[{"name":"proxy_","type":"address","internalType":"contract IDisputeGame"},{"name":"timestamp_","type":"uint64","internalType":"Timestamp"}],"stateMutability":"view"},{"type":"function","name":"getGameUUID","inputs":[{"name":"_gameType","type":"uint32","internalType":"GameType"},{"name":"_rootClaim","type":"bytes32","internalType":"Claim"},{"name":"_extraData","type":"bytes","internalType":"bytes"}],"outputs":[{"name":"uuid_","type":"bytes32","internalType":"Hash"}],"stateMutability":"pure"},{"type":"function","name":"initBonds","inputs":[{"name":"","type":"uint32","internalType":"GameType"}],"outputs":[{"name":"","type":"uint256","internalType":"uint256"}],"stateMutability":"view"},{"type":"function","name":"initialize","inputs":[{"name":"_owner","type":"address","internalType":"address"}],"outputs":[],"stateMutability":"nonpayable"},{"type":"function","name":"owner","inputs":[],"outputs":[{"name":"","type":"address","internalType":"address"}],"stateMutability":"view"},{"type":"function","name":"renounceOwnership","inputs":[],"outputs":[],"stateMutability":"nonpayable"},{"type":"function","name":"setImplementation","inputs":[{"name":"_gameType","type":"uint32","internalType":"GameType"},{"name":"_impl","type":"address","internalType":"contract IDisputeGame"}],"outputs":[],"stateMutability":"nonpayable"},{"type":"function","name":"setInitBond","inputs":[{"name":"_gameType","type":"uint32","internalType":"GameType"},{"name":"_initBond","type":"uint256","internalType":"uint256"}],"outputs":[],"stateMutability":"nonpayable"},{"type":"function","name":"transferOwnership","inputs":[{"name":"newOwner","type":"address","internalType":"address"}],"outputs":[],"stateMutability":"nonpayable"},{"type":"function","name":"version","inputs":[],"outputs":[{"name":"","type":"string","internalType":"string"}],"stateMutability":"view"},{"type":"event","name":"DisputeGameCreated","inputs":[{"name":"disputeProxy","type":"address","indexed":true,"internalType":"address"},{"name":"gameType","type":"uint32","indexed":true,"internalType":"GameType"},{"name":"rootClaim","type":"bytes32","indexed":true,"internalType":"Claim"}],"anonymous":false},{"type":"event","name":"ImplementationSet","inputs":[{"name":"impl","type":"address","indexed":true,"internalType":"address"},{"name":"gameType","type":"uint32","indexed":true,"internalType":"GameType"}],"anonymous":false},{"type":"event","name":"InitBondUpdated","inputs":[{"name":"gameType","type":"uint32","indexed":true,"internalType":"GameType"},{"name":"newBond","type":"uint256","indexed":true,"internalType":"uint256"}],"anonymous":false},{"type":"event","name":"Initialized","inputs":[{"name":"version","type":"uint8","indexed":false,"internalType":"uint8"}],"anonymous":false},{"type":"event","name":"OwnershipTransferred","inputs":[{"name":"previousOwner","type":"address","indexed":true,"internalType":"address"},{"name":"newOwner","type":"address","indexed":true,"internalType":"address"}],"anonymous":false},{"type":"error","name":"GameAlreadyExists","inputs":[{"name":"uuid","type":"bytes32","internalType":"Hash"}]},{"type":"error","name":"IncorrectBondAmount","inputs":[]},{"type":"error","name":"NoImplementation","inputs":[{"name":"gameType","type":"uint32","internalType":"GameType"}]}],"bytecode":{"object":"0x608060405234801561001057600080fd5b5061001961001e565b6100de565b600054610100900460ff161561008a5760405162461bcd60e51b815260206004820152602760248201527f496e697469616c697a61626c653a20636f6e747261637420697320696e697469604482015266616c697a696e6760c81b606482015260840160405180910390fd5b60005460ff90811610156100dc576000805460ff191660ff9081179091556040519081527f7f26b83ff96e1f2b6a682f133852f6798a09c465da95921460cefb38474024989060200160405180910390a15b565b61159b806100ed6000396000f3fe6080604052600436106100e85760003560e01c80636593dc6e1161008a57806396cd97201161005957806396cd972014610313578063bb8aa1fc14610333578063c4d66de814610394578063f2fde38b146103b457600080fd5b80636593dc6e14610293578063715018a6146102c057806382ecf2f6146102d55780638da5cb5b146102e857600080fd5b8063254bd683116100c6578063254bd6831461019c5780634d1975b4146101c957806354fd4d50146101e85780635f0150cb1461023e57600080fd5b806314f6b1a3146100ed5780631b685b9e1461010f5780631e3342401461017c575b600080fd5b3480156100f957600080fd5b5061010d6101083660046110aa565b6103d4565b005b34801561011b57600080fd5b5061015261012a3660046110e1565b60656020526000908152604090205473ffffffffffffffffffffffffffffffffffffffff1681565b60405173ffffffffffffffffffffffffffffffffffffffff90911681526020015b60405180910390f35b34801561018857600080fd5b5061010d6101973660046110fc565b61045e565b3480156101a857600080fd5b506101bc6101b7366004611126565b6104aa565b60405161017391906111d3565b3480156101d557600080fd5b506068545b604051908152602001610173565b3480156101f457600080fd5b506102316040518060400160405280600581526020017f312e302e3100000000000000000000000000000000000000000000000000000081525081565b6040516101739190611290565b34801561024a57600080fd5b5061025e6102593660046112a3565b6106ee565b6040805173ffffffffffffffffffffffffffffffffffffffff909316835267ffffffffffffffff909116602083015201610173565b34801561029f57600080fd5b506101da6102ae3660046110e1565b60666020526000908152604090205481565b3480156102cc57600080fd5b5061010d610741565b6101526102e33660046112a3565b610755565b3480156102f457600080fd5b5060335473ffffffffffffffffffffffffffffffffffffffff16610152565b34801561031f57600080fd5b506101da61032e3660046112a3565b6109ef565b34801561033f57600080fd5b5061035361034e36600461132a565b610a28565b6040805163ffffffff909416845267ffffffffffffffff909216602084015273ffffffffffffffffffffffffffffffffffffffff1690820152606001610173565b3480156103a057600080fd5b5061010d6103af366004611343565b610a91565b3480156103c057600080fd5b5061010d6103cf366004611343565b610c2d565b6103dc610ce4565b63ffffffff821660008181526065602052604080822080547fffffffffffffffffffffffff00000000000000000000000000000000000000001673ffffffffffffffffffffffffffffffffffffffff8616908117909155905190917fff513d80e2c7fa487608f70a618dfbc0cf415699dc69588c747e8c71566c88de91a35050565b610466610ce4565b63ffffffff8216600081815260666020526040808220849055518392917f74d6665c4b26d5596a5aa13d3014e0c06af4d322075a797f87b03cd4c5bc91ca91a35050565b606854606090831015806104bc575081155b6106e7575060408051600583901b8101602001909152825b8381116106e5576000606882815481106104f0576104f0611360565b600091825260209091200154905060e081901c60a082901c67ffffffffffffffff1673ffffffffffffffffffffffffffffffffffffffff831663ffffffff891683036106b6576001865101865260008173ffffffffffffffffffffffffffffffffffffffff1663609d33346040518163ffffffff1660e01b8152600401600060405180830381865afa15801561058a573d6000803e3d6000fd5b505050506040513d6000823e601f3d9081017fffffffffffffffffffffffffffffffffffffffffffffffffffffffffffffffe01682016040526105d091908101906113be565b905060008273ffffffffffffffffffffffffffffffffffffffff1663bcef3b556040518163ffffffff1660e01b8152600401602060405180830381865afa15801561061f573d6000803e3d6000fd5b505050506040513d601f19601f820116820180604052508101906106439190611489565b90506040518060a001604052808881526020018781526020018567ffffffffffffffff168152602001828152602001838152508860018a5161068591906114a2565b8151811061069557610695611360565b6020026020010181905250888851106106b3575050505050506106e5565b50505b50507fffffffffffffffffffffffffffffffffffffffffffffffffffffffffffffffff90920191506104d49050565b505b9392505050565b60008060006106ff878787876109ef565b60009081526067602052604090205473ffffffffffffffffffffffffffffffffffffffff81169860a09190911c67ffffffffffffffff16975095505050505050565b610749610ce4565b6107536000610d65565b565b63ffffffff841660009081526065602052604081205473ffffffffffffffffffffffffffffffffffffffff16806107c5576040517f031c6de400000000000000000000000000000000000000000000000000000000815263ffffffff871660048201526024015b60405180910390fd5b63ffffffff86166000908152606660205260409020543414610813576040517f8620aa1900000000000000000000000000000000000000000000000000000000815260040160405180910390fd5b60006108206001436114a2565b40905061088a338783888860405160200161083f9594939291906114e0565b604080517fffffffffffffffffffffffffffffffffffffffffffffffffffffffffffffffe081840301815291905273ffffffffffffffffffffffffffffffffffffffff841690610ddc565b92508273ffffffffffffffffffffffffffffffffffffffff16638129fc1c346040518263ffffffff1660e01b81526004016000604051808303818588803b1580156108d457600080fd5b505af11580156108e8573d6000803e3d6000fd5b505050505060006108fb888888886109ef565b60008181526067602052604090205490915015610947576040517f014f6fe5000000000000000000000000000000000000000000000000000000008152600481018290526024016107bc565b60004260a01b60e08a901b178517600083815260676020526040808220839055606880546001810182559083527fa2153420d844928b4421650203c77babc8b33d7f2e7b450e2966db0c220977530183905551919250899163ffffffff8c169173ffffffffffffffffffffffffffffffffffffffff8916917f5b565efe82411da98814f356d0e7bcb8f0219b8d970307c5afb4a6903a8b2e359190a450505050949350505050565b600084848484604051602001610a08949392919061152d565b604051602081830303815290604052805190602001209050949350505050565b600080600080600080610a8160688881548110610a4757610a47611360565b906000526020600020015460e081901c9160a082901c67ffffffffffffffff169173ffffffffffffffffffffffffffffffffffffffff1690565b9199909850909650945050505050565b600054610100900460ff1615808015610ab15750600054600160ff909116105b80610acb5750303b158015610acb575060005460ff166001145b610b57576040517f08c379a000000000000000000000000000000000000000000000000000000000815260206004820152602e60248201527f496e697469616c697a61626c653a20636f6e747261637420697320616c72656160448201527f647920696e697469616c697a656400000000000000000000000000000000000060648201526084016107bc565b600080547fffffffffffffffffffffffffffffffffffffffffffffffffffffffffffffff001660011790558015610bb557600080547fffffffffffffffffffffffffffffffffffffffffffffffffffffffffffff00ff166101001790555b610bbd610dea565b610bc682610d65565b8015610c2957600080547fffffffffffffffffffffffffffffffffffffffffffffffffffffffffffff00ff169055604051600181527f7f26b83ff96e1f2b6a682f133852f6798a09c465da95921460cefb38474024989060200160405180910390a15b5050565b610c35610ce4565b73ffffffffffffffffffffffffffffffffffffffff8116610cd8576040517f08c379a000000000000000000000000000000000000000000000000000000000815260206004820152602660248201527f4f776e61626c653a206e6577206f776e657220697320746865207a65726f206160448201527f646472657373000000000000000000000000000000000000000000000000000060648201526084016107bc565b610ce181610d65565b50565b60335473ffffffffffffffffffffffffffffffffffffffff163314610753576040517f08c379a000000000000000000000000000000000000000000000000000000000815260206004820181905260248201527f4f776e61626c653a2063616c6c6572206973206e6f7420746865206f776e657260448201526064016107bc565b6033805473ffffffffffffffffffffffffffffffffffffffff8381167fffffffffffffffffffffffff0000000000000000000000000000000000000000831681179093556040519116919082907f8be0079c531659141344cd1fd0a4f28419497f9722a3daafe3b4186f6b6457e090600090a35050565b60006106e760008484610e89565b600054610100900460ff16610e81576040517f08c379a000000000000000000000000000000000000000000000000000000000815260206004820152602b60248201527f496e697469616c697a61626c653a20636f6e7472616374206973206e6f74206960448201527f6e697469616c697a696e6700000000000000000000000000000000000000000060648201526084016107bc565b610753610fcf565b600060608203516040830351602084035184518060208701018051600283016c5af43d3d93803e606057fd5bf3895289600d8a035278593da1005b363d3d373d3d3d3d610000806062363936013d738160481b1760218a03527f9e4ac34f21c619cefc926c8bd93b54bf5a39c7ab2127a895af1cc0691d7e3dff603a8a035272fd6100003d81600a3d39f336602c57343d527f6062820160781b1761ff9e82106059018a03528060f01b8352606c8101604c8a038cf097505086610f555763301164256000526004601cfd5b905285527fffffffffffffffffffffffffffffffffffffffffffffffffffffffffffffffe08501527fffffffffffffffffffffffffffffffffffffffffffffffffffffffffffffffc08401527fffffffffffffffffffffffffffffffffffffffffffffffffffffffffffffffa09092019190915292915050565b600054610100900460ff16611066576040517f08c379a000000000000000000000000000000000000000000000000000000000815260206004820152602b60248201527f496e697469616c697a61626c653a20636f6e7472616374206973206e6f74206960448201527f6e697469616c697a696e6700000000000000000000000000000000000000000060648201526084016107bc565b61075333610d65565b803563ffffffff8116811461108357600080fd5b919050565b73ffffffffffffffffffffffffffffffffffffffff81168114610ce157600080fd5b600080604083850312156110bd57600080fd5b6110c68361106f565b915060208301356110d681611088565b809150509250929050565b6000602082840312156110f357600080fd5b6106e78261106f565b6000806040838503121561110f57600080fd5b6111188361106f565b946020939093013593505050565b60008060006060848603121561113b57600080fd5b6111448461106f565b95602085013595506040909401359392505050565b60005b8381101561117457818101518382015260200161115c565b83811115611183576000848401525b50505050565b600081518084526111a1816020860160208601611159565b601f017fffffffffffffffffffffffffffffffffffffffffffffffffffffffffffffffe0169290920160200192915050565b60006020808301818452808551808352604092508286019150828160051b87010184880160005b83811015611282578883037fffffffffffffffffffffffffffffffffffffffffffffffffffffffffffffffc001855281518051845287810151888501528681015167ffffffffffffffff16878501526060808201519085015260809081015160a09185018290529061126e81860183611189565b9689019694505050908601906001016111fa565b509098975050505050505050565b6020815260006106e76020830184611189565b600080600080606085870312156112b957600080fd5b6112c28561106f565b935060208501359250604085013567ffffffffffffffff808211156112e657600080fd5b818701915087601f8301126112fa57600080fd5b81358181111561130957600080fd5b88602082850101111561131b57600080fd5b95989497505060200194505050565b60006020828403121561133c57600080fd5b5035919050565b60006020828403121561135557600080fd5b81356106e781611088565b7f4e487b7100000000000000000000000000000000000000000000000000000000600052603260045260246000fd5b7f4e487b7100000000000000000000000000000000000000000000000000000000600052604160045260246000fd5b6000602082840312156113d057600080fd5b815167ffffffffffffffff808211156113e857600080fd5b818401915084601f8301126113fc57600080fd5b81518181111561140e5761140e61138f565b604051601f82017fffffffffffffffffffffffffffffffffffffffffffffffffffffffffffffffe0908116603f011681019083821181831017156114545761145461138f565b8160405282815287602084870101111561146d57600080fd5b61147e836020830160208801611159565b979650505050505050565b60006020828403121561149b57600080fd5b5051919050565b6000828210156114db577f4e487b7100000000000000000000000000000000000000000000000000000000600052601160045260246000fd5b500390565b7fffffffffffffffffffffffffffffffffffffffff0000000000000000000000008660601b1681528460148201528360348201528183605483013760009101605401908152949350505050565b63ffffffff8516815283602082015260606040820152816060820152818360808301376000818301608090810191909152601f9092017fffffffffffffffffffffffffffffffffffffffffffffffffffffffffffffffe0160101939250505056fea164736f6c634300080f000a","linkReferences":{}},"methodIdentifiers":{"create(uint32,bytes32,bytes)":"82ecf2f6","findLatestGames(uint32,uint256,uint256)":"254bd683","gameAtIndex(uint256)":"bb8aa1fc","gameCount()":"4d1975b4","gameImpls(uint32)":"1b685b9e","games(uint32,bytes32,bytes)":"5f0150cb","getGameUUID(uint32,bytes32,bytes)":"96cd9720","initBonds(uint32)":"6593dc6e","initialize(address)":"c4d66de8","owner()":"8da5cb5b","renounceOwnership()":"715018a6","setImplementation(uint32,address)":"14f6b1a3","setInitBond(uint32,uint256)":"1e334240","transferOwnership(address)":"f2fde38b","version()":"54fd4d50"},"storageLayout":{"storage":[{"astId":48135,"contract":"src/dispute/DisputeGameFactory.sol:DisputeGameFactory","label":"_initialized","offset":0,"slot":"0","type":"t_uint8"},{"astId":48138,"contract":"src/dispute/DisputeGameFactory.sol:DisputeGameFactory","label":"_initializing","offset":1,"slot":"0","type":"t_bool"},{"astId":48563,"contract":"src/dispute/DisputeGameFactory.sol:DisputeGameFactory","label":"__gap","offset":0,"slot":"1","type":"t_array(t_uint256)50_storage"},{"astId":48007,"contract":"src/dispute/DisputeGameFactory.sol:DisputeGameFactory","label":"_owner","offset":0,"slot":"51","type":"t_address"},{"astId":48127,"contract":"src/dispute/DisputeGameFactory.sol:DisputeGameFactory","label":"__gap","offset":0,"slot":"52","type":"t_array(t_uint256)49_storage"},{"astId":118430,"contract":"src/dispute/DisputeGameFactory.sol:DisputeGameFactory","label":"gameImpls","offset":0,"slot":"101","type":"t_mapping(t_userDefinedValueType(GameType)119491,t_contract(IDisputeGame)5286)"},{"astId":118436,"contract":"src/dispute/DisputeGameFactory.sol:DisputeGameFactory","label":"initBonds","offset":0,"slot":"102","type":"t_mapping(t_userDefinedValueType(GameType)119491,t_uint256)"},{"astId":118443,"contract":"src/dispute/DisputeGameFactory.sol:DisputeGameFactory","label":"_disputeGames","offset":0,"slot":"103","type":"t_mapping(t_userDefinedValueType(Hash)119446,t_userDefinedValueType(GameId)119361)"},{"astId":118448,"contract":"src/dispute/DisputeGameFactory.sol:DisputeGameFactory","label":"_disputeGameList","offset":0,"slot":"104","type":"t_array(t_userDefinedValueType(GameId)119361)dyn_storage"}],"types":{"t_address":{"encoding":"inplace","label":"address","numberOfBytes":"20"},"t_array(t_uint256)49_storage":{"encoding":"inplace","label":"uint256[49]","numberOfBytes":"1568","base":"t_uint256"},"t_array(t_uint256)50_storage":{"encoding":"inplace","label":"uint256[50]","numberOfBytes":"1600","base":"t_uint256"},"t_array(t_userDefinedValueType(GameId)119361)dyn_storage":{"encoding":"dynamic_array","label":"GameId[]","numberOfBytes":"32","base":"t_userDefinedValueType(GameId)119361"},"t_bool":{"encoding":"inplace","label":"bool","numberOfBytes":"1"},"t_contract(IDisputeGame)5286":{"encoding":"inplace","label":"contract IDisputeGame","numberOfBytes":"20"},"t_mapping(t_userDefinedValueType(GameType)119491,t_contract(IDisputeGame)5286)":{"encoding":"mapping","key":"t_userDefinedValueType(GameType)119491","label":"mapping(GameType => contract IDisputeGame)","numberOfBytes":"32","value":"t_contract(IDisputeGame)5286"},"t_mapping(t_userDefinedValueType(GameType)119491,t_uint256)":{"encoding":"mapping","key":"t_userDefinedValueType(GameType)119491","label":"mapping(GameType => uint256)","numberOfBytes":"32","value":"t_uint256"},"t_mapping(t_userDefinedValueType(Hash)119446,t_userDefinedValueType(GameId)119361)":{"encoding":"mapping","key":"t_userDefinedValueType(Hash)119446","label":"mapping(Hash => GameId)","numberOfBytes":"32","value":"t_userDefinedValueType(GameId)119361"},"t_uint256":{"encoding":"inplace","label":"uint256","numberOfBytes":"32"},"t_uint8":{"encoding":"inplace","label":"uint8","numberOfBytes":"1"},"t_userDefinedValueType(GameId)119361":{"encoding":"inplace","label":"GameId","numberOfBytes":"32"},"t_userDefinedValueType(GameType)119491":{"encoding":"inplace","label":"GameType","numberOfBytes":"4"},"t_userDefinedValueType(Hash)119446":{"encoding":"inplace","label":"Hash","numberOfBytes":"32"}}},"userdoc":{"version":1,"kind":"user","methods":{"constructor":{"notice":"Constructs a new DisputeGameFactory contract."},"create(uint32,bytes32,bytes)":{"notice":"Creates a new DisputeGame proxy contract."},"findLatestGames(uint32,uint256,uint256)":{"notice":"Finds the `_n` most recent `GameId`'s of type `_gameType` starting at `_start`. If there are less than         `_n` games of type `_gameType` starting at `_start`, then the returned array will be shorter than `_n`."},"gameAtIndex(uint256)":{"notice":"`gameAtIndex` returns the dispute game contract address and its creation timestamp          at the given index. Each created dispute game increments the underlying index."},"gameCount()":{"notice":"The total number of dispute games created by this factory."},"gameImpls(uint32)":{"notice":"`gameImpls` is a mapping that maps `GameType`s to their respective         `IDisputeGame` implementations."},"games(uint32,bytes32,bytes)":{"notice":"`games` queries an internal mapping that maps the hash of         `gameType ++ rootClaim ++ extraData` to the deployed `DisputeGame` clone."},"getGameUUID(uint32,bytes32,bytes)":{"notice":"Returns a unique identifier for the given dispute game parameters."},"initBonds(uint32)":{"notice":"Returns the required bonds for initializing a dispute game of the given type."},"initialize(address)":{"notice":"Initializes the contract."},"setImplementation(uint32,address)":{"notice":"Sets the implementation contract for a specific `GameType`."},"setInitBond(uint32,uint256)":{"notice":"Sets the bond (in wei) for initializing a game type."},"version()":{"notice":"Semantic version."}},"events":{"DisputeGameCreated(address,uint32,bytes32)":{"notice":"Emitted when a new dispute game is created"},"ImplementationSet(address,uint32)":{"notice":"Emitted when a new game implementation added to the factory"},"InitBondUpdated(uint32,uint256)":{"notice":"Emitted when a game type's initialization bond is updated"}},"errors":{"GameAlreadyExists(bytes32)":[{"notice":"Thrown when a dispute game that already exists is attempted to be created."}],"IncorrectBondAmount()":[{"notice":"Thrown when a supplied bond is not equal to the required bond amount to cover the cost of the interaction."}],"NoImplementation(uint32)":[{"notice":"Thrown when a dispute game is attempted to be created with an unsupported game type."}]},"notice":"A factory contract for creating `IDisputeGame` contracts. All created dispute games are stored in both a         mapping and an append only array. The timestamp of the creation time of the dispute game is packed tightly         into the storage slot with the address of the dispute game to make offchain discoverability of playable         dispute games easier."},"devdoc":{"version":1,"kind":"dev","methods":{"create(uint32,bytes32,bytes)":{"params":{"_extraData":"Any extra data that should be provided to the created dispute game.","_gameType":"The type of the DisputeGame - used to decide the proxy implementation.","_rootClaim":"The root claim of the DisputeGame."},"returns":{"proxy_":"The address of the created DisputeGame proxy."}},"findLatestGames(uint32,uint256,uint256)":{"params":{"_gameType":"The type of game to find.","_n":"The number of games to find.","_start":"The index to start the reverse search from."}},"gameAtIndex(uint256)":{"params":{"_index":"The index of the dispute game."},"returns":{"gameType_":"The type of the DisputeGame - used to decide the proxy implementation.","proxy_":"The clone of the `DisputeGame` created with the given parameters.         Returns `address(0)` if nonexistent.","timestamp_":"The timestamp of the creation of the dispute game."}},"gameCount()":{"returns":{"gameCount_":"The total number of dispute games created by this factory."}},"games(uint32,bytes32,bytes)":{"details":"`++` equates to concatenation.","params":{"_extraData":"Any extra data that should be provided to the created dispute game.","_gameType":"The type of the DisputeGame - used to decide the proxy implementation","_rootClaim":"The root claim of the DisputeGame."},"returns":{"proxy_":"The clone of the `DisputeGame` created with the given parameters.         Returns `address(0)` if nonexistent.","timestamp_":"The timestamp of the creation of the dispute game."}},"getGameUUID(uint32,bytes32,bytes)":{"details":"Hashes the concatenation of `gameType . rootClaim . extraData`      without expanding memory.","params":{"_extraData":"Any extra data that should be provided to the created dispute game.","_gameType":"The type of the DisputeGame.","_rootClaim":"The root claim of the DisputeGame."},"returns":{"uuid_":"The unique identifier for the given dispute game parameters."}},"initialize(address)":{"params":{"_owner":"The owner of the contract."}},"owner()":{"details":"Returns the address of the current owner."},"renounceOwnership()":{"details":"Leaves the contract without owner. It will not be possible to call `onlyOwner` functions anymore. Can only be called by the current owner. NOTE: Renouncing ownership will leave the contract without an owner, thereby removing any functionality that is only available to the owner."},"setImplementation(uint32,address)":{"details":"May only be called by the `owner`.","params":{"_gameType":"The type of the DisputeGame.","_impl":"The implementation contract for the given `GameType`."}},"setInitBond(uint32,uint256)":{"details":"May only be called by the `owner`.","params":{"_gameType":"The type of the DisputeGame.","_initBond":"The bond (in wei) for initializing a game type."}},"transferOwnership(address)":{"details":"Transfers ownership of the contract to a new account (`newOwner`). Can only be called by the current owner."}},"events":{"DisputeGameCreated(address,uint32,bytes32)":{"params":{"disputeProxy":"The address of the dispute game proxy","gameType":"The type of the dispute game proxy's implementation","rootClaim":"The root claim of the dispute game"}},"ImplementationSet(address,uint32)":{"params":{"gameType":"The type of the DisputeGame.","impl":"The implementation contract for the given `GameType`."}},"InitBondUpdated(uint32,uint256)":{"params":{"gameType":"The type of the DisputeGame.","newBond":"The new bond (in wei) for initializing the game type."}}},"errors":{"GameAlreadyExists(bytes32)":[{"params":{"uuid":"The UUID of the dispute game that already exists."}}],"NoImplementation(uint32)":[{"params":{"gameType":"The unsupported game type."}}]},"title":"DisputeGameFactory"},"id":252}