{"abi":[{"type":"function","name":"getMessageHash","inputs":[{"name":"message","type":"bytes","internalType":"bytes"}],"outputs":[{"name":"","type":"bytes32","internalType":"bytes32"}],"stateMutability":"view"},{"type":"function","name":"getMessageHashForSafe","inputs":[{"name":"safe","type":"address","internalType":"contract GnosisSafe"},{"name":"message","type":"bytes","internalType":"bytes"}],"outputs":[{"name":"","type":"bytes32","internalType":"bytes32"}],"stateMutability":"view"},{"type":"function","name":"getModules","inputs":[],"outputs":[{"name":"","type":"address[]","internalType":"address[]"}],"stateMutability":"view"},{"type":"function","name":"isValidSignature","inputs":[{"name":"_dataHash","type":"bytes32","internalType":"bytes32"},{"name":"_signature","type":"bytes","internalType":"bytes"}],"outputs":[{"name":"","type":"bytes4","internalType":"bytes4"}],"stateMutability":"view"},{"type":"function","name":"isValidSignature","inputs":[{"name":"_data","type":"bytes","internalType":"bytes"},{"name":"_signature","type":"bytes","internalType":"bytes"}],"outputs":[{"name":"","type":"bytes4","internalType":"bytes4"}],"stateMutability":"view"},{"type":"function","name":"onERC1155BatchReceived","inputs":[{"name":"","type":"address","internalType":"address"},{"name":"","type":"address","internalType":"address"},{"name":"","type":"uint256[]","internalType":"uint256[]"},{"name":"","type":"uint256[]","internalType":"uint256[]"},{"name":"","type":"bytes","internalType":"bytes"}],"outputs":[{"name":"","type":"bytes4","internalType":"bytes4"}],"stateMutability":"pure"},{"type":"function","name":"onERC1155Received","inputs":[{"name":"","type":"address","internalType":"address"},{"name":"","type":"address","internalType":"address"},{"name":"","type":"uint256","internalType":"uint256"},{"name":"","type":"uint256","internalType":"uint256"},{"name":"","type":"bytes","internalType":"bytes"}],"outputs":[{"name":"","type":"bytes4","internalType":"bytes4"}],"stateMutability":"pure"},{"type":"function","name":"onERC721Received","inputs":[{"name":"","type":"address","internalType":"address"},{"name":"","type":"address","internalType":"address"},{"name":"","type":"uint256","internalType":"uint256"},{"name":"","type":"bytes","internalType":"bytes"}],"outputs":[{"name":"","type":"bytes4","internalType":"bytes4"}],"stateMutability":"pure"},{"type":"function","name":"simulate","inputs":[{"name":"targetContract","type":"address","internalType":"address"},{"name":"calldataPayload","type":"bytes","internalType":"bytes"}],"outputs":[{"name":"response","type":"bytes","internalType":"bytes"}],"stateMutability":"nonpayable"},{"type":"function","name":"supportsInterface","inputs":[{"name":"interfaceId","type":"bytes4","internalType":"bytes4"}],"outputs":[{"name":"","type":"bool","internalType":"bool"}],"stateMutability":"view"},{"type":"function","name":"tokensReceived","inputs":[{"name":"","type":"address","internalType":"address"},{"name":"","type":"address","internalType":"address"},{"name":"","type":"address","internalType":"address"},{"name":"","type":"uint256","internalType":"uint256"},{"name":"","type":"bytes","internalType":"bytes"},{"name":"","type":"bytes","internalType":"bytes"}],"outputs":[],"stateMutability":"pure"}],"bytecode":{"object":"0x6080604052348015600e575f5ffd5b506110968061001c5f395ff3fe608060405234801561000f575f5ffd5b50600436106100c3575f3560e01c806320c13b0b1161007d578063bc197c8111610058578063bc197c81146101e1578063bd61951d1461021c578063f23a6e611461023c575f5ffd5b806320c13b0b146101a65780636ac24784146101b9578063b2494df3146101cc575f5ffd5b80630a1028c4116100ad5780630a1028c414610109578063150b7a021461012a5780631626ba7e14610193575f5ffd5b806223de29146100c757806301ffc9a7146100e1575b5f5ffd5b6100df6100d5366004610918565b5050505050505050565b005b6100f46100ef3660046109f4565b610275565b60405190151581526020015b60405180910390f35b61011c610117366004610b15565b610359565b604051908152602001610100565b610162610138366004610b4f565b7f150b7a020000000000000000000000000000000000000000000000000000000095945050505050565b6040517fffffffff000000000000000000000000000000000000000000000000000000009091168152602001610100565b6101626101a1366004610bbd565b610364565b6101626101b4366004610c05565b610481565b61011c6101c7366004610c6a565b610669565b6101d46107a2565b6040516101009190610ca1565b6101626101ef366004610d3a565b7fbc197c810000000000000000000000000000000000000000000000000000000098975050505050505050565b61022f61022a366004610ddd565b61084f565b6040516101009190610e61565b61016261024a366004610e73565b7ff23a6e61000000000000000000000000000000000000000000000000000000009695505050505050565b5f7fffffffff0000000000000000000000000000000000000000000000000000000082167f4e2312e000000000000000000000000000000000000000000000000000000000148061030757507fffffffff0000000000000000000000000000000000000000000000000000000082167f150b7a0200000000000000000000000000000000000000000000000000000000145b8061035357507fffffffff0000000000000000000000000000000000000000000000000000000082167f01ffc9a700000000000000000000000000000000000000000000000000000000145b92915050565b5f6103533383610669565b60408051602080820186905282518083039091018152818301928390527f20c13b0b000000000000000000000000000000000000000000000000000000009092525f913391839183916320c13b0b916103c39189908990604401610eea565b602060405180830381865afa1580156103de573d5f5f3e3d5ffd5b505050506040513d601f19601f820116820180604052508101906104029190610f4c565b90507fffffffff0000000000000000000000000000000000000000000000000000000081167f20c13b0b0000000000000000000000000000000000000000000000000000000014610453575f610475565b7f1626ba7e000000000000000000000000000000000000000000000000000000005b925050505b9392505050565b5f338161048e8286610669565b905083515f036105bc576040517f5ae6bd370000000000000000000000000000000000000000000000000000000081526004810182905273ffffffffffffffffffffffffffffffffffffffff831690635ae6bd3790602401602060405180830381865afa158015610501573d5f5f3e3d5ffd5b505050506040513d601f19601f820116820180604052508101906105259190610f67565b5f036105b7576040517f08c379a000000000000000000000000000000000000000000000000000000000815260206004820152602f60248201527f436f6d7061746962696c69747946616c6c6261636b48616e646c65723a20486160448201527f7368206e6f7420617070726f7665640000000000000000000000000000000000606482015260840160405180910390fd5b61063f565b6040517f934f3a1100000000000000000000000000000000000000000000000000000000815273ffffffffffffffffffffffffffffffffffffffff83169063934f3a119061061290849089908990600401610f7e565b5f6040518083038186803b158015610628575f5ffd5b505afa15801561063a573d5f5f3e3d5ffd5b505050505b507f20c13b0b00000000000000000000000000000000000000000000000000000000949350505050565b5f5f7f60b3cbf8b4a223d68d641b3b6ddf9a298e7f33710cf3d3a9d1146b5a6150fbca5f1b83805190602001206040516020016106b0929190918252602082015260400190565b604051602081830303815290604052805190602001209050601960f81b600160f81b8573ffffffffffffffffffffffffffffffffffffffff1663f698da256040518163ffffffff1660e01b8152600401602060405180830381865afa15801561071b573d5f5f3e3d5ffd5b505050506040513d601f19601f8201168201806040525081019061073f9190610f67565b6040517fff0000000000000000000000000000000000000000000000000000000000000093841660208201529290911660218301526022820152604281018290526062016040516020818303038152906040528051906020012091505092915050565b6040517fcc2f845200000000000000000000000000000000000000000000000000000000815260016004820152600a602482015260609033905f90829063cc2f8452906044015f60405180830381865afa158015610802573d5f5f3e3d5ffd5b505050506040513d5f823e601f3d9081017fffffffffffffffffffffffffffffffffffffffffffffffffffffffffffffffe01682016040526108479190810190610fc2565b509392505050565b60606040517fb4faba090000000000000000000000000000000000000000000000000000000081526004360360048083013760205f36835f335af1505060203d036040519150808201604052806020833e505f5161047a57805160208201fd5b73ffffffffffffffffffffffffffffffffffffffff811681146108d0575f5ffd5b50565b5f5f83601f8401126108e3575f5ffd5b50813567ffffffffffffffff8111156108fa575f5ffd5b602083019150836020828501011115610911575f5ffd5b9250929050565b5f5f5f5f5f5f5f5f60c0898b03121561092f575f5ffd5b883561093a816108af565b9750602089013561094a816108af565b9650604089013561095a816108af565b955060608901359450608089013567ffffffffffffffff81111561097c575f5ffd5b6109888b828c016108d3565b90955093505060a089013567ffffffffffffffff8111156109a7575f5ffd5b6109b38b828c016108d3565b999c989b5096995094979396929594505050565b7fffffffff00000000000000000000000000000000000000000000000000000000811681146108d0575f5ffd5b5f60208284031215610a04575f5ffd5b813561047a816109c7565b7f4e487b71000000000000000000000000000000000000000000000000000000005f52604160045260245ffd5b604051601f82017fffffffffffffffffffffffffffffffffffffffffffffffffffffffffffffffe016810167ffffffffffffffff81118282101715610a8357610a83610a0f565b604052919050565b5f82601f830112610a9a575f5ffd5b813567ffffffffffffffff811115610ab457610ab4610a0f565b610ae560207fffffffffffffffffffffffffffffffffffffffffffffffffffffffffffffffe0601f84011601610a3c565b818152846020838601011115610af9575f5ffd5b816020850160208301375f918101602001919091529392505050565b5f60208284031215610b25575f5ffd5b813567ffffffffffffffff811115610b3b575f5ffd5b610b4784828501610a8b565b949350505050565b5f5f5f5f5f60808688031215610b63575f5ffd5b8535610b6e816108af565b94506020860135610b7e816108af565b935060408601359250606086013567ffffffffffffffff811115610ba0575f5ffd5b610bac888289016108d3565b969995985093965092949392505050565b5f5f5f60408486031215610bcf575f5ffd5b83359250602084013567ffffffffffffffff811115610bec575f5ffd5b610bf8868287016108d3565b9497909650939450505050565b5f5f60408385031215610c16575f5ffd5b823567ffffffffffffffff811115610c2c575f5ffd5b610c3885828601610a8b565b925050602083013567ffffffffffffffff811115610c54575f5ffd5b610c6085828601610a8b565b9150509250929050565b5f5f60408385031215610c7b575f5ffd5b8235610c86816108af565b9150602083013567ffffffffffffffff811115610c54575f5ffd5b602080825282518282018190525f918401906040840190835b81811015610cee57835173ffffffffffffffffffffffffffffffffffffffff16835260209384019390920191600101610cba565b509095945050505050565b5f5f83601f840112610d09575f5ffd5b50813567ffffffffffffffff811115610d20575f5ffd5b6020830191508360208260051b8501011115610911575f5ffd5b5f5f5f5f5f5f5f5f60a0898b031215610d51575f5ffd5b8835610d5c816108af565b97506020890135610d6c816108af565b9650604089013567ffffffffffffffff811115610d87575f5ffd5b610d938b828c01610cf9565b909750955050606089013567ffffffffffffffff811115610db2575f5ffd5b610dbe8b828c01610cf9565b909550935050608089013567ffffffffffffffff8111156109a7575f5ffd5b5f5f5f60408486031215610def575f5ffd5b8335610dfa816108af565b9250602084013567ffffffffffffffff811115610bec575f5ffd5b5f81518084528060208401602086015e5f6020828601015260207fffffffffffffffffffffffffffffffffffffffffffffffffffffffffffffffe0601f83011685010191505092915050565b602081525f61047a6020830184610e15565b5f5f5f5f5f5f60a08789031215610e88575f5ffd5b8635610e93816108af565b95506020870135610ea3816108af565b94506040870135935060608701359250608087013567ffffffffffffffff811115610ecc575f5ffd5b610ed889828a016108d3565b979a9699509497509295939492505050565b604081525f610efc6040830186610e15565b8281036020840152838152838560208301375f6020858301015260207fffffffffffffffffffffffffffffffffffffffffffffffffffffffffffffffe0601f860116820101915050949350505050565b5f60208284031215610f5c575f5ffd5b815161047a816109c7565b5f60208284031215610f77575f5ffd5b5051919050565b838152606060208201525f610f966060830185610e15565b8281036040840152610fa88185610e15565b9695505050505050565b8051610fbd816108af565b919050565b5f5f60408385031215610fd3575f5ffd5b825167ffffffffffffffff811115610fe9575f5ffd5b8301601f81018513610ff9575f5ffd5b805167ffffffffffffffff81111561101357611013610a0f565b8060051b61102360208201610a3c565b9182526020818401810192908101908884111561103e575f5ffd5b6020850194505b8385101561106c578451925061105a836108af565b82825260209485019490910190611045565b809650505050505061108060208401610fb2565b9050925092905056fea164736f6c634300081c000a","linkReferences":{}},"methodIdentifiers":{"getMessageHash(bytes)":"0a1028c4","getMessageHashForSafe(address,bytes)":"6ac24784","getModules()":"b2494df3","isValidSignature(bytes,bytes)":"20c13b0b","isValidSignature(bytes32,bytes)":"1626ba7e","onERC1155BatchReceived(address,address,uint256[],uint256[],bytes)":"bc197c81","onERC1155Received(address,address,uint256,uint256,bytes)":"f23a6e61","onERC721Received(address,address,uint256,bytes)":"150b7a02","simulate(address,bytes)":"bd61951d","supportsInterface(bytes4)":"01ffc9a7","tokensReceived(address,address,address,uint256,bytes,bytes)":"0023de29"},"storageLayout":{"storage":[],"types":{}},"userdoc":{"version":1,"kind":"user","methods":{"isValidSignature(bytes,bytes)":{"notice":"Implementation of ISignatureValidator (see `interfaces/ISignatureValidator.sol`)"},"isValidSignature(bytes32,bytes)":{"notice":"Implementation of updated EIP-1271See https://github.com/gnosis/util-contracts/blob/bb5fe5fb5df6d8400998094fb1b32a178a47c3a1/contracts/StorageAccessible.sol"}}},"devdoc":{"version":1,"kind":"dev","author":"Richard Meissner - <richard@gnosis.pm>","methods":{"getMessageHash(bytes)":{"details":"Returns hash of a message that can be signed by owners.","params":{"message":"Message that should be hashed"},"returns":{"_0":"Message hash."}},"getMessageHashForSafe(address,bytes)":{"details":"Returns hash of a message that can be signed by owners.","params":{"message":"Message that should be hashed","safe":"Safe to which the message is targeted"},"returns":{"_0":"Message hash."}},"getModules()":{"details":"Returns array of first 10 modules.","returns":{"_0":"Array of modules."}},"isValidSignature(bytes,bytes)":{"details":"Should return whether the signature provided is valid for the provided data.","params":{"_data":"Arbitrary length data signed on the behalf of address(msg.sender)","_signature":"Signature byte array associated with _data"},"returns":{"_0":"a bool upon valid or invalid signature with corresponding _data"}},"isValidSignature(bytes32,bytes)":{"details":"Should return whether the signature provided is valid for the provided data.       The save does not implement the interface since `checkSignatures` is not a view method.       The method will not perform any state changes (see parameters of `checkSignatures`)","params":{"_dataHash":"Hash of the data signed on the behalf of address(msg.sender)","_signature":"Signature byte array associated with _dataHash"},"returns":{"_0":"a bool upon valid or invalid signature with corresponding _dataHash"}},"simulate(address,bytes)":{"details":"Performs a delegetecall on a targetContract in the context of self. Internally reverts execution to avoid side effects (making it static). Catches revert and returns encoded result as bytes.","params":{"calldataPayload":"Calldata that should be sent to the target contract (encoded method name and arguments).","targetContract":"Address of the contract containing the code to execute."}},"supportsInterface(bytes4)":{"details":"Returns true if this contract implements the interface defined by `interfaceId`. See the corresponding https://eips.ethereum.org/EIPS/eip-165#how-interfaces-are-identified[EIP section] to learn more about how these ids are created. This function call must use less than 30 000 gas."}},"title":"Compatibility Fallback Handler - fallback handler to provider compatibility between pre 1.3.0 and 1.3.0+ Safe contracts"},"id":164}