{"abi":[{"type":"function","name":"DOMAIN_SEPARATOR","inputs":[],"outputs":[{"name":"result","type":"bytes32","internalType":"bytes32"}],"stateMutability":"view"},{"type":"function","name":"allowance","inputs":[{"name":"owner","type":"address","internalType":"address"},{"name":"spender","type":"address","internalType":"address"}],"outputs":[{"name":"result","type":"uint256","internalType":"uint256"}],"stateMutability":"view"},{"type":"function","name":"approve","inputs":[{"name":"spender","type":"address","internalType":"address"},{"name":"amount","type":"uint256","internalType":"uint256"}],"outputs":[{"name":"","type":"bool","internalType":"bool"}],"stateMutability":"nonpayable"},{"type":"function","name":"balanceOf","inputs":[{"name":"owner","type":"address","internalType":"address"}],"outputs":[{"name":"result","type":"uint256","internalType":"uint256"}],"stateMutability":"view"},{"type":"function","name":"crosschainBurn","inputs":[{"name":"_from","type":"address","internalType":"address"},{"name":"_amount","type":"uint256","internalType":"uint256"}],"outputs":[],"stateMutability":"nonpayable"},{"type":"function","name":"crosschainMint","inputs":[{"name":"_to","type":"address","internalType":"address"},{"name":"_amount","type":"uint256","internalType":"uint256"}],"outputs":[],"stateMutability":"nonpayable"},{"type":"function","name":"decimals","inputs":[],"outputs":[{"name":"","type":"uint8","internalType":"uint8"}],"stateMutability":"view"},{"type":"function","name":"name","inputs":[],"outputs":[{"name":"","type":"string","internalType":"string"}],"stateMutability":"pure"},{"type":"function","name":"nonces","inputs":[{"name":"owner","type":"address","internalType":"address"}],"outputs":[{"name":"result","type":"uint256","internalType":"uint256"}],"stateMutability":"view"},{"type":"function","name":"permit","inputs":[{"name":"owner","type":"address","internalType":"address"},{"name":"spender","type":"address","internalType":"address"},{"name":"value","type":"uint256","internalType":"uint256"},{"name":"deadline","type":"uint256","internalType":"uint256"},{"name":"v","type":"uint8","internalType":"uint8"},{"name":"r","type":"bytes32","internalType":"bytes32"},{"name":"s","type":"bytes32","internalType":"bytes32"}],"outputs":[],"stateMutability":"nonpayable"},{"type":"function","name":"supportsInterface","inputs":[{"name":"_interfaceId","type":"bytes4","internalType":"bytes4"}],"outputs":[{"name":"","type":"bool","internalType":"bool"}],"stateMutability":"view"},{"type":"function","name":"symbol","inputs":[],"outputs":[{"name":"","type":"string","internalType":"string"}],"stateMutability":"pure"},{"type":"function","name":"totalSupply","inputs":[],"outputs":[{"name":"result","type":"uint256","internalType":"uint256"}],"stateMutability":"view"},{"type":"function","name":"transfer","inputs":[{"name":"to","type":"address","internalType":"address"},{"name":"amount","type":"uint256","internalType":"uint256"}],"outputs":[{"name":"","type":"bool","internalType":"bool"}],"stateMutability":"nonpayable"},{"type":"function","name":"transferFrom","inputs":[{"name":"from","type":"address","internalType":"address"},{"name":"to","type":"address","internalType":"address"},{"name":"amount","type":"uint256","internalType":"uint256"}],"outputs":[{"name":"","type":"bool","internalType":"bool"}],"stateMutability":"nonpayable"},{"type":"function","name":"version","inputs":[],"outputs":[{"name":"","type":"string","internalType":"string"}],"stateMutability":"view"},{"type":"event","name":"Approval","inputs":[{"name":"owner","type":"address","indexed":true,"internalType":"address"},{"name":"spender","type":"address","indexed":true,"internalType":"address"},{"name":"amount","type":"uint256","indexed":false,"internalType":"uint256"}],"anonymous":false},{"type":"event","name":"CrosschainBurn","inputs":[{"name":"from","type":"address","indexed":true,"internalType":"address"},{"name":"amount","type":"uint256","indexed":false,"internalType":"uint256"},{"name":"sender","type":"address","indexed":true,"internalType":"address"}],"anonymous":false},{"type":"event","name":"CrosschainMint","inputs":[{"name":"to","type":"address","indexed":true,"internalType":"address"},{"name":"amount","type":"uint256","indexed":false,"internalType":"uint256"},{"name":"sender","type":"address","indexed":true,"internalType":"address"}],"anonymous":false},{"type":"event","name":"Transfer","inputs":[{"name":"from","type":"address","indexed":true,"internalType":"address"},{"name":"to","type":"address","indexed":true,"internalType":"address"},{"name":"amount","type":"uint256","indexed":false,"internalType":"uint256"}],"anonymous":false},{"type":"error","name":"AllowanceOverflow","inputs":[]},{"type":"error","name":"AllowanceUnderflow","inputs":[]},{"type":"error","name":"InsufficientAllowance","inputs":[]},{"type":"error","name":"InsufficientBalance","inputs":[]},{"type":"error","name":"InvalidPermit","inputs":[]},{"type":"error","name":"Permit2AllowanceIsFixedAtInfinity","inputs":[]},{"type":"error","name":"PermitExpired","inputs":[]},{"type":"error","name":"TotalSupplyOverflow","inputs":[]},{"type":"error","name":"Unauthorized","inputs":[]}],"bytecode":{"object":"0x6080604052348015600e575f80fd5b50610c108061001c5f395ff3fe608060405234801561000f575f80fd5b50600436106100fb575f3560e01c80633644e5151161009357806395d89b411161006357806395d89b4114610321578063a9059cbb1461035a578063d505accf1461036d578063dd62ed3e14610380575f80fd5b80633644e515146101e057806354fd4d501461029e57806370a08231146102d75780637ecebe00146102fc575f80fd5b806318bf5077116100ce57806318bf50771461019657806323b872dd146101ab5780632b8c49e3146101be578063313ce567146101d1575f80fd5b806301ffc9a7146100ff57806306fdde0314610127578063095ea7b31461016957806318160ddd1461017c575b5f80fd5b61011261010d366004610a2a565b6103a8565b60405190151581526020015b60405180910390f35b60408051808201909152600f81527f5375706572636861696e4552433230000000000000000000000000000000000060208201525b60405161011e9190610a70565b610112610177366004610aeb565b61048c565b6805345cdf77eb68f44c545b60405190815260200161011e565b6101a96101a4366004610aeb565b6104db565b005b6101126101b9366004610b13565b610584565b6101a96101cc366004610aeb565b61063c565b6040516012815260200161011e565b604080518082018252600f81527f5375706572636861696e4552433230000000000000000000000000000000000060209182015281517f8b73c3c69bb8fe3d512ecc4cf759cc79239f7b179b0ffacaa9a75d522b39400f81527f3591a58f774d7964a62ee54b3be940a0539a18f3a850f8e9f5372676256398ca918101919091527fc89efdaa54c0f20c7adf612882df0950f5a951637e0307cdcb4c672f298b8bc69181019190915246606082015230608082015260a09020610188565b60408051808201909152600c81527f312e302e302d626574612e380000000000000000000000000000000000000000602082015261015c565b6101886102e5366004610b4c565b6387a211a2600c9081525f91909152602090205490565b61018861030a366004610b4c565b6338377508600c9081525f91909152602090205490565b60408051808201909152600381527f5343450000000000000000000000000000000000000000000000000000000000602082015261015c565b610112610368366004610aeb565b6106dd565b6101a961037b366004610b65565b610754565b61018861038e366004610bd2565b602052637f5e9f20600c9081525f91909152603490205490565b5f7fffffffff0000000000000000000000000000000000000000000000000000000082167f3333199400000000000000000000000000000000000000000000000000000000148061043a57507fffffffff0000000000000000000000000000000000000000000000000000000082167f36372b0700000000000000000000000000000000000000000000000000000000145b8061048657507fffffffff0000000000000000000000000000000000000000000000000000000082167f01ffc9a700000000000000000000000000000000000000000000000000000000145b92915050565b5f82602052637f5e9f20600c52335f52816034600c2055815f52602c5160601c337f8c5be1e5ebec7d5bd14f71427d1e84f3dd0314c0f7b2291e5b200ac8c7c3b92560205fa350600192915050565b3373420000000000000000000000000000000000002814610528576040517f82b4290000000000000000000000000000000000000000000000000000000000815260040160405180910390fd5b610532828261092d565b604051818152339073ffffffffffffffffffffffffffffffffffffffff8416907fde22baff038e3a3e08407cbdf617deed74e869a7ba517df611e33131c6e6ea04906020015b60405180910390a35050565b5f8360601b33602052637f5e9f208117600c526034600c2080548019156105c057808511156105ba576313be252b5f526004601cfd5b84810382555b50506387a211a28117600c526020600c208054808511156105e85763f4d678b85f526004601cfd5b84810382555050835f526020600c208381540181555082602052600c5160601c8160601c7fddf252ad1be2c89b69c2b068fc378daa952ba7f163c4a11628f55a4df523b3ef602080a3505060019392505050565b3373420000000000000000000000000000000000002814610689576040517f82b4290000000000000000000000000000000000000000000000000000000000815260040160405180910390fd5b61069382826109a9565b604051818152339073ffffffffffffffffffffffffffffffffffffffff8416907fb90795a66650155983e242cac3e1ac1a4dc26f8ed2987f3ce416a34e00111fd490602001610578565b5f6387a211a2600c52335f526020600c208054808411156107055763f4d678b85f526004601cfd5b83810382555050825f526020600c208281540181555081602052600c5160601c337fddf252ad1be2c89b69c2b068fc378daa952ba7f163c4a11628f55a4df523b3ef602080a350600192915050565b60408051808201909152600f81527f5375706572636861696e455243323000000000000000000000000000000000006020909101527f3591a58f774d7964a62ee54b3be940a0539a18f3a850f8e9f5372676256398ca7fc89efdaa54c0f20c7adf612882df0950f5a951637e0307cdcb4c672f298b8bc6428610156107e057631a15a3cc5f526004601cfd5b6040518960601b60601c99508860601b60601c985065383775081901600e52895f526020600c2080547f8b73c3c69bb8fe3d512ecc4cf759cc79239f7b179b0ffacaa9a75d522b39400f835284602084015283604084015246606084015230608084015260a08320602e527f6e71edae12b1b97f4d1f60370fef10105fa2faae0126114a169c64845d6126c983528b60208401528a60408401528960608401528060808401528860a084015260c08320604e526042602c205f528760ff16602052866040528560605260208060805f60015afa8c3d51146108c85763ddafbaef5f526004601cfd5b019055777f5e9f20000000000000000000000000000000000000000089176040526034602c20889055888a7f8c5be1e5ebec7d5bd14f71427d1e84f3dd0314c0f7b2291e5b200ac8c7c3b925602060608501a360405250505f60605250505050505050565b6805345cdf77eb68f44c54818101818110156109505763e5cfe9575f526004601cfd5b806805345cdf77eb68f44c5550506387a211a2600c52815f526020600c208181540181555080602052600c5160601c5f7fddf252ad1be2c89b69c2b068fc378daa952ba7f163c4a11628f55a4df523b3ef602080a35050565b6387a211a2600c52815f526020600c208054808311156109d05763f4d678b85f526004601cfd5b82900390556805345cdf77eb68f44c805482900390555f81815273ffffffffffffffffffffffffffffffffffffffff83167fddf252ad1be2c89b69c2b068fc378daa952ba7f163c4a11628f55a4df523b3ef602083a35050565b5f60208284031215610a3a575f80fd5b81357fffffffff0000000000000000000000000000000000000000000000000000000081168114610a69575f80fd5b9392505050565b602081525f82518060208401528060208501604085015e5f6040828501015260407fffffffffffffffffffffffffffffffffffffffffffffffffffffffffffffffe0601f83011684010191505092915050565b803573ffffffffffffffffffffffffffffffffffffffff81168114610ae6575f80fd5b919050565b5f8060408385031215610afc575f80fd5b610b0583610ac3565b946020939093013593505050565b5f805f60608486031215610b25575f80fd5b610b2e84610ac3565b9250610b3c60208501610ac3565b9150604084013590509250925092565b5f60208284031215610b5c575f80fd5b610a6982610ac3565b5f805f805f805f60e0888a031215610b7b575f80fd5b610b8488610ac3565b9650610b9260208901610ac3565b95506040880135945060608801359350608088013560ff81168114610bb5575f80fd5b9699959850939692959460a0840135945060c09093013592915050565b5f8060408385031215610be3575f80fd5b610bec83610ac3565b9150610bfa60208401610ac3565b9050925092905056fea164736f6c6343000819000a","linkReferences":{}},"methodIdentifiers":{"DOMAIN_SEPARATOR()":"3644e515","allowance(address,address)":"dd62ed3e","approve(address,uint256)":"095ea7b3","balanceOf(address)":"70a08231","crosschainBurn(address,uint256)":"2b8c49e3","crosschainMint(address,uint256)":"18bf5077","decimals()":"313ce567","name()":"06fdde03","nonces(address)":"7ecebe00","permit(address,address,uint256,uint256,uint8,bytes32,bytes32)":"d505accf","supportsInterface(bytes4)":"01ffc9a7","symbol()":"95d89b41","totalSupply()":"18160ddd","transfer(address,uint256)":"a9059cbb","transferFrom(address,address,uint256)":"23b872dd","version()":"54fd4d50"},"storageLayout":{"storage":[],"types":{}},"userdoc":{"version":1,"kind":"user","methods":{"crosschainBurn(address,uint256)":{"notice":"Allows the SuperchainTokenBridge to burn tokens."},"crosschainMint(address,uint256)":{"notice":"Allows the SuperchainTokenBridge to mint tokens."},"version()":{"notice":"Semantic version."}},"events":{"CrosschainBurn(address,uint256,address)":{"notice":"Emitted when a crosschain transfer burns tokens."},"CrosschainMint(address,uint256,address)":{"notice":"Emitted when a crosschain transfer mints tokens."}},"errors":{"Unauthorized()":[{"notice":"Error for an unauthorized CALLER."}]},"notice":"Mock contract just to create tests over an implementation of the SuperchainERC20 abstract contract."},"devdoc":{"version":1,"kind":"dev","methods":{"DOMAIN_SEPARATOR()":{"details":"Returns the EIP-712 domain separator for the EIP-2612 permit."},"allowance(address,address)":{"details":"Returns the amount of tokens that `spender` can spend on behalf of `owner`."},"approve(address,uint256)":{"details":"Sets `amount` as the allowance of `spender` over the caller's tokens. Emits a {Approval} event."},"balanceOf(address)":{"details":"Returns the amount of tokens owned by `owner`."},"crosschainBurn(address,uint256)":{"params":{"_amount":"Amount of tokens to burn.","_from":"Address to burn tokens from."}},"crosschainMint(address,uint256)":{"params":{"_amount":"Amount of tokens to mint.","_to":"Address to mint tokens to."}},"decimals()":{"details":"Returns the decimals places of the token."},"name()":{"details":"Returns the name of the token."},"nonces(address)":{"details":"Returns the current nonce for `owner`. This value is used to compute the signature for EIP-2612 permit."},"permit(address,address,uint256,uint256,uint8,bytes32,bytes32)":{"details":"Sets `value` as the allowance of `spender` over the tokens of `owner`, authorized by a signed approval by `owner`. Emits a {Approval} event."},"supportsInterface(bytes4)":{"details":"Returns true if this contract implements the interface defined by `interfaceId`. See the corresponding https://eips.ethereum.org/EIPS/eip-165#how-interfaces-are-identified[EIP section] to learn more about how these ids are created. This function call must use less than 30 000 gas."},"symbol()":{"details":"Returns the symbol of the token."},"totalSupply()":{"details":"Returns the amount of tokens in existence."},"transfer(address,uint256)":{"details":"Transfer `amount` tokens from the caller to `to`. Requirements: - `from` must at least have `amount`. Emits a {Transfer} event."},"transferFrom(address,address,uint256)":{"details":"Transfers `amount` tokens from `from` to `to`. Note: Does not update the allowance if it is the maximum uint256 value. Requirements: - `from` must at least have `amount`. - The caller must have at least `amount` of allowance to transfer the tokens of `from`. Emits a {Transfer} event."},"version()":{}},"events":{"Approval(address,address,uint256)":{"details":"Emitted when `amount` tokens is approved by `owner` to be used by `spender`."},"CrosschainBurn(address,uint256,address)":{"params":{"amount":"Amount of tokens burned.","from":"Address of the account tokens are being burned from.","sender":"Address of the account that initiated the crosschain transfer."}},"CrosschainMint(address,uint256,address)":{"params":{"amount":"Amount of tokens minted.","sender":"Address of the account that finilized the crosschain transfer.","to":"Address of the account tokens are being minted for."}},"Transfer(address,address,uint256)":{"details":"Emitted when `amount` tokens is transferred from `from` to `to`."}},"errors":{"AllowanceOverflow()":[{"details":"The allowance has overflowed."}],"AllowanceUnderflow()":[{"details":"The allowance has underflowed."}],"InsufficientAllowance()":[{"details":"Insufficient allowance."}],"InsufficientBalance()":[{"details":"Insufficient balance."}],"InvalidPermit()":[{"details":"The permit is invalid."}],"Permit2AllowanceIsFixedAtInfinity()":[{"details":"The allowance of Permit2 is fixed at infinity."}],"PermitExpired()":[{"details":"The permit has expired."}],"TotalSupplyOverflow()":[{"details":"The total supply has overflowed."}]},"title":"SuperchainERC20Implementation Mock contract"},"id":133}