{"abi":[{"type":"constructor","inputs":[{"name":"_proofMaturityDelaySeconds","type":"uint256","internalType":"uint256"},{"name":"_disputeGameFinalityDelaySeconds","type":"uint256","internalType":"uint256"}],"stateMutability":"nonpayable"},{"type":"receive","stateMutability":"payable"},{"type":"function","name":"blacklistDisputeGame","inputs":[{"name":"_disputeGame","type":"address","internalType":"contract IDisputeGame"}],"outputs":[],"stateMutability":"nonpayable"},{"type":"function","name":"checkWithdrawal","inputs":[{"name":"_withdrawalHash","type":"bytes32","internalType":"bytes32"},{"name":"_proofSubmitter","type":"address","internalType":"address"}],"outputs":[],"stateMutability":"view"},{"type":"function","name":"depositTransaction","inputs":[{"name":"_to","type":"address","internalType":"address"},{"name":"_value","type":"uint256","internalType":"uint256"},{"name":"_gasLimit","type":"uint64","internalType":"uint64"},{"name":"_isCreation","type":"bool","internalType":"bool"},{"name":"_data","type":"bytes","internalType":"bytes"}],"outputs":[],"stateMutability":"payable"},{"type":"function","name":"disputeGameBlacklist","inputs":[{"name":"","type":"address","internalType":"contract IDisputeGame"}],"outputs":[{"name":"","type":"bool","internalType":"bool"}],"stateMutability":"view"},{"type":"function","name":"disputeGameFactory","inputs":[],"outputs":[{"name":"","type":"address","internalType":"contract IDisputeGameFactory"}],"stateMutability":"view"},{"type":"function","name":"disputeGameFinalityDelaySeconds","inputs":[],"outputs":[{"name":"","type":"uint256","internalType":"uint256"}],"stateMutability":"view"},{"type":"function","name":"donateETH","inputs":[],"outputs":[],"stateMutability":"payable"},{"type":"function","name":"finalizeWithdrawalTransaction","inputs":[{"name":"_tx","type":"tuple","internalType":"struct Types.WithdrawalTransaction","components":[{"name":"nonce","type":"uint256","internalType":"uint256"},{"name":"sender","type":"address","internalType":"address"},{"name":"target","type":"address","internalType":"address"},{"name":"value","type":"uint256","internalType":"uint256"},{"name":"gasLimit","type":"uint256","internalType":"uint256"},{"name":"data","type":"bytes","internalType":"bytes"}]}],"outputs":[],"stateMutability":"nonpayable"},{"type":"function","name":"finalizeWithdrawalTransactionExternalProof","inputs":[{"name":"_tx","type":"tuple","internalType":"struct Types.WithdrawalTransaction","components":[{"name":"nonce","type":"uint256","internalType":"uint256"},{"name":"sender","type":"address","internalType":"address"},{"name":"target","type":"address","internalType":"address"},{"name":"value","type":"uint256","internalType":"uint256"},{"name":"gasLimit","type":"uint256","internalType":"uint256"},{"name":"data","type":"bytes","internalType":"bytes"}]},{"name":"_proofSubmitter","type":"address","internalType":"address"}],"outputs":[],"stateMutability":"nonpayable"},{"type":"function","name":"finalizedWithdrawals","inputs":[{"name":"","type":"bytes32","internalType":"bytes32"}],"outputs":[{"name":"","type":"bool","internalType":"bool"}],"stateMutability":"view"},{"type":"function","name":"guardian","inputs":[],"outputs":[{"name":"","type":"address","internalType":"address"}],"stateMutability":"view"},{"type":"function","name":"initialize","inputs":[{"name":"_disputeGameFactory","type":"address","internalType":"contract IDisputeGameFactory"},{"name":"_systemConfig","type":"address","internalType":"contract ISystemConfig"},{"name":"_superchainConfig","type":"address","internalType":"contract ISuperchainConfig"},{"name":"_initialRespectedGameType","type":"uint32","internalType":"GameType"}],"outputs":[],"stateMutability":"nonpayable"},{"type":"function","name":"l2Sender","inputs":[],"outputs":[{"name":"","type":"address","internalType":"address"}],"stateMutability":"view"},{"type":"function","name":"minimumGasLimit","inputs":[{"name":"_byteCount","type":"uint64","internalType":"uint64"}],"outputs":[{"name":"","type":"uint64","internalType":"uint64"}],"stateMutability":"pure"},{"type":"function","name":"numProofSubmitters","inputs":[{"name":"_withdrawalHash","type":"bytes32","internalType":"bytes32"}],"outputs":[{"name":"","type":"uint256","internalType":"uint256"}],"stateMutability":"view"},{"type":"function","name":"params","inputs":[],"outputs":[{"name":"prevBaseFee","type":"uint128","internalType":"uint128"},{"name":"prevBoughtGas","type":"uint64","internalType":"uint64"},{"name":"prevBlockNum","type":"uint64","internalType":"uint64"}],"stateMutability":"view"},{"type":"function","name":"paused","inputs":[],"outputs":[{"name":"","type":"bool","internalType":"bool"}],"stateMutability":"view"},{"type":"function","name":"proofMaturityDelaySeconds","inputs":[],"outputs":[{"name":"","type":"uint256","internalType":"uint256"}],"stateMutability":"view"},{"type":"function","name":"proofSubmitters","inputs":[{"name":"","type":"bytes32","internalType":"bytes32"},{"name":"","type":"uint256","internalType":"uint256"}],"outputs":[{"name":"","type":"address","internalType":"address"}],"stateMutability":"view"},{"type":"function","name":"proveWithdrawalTransaction","inputs":[{"name":"_tx","type":"tuple","internalType":"struct Types.WithdrawalTransaction","components":[{"name":"nonce","type":"uint256","internalType":"uint256"},{"name":"sender","type":"address","internalType":"address"},{"name":"target","type":"address","internalType":"address"},{"name":"value","type":"uint256","internalType":"uint256"},{"name":"gasLimit","type":"uint256","internalType":"uint256"},{"name":"data","type":"bytes","internalType":"bytes"}]},{"name":"_disputeGameIndex","type":"uint256","internalType":"uint256"},{"name":"_outputRootProof","type":"tuple","internalType":"struct Types.OutputRootProof","components":[{"name":"version","type":"bytes32","internalType":"bytes32"},{"name":"stateRoot","type":"bytes32","internalType":"bytes32"},{"name":"messagePasserStorageRoot","type":"bytes32","internalType":"bytes32"},{"name":"latestBlockhash","type":"bytes32","internalType":"bytes32"}]},{"name":"_withdrawalProof","type":"bytes[]","internalType":"bytes[]"}],"outputs":[],"stateMutability":"nonpayable"},{"type":"function","name":"provenWithdrawals","inputs":[{"name":"","type":"bytes32","internalType":"bytes32"},{"name":"","type":"address","internalType":"address"}],"outputs":[{"name":"disputeGameProxy","type":"address","internalType":"contract IDisputeGame"},{"name":"timestamp","type":"uint64","internalType":"uint64"}],"stateMutability":"view"},{"type":"function","name":"respectedGameType","inputs":[],"outputs":[{"name":"","type":"uint32","internalType":"GameType"}],"stateMutability":"view"},{"type":"function","name":"respectedGameTypeUpdatedAt","inputs":[],"outputs":[{"name":"","type":"uint64","internalType":"uint64"}],"stateMutability":"view"},{"type":"function","name":"setConfig","inputs":[{"name":"_type","type":"uint8","internalType":"enum ConfigType"},{"name":"_value","type":"bytes","internalType":"bytes"}],"outputs":[],"stateMutability":"nonpayable"},{"type":"function","name":"setRespectedGameType","inputs":[{"name":"_gameType","type":"uint32","internalType":"GameType"}],"outputs":[],"stateMutability":"nonpayable"},{"type":"function","name":"superchainConfig","inputs":[],"outputs":[{"name":"","type":"address","internalType":"contract ISuperchainConfig"}],"stateMutability":"view"},{"type":"function","name":"systemConfig","inputs":[],"outputs":[{"name":"","type":"address","internalType":"contract ISystemConfig"}],"stateMutability":"view"},{"type":"function","name":"version","inputs":[],"outputs":[{"name":"","type":"string","internalType":"string"}],"stateMutability":"pure"},{"type":"event","name":"DisputeGameBlacklisted","inputs":[{"name":"disputeGame","type":"address","indexed":true,"internalType":"contract IDisputeGame"}],"anonymous":false},{"type":"event","name":"Initialized","inputs":[{"name":"version","type":"uint8","indexed":false,"internalType":"uint8"}],"anonymous":false},{"type":"event","name":"RespectedGameTypeSet","inputs":[{"name":"newGameType","type":"uint32","indexed":true,"internalType":"GameType"},{"name":"updatedAt","type":"uint64","indexed":true,"internalType":"Timestamp"}],"anonymous":false},{"type":"event","name":"TransactionDeposited","inputs":[{"name":"from","type":"address","indexed":true,"internalType":"address"},{"name":"to","type":"address","indexed":true,"internalType":"address"},{"name":"version","type":"uint256","indexed":true,"internalType":"uint256"},{"name":"opaqueData","type":"bytes","indexed":false,"internalType":"bytes"}],"anonymous":false},{"type":"event","name":"WithdrawalFinalized","inputs":[{"name":"withdrawalHash","type":"bytes32","indexed":true,"internalType":"bytes32"},{"name":"success","type":"bool","indexed":false,"internalType":"bool"}],"anonymous":false},{"type":"event","name":"WithdrawalProven","inputs":[{"name":"withdrawalHash","type":"bytes32","indexed":true,"internalType":"bytes32"},{"name":"from","type":"address","indexed":true,"internalType":"address"},{"name":"to","type":"address","indexed":true,"internalType":"address"}],"anonymous":false},{"type":"event","name":"WithdrawalProvenExtension1","inputs":[{"name":"withdrawalHash","type":"bytes32","indexed":true,"internalType":"bytes32"},{"name":"proofSubmitter","type":"address","indexed":true,"internalType":"address"}],"anonymous":false},{"type":"error","name":"AlreadyFinalized","inputs":[]},{"type":"error","name":"BadTarget","inputs":[]},{"type":"error","name":"Blacklisted","inputs":[]},{"type":"error","name":"CallPaused","inputs":[]},{"type":"error","name":"ContentLengthMismatch","inputs":[]},{"type":"error","name":"EmptyItem","inputs":[]},{"type":"error","name":"GasEstimation","inputs":[]},{"type":"error","name":"InvalidDataRemainder","inputs":[]},{"type":"error","name":"InvalidDisputeGame","inputs":[]},{"type":"error","name":"InvalidGameType","inputs":[]},{"type":"error","name":"InvalidHeader","inputs":[]},{"type":"error","name":"InvalidMerkleProof","inputs":[]},{"type":"error","name":"InvalidProof","inputs":[]},{"type":"error","name":"LargeCalldata","inputs":[]},{"type":"error","name":"LegacyGame","inputs":[]},{"type":"error","name":"NonReentrant","inputs":[]},{"type":"error","name":"OutOfGas","inputs":[]},{"type":"error","name":"ProposalNotValidated","inputs":[]},{"type":"error","name":"SmallGasLimit","inputs":[]},{"type":"error","name":"Unauthorized","inputs":[]},{"type":"error","name":"UnexpectedList","inputs":[]},{"type":"error","name":"UnexpectedString","inputs":[]},{"type":"error","name":"Unproven","inputs":[]}],"bytecode":{"object":"0x60c06040523480156200001157600080fd5b50604051620055d3380380620055d3833981016040819052620000349162000116565b608082905260a081905281816200004a62000054565b505050506200013b565b600054610100900460ff1615620000c15760405162461bcd60e51b815260206004820152602760248201527f496e697469616c697a61626c653a20636f6e747261637420697320696e697469604482015266616c697a696e6760c81b606482015260840160405180910390fd5b60005460ff908116101562000114576000805460ff191660ff9081179091556040519081527f7f26b83ff96e1f2b6a682f133852f6798a09c465da95921460cefb38474024989060200160405180910390a15b565b600080604083850312156200012a57600080fd5b505080516020909101519092909150565b60805160a0516154646200016f6000396000818161049a0152611997015260008181610611015261165601526154646000f3fe6080604052600436106101bb5760003560e01c80638b4c40b0116100ec578063a3860f481161008a578063c001216311610064578063c001216314610635578063cff0ab9614610655578063e9e05c42146106f6578063f2b4e6171461070957600080fd5b8063a3860f481461053b578063bb2c727e1461055b578063bf653a5c1461060257600080fd5b8063952b2797116100c6578063952b27971461048b5780639bf62d82146104be578063a14238e7146104eb578063a35d99df1461051b57600080fd5b80638b4c40b0146101e05780638c3152e91461044b5780638e819e541461046b57600080fd5b80634fd0434c116101595780635c975abb116101335780635c975abb146103d657806371c1566e146103eb5780637d6be8dc1461040b5780637fc485041461042b57600080fd5b80634fd0434c14610337578063513747ab1461037957806354fd4d50146103b457600080fd5b806343ca1c501161019557806343ca1c50146102a2578063452a9320146102c257806345884d32146102d75780634870496f1461031757600080fd5b806333d7e2bd146101e757806335e80ab31461023e5780633c9f397c1461027057600080fd5b366101e2576101e03334620186a0600060405180602001604052806000815250610736565b005b600080fd5b3480156101f357600080fd5b506037546102149073ffffffffffffffffffffffffffffffffffffffff1681565b60405173ffffffffffffffffffffffffffffffffffffffff90911681526020015b60405180910390f35b34801561024a57600080fd5b5060355461021490610100900473ffffffffffffffffffffffffffffffffffffffff1681565b34801561027c57600080fd5b50603b5461028d9063ffffffff1681565b60405163ffffffff9091168152602001610235565b3480156102ae57600080fd5b506101e06102bd36600461483f565b6108f3565b3480156102ce57600080fd5b50610214610af6565b3480156102e357600080fd5b506103076102f2366004614891565b603a6020526000908152604090205460ff1681565b6040519015158152602001610235565b34801561032357600080fd5b506101e06103323660046148ae565b610b8e565b34801561034357600080fd5b50603b5461036090640100000000900467ffffffffffffffff1681565b60405167ffffffffffffffff9091168152602001610235565b34801561038557600080fd5b506103a661039436600461498a565b6000908152603c602052604090205490565b604051908152602001610235565b3480156103c057600080fd5b506103c961134b565b6040516102359190614a19565b3480156103e257600080fd5b506103076113ab565b3480156103f757600080fd5b506101e0610406366004614a2c565b61143e565b34801561041757600080fd5b506101e0610426366004614891565b611af5565b34801561043757600080fd5b506101e0610446366004614a63565b611bd8565b34801561045757600080fd5b506101e0610466366004614a80565b611d2d565b34801561047757600080fd5b506101e0610486366004614abd565b611d79565b34801561049757600080fd5b507f00000000000000000000000000000000000000000000000000000000000000006103a6565b3480156104ca57600080fd5b506032546102149073ffffffffffffffffffffffffffffffffffffffff1681565b3480156104f757600080fd5b5061030761050636600461498a565b60336020526000908152604090205460ff1681565b34801561052757600080fd5b50610360610536366004614b2f565b61202e565b34801561054757600080fd5b50610214610556366004614b4c565b61204d565b34801561056757600080fd5b506105cd610576366004614a2c565b603960209081526000928352604080842090915290825290205473ffffffffffffffffffffffffffffffffffffffff81169074010000000000000000000000000000000000000000900467ffffffffffffffff1682565b6040805173ffffffffffffffffffffffffffffffffffffffff909316835267ffffffffffffffff909116602083015201610235565b34801561060e57600080fd5b507f00000000000000000000000000000000000000000000000000000000000000006103a6565b34801561064157600080fd5b506101e0610650366004614b6e565b612092565b34801561066157600080fd5b506001546106bd906fffffffffffffffffffffffffffffffff81169067ffffffffffffffff7001000000000000000000000000000000008204811691780100000000000000000000000000000000000000000000000090041683565b604080516fffffffffffffffffffffffffffffffff909416845267ffffffffffffffff9283166020850152911690820152606001610235565b6101e0610704366004614bd0565b610736565b34801561071557600080fd5b506038546102149073ffffffffffffffffffffffffffffffffffffffff1681565b8260005a905083801561075e575073ffffffffffffffffffffffffffffffffffffffff871615155b15610795576040517f13496fda00000000000000000000000000000000000000000000000000000000815260040160405180910390fd5b61079f835161202e565b67ffffffffffffffff168567ffffffffffffffff1610156107ec576040517f4929b80800000000000000000000000000000000000000000000000000000000815260040160405180910390fd5b6201d4c08351111561082a576040517f73052b0f00000000000000000000000000000000000000000000000000000000815260040160405180910390fd5b3332811461084b575033731111000000000000000000000000000000001111015b60003488888888604051602001610866959493929190614c4f565b604051602081830303815290604052905060008973ffffffffffffffffffffffffffffffffffffffff168373ffffffffffffffffffffffffffffffffffffffff167fb3813568d9991fc951961fcb4c784893574240a28925604d09fc577c55bb7c32846040516108d69190614a19565b60405180910390a450506108ea8282612256565b50505050505050565b6108fb6113ab565b15610932576040517ff480973e00000000000000000000000000000000000000000000000000000000815260040160405180910390fd5b60325473ffffffffffffffffffffffffffffffffffffffff1661dead14610985576040517f9396d15600000000000000000000000000000000000000000000000000000000815260040160405180910390fd5b60006109908361252d565b905061099c818361143e565b600081815260336020908152604080832080547fffffffffffffffffffffffffffffffffffffffffffffffffffffffffffffff00166001179055908501516032805473ffffffffffffffffffffffffffffffffffffffff9092167fffffffffffffffffffffffff00000000000000000000000000000000000000009092169190911790558401516080850151606086015160a0870151610a3e9392919061257a565b603280547fffffffffffffffffffffffff00000000000000000000000000000000000000001661dead17905560405190915082907fdb5c7652857aa163daadd670e116628fb42e869d8ac4251ef8971d9e5727df1b90610aa390841515815260200190565b60405180910390a280158015610ab95750326001145b15610af0576040517feeae4ed300000000000000000000000000000000000000000000000000000000815260040160405180910390fd5b50505050565b6000603560019054906101000a900473ffffffffffffffffffffffffffffffffffffffff1673ffffffffffffffffffffffffffffffffffffffff1663452a93206040518163ffffffff1660e01b8152600401602060405180830381865afa158015610b65573d6000803e3d6000fd5b505050506040513d601f19601f82011682018060405250810190610b899190614cb4565b905090565b610b966113ab565b15610bcd576040517ff480973e00000000000000000000000000000000000000000000000000000000815260040160405180910390fd5b3073ffffffffffffffffffffffffffffffffffffffff16856040015173ffffffffffffffffffffffffffffffffffffffff1603610c36576040517f13496fda00000000000000000000000000000000000000000000000000000000815260040160405180910390fd5b6038546040517fbb8aa1fc00000000000000000000000000000000000000000000000000000000815260048101869052600091829173ffffffffffffffffffffffffffffffffffffffff9091169063bb8aa1fc90602401606060405180830381865afa158015610caa573d6000803e3d6000fd5b505050506040513d601f19601f82011682018060405250810190610cce9190614cd1565b925050915060008173ffffffffffffffffffffffffffffffffffffffff1663bcef3b556040518163ffffffff1660e01b8152600401602060405180830381865afa158015610d20573d6000803e3d6000fd5b505050506040513d601f19601f82011682018060405250810190610d449190614d1e565b603b5490915063ffffffff848116911614610d8b576040517f27a10cc200000000000000000000000000000000000000000000000000000000815260040160405180910390fd5b8173ffffffffffffffffffffffffffffffffffffffff1663250e69bd6040518163ffffffff1660e01b8152600401602060405180830381865afa925050508015610e10575060408051601f3d9081017fffffffffffffffffffffffffffffffffffffffffffffffffffffffffffffffe0168201909252610e0d91810190614d37565b60015b610e46576040517fd502c9a600000000000000000000000000000000000000000000000000000000815260040160405180910390fd5b80610e7d576040517f27a10cc200000000000000000000000000000000000000000000000000000000815260040160405180910390fd5b50603b60049054906101000a900467ffffffffffffffff1667ffffffffffffffff16610f1e8373ffffffffffffffffffffffffffffffffffffffff1663cf09e0d06040518163ffffffff1660e01b8152600401602060405180830381865afa158015610eed573d6000803e3d6000fd5b505050506040513d601f19601f82011682018060405250810190610f119190614d54565b67ffffffffffffffff1690565b67ffffffffffffffff1611610fe0576040517f08c379a000000000000000000000000000000000000000000000000000000000815260206004820152604b60248201527f4f7074696d69736d506f7274616c3a20646973707574652067616d652063726560448201527f61746564206265666f7265207265737065637465642067616d6520747970652060648201527f7761732075706461746564000000000000000000000000000000000000000000608482015260a4015b60405180910390fd5b610ff7610ff236889003880188614d71565b6125d8565b811461102f576040517f09bde33900000000000000000000000000000000000000000000000000000000815260040160405180910390fd5b600061103a8961252d565b905060018373ffffffffffffffffffffffffffffffffffffffff1663200d2ed26040518163ffffffff1660e01b8152600401602060405180830381865afa158015611089573d6000803e3d6000fd5b505050506040513d601f19601f820116820180604052508101906110ad9190614e06565b60028111156110be576110be614dd7565b036110f5576040517fd357347400000000000000000000000000000000000000000000000000000000815260040160405180910390fd5b60408051602081018390526000918101829052606001604080517fffffffffffffffffffffffffffffffffffffffffffffffffffffffffffffffe0818403018152828252805160209182012090830181905292506111be9101604080517fffffffffffffffffffffffffffffffffffffffffffffffffffffffffffffffe0818403018152828201909152600182527f01000000000000000000000000000000000000000000000000000000000000006020830152906111b4898b614e27565b8b60400135612617565b15156000036111f9576040517fb05e92fa00000000000000000000000000000000000000000000000000000000815260040160405180910390fd5b60408051808201825273ffffffffffffffffffffffffffffffffffffffff808716825267ffffffffffffffff4281166020808501918252600088815260398252868120338252825286812095518654935190941674010000000000000000000000000000000000000000027fffffffff0000000000000000000000000000000000000000000000000000000090931693851693909317919091179093558d840151928e01519351928216939091169185917f67a6208cfcc0801d50f6cbe764733f4fddf66ac0b04442061a8a8c0cb6b63f6291a4604051339083907f798f9f13695f8f045aa5f80ed8efebb695f3c7fe65da381969f2f28bf3c60b9790600090a3506000908152603c602090815260408220805460018101825590835291200180547fffffffffffffffffffffffff000000000000000000000000000000000000000016331790555050505050505050565b606061138760408051808201909152600681527f332e31322e300000000000000000000000000000000000000000000000000000602082015290565b6040516020016113979190614eab565b604051602081830303815290604052905090565b6000603560019054906101000a900473ffffffffffffffffffffffffffffffffffffffff1673ffffffffffffffffffffffffffffffffffffffff16635c975abb6040518163ffffffff1660e01b8152600401602060405180830381865afa15801561141a573d6000803e3d6000fd5b505050506040513d601f19601f82011682018060405250810190610b899190614d37565b600082815260396020908152604080832073ffffffffffffffffffffffffffffffffffffffff85811685529083528184208251808401845290549182168082527401000000000000000000000000000000000000000090920467ffffffffffffffff1681850152818552603a90935292205490919060ff16156114ed576040517f09550c7700000000000000000000000000000000000000000000000000000000815260040160405180910390fd5b816020015167ffffffffffffffff16600003611535576040517f94efd49b00000000000000000000000000000000000000000000000000000000815260040160405180910390fd5b60006115858273ffffffffffffffffffffffffffffffffffffffff1663cf09e0d06040518163ffffffff1660e01b8152600401602060405180830381865afa158015610eed573d6000803e3d6000fd5b90508067ffffffffffffffff16836020015167ffffffffffffffff1611611654576040517f08c379a000000000000000000000000000000000000000000000000000000000815260206004820152604e60248201527f4f7074696d69736d506f7274616c3a207769746864726177616c2074696d657360448201527f74616d70206c657373207468616e20646973707574652067616d65206372656160648201527f74696f6e2074696d657374616d70000000000000000000000000000000000000608482015260a401610fd7565b7f0000000000000000000000000000000000000000000000000000000000000000836020015167ffffffffffffffff164261168f9190614f1b565b1161171c576040517f08c379a000000000000000000000000000000000000000000000000000000000815260206004820152603560248201527f4f7074696d69736d506f7274616c3a2070726f76656e2077697468647261776160448201527f6c20686173206e6f74206d6174757265642079657400000000000000000000006064820152608401610fd7565b60028273ffffffffffffffffffffffffffffffffffffffff1663200d2ed26040518163ffffffff1660e01b8152600401602060405180830381865afa158015611769573d6000803e3d6000fd5b505050506040513d601f19601f8201168201806040525081019061178d9190614e06565b600281111561179e5761179e614dd7565b146117d5576040517fa080a3c400000000000000000000000000000000000000000000000000000000815260040160405180910390fd5b8173ffffffffffffffffffffffffffffffffffffffff1663250e69bd6040518163ffffffff1660e01b8152600401602060405180830381865afa92505050801561185a575060408051601f3d9081017fffffffffffffffffffffffffffffffffffffffffffffffffffffffffffffffe016820190925261185791810190614d37565b60015b611890576040517fd502c9a600000000000000000000000000000000000000000000000000000000815260040160405180910390fd5b806118c7576040517f27a10cc200000000000000000000000000000000000000000000000000000000815260040160405180910390fd5b50603b5467ffffffffffffffff640100000000909104811690821611611995576040517f08c379a000000000000000000000000000000000000000000000000000000000815260206004820152604b60248201527f4f7074696d69736d506f7274616c3a20646973707574652067616d652063726560448201527f61746564206265666f7265207265737065637465642067616d6520747970652060648201527f7761732075706461746564000000000000000000000000000000000000000000608482015260a401610fd7565b7f0000000000000000000000000000000000000000000000000000000000000000611a048373ffffffffffffffffffffffffffffffffffffffff166319effeb46040518163ffffffff1660e01b8152600401602060405180830381865afa158015610eed573d6000803e3d6000fd5b611a189067ffffffffffffffff1642614f1b565b11611aa5576040517f08c379a000000000000000000000000000000000000000000000000000000000815260206004820152602a60248201527f4f7074696d69736d506f7274616c3a206f75747075742070726f706f73616c2060448201527f696e206169722d676170000000000000000000000000000000000000000000006064820152608401610fd7565b60008581526033602052604090205460ff1615611aee576040517f475a253500000000000000000000000000000000000000000000000000000000815260040160405180910390fd5b5050505050565b611afd610af6565b73ffffffffffffffffffffffffffffffffffffffff163373ffffffffffffffffffffffffffffffffffffffff1614611b61576040517f82b4290000000000000000000000000000000000000000000000000000000000815260040160405180910390fd5b73ffffffffffffffffffffffffffffffffffffffff81166000818152603a602052604080822080547fffffffffffffffffffffffffffffffffffffffffffffffffffffffffffffff00166001179055517f192c289026d59a41a27f5aea08f3969b57931b0589202d14f4368cded95d3cda9190a250565b611be0610af6565b73ffffffffffffffffffffffffffffffffffffffff163373ffffffffffffffffffffffffffffffffffffffff1614611c44576040517f82b4290000000000000000000000000000000000000000000000000000000000815260040160405180910390fd5b7fffffffffffffffffffffffffffffffffffffffffffffffffffffffff0000000163ffffffff821601611cb157603b80547fffffffffffffffffffffffffffffffffffffffff0000000000000000ffffffff166401000000004267ffffffffffffffff1602179055611ce2565b603b80547fffffffffffffffffffffffffffffffffffffffffffffffffffffffff000000001663ffffffff83161790555b603b5460405167ffffffffffffffff6401000000008304169163ffffffff16907f049fe9dd413cdf037cce27011cc1790c753118272f3630e6e8bdfa5e8208176090600090a350565b565b611d356113ab565b15611d6c576040517ff480973e00000000000000000000000000000000000000000000000000000000815260040160405180910390fd5b611d7681336108f3565b50565b600054610100900460ff1615808015611d995750600054600160ff909116105b80611db35750303b158015611db3575060005460ff166001145b611e3f576040517f08c379a000000000000000000000000000000000000000000000000000000000815260206004820152602e60248201527f496e697469616c697a61626c653a20636f6e747261637420697320616c72656160448201527f647920696e697469616c697a65640000000000000000000000000000000000006064820152608401610fd7565b600080547fffffffffffffffffffffffffffffffffffffffffffffffffffffffffffffff001660011790558015611e9d57600080547fffffffffffffffffffffffffffffffffffffffffffffffffffffffffffff00ff166101001790555b603880547fffffffffffffffffffffffff000000000000000000000000000000000000000090811673ffffffffffffffffffffffffffffffffffffffff8881169190911790925560378054909116868316179055603580547fffffffffffffffffffffff0000000000000000000000000000000000000000ff166101008684160217905560325416611fbd576032805461dead7fffffffffffffffffffffffff0000000000000000000000000000000000000000909116179055603b80547fffffffffffffffffffffffffffffffffffffffff000000000000000000000000166401000000004267ffffffffffffffff16027fffffffffffffffffffffffffffffffffffffffffffffffffffffffff00000000161763ffffffff84161790555b611fc561263b565b8015611aee57600080547fffffffffffffffffffffffffffffffffffffffffffffffffffffffffffff00ff169055604051600181527f7f26b83ff96e1f2b6a682f133852f6798a09c465da95921460cefb38474024989060200160405180910390a15050505050565b600061203b826010614f32565b61204790615208614f62565b92915050565b603c602052816000526040600020818154811061206957600080fd5b60009182526020909120015473ffffffffffffffffffffffffffffffffffffffff169150829050565b60375473ffffffffffffffffffffffffffffffffffffffff1633146120e3576040517f82b4290000000000000000000000000000000000000000000000000000000000815260040160405180910390fd5b6120ef62030d4061274e565b600073420000000000000000000000000000000000001573ffffffffffffffffffffffffffffffffffffffff1673deaddeaddeaddeaddeaddeaddeaddeaddead000173ffffffffffffffffffffffffffffffffffffffff167fb3813568d9991fc951961fcb4c784893574240a28925604d09fc577c55bb7c3260008062030d4063ffffffff166000898960405160240161218a929190614f8e565b604080517fffffffffffffffffffffffffffffffffffffffffffffffffffffffffffffffe0818403018152918152602080830180517bffffffffffffffffffffffffffffffffffffffffffffffffffffffff167fc001216300000000000000000000000000000000000000000000000000000000179052905161221296959493929101614c4f565b604080517fffffffffffffffffffffffffffffffffffffffffffffffffffffffffffffffe08184030181529082905261224a91614a19565b60405180910390a45050565b60015460009061228c907801000000000000000000000000000000000000000000000000900467ffffffffffffffff1643614f1b565b905060006122986127b0565b90506000816020015160ff16826000015163ffffffff166122b9919061500d565b905082156123f0576001546000906122f0908390700100000000000000000000000000000000900467ffffffffffffffff16615075565b90506000836040015160ff168361230791906150e9565b6001546123279084906fffffffffffffffffffffffffffffffff166150e9565b612331919061500d565b6001549091506000906123829061235b9084906fffffffffffffffffffffffffffffffff166151a5565b866060015163ffffffff168760a001516fffffffffffffffffffffffffffffffff16612876565b905060018611156123b1576123ae61235b82876040015160ff1660018a6123a99190614f1b565b612895565b90505b6fffffffffffffffffffffffffffffffff16780100000000000000000000000000000000000000000000000067ffffffffffffffff4316021760015550505b60018054869190601090612423908490700100000000000000000000000000000000900467ffffffffffffffff16614f62565b92506101000a81548167ffffffffffffffff021916908367ffffffffffffffff160217905550816000015163ffffffff16600160000160109054906101000a900467ffffffffffffffff1667ffffffffffffffff1613156124b0576040517f77ebef4d00000000000000000000000000000000000000000000000000000000815260040160405180910390fd5b6001546000906124dc906fffffffffffffffffffffffffffffffff1667ffffffffffffffff8816615219565b905060006124ee48633b9aca006128ea565b6124f89083615256565b905060005a6125079088614f1b565b9050808211156125235761252361251e8284614f1b565b612901565b5050505050505050565b80516020808301516040808501516060860151608087015160a0880151935160009761255d97909695910161526a565b604051602081830303815290604052805190602001209050919050565b600080600061258a86600061292f565b9050806125c0576308c379a06000526020805278185361666543616c6c3a204e6f7420656e6f756768206761736058526064601cfd5b600080855160208701888b5af1979650505050505050565b6000816000015182602001518360400151846060015160405160200161255d949392919093845260208401929092526040830152606082015260800190565b6000806126238661294d565b90506126318186868661297f565b9695505050505050565b600054610100900460ff166126d2576040517f08c379a000000000000000000000000000000000000000000000000000000000815260206004820152602b60248201527f496e697469616c697a61626c653a20636f6e7472616374206973206e6f74206960448201527f6e697469616c697a696e670000000000000000000000000000000000000000006064820152608401610fd7565b6001547801000000000000000000000000000000000000000000000000900467ffffffffffffffff16600003611d2b5760408051606081018252633b9aca00808252600060208301524367ffffffffffffffff169190920181905278010000000000000000000000000000000000000000000000000217600155565b6001805463ffffffff83169190601090612787908490700100000000000000000000000000000000900467ffffffffffffffff16614f62565b92506101000a81548167ffffffffffffffff021916908367ffffffffffffffff16021790555050565b6040805160c081018252600080825260208201819052918101829052606081018290526080810182905260a0810191909152603754604080517fcc731b02000000000000000000000000000000000000000000000000000000008152905160009273ffffffffffffffffffffffffffffffffffffffff169163cc731b029160048083019260c09291908290030181865afa158015612852573d6000803e3d6000fd5b505050506040513d601f19601f8201168201806040525081019061204791906152d7565b600061288b61288585856129af565b836129bf565b90505b9392505050565b6000670de0b6b3a76400006128d66128ad858361500d565b6128bf90670de0b6b3a7640000615075565b6128d185670de0b6b3a76400006150e9565b6129ce565b6128e090866150e9565b61288b919061500d565b6000818310156128fa578161288e565b5090919050565b6000805a90505b825a6129149083614f1b565b101561292a5761292382615393565b9150612908565b505050565b600080603f83619c4001026040850201603f5a021015949350505050565b6060818051906020012060405160200161296991815260200190565b6040516020818303038152906040529050919050565b60006129a6846129908786866129ff565b8051602091820120825192909101919091201490565b95945050505050565b6000818312156128fa578161288e565b60008183126128fa578161288e565b600061288e670de0b6b3a7640000836129e68661347d565b6129f091906150e9565b6129fa919061500d565b6136c1565b60606000845111612a6c576040517f08c379a000000000000000000000000000000000000000000000000000000000815260206004820152601560248201527f4d65726b6c65547269653a20656d707479206b657900000000000000000000006044820152606401610fd7565b6000612a7784613900565b90506000612a84866139ec565b9050600084604051602001612a9b91815260200190565b60405160208183030381529060405290506000805b84518110156133f4576000858281518110612acd57612acd6153cb565b602002602001015190508451831115612b68576040517f08c379a000000000000000000000000000000000000000000000000000000000815260206004820152602e60248201527f4d65726b6c65547269653a206b657920696e646578206578636565647320746f60448201527f74616c206b6579206c656e6774680000000000000000000000000000000000006064820152608401610fd7565b82600003612c215780518051602091820120604051612bb692612b9092910190815260200190565b604051602081830303815290604052858051602091820120825192909101919091201490565b612c1c576040517f08c379a000000000000000000000000000000000000000000000000000000000815260206004820152601d60248201527f4d65726b6c65547269653a20696e76616c696420726f6f7420686173680000006044820152606401610fd7565b612d78565b805151602011612cd75780518051602091820120604051612c4b92612b9092910190815260200190565b612c1c576040517f08c379a000000000000000000000000000000000000000000000000000000000815260206004820152602760248201527f4d65726b6c65547269653a20696e76616c6964206c6172676520696e7465726e60448201527f616c2068617368000000000000000000000000000000000000000000000000006064820152608401610fd7565b805184516020808701919091208251919092012014612d78576040517f08c379a000000000000000000000000000000000000000000000000000000000815260206004820152602660248201527f4d65726b6c65547269653a20696e76616c696420696e7465726e616c206e6f6460448201527f65206861736800000000000000000000000000000000000000000000000000006064820152608401610fd7565b612d84601060016153fa565b81602001515103612f605784518303612ef857612dbe8160200151601081518110612db157612db16153cb565b6020026020010151613a4f565b96506000875111612e51576040517f08c379a000000000000000000000000000000000000000000000000000000000815260206004820152603b60248201527f4d65726b6c65547269653a2076616c7565206c656e677468206d75737420626560448201527f2067726561746572207468616e207a65726f20286272616e63682900000000006064820152608401610fd7565b60018651612e5f9190614f1b565b8214612eed576040517f08c379a000000000000000000000000000000000000000000000000000000000815260206004820152603a60248201527f4d65726b6c65547269653a2076616c7565206e6f6465206d757374206265206c60448201527f617374206e6f646520696e2070726f6f6620286272616e6368290000000000006064820152608401610fd7565b50505050505061288e565b6000858481518110612f0c57612f0c6153cb565b602001015160f81c60f81b60f81c9050600082602001518260ff1681518110612f3757612f376153cb565b60200260200101519050612f4a81613b03565b9550612f576001866153fa565b945050506133e1565b600281602001515103613359576000612f7882613b28565b9050600081600081518110612f8f57612f8f6153cb565b016020015160f81c90506000612fa6600283615412565b612fb1906002615434565b90506000612fc2848360ff16613b4c565b90506000612fd08a89613b4c565b90506000612fde8383613b82565b905080835114613070576040517f08c379a000000000000000000000000000000000000000000000000000000000815260206004820152603a60248201527f4d65726b6c65547269653a20706174682072656d61696e646572206d7573742060448201527f736861726520616c6c206e6962626c65732077697468206b65790000000000006064820152608401610fd7565b60ff851660021480613085575060ff85166003145b15613274578082511461311a576040517f08c379a000000000000000000000000000000000000000000000000000000000815260206004820152603d60248201527f4d65726b6c65547269653a206b65792072656d61696e646572206d757374206260448201527f65206964656e746963616c20746f20706174682072656d61696e6465720000006064820152608401610fd7565b6131348760200151600181518110612db157612db16153cb565b9c5060008d51116131c7576040517f08c379a000000000000000000000000000000000000000000000000000000000815260206004820152603960248201527f4d65726b6c65547269653a2076616c7565206c656e677468206d75737420626560448201527f2067726561746572207468616e207a65726f20286c65616629000000000000006064820152608401610fd7565b60018c516131d59190614f1b565b8814613263576040517f08c379a000000000000000000000000000000000000000000000000000000000815260206004820152603860248201527f4d65726b6c65547269653a2076616c7565206e6f6465206d757374206265206c60448201527f617374206e6f646520696e2070726f6f6620286c6561662900000000000000006064820152608401610fd7565b50505050505050505050505061288e565b60ff85161580613287575060ff85166001145b156132c6576132b387602001516001815181106132a6576132a66153cb565b6020026020010151613b03565b99506132bf818a6153fa565b985061334e565b6040517f08c379a000000000000000000000000000000000000000000000000000000000815260206004820152603260248201527f4d65726b6c65547269653a2072656365697665642061206e6f6465207769746860448201527f20616e20756e6b6e6f776e2070726566697800000000000000000000000000006064820152608401610fd7565b5050505050506133e1565b6040517f08c379a000000000000000000000000000000000000000000000000000000000815260206004820152602860248201527f4d65726b6c65547269653a20726563656976656420616e20756e70617273656160448201527f626c65206e6f64650000000000000000000000000000000000000000000000006064820152608401610fd7565b50806133ec81615393565b915050612ab0565b506040517f08c379a000000000000000000000000000000000000000000000000000000000815260206004820152602560248201527f4d65726b6c65547269653a2072616e206f7574206f662070726f6f6620656c6560448201527f6d656e74730000000000000000000000000000000000000000000000000000006064820152608401610fd7565b60008082136134e8576040517f08c379a000000000000000000000000000000000000000000000000000000000815260206004820152600960248201527f554e444546494e454400000000000000000000000000000000000000000000006044820152606401610fd7565b600060606134f584613c36565b03609f8181039490941b90931c6c465772b2bbbb5f824b15207a3081018102606090811d6d0388eaa27412d5aca026815d636e018202811d6d0df99ac502031bf953eff472fdcc018202811d6d13cdffb29d51d99322bdff5f2211018202811d6d0a0f742023def783a307a986912e018202811d6d01920d8043ca89b5239253284e42018202811d6c0b7a86d7375468fac667a0a527016c29508e458543d8aa4df2abee7883018302821d6d0139601a2efabe717e604cbb4894018302821d6d02247f7a7b6594320649aa03aba1018302821d7fffffffffffffffffffffffffffffffffffffff73c0c716a594e00d54e3c4cbc9018302821d7ffffffffffffffffffffffffffffffffffffffdc7b88c420e53a9890533129f6f01830290911d7fffffffffffffffffffffffffffffffffffffff465fda27eb4d63ded474e5f832019091027ffffffffffffffff5f6af8f7b3396644f18e157960000000000000000000000000105711340daa0d5f769dba1915cef59f0815a5506027d0267a36c0c95b3975ab3ee5b203a7614a3f75373f047d803ae7b6687f2b393909302929092017d57115e47018c7177eebf7cd370a3356a1b7863008a5ae8028c72b88642840160ae1d92915050565b60007ffffffffffffffffffffffffffffffffffffffffffffffffdb731c958f34d94c182136136f257506000919050565b680755bf798b4a1bf1e58212613764576040517f08c379a000000000000000000000000000000000000000000000000000000000815260206004820152600c60248201527f4558505f4f564552464c4f5700000000000000000000000000000000000000006044820152606401610fd7565b6503782dace9d9604e83901b059150600060606bb17217f7d1cf79abc9e3b39884821b056b80000000000000000000000001901d6bb17217f7d1cf79abc9e3b39881029093037fffffffffffffffffffffffffffffffffffffffdbf3ccf1604d263450f02a550481018102606090811d6d0277594991cfc85f6e2461837cd9018202811d7fffffffffffffffffffffffffffffffffffffe5adedaa1cb095af9e4da10e363c018202811d6db1bbb201f443cf962f1a1d3db4a5018202811d7ffffffffffffffffffffffffffffffffffffd38dc772608b0ae56cce01296c0eb018202811d6e05180bb14799ab47a8a8cb2a527d57016d02d16720577bd19bf614176fe9ea6c10fe68e7fd37d0007b713f765084018402831d9081019084017ffffffffffffffffffffffffffffffffffffffe2c69812cf03b0763fd454a8f7e010290911d6e0587f503bb6ea29d25fcb7401964500190910279d835ebba824c98fb31b83b2ca45c000000000000000000000000010574029d9dc38563c32e5c2f6dc192ee70ef65f9978af30260c3939093039290921c92915050565b80516060908067ffffffffffffffff81111561391e5761391e614662565b60405190808252806020026020018201604052801561396357816020015b604080518082019091526060808252602082015281526020019060019003908161393c5790505b50915060005b818110156139e557604051806040016040528085838151811061398e5761398e6153cb565b602002602001015181526020016139bd8684815181106139b0576139b06153cb565b6020026020010151613d0c565b8152508382815181106139d2576139d26153cb565b6020908102919091010152600101613969565b5050919050565b606080604051905082518060011b603f8101601f1916830160405280835250602084016020830160005b83811015613a44578060011b82018184015160001a8060041c8253600f811660018301535050600101613a16565b509295945050505050565b60606000806000613a5f85613d1f565b919450925090506000816001811115613a7a57613a7a614dd7565b14613ab1576040517f1ff9b2e400000000000000000000000000000000000000000000000000000000815260040160405180910390fd5b613abb82846153fa565b855114613af4576040517f5c5537b800000000000000000000000000000000000000000000000000000000815260040160405180910390fd5b6129a6856020015184846141bd565b60606020826000015110613b1f57613b1a82613a4f565b612047565b61204782614251565b6060612047613b478360200151600081518110612db157612db16153cb565b6139ec565b606082518210613b6b5750604080516020810190915260008152612047565b61288e8383848651613b7d9190614f1b565b614267565b6000808251845110613b95578251613b98565b83515b90505b8082108015613c1f5750828281518110613bb757613bb76153cb565b602001015160f81c60f81b7effffffffffffffffffffffffffffffffffffffffffffffffffffffffffffff1916848381518110613bf657613bf66153cb565b01602001517fff0000000000000000000000000000000000000000000000000000000000000016145b15613c2f57816001019150613b9b565b5092915050565b6000808211613ca1576040517f08c379a000000000000000000000000000000000000000000000000000000000815260206004820152600960248201527f554e444546494e454400000000000000000000000000000000000000000000006044820152606401610fd7565b5060016fffffffffffffffffffffffffffffffff821160071b82811c67ffffffffffffffff1060061b1782811c63ffffffff1060051b1782811c61ffff1060041b1782811c60ff10600390811b90911783811c600f1060021b1783811c909110821b1791821c111790565b6060612047613d1a8361443f565b6144ac565b60008060008360000151600003613d62576040517f5ab458fb00000000000000000000000000000000000000000000000000000000815260040160405180910390fd5b6020840151805160001a607f8111613d875760006001600094509450945050506141b6565b60b78111613e9d576000613d9c608083614f1b565b905080876000015111613ddb576040517f66c9448500000000000000000000000000000000000000000000000000000000815260040160405180910390fd5b6001838101517fff00000000000000000000000000000000000000000000000000000000000000169082148015613e5357507f80000000000000000000000000000000000000000000000000000000000000007fff000000000000000000000000000000000000000000000000000000000000008216105b15613e8a576040517fbabb01dd00000000000000000000000000000000000000000000000000000000815260040160405180910390fd5b50600195509350600092506141b6915050565b60bf8111613ffb576000613eb260b783614f1b565b905080876000015111613ef1576040517f66c9448500000000000000000000000000000000000000000000000000000000815260040160405180910390fd5b60018301517fff00000000000000000000000000000000000000000000000000000000000000166000819003613f53576040517fbabb01dd00000000000000000000000000000000000000000000000000000000815260040160405180910390fd5b600184015160088302610100031c60378111613f9b576040517fbabb01dd00000000000000000000000000000000000000000000000000000000815260040160405180910390fd5b613fa581846153fa565b895111613fde576040517f66c9448500000000000000000000000000000000000000000000000000000000815260040160405180910390fd5b613fe98360016153fa565b97509550600094506141b69350505050565b60f7811161406057600061401060c083614f1b565b90508087600001511161404f576040517f66c9448500000000000000000000000000000000000000000000000000000000815260040160405180910390fd5b6001955093508492506141b6915050565b600061406d60f783614f1b565b9050808760000151116140ac576040517f66c9448500000000000000000000000000000000000000000000000000000000815260040160405180910390fd5b60018301517fff0000000000000000000000000000000000000000000000000000000000000016600081900361410e576040517fbabb01dd00000000000000000000000000000000000000000000000000000000815260040160405180910390fd5b600184015160088302610100031c60378111614156576040517fbabb01dd00000000000000000000000000000000000000000000000000000000815260040160405180910390fd5b61416081846153fa565b895111614199576040517f66c9448500000000000000000000000000000000000000000000000000000000815260040160405180910390fd5b6141a48360016153fa565b97509550600194506141b69350505050565b9193909250565b60608167ffffffffffffffff8111156141d8576141d8614662565b6040519080825280601f01601f191660200182016040528015614202576020820181803683370190505b509050811561288e57600061421784866153fa565b90506020820160005b84811015614238578281015182820152602001614220565b84811115614247576000858301525b5050509392505050565b60606120478260200151600084600001516141bd565b60608182601f0110156142d6576040517f08c379a000000000000000000000000000000000000000000000000000000000815260206004820152600e60248201527f736c6963655f6f766572666c6f770000000000000000000000000000000000006044820152606401610fd7565b828284011015614342576040517f08c379a000000000000000000000000000000000000000000000000000000000815260206004820152600e60248201527f736c6963655f6f766572666c6f770000000000000000000000000000000000006044820152606401610fd7565b818301845110156143af576040517f08c379a000000000000000000000000000000000000000000000000000000000815260206004820152601160248201527f736c6963655f6f75744f66426f756e64730000000000000000000000000000006044820152606401610fd7565b6060821580156143ce5760405191506000825260208201604052614436565b6040519150601f8416801560200281840101858101878315602002848b0101015b818310156144075780518352602092830192016143ef565b5050858452601f017fffffffffffffffffffffffffffffffffffffffffffffffffffffffffffffffe016604052505b50949350505050565b6040805180820190915260008082526020820152815160000361448e576040517f5ab458fb00000000000000000000000000000000000000000000000000000000815260040160405180910390fd5b50604080518082019091528151815260209182019181019190915290565b606060008060006144bc85613d1f565b9194509250905060018160018111156144d7576144d7614dd7565b1461450e576040517f4b9c6abe00000000000000000000000000000000000000000000000000000000815260040160405180910390fd5b845161451a83856153fa565b14614551576040517f5c5537b800000000000000000000000000000000000000000000000000000000815260040160405180910390fd5b604080516020808252610420820190925290816020015b60408051808201909152600080825260208201528152602001906001900390816145685790505093506000835b8651811015614656576000806145db6040518060400160405280858c600001516145bf9190614f1b565b8152602001858c602001516145d491906153fa565b9052613d1f565b5091509150604051806040016040528083836145f791906153fa565b8152602001848b6020015161460c91906153fa565b815250888581518110614621576146216153cb565b60209081029190910101526146376001856153fa565b935061464381836153fa565b61464d90846153fa565b92505050614595565b50845250919392505050565b7f4e487b7100000000000000000000000000000000000000000000000000000000600052604160045260246000fd5b604051601f82017fffffffffffffffffffffffffffffffffffffffffffffffffffffffffffffffe016810167ffffffffffffffff811182821017156146d8576146d8614662565b604052919050565b73ffffffffffffffffffffffffffffffffffffffff81168114611d7657600080fd5b600082601f83011261471357600080fd5b813567ffffffffffffffff81111561472d5761472d614662565b61475e60207fffffffffffffffffffffffffffffffffffffffffffffffffffffffffffffffe0601f84011601614691565b81815284602083860101111561477357600080fd5b816020850160208301376000918101602001919091529392505050565b600060c082840312156147a257600080fd5b60405160c0810167ffffffffffffffff82821081831117156147c6576147c6614662565b8160405282935084358352602085013591506147e1826146e0565b816020840152604085013591506147f7826146e0565b816040840152606085013560608401526080850135608084015260a085013591508082111561482557600080fd5b5061483285828601614702565b60a0830152505092915050565b6000806040838503121561485257600080fd5b823567ffffffffffffffff81111561486957600080fd5b61487585828601614790565b9250506020830135614886816146e0565b809150509250929050565b6000602082840312156148a357600080fd5b813561288e816146e0565b600080600080600085870360e08112156148c757600080fd5b863567ffffffffffffffff808211156148df57600080fd5b6148eb8a838b01614790565b97506020890135965060807fffffffffffffffffffffffffffffffffffffffffffffffffffffffffffffffc08401121561492457600080fd5b60408901955060c089013592508083111561493e57600080fd5b828901925089601f84011261495257600080fd5b823591508082111561496357600080fd5b508860208260051b840101111561497957600080fd5b959894975092955050506020019190565b60006020828403121561499c57600080fd5b5035919050565b60005b838110156149be5781810151838201526020016149a6565b83811115610af05750506000910152565b600081518084526149e78160208601602086016149a3565b601f017fffffffffffffffffffffffffffffffffffffffffffffffffffffffffffffffe0169290920160200192915050565b60208152600061288e60208301846149cf565b60008060408385031215614a3f57600080fd5b823591506020830135614886816146e0565b63ffffffff81168114611d7657600080fd5b600060208284031215614a7557600080fd5b813561288e81614a51565b600060208284031215614a9257600080fd5b813567ffffffffffffffff811115614aa957600080fd5b614ab584828501614790565b949350505050565b60008060008060808587031215614ad357600080fd5b8435614ade816146e0565b93506020850135614aee816146e0565b92506040850135614afe816146e0565b91506060850135614b0e81614a51565b939692955090935050565b67ffffffffffffffff81168114611d7657600080fd5b600060208284031215614b4157600080fd5b813561288e81614b19565b60008060408385031215614b5f57600080fd5b50508035926020909101359150565b60008060408385031215614b8157600080fd5b823560028110614b9057600080fd5b9150602083013567ffffffffffffffff811115614bac57600080fd5b614bb885828601614702565b9150509250929050565b8015158114611d7657600080fd5b600080600080600060a08688031215614be857600080fd5b8535614bf3816146e0565b9450602086013593506040860135614c0a81614b19565b92506060860135614c1a81614bc2565b9150608086013567ffffffffffffffff811115614c3657600080fd5b614c4288828901614702565b9150509295509295909350565b8581528460208201527fffffffffffffffff0000000000000000000000000000000000000000000000008460c01b16604082015282151560f81b604882015260008251614ca38160498501602087016149a3565b919091016049019695505050505050565b600060208284031215614cc657600080fd5b815161288e816146e0565b600080600060608486031215614ce657600080fd5b8351614cf181614a51565b6020850151909350614d0281614b19565b6040850151909250614d13816146e0565b809150509250925092565b600060208284031215614d3057600080fd5b5051919050565b600060208284031215614d4957600080fd5b815161288e81614bc2565b600060208284031215614d6657600080fd5b815161288e81614b19565b600060808284031215614d8357600080fd5b6040516080810181811067ffffffffffffffff82111715614da657614da6614662565b8060405250823581526020830135602082015260408301356040820152606083013560608201528091505092915050565b7f4e487b7100000000000000000000000000000000000000000000000000000000600052602160045260246000fd5b600060208284031215614e1857600080fd5b81516003811061288e57600080fd5b600067ffffffffffffffff80841115614e4257614e42614662565b8360051b6020614e53818301614691565b868152918501918181019036841115614e6b57600080fd5b865b84811015614e9f57803586811115614e855760008081fd5b614e9136828b01614702565b845250918301918301614e6d565b50979650505050505050565b60008251614ebd8184602087016149a3565b7f2b696e7465726f70000000000000000000000000000000000000000000000000920191825250600801919050565b7f4e487b7100000000000000000000000000000000000000000000000000000000600052601160045260246000fd5b600082821015614f2d57614f2d614eec565b500390565b600067ffffffffffffffff80831681851681830481118215151615614f5957614f59614eec565b02949350505050565b600067ffffffffffffffff808316818516808303821115614f8557614f85614eec565b01949350505050565b600060028410614fc7577f4e487b7100000000000000000000000000000000000000000000000000000000600052602160045260246000fd5b8382526040602083015261288b60408301846149cf565b7f4e487b7100000000000000000000000000000000000000000000000000000000600052601260045260246000fd5b60008261501c5761501c614fde565b7fffffffffffffffffffffffffffffffffffffffffffffffffffffffffffffffff83147f80000000000000000000000000000000000000000000000000000000000000008314161561507057615070614eec565b500590565b6000808312837f8000000000000000000000000000000000000000000000000000000000000000018312811516156150af576150af614eec565b837f7fffffffffffffffffffffffffffffffffffffffffffffffffffffffffffffff0183138116156150e3576150e3614eec565b50500390565b60007f7fffffffffffffffffffffffffffffffffffffffffffffffffffffffffffffff60008413600084138583048511828216161561512a5761512a614eec565b7f8000000000000000000000000000000000000000000000000000000000000000600087128682058812818416161561516557615165614eec565b6000871292508782058712848416161561518157615181614eec565b8785058712818416161561519757615197614eec565b505050929093029392505050565b6000808212827f7fffffffffffffffffffffffffffffffffffffffffffffffffffffffffffffff038413811516156151df576151df614eec565b827f800000000000000000000000000000000000000000000000000000000000000003841281161561521357615213614eec565b50500190565b6000817fffffffffffffffffffffffffffffffffffffffffffffffffffffffffffffffff048311821515161561525157615251614eec565b500290565b60008261526557615265614fde565b500490565b868152600073ffffffffffffffffffffffffffffffffffffffff808816602084015280871660408401525084606083015283608083015260c060a08301526152b560c08301846149cf565b98975050505050505050565b805160ff811681146152d257600080fd5b919050565b600060c082840312156152e957600080fd5b60405160c0810181811067ffffffffffffffff8211171561530c5761530c614662565b604052825161531a81614a51565b8152615328602084016152c1565b6020820152615339604084016152c1565b6040820152606083015161534c81614a51565b6060820152608083015161535f81614a51565b608082015260a08301516fffffffffffffffffffffffffffffffff8116811461538757600080fd5b60a08201529392505050565b60007fffffffffffffffffffffffffffffffffffffffffffffffffffffffffffffffff82036153c4576153c4614eec565b5060010190565b7f4e487b7100000000000000000000000000000000000000000000000000000000600052603260045260246000fd5b6000821982111561540d5761540d614eec565b500190565b600060ff83168061542557615425614fde565b8060ff84160691505092915050565b600060ff821660ff84168082101561544e5761544e614eec565b9003939250505056fea164736f6c634300080f000a","linkReferences":{}},"methodIdentifiers":{"blacklistDisputeGame(address)":"7d6be8dc","checkWithdrawal(bytes32,address)":"71c1566e","depositTransaction(address,uint256,uint64,bool,bytes)":"e9e05c42","disputeGameBlacklist(address)":"45884d32","disputeGameFactory()":"f2b4e617","disputeGameFinalityDelaySeconds()":"952b2797","donateETH()":"8b4c40b0","finalizeWithdrawalTransaction((uint256,address,address,uint256,uint256,bytes))":"8c3152e9","finalizeWithdrawalTransactionExternalProof((uint256,address,address,uint256,uint256,bytes),address)":"43ca1c50","finalizedWithdrawals(bytes32)":"a14238e7","guardian()":"452a9320","initialize(address,address,address,uint32)":"8e819e54","l2Sender()":"9bf62d82","minimumGasLimit(uint64)":"a35d99df","numProofSubmitters(bytes32)":"513747ab","params()":"cff0ab96","paused()":"5c975abb","proofMaturityDelaySeconds()":"bf653a5c","proofSubmitters(bytes32,uint256)":"a3860f48","proveWithdrawalTransaction((uint256,address,address,uint256,uint256,bytes),uint256,(bytes32,bytes32,bytes32,bytes32),bytes[])":"4870496f","provenWithdrawals(bytes32,address)":"bb2c727e","respectedGameType()":"3c9f397c","respectedGameTypeUpdatedAt()":"4fd0434c","setConfig(uint8,bytes)":"c0012163","setRespectedGameType(uint32)":"7fc48504","superchainConfig()":"35e80ab3","systemConfig()":"33d7e2bd","version()":"54fd4d50"},"storageLayout":{"storage":[{"astId":49406,"contract":"src/L1/OptimismPortalInterop.sol:OptimismPortalInterop","label":"_initialized","offset":0,"slot":"0","type":"t_uint8"},{"astId":49409,"contract":"src/L1/OptimismPortalInterop.sol:OptimismPortalInterop","label":"_initializing","offset":1,"slot":"0","type":"t_bool"},{"astId":97614,"contract":"src/L1/OptimismPortalInterop.sol:OptimismPortalInterop","label":"params","offset":0,"slot":"1","type":"t_struct(ResourceParams)97597_storage"},{"astId":97619,"contract":"src/L1/OptimismPortalInterop.sol:OptimismPortalInterop","label":"__gap","offset":0,"slot":"2","type":"t_array(t_uint256)48_storage"},{"astId":96352,"contract":"src/L1/OptimismPortalInterop.sol:OptimismPortalInterop","label":"l2Sender","offset":0,"slot":"50","type":"t_address"},{"astId":96357,"contract":"src/L1/OptimismPortalInterop.sol:OptimismPortalInterop","label":"finalizedWithdrawals","offset":0,"slot":"51","type":"t_mapping(t_bytes32,t_bool)"},{"astId":96360,"contract":"src/L1/OptimismPortalInterop.sol:OptimismPortalInterop","label":"spacer_52_0_32","offset":0,"slot":"52","type":"t_bytes32"},{"astId":96363,"contract":"src/L1/OptimismPortalInterop.sol:OptimismPortalInterop","label":"spacer_53_0_1","offset":0,"slot":"53","type":"t_bool"},{"astId":96367,"contract":"src/L1/OptimismPortalInterop.sol:OptimismPortalInterop","label":"superchainConfig","offset":1,"slot":"53","type":"t_contract(ISuperchainConfig)1836"},{"astId":96370,"contract":"src/L1/OptimismPortalInterop.sol:OptimismPortalInterop","label":"spacer_54_0_20","offset":0,"slot":"54","type":"t_address"},{"astId":96374,"contract":"src/L1/OptimismPortalInterop.sol:OptimismPortalInterop","label":"systemConfig","offset":0,"slot":"55","type":"t_contract(ISystemConfig)2116"},{"astId":96378,"contract":"src/L1/OptimismPortalInterop.sol:OptimismPortalInterop","label":"disputeGameFactory","offset":0,"slot":"56","type":"t_contract(IDisputeGameFactory)5495"},{"astId":96386,"contract":"src/L1/OptimismPortalInterop.sol:OptimismPortalInterop","label":"provenWithdrawals","offset":0,"slot":"57","type":"t_mapping(t_bytes32,t_mapping(t_address,t_struct(ProvenWithdrawal)96331_storage))"},{"astId":96392,"contract":"src/L1/OptimismPortalInterop.sol:OptimismPortalInterop","label":"disputeGameBlacklist","offset":0,"slot":"58","type":"t_mapping(t_contract(IDisputeGame)5286,t_bool)"},{"astId":96396,"contract":"src/L1/OptimismPortalInterop.sol:OptimismPortalInterop","label":"respectedGameType","offset":0,"slot":"59","type":"t_userDefinedValueType(GameType)119491"},{"astId":96399,"contract":"src/L1/OptimismPortalInterop.sol:OptimismPortalInterop","label":"respectedGameTypeUpdatedAt","offset":4,"slot":"59","type":"t_uint64"},{"astId":96405,"contract":"src/L1/OptimismPortalInterop.sol:OptimismPortalInterop","label":"proofSubmitters","offset":0,"slot":"60","type":"t_mapping(t_bytes32,t_array(t_address)dyn_storage)"},{"astId":96408,"contract":"src/L1/OptimismPortalInterop.sol:OptimismPortalInterop","label":"spacer_61_0_32","offset":0,"slot":"61","type":"t_uint256"}],"types":{"t_address":{"encoding":"inplace","label":"address","numberOfBytes":"20"},"t_array(t_address)dyn_storage":{"encoding":"dynamic_array","label":"address[]","numberOfBytes":"32","base":"t_address"},"t_array(t_uint256)48_storage":{"encoding":"inplace","label":"uint256[48]","numberOfBytes":"1536","base":"t_uint256"},"t_bool":{"encoding":"inplace","label":"bool","numberOfBytes":"1"},"t_bytes32":{"encoding":"inplace","label":"bytes32","numberOfBytes":"32"},"t_contract(IDisputeGame)5286":{"encoding":"inplace","label":"contract IDisputeGame","numberOfBytes":"20"},"t_contract(IDisputeGameFactory)5495":{"encoding":"inplace","label":"contract IDisputeGameFactory","numberOfBytes":"20"},"t_contract(ISuperchainConfig)1836":{"encoding":"inplace","label":"contract ISuperchainConfig","numberOfBytes":"20"},"t_contract(ISystemConfig)2116":{"encoding":"inplace","label":"contract ISystemConfig","numberOfBytes":"20"},"t_mapping(t_address,t_struct(ProvenWithdrawal)96331_storage)":{"encoding":"mapping","key":"t_address","label":"mapping(address => struct OptimismPortal2.ProvenWithdrawal)","numberOfBytes":"32","value":"t_struct(ProvenWithdrawal)96331_storage"},"t_mapping(t_bytes32,t_array(t_address)dyn_storage)":{"encoding":"mapping","key":"t_bytes32","label":"mapping(bytes32 => address[])","numberOfBytes":"32","value":"t_array(t_address)dyn_storage"},"t_mapping(t_bytes32,t_bool)":{"encoding":"mapping","key":"t_bytes32","label":"mapping(bytes32 => bool)","numberOfBytes":"32","value":"t_bool"},"t_mapping(t_bytes32,t_mapping(t_address,t_struct(ProvenWithdrawal)96331_storage))":{"encoding":"mapping","key":"t_bytes32","label":"mapping(bytes32 => mapping(address => struct OptimismPortal2.ProvenWithdrawal))","numberOfBytes":"32","value":"t_mapping(t_address,t_struct(ProvenWithdrawal)96331_storage)"},"t_mapping(t_contract(IDisputeGame)5286,t_bool)":{"encoding":"mapping","key":"t_contract(IDisputeGame)5286","label":"mapping(contract IDisputeGame => bool)","numberOfBytes":"32","value":"t_bool"},"t_struct(ProvenWithdrawal)96331_storage":{"encoding":"inplace","label":"struct OptimismPortal2.ProvenWithdrawal","numberOfBytes":"32","members":[{"astId":96328,"contract":"src/L1/OptimismPortalInterop.sol:OptimismPortalInterop","label":"disputeGameProxy","offset":0,"slot":"0","type":"t_contract(IDisputeGame)5286"},{"astId":96330,"contract":"src/L1/OptimismPortalInterop.sol:OptimismPortalInterop","label":"timestamp","offset":20,"slot":"0","type":"t_uint64"}]},"t_struct(ResourceParams)97597_storage":{"encoding":"inplace","label":"struct ResourceMetering.ResourceParams","numberOfBytes":"32","members":[{"astId":97592,"contract":"src/L1/OptimismPortalInterop.sol:OptimismPortalInterop","label":"prevBaseFee","offset":0,"slot":"0","type":"t_uint128"},{"astId":97594,"contract":"src/L1/OptimismPortalInterop.sol:OptimismPortalInterop","label":"prevBoughtGas","offset":16,"slot":"0","type":"t_uint64"},{"astId":97596,"contract":"src/L1/OptimismPortalInterop.sol:OptimismPortalInterop","label":"prevBlockNum","offset":24,"slot":"0","type":"t_uint64"}]},"t_uint128":{"encoding":"inplace","label":"uint128","numberOfBytes":"16"},"t_uint256":{"encoding":"inplace","label":"uint256","numberOfBytes":"32"},"t_uint64":{"encoding":"inplace","label":"uint64","numberOfBytes":"8"},"t_uint8":{"encoding":"inplace","label":"uint8","numberOfBytes":"1"},"t_userDefinedValueType(GameType)119491":{"encoding":"inplace","label":"GameType","numberOfBytes":"4"}}},"userdoc":{"version":1,"kind":"user","methods":{"blacklistDisputeGame(address)":{"notice":"Blacklists a dispute game. Should only be used in the event that a dispute game resolves incorrectly."},"checkWithdrawal(bytes32,address)":{"notice":"Checks if a withdrawal can be finalized. This function will revert if the withdrawal cannot be         finalized, and otherwise has no side-effects."},"depositTransaction(address,uint256,uint64,bool,bytes)":{"notice":"Accepts deposits of ETH and data, and emits a TransactionDeposited event for use in         deriving deposit transactions. Note that if a deposit is made by a contract, its         address will be aliased when retrieved using `tx.origin` or `msg.sender`. Consider         using the CrossDomainMessenger contracts for a simpler developer experience."},"disputeGameBlacklist(address)":{"notice":"A mapping of dispute game addresses to whether or not they are blacklisted."},"disputeGameFactory()":{"notice":"Address of the DisputeGameFactory."},"disputeGameFinalityDelaySeconds()":{"notice":"Getter for the dispute game finality delay."},"donateETH()":{"notice":"Accepts ETH value without triggering a deposit to L2.         This function mainly exists for the sake of the migration between the legacy         Optimism system and Bedrock."},"finalizeWithdrawalTransaction((uint256,address,address,uint256,uint256,bytes))":{"notice":"Finalizes a withdrawal transaction."},"finalizeWithdrawalTransactionExternalProof((uint256,address,address,uint256,uint256,bytes),address)":{"notice":"Finalizes a withdrawal transaction, using an external proof submitter."},"finalizedWithdrawals(bytes32)":{"notice":"A list of withdrawal hashes which have been successfully finalized."},"guardian()":{"notice":"Getter function for the address of the guardian.         Public getter is legacy and will be removed in the future. Use `SuperchainConfig.guardian()` instead."},"initialize(address,address,address,uint32)":{"notice":"Initializer."},"l2Sender()":{"notice":"Address of the L2 account which initiated a withdrawal in this transaction.         If the of this variable is the default L2 sender address, then we are NOT inside of         a call to finalizeWithdrawalTransaction."},"minimumGasLimit(uint64)":{"notice":"Computes the minimum gas limit for a deposit.         The minimum gas limit linearly increases based on the size of the calldata.         This is to prevent users from creating L2 resource usage without paying for it.         This function can be used when interacting with the portal to ensure forwards         compatibility."},"numProofSubmitters(bytes32)":{"notice":"External getter for the number of proof submitters for a withdrawal hash."},"params()":{"notice":"EIP-1559 style gas parameters."},"paused()":{"notice":"Getter for the current paused status."},"proofMaturityDelaySeconds()":{"notice":"Getter for the proof maturity delay."},"proofSubmitters(bytes32,uint256)":{"notice":"Mapping of withdrawal hashes to addresses that have submitted a proof for the         withdrawal. Original OptimismPortal contract only allowed one proof to be submitted         for any given withdrawal hash. Fault Proofs version of this contract must allow         multiple proofs for the same withdrawal hash to prevent a malicious user from         blocking other withdrawals by proving them against invalid proposals. Submitters         are tracked in an array to simplify the off-chain process of determining which         proof submission should be used when finalizing a withdrawal."},"proveWithdrawalTransaction((uint256,address,address,uint256,uint256,bytes),uint256,(bytes32,bytes32,bytes32,bytes32),bytes[])":{"notice":"Proves a withdrawal transaction."},"provenWithdrawals(bytes32,address)":{"notice":"A mapping of withdrawal hashes to proof submitters to `ProvenWithdrawal` data."},"respectedGameType()":{"notice":"The game type that the OptimismPortal consults for output proposals."},"respectedGameTypeUpdatedAt()":{"notice":"The timestamp at which the respected game type was last updated."},"setConfig(uint8,bytes)":{"notice":"Sets static configuration options for the L2 system."},"setRespectedGameType(uint32)":{"notice":"Sets the respected game type. Changing this value can alter the security properties of the system,         depending on the new game's behavior."},"superchainConfig()":{"notice":"Contract of the Superchain Config."},"systemConfig()":{"notice":"Contract of the SystemConfig."}},"events":{"DisputeGameBlacklisted(address)":{"notice":"Emitted when a dispute game is blacklisted by the Guardian."},"RespectedGameTypeSet(uint32,uint64)":{"notice":"Emitted when the Guardian changes the respected game type in the portal."},"TransactionDeposited(address,address,uint256,bytes)":{"notice":"Emitted when a transaction is deposited from L1 to L2.         The parameters of this event are read by the rollup node and used to derive deposit         transactions on L2."},"WithdrawalFinalized(bytes32,bool)":{"notice":"Emitted when a withdrawal transaction is finalized."},"WithdrawalProven(bytes32,address,address)":{"notice":"Emitted when a withdrawal transaction is proven."},"WithdrawalProvenExtension1(bytes32,address)":{"notice":"Emitted when a withdrawal transaction is proven. Exists as a separate event to allow for backwards         compatibility for tooling that observes the `WithdrawalProven` event."}},"errors":{"AlreadyFinalized()":[{"notice":"Error for when a withdrawal has already been finalized."}],"BadTarget()":[{"notice":"Error for when a deposit or withdrawal is to a bad target."}],"Blacklisted()":[{"notice":"Error for when a dispute game has been blacklisted."}],"CallPaused()":[{"notice":"Error for when a method cannot be called when paused. This could be renamed         to `Paused` in the future, but it collides with the `Paused` event."}],"ContentLengthMismatch()":[{"notice":"The length of the content must be greater than the RLP item length"}],"EmptyItem()":[{"notice":"The length of an RLP item must be greater than zero to be decodable"}],"GasEstimation()":[{"notice":"Error for special gas estimation."}],"InvalidDataRemainder()":[{"notice":"The RLP item has an invalid data remainder"}],"InvalidDisputeGame()":[{"notice":"Error for an invalid dispute game."}],"InvalidGameType()":[{"notice":"Error for invalid game type."}],"InvalidHeader()":[{"notice":"Invalid RLP header for RLP item"}],"InvalidMerkleProof()":[{"notice":"Error for an invalid merkle proof."}],"InvalidProof()":[{"notice":"Error for invalid proof."}],"LargeCalldata()":[{"notice":"Error for when a deposit has too much calldata."}],"LegacyGame()":[{"notice":"Error for when a game is a legacy game."}],"NonReentrant()":[{"notice":"Error for when a method is being reentered."}],"OutOfGas()":[{"notice":"Error returned when too much gas resource is consumed."}],"ProposalNotValidated()":[{"notice":"Error for when a proposal is not validated."}],"SmallGasLimit()":[{"notice":"Error for when a deposit has too small of a gas limit."}],"Unauthorized()":[{"notice":"Error for an unauthorized CALLER."}],"UnexpectedList()":[{"notice":"Decoded item type for bytes is not a string item"}],"UnexpectedString()":[{"notice":"The decoded item type for list is not a list item"}],"Unproven()":[{"notice":"Error for when trying to withdrawal without first proven."}]},"notice":"The OptimismPortal is a low-level contract responsible for passing messages between L1         and L2. Messages sent directly to the OptimismPortal have no form of replayability.         Users are encouraged to use the L1CrossDomainMessenger for a higher-level interface."},"devdoc":{"version":1,"kind":"dev","methods":{"blacklistDisputeGame(address)":{"params":{"_disputeGame":"Dispute game to blacklist."}},"checkWithdrawal(bytes32,address)":{"params":{"_proofSubmitter":"The submitter of the proof for the withdrawal hash","_withdrawalHash":"Hash of the withdrawal to check."}},"depositTransaction(address,uint256,uint64,bool,bytes)":{"params":{"_data":"Data to trigger the recipient with.","_gasLimit":"Amount of L2 gas to purchase by burning gas on L1.","_isCreation":"Whether or not the transaction is a contract creation.","_to":"Target address on L2.","_value":"ETH value to send to the recipient."}},"finalizeWithdrawalTransaction((uint256,address,address,uint256,uint256,bytes))":{"params":{"_tx":"Withdrawal transaction to finalize."}},"finalizeWithdrawalTransactionExternalProof((uint256,address,address,uint256,uint256,bytes),address)":{"params":{"_proofSubmitter":"Address of the proof submitter.","_tx":"Withdrawal transaction to finalize."}},"guardian()":{"returns":{"_0":"Address of the guardian."}},"initialize(address,address,address,uint32)":{"params":{"_disputeGameFactory":"Contract of the DisputeGameFactory.","_superchainConfig":"Contract of the SuperchainConfig.","_systemConfig":"Contract of the SystemConfig."}},"minimumGasLimit(uint64)":{"params":{"_byteCount":"Number of bytes in the calldata."},"returns":{"_0":"The minimum gas limit for a deposit."}},"numProofSubmitters(bytes32)":{"params":{"_withdrawalHash":"Hash of the withdrawal."},"returns":{"_0":"The number of proof submitters for the withdrawal hash."}},"proveWithdrawalTransaction((uint256,address,address,uint256,uint256,bytes),uint256,(bytes32,bytes32,bytes32,bytes32),bytes[])":{"params":{"_disputeGameIndex":"Index of the dispute game to prove the withdrawal against.","_outputRootProof":"Inclusion proof of the L2ToL1MessagePasser contract's storage root.","_tx":"Withdrawal transaction to finalize.","_withdrawalProof":"Inclusion proof of the withdrawal in L2ToL1MessagePasser contract."}},"setConfig(uint8,bytes)":{"params":{"_type":"Type of configuration to set.","_value":"Encoded value of the configuration."}},"setRespectedGameType(uint32)":{"params":{"_gameType":"The game type to consult for output proposals."}},"version()":{}},"title":"OptimismPortalInterop"},"id":207}