{"abi":[{"type":"function","name":"kevm","inputs":[],"outputs":[{"name":"","type":"address","internalType":"contract KontrolCheatsBase"}],"stateMutability":"view"},{"type":"function","name":"prove_finalizeBridgeERC721_paused","inputs":[{"name":"_localToken","type":"address","internalType":"address"},{"name":"_remoteToken","type":"address","internalType":"address"},{"name":"_from","type":"address","internalType":"address"},{"name":"_to","type":"address","internalType":"address"},{"name":"_amount","type":"uint256","internalType":"uint256"},{"name":"_extraData","type":"bytes","internalType":"bytes"}],"outputs":[],"stateMutability":"nonpayable"},{"type":"function","name":"setUpInlined","inputs":[],"outputs":[],"stateMutability":"nonpayable"}],"bytecode":{"object":"0x608060405234801561001057600080fd5b50610a11806100206000396000f3fe608060405234801561001057600080fd5b50600436106100415760003560e01c80638fe30c6914610046578063c32a614a146100a1578063d6a2ec76146100b4575b600080fd5b6002546005805473ffffffffffffffffffffffffffffffffffffffff9283167fffffffffffffffffffffffff00000000000000000000000000000000000000009182161790915560015460068054919093169116179055005b005b61009f6100af3660046107d2565b610104565b6100db7f885cb69240a935d632d79c317109709ecfa91a80626ff3989d68f67f5b1dd12d81565b60405173ffffffffffffffffffffffffffffffffffffffff909116815260200160405180910390f35b600254600580547fffffffffffffffffffffffff000000000000000000000000000000000000000090811673ffffffffffffffffffffffffffffffffffffffff938416179091556001546006805490921692169182179055604080517f452a93200000000000000000000000000000000000000000000000000000000081529051737109709ecfa91a80626ff3989d68f67f5b1dd12d9263ca669fa792909163452a9320916004808201926020929091908290030181865afa1580156101ce573d6000803e3d6000fd5b505050506040513d601f19601f820116820180604052508101906101f29190610899565b6040517fffffffff0000000000000000000000000000000000000000000000000000000060e084901b16815273ffffffffffffffffffffffffffffffffffffffff9091166004820152602401600060405180830381600087803b15801561025857600080fd5b505af115801561026c573d6000803e3d6000fd5b50506006546040517f6da6635500000000000000000000000000000000000000000000000000000000815260206004820152600a60248201527f6964656e74696669657200000000000000000000000000000000000000000000604482015273ffffffffffffffffffffffffffffffffffffffff9091169250636da663559150606401600060405180830381600087803b15801561030957600080fd5b505af115801561031d573d6000803e3d6000fd5b5050600554604080517f3cb747bf0000000000000000000000000000000000000000000000000000000081529051737109709ecfa91a80626ff3989d68f67f5b1dd12d945063b96213e4935073ffffffffffffffffffffffffffffffffffffffff90921691633cb747bf916004808201926020929091908290030181865afa1580156103ad573d6000803e3d6000fd5b505050506040513d601f19601f820116820180604052508101906103d19190610899565b604080516004808252602482018352602080830180517bffffffffffffffffffffffffffffffffffffffffffffffffffffffff167f6e296e450000000000000000000000000000000000000000000000000000000017905260055484517fc89701a20000000000000000000000000000000000000000000000000000000081529451939473ffffffffffffffffffffffffffffffffffffffff9091169363c89701a29382810193928290030181865afa158015610492573d6000803e3d6000fd5b505050506040513d601f19601f820116820180604052508101906104b69190610899565b6040805173ffffffffffffffffffffffffffffffffffffffff9092166020830152016040516020818303038152906040526040518463ffffffff1660e01b815260040161050593929190610928565b600060405180830381600087803b15801561051f57600080fd5b505af1158015610533573d6000803e3d6000fd5b5050600554604080517f3cb747bf0000000000000000000000000000000000000000000000000000000081529051737109709ecfa91a80626ff3989d68f67f5b1dd12d945063ca669fa7935073ffffffffffffffffffffffffffffffffffffffff90921691633cb747bf916004808201926020929091908290030181865afa1580156105c3573d6000803e3d6000fd5b505050506040513d601f19601f820116820180604052508101906105e79190610899565b6040517fffffffff0000000000000000000000000000000000000000000000000000000060e084901b16815273ffffffffffffffffffffffffffffffffffffffff9091166004820152602401600060405180830381600087803b15801561064d57600080fd5b505af1158015610661573d6000803e3d6000fd5b50506040517ff28dceb300000000000000000000000000000000000000000000000000000000815260206004820152601660248201527f4c314552433732314272696467653a20706175736564000000000000000000006044820152737109709ecfa91a80626ff3989d68f67f5b1dd12d925063f28dceb39150606401600060405180830381600087803b1580156106f857600080fd5b505af115801561070c573d6000803e3d6000fd5b50506005546040517f761f449300000000000000000000000000000000000000000000000000000000815273ffffffffffffffffffffffffffffffffffffffff909116925063761f44939150610772908a908a908a908a908a908a908a90600401610973565b600060405180830381600087803b15801561078c57600080fd5b505af11580156107a0573d6000803e3d6000fd5b5050505050505050505050565b73ffffffffffffffffffffffffffffffffffffffff811681146107cf57600080fd5b50565b600080600080600080600060c0888a0312156107ed57600080fd5b87356107f8816107ad565b96506020880135610808816107ad565b95506040880135610818816107ad565b94506060880135610828816107ad565b93506080880135925060a088013567ffffffffffffffff8082111561084c57600080fd5b818a0191508a601f83011261086057600080fd5b81358181111561086f57600080fd5b8b602082850101111561088157600080fd5b60208301945080935050505092959891949750929550565b6000602082840312156108ab57600080fd5b81516108b6816107ad565b9392505050565b6000815180845260005b818110156108e3576020818501810151868301820152016108c7565b818111156108f5576000602083870101525b50601f017fffffffffffffffffffffffffffffffffffffffffffffffffffffffffffffffe0169290920160200192915050565b73ffffffffffffffffffffffffffffffffffffffff8416815260606020820152600061095760608301856108bd565b828103604084015261096981856108bd565b9695505050505050565b600073ffffffffffffffffffffffffffffffffffffffff808a1683528089166020840152808816604084015280871660608401525084608083015260c060a08301528260c0830152828460e0840137600060e0848401015260e07fffffffffffffffffffffffffffffffffffffffffffffffffffffffffffffffe0601f85011683010190509897505050505050505056fea164736f6c634300080f000a","linkReferences":{}},"methodIdentifiers":{"kevm()":"d6a2ec76","prove_finalizeBridgeERC721_paused(address,address,address,address,uint256,bytes)":"c32a614a","setUpInlined()":"8fe30c69"},"storageLayout":{"storage":[{"astId":229788,"contract":"test/kontrol/proofs/L1ERC721Bridge.k.sol:L1ERC721BridgeKontrol","label":"l1CrossDomainMessengerProxyAddress","offset":0,"slot":"0","type":"t_address"},{"astId":229790,"contract":"test/kontrol/proofs/L1ERC721Bridge.k.sol:L1ERC721BridgeKontrol","label":"superchainConfigProxyAddress","offset":0,"slot":"1","type":"t_address"},{"astId":229792,"contract":"test/kontrol/proofs/L1ERC721Bridge.k.sol:L1ERC721BridgeKontrol","label":"l1ERC721BridgeProxyAddress","offset":0,"slot":"2","type":"t_address"},{"astId":229794,"contract":"test/kontrol/proofs/L1ERC721Bridge.k.sol:L1ERC721BridgeKontrol","label":"l1StandardBridgeProxyAddress","offset":0,"slot":"3","type":"t_address"},{"astId":229796,"contract":"test/kontrol/proofs/L1ERC721Bridge.k.sol:L1ERC721BridgeKontrol","label":"optimismPortalProxyAddress","offset":0,"slot":"4","type":"t_address"},{"astId":229051,"contract":"test/kontrol/proofs/L1ERC721Bridge.k.sol:L1ERC721BridgeKontrol","label":"l1ERC721Bridge","offset":0,"slot":"5","type":"t_contract(IL1ERC721Bridge)371"},{"astId":229054,"contract":"test/kontrol/proofs/L1ERC721Bridge.k.sol:L1ERC721BridgeKontrol","label":"superchainConfig","offset":0,"slot":"6","type":"t_contract(ISuperchainConfig)1836"}],"types":{"t_address":{"encoding":"inplace","label":"address","numberOfBytes":"20"},"t_contract(IL1ERC721Bridge)371":{"encoding":"inplace","label":"contract IL1ERC721Bridge","numberOfBytes":"20"},"t_contract(ISuperchainConfig)1836":{"encoding":"inplace","label":"contract ISuperchainConfig","numberOfBytes":"20"}}},"userdoc":{"version":1,"kind":"user"},"devdoc":{"version":1,"kind":"dev"},"id":378}