{"abi":[{"type":"constructor","inputs":[],"stateMutability":"nonpayable"},{"type":"function","name":"anchorGame","inputs":[],"outputs":[{"name":"","type":"address","internalType":"contract IFaultDisputeGame"}],"stateMutability":"view"},{"type":"function","name":"anchors","inputs":[{"name":"","type":"uint32","internalType":"GameType"}],"outputs":[{"name":"","type":"bytes32","internalType":"Hash"},{"name":"","type":"uint256","internalType":"uint256"}],"stateMutability":"view"},{"type":"function","name":"disputeGameFactory","inputs":[],"outputs":[{"name":"","type":"address","internalType":"contract IDisputeGameFactory"}],"stateMutability":"view"},{"type":"function","name":"getAnchorRoot","inputs":[],"outputs":[{"name":"","type":"bytes32","internalType":"Hash"},{"name":"","type":"uint256","internalType":"uint256"}],"stateMutability":"view"},{"type":"function","name":"initialize","inputs":[{"name":"_superchainConfig","type":"address","internalType":"contract ISuperchainConfig"},{"name":"_disputeGameFactory","type":"address","internalType":"contract IDisputeGameFactory"},{"name":"_portal","type":"address","internalType":"contract IOptimismPortal2"},{"name":"_startingAnchorRoot","type":"tuple","internalType":"struct OutputRoot","components":[{"name":"root","type":"bytes32","internalType":"Hash"},{"name":"l2BlockNumber","type":"uint256","internalType":"uint256"}]}],"outputs":[],"stateMutability":"nonpayable"},{"type":"function","name":"isGameAirgapped","inputs":[{"name":"_game","type":"address","internalType":"contract IDisputeGame"}],"outputs":[{"name":"","type":"bool","internalType":"bool"}],"stateMutability":"view"},{"type":"function","name":"isGameBlacklisted","inputs":[{"name":"_game","type":"address","internalType":"contract IDisputeGame"}],"outputs":[{"name":"","type":"bool","internalType":"bool"}],"stateMutability":"view"},{"type":"function","name":"isGameClaimValid","inputs":[{"name":"_game","type":"address","internalType":"contract IDisputeGame"}],"outputs":[{"name":"","type":"bool","internalType":"bool"}],"stateMutability":"view"},{"type":"function","name":"isGameFinalized","inputs":[{"name":"_game","type":"address","internalType":"contract IDisputeGame"}],"outputs":[{"name":"","type":"bool","internalType":"bool"}],"stateMutability":"view"},{"type":"function","name":"isGameProper","inputs":[{"name":"_game","type":"address","internalType":"contract IDisputeGame"}],"outputs":[{"name":"","type":"bool","internalType":"bool"}],"stateMutability":"view"},{"type":"function","name":"isGameRegistered","inputs":[{"name":"_game","type":"address","internalType":"contract IDisputeGame"}],"outputs":[{"name":"","type":"bool","internalType":"bool"}],"stateMutability":"view"},{"type":"function","name":"isGameResolved","inputs":[{"name":"_game","type":"address","internalType":"contract IDisputeGame"}],"outputs":[{"name":"","type":"bool","internalType":"bool"}],"stateMutability":"view"},{"type":"function","name":"isGameRespected","inputs":[{"name":"_game","type":"address","internalType":"contract IDisputeGame"}],"outputs":[{"name":"","type":"bool","internalType":"bool"}],"stateMutability":"view"},{"type":"function","name":"isGameRetired","inputs":[{"name":"_game","type":"address","internalType":"contract IDisputeGame"}],"outputs":[{"name":"","type":"bool","internalType":"bool"}],"stateMutability":"view"},{"type":"function","name":"portal","inputs":[],"outputs":[{"name":"","type":"address","internalType":"contract IOptimismPortal2"}],"stateMutability":"view"},{"type":"function","name":"respectedGameType","inputs":[],"outputs":[{"name":"","type":"uint32","internalType":"GameType"}],"stateMutability":"view"},{"type":"function","name":"setAnchorState","inputs":[{"name":"_game","type":"address","internalType":"contract IDisputeGame"}],"outputs":[],"stateMutability":"nonpayable"},{"type":"function","name":"superchainConfig","inputs":[],"outputs":[{"name":"","type":"address","internalType":"contract ISuperchainConfig"}],"stateMutability":"view"},{"type":"function","name":"version","inputs":[],"outputs":[{"name":"","type":"string","internalType":"string"}],"stateMutability":"view"},{"type":"event","name":"AnchorNotUpdated","inputs":[{"name":"game","type":"address","indexed":true,"internalType":"contract IFaultDisputeGame"}],"anonymous":false},{"type":"event","name":"AnchorUpdated","inputs":[{"name":"game","type":"address","indexed":true,"internalType":"contract IFaultDisputeGame"}],"anonymous":false},{"type":"event","name":"Initialized","inputs":[{"name":"version","type":"uint8","indexed":false,"internalType":"uint8"}],"anonymous":false},{"type":"error","name":"AnchorStateRegistry_AnchorGameBlacklisted","inputs":[]},{"type":"error","name":"AnchorStateRegistry_InvalidAnchorGame","inputs":[]},{"type":"error","name":"AnchorStateRegistry_Unauthorized","inputs":[]}],"bytecode":{"object":"0x608060405234801561001057600080fd5b5061001961001e565b6100de565b600054610100900460ff161561008a5760405162461bcd60e51b815260206004820152602760248201527f496e697469616c697a61626c653a20636f6e747261637420697320696e697469604482015266616c697a696e6760c81b606482015260840160405180910390fd5b60005460ff90811610156100dc576000805460ff191660ff9081179091556040519081527f7f26b83ff96e1f2b6a682f133852f6798a09c465da95921460cefb38474024989060200160405180910390a15b565b61156a806100ed6000396000f3fe608060405234801561001057600080fd5b50600436106101515760003560e01c806354fd4d50116100cd578063d83ef26711610081578063ee658e4511610066578063ee658e4514610339578063f2b4e6171461034c578063fdbb3dcf1461036c57600080fd5b8063d83ef26714610311578063e0a840eb1461031957600080fd5b80636425666b116100b25780636425666b146102b65780636c4f4467146102d65780637258a807146102e957600080fd5b806354fd4d501461025a5780635958a193146102a357600080fd5b806317cf21a91161012457806335e80ab31161010957806335e80ab3146101df5780633c9f397c1461022a578063496b9c161461024757600080fd5b806317cf21a9146101b957806334a346ea146101cc57600080fd5b80630314d2b31461015657806304e50fed1461017e578063060fa2161461019157806309480ccd146101a6575b600080fd5b6101696101643660046110f5565b61037f565b60405190151581526020015b60405180910390f35b61016961018c3660046110f5565b6103b3565b6101a461019f366004611197565b61042a565b005b6101696101b43660046110f5565b610655565b6101a46101c73660046110f5565b610783565b6101696101da3660046110f5565b6108ee565b6000546102059062010000900473ffffffffffffffffffffffffffffffffffffffff1681565b60405173ffffffffffffffffffffffffffffffffffffffff9091168152602001610175565b61023261095f565b60405163ffffffff9091168152602001610175565b6101696102553660046110f5565b6109f8565b6102966040518060400160405280600581526020017f322e322e3000000000000000000000000000000000000000000000000000000081525081565b60405161017591906112c9565b6101696102b13660046110f5565b610a3b565b6002546102059073ffffffffffffffffffffffffffffffffffffffff1681565b6101696102e43660046110f5565b610b39565b6102fc6102f73660046112ee565b610c2b565b60408051928352602083019190915201610175565b6102fc610c3f565b6003546102059073ffffffffffffffffffffffffffffffffffffffff1681565b6101696103473660046110f5565b610df7565b6001546102059073ffffffffffffffffffffffffffffffffffffffff1681565b61016961037a3660046110f5565b610f5b565b600061038a82610f5b565b61039657506000919050565b61039f82610655565b6103ab57506000919050565b506001919050565b60008173ffffffffffffffffffffffffffffffffffffffff1663250e69bd6040518163ffffffff1660e01b8152600401602060405180830381865afa158015610400573d6000803e3d6000fd5b505050506040513d601f19601f82011682018060405250810190610424919061130b565b92915050565b600054610100900460ff161580801561044a5750600054600160ff909116105b806104645750303b158015610464575060005460ff166001145b6104f4576040517f08c379a000000000000000000000000000000000000000000000000000000000815260206004820152602e60248201527f496e697469616c697a61626c653a20636f6e747261637420697320616c72656160448201527f647920696e697469616c697a6564000000000000000000000000000000000000606482015260840160405180910390fd5b600080547fffffffffffffffffffffffffffffffffffffffffffffffffffffffffffffff00166001179055801561055257600080547fffffffffffffffffffffffffffffffffffffffffffffffffffffffffffff00ff166101001790555b6000805473ffffffffffffffffffffffffffffffffffffffff80881662010000027fffffffffffffffffffff0000000000000000000000000000000000000000ffff90921691909117909155600180548683167fffffffffffffffffffffffff000000000000000000000000000000000000000091821617909155600280549286169290911691909117905581516004556020820151600555801561064e57600080547fffffffffffffffffffffffffffffffffffffffffffffffffffffffffffff00ff169055604051600181527f7f26b83ff96e1f2b6a682f133852f6798a09c465da95921460cefb38474024989060200160405180910390a15b5050505050565b600254604080517f952b2797000000000000000000000000000000000000000000000000000000008152905160009273ffffffffffffffffffffffffffffffffffffffff169163952b27979160048083019260209291908290030181865afa1580156106c5573d6000803e3d6000fd5b505050506040513d601f19601f820116820180604052508101906106e9919061132d565b6107688373ffffffffffffffffffffffffffffffffffffffff166319effeb46040518163ffffffff1660e01b8152600401602060405180830381865afa158015610737573d6000803e3d6000fd5b505050506040513d601f19601f8201168201806040525081019061075b919061135c565b67ffffffffffffffff1690565b61077c9067ffffffffffffffff1642611379565b1192915050565b80600061078f82610b39565b9050806107c8576040517f47ad367a00000000000000000000000000000000000000000000000000000000815260040160405180910390fd5b60006107d2610c3f565b915050808373ffffffffffffffffffffffffffffffffffffffff16638b85902b6040518163ffffffff1660e01b8152600401602060405180830381865afa158015610821573d6000803e3d6000fd5b505050506040513d601f19601f82011682018060405250810190610845919061132d565b1161087c576040517f47ad367a00000000000000000000000000000000000000000000000000000000815260040160405180910390fd5b600380547fffffffffffffffffffffffff00000000000000000000000000000000000000001673ffffffffffffffffffffffffffffffffffffffff85169081179091556040517f474f180d74ea8751955ee261c93ff8270411b180408d1014c49f552c92a4d11e90600090a250505050565b6002546040517f45884d3200000000000000000000000000000000000000000000000000000000815273ffffffffffffffffffffffffffffffffffffffff838116600483015260009216906345884d3290602401602060405180830381865afa158015610400573d6000803e3d6000fd5b600254604080517f3c9f397c000000000000000000000000000000000000000000000000000000008152905160009273ffffffffffffffffffffffffffffffffffffffff1691633c9f397c9160048083019260209291908290030181865afa1580156109cf573d6000803e3d6000fd5b505050506040513d601f19601f820116820180604052508101906109f391906113b7565b905090565b6000610a0382610df7565b610a0f57506000919050565b610a18826108ee565b15610a2557506000919050565b610a2e82610a3b565b156103ab57506000919050565b600254604080517f4fd0434c000000000000000000000000000000000000000000000000000000008152905160009273ffffffffffffffffffffffffffffffffffffffff1691634fd0434c9160048083019260209291908290030181865afa158015610aab573d6000803e3d6000fd5b505050506040513d601f19601f82011682018060405250810190610acf919061135c565b67ffffffffffffffff16610b278373ffffffffffffffffffffffffffffffffffffffff1663cf09e0d06040518163ffffffff1660e01b8152600401602060405180830381865afa158015610737573d6000803e3d6000fd5b67ffffffffffffffff16111592915050565b600080610b45836109f8565b905080610b555750600092915050565b6000610b60846103b3565b905080610b71575060009392505050565b6000610b7c8561037f565b905080610b8e57506000949350505050565b60028573ffffffffffffffffffffffffffffffffffffffff1663200d2ed26040518163ffffffff1660e01b8152600401602060405180830381865afa158015610bdb573d6000803e3d6000fd5b505050506040513d601f19601f82011682018060405250810190610bff9190611403565b6002811115610c1057610c106113d4565b14610c2057506000949350505050565b506001949350505050565b600080610c36610c3f565b91509150915091565b600354600090819073ffffffffffffffffffffffffffffffffffffffff16610c6d5750506004546005549091565b600354610c8f9073ffffffffffffffffffffffffffffffffffffffff166108ee565b15610cc6576040517fea5268e200000000000000000000000000000000000000000000000000000000815260040160405180910390fd5b600354604080517fbcef3b550000000000000000000000000000000000000000000000000000000081529051610d5e9273ffffffffffffffffffffffffffffffffffffffff169163bcef3b559160048083019260209291908290030181865afa158015610d37573d6000803e3d6000fd5b505050506040513d601f19601f82011682018060405250810190610d5b919061132d565b90565b600360009054906101000a900473ffffffffffffffffffffffffffffffffffffffff1673ffffffffffffffffffffffffffffffffffffffff16638b85902b6040518163ffffffff1660e01b8152600401602060405180830381865afa158015610dcb573d6000803e3d6000fd5b505050506040513d601f19601f82011682018060405250810190610def919061132d565b915091509091565b6000806000808473ffffffffffffffffffffffffffffffffffffffff1663fa24f7436040518163ffffffff1660e01b8152600401600060405180830381865afa158015610e48573d6000803e3d6000fd5b505050506040513d6000823e601f3d9081017fffffffffffffffffffffffffffffffffffffffffffffffffffffffffffffffe0168201604052610e8e9190810190611424565b6001546040517f5f0150cb000000000000000000000000000000000000000000000000000000008152939650919450925060009173ffffffffffffffffffffffffffffffffffffffff90911690635f0150cb90610ef3908790879087906004016114f5565b6040805180830381865afa158015610f0f573d6000803e3d6000fd5b505050506040513d601f19601f82011682018060405250810190610f339190611523565b5073ffffffffffffffffffffffffffffffffffffffff90811696169590951495945050505050565b6000610fab8273ffffffffffffffffffffffffffffffffffffffff166319effeb46040518163ffffffff1660e01b8152600401602060405180830381865afa158015610737573d6000803e3d6000fd5b67ffffffffffffffff1615801590610424575060028273ffffffffffffffffffffffffffffffffffffffff1663200d2ed26040518163ffffffff1660e01b8152600401602060405180830381865afa15801561100b573d6000803e3d6000fd5b505050506040513d601f19601f8201168201806040525081019061102f9190611403565b6002811115611040576110406113d4565b1480610424575060018273ffffffffffffffffffffffffffffffffffffffff1663200d2ed26040518163ffffffff1660e01b8152600401602060405180830381865afa158015611094573d6000803e3d6000fd5b505050506040513d601f19601f820116820180604052508101906110b89190611403565b60028111156110c9576110c96113d4565b1492915050565b73ffffffffffffffffffffffffffffffffffffffff811681146110f257600080fd5b50565b60006020828403121561110757600080fd5b8135611112816110d0565b9392505050565b7f4e487b7100000000000000000000000000000000000000000000000000000000600052604160045260246000fd5b604051601f82017fffffffffffffffffffffffffffffffffffffffffffffffffffffffffffffffe016810167ffffffffffffffff8111828210171561118f5761118f611119565b604052919050565b60008060008084860360a08112156111ae57600080fd5b85356111b9816110d0565b945060208601356111c9816110d0565b935060408601356111d9816110d0565b925060407fffffffffffffffffffffffffffffffffffffffffffffffffffffffffffffffa08201121561120b57600080fd5b506040516040810181811067ffffffffffffffff8211171561122f5761122f611119565b604052606086013581526080909501356020860152509194909350909190565b60005b8381101561126a578181015183820152602001611252565b83811115611279576000848401525b50505050565b6000815180845261129781602086016020860161124f565b601f017fffffffffffffffffffffffffffffffffffffffffffffffffffffffffffffffe0169290920160200192915050565b602081526000611112602083018461127f565b63ffffffff811681146110f257600080fd5b60006020828403121561130057600080fd5b8135611112816112dc565b60006020828403121561131d57600080fd5b8151801515811461111257600080fd5b60006020828403121561133f57600080fd5b5051919050565b67ffffffffffffffff811681146110f257600080fd5b60006020828403121561136e57600080fd5b815161111281611346565b6000828210156113b2577f4e487b7100000000000000000000000000000000000000000000000000000000600052601160045260246000fd5b500390565b6000602082840312156113c957600080fd5b8151611112816112dc565b7f4e487b7100000000000000000000000000000000000000000000000000000000600052602160045260246000fd5b60006020828403121561141557600080fd5b81516003811061111257600080fd5b60008060006060848603121561143957600080fd5b8351611444816112dc565b60208501516040860151919450925067ffffffffffffffff8082111561146957600080fd5b818601915086601f83011261147d57600080fd5b81518181111561148f5761148f611119565b6114c060207fffffffffffffffffffffffffffffffffffffffffffffffffffffffffffffffe0601f84011601611148565b91508082528760208285010111156114d757600080fd5b6114e881602084016020860161124f565b5080925050509250925092565b63ffffffff8416815282602082015260606040820152600061151a606083018461127f565b95945050505050565b6000806040838503121561153657600080fd5b8251611541816110d0565b602084015190925061155281611346565b80915050925092905056fea164736f6c634300080f000a","linkReferences":{}},"methodIdentifiers":{"anchorGame()":"e0a840eb","anchors(uint32)":"7258a807","disputeGameFactory()":"f2b4e617","getAnchorRoot()":"d83ef267","initialize(address,address,address,(bytes32,uint256))":"060fa216","isGameAirgapped(address)":"09480ccd","isGameBlacklisted(address)":"34a346ea","isGameClaimValid(address)":"6c4f4467","isGameFinalized(address)":"0314d2b3","isGameProper(address)":"496b9c16","isGameRegistered(address)":"ee658e45","isGameResolved(address)":"fdbb3dcf","isGameRespected(address)":"04e50fed","isGameRetired(address)":"5958a193","portal()":"6425666b","respectedGameType()":"3c9f397c","setAnchorState(address)":"17cf21a9","superchainConfig()":"35e80ab3","version()":"54fd4d50"},"storageLayout":{"storage":[{"astId":49406,"contract":"src/dispute/AnchorStateRegistry.sol:AnchorStateRegistry","label":"_initialized","offset":0,"slot":"0","type":"t_uint8"},{"astId":49409,"contract":"src/dispute/AnchorStateRegistry.sol:AnchorStateRegistry","label":"_initializing","offset":1,"slot":"0","type":"t_bool"},{"astId":117565,"contract":"src/dispute/AnchorStateRegistry.sol:AnchorStateRegistry","label":"superchainConfig","offset":2,"slot":"0","type":"t_contract(ISuperchainConfig)1836"},{"astId":117569,"contract":"src/dispute/AnchorStateRegistry.sol:AnchorStateRegistry","label":"disputeGameFactory","offset":0,"slot":"1","type":"t_contract(IDisputeGameFactory)5495"},{"astId":117573,"contract":"src/dispute/AnchorStateRegistry.sol:AnchorStateRegistry","label":"portal","offset":0,"slot":"2","type":"t_contract(IOptimismPortal2)1307"},{"astId":117577,"contract":"src/dispute/AnchorStateRegistry.sol:AnchorStateRegistry","label":"anchorGame","offset":0,"slot":"3","type":"t_contract(IFaultDisputeGame)5970"},{"astId":117581,"contract":"src/dispute/AnchorStateRegistry.sol:AnchorStateRegistry","label":"startingAnchorRoot","offset":0,"slot":"4","type":"t_struct(OutputRoot)119532_storage"}],"types":{"t_bool":{"encoding":"inplace","label":"bool","numberOfBytes":"1"},"t_contract(IDisputeGameFactory)5495":{"encoding":"inplace","label":"contract IDisputeGameFactory","numberOfBytes":"20"},"t_contract(IFaultDisputeGame)5970":{"encoding":"inplace","label":"contract IFaultDisputeGame","numberOfBytes":"20"},"t_contract(IOptimismPortal2)1307":{"encoding":"inplace","label":"contract IOptimismPortal2","numberOfBytes":"20"},"t_contract(ISuperchainConfig)1836":{"encoding":"inplace","label":"contract ISuperchainConfig","numberOfBytes":"20"},"t_struct(OutputRoot)119532_storage":{"encoding":"inplace","label":"struct OutputRoot","numberOfBytes":"64","members":[{"astId":119529,"contract":"src/dispute/AnchorStateRegistry.sol:AnchorStateRegistry","label":"root","offset":0,"slot":"0","type":"t_userDefinedValueType(Hash)119446"},{"astId":119531,"contract":"src/dispute/AnchorStateRegistry.sol:AnchorStateRegistry","label":"l2BlockNumber","offset":0,"slot":"1","type":"t_uint256"}]},"t_uint256":{"encoding":"inplace","label":"uint256","numberOfBytes":"32"},"t_uint8":{"encoding":"inplace","label":"uint8","numberOfBytes":"1"},"t_userDefinedValueType(Hash)119446":{"encoding":"inplace","label":"Hash","numberOfBytes":"32"}}},"userdoc":{"version":1,"kind":"user","methods":{"anchorGame()":{"notice":"The game whose claim is currently being used as the anchor state."},"constructor":{"notice":"Constructor to disable initializers."},"disputeGameFactory()":{"notice":"Address of the DisputeGameFactory contract."},"getAnchorRoot()":{"notice":"Returns the current anchor root."},"initialize(address,address,address,(bytes32,uint256))":{"notice":"Initializes the contract."},"isGameAirgapped(address)":{"notice":"Returns whether a game is beyond the airgap period."},"isGameBlacklisted(address)":{"notice":"Determines whether a game is blacklisted."},"isGameClaimValid(address)":{"notice":"Returns whether a game's root claim is valid."},"isGameFinalized(address)":{"notice":"Returns whether a game is finalized."},"isGameProper(address)":{"notice":"**READ THIS FUNCTION DOCUMENTATION CAREFULLY.**         Determines whether a game resolved properly and the game was not subject to any         invalidation conditions. The root claim of a proper game IS NOT guaranteed to be         valid. The root claim of a proper game CAN BE incorrect and still be a proper game.         DO NOT USE THIS FUNCTION ALONE TO DETERMINE IF A ROOT CLAIM IS VALID."},"isGameRegistered(address)":{"notice":"Determines whether a game is registered in the DisputeGameFactory."},"isGameResolved(address)":{"notice":"Returns whether a game is resolved."},"isGameRespected(address)":{"notice":"Determines whether a game is of a respected game type."},"isGameRetired(address)":{"notice":"Determines whether a game is retired."},"portal()":{"notice":"Address of the OptimismPortal contract."},"respectedGameType()":{"notice":"Returns the respected game type."},"setAnchorState(address)":{"notice":"Updates the anchor game."},"superchainConfig()":{"notice":"Address of the SuperchainConfig contract."},"version()":{"notice":"Semantic version."}},"events":{"AnchorNotUpdated(address)":{"notice":"Emitted when an anchor state is not updated."},"AnchorUpdated(address)":{"notice":"Emitted when an anchor state is updated."}},"errors":{"AnchorStateRegistry_AnchorGameBlacklisted()":[{"notice":"Thrown when the anchor root is requested, but the anchor game is blacklisted."}],"AnchorStateRegistry_InvalidAnchorGame()":[{"notice":"Thrown when an invalid anchor game is provided."}],"AnchorStateRegistry_Unauthorized()":[{"notice":"Thrown when an unauthorized caller attempts to set the anchor state."}]},"notice":"The AnchorStateRegistry is a contract that stores the latest \"anchor\" state for each available         FaultDisputeGame type. The anchor state is the latest state that has been proposed on L1 and was not         challenged within the challenge period. By using stored anchor states, new FaultDisputeGame instances can         be initialized with a more recent starting state which reduces the amount of required offchain computation."},"devdoc":{"version":1,"kind":"dev","methods":{"anchors(uint32)":{},"getAnchorRoot()":{"returns":{"_0":"The anchor root."}},"initialize(address,address,address,(bytes32,uint256))":{"params":{"_disputeGameFactory":"The address of the DisputeGameFactory contract.","_portal":"The address of the OptimismPortal contract.","_startingAnchorRoot":"The starting anchor root.","_superchainConfig":"The address of the SuperchainConfig contract."}},"isGameAirgapped(address)":{"params":{"_game":"The game to check."},"returns":{"_0":"Whether the game is beyond the airgap period."}},"isGameBlacklisted(address)":{"params":{"_game":"The game to check."},"returns":{"_0":"Whether the game is blacklisted."}},"isGameClaimValid(address)":{"params":{"_game":"The game to check."},"returns":{"_0":"Whether the game's root claim is valid."}},"isGameFinalized(address)":{"params":{"_game":"The game to check."},"returns":{"_0":"Whether the game is finalized."}},"isGameProper(address)":{"details":"Note that isGameProper previously checked that the game type was equal to the      respected game type. However, it should be noted that it is possible for a game other      than the respected game type to resolve without being invalidated. Since isGameProper      exists to determine if a game has (or has not) been invalidated, we now allow any game      type to be considered a proper game. We enforce checks on the game type in      isGameClaimValid().","params":{"_game":"The game to check."},"returns":{"_0":"Whether the game is a proper game."}},"isGameRegistered(address)":{"params":{"_game":"The game to check."},"returns":{"_0":"Whether the game is factory registered."}},"isGameResolved(address)":{"params":{"_game":"The game to check."},"returns":{"_0":"Whether the game is resolved."}},"isGameRespected(address)":{"params":{"_game":"The game to check."},"returns":{"_0":"Whether the game is of a respected game type."}},"isGameRetired(address)":{"params":{"_game":"The game to check."},"returns":{"_0":"Whether the game is retired."}},"respectedGameType()":{"returns":{"_0":"The respected game type."}},"setAnchorState(address)":{"params":{"_game":"New candidate anchor game."}}},"events":{"AnchorNotUpdated(address)":{"params":{"game":"Game that was not used as the new anchor game."}},"AnchorUpdated(address)":{"params":{"game":"Game that was used as the new anchor game."}}},"title":"AnchorStateRegistry"},"id":250}