{"abi":[{"type":"constructor","inputs":[{"name":"_oracle","type":"address","internalType":"contract IPreimageOracle"}],"stateMutability":"nonpayable"},{"type":"function","name":"oracle","inputs":[],"outputs":[{"name":"oracle_","type":"address","internalType":"contract IPreimageOracle"}],"stateMutability":"view"},{"type":"function","name":"step","inputs":[{"name":"_stateData","type":"bytes","internalType":"bytes"},{"name":"_proof","type":"bytes","internalType":"bytes"},{"name":"_localContext","type":"bytes32","internalType":"bytes32"}],"outputs":[{"name":"postState_","type":"bytes32","internalType":"bytes32"}],"stateMutability":"nonpayable"},{"type":"function","name":"version","inputs":[],"outputs":[{"name":"","type":"string","internalType":"string"}],"stateMutability":"view"},{"type":"error","name":"InvalidExitedValue","inputs":[]},{"type":"error","name":"InvalidMemoryProof","inputs":[]},{"type":"error","name":"InvalidPC","inputs":[]},{"type":"error","name":"InvalidRMWInstruction","inputs":[]},{"type":"error","name":"InvalidSecondMemoryProof","inputs":[]}],"bytecode":{"object":"0x60a06040523480156200001157600080fd5b5060405162004fb038038062004fb0833981016040819052620000349162000046565b6001600160a01b031660805262000078565b6000602082840312156200005957600080fd5b81516001600160a01b03811681146200007157600080fd5b9392505050565b608051614f166200009a6000396000818160b201526111f60152614f166000f3fe608060405234801561001057600080fd5b50600436106100415760003560e01c806354fd4d50146100465780637dc0d1d014610098578063e14ced32146100dc575b600080fd5b6100826040518060400160405280600c81526020017f312e302e302d626574612e32000000000000000000000000000000000000000081525081565b60405161008f9190614cc6565b60405180910390f35b60405173ffffffffffffffffffffffffffffffffffffffff7f000000000000000000000000000000000000000000000000000000000000000016815260200161008f565b6100ef6100ea366004614d7b565b6100fd565b60405190815260200161008f565b600061010c868686868661011f565b9050610116610647565b95945050505050565b604080516101e081018252600080825260208201819052918101829052606081018290526080810182905260a0810182905260c0810182905260e08101829052610100810182905261012081018290526101408101829052610160810182905261018081018290526101a081018290526101c0810182905261019f614c5c565b6000608083146101ae57600080fd5b61026082146101bc57600080fd5b604051610760146101cc57600080fd5b608489146101d957600080fd5b61016487146101e757600080fd5b508735608052602088013560a052604088013560c090811c81526048890135811c60e052605089013560f890811c6101005260518a0135821c6101205260598a0135821c6101405260618a0135811c6101605260628a0135811c61018081905260638b0135831c6101a052606b8b0135831c6101c05260738b013590911c6101e05260748a01356102005260948a01356102205260b48a013590911c6102405261029081610791565b826101000151156102ad576102a36107d5565b9350505050610116565b7fad3228b676f7d3cd4284a5443f17f1962b36e491b30a40b2405849e597ba5fb58361018001511480156102e45750826101600151155b8061032057507fad3228b676f7d3cd4284a5443f17f1962b36e491b30a40b2405849e597ba5fb5836101a0015114801561032057508261016001515b156103b1576040517f08c379a0000000000000000000000000000000000000000000000000000000008152602060048201526024808201527f4d49505336343a206163746976652074687265616420737461636b206973206560448201527f6d7074790000000000000000000000000000000000000000000000000000000060648201526084015b60405180910390fd5b6101208301805160010167ffffffffffffffff1690526103d0826108f5565b6103da8383610a19565b8160400151156103f5576103ed83610abd565b6102a36107d5565b620186a067ffffffffffffffff1683610140015167ffffffffffffffff161061042b576104228383610b48565b506102a36107d5565b6101408301805160010167ffffffffffffffff16905260006102ae905060008060006104608660600151886000015186610d26565b9250925092508163ffffffff16600014801561048257508063ffffffff16600c145b1561049e5761049089610dac565b975050505050505050610116565b63ffffffff8216603014806104b9575063ffffffff82166038145b156104ca5761049087878585611ed1565b63ffffffff8216603414806104e5575063ffffffff8216603c145b156104f65761049087878585611ed1565b6000610580876040805160808101825260008082526020820181905291810182905260608101919091526040518060800160405280836060015167ffffffffffffffff168152602001836080015167ffffffffffffffff1681526020018360a0015167ffffffffffffffff1681526020018360c0015167ffffffffffffffff168152509050919050565b6040805160e080820183528382528a015160208201528a5191810191909152610a2e606082015263ffffffff808716608083015285811660a0830152841660c08201529091506000806105d283612186565b918d52855167ffffffffffffffff9081166060808f01919091526020880151821660808f01526040880151821660a08f01528701511660c08d0152925090506106196126ef565b8115610629576106298b826127ac565b6106316107d5565b9b50505050505050505050505095945050505050565b604080516101e0808201835260008083526020830181905292820183905260608201839052608080830184905260a0830184905260c0830184905260e08301849052610100830184905261012083018490526101408301849052610160830184905261018083018490526101a083018490526101c0909201839052519091906106d5578161018001516106dc565b816101a001515b90507fad3228b676f7d3cd4284a5443f17f1962b36e491b30a40b2405849e597ba5fb5810361078d576040517f08c379a000000000000000000000000000000000000000000000000000000000815260206004820152602f60248201527f4d49505336343a20706f73742d7374617465206163746976652074687265616460448201527f20737461636b20697320656d707479000000000000000000000000000000000060648201526084016103a8565b5050565b60018163ffffffff1611156107d2576040517f0136cc7600000000000000000000000000000000000000000000000000000000815260040160405180910390fd5b50565b60408051608051815260a051602082015260d8519181019190915260f851604882015261011f5160508201526101385160518201526101585160598201526101605161017f5160618301526101805161019f5160628401526101b85160638401526101d851606b8401526101ff5160738401526102005160748401526102205160948401526102585160b4840152600060bc8085018281529194929361026093929183a060009350846001811461088f57600394506108b7565b8180156108a757600181146108b057600295506108b5565b600095506108b5565b600195505b505b505081900390207effffffffffffffffffffffffffffffffffffffffffffffffffffffffffffff1660f89190911b1791506108f181610791565b5090565b3661090461012a610164614e1e565b811015610993576040517f08c379a000000000000000000000000000000000000000000000000000000000815260206004820152603060248201527f4d49505336343a20696e73756666696369656e742063616c6c6461746120666f60448201527f7220746872656164207769746e6573730000000000000000000000000000000060648201526084016103a8565b6101643560c090811c835261016c3560f890811c602085015261016d35901c604084015261016e35811c606084015261017635811c608084015261017e35811c60a084015261018635811c9083015260e082015161018e9060005b6020811015610a1257823560c01c82526008909201916020909101906001016109ee565b5050505050565b6000610a2c610a266127e4565b83612897565b90506000836101600151610a4557836101800151610a4c565b836101a001515b9050818114610ab7576040517f08c379a000000000000000000000000000000000000000000000000000000000815260206004820152601e60248201527f4d49505336343a20696e76616c696420746872656164207769746e657373000060448201526064016103a8565b50505050565b80610160015115610adb57610ad06127e4565b6101a0820152610aea565b610ae36127e4565b6101808201525b6000816101600151610b0157816101800151610b08565b816101a001515b90507fad3228b676f7d3cd4284a5443f17f1962b36e491b30a40b2405849e597ba5fb58103610b3c57610160820180511590525b50600061014090910152565b600082610160015115610c0c577fad3228b676f7d3cd4284a5443f17f1962b36e491b30a40b2405849e597ba5fb5836101a0015103610be3576040517f08c379a000000000000000000000000000000000000000000000000000000000815260206004820181905260248201527f4d49505336343a20656d7074792072696768742074687265616420737461636b60448201526064016103a8565b610beb6127e4565b6101a0840152610180830151610c019083612897565b610180840152610cbf565b7fad3228b676f7d3cd4284a5443f17f1962b36e491b30a40b2405849e597ba5fb583610180015103610c9a576040517f08c379a000000000000000000000000000000000000000000000000000000000815260206004820152601f60248201527f4d49505336343a20656d707479206c6566742074687265616420737461636b0060448201526064016103a8565b610ca26127e4565b6101808401526101a0830151610cb89083612897565b6101a08401525b6000836101600151610cd657836101800151610cdd565b836101a001515b90507fad3228b676f7d3cd4284a5443f17f1962b36e491b30a40b2405849e597ba5fb58103610d155761016084018051159052600191505b506000610140909301929092525090565b600080806003861615610d65576040517f3f8200bc00000000000000000000000000000000000000000000000000000000815260040160405180910390fd5b6000610d7c8667fffffffffffffff88916876128d9565b9050610d8c87826004600061292b565b9350601a8463ffffffff16901c925083603f169150505b93509350939050565b604080516101e081018252600080825260208201819052918101829052606081018290526080810182905260a0810182905260c0810182905260e08101829052610100810182905261012081018290526101408101829052610160810182905261018081018290526101a081018290526101c08101829052610e2c614c5c565b608091506102609050600080600080610e488560e0015161297b565b935093509350935060008061139163ffffffff168667ffffffffffffffff1603610e9457610e7b85858a60600151612997565b67ffffffffffffffff1660608b01529092509050611dcb565b7fffffffffffffffffffffffffffffffffffffffffffffffffffffffffffffec6c67ffffffffffffffff871601610ed357654000000000009150611dcb565b7fffffffffffffffffffffffffffffffffffffffffffffffffffffffffffffec4167ffffffffffffffff87160161112a5762050f0067ffffffffffffffff861614610f3d576001610100890152600260e0890152610f2f6107d5565b9a9950505050505050505050565b50506101c08601516000610f4f614c5c565b6101c089015167ffffffffffffffff9081168252600060208301819052604083018190526080808b018051841660608601525160040183169084015260a0808b015183169084015260c0808b0151909216918301919091525b6020811015610ffe578860e001518160208110610fc757610fc7614e36565b60200201518260e001518260208110610fe257610fe2614e36565b67ffffffffffffffff9092166020929092020152600101610fa8565b5060e0818101805167ffffffffffffffff8881166103a09092019190915281516000604091820181905292519093018290526101c08c018051600101821690528251608080820185528382526020808301859052828601859052606092830185905285518083018752838f015185168152918e015184169082015260a08d015183169481019490945260c08c0151909116908301529060e0808b015167ffffffffffffffff80881660408301528087169190920152602082018051808316845260040190911690529050805167ffffffffffffffff9081166060808c01919091526020830151821660808c01526040830151821660a08c01528201511660c08a01526111086126ef565b6111128a83612a49565b61111a6107d5565b9c9b505050505050505050505050565b7fffffffffffffffffffffffffffffffffffffffffffffffffffffffffffffebab67ffffffffffffffff87160161117c57600161010089015260ff851660e08901526111746126ef565b610f2f6107d5565b7fffffffffffffffffffffffffffffffffffffffffffffffffffffffffffffec7867ffffffffffffffff87160161125657604080516101208101825267ffffffffffffffff8781168252868116602080840191909152868216838501528b01516060830152918a0151909116608082015260a081018b90527f000000000000000000000000000000000000000000000000000000000000000073ffffffffffffffffffffffffffffffffffffffff1660c0820152610a2e60e0820152885161010082015261124a8982612a8f565b9093509150611dcb9050565b7fffffffffffffffffffffffffffffffffffffffffffffffffffffffffffffec7767ffffffffffffffff8716016112fe576040805160e08101825267ffffffffffffffff8781168252868116602080840191909152868216838501528b01516060830152918a01519091166080820152610a2e60a0820152885160c08201526112de81612ad5565b67ffffffffffffffff1660408d015260208c01529093509150611dcb9050565b7fffffffffffffffffffffffffffffffffffffffffffffffffffffffffffffec3267ffffffffffffffff871601611343576113398585612c21565b9092509050611dcb565b7fffffffffffffffffffffffffffffffffffffffffffffffffffffffffffffebc667ffffffffffffffff87160161137f57505084516000611dcb565b7fffffffffffffffffffffffffffffffffffffffffffffffffffffffffffffec3e67ffffffffffffffff8716016113e8576001604088015260ff851660208801526113c988612da8565b156113e057600161010089015260ff851660e08901525b6111746126ef565b7fffffffffffffffffffffffffffffffffffffffffffffffffffffffffffffebb667ffffffffffffffff8716016115095767fffffffffffffffc85167fffffffffffffffffffffffffffffffffffffffffffffffffffffffffffffff8067ffffffffffffffff8616016114a957600061146082612e2b565b90508463ffffffff808316908216146114875767ffffffffffffffff9450600b93506114a2565b6114918b8b612eb5565b9d9c50505050505050505050505050565b5050611503565b7fffffffffffffffffffffffffffffffffffffffffffffffffffffffffffffff7f67ffffffffffffffff8616016114f3576114e48989612eb5565b9b9a5050505050505050505050565b67ffffffffffffffff9250601691505b50611dcb565b67ffffffffffffffff861661139f148061152e575067ffffffffffffffff86166113aa145b1561153d57610f2f8888612eb5565b7fffffffffffffffffffffffffffffffffffffffffffffffffffffffffffffec7667ffffffffffffffff871601611581575067ffffffffffffffff90506009611dcb565b7fffffffffffffffffffffffffffffffffffffffffffffffffffffffffffffeb9a67ffffffffffffffff87160161171f5767ffffffffffffffff851615806115d3575067ffffffffffffffff85166001145b1561170c5750600090508080807fffffffffffffffffffffffffffffffffffffffffffffffffffffffffffffffff67ffffffffffffffff8816016116335750506101208801516298968067ffffffffffffffff9091168181049190066064025b895167fffffffffffffff887169061164e9082610a2e612fcb565b611684576040517f8e77b2b700000000000000000000000000000000000000000000000000000000815260040160405180910390fd5b61169181610a2e85612fd8565b8b5261169d8b826127ac565b8a516116af90600883016111ae612fcb565b6116e5576040517f834c4cd400000000000000000000000000000000000000000000000000000000815260040160405180910390fd5b6116f5600882016111ae84612fd8565b8b526117048b600883016127ac565b505050611dcb565b5067ffffffffffffffff90506016611dcb565b7fffffffffffffffffffffffffffffffffffffffffffffffffffffffffffffec5267ffffffffffffffff87160161175b57506000905080611dcb565b7fffffffffffffffffffffffffffffffffffffffffffffffffffffffffffffec6d67ffffffffffffffff87160115611dcb577fffffffffffffffffffffffffffffffffffffffffffffffffffffffffffffebb467ffffffffffffffff87160115611dcb577fffffffffffffffffffffffffffffffffffffffffffffffffffffffffffffec5d67ffffffffffffffff87160115611dcb577fffffffffffffffffffffffffffffffffffffffffffffffffffffffffffffec6a67ffffffffffffffff87160115611dcb577fffffffffffffffffffffffffffffffffffffffffffffffffffffffffffffebf767ffffffffffffffff87160115611dcb577fffffffffffffffffffffffffffffffffffffffffffffffffffffffffffffec6b67ffffffffffffffff87160115611dcb577fffffffffffffffffffffffffffffffffffffffffffffffffffffffffffffeb4f67ffffffffffffffff87160115611dcb577fffffffffffffffffffffffffffffffffffffffffffffffffffffffffffffec7567ffffffffffffffff87160115611dcb577fffffffffffffffffffffffffffffffffffffffffffffffffffffffffffffec6867ffffffffffffffff87160115611dcb577fffffffffffffffffffffffffffffffffffffffffffffffffffffffffffffec7467ffffffffffffffff87160115611dcb577fffffffffffffffffffffffffffffffffffffffffffffffffffffffffffffec7367ffffffffffffffff87160115611dcb577fffffffffffffffffffffffffffffffffffffffffffffffffffffffffffffeb8167ffffffffffffffff87160115611dcb577fffffffffffffffffffffffffffffffffffffffffffffffffffffffffffffec2167ffffffffffffffff87160115611dcb577fffffffffffffffffffffffffffffffffffffffffffffffffffffffffffffeb7767ffffffffffffffff87160115611dcb577fffffffffffffffffffffffffffffffffffffffffffffffffffffffffffffec6967ffffffffffffffff87160115611dcb577fffffffffffffffffffffffffffffffffffffffffffffffffffffffffffffeb5b67ffffffffffffffff87160115611dcb577fffffffffffffffffffffffffffffffffffffffffffffffffffffffffffffeb5967ffffffffffffffff87160115611dcb577fffffffffffffffffffffffffffffffffffffffffffffffffffffffffffffeba867ffffffffffffffff87160115611dcb577fffffffffffffffffffffffffffffffffffffffffffffffffffffffffffffeb6867ffffffffffffffff87160115611dcb577fffffffffffffffffffffffffffffffffffffffffffffffffffffffffffffeb3f67ffffffffffffffff87160115611dcb577fffffffffffffffffffffffffffffffffffffffffffffffffffffffffffffec3b67ffffffffffffffff87160115611dcb577fffffffffffffffffffffffffffffffffffffffffffffffffffffffffffffec1467ffffffffffffffff87160115611dcb577fffffffffffffffffffffffffffffffffffffffffffffffffffffffffffffec1267ffffffffffffffff87160115611dcb577fffffffffffffffffffffffffffffffffffffffffffffffffffffffffffffec5e67ffffffffffffffff87160115611dcb577fffffffffffffffffffffffffffffffffffffffffffffffffffffffffffffeb9767ffffffffffffffff87160115611dcb577fffffffffffffffffffffffffffffffffffffffffffffffffffffffffffffec5467ffffffffffffffff87160115611dcb577fffffffffffffffffffffffffffffffffffffffffffffffffffffffffffffeba067ffffffffffffffff87160115611dcb577fffffffffffffffffffffffffffffffffffffffffffffffffffffffffffffeb9f67ffffffffffffffff87160115611dcb577fffffffffffffffffffffffffffffffffffffffffffffffffffffffffffffeb9c67ffffffffffffffff87160115611dcb577fffffffffffffffffffffffffffffffffffffffffffffffffffffffffffffec1967ffffffffffffffff87160115611dcb577fffffffffffffffffffffffffffffffffffffffffffffffffffffffffffffec7067ffffffffffffffff87160115611dcb576040517f08c379a000000000000000000000000000000000000000000000000000000000815260206004820152601d60248201527f4d49505336343a20756e696d706c656d656e7465642073797363616c6c00000060448201526064016103a8565b6000611e55886040805160808101825260008082526020820181905291810182905260608101919091526040518060800160405280836060015167ffffffffffffffff168152602001836080015167ffffffffffffffff1681526020018360a0015167ffffffffffffffff1681526020018360c0015167ffffffffffffffff168152509050919050565b60e0808a015167ffffffffffffffff80871660408301528086169190920152602082018051808316845260040190911690529050805167ffffffffffffffff9081166060808b01919091526020830151821660808b01526040830151821660a08b01528201511660c0890152611ec96126ef565b6114e46107d5565b60e08301516000908190601f601586901c1660208110611ef357611ef3614e36565b60200201519050601f601085901c166000611f0d866130a7565b830190506001600463ffffffff871660341480611f30575063ffffffff8716603c145b15611f3d57506002905060085b885160009063ffffffff891660301480611f5d575063ffffffff89166034145b15611f9757611f6f8c868560016130be565b60ff851660808e015267ffffffffffffffff80871660a08f0152821660c08e0152915061209a565b63ffffffff891660381480611fb2575063ffffffff8916603c145b15612068578360ff168c6080015160ff16148015611fe757508067ffffffffffffffff168c60c0015167ffffffffffffffff16145b801561200a57508467ffffffffffffffff168c60a0015167ffffffffffffffff16145b1561205f57600060808d0181905260a08d0181905260c08d015260008b60e001518763ffffffff166020811061204257612042614e36565b602002015190506120558d878684613110565b600192505061209a565b6000915061209a565b6040517fecf79d0d00000000000000000000000000000000000000000000000000000000815260040160405180910390fd5b60006121248c6040805160808101825260008082526020820181905291810182905260608101919091526040518060800160405280836060015167ffffffffffffffff168152602001836080015167ffffffffffffffff1681526020018360a0015167ffffffffffffffff1681526020018360c0015167ffffffffffffffff168152509050919050565b905061213e818d60e001518963ffffffff1686600161316a565b805167ffffffffffffffff9081166060808f01919091526020830151821660808f01526040830151821660a08f01528201511660c08d015261217e6126ef565b6114916107d5565b604081015160a0820151600090819063ffffffff16600214806121b357508360a0015163ffffffff166003145b1561222057608084015160009060021b630ffffffc166121d863f0000000602061324e565b8660000151602001511617905061221a856000015186602001518760a0015163ffffffff1660021461220b57601f61220e565b60005b63ffffffff16846132c8565b506126e8565b60808401516020808601516000928392601f601083901c8116939260151c1690811061224e5761224e614e36565b6020020151925060008190508760a0015163ffffffff166027148061227d57508760a0015163ffffffff16601a145b8061229257508760a0015163ffffffff16601b145b156122c65787602001518267ffffffffffffffff16602081106122b7576122b7614e36565b60200201519250819050612403565b60a088015163ffffffff1615806122e757508760a0015163ffffffff16601c145b156123265787602001518267ffffffffffffffff166020811061230c5761230c614e36565b60200201516080890151909350600b1c601f169050612403565b60208860a0015163ffffffff16101561239a578760a0015163ffffffff16600c148061235c57508760a0015163ffffffff16600d145b8061237157508760a0015163ffffffff16600e145b1561238657608088015161ffff169250612403565b61239388608001516130a7565b9250612403565b60288860a0015163ffffffff161015806123be57508760a0015163ffffffff166022145b806123d357508760a0015163ffffffff166026145b156124035787602001518267ffffffffffffffff16602081106123f8576123f8614e36565b602002015192508190505b60048860a0015163ffffffff1610158015612428575060088860a0015163ffffffff16105b8061243d57508760a0015163ffffffff166001145b1561246957612460886000015189602001518a60a001518b6080015186896133ae565b505050506126e8565b600067ffffffffffffffff9050600060208a60a0015163ffffffff1610158061249c575060a08a015163ffffffff16601a145b806124b1575060a08a015163ffffffff16601b145b15612519576124c38a608001516130a7565b86019550600067fffffffffffffff8871690506124e98b60400151828d606001516128d9565b915060288b60a0015163ffffffff1610612517578a60a0015163ffffffff1660371461251757809250600093505b505b600067ffffffffffffffff61253e8c608001518d60a001518e60c001518b8b88613621565b60a08d01519116915060209063ffffffff16158015612568575060088c60c0015163ffffffff1610155b801561258757508067ffffffffffffffff168c60c0015163ffffffff16105b1561269f578b60c0015163ffffffff16600814806125af57508b60c0015163ffffffff166009145b156125ef576125e28c600001518d602001518e60c0015163ffffffff166008146125d957876125dc565b60005b8b6132c8565b50505050505050506126e8565b8b60c0015163ffffffff16600a03612620578b5160208d01516125e29190878b67ffffffffffffffff8c161561316a565b8b60c0015163ffffffff16600b03612652578b5160208d01516125e29190878b67ffffffffffffffff8c16151561316a565b60108c60c0015163ffffffff161015801561268057508067ffffffffffffffff168c60c0015163ffffffff16105b1561269f576125e28c600001518d602001518e60c001518b8b8a614138565b67ffffffffffffffff848116146126c9576126bf848d6060015184612fd8565b9a50600199508398505b6126df8c600001518d602001518785600161316a565b50505050505050505b9193909250565b604080516101e081018252600080825260208201819052918101829052606081018290526080810182905260a0810182905260c0810182905260e08101829052610100810182905261012081018290526101408101829052610160810182905261018081018290526101a081018290526101c0810191909152612770614c5c565b50608090506102606000612785610a266127e4565b90508261016001511561279f576101a08301819052505050565b6101808301819052505050565b60a082015167fffffffffffffff81667ffffffffffffffff82160361078d5760006080830181905260a0830181905260c08301525050565b61028e35366127f661012a6020614e94565b6128089063ffffffff16610164614e1e565b8110156108f1576040517f08c379a000000000000000000000000000000000000000000000000000000000815260206004820152603060248201527f4d49505336343a20696e73756666696369656e742063616c6c6461746120666f60448201527f7220746872656164207769746e6573730000000000000000000000000000000060648201526084016103a8565b6000806128a383614712565b60408051602081018790529081018290529091506060016040516020818303038152906040528051906020012091505092915050565b6000806128e785858561479b565b909250905080612923576040517f8e77b2b700000000000000000000000000000000000000000000000000000000815260040160405180910390fd5b509392505050565b60008060008061293b8887614873565b925092509250828267ffffffffffffffff168867ffffffffffffffff16901c16935084156129705761296d848261324e565b93505b505050949350505050565b6040810151608082015160a083015160c08401515b9193509193565b6000808284610fff8116156129b157610fff811661100003015b8667ffffffffffffffff16600003612a3b57849350908101906560000000000067ffffffffffffffff831611806129fb57508467ffffffffffffffff168267ffffffffffffffff16105b80612a1957508567ffffffffffffffff168167ffffffffffffffff16105b15612a36575067ffffffffffffffff925060169150839050610da3565b612a3f565b8693505b5093509350939050565b81610160015115612a6e57612a63826101a0015182612897565b6101a0830152610b3c565b612a7d82610180015182612897565b61018083015250600061014090910152565b600080600080612a9e856148f7565b918b5267ffffffffffffffff90921660408b0152929650909450925090508115612acc57612acc86826127ac565b50509250929050565b6060810151608082015182516000928392909167ffffffffffffffff1660011480612b0b5750845167ffffffffffffffff166002145b80612b215750845167ffffffffffffffff166004145b15612b325784604001519350612990565b845167ffffffffffffffff167ffffffffffffffffffffffffffffffffffffffffffffffffffffffffffffffffa01612c0c576000612b878660c0015167fffffffffffffff88860200151168860a001516128d9565b60608701516020880151604089015192935090916007821660080381811015612bae578091505b67ffffffffffffffff821660408b018190529850600880830294851b600190951b7fffffffffffffffffffffffffffffffffffffffffffffffffffffffffffffffff0192909103029390931c92909216179250600091506129909050565b67ffffffffffffffff95600995509193509150565b60008067ffffffffffffffff8316600103612ce15767ffffffffffffffff84161580612c57575067ffffffffffffffff84166001145b80612c6c575067ffffffffffffffff84166002145b80612c81575067ffffffffffffffff84166005145b80612c96575067ffffffffffffffff84166003145b80612cab575067ffffffffffffffff84166006145b80612cc0575067ffffffffffffffff84166004145b15612cce5760009150612da1565b5067ffffffffffffffff90506009612da1565b8267ffffffffffffffff16600303612d925767ffffffffffffffff84161580612d14575067ffffffffffffffff84166005145b80612d29575067ffffffffffffffff84166003145b15612d375760009150612da1565b67ffffffffffffffff841660011480612d5a575067ffffffffffffffff84166002145b80612d6f575067ffffffffffffffff84166006145b80612d84575067ffffffffffffffff84166004145b15612cce5760019150612da1565b5067ffffffffffffffff905060165b9250929050565b600080826101600151612dc057826101a00151612dc7565b8261018001515b905060007fad3228b676f7d3cd4284a5443f17f1962b36e491b30a40b2405849e597ba5fb5612df46127e4565b1490507fad3228b676f7d3cd4284a5443f17f1962b36e491b30a40b2405849e597ba5fb582148015612e235750805b949350505050565b604080516101e081018252600080825260208201819052918101829052606081018290526080810182905260a0810182905260c0810182905260e08101829052610100810182905261012081018290526101408101829052610160810182905261018081018290526101a081018290526101c081018290525060806000612e2382856004846130be565b6000808080612f42856040805160808101825260008082526020820181905291810182905260608101919091526040518060800160405280836060015167ffffffffffffffff168152602001836080015167ffffffffffffffff1681526020018360a0015167ffffffffffffffff1681526020018360c0015167ffffffffffffffff168152509050919050565b60e08087015167ffffffffffffffff80871660408301528086169190920152602082018051808316845260040190911690529050805167ffffffffffffffff9081166060808801919091526020830151821660808801526040830151821660a08801528201511660c0860152612fb88686610b48565b50612fc16107d5565b9695505050505050565b600061011684848461479b565b6000612fe383614b8f565b6007841615613017576040517fe6c4247b000000000000000000000000000000000000000000000000000000008152600481fd5b6020830192601f851660180360031b83811b913567ffffffffffffffff90911b191617600585901c603b60005b8181101561309b5760208701963583821c600116801561306b576001811461308057613091565b60008681526020839052604090209550613091565b600082815260208790526040902095505b5050600101613044565b50919695505050505050565b60006130b861ffff8316601061324e565b92915050565b600067fffffffffffffff88416816130ef6130dd61012a610164614e1e565b6130e8906020614e1e565b6107800190565b90506000613102886000015184846128d9565b905061296d8782888861292b565b67fffffffffffffff88316600061312e6130dd61012a610164614e1e565b90506000613141876000015184846128d9565b9050600061315187838888614c24565b905061315e848483612fd8565b90975250505050505050565b60208367ffffffffffffffff16106131de576040517f08c379a000000000000000000000000000000000000000000000000000000000815260206004820152601660248201527f4d49505336343a2076616c69642072656769737465720000000000000000000060448201526064016103a8565b67ffffffffffffffff8316158015906131f45750805b1561322b5781848467ffffffffffffffff166020811061321657613216614e36565b67ffffffffffffffff90921660209290920201525b5050505060208101805167ffffffffffffffff8082169093526004019091169052565b6000600167ffffffffffffffff8481167fffffffffffffffffffffffffffffffffffffffffffffffffffffffffffffffff85810183169190911c83161515926040869003831681901b820192861692831b921b01826132ae5760006132b0565b815b90861667ffffffffffffffff16179250505092915050565b836000015160040167ffffffffffffffff16846020015167ffffffffffffffff1614613350576040517f08c379a000000000000000000000000000000000000000000000000000000000815260206004820152601a60248201527f4d49505336343a206a756d7020696e2064656c617920736c6f7400000000000060448201526064016103a8565b835160208501805167ffffffffffffffff9081168752838116909152831615610a125780600801848467ffffffffffffffff166020811061339357613393614e36565b67ffffffffffffffff90921660209290920201525050505050565b6000866000015160040167ffffffffffffffff16876020015167ffffffffffffffff1614613438576040517f08c379a000000000000000000000000000000000000000000000000000000000815260206004820152601c60248201527f4d49505336343a206272616e636820696e2064656c617920736c6f740000000060448201526064016103a8565b8463ffffffff166004148061345357508463ffffffff166005145b156134de576000868467ffffffffffffffff166020811061347657613476614e36565b602002015190508067ffffffffffffffff168367ffffffffffffffff161480156134a657508563ffffffff166004145b806134d657508067ffffffffffffffff168367ffffffffffffffff16141580156134d657508563ffffffff166005145b9150506135b8565b8463ffffffff166006036134fb5760008260070b131590506135b8565b8463ffffffff166007036135175760008260070b1390506135b8565b8463ffffffff166001036135b857601f601085901c1660008190036135405760008360070b1291505b8063ffffffff1660100361356e57875160080167ffffffffffffffff166103e08801526000600784900b1291505b8063ffffffff166001036135875760008360070b121591505b8063ffffffff166011036135b657875160080167ffffffffffffffff166103e08801526000600784900b121591505b505b8651602088015167ffffffffffffffff16885281156136015760026135e261ffff8716601061324e565b67ffffffffffffffff90811690911b8201600401166020890152613617565b60208801805160040167ffffffffffffffff1690525b5050505050505050565b600063ffffffff8616158061364e575060088663ffffffff161015801561364e5750600f8663ffffffff16105b8061365f57508563ffffffff166018145b8061367057508563ffffffff166019145b15613ce05785600881146136c357600981146136cc57600a81146136d557600b81146136de57600c81146136e757600d81146136f057600e81146136f95760188114613702576019811461370b57613710565b60209550613710565b60219550613710565b602a9550613710565b602b9550613710565b60249550613710565b60259550613710565b60269550613710565b602c9550613710565b602d95505b508463ffffffff1660000361374c57601f600688901c1661374467ffffffffffffffff8516821b63ffffffff16602061324e565b915050612fc1565b8463ffffffff1660020361377b5761377463ffffffff8416601f60068a901c161c602061324e565b9050612fc1565b8463ffffffff166003036137aa57601f600688901c1661374463ffffffff858116831c9060208490031661324e565b8463ffffffff166004036137d957601f841661374467ffffffffffffffff8516821b63ffffffff16602061324e565b8463ffffffff166006036137fd5761377463ffffffff8416601f86161c602061324e565b8463ffffffff1660070361382557601f841661374463ffffffff8516821c602083900361324e565b8463ffffffff1660080361383a575082612fc1565b8463ffffffff1660090361384f575082612fc1565b8463ffffffff16600a03613864575082612fc1565b8463ffffffff16600b03613879575082612fc1565b8463ffffffff16600c0361388e575082612fc1565b8463ffffffff16600f036138a3575082612fc1565b8463ffffffff166010036138b8575082612fc1565b8463ffffffff166011036138cd575082612fc1565b8463ffffffff166012036138e2575082612fc1565b8463ffffffff166013036138f7575082612fc1565b8463ffffffff1660140361390c575081612fc1565b8463ffffffff16601603613921575081612fc1565b8463ffffffff16601703613936575081612fc1565b8463ffffffff1660180361394b575082612fc1565b8463ffffffff16601903613960575082612fc1565b8463ffffffff16601a03613975575082612fc1565b8463ffffffff16601b0361398a575082612fc1565b8463ffffffff16601c0361399f575082612fc1565b8463ffffffff16601d036139b4575082612fc1565b8463ffffffff16601e036139c9575082612fc1565b8463ffffffff16601f036139de575082612fc1565b8463ffffffff166020036139ff5761377483850163ffffffff16602061324e565b8463ffffffff16602103613a205761377483850163ffffffff16602061324e565b8463ffffffff16602203613a415761377483850363ffffffff16602061324e565b8463ffffffff16602303613a625761377483850363ffffffff16602061324e565b8463ffffffff16602403613a795750828216612fc1565b8463ffffffff16602503613a905750828217612fc1565b8463ffffffff16602603613aa75750828218612fc1565b8463ffffffff16602703613abf575082821719612fc1565b8463ffffffff16602a03613aee578260070b8460070b12613ae1576000613ae4565b60015b60ff169050612fc1565b8463ffffffff16602b03613b1e578267ffffffffffffffff168467ffffffffffffffff1610613ae1576000613ae4565b8463ffffffff16602c03613b355750828201612fc1565b8463ffffffff16602d03613b4c5750828201612fc1565b8463ffffffff16602e03613b635750818303612fc1565b8463ffffffff16602f03613b7a5750818303612fc1565b8463ffffffff16603803613ba2575067ffffffffffffffff8216601f600688901c161b612fc1565b8463ffffffff16603a03613bca575067ffffffffffffffff8216601f600688901c161c612fc1565b8463ffffffff16603b03613bec5750600782900b601f600688901c161d612fc1565b8463ffffffff16603c03613c1d575067ffffffffffffffff82166020601f600689901c160163ffffffff161b612fc1565b8463ffffffff16603e03613c4e575067ffffffffffffffff82166020601f600689901c160163ffffffff161c612fc1565b8463ffffffff16603f03613c795750600782900b6020601f600689901c160163ffffffff161d612fc1565b6040517f08c379a000000000000000000000000000000000000000000000000000000000815260206004820152601b60248201527f4d49505336343a20696e76616c696420696e737472756374696f6e000000000060448201526064016103a8565b613c79565b8563ffffffff16601c03613d74578463ffffffff16600203613d0f5761377483850263ffffffff16602061324e565b8463ffffffff1660201480613d2a57508463ffffffff166021145b15613cdb578463ffffffff16602003613d41579219925b60005b6380000000851615613d67576801fffffffffffffffe600195861b169401613d44565b63ffffffff169050612fc1565b8563ffffffff16600f03613d9b5761377460108467ffffffffffffffff16901b602061324e565b8563ffffffff16602003613db657613774848360018061292b565b8563ffffffff16602103613dd25761377484836002600161292b565b8563ffffffff16602203613e2d576000613df085846004600061292b565b905063ffffffff80821660086003881602821690811b919081901b811690613e239082198816811690841617602061324e565b9350505050612fc1565b8563ffffffff16602303613e495761377484836004600161292b565b8563ffffffff16602403613e655761377484836001600061292b565b8563ffffffff16602503613e815761377484836002600061292b565b8563ffffffff16602603613f02576000613e9f85846004600061292b565b905063ffffffff80821660038781166008810260180367ffffffffffffffff1692831c939283901c92831989168517169103613eeb57613ee081602061324e565b945050505050612fc1565b67ffffffff000000008716179350612fc192505050565b8563ffffffff16602803613f1d576137748483600186614c24565b8563ffffffff16602903613f38576137748483600286614c24565b8563ffffffff16602a03613f84575063ffffffff6018600385901b90811682811c67ffffffffffffffff9081166020938416909303811692831b19851693861690911c16901b17612fc1565b8563ffffffff16602b03613f9f576137748483600486614c24565b8563ffffffff16602e03613fff576000613fbd85846004600061292b565b905067ffffffffffffffff848116600860038816026018039182161b9063ffffffff90811681901b81169081198416811690831617613ee08887600484614c24565b8563ffffffff16601a03614030575067ffffffffffffffff6038600385901b1681811b198416918316901b17612fc1565b8563ffffffff16601b0361406e575067ffffffffffffffff60086038600386901b8116918201831683901b8516848416929091039092161c17612fc1565b8563ffffffff166027036140a3575067ffffffffffffffff8181166020600386901b811690039091161c63ffffffff16612fc1565b8563ffffffff16602c036140d4575067ffffffffffffffff6038600385901b1681811c198316918416901c17612fc1565b8563ffffffff16602d0361410a575067ffffffffffffffff6038600385901b81169003811681811b198316918416901b17612fc1565b8563ffffffff1660370361411f575080612fc1565b8563ffffffff16603f03613c7957509095945050505050565b60008463ffffffff16601003614153575060608601516146aa565b8463ffffffff166011036141765767ffffffffffffffff841660608801526146aa565b8463ffffffff1660120361418f575060408601516146aa565b8463ffffffff166013036141b25767ffffffffffffffff841660408801526146aa565b8463ffffffff1660180361421b5760008360030b8560030b0290506141e660208267ffffffffffffffff16901c602061324e565b67ffffffffffffffff16606089015261420663ffffffff8216602061324e565b67ffffffffffffffff166040890152506146aa565b8463ffffffff166019036142555760008363ffffffff168563ffffffff160290506141e660208267ffffffffffffffff16901c602061324e565b8463ffffffff16601a03614343578263ffffffff166000036142d3576040517f08c379a000000000000000000000000000000000000000000000000000000000815260206004820152601860248201527f4d49505336343a206469766973696f6e206279207a65726f000000000000000060448201526064016103a8565b6142f98360030b8560030b816142eb576142eb614e65565b0763ffffffff16602061324e565b67ffffffffffffffff16606088015261432f600384810b9086900b8161432157614321614e65565b0563ffffffff16602061324e565b67ffffffffffffffff1660408801526146aa565b8463ffffffff16601b03614425578263ffffffff166000036143c1576040517f08c379a000000000000000000000000000000000000000000000000000000000815260206004820152601860248201527f4d49505336343a206469766973696f6e206279207a65726f000000000000000060448201526064016103a8565b6143ed8363ffffffff168563ffffffff16816143df576143df614e65565b0663ffffffff16602061324e565b67ffffffffffffffff16606088015261432f63ffffffff8085169086168161441757614417614e65565b0463ffffffff16602061324e565b8463ffffffff16601403614449575067ffffffffffffffff8216603f84161b6146aa565b8463ffffffff1660160361446d575067ffffffffffffffff8216603f84161c6146aa565b8463ffffffff1660170361448b5750600782900b603f84161d6146aa565b8463ffffffff16601c036144c85767ffffffffffffffff600785810b9085900b02600f81900b604090811d831660608b01529116908801526146aa565b8463ffffffff16601d036144fd5767ffffffffffffffff84811681851602604081811c831660608b01529116908801526146aa565b8463ffffffff16601e036145cf578267ffffffffffffffff1660000361457f576040517f08c379a000000000000000000000000000000000000000000000000000000000815260206004820152601860248201527f4d49505336343a206469766973696f6e206279207a65726f000000000000000060448201526064016103a8565b8260070b8460070b8161459457614594614e65565b0767ffffffffffffffff166060880152600783810b9085900b816145ba576145ba614e65565b0567ffffffffffffffff1660408801526146aa565b8463ffffffff16601f036146aa578267ffffffffffffffff16600003614651576040517f08c379a000000000000000000000000000000000000000000000000000000000815260206004820152601860248201527f4d49505336343a206469766973696f6e206279207a65726f000000000000000060448201526064016103a8565b8267ffffffffffffffff168467ffffffffffffffff168161467457614674614e65565b0667ffffffffffffffff90811660608901528381169085168161469957614699614e65565b0467ffffffffffffffff1660408801525b67ffffffffffffffff8216156146ec5780868367ffffffffffffffff16602081106146d7576146d7614e36565b67ffffffffffffffff90921660209290920201525b50505060208401805167ffffffffffffffff808216909652600401909416909352505050565b60405160188201518152603f8201516008820152605f82015160098201526078820151600a8201526098820151601282015260b8820151601a82015260d8820151602282015260e0820151600091602a8101835b602081101561478a5760188401518252602090930192600890910190600101614766565b506000815281900390209392505050565b6000806147a783614b8f565b60078416156147db576040517fe6c4247b000000000000000000000000000000000000000000000000000000008152600481fd5b602083019235600585901c81603b60005b818110156148435760208801973584821c6001168015614813576001811461482857614839565b60008581526020839052604090209450614839565b600082815260208690526040902094505b50506001016147ec565b50508714925050811561486a57601f851660180360031b81901c67ffffffffffffffff1692505b50935093915050565b600080806807fffffffffffffff8600385901b1681614893826040614ebc565b67ffffffffffffffff9081161c905060006148af600188614ebc565b198816600716905060006148c4886008614ebc565b9050888216600060036148d78385614ebc565b959c67ffffffffffffffff909616901b9a50949850929650505050505050565b610100810151608082015182516000928392918390819067ffffffffffffffff1615614b8657865167ffffffffffffffff167ffffffffffffffffffffffffffffffffffffffffffffffffffffffffffffffffb01614b3857600067fffffffffffffff888602001511690506000614978896101000151838b60e001516128d9565b60608a015190915060001a6001036149fa576149f489606001518a60a0015160408051600093845233602052918152606090922091527effffffffffffffffffffffffffffffffffffffffffffffffffffffffffffff167f01000000000000000000000000000000000000000000000000000000000000001790565b60608a01525b6000808a60c0015173ffffffffffffffffffffffffffffffffffffffff1663e03110e18c606001518d608001516040518363ffffffff1660e01b8152600401614a5792919091825267ffffffffffffffff16602082015260400190565b6040805180830381865afa158015614a73573d6000803e3d6000fd5b505050506040513d601f19601f82011682018060405250810190614a979190614ee5565b60208d015160408e01519294509092509060078216600881900384811015614abd578094505b5083821015614aca578193505b8460088502610100031c9450846008828660080303021b9450600180600883600803021b036001806008878560080303021b03915081198116905085811988161796505050614b1e868e60e0015187612fd8565b929b50505096890196955060019450919250614b86915050565b865167ffffffffffffffff167ffffffffffffffffffffffffffffffffffffffffffffffffffffffffffffffffd01614b765786604001519550614b86565b67ffffffffffffffff9550600994505b91939550919395565b36610780820181101561078d576040517f08c379a000000000000000000000000000000000000000000000000000000000815260206004820152603160248201527f4d49505336344d656d6f72793a20636865636b2074686174207468657265206960448201527f7320656e6f7567682063616c6c6461746100000000000000000000000000000060648201526084016103a8565b6000806000614c338786614873565b5067ffffffffffffffff868316811691811691821b9216901b1987161792505050949350505050565b6040805161010081018252600080825260208201819052918101829052606081018290526080810182905260a0810182905260c081019190915260e08101614ca2614ca7565b905290565b6040518061040001604052806020906020820280368337509192915050565b600060208083528351808285015260005b81811015614cf357858101830151858201604001528201614cd7565b81811115614d05576000604083870101525b50601f017fffffffffffffffffffffffffffffffffffffffffffffffffffffffffffffffe016929092016040019392505050565b60008083601f840112614d4b57600080fd5b50813567ffffffffffffffff811115614d6357600080fd5b602083019150836020828501011115612da157600080fd5b600080600080600060608688031215614d9357600080fd5b853567ffffffffffffffff80821115614dab57600080fd5b614db789838a01614d39565b90975095506020880135915080821115614dd057600080fd5b50614ddd88828901614d39565b96999598509660400135949350505050565b7f4e487b7100000000000000000000000000000000000000000000000000000000600052601160045260246000fd5b60008219821115614e3157614e31614def565b500190565b7f4e487b7100000000000000000000000000000000000000000000000000000000600052603260045260246000fd5b7f4e487b7100000000000000000000000000000000000000000000000000000000600052601260045260246000fd5b600063ffffffff808316818516808303821115614eb357614eb3614def565b01949350505050565b600067ffffffffffffffff83811690831681811015614edd57614edd614def565b039392505050565b60008060408385031215614ef857600080fd5b50508051602090910151909290915056fea164736f6c634300080f000a","linkReferences":{}},"methodIdentifiers":{"oracle()":"7dc0d1d0","step(bytes,bytes,bytes32)":"e14ced32","version()":"54fd4d50"},"storageLayout":{"storage":[],"types":{}},"userdoc":{"version":1,"kind":"user","methods":{"oracle()":{"notice":"Getter for the pre-image oracle contract."},"step(bytes,bytes,bytes32)":{"notice":"Executes a single step of the multi-threaded vm.         Will revert if any required input state is missing."},"version()":{"notice":"The semantic version of the MIPS64 contract."}},"errors":{"InvalidExitedValue()":[{"notice":"Thrown when the value of the exited boolean is not 0 or 1."}],"InvalidMemoryProof()":[{"notice":"Thrown when reading an invalid memory"}],"InvalidRMWInstruction()":[{"notice":"Thrown when an RMW instruction is expected, but a different instruction is provided."}],"InvalidSecondMemoryProof()":[{"notice":"Thrown when the second memory location is invalid"}]},"notice":"The MIPS64 contract emulates a single MIPS instruction.         It differs from MIPS.sol in that it supports MIPS64 instructions and multi-tasking."},"devdoc":{"version":1,"kind":"dev","methods":{"constructor":{"params":{"_oracle":"The address of the preimage oracle contract."}},"oracle()":{"returns":{"oracle_":"The IPreimageOracle contract."}},"step(bytes,bytes,bytes32)":{"params":{"_localContext":"The local key context for the preimage oracle. Optional, can be set as a constant                      if the caller only requires one set of local keys.","_proof":"The encoded proof data: <<thread_context, inner_root>, <memory proof>.               Contains the thread context witness and the memory proof data for leaves within the MIPS VM's memory.               The thread context witness is a packed tuple of the thread context and the immediate inner root of the current thread stack.","_stateData":"The encoded state witness data."},"returns":{"postState_":"The hash of the post state witness after the state transition."}}},"title":"MIPS64"},"id":236}