{"abi":[{"type":"function","name":"deploy","inputs":[{"name":"_remoteToken","type":"address","internalType":"address"},{"name":"_name","type":"string","internalType":"string"},{"name":"_symbol","type":"string","internalType":"string"},{"name":"_decimals","type":"uint8","internalType":"uint8"}],"outputs":[{"name":"superchainERC20_","type":"address","internalType":"address"}],"stateMutability":"nonpayable"},{"type":"function","name":"deployments","inputs":[{"name":"_localToken","type":"address","internalType":"address"}],"outputs":[{"name":"remoteToken_","type":"address","internalType":"address"}],"stateMutability":"view"},{"type":"function","name":"version","inputs":[],"outputs":[{"name":"","type":"string","internalType":"string"}],"stateMutability":"view"},{"type":"event","name":"OptimismSuperchainERC20Created","inputs":[{"name":"superchainToken","type":"address","indexed":true,"internalType":"address"},{"name":"remoteToken","type":"address","indexed":true,"internalType":"address"},{"name":"deployer","type":"address","indexed":false,"internalType":"address"}],"anonymous":false}],"bytecode":{"object":"0x6080604052348015600e575f80fd5b50610e8f8061001c5f395ff3fe608060405234801561000f575f80fd5b506004361061003f575f3560e01c8063316b37391461004357806354fd4d50146100a2578063ef26a315146100eb575b5f80fd5b610078610051366004610681565b5f6020819052908152604090205473ffffffffffffffffffffffffffffffffffffffff1681565b60405173ffffffffffffffffffffffffffffffffffffffff90911681526020015b60405180910390f35b6100de6040518060400160405280600c81526020017f312e302e302d626574612e36000000000000000000000000000000000000000081525081565b60405161009991906106e6565b6100786100f93660046107cc565b5f80858585856040516024016101129493929190610853565b604080517fffffffffffffffffffffffffffffffffffffffffffffffffffffffffffffffe0818403018152918152602080830180517bffffffffffffffffffffffffffffffffffffffffffffffffffffffff167ff6d2ee860000000000000000000000000000000000000000000000000000000017905290519192505f919061019c90820161064c565b7fffffffffffffffffffffffffffffffffffffffffffffffffffffffffffffffe082820381018352601f9091011660408190526101f3907342000000000000000000000000000000000000279085906020016108a8565b604080517fffffffffffffffffffffffffffffffffffffffffffffffffffffffffffffffe08184030181529082905261022f92916020016108f5565b60405160208183030381529060405290505f878787876040516020016102589493929190610853565b60405160208183030381529060405280519060200120905061027b81835f610310565b73ffffffffffffffffffffffffffffffffffffffff8181165f818152602081815260409182902080547fffffffffffffffffffffffff000000000000000000000000000000000000000016948e1694851790559051338152939750919290917fc4dc49b8346732c19a032264daf2bebf08be752a393ea2a8519cd1953ef4d932910160405180910390a3505050949350505050565b5f806040518060400160405280601081526020017f67363d3d37363d34f03d5260086018f30000000000000000000000000000000081525090505f858251602084015ff5905073ffffffffffffffffffffffffffffffffffffffff81166103d8576040517f08c379a000000000000000000000000000000000000000000000000000000000815260206004820152601160248201527f4445504c4f594d454e545f4641494c454400000000000000000000000000000060448201526064015b60405180910390fd5b6103e1866104e0565b92505f8173ffffffffffffffffffffffffffffffffffffffff16858760405161040a9190610909565b5f6040518083038185875af1925050503d805f8114610444576040519150601f19603f3d011682016040523d82523d5f602084013e610449565b606091505b50509050808015610470575073ffffffffffffffffffffffffffffffffffffffff84163b15155b6104d6576040517f08c379a000000000000000000000000000000000000000000000000000000000815260206004820152601560248201527f494e495449414c495a4154494f4e5f4641494c4544000000000000000000000060448201526064016103cf565b5050509392505050565b604080518082018252601081527f67363d3d37363d34f03d5260086018f30000000000000000000000000000000060209182015290517fff00000000000000000000000000000000000000000000000000000000000000918101919091527fffffffffffffffffffffffffffffffffffffffff0000000000000000000000003060601b166021820152603581018290527f21c35dbe1b344a2488cf3321d6ce542f8e9f305544ff09e4993a62319a497c1f60558201525f9081906105bb906075015b6040516020818303038152906040528051906020012090565b6040517fd69400000000000000000000000000000000000000000000000000000000000060208201527fffffffffffffffffffffffffffffffffffffffff000000000000000000000000606083901b1660228201527f01000000000000000000000000000000000000000000000000000000000000006036820152909150610645906037016105a2565b9392505050565b61056e8061091583390190565b803573ffffffffffffffffffffffffffffffffffffffff8116811461067c575f80fd5b919050565b5f60208284031215610691575f80fd5b61064582610659565b5f81518084528060208401602086015e5f6020828601015260207fffffffffffffffffffffffffffffffffffffffffffffffffffffffffffffffe0601f83011685010191505092915050565b602081525f610645602083018461069a565b7f4e487b71000000000000000000000000000000000000000000000000000000005f52604160045260245ffd5b5f82601f830112610734575f80fd5b813567ffffffffffffffff8082111561074f5761074f6106f8565b604051601f83017fffffffffffffffffffffffffffffffffffffffffffffffffffffffffffffffe0908116603f01168101908282118183101715610795576107956106f8565b816040528381528660208588010111156107ad575f80fd5b836020870160208301375f602085830101528094505050505092915050565b5f805f80608085870312156107df575f80fd5b6107e885610659565b9350602085013567ffffffffffffffff80821115610804575f80fd5b61081088838901610725565b94506040870135915080821115610825575f80fd5b5061083287828801610725565b925050606085013560ff81168114610848575f80fd5b939692955090935050565b73ffffffffffffffffffffffffffffffffffffffff85168152608060208201525f610881608083018661069a565b8281036040840152610893818661069a565b91505060ff8316606083015295945050505050565b73ffffffffffffffffffffffffffffffffffffffff83168152604060208201525f6108d6604083018461069a565b949350505050565b5f81518060208401855e5f93019283525090919050565b5f6108d661090383866108de565b846108de565b5f61064582846108de56fe60a060405260405161056e38038061056e83398101604081905261002291610354565b61002c828261003e565b506001600160a01b031660805261043f565b610047826100fb565b6040516001600160a01b038316907f1cf3b03a6cf19fa2baba4df148e9dcabedea7f8a5c07840e207e5c089be95d3e905f90a28051156100ef576100ea826001600160a01b0316635c60da1b6040518163ffffffff1660e01b8152600401602060405180830381865afa1580156100c0573d5f803e3d5ffd5b505050506040513d601f19601f820116820180604052508101906100e49190610410565b82610209565b505050565b6100f761027c565b5050565b806001600160a01b03163b5f0361013557604051631933b43b60e21b81526001600160a01b03821660048201526024015b60405180910390fd5b807fa3f0ad74e5423aebfd80d3ef4346578335a9a72aeaee59ff6cb3582b35133d5080546001600160a01b0319166001600160a01b0392831617905560408051635c60da1b60e01b815290515f92841691635c60da1b9160048083019260209291908290030181865afa1580156101ae573d5f803e3d5ffd5b505050506040513d601f19601f820116820180604052508101906101d29190610410565b9050806001600160a01b03163b5f036100f757604051634c9c8ce360e01b81526001600160a01b038216600482015260240161012c565b60605f80846001600160a01b0316846040516102259190610429565b5f60405180830381855af49150503d805f811461025d576040519150601f19603f3d011682016040523d82523d5f602084013e610262565b606091505b50909250905061027385838361029d565b95945050505050565b341561029b5760405163b398979f60e01b815260040160405180910390fd5b565b6060826102b2576102ad826102fc565b6102f5565b81511580156102c957506001600160a01b0384163b155b156102f257604051639996b31560e01b81526001600160a01b038516600482015260240161012c565b50805b9392505050565b80511561030c5780518082602001fd5b604051630a12f52160e11b815260040160405180910390fd5b80516001600160a01b038116811461033b575f80fd5b919050565b634e487b7160e01b5f52604160045260245ffd5b5f8060408385031215610365575f80fd5b61036e83610325565b60208401519092506001600160401b038082111561038a575f80fd5b818501915085601f83011261039d575f80fd5b8151818111156103af576103af610340565b604051601f8201601f19908116603f011681019083821181831017156103d7576103d7610340565b816040528281528860208487010111156103ef575f80fd5b8260208601602083015e5f6020848301015280955050505050509250929050565b5f60208284031215610420575f80fd5b6102f582610325565b5f82518060208501845e5f920191825250919050565b6080516101186104565f395f602301526101185ff3fe608060405261000c61000e565b005b61001e610019610020565b6100b3565b565b5f7f000000000000000000000000000000000000000000000000000000000000000073ffffffffffffffffffffffffffffffffffffffff16635c60da1b6040518163ffffffff1660e01b8152600401602060405180830381865afa15801561008a573d5f803e3d5ffd5b505050506040513d601f19601f820116820180604052508101906100ae91906100d1565b905090565b365f80375f80365f845af43d5f803e8080156100cd573d5ff35b3d5ffd5b5f602082840312156100e1575f80fd5b815173ffffffffffffffffffffffffffffffffffffffff81168114610104575f80fd5b939250505056fea164736f6c6343000819000aa164736f6c6343000819000a","linkReferences":{}},"methodIdentifiers":{"deploy(address,string,string,uint8)":"ef26a315","deployments(address)":"316b3739","version()":"54fd4d50"},"storageLayout":{"storage":[{"astId":55985,"contract":"src/L2/OptimismSuperchainERC20Factory.sol:OptimismSuperchainERC20Factory","label":"deployments","offset":0,"slot":"0","type":"t_mapping(t_address,t_address)"}],"types":{"t_address":{"encoding":"inplace","label":"address","numberOfBytes":"20"},"t_mapping(t_address,t_address)":{"encoding":"mapping","key":"t_address","label":"mapping(address => address)","numberOfBytes":"32","value":"t_address"}}},"userdoc":{"version":1,"kind":"user","methods":{"deploy(address,string,string,uint8)":{"notice":"Deploys a OptimismSuperchainERC20 Beacon Proxy using CREATE3."},"deployments(address)":{"notice":"Mapping of the deployed OptimismSuperchainERC20 to the remote token address.         This is used to keep track of the token deployments."},"version()":{"notice":"Semantic version."}},"events":{"OptimismSuperchainERC20Created(address,address,address)":{"notice":"Emitted when an OptimismSuperchainERC20 is deployed."}},"notice":"OptimismSuperchainERC20Factory is a factory contract that deploys OptimismSuperchainERC20 Beacon Proxies         using CREATE3."},"devdoc":{"version":1,"kind":"dev","methods":{"deploy(address,string,string,uint8)":{"params":{"_decimals":"Decimals of the OptimismSuperchainERC20.","_name":"Name of the OptimismSuperchainERC20.","_remoteToken":"Address of the remote token.","_symbol":"Symbol of the OptimismSuperchainERC20."},"returns":{"superchainERC20_":"Address of the OptimismSuperchainERC20 deployment."}}},"events":{"OptimismSuperchainERC20Created(address,address,address)":{"params":{"deployer":"Address of the account that deployed the token.","remoteToken":"Address of the corresponding token on the remote chain.","superchainToken":"Address of the OptimismSuperchainERC20 deployment."}}},"title":"OptimismSuperchainERC20Factory"},"id":97}