{"abi":[{"type":"constructor","inputs":[{"name":"_gameProxy","type":"address","internalType":"contract IFaultDisputeGame"},{"name":"_l2Outputs","type":"uint256[]","internalType":"uint256[]"},{"name":"_trace","type":"bytes","internalType":"bytes"},{"name":"_preStateData","type":"bytes","internalType":"bytes"}],"stateMutability":"nonpayable"},{"type":"fallback","stateMutability":"payable"},{"type":"receive","stateMutability":"payable"},{"type":"function","name":"GAME","inputs":[],"outputs":[{"name":"","type":"address","internalType":"contract IFaultDisputeGame"}],"stateMutability":"view"},{"type":"function","name":"move","inputs":[],"outputs":[{"name":"numMoves_","type":"uint256","internalType":"uint256"},{"name":"success_","type":"bool","internalType":"bool"}],"stateMutability":"nonpayable"},{"type":"function","name":"solver","inputs":[],"outputs":[{"name":"","type":"address","internalType":"contract GameSolver"}],"stateMutability":"view"}],"bytecode":{"object":"0x60a06040523480156200001157600080fd5b5060405162002d6538038062002d658339810160408190526200003491620001ad565b6001600160a01b03841660805260405184908490849084906200005790620000af565b620000669493929190620002fc565b604051809103906000f08015801562000083573d6000803e3d6000fd5b50600080546001600160a01b0319166001600160a01b0392909216919091179055506200038092505050565b6122fc8062000a6983390190565b634e487b7160e01b600052604160045260246000fd5b604051601f8201601f191681016001600160401b0381118282101715620000fe57620000fe620000bd565b604052919050565b60005b838110156200012357818101518382015260200162000109565b8381111562000133576000848401525b50505050565b600082601f8301126200014b57600080fd5b81516001600160401b03811115620001675762000167620000bd565b6200017c601f8201601f1916602001620000d3565b8181528460208386010111156200019257600080fd5b620001a582602083016020870162000106565b949350505050565b60008060008060808587031215620001c457600080fd5b84516001600160a01b0381168114620001dc57600080fd5b602086810151919550906001600160401b0380821115620001fc57600080fd5b818801915088601f8301126200021157600080fd5b815181811115620002265762000226620000bd565b8060051b62000237858201620000d3565b918252838101850191858101908c8411156200025257600080fd5b948601945b83861015620002725785518252948601949086019062000257565b60408c01519099509550505050808311156200028d57600080fd5b6200029b89848a0162000139565b94506060880151925080831115620002b257600080fd5b5050620002c28782880162000139565b91505092959194509250565b60008151808452620002e881602086016020860162000106565b601f01601f19169290920160200192915050565b6001600160a01b0385168152608060208083018290528551918301829052600091868201919060a0850190845b81811015620003475784518352938301939183019160010162000329565b505084810360408601526200035d8188620002ce565b925050508281036060840152620003758185620002ce565b979650505050505050565b6080516106c0620003a96000396000818160500152818161025201526102ca01526106c06000f3fe6080604052600436106100355760003560e01c806327730d121461003e5780633ec48a2e1461009c57806349a7a26d146100c657005b3661003c57005b005b34801561004a57600080fd5b506100727f000000000000000000000000000000000000000000000000000000000000000081565b60405173ffffffffffffffffffffffffffffffffffffffff90911681526020015b60405180910390f35b3480156100a857600080fd5b506100b16100f3565b60408051928352901515602083015201610093565b3480156100d257600080fd5b506000546100729073ffffffffffffffffffffffffffffffffffffffff1681565b60008060008060009054906101000a900473ffffffffffffffffffffffffffffffffffffffff1673ffffffffffffffffffffffffffffffffffffffff16632bb191836040518163ffffffff1660e01b81526004016000604051808303816000875af1158015610166573d6000803e3d6000fd5b505050506040513d6000823e601f3d9081017fffffffffffffffffffffffffffffffffffffffffffffffffffffffffffffffe01682016040526101ac9190810190610451565b9050805192506001915060005b81518110156103745760008282815181106101d6576101d66105da565b60200260200101519050600260038111156101f3576101f3610609565b8151600381111561020657610206610609565b036102c65760208101516024808201516040517ff8f43ff600000000000000000000000000000000000000000000000000000000815260048082015291820181905260006044830152907f000000000000000000000000000000000000000000000000000000000000000073ffffffffffffffffffffffffffffffffffffffff169063f8f43ff690606401600060405180830381600087803b1580156102ab57600080fd5b505af11580156102bf573d6000803e3d6000fd5b5050505050505b60007f000000000000000000000000000000000000000000000000000000000000000073ffffffffffffffffffffffffffffffffffffffff16826040015183602001516040516103169190610638565b60006040518083038185875af1925050503d8060008114610353576040519150601f19603f3d011682016040523d82523d6000602084013e610358565b606091505b505094909416935081905061036c81610654565b9150506101b9565b50509091565b7f4e487b7100000000000000000000000000000000000000000000000000000000600052604160045260246000fd5b6040516060810167ffffffffffffffff811182821017156103cc576103cc61037a565b60405290565b604051601f82017fffffffffffffffffffffffffffffffffffffffffffffffffffffffffffffffe016810167ffffffffffffffff811182821017156104195761041961037a565b604052919050565b60005b8381101561043c578181015183820152602001610424565b8381111561044b576000848401525b50505050565b6000602080838503121561046457600080fd5b825167ffffffffffffffff8082111561047c57600080fd5b818501915085601f83011261049057600080fd5b8151818111156104a2576104a261037a565b8060051b6104b18582016103d2565b91825283810185019185810190898411156104cb57600080fd5b86860192505b838310156105cd578251858111156104e857600080fd5b86017fffffffffffffffffffffffffffffffffffffffffffffffffffffffffffffffe06060828d038201121561051e5760008081fd5b6105266103a9565b89830151600481106105385760008081fd5b81526040838101518981111561054e5760008081fd5b8401603f81018f136105605760008081fd5b8b8101518a8111156105745761057461037a565b6105848d86601f840116016103d2565b94508085528f8382840101111561059b5760008081fd5b6105aa818e8701858501610421565b5050818b01929092526060929092015190820152825291860191908601906104d1565b9998505050505050505050565b7f4e487b7100000000000000000000000000000000000000000000000000000000600052603260045260246000fd5b7f4e487b7100000000000000000000000000000000000000000000000000000000600052602160045260246000fd5b6000825161064a818460208701610421565b9190910192915050565b60007fffffffffffffffffffffffffffffffffffffffffffffffffffffffffffffffff82036106ac577f4e487b7100000000000000000000000000000000000000000000000000000000600052601160045260246000fd5b506001019056fea164736f6c634300080f000a6101006040523480156200001257600080fd5b50604051620022fc380380620022fc83398101604081905262000035916200038d565b83838383836001600160a01b03166080816001600160a01b0316815250506080516001600160a01b031663ec5e63086040518163ffffffff1660e01b8152600401602060405180830381865afa15801562000094573d6000803e3d6000fd5b505050506040513d601f19601f82011682018060405250810190620000ba9190620004ae565b60a081815250506080516001600160a01b031663fa315aa96040518163ffffffff1660e01b8152600401602060405180830381865afa15801562000102573d6000803e3d6000fd5b505050506040513d601f19601f82011682018060405250810190620001289190620004ae565b60c081905260a0516200013b91620004de565b62000148906002620005f7565b60e05282516200016090600890602086019062000248565b5060096200016f83826200069b565b50600a6200017e82826200069b565b5050505050836001600160a01b031663bcef3b556040518163ffffffff1660e01b8152600401602060405180830381865afa158015620001c2573d6000803e3d6000fd5b505050506040513d601f19601f82011682018060405250810190620001e89190620004ae565b60e051620001f69062000212565b600c80549190921460ff19909116179055506200077d92505050565b6000600862000223600184620004de565b8154811062000236576200023662000767565b60009182526020909120015492915050565b82805482825590600052602060002090810192821562000286579160200282015b828111156200028657825182559160200191906001019062000269565b506200029492915062000298565b5090565b5b8082111562000294576000815560010162000299565b634e487b7160e01b600052604160045260246000fd5b604051601f8201601f191681016001600160401b0381118282101715620002f057620002f0620002af565b604052919050565b600082601f8301126200030a57600080fd5b81516001600160401b03811115620003265762000326620002af565b60206200033c601f8301601f19168201620002c5565b82815285828487010111156200035157600080fd5b60005b838110156200037157858101830151828201840152820162000354565b83811115620003835760008385840101525b5095945050505050565b60008060008060808587031215620003a457600080fd5b84516001600160a01b0381168114620003bc57600080fd5b602086810151919550906001600160401b0380821115620003dc57600080fd5b818801915088601f830112620003f157600080fd5b815181811115620004065762000406620002af565b8060051b62000417858201620002c5565b918252838101850191858101908c8411156200043257600080fd5b948601945b83861015620004525785518252948601949086019062000437565b60408c01519099509550505050808311156200046d57600080fd5b6200047b89848a01620002f8565b945060608801519250808311156200049257600080fd5b5050620004a287828801620002f8565b91505092959194509250565b600060208284031215620004c157600080fd5b5051919050565b634e487b7160e01b600052601160045260246000fd5b600082821015620004f357620004f3620004c8565b500390565b600181815b80851115620005395781600019048211156200051d576200051d620004c8565b808516156200052b57918102915b93841c9390800290620004fd565b509250929050565b6000826200055257506001620005f1565b816200056157506000620005f1565b81600181146200057a57600281146200058557620005a5565b6001915050620005f1565b60ff841115620005995762000599620004c8565b50506001821b620005f1565b5060208310610133831016604e8410600b8410161715620005ca575081810a620005f1565b620005d68383620004f8565b8060001904821115620005ed57620005ed620004c8565b0290505b92915050565b600062000605838362000541565b9392505050565b600181811c908216806200062157607f821691505b6020821081036200064257634e487b7160e01b600052602260045260246000fd5b50919050565b601f8211156200069657600081815260208120601f850160051c81016020861015620006715750805b601f850160051c820191505b8181101562000692578281556001016200067d565b5050505b505050565b81516001600160401b03811115620006b757620006b7620002af565b620006cf81620006c884546200060c565b8462000648565b602080601f831160018114620007075760008415620006ee5750858301515b600019600386901b1c1916600185901b17855562000692565b600085815260208120601f198616915b82811015620007385788860151825594840194600190910190840162000717565b5085821015620007575787850151600019600388901b60f8161c191681555b5050505050600190811b01905550565b634e487b7160e01b600052603260045260246000fd5b60805160a05160c05160e051611aee6200080e60003960005050600081816102d201528181610b4001528181610bd801528181610c46015281816110e701526112d00152600081816106c301528181610b1f01528181610e9d01528181611114015261127f01526000818160ca015281816101730152818161052b015281816108cb01526109800152611aee6000f3fe608060405234801561001057600080fd5b506004361061007d5760003560e01c80632bb191831161005b5780632bb1918314610111578063696389c914610126578063907774381461012f578063aad96ad41461014457600080fd5b806302be8bfe14610082578063155db5ad146100a857806327730d12146100c5575b600080fd5b610095610090366004611500565b61014c565b6040519081526020015b60405180910390f35b600c546100b59060ff1681565b604051901515815260200161009f565b6100ec7f000000000000000000000000000000000000000000000000000000000000000081565b60405173ffffffffffffffffffffffffffffffffffffffff909116815260200161009f565b61011961016d565b60405161009f91906115b3565b610095600b5481565b61013761044a565b60405161009f919061168b565b6101376104d8565b6008818154811061015c57600080fd5b600091825260209091200154905081565b606060007f000000000000000000000000000000000000000000000000000000000000000073ffffffffffffffffffffffffffffffffffffffff16638980e0cc6040518163ffffffff1660e01b8152600401602060405180830381865afa1580156101dc573d6000803e3d6000fd5b505050506040513d601f19601f8201168201806040525081019061020091906116a5565b9050600b548161021091906116ed565b67ffffffffffffffff81111561022857610228611704565b60405190808252806020026020018201604052801561027e57816020015b61026b6040805160608101909152806000815260200160608152602001600081525090565b8152602001906001900390816102465790505b50600b549092506000905b8281101561041c57600061029c826104e5565b90506000806102aa8361063a565b909250905060028260028111156102c3576102c3611519565b036102d05750505061040a565b7f000000000000000000000000000000000000000000000000000000000000000061038d826fffffffffffffffffffffffffffffffff167e09010a0d15021d0b0e10121619031e080c141c0f111807131b17061a05041f7f07c4acdd0000000000000000000000000000000000000000000000000000000067ffffffffffffffff831160061b83811c63ffffffff1060051b1792831c600181901c17600281901c17600481901c17600881901c17601081901c170260fb1c1a1790565b60ff16116103cd576103a0828286610834565b87866103ab81611733565b9750815181106103bd576103bd61176b565b6020026020010181905250610406565b6103dd828460a001518387610ada565b87866103e881611733565b9750815181106103fa576103fa61176b565b60200260200101819052505b5050505b8061041481611733565b915050610289565b50808352600b5461042d90836116ed565b600b600082825461043e919061179a565b92505081905550505090565b600a8054610457906117b2565b80601f0160208091040260200160405190810160405280929190818152602001828054610483906117b2565b80156104d05780601f106104a5576101008083540402835291602001916104d0565b820191906000526020600020905b8154815290600101906020018083116104b357829003601f168201915b505050505081565b60098054610457906117b2565b6040805160e081018252600080825260208201819052918101829052606081018290526080810182905260a0810182905260c081019190915260008060008060008060007f000000000000000000000000000000000000000000000000000000000000000073ffffffffffffffffffffffffffffffffffffffff1663c6f0308c8a6040518263ffffffff1660e01b815260040161058491815260200190565b60e060405180830381865afa1580156105a1573d6000803e3d6000fd5b505050506040513d601f19601f820116820180604052508101906105c5919061184f565b6040805160e08101825263ffffffff909816885273ffffffffffffffffffffffffffffffffffffffff968716602089015295909416948601949094526fffffffffffffffffffffffffffffffff9182166060860152608085015291821660a08401521660c08201529998505050505050505050565b600080600061064c8460a00151610ddb565b9050600084608001516106628660a00151610e99565b14905063ffffffff8016856000015163ffffffff16036106be578080156106865750815b1561069957506002946000945092505050565b60a085015160019450841b7001fffffffffffffffffffffffffffffffe16925061082d565b6106e97f0000000000000000000000000000000000000000000000000000000000000000600161179a565b6107898660a001516fffffffffffffffffffffffffffffffff167e09010a0d15021d0b0e10121619031e080c141c0f111807131b17061a05041f7f07c4acdd0000000000000000000000000000000000000000000000000000000067ffffffffffffffff831160061b83811c63ffffffff1060051b1792831c600181901c17600281901c17600481901c17600881901c17601081901c170260fb1c1a1790565b60ff161480156107965750805b156107a957506002946000945092505050565b81156107bd57506002946000945092505050565b60006107cc8660a00151610e99565b9050856080015181146107ff5760a086015160011b7001fffffffffffffffffffffffffffffffe1693506001945061082b565b60a0860151610824906fffffffffffffffffffffffffffffffff166000151760011b90565b9350600094505b505b5050915091565b6108596040805160608101909152806000815260200160608152602001600081525090565b6000600185600281111561086f5761086f611519565b6040517fc395e1ca0000000000000000000000000000000000000000000000000000000081526fffffffffffffffffffffffffffffffff871660048201529114915060009073ffffffffffffffffffffffffffffffffffffffff7f0000000000000000000000000000000000000000000000000000000000000000169063c395e1ca90602401602060405180830381865afa158015610912573d6000803e3d6000fd5b505050506040513d601f19601f8201168201806040525081019061093691906116a5565b6040517fc6f0308c0000000000000000000000000000000000000000000000000000000081526004810186905290915060009073ffffffffffffffffffffffffffffffffffffffff7f0000000000000000000000000000000000000000000000000000000000000000169063c6f0308c9060240160e060405180830381865afa1580156109c7573d6000803e3d6000fd5b505050506040513d601f19601f820116820180604052508101906109eb919061184f565b5050945050505050604051806060016040528084610a0a576001610a0d565b60005b6003811115610a1e57610a1e611519565b81526020018287610a2e8a610e99565b604051602481019390935260448301919091526064820152851515608482015260a401604080517fffffffffffffffffffffffffffffffffffffffffffffffffffffffffffffffe0818403018152919052602080820180517bffffffffffffffffffffffffffffffffffffffffffffffffffffffff167f6f0344090000000000000000000000000000000000000000000000000000000017905290825201929092525095945050505050565b610aff6040805160608101909152806000815260200160608152602001600081525090565b60006001866002811115610b1557610b15611519565b1490506060610b647f00000000000000000000000000000000000000000000000000000000000000007f00000000000000000000000000000000000000000000000000000000000000006116ed565b610b6f906002611a03565b610b8a866fffffffffffffffffffffffffffffffff16610f7d565b6fffffffffffffffffffffffffffffffff16610ba69190611a3e565b15610c9b578115610c2e576000610bbe600188611a52565b9050610bfc6fffffffffffffffffffffffffffffffff82167f000000000000000000000000000000000000000000000000000000000000000061101c565b610c05826110ca565b604080516020810193909352820152606001604051602081830303815290604052915050610d29565b610c6a6fffffffffffffffffffffffffffffffff87167f000000000000000000000000000000000000000000000000000000000000000061101c565b610c73876110ca565b6040805160208101939093528201526060016040516020818303038152906040529050610d29565b600a8054610ca8906117b2565b80601f0160208091040260200160405190810160405280929190818152602001828054610cd4906117b2565b8015610d215780601f10610cf657610100808354040283529160200191610d21565b820191906000526020600020905b815481529060010190602001808311610d0457829003601f168201915b505050505090505b60408051606081019091528060028152602001858484604051602401610d5193929190611a83565b604080517fffffffffffffffffffffffffffffffffffffffffffffffffffffffffffffffe0818403018152919052602080820180517bffffffffffffffffffffffffffffffffffffffffffffffffffffffff167fd8cc1a3c000000000000000000000000000000000000000000000000000000001790529082526000910152979650505050505050565b60006002610e7b836fffffffffffffffffffffffffffffffff167e09010a0d15021d0b0e10121619031e080c141c0f111807131b17061a05041f7f07c4acdd0000000000000000000000000000000000000000000000000000000067ffffffffffffffff831160061b83811c63ffffffff1060051b1792831c600181901c17600281901c17600481901c17600881901c17601081901c170260fb1c1a1790565b610e859190611abf565b600c5460ff90811615159116151492915050565b60007f0000000000000000000000000000000000000000000000000000000000000000610f58836fffffffffffffffffffffffffffffffff167e09010a0d15021d0b0e10121619031e080c141c0f111807131b17061a05041f7f07c4acdd0000000000000000000000000000000000000000000000000000000067ffffffffffffffff831160061b83811c63ffffffff1060051b1792831c600181901c17600281901c17600481901c17600881901c17601081901c170260fb1c1a1790565b60ff1611610f6e57610f6982611110565b610f77565b610f77826112b3565b92915050565b60008061100a837e09010a0d15021d0b0e10121619031e080c141c0f111807131b17061a05041f7f07c4acdd0000000000000000000000000000000000000000000000000000000067ffffffffffffffff831160061b83811c63ffffffff1060051b1792831c600181901c17600281901c17600481901c17600881901c17601081901c170260fb1c1a1790565b600160ff919091161b90920392915050565b6000806110a9847e09010a0d15021d0b0e10121619031e080c141c0f111807131b17061a05041f7f07c4acdd0000000000000000000000000000000000000000000000000000000067ffffffffffffffff831160061b83811c63ffffffff1060051b1792831c600181901c17600281901c17600481901c17600881901c17601081901c170260fb1c1a1790565b60ff1690508083036001841b600180831b0386831b17039250505092915050565b6000610f7761110b6fffffffffffffffffffffffffffffffff84167f000000000000000000000000000000000000000000000000000000000000000061101c565b6112f9565b60007f00000000000000000000000000000000000000000000000000000000000000006111cf836fffffffffffffffffffffffffffffffff167e09010a0d15021d0b0e10121619031e080c141c0f111807131b17061a05041f7f07c4acdd0000000000000000000000000000000000000000000000000000000067ffffffffffffffff831160061b83811c63ffffffff1060051b1792831c600181901c17600281901c17600481901c17600881901c17601081901c170260fb1c1a1790565b60ff161115611264576040517f08c379a000000000000000000000000000000000000000000000000000000000815260206004820152602260248201527f47616d65536f6c7665723a20696e76616c696420706f736974696f6e2064657060448201527f7468000000000000000000000000000000000000000000000000000000000000606482015260840160405180910390fd5b610f776112a36fffffffffffffffffffffffffffffffff84167f000000000000000000000000000000000000000000000000000000000000000061101c565b6112ae90600161179a565b6113fb565b6000610f776112f46fffffffffffffffffffffffffffffffff84167f000000000000000000000000000000000000000000000000000000000000000061101c565b61142c565b600060098054611308906117b2565b905082101561137757600982815461131f906117b2565b811061132d5761132d61176b565b81546001161561134c5790600052602060002090602091828204019190065b9054901a7f0100000000000000000000000000000000000000000000000000000000000000026113f2565b6009600160098054611388906117b2565b6113939291506116ed565b815461139e906117b2565b81106113ac576113ac61176b565b8154600116156113cb5790600052602060002090602091828204019190065b9054901a7f0100000000000000000000000000000000000000000000000000000000000000025b60f81c92915050565b6000600861140a6001846116ed565b8154811061141a5761141a61176b565b60009182526020909120015492915050565b6000806009805461143c906117b2565b905083101561144b5782611465565b60016009805461145a906117b2565b6114659291506116ed565b61146e846112f9565b604080516020810193909352820152606001604080517fffffffffffffffffffffffffffffffffffffffffffffffffffffffffffffffe081840301815291905280516020909101207effffffffffffffffffffffffffffffffffffffffffffffffffffffffffffff167f0100000000000000000000000000000000000000000000000000000000000000179392505050565b60006020828403121561151257600080fd5b5035919050565b7f4e487b7100000000000000000000000000000000000000000000000000000000600052602160045260246000fd5b6000815180845260005b8181101561156e57602081850181015186830182015201611552565b81811115611580576000602083870101525b50601f017fffffffffffffffffffffffffffffffffffffffffffffffffffffffffffffffe0169290920160200192915050565b60006020808301818452808551808352604092508286019150828160051b8701018488016000805b8481101561167c577fffffffffffffffffffffffffffffffffffffffffffffffffffffffffffffffc08a85030186528251606081516004808210611645577f4e487b7100000000000000000000000000000000000000000000000000000000865260218152602486fd5b508652818a01518a870182905261165e82880182611548565b928a0151968a019690965250958801959350918701916001016115db565b50919998505050505050505050565b60208152600061169e6020830184611548565b9392505050565b6000602082840312156116b757600080fd5b5051919050565b7f4e487b7100000000000000000000000000000000000000000000000000000000600052601160045260246000fd5b6000828210156116ff576116ff6116be565b500390565b7f4e487b7100000000000000000000000000000000000000000000000000000000600052604160045260246000fd5b60007fffffffffffffffffffffffffffffffffffffffffffffffffffffffffffffffff8203611764576117646116be565b5060010190565b7f4e487b7100000000000000000000000000000000000000000000000000000000600052603260045260246000fd5b600082198211156117ad576117ad6116be565b500190565b600181811c908216806117c657607f821691505b6020821081036117ff577f4e487b7100000000000000000000000000000000000000000000000000000000600052602260045260246000fd5b50919050565b805173ffffffffffffffffffffffffffffffffffffffff8116811461182957600080fd5b919050565b6fffffffffffffffffffffffffffffffff8116811461184c57600080fd5b50565b600080600080600080600060e0888a03121561186a57600080fd5b875163ffffffff8116811461187e57600080fd5b965061188c60208901611805565b955061189a60408901611805565b945060608801516118aa8161182e565b608089015160a08a015191955093506118c28161182e565b60c08901519092506118d38161182e565b8091505092959891949750929550565b600181815b8085111561193c57817fffffffffffffffffffffffffffffffffffffffffffffffffffffffffffffffff04821115611922576119226116be565b8085161561192f57918102915b93841c93908002906118e8565b509250929050565b60008261195357506001610f77565b8161196057506000610f77565b816001811461197657600281146119805761199c565b6001915050610f77565b60ff841115611991576119916116be565b50506001821b610f77565b5060208310610133831016604e8410600b84101617156119bf575081810a610f77565b6119c983836118e3565b807fffffffffffffffffffffffffffffffffffffffffffffffffffffffffffffffff048211156119fb576119fb6116be565b029392505050565b600061169e8383611944565b7f4e487b7100000000000000000000000000000000000000000000000000000000600052601260045260246000fd5b600082611a4d57611a4d611a0f565b500690565b60006fffffffffffffffffffffffffffffffff83811690831681811015611a7b57611a7b6116be565b039392505050565b8381528215156020820152608060408201526000611aa46080830184611548565b82810360608401526000815260208101915050949350505050565b600060ff831680611ad257611ad2611a0f565b8060ff8416069150509291505056fea164736f6c634300080f000a","linkReferences":{}},"methodIdentifiers":{"GAME()":"27730d12","move()":"3ec48a2e","solver()":"49a7a26d"},"storageLayout":{"storage":[{"astId":169223,"contract":"test/actors/FaultDisputeActors.sol:HonestDisputeActor","label":"solver","offset":0,"slot":"0","type":"t_contract(GameSolver)168499"}],"types":{"t_contract(GameSolver)168499":{"encoding":"inplace","label":"contract GameSolver","numberOfBytes":"20"}}},"userdoc":{"version":1,"kind":"user","methods":{"move()":{"notice":"Performs all available moves deemed by the attached solver."},"solver()":{"notice":"The `GameSolver` contract used to determine the moves to be taken."}},"notice":"An actor that consumes the suggested moves from an `HonestGameSolver` contract. Note         that this actor *can* be dishonest if the trace is faulty, but it will always follow         the rules of the honest actor."},"devdoc":{"version":1,"kind":"dev","methods":{"move()":{"returns":{"numMoves_":"The number of moves that the actor took.","success_":"True if all moves were successful, false otherwise."}}},"title":"HonestDisputeActor"},"id":350}