{"abi":[{"type":"constructor","inputs":[{"name":"_gameProxy","type":"address","internalType":"contract IFaultDisputeGame"},{"name":"_l2Outputs","type":"uint256[]","internalType":"uint256[]"},{"name":"_trace","type":"bytes","internalType":"bytes"},{"name":"_preStateData","type":"bytes","internalType":"bytes"}],"stateMutability":"nonpayable"},{"type":"function","name":"GAME","inputs":[],"outputs":[{"name":"","type":"address","internalType":"contract IFaultDisputeGame"}],"stateMutability":"view"},{"type":"function","name":"absolutePrestateData","inputs":[],"outputs":[{"name":"","type":"bytes","internalType":"bytes"}],"stateMutability":"view"},{"type":"function","name":"agreeWithRoot","inputs":[],"outputs":[{"name":"","type":"bool","internalType":"bool"}],"stateMutability":"view"},{"type":"function","name":"l2Outputs","inputs":[{"name":"","type":"uint256","internalType":"uint256"}],"outputs":[{"name":"","type":"uint256","internalType":"uint256"}],"stateMutability":"view"},{"type":"function","name":"processedBuf","inputs":[],"outputs":[{"name":"","type":"uint256","internalType":"uint256"}],"stateMutability":"view"},{"type":"function","name":"solveGame","inputs":[],"outputs":[{"name":"moves_","type":"tuple[]","internalType":"struct GameSolver.Move[]","components":[{"name":"kind","type":"uint8","internalType":"enum GameSolver.MoveKind"},{"name":"data","type":"bytes","internalType":"bytes"},{"name":"value","type":"uint256","internalType":"uint256"}]}],"stateMutability":"nonpayable"},{"type":"function","name":"trace","inputs":[],"outputs":[{"name":"","type":"bytes","internalType":"bytes"}],"stateMutability":"view"}],"bytecode":{"object":"0x610100604052348015610010575f5ffd5b506040516121b53803806121b583398101604081905261002f9161032b565b83838383836001600160a01b03166080816001600160a01b0316815250506080516001600160a01b031663ec5e63086040518163ffffffff1660e01b8152600401602060405180830381865afa15801561008b573d5f5f3e3d5ffd5b505050506040513d601f19601f820116820180604052508101906100af919061044b565b60a081815250506080516001600160a01b031663fa315aa96040518163ffffffff1660e01b8152600401602060405180830381865afa1580156100f4573d5f5f3e3d5ffd5b505050506040513d601f19601f82011682018060405250810190610118919061044b565b60c081905260a05161012991610476565b610134906002610572565b60e052825161014a90600890602086019061021f565b5060096101578382610608565b50600a6101648282610608565b5050505050836001600160a01b031663bcef3b556040518163ffffffff1660e01b8152600401602060405180830381865afa1580156101a5573d5f5f3e3d5ffd5b505050506040513d601f19601f820116820180604052508101906101c9919061044b565b60e0516101d5906101f0565b600c80549190921460ff19909116179055506106d692505050565b5f60086101fe600184610476565b8154811061020e5761020e6106c2565b5f9182526020909120015492915050565b828054828255905f5260205f20908101928215610258579160200282015b8281111561025857825182559160200191906001019061023d565b50610264929150610268565b5090565b5b80821115610264575f8155600101610269565b634e487b7160e01b5f52604160045260245ffd5b604051601f8201601f191681016001600160401b03811182821017156102b8576102b861027c565b604052919050565b5f82601f8301126102cf575f5ffd5b81516001600160401b038111156102e8576102e861027c565b6102fb601f8201601f1916602001610290565b81815284602083860101111561030f575f5ffd5b8160208501602083015e5f918101602001919091529392505050565b5f5f5f5f6080858703121561033e575f5ffd5b84516001600160a01b0381168114610354575f5ffd5b60208601519094506001600160401b0381111561036f575f5ffd5b8501601f8101871361037f575f5ffd5b80516001600160401b038111156103985761039861027c565b8060051b6103a860208201610290565b9182526020818401810192908101908a8411156103c3575f5ffd5b6020850194505b838510156103e9578451808352602095860195909350909101906103ca565b60408a0151909750935050506001600160401b03821115905061040a575f5ffd5b610416878288016102c0565b606087015190935090506001600160401b03811115610433575f5ffd5b61043f878288016102c0565b91505092959194509250565b5f6020828403121561045b575f5ffd5b5051919050565b634e487b7160e01b5f52601160045260245ffd5b8181038181111561048957610489610462565b92915050565b6001815b60018411156104ca578085048111156104ae576104ae610462565b60018416156104bc57908102905b60019390931c928002610493565b935093915050565b5f826104e057506001610489565b816104ec57505f610489565b8160018114610502576002811461050c57610528565b6001915050610489565b60ff84111561051d5761051d610462565b50506001821b610489565b5060208310610133831016604e8410600b841016171561054b575081810a610489565b6105575f19848461048f565b805f190482111561056a5761056a610462565b029392505050565b5f61057d83836104d2565b9392505050565b600181811c9082168061059857607f821691505b6020821081036105b657634e487b7160e01b5f52602260045260245ffd5b50919050565b601f82111561060357805f5260205f20601f840160051c810160208510156105e15750805b601f840160051c820191505b81811015610600575f81556001016105ed565b50505b505050565b81516001600160401b038111156106215761062161027c565b6106358161062f8454610584565b846105bc565b6020601f821160018114610667575f83156106505750848201515b5f19600385901b1c1916600184901b178455610600565b5f84815260208120601f198516915b828110156106965787850151825560209485019460019092019101610676565b50848210156106b357868401515f19600387901b60f8161c191681555b50505050600190811b01905550565b634e487b7160e01b5f52603260045260245ffd5b60805160a05160c05160e051611a556107605f395f50505f81816102c401528181610b0701528181610b9e01528181610c0c015281816110a5015261128c01525f818161069c01528181610ae601528181610e5e015281816110d1015261123c01525f818160c60152818161016c0152818161050b0152818161089b015261094d0152611a555ff3fe608060405234801561000f575f5ffd5b506004361061007a575f3560e01c80632bb19183116100585780632bb191831461010d578063696389c914610122578063907774381461012b578063aad96ad414610140575f5ffd5b806302be8bfe1461007e578063155db5ad146100a457806327730d12146100c1575b5f5ffd5b61009161008c3660046114b4565b610148565b6040519081526020015b60405180910390f35b600c546100b19060ff1681565b604051901515815260200161009b565b6100e87f000000000000000000000000000000000000000000000000000000000000000081565b60405173ffffffffffffffffffffffffffffffffffffffff909116815260200161009b565b610115610167565b60405161009b9190611544565b610091600b5481565b610133610431565b60405161009b919061161e565b6101336104bd565b60088181548110610157575f80fd5b5f91825260209091200154905081565b60605f7f000000000000000000000000000000000000000000000000000000000000000073ffffffffffffffffffffffffffffffffffffffff16638980e0cc6040518163ffffffff1660e01b8152600401602060405180830381865afa1580156101d3573d5f5f3e3d5ffd5b505050506040513d601f19601f820116820180604052508101906101f79190611637565b9050600b5481610207919061167b565b67ffffffffffffffff81111561021f5761021f61168e565b60405190808252806020026020018201604052801561027357816020015b6102606040805160608101909152805f8152602001606081526020015f81525090565b81526020019060019003908161023d5790505b50600b549092505f905b82811015610404575f61028f826104ca565b90505f5f61029c83610618565b909250905060028260028111156102b5576102b56114cb565b036102c2575050506103fc565b7f000000000000000000000000000000000000000000000000000000000000000061037f826fffffffffffffffffffffffffffffffff167e09010a0d15021d0b0e10121619031e080c141c0f111807131b17061a05041f7f07c4acdd0000000000000000000000000000000000000000000000000000000067ffffffffffffffff831160061b83811c63ffffffff1060051b1792831c600181901c17600281901c17600481901c17600881901c17601081901c170260fb1c1a1790565b60ff16116103bf57610392828286610808565b878661039d816116bb565b9750815181106103af576103af6116f2565b60200260200101819052506103f8565b6103cf828460a001518387610aa4565b87866103da816116bb565b9750815181106103ec576103ec6116f2565b60200260200101819052505b5050505b60010161027d565b50808352600b54610415908361167b565b600b5f828254610425919061171f565b92505081905550505090565b600a805461043e90611732565b80601f016020809104026020016040519081016040528092919081815260200182805461046a90611732565b80156104b55780601f1061048c576101008083540402835291602001916104b5565b820191905f5260205f20905b81548152906001019060200180831161049857829003601f168201915b505050505081565b6009805461043e90611732565b6040805160e0810182525f80825260208201819052918101829052606081018290526080810182905260a0810182905260c08101919091525f5f5f5f5f5f5f7f000000000000000000000000000000000000000000000000000000000000000073ffffffffffffffffffffffffffffffffffffffff1663c6f0308c8a6040518263ffffffff1660e01b815260040161056491815260200190565b60e060405180830381865afa15801561057f573d5f5f3e3d5ffd5b505050506040513d601f19601f820116820180604052508101906105a391906117cb565b6040805160e08101825263ffffffff909816885273ffffffffffffffffffffffffffffffffffffffff968716602089015295909416948601949094526fffffffffffffffffffffffffffffffff9182166060860152608085015291821660a08401521660c08201529998505050505050505050565b5f5f5f6106288460a00151610d9e565b90505f846080015161063d8660a00151610e5b565b14905063ffffffff8016855f015163ffffffff1603610697578080156106605750815b1561067257506002945f945092505050565b60a085015160019450841b7001fffffffffffffffffffffffffffffffe169250610801565b6106c27f0000000000000000000000000000000000000000000000000000000000000000600161171f565b6107628660a001516fffffffffffffffffffffffffffffffff167e09010a0d15021d0b0e10121619031e080c141c0f111807131b17061a05041f7f07c4acdd0000000000000000000000000000000000000000000000000000000067ffffffffffffffff831160061b83811c63ffffffff1060051b1792831c600181901c17600281901c17600481901c17600881901c17601081901c170260fb1c1a1790565b60ff1614801561076f5750805b1561078157506002945f945092505050565b811561079457506002945f945092505050565b5f6107a28660a00151610e5b565b9050856080015181146107d55760a086015160011b7001fffffffffffffffffffffffffffffffe169350600194506107ff565b60a08601516107f9906fffffffffffffffffffffffffffffffff165f151760011b90565b93505f94505b505b5050915091565b61082b6040805160608101909152805f8152602001606081526020015f81525090565b5f6001856002811115610840576108406114cb565b6040517fc395e1ca0000000000000000000000000000000000000000000000000000000081526fffffffffffffffffffffffffffffffff87166004820152911491505f9073ffffffffffffffffffffffffffffffffffffffff7f0000000000000000000000000000000000000000000000000000000000000000169063c395e1ca90602401602060405180830381865afa1580156108e0573d5f5f3e3d5ffd5b505050506040513d601f19601f820116820180604052508101906109049190611637565b6040517fc6f0308c000000000000000000000000000000000000000000000000000000008152600481018690529091505f9073ffffffffffffffffffffffffffffffffffffffff7f0000000000000000000000000000000000000000000000000000000000000000169063c6f0308c9060240160e060405180830381865afa158015610992573d5f5f3e3d5ffd5b505050506040513d601f19601f820116820180604052508101906109b691906117cb565b50509450505050506040518060600160405280846109d55760016109d7565b5f5b60038111156109e8576109e86114cb565b815260200182876109f88a610e5b565b604051602481019390935260448301919091526064820152851515608482015260a401604080517fffffffffffffffffffffffffffffffffffffffffffffffffffffffffffffffe0818403018152919052602080820180517bffffffffffffffffffffffffffffffffffffffffffffffffffffffff167f6f0344090000000000000000000000000000000000000000000000000000000017905290825201929092525095945050505050565b610ac76040805160608101909152805f8152602001606081526020015f81525090565b5f6001866002811115610adc57610adc6114cb565b1490506060610b2b7f00000000000000000000000000000000000000000000000000000000000000007f000000000000000000000000000000000000000000000000000000000000000061167b565b610b3690600261197a565b610b51866fffffffffffffffffffffffffffffffff16610f3e565b6fffffffffffffffffffffffffffffffff16610b6d91906119b2565b15610c61578115610bf4575f610b846001886119c5565b9050610bc26fffffffffffffffffffffffffffffffff82167f0000000000000000000000000000000000000000000000000000000000000000610fdc565b610bcb82611089565b604080516020810193909352820152606001604051602081830303815290604052915050610ced565b610c306fffffffffffffffffffffffffffffffff87167f0000000000000000000000000000000000000000000000000000000000000000610fdc565b610c3987611089565b6040805160208101939093528201526060016040516020818303038152906040529050610ced565b600a8054610c6e90611732565b80601f0160208091040260200160405190810160405280929190818152602001828054610c9a90611732565b8015610ce55780601f10610cbc57610100808354040283529160200191610ce5565b820191905f5260205f20905b815481529060010190602001808311610cc857829003601f168201915b505050505090505b60408051606081019091528060028152602001858484604051602401610d15939291906119ed565b604080517fffffffffffffffffffffffffffffffffffffffffffffffffffffffffffffffe0818403018152919052602080820180517bffffffffffffffffffffffffffffffffffffffffffffffffffffffff167fd8cc1a3c000000000000000000000000000000000000000000000000000000001790529082525f910152979650505050505050565b5f6002610e3d836fffffffffffffffffffffffffffffffff167e09010a0d15021d0b0e10121619031e080c141c0f111807131b17061a05041f7f07c4acdd0000000000000000000000000000000000000000000000000000000067ffffffffffffffff831160061b83811c63ffffffff1060051b1792831c600181901c17600281901c17600481901c17600881901c17601081901c170260fb1c1a1790565b610e479190611a27565b600c5460ff90811615159116151492915050565b5f7f0000000000000000000000000000000000000000000000000000000000000000610f19836fffffffffffffffffffffffffffffffff167e09010a0d15021d0b0e10121619031e080c141c0f111807131b17061a05041f7f07c4acdd0000000000000000000000000000000000000000000000000000000067ffffffffffffffff831160061b83811c63ffffffff1060051b1792831c600181901c17600281901c17600481901c17600881901c17601081901c170260fb1c1a1790565b60ff1611610f2f57610f2a826110ce565b610f38565b610f3882611270565b92915050565b5f5f610fca837e09010a0d15021d0b0e10121619031e080c141c0f111807131b17061a05041f7f07c4acdd0000000000000000000000000000000000000000000000000000000067ffffffffffffffff831160061b83811c63ffffffff1060051b1792831c600181901c17600281901c17600481901c17600881901c17601081901c170260fb1c1a1790565b600160ff919091161b90920392915050565b5f5f611068847e09010a0d15021d0b0e10121619031e080c141c0f111807131b17061a05041f7f07c4acdd0000000000000000000000000000000000000000000000000000000067ffffffffffffffff831160061b83811c63ffffffff1060051b1792831c600181901c17600281901c17600481901c17600881901c17601081901c170260fb1c1a1790565b60ff1690508083036001841b600180831b0386831b17039250505092915050565b5f610f386110c96fffffffffffffffffffffffffffffffff84167f0000000000000000000000000000000000000000000000000000000000000000610fdc565b6112b5565b5f7f000000000000000000000000000000000000000000000000000000000000000061118c836fffffffffffffffffffffffffffffffff167e09010a0d15021d0b0e10121619031e080c141c0f111807131b17061a05041f7f07c4acdd0000000000000000000000000000000000000000000000000000000067ffffffffffffffff831160061b83811c63ffffffff1060051b1792831c600181901c17600281901c17600481901c17600881901c17601081901c170260fb1c1a1790565b60ff161115611221576040517f08c379a000000000000000000000000000000000000000000000000000000000815260206004820152602260248201527f47616d65536f6c7665723a20696e76616c696420706f736974696f6e2064657060448201527f7468000000000000000000000000000000000000000000000000000000000000606482015260840160405180910390fd5b610f386112606fffffffffffffffffffffffffffffffff84167f0000000000000000000000000000000000000000000000000000000000000000610fdc565b61126b90600161171f565b6113b2565b5f610f386112b06fffffffffffffffffffffffffffffffff84167f0000000000000000000000000000000000000000000000000000000000000000610fdc565b6113e1565b5f600980546112c390611732565b90508210156113305760098281546112da90611732565b81106112e8576112e86116f2565b81546001161561130557905f5260205f2090602091828204019190065b9054901a7f0100000000000000000000000000000000000000000000000000000000000000026113a9565b600960016009805461134190611732565b61134c92915061167b565b815461135790611732565b8110611365576113656116f2565b81546001161561138257905f5260205f2090602091828204019190065b9054901a7f0100000000000000000000000000000000000000000000000000000000000000025b60f81c92915050565b5f60086113c060018461167b565b815481106113d0576113d06116f2565b5f9182526020909120015492915050565b5f5f600980546113f090611732565b90508310156113ff5782611419565b60016009805461140e90611732565b61141992915061167b565b611422846112b5565b604080516020810193909352820152606001604080517fffffffffffffffffffffffffffffffffffffffffffffffffffffffffffffffe081840301815291905280516020909101207effffffffffffffffffffffffffffffffffffffffffffffffffffffffffffff167f0100000000000000000000000000000000000000000000000000000000000000179392505050565b5f602082840312156114c4575f5ffd5b5035919050565b7f4e487b71000000000000000000000000000000000000000000000000000000005f52602160045260245ffd5b5f81518084528060208401602086015e5f6020828601015260207fffffffffffffffffffffffffffffffffffffffffffffffffffffffffffffffe0601f83011685010191505092915050565b5f602082016020835280845180835260408501915060408160051b8601019250602086015f5b82811015611612577fffffffffffffffffffffffffffffffffffffffffffffffffffffffffffffffc087860301845281518051600481106115d2577f4e487b71000000000000000000000000000000000000000000000000000000005f52602160045260245ffd5b808752506020810151606060208801526115ef60608801826114f8565b60409283015197909201969096529450602093840193919091019060010161156a565b50929695505050505050565b602081525f61163060208301846114f8565b9392505050565b5f60208284031215611647575f5ffd5b5051919050565b7f4e487b71000000000000000000000000000000000000000000000000000000005f52601160045260245ffd5b81810381811115610f3857610f3861164e565b7f4e487b71000000000000000000000000000000000000000000000000000000005f52604160045260245ffd5b5f7fffffffffffffffffffffffffffffffffffffffffffffffffffffffffffffffff82036116eb576116eb61164e565b5060010190565b7f4e487b71000000000000000000000000000000000000000000000000000000005f52603260045260245ffd5b80820180821115610f3857610f3861164e565b600181811c9082168061174657607f821691505b60208210810361177d577f4e487b71000000000000000000000000000000000000000000000000000000005f52602260045260245ffd5b50919050565b805173ffffffffffffffffffffffffffffffffffffffff811681146117a6575f5ffd5b919050565b6fffffffffffffffffffffffffffffffff811681146117c8575f5ffd5b50565b5f5f5f5f5f5f5f60e0888a0312156117e1575f5ffd5b875163ffffffff811681146117f4575f5ffd5b965061180260208901611783565b955061181060408901611783565b94506060880151611820816117ab565b608089015160a08a01519195509350611838816117ab565b60c0890151909250611849816117ab565b8091505092959891949750929550565b6001815b6001841115611894578085048111156118785761187861164e565b600184161561188657908102905b60019390931c92800261185d565b935093915050565b5f826118aa57506001610f38565b816118b657505f610f38565b81600181146118cc57600281146118d6576118f2565b6001915050610f38565b60ff8411156118e7576118e761164e565b50506001821b610f38565b5060208310610133831016604e8410600b8410161715611915575081810a610f38565b6119407fffffffffffffffffffffffffffffffffffffffffffffffffffffffffffffffff8484611859565b807fffffffffffffffffffffffffffffffffffffffffffffffffffffffffffffffff048211156119725761197261164e565b029392505050565b5f611630838361189c565b7f4e487b71000000000000000000000000000000000000000000000000000000005f52601260045260245ffd5b5f826119c0576119c0611985565b500690565b6fffffffffffffffffffffffffffffffff8281168282160390811115610f3857610f3861164e565b8381528215156020820152608060408201525f611a0d60808301846114f8565b82810360608401525f815260208101915050949350505050565b5f60ff831680611a3957611a39611985565b8060ff8416069150509291505056fea164736f6c634300081c000a","linkReferences":{}},"methodIdentifiers":{"GAME()":"27730d12","absolutePrestateData()":"90777438","agreeWithRoot()":"155db5ad","l2Outputs(uint256)":"02be8bfe","processedBuf()":"696389c9","solveGame()":"2bb19183","trace()":"aad96ad4"},"storageLayout":{"storage":[{"astId":3535,"contract":"test/actors/FaultDisputeActors.sol:HonestGameSolver","label":"stdstore","offset":0,"slot":"0","type":"t_struct(StdStorage)11530_storage"},{"astId":70338,"contract":"test/actors/FaultDisputeActors.sol:HonestGameSolver","label":"l2Outputs","offset":0,"slot":"8","type":"t_array(t_uint256)dyn_storage"},{"astId":70341,"contract":"test/actors/FaultDisputeActors.sol:HonestGameSolver","label":"trace","offset":0,"slot":"9","type":"t_bytes_storage"},{"astId":70344,"contract":"test/actors/FaultDisputeActors.sol:HonestGameSolver","label":"absolutePrestateData","offset":0,"slot":"10","type":"t_bytes_storage"},{"astId":70347,"contract":"test/actors/FaultDisputeActors.sol:HonestGameSolver","label":"processedBuf","offset":0,"slot":"11","type":"t_uint256"},{"astId":70350,"contract":"test/actors/FaultDisputeActors.sol:HonestGameSolver","label":"agreeWithRoot","offset":0,"slot":"12","type":"t_bool"}],"types":{"t_address":{"encoding":"inplace","label":"address","numberOfBytes":"20"},"t_array(t_bytes32)dyn_storage":{"encoding":"dynamic_array","label":"bytes32[]","numberOfBytes":"32","base":"t_bytes32"},"t_array(t_uint256)dyn_storage":{"encoding":"dynamic_array","label":"uint256[]","numberOfBytes":"32","base":"t_uint256"},"t_bool":{"encoding":"inplace","label":"bool","numberOfBytes":"1"},"t_bytes32":{"encoding":"inplace","label":"bytes32","numberOfBytes":"32"},"t_bytes4":{"encoding":"inplace","label":"bytes4","numberOfBytes":"4"},"t_bytes_storage":{"encoding":"bytes","label":"bytes","numberOfBytes":"32"},"t_mapping(t_address,t_mapping(t_bytes4,t_mapping(t_bytes32,t_struct(FindData)11505_storage)))":{"encoding":"mapping","key":"t_address","label":"mapping(address => mapping(bytes4 => mapping(bytes32 => struct FindData)))","numberOfBytes":"32","value":"t_mapping(t_bytes4,t_mapping(t_bytes32,t_struct(FindData)11505_storage))"},"t_mapping(t_bytes32,t_struct(FindData)11505_storage)":{"encoding":"mapping","key":"t_bytes32","label":"mapping(bytes32 => struct FindData)","numberOfBytes":"32","value":"t_struct(FindData)11505_storage"},"t_mapping(t_bytes4,t_mapping(t_bytes32,t_struct(FindData)11505_storage))":{"encoding":"mapping","key":"t_bytes4","label":"mapping(bytes4 => mapping(bytes32 => struct FindData))","numberOfBytes":"32","value":"t_mapping(t_bytes32,t_struct(FindData)11505_storage)"},"t_struct(FindData)11505_storage":{"encoding":"inplace","label":"struct FindData","numberOfBytes":"128","members":[{"astId":11498,"contract":"test/actors/FaultDisputeActors.sol:HonestGameSolver","label":"slot","offset":0,"slot":"0","type":"t_uint256"},{"astId":11500,"contract":"test/actors/FaultDisputeActors.sol:HonestGameSolver","label":"offsetLeft","offset":0,"slot":"1","type":"t_uint256"},{"astId":11502,"contract":"test/actors/FaultDisputeActors.sol:HonestGameSolver","label":"offsetRight","offset":0,"slot":"2","type":"t_uint256"},{"astId":11504,"contract":"test/actors/FaultDisputeActors.sol:HonestGameSolver","label":"found","offset":0,"slot":"3","type":"t_bool"}]},"t_struct(StdStorage)11530_storage":{"encoding":"inplace","label":"struct StdStorage","numberOfBytes":"256","members":[{"astId":11514,"contract":"test/actors/FaultDisputeActors.sol:HonestGameSolver","label":"finds","offset":0,"slot":"0","type":"t_mapping(t_address,t_mapping(t_bytes4,t_mapping(t_bytes32,t_struct(FindData)11505_storage)))"},{"astId":11517,"contract":"test/actors/FaultDisputeActors.sol:HonestGameSolver","label":"_keys","offset":0,"slot":"1","type":"t_array(t_bytes32)dyn_storage"},{"astId":11519,"contract":"test/actors/FaultDisputeActors.sol:HonestGameSolver","label":"_sig","offset":0,"slot":"2","type":"t_bytes4"},{"astId":11521,"contract":"test/actors/FaultDisputeActors.sol:HonestGameSolver","label":"_depth","offset":0,"slot":"3","type":"t_uint256"},{"astId":11523,"contract":"test/actors/FaultDisputeActors.sol:HonestGameSolver","label":"_target","offset":0,"slot":"4","type":"t_address"},{"astId":11525,"contract":"test/actors/FaultDisputeActors.sol:HonestGameSolver","label":"_set","offset":0,"slot":"5","type":"t_bytes32"},{"astId":11527,"contract":"test/actors/FaultDisputeActors.sol:HonestGameSolver","label":"_enable_packed_slots","offset":0,"slot":"6","type":"t_bool"},{"astId":11529,"contract":"test/actors/FaultDisputeActors.sol:HonestGameSolver","label":"_calldata","offset":0,"slot":"7","type":"t_bytes_storage"}]},"t_uint256":{"encoding":"inplace","label":"uint256","numberOfBytes":"32"}}},"userdoc":{"version":1,"kind":"user","methods":{"GAME()":{"notice":"The `FaultDisputeGame` proxy that the `GameSolver` will be solving."},"absolutePrestateData()":{"notice":"The raw absolute prestate data."},"agreeWithRoot()":{"notice":"Signals whether or not the `GameSolver` agrees with the root claim of the         `GAME` contract."},"l2Outputs(uint256)":{"notice":"The L2 outputs that the `GameSolver` will be representing, keyed by L2 block number - 1."},"processedBuf()":{"notice":"The offset of previously processed claims in the `GAME` contract's `claimData` array.         Starts at 0 and increments by 1 for each claim processed."},"solveGame()":{"notice":"Returns an array of `Move`s that can be taken from the perspective of an honest         actor in the `FaultDisputeGame` contract."},"trace()":{"notice":"The execution trace that the `GameSolver` will be representing."}},"notice":"The `HonestGameSolver` is an implementation of `GameSolver` which responds accordingly depending         on the state of the `FaultDisputeGame` contract in relation to their local opinion of the correct         order of output roots and the execution trace between each block `n` -> `n + 1` state transition."},"devdoc":{"version":1,"kind":"dev","title":"HonestGameSolver"},"id":146}